{
	"box/box_allocate.sol": {
		"DeboxBoxAllocate": {
			"abi": [
				{
					"inputs": [],
					"stateMutability": "nonpayable",
					"type": "constructor"
				},
				{
					"inputs": [],
					"name": "ECDSAInvalidSignature",
					"type": "error"
				},
				{
					"inputs": [
						{
							"internalType": "uint256",
							"name": "length",
							"type": "uint256"
						}
					],
					"name": "ECDSAInvalidSignatureLength",
					"type": "error"
				},
				{
					"inputs": [
						{
							"internalType": "bytes32",
							"name": "s",
							"type": "bytes32"
						}
					],
					"name": "ECDSAInvalidSignatureS",
					"type": "error"
				},
				{
					"inputs": [
						{
							"internalType": "address",
							"name": "owner",
							"type": "address"
						}
					],
					"name": "OwnableInvalidOwner",
					"type": "error"
				},
				{
					"inputs": [
						{
							"internalType": "address",
							"name": "account",
							"type": "address"
						}
					],
					"name": "OwnableUnauthorizedAccount",
					"type": "error"
				},
				{
					"anonymous": false,
					"inputs": [
						{
							"indexed": true,
							"internalType": "address",
							"name": "sender",
							"type": "address"
						},
						{
							"indexed": false,
							"internalType": "string",
							"name": "meta",
							"type": "string"
						},
						{
							"indexed": false,
							"internalType": "uint256",
							"name": "order_index",
							"type": "uint256"
						}
					],
					"name": "BoxAllocateRefund",
					"type": "event"
				},
				{
					"anonymous": false,
					"inputs": [
						{
							"indexed": true,
							"internalType": "address",
							"name": "sender",
							"type": "address"
						},
						{
							"indexed": false,
							"internalType": "string",
							"name": "meta",
							"type": "string"
						},
						{
							"indexed": false,
							"internalType": "uint256",
							"name": "claim_amount",
							"type": "uint256"
						}
					],
					"name": "BoxClaim",
					"type": "event"
				},
				{
					"anonymous": false,
					"inputs": [
						{
							"indexed": true,
							"internalType": "address",
							"name": "sender",
							"type": "address"
						},
						{
							"indexed": false,
							"internalType": "string",
							"name": "meta",
							"type": "string"
						},
						{
							"indexed": false,
							"internalType": "uint256",
							"name": "order_index",
							"type": "uint256"
						},
						{
							"indexed": false,
							"internalType": "uint256",
							"name": "box_cnt",
							"type": "uint256"
						}
					],
					"name": "BoxSale",
					"type": "event"
				},
				{
					"anonymous": false,
					"inputs": [
						{
							"indexed": true,
							"internalType": "address",
							"name": "sender",
							"type": "address"
						},
						{
							"indexed": false,
							"internalType": "string",
							"name": "meta",
							"type": "string"
						},
						{
							"indexed": false,
							"internalType": "uint256",
							"name": "expireTime",
							"type": "uint256"
						}
					],
					"name": "BoxStart",
					"type": "event"
				},
				{
					"anonymous": false,
					"inputs": [
						{
							"indexed": true,
							"internalType": "address",
							"name": "sender",
							"type": "address"
						},
						{
							"indexed": false,
							"internalType": "string",
							"name": "meta",
							"type": "string"
						},
						{
							"indexed": false,
							"internalType": "uint256",
							"name": "amount",
							"type": "uint256"
						},
						{
							"indexed": false,
							"internalType": "uint256",
							"name": "fees",
							"type": "uint256"
						},
						{
							"indexed": false,
							"internalType": "enum DeboxBoxAllocate.TradeType",
							"name": "trade_type",
							"type": "uint8"
						},
						{
							"indexed": false,
							"internalType": "uint256",
							"name": "box_cnt",
							"type": "uint256"
						}
					],
					"name": "BoxTrade",
					"type": "event"
				},
				{
					"anonymous": false,
					"inputs": [
						{
							"indexed": true,
							"internalType": "address",
							"name": "sender",
							"type": "address"
						},
						{
							"indexed": false,
							"internalType": "bytes",
							"name": "meta",
							"type": "bytes"
						},
						{
							"indexed": false,
							"internalType": "uint256",
							"name": "fees",
							"type": "uint256"
						},
						{
							"indexed": false,
							"internalType": "enum DeboxBoxAllocate.FeeType",
							"name": "fee_type",
							"type": "uint8"
						}
					],
					"name": "DistributeFees",
					"type": "event"
				},
				{
					"anonymous": false,
					"inputs": [
						{
							"indexed": true,
							"internalType": "address",
							"name": "previousOwner",
							"type": "address"
						},
						{
							"indexed": true,
							"internalType": "address",
							"name": "newOwner",
							"type": "address"
						}
					],
					"name": "OwnershipTransferred",
					"type": "event"
				},
				{
					"inputs": [],
					"name": "BOX_FARM_FEE",
					"outputs": [
						{
							"internalType": "uint256",
							"name": "",
							"type": "uint256"
						}
					],
					"stateMutability": "view",
					"type": "function"
				},
				{
					"inputs": [],
					"name": "BOX_OWNER_FEE",
					"outputs": [
						{
							"internalType": "uint256",
							"name": "",
							"type": "uint256"
						}
					],
					"stateMutability": "view",
					"type": "function"
				},
				{
					"inputs": [],
					"name": "BOX_PLATFORM_FEE",
					"outputs": [
						{
							"internalType": "uint256",
							"name": "",
							"type": "uint256"
						}
					],
					"stateMutability": "view",
					"type": "function"
				},
				{
					"inputs": [],
					"name": "BOX_SALE_CNT",
					"outputs": [
						{
							"internalType": "uint256",
							"name": "",
							"type": "uint256"
						}
					],
					"stateMutability": "view",
					"type": "function"
				},
				{
					"inputs": [],
					"name": "BOX_SALE_PERIOD",
					"outputs": [
						{
							"internalType": "uint256",
							"name": "",
							"type": "uint256"
						}
					],
					"stateMutability": "view",
					"type": "function"
				},
				{
					"inputs": [],
					"name": "BOX_TRADE_FEE",
					"outputs": [
						{
							"internalType": "uint256",
							"name": "",
							"type": "uint256"
						}
					],
					"stateMutability": "view",
					"type": "function"
				},
				{
					"inputs": [],
					"name": "PER_BOX_GAS",
					"outputs": [
						{
							"internalType": "uint256",
							"name": "",
							"type": "uint256"
						}
					],
					"stateMutability": "view",
					"type": "function"
				},
				{
					"inputs": [],
					"name": "PER_BOX_PRICE",
					"outputs": [
						{
							"internalType": "uint256",
							"name": "",
							"type": "uint256"
						}
					],
					"stateMutability": "view",
					"type": "function"
				},
				{
					"inputs": [
						{
							"internalType": "uint256",
							"name": "",
							"type": "uint256"
						}
					],
					"name": "_boxPrices",
					"outputs": [
						{
							"internalType": "uint256",
							"name": "",
							"type": "uint256"
						}
					],
					"stateMutability": "view",
					"type": "function"
				},
				{
					"inputs": [
						{
							"internalType": "bytes",
							"name": "",
							"type": "bytes"
						},
						{
							"internalType": "address",
							"name": "",
							"type": "address"
						}
					],
					"name": "_metaBoxBalance",
					"outputs": [
						{
							"internalType": "uint256",
							"name": "",
							"type": "uint256"
						}
					],
					"stateMutability": "view",
					"type": "function"
				},
				{
					"inputs": [],
					"name": "_mutiSign",
					"outputs": [
						{
							"internalType": "address payable",
							"name": "",
							"type": "address"
						}
					],
					"stateMutability": "view",
					"type": "function"
				},
				{
					"inputs": [
						{
							"internalType": "address",
							"name": "",
							"type": "address"
						}
					],
					"name": "_nonces",
					"outputs": [
						{
							"internalType": "uint256",
							"name": "",
							"type": "uint256"
						}
					],
					"stateMutability": "view",
					"type": "function"
				},
				{
					"inputs": [],
					"name": "_signOwner",
					"outputs": [
						{
							"internalType": "address",
							"name": "",
							"type": "address"
						}
					],
					"stateMutability": "view",
					"type": "function"
				},
				{
					"inputs": [
						{
							"internalType": "string",
							"name": "source",
							"type": "string"
						}
					],
					"name": "_stringToBytes",
					"outputs": [
						{
							"internalType": "bytes",
							"name": "",
							"type": "bytes"
						}
					],
					"stateMutability": "pure",
					"type": "function"
				},
				{
					"inputs": [
						{
							"internalType": "string",
							"name": "meta",
							"type": "string"
						},
						{
							"components": [
								{
									"internalType": "uint256",
									"name": "orderIndex",
									"type": "uint256"
								},
								{
									"internalType": "uint256",
									"name": "cnt",
									"type": "uint256"
								}
							],
							"internalType": "struct DeboxBoxAllocate.BoxAllocate[]",
							"name": "box_allocates",
							"type": "tuple[]"
						}
					],
					"name": "boxAllocate",
					"outputs": [],
					"stateMutability": "nonpayable",
					"type": "function"
				},
				{
					"inputs": [
						{
							"internalType": "string",
							"name": "meta",
							"type": "string"
						},
						{
							"internalType": "uint256",
							"name": "cnt",
							"type": "uint256"
						}
					],
					"name": "boxBuy",
					"outputs": [],
					"stateMutability": "payable",
					"type": "function"
				},
				{
					"inputs": [
						{
							"internalType": "string",
							"name": "meta",
							"type": "string"
						}
					],
					"name": "boxClaim",
					"outputs": [],
					"stateMutability": "nonpayable",
					"type": "function"
				},
				{
					"inputs": [
						{
							"internalType": "string",
							"name": "meta",
							"type": "string"
						},
						{
							"internalType": "uint256",
							"name": "box_cnt",
							"type": "uint256"
						}
					],
					"name": "boxPreSale",
					"outputs": [
						{
							"internalType": "bool",
							"name": "",
							"type": "bool"
						}
					],
					"stateMutability": "payable",
					"type": "function"
				},
				{
					"inputs": [
						{
							"internalType": "string",
							"name": "meta",
							"type": "string"
						},
						{
							"internalType": "uint256",
							"name": "cnt",
							"type": "uint256"
						}
					],
					"name": "boxSell",
					"outputs": [],
					"stateMutability": "nonpayable",
					"type": "function"
				},
				{
					"inputs": [
						{
							"internalType": "uint256",
							"name": "x",
							"type": "uint256"
						}
					],
					"name": "calculateBoxPrice",
					"outputs": [
						{
							"internalType": "uint256",
							"name": "",
							"type": "uint256"
						}
					],
					"stateMutability": "pure",
					"type": "function"
				},
				{
					"inputs": [
						{
							"internalType": "string",
							"name": "meta",
							"type": "string"
						},
						{
							"internalType": "address",
							"name": "ca",
							"type": "address"
						}
					],
					"name": "getBoxCnt",
					"outputs": [
						{
							"internalType": "uint256",
							"name": "",
							"type": "uint256"
						}
					],
					"stateMutability": "view",
					"type": "function"
				},
				{
					"inputs": [
						{
							"internalType": "string",
							"name": "meta",
							"type": "string"
						},
						{
							"internalType": "uint256",
							"name": "cnt",
							"type": "uint256"
						}
					],
					"name": "getBuyAmount",
					"outputs": [
						{
							"internalType": "uint256",
							"name": "",
							"type": "uint256"
						},
						{
							"internalType": "uint256",
							"name": "",
							"type": "uint256"
						}
					],
					"stateMutability": "view",
					"type": "function"
				},
				{
					"inputs": [
						{
							"internalType": "string",
							"name": "meta",
							"type": "string"
						},
						{
							"internalType": "uint256",
							"name": "cnt",
							"type": "uint256"
						}
					],
					"name": "getSellAmount",
					"outputs": [
						{
							"internalType": "uint256",
							"name": "",
							"type": "uint256"
						},
						{
							"internalType": "uint256",
							"name": "",
							"type": "uint256"
						}
					],
					"stateMutability": "view",
					"type": "function"
				},
				{
					"inputs": [],
					"name": "owner",
					"outputs": [
						{
							"internalType": "address",
							"name": "",
							"type": "address"
						}
					],
					"stateMutability": "view",
					"type": "function"
				},
				{
					"inputs": [],
					"name": "renounceOwnership",
					"outputs": [],
					"stateMutability": "nonpayable",
					"type": "function"
				},
				{
					"inputs": [
						{
							"internalType": "uint256",
							"name": "owner",
							"type": "uint256"
						},
						{
							"internalType": "uint256",
							"name": "platform",
							"type": "uint256"
						},
						{
							"internalType": "uint256",
							"name": "farm",
							"type": "uint256"
						}
					],
					"name": "setBoxFee",
					"outputs": [],
					"stateMutability": "nonpayable",
					"type": "function"
				},
				{
					"inputs": [
						{
							"components": [
								{
									"internalType": "uint256",
									"name": "boxCnt",
									"type": "uint256"
								},
								{
									"internalType": "uint256",
									"name": "price",
									"type": "uint256"
								}
							],
							"internalType": "struct DeboxBoxAllocate.BoxPrice[]",
							"name": "box_prices",
							"type": "tuple[]"
						}
					],
					"name": "setBoxPrice",
					"outputs": [],
					"stateMutability": "nonpayable",
					"type": "function"
				},
				{
					"inputs": [
						{
							"internalType": "address",
							"name": "muti_sign",
							"type": "address"
						}
					],
					"name": "setMutiSign",
					"outputs": [],
					"stateMutability": "nonpayable",
					"type": "function"
				},
				{
					"inputs": [
						{
							"internalType": "string",
							"name": "meta",
							"type": "string"
						},
						{
							"internalType": "bytes",
							"name": "signature",
							"type": "bytes"
						}
					],
					"name": "startBox",
					"outputs": [],
					"stateMutability": "nonpayable",
					"type": "function"
				},
				{
					"inputs": [
						{
							"internalType": "address",
							"name": "newOwner",
							"type": "address"
						}
					],
					"name": "transferOwnership",
					"outputs": [],
					"stateMutability": "nonpayable",
					"type": "function"
				}
			],
			"devdoc": {
				"author": "Debox Team",
				"errors": {
					"ECDSAInvalidSignature()": [
						{
							"details": "The signature derives the `address(0)`."
						}
					],
					"ECDSAInvalidSignatureLength(uint256)": [
						{
							"details": "The signature has an invalid length."
						}
					],
					"ECDSAInvalidSignatureS(bytes32)": [
						{
							"details": "The signature has an S value that is in the upper half order."
						}
					],
					"OwnableInvalidOwner(address)": [
						{
							"details": "The owner is not a valid owner account. (eg. `address(0)`)"
						}
					],
					"OwnableUnauthorizedAccount(address)": [
						{
							"details": "The caller account is not authorized to perform an operation."
						}
					]
				},
				"kind": "dev",
				"methods": {
					"owner()": {
						"details": "Returns the address of the current owner."
					},
					"renounceOwnership()": {
						"details": "Leaves the contract without owner. It will not be possible to call `onlyOwner` functions. Can only be called by the current owner. NOTE: Renouncing ownership will leave the contract without an owner, thereby disabling any functionality that is only available to the owner."
					},
					"transferOwnership(address)": {
						"details": "Transfers ownership of the contract to a new account (`newOwner`). Can only be called by the current owner."
					}
				},
				"title": "DeboxBoxAllocate",
				"version": 1
			},
			"evm": {
				"assembly": "    /* \"box/box_allocate.sol\":330:13235  contract DeboxBoxAllocate is Ownable {... */\n  mstore(0x40, 0x80)\n    /* \"box/box_allocate.sol\":1224:1226  10 */\n  0x0a\n    /* \"box/box_allocate.sol\":1193:1226  uint256 public BOX_TRADE_FEE = 10 */\n  0x01\n  sstore\n    /* \"box/box_allocate.sol\":1263:1264  4 */\n  0x04\n    /* \"box/box_allocate.sol\":1232:1264  uint256 public BOX_OWNER_FEE = 4 */\n  0x02\n  sstore\n    /* \"box/box_allocate.sol\":1304:1305  2 */\n  0x02\n    /* \"box/box_allocate.sol\":1270:1305  uint256 public BOX_PLATFORM_FEE = 2 */\n  0x03\n  sstore\n    /* \"box/box_allocate.sol\":1341:1342  4 */\n  0x04\n    /* \"box/box_allocate.sol\":1311:1342  uint256 public BOX_FARM_FEE = 4 */\n  dup1\n  sstore\n    /* \"box/box_allocate.sol\":1425:1467  0x96216849c49358B10257cb55b28eA603c874b05E */\n  0x96216849c49358b10257cb55b28ea603c874b05e\n    /* \"box/box_allocate.sol\":1397:1467  address public _signOwner = 0x96216849c49358B10257cb55b28eA603c874b05E */\n  0x06\n  exp(0x0100, 0x00)\n  dup2\n  sload\n  dup2\n  0xffffffffffffffffffffffffffffffffffffffff\n  mul\n  not\n  and\n  swap1\n  dup4\n  0xffffffffffffffffffffffffffffffffffffffff\n  and\n  mul\n  or\n  swap1\n  sstore\n  pop\n    /* \"box/box_allocate.sol\":2447:2529  constructor() Ownable(msg.sender) {... */\n  callvalue\n  dup1\n  iszero\n  tag_1\n  jumpi\n  0x00\n  dup1\n  revert\ntag_1:\n  pop\n    /* \"box/box_allocate.sol\":2469:2479  msg.sender */\n  caller\n    /* \"@openzeppelin/contracts/access/Ownable.sol\":1297:1298  0 */\n  0x00\n    /* \"@openzeppelin/contracts/access/Ownable.sol\":1273:1299  initialOwner == address(0) */\n  0xffffffffffffffffffffffffffffffffffffffff\n  and\n    /* \"@openzeppelin/contracts/access/Ownable.sol\":1273:1285  initialOwner */\n  dup2\n    /* \"@openzeppelin/contracts/access/Ownable.sol\":1273:1299  initialOwner == address(0) */\n  0xffffffffffffffffffffffffffffffffffffffff\n  and\n  sub\n    /* \"@openzeppelin/contracts/access/Ownable.sol\":1269:1364  if (initialOwner == address(0)) {... */\n  tag_5\n  jumpi\n    /* \"@openzeppelin/contracts/access/Ownable.sol\":1350:1351  0 */\n  0x00\n    /* \"@openzeppelin/contracts/access/Ownable.sol\":1322:1353  OwnableInvalidOwner(address(0)) */\n  mload(0x40)\n  0x1e4fbdf700000000000000000000000000000000000000000000000000000000\n  dup2\n  mstore\n  0x04\n  add\n  tag_6\n  swap2\n  swap1\n  tag_7\n  jump\t// in\ntag_6:\n  mload(0x40)\n  dup1\n  swap2\n  sub\n  swap1\n  revert\n    /* \"@openzeppelin/contracts/access/Ownable.sol\":1269:1364  if (initialOwner == address(0)) {... */\ntag_5:\n    /* \"@openzeppelin/contracts/access/Ownable.sol\":1373:1405  _transferOwnership(initialOwner) */\n  tag_8\n    /* \"@openzeppelin/contracts/access/Ownable.sol\":1392:1404  initialOwner */\n  dup2\n    /* \"@openzeppelin/contracts/access/Ownable.sol\":1373:1391  _transferOwnership */\n  shl(0x20, tag_9)\n    /* \"@openzeppelin/contracts/access/Ownable.sol\":1373:1405  _transferOwnership(initialOwner) */\n  0x20\n  shr\n  jump\t// in\ntag_8:\n    /* \"@openzeppelin/contracts/access/Ownable.sol\":1225:1412  constructor(address initialOwner) {... */\n  pop\n    /* \"box/box_allocate.sol\":2511:2521  msg.sender */\n  caller\n    /* \"box/box_allocate.sol\":2491:2500  _mutiSign */\n  0x0c\n  0x00\n    /* \"box/box_allocate.sol\":2491:2522  _mutiSign = payable(msg.sender) */\n  0x0100\n  exp\n  dup2\n  sload\n  dup2\n  0xffffffffffffffffffffffffffffffffffffffff\n  mul\n  not\n  and\n  swap1\n  dup4\n  0xffffffffffffffffffffffffffffffffffffffff\n  and\n  mul\n  or\n  swap1\n  sstore\n  pop\n    /* \"box/box_allocate.sol\":330:13235  contract DeboxBoxAllocate is Ownable {... */\n  jump(tag_11)\n    /* \"@openzeppelin/contracts/access/Ownable.sol\":2912:3099  function _transferOwnership(address newOwner) internal virtual {... */\ntag_9:\n    /* \"@openzeppelin/contracts/access/Ownable.sol\":2985:3001  address oldOwner */\n  0x00\n    /* \"@openzeppelin/contracts/access/Ownable.sol\":3004:3010  _owner */\n  dup1\n  0x00\n  swap1\n  sload\n  swap1\n  0x0100\n  exp\n  swap1\n  div\n  0xffffffffffffffffffffffffffffffffffffffff\n  and\n    /* \"@openzeppelin/contracts/access/Ownable.sol\":2985:3010  address oldOwner = _owner */\n  swap1\n  pop\n    /* \"@openzeppelin/contracts/access/Ownable.sol\":3029:3037  newOwner */\n  dup2\n    /* \"@openzeppelin/contracts/access/Ownable.sol\":3020:3026  _owner */\n  0x00\n  dup1\n    /* \"@openzeppelin/contracts/access/Ownable.sol\":3020:3037  _owner = newOwner */\n  0x0100\n  exp\n  dup2\n  sload\n  dup2\n  0xffffffffffffffffffffffffffffffffffffffff\n  mul\n  not\n  and\n  swap1\n  dup4\n  0xffffffffffffffffffffffffffffffffffffffff\n  and\n  mul\n  or\n  swap1\n  sstore\n  pop\n    /* \"@openzeppelin/contracts/access/Ownable.sol\":3083:3091  newOwner */\n  dup2\n    /* \"@openzeppelin/contracts/access/Ownable.sol\":3052:3092  OwnershipTransferred(oldOwner, newOwner) */\n  0xffffffffffffffffffffffffffffffffffffffff\n  and\n    /* \"@openzeppelin/contracts/access/Ownable.sol\":3073:3081  oldOwner */\n  dup2\n    /* \"@openzeppelin/contracts/access/Ownable.sol\":3052:3092  OwnershipTransferred(oldOwner, newOwner) */\n  0xffffffffffffffffffffffffffffffffffffffff\n  and\n  0x8be0079c531659141344cd1fd0a4f28419497f9722a3daafe3b4186f6b6457e0\n  mload(0x40)\n  mload(0x40)\n  dup1\n  swap2\n  sub\n  swap1\n  log3\n    /* \"@openzeppelin/contracts/access/Ownable.sol\":2975:3099  {... */\n  pop\n    /* \"@openzeppelin/contracts/access/Ownable.sol\":2912:3099  function _transferOwnership(address newOwner) internal virtual {... */\n  pop\n  jump\t// out\n    /* \"#utility.yul\":7:133   */\ntag_13:\n    /* \"#utility.yul\":44:51   */\n  0x00\n    /* \"#utility.yul\":84:126   */\n  0xffffffffffffffffffffffffffffffffffffffff\n    /* \"#utility.yul\":77:82   */\n  dup3\n    /* \"#utility.yul\":73:127   */\n  and\n    /* \"#utility.yul\":62:127   */\n  swap1\n  pop\n    /* \"#utility.yul\":7:133   */\n  swap2\n  swap1\n  pop\n  jump\t// out\n    /* \"#utility.yul\":139:235   */\ntag_14:\n    /* \"#utility.yul\":176:183   */\n  0x00\n    /* \"#utility.yul\":205:229   */\n  tag_19\n    /* \"#utility.yul\":223:228   */\n  dup3\n    /* \"#utility.yul\":205:229   */\n  tag_13\n  jump\t// in\ntag_19:\n    /* \"#utility.yul\":194:229   */\n  swap1\n  pop\n    /* \"#utility.yul\":139:235   */\n  swap2\n  swap1\n  pop\n  jump\t// out\n    /* \"#utility.yul\":241:359   */\ntag_15:\n    /* \"#utility.yul\":328:352   */\n  tag_21\n    /* \"#utility.yul\":346:351   */\n  dup2\n    /* \"#utility.yul\":328:352   */\n  tag_14\n  jump\t// in\ntag_21:\n    /* \"#utility.yul\":323:326   */\n  dup3\n    /* \"#utility.yul\":316:353   */\n  mstore\n    /* \"#utility.yul\":241:359   */\n  pop\n  pop\n  jump\t// out\n    /* \"#utility.yul\":365:587   */\ntag_7:\n    /* \"#utility.yul\":458:462   */\n  0x00\n    /* \"#utility.yul\":496:498   */\n  0x20\n    /* \"#utility.yul\":485:494   */\n  dup3\n    /* \"#utility.yul\":481:499   */\n  add\n    /* \"#utility.yul\":473:499   */\n  swap1\n  pop\n    /* \"#utility.yul\":509:580   */\n  tag_23\n    /* \"#utility.yul\":577:578   */\n  0x00\n    /* \"#utility.yul\":566:575   */\n  dup4\n    /* \"#utility.yul\":562:579   */\n  add\n    /* \"#utility.yul\":553:559   */\n  dup5\n    /* \"#utility.yul\":509:580   */\n  tag_15\n  jump\t// in\ntag_23:\n    /* \"#utility.yul\":365:587   */\n  swap3\n  swap2\n  pop\n  pop\n  jump\t// out\n    /* \"box/box_allocate.sol\":330:13235  contract DeboxBoxAllocate is Ownable {... */\ntag_11:\n  dataSize(sub_0)\n  dup1\n  dataOffset(sub_0)\n  0x00\n  codecopy\n  0x00\n  return\nstop\n\nsub_0: assembly {\n        /* \"box/box_allocate.sol\":330:13235  contract DeboxBoxAllocate is Ownable {... */\n      mstore(0x40, 0x80)\n      jumpi(tag_1, lt(calldatasize, 0x04))\n      shr(0xe0, calldataload(0x00))\n      dup1\n      0x73db533d\n      gt\n      tag_32\n      jumpi\n      dup1\n      0xb9844d8d\n      gt\n      tag_33\n      jumpi\n      dup1\n      0xcc9d1974\n      gt\n      tag_34\n      jumpi\n      dup1\n      0xcc9d1974\n      eq\n      tag_28\n      jumpi\n      dup1\n      0xde2fe26a\n      eq\n      tag_29\n      jumpi\n      dup1\n      0xe20f7997\n      eq\n      tag_30\n      jumpi\n      dup1\n      0xf2fde38b\n      eq\n      tag_31\n      jumpi\n      jump(tag_1)\n    tag_34:\n      dup1\n      0xb9844d8d\n      eq\n      tag_24\n      jumpi\n      dup1\n      0xba7d5bfd\n      eq\n      tag_25\n      jumpi\n      dup1\n      0xc5695aef\n      eq\n      tag_26\n      jumpi\n      dup1\n      0xc724940f\n      eq\n      tag_27\n      jumpi\n      jump(tag_1)\n    tag_33:\n      dup1\n      0x8da5cb5b\n      gt\n      tag_35\n      jumpi\n      dup1\n      0x8da5cb5b\n      eq\n      tag_20\n      jumpi\n      dup1\n      0x909aa42a\n      eq\n      tag_21\n      jumpi\n      dup1\n      0xad006b2f\n      eq\n      tag_22\n      jumpi\n      dup1\n      0xb791fd9f\n      eq\n      tag_23\n      jumpi\n      jump(tag_1)\n    tag_35:\n      dup1\n      0x73db533d\n      eq\n      tag_17\n      jumpi\n      dup1\n      0x8690e716\n      eq\n      tag_18\n      jumpi\n      dup1\n      0x86bde413\n      eq\n      tag_19\n      jumpi\n      jump(tag_1)\n    tag_32:\n      dup1\n      0x30762af7\n      gt\n      tag_36\n      jumpi\n      dup1\n      0x5085d4d8\n      gt\n      tag_37\n      jumpi\n      dup1\n      0x5085d4d8\n      eq\n      tag_13\n      jumpi\n      dup1\n      0x51c651a8\n      eq\n      tag_14\n      jumpi\n      dup1\n      0x52a13a56\n      eq\n      tag_15\n      jumpi\n      dup1\n      0x715018a6\n      eq\n      tag_16\n      jumpi\n      jump(tag_1)\n    tag_37:\n      dup1\n      0x30762af7\n      eq\n      tag_9\n      jumpi\n      dup1\n      0x3beab570\n      eq\n      tag_10\n      jumpi\n      dup1\n      0x44ed635a\n      eq\n      tag_11\n      jumpi\n      dup1\n      0x473d833c\n      eq\n      tag_12\n      jumpi\n      jump(tag_1)\n    tag_36:\n      dup1\n      0x116643c5\n      gt\n      tag_38\n      jumpi\n      dup1\n      0x116643c5\n      eq\n      tag_5\n      jumpi\n      dup1\n      0x1b4f7e28\n      eq\n      tag_6\n      jumpi\n      dup1\n      0x20b638b8\n      eq\n      tag_7\n      jumpi\n      dup1\n      0x2be32d32\n      eq\n      tag_8\n      jumpi\n      jump(tag_1)\n    tag_38:\n      dup1\n      0x0b775510\n      eq\n      tag_2\n      jumpi\n      dup1\n      0x0f09e5e2\n      eq\n      tag_3\n      jumpi\n      dup1\n      0x10225b48\n      eq\n      tag_4\n      jumpi\n    tag_1:\n      0x00\n      dup1\n      revert\n        /* \"box/box_allocate.sol\":1311:1342  uint256 public BOX_FARM_FEE = 4 */\n    tag_2:\n      callvalue\n      dup1\n      iszero\n      tag_39\n      jumpi\n      0x00\n      dup1\n      revert\n    tag_39:\n      pop\n      tag_40\n      tag_41\n      jump\t// in\n    tag_40:\n      mload(0x40)\n      tag_42\n      swap2\n      swap1\n      tag_43\n      jump\t// in\n    tag_42:\n      mload(0x40)\n      dup1\n      swap2\n      sub\n      swap1\n      return\n        /* \"box/box_allocate.sol\":5184:5945  function boxPreSale(string memory meta, uint256 box_cnt) external payable callerIsUser returns (bool) {... */\n    tag_3:\n      tag_44\n      0x04\n      dup1\n      calldatasize\n      sub\n      dup2\n      add\n      swap1\n      tag_45\n      swap2\n      swap1\n      tag_46\n      jump\t// in\n    tag_45:\n      tag_47\n      jump\t// in\n    tag_44:\n      mload(0x40)\n      tag_48\n      swap2\n      swap1\n      tag_49\n      jump\t// in\n    tag_48:\n      mload(0x40)\n      dup1\n      swap2\n      sub\n      swap1\n      return\n        /* \"box/box_allocate.sol\":5955:7335  function boxAllocate(string memory meta,BoxAllocate[] memory box_allocates) external onlyOwner {... */\n    tag_4:\n      callvalue\n      dup1\n      iszero\n      tag_50\n      jumpi\n      0x00\n      dup1\n      revert\n    tag_50:\n      pop\n      tag_51\n      0x04\n      dup1\n      calldatasize\n      sub\n      dup2\n      add\n      swap1\n      tag_52\n      swap2\n      swap1\n      tag_53\n      jump\t// in\n    tag_52:\n      tag_54\n      jump\t// in\n    tag_51:\n      stop\n        /* \"box/box_allocate.sol\":2842:3108  function setBoxFee(uint256 owner,uint256 platform,uint256 farm) external onlyOwner {... */\n    tag_5:\n      callvalue\n      dup1\n      iszero\n      tag_55\n      jumpi\n      0x00\n      dup1\n      revert\n    tag_55:\n      pop\n      tag_56\n      0x04\n      dup1\n      calldatasize\n      sub\n      dup2\n      add\n      swap1\n      tag_57\n      swap2\n      swap1\n      tag_58\n      jump\t// in\n    tag_57:\n      tag_59\n      jump\t// in\n    tag_56:\n      stop\n        /* \"box/box_allocate.sol\":3459:3691  function _stringToBytes(string memory source) public pure returns (bytes memory) {... */\n    tag_6:\n      callvalue\n      dup1\n      iszero\n      tag_60\n      jumpi\n      0x00\n      dup1\n      revert\n    tag_60:\n      pop\n      tag_61\n      0x04\n      dup1\n      calldatasize\n      sub\n      dup2\n      add\n      swap1\n      tag_62\n      swap2\n      swap1\n      tag_63\n      jump\t// in\n    tag_62:\n      tag_64\n      jump\t// in\n    tag_61:\n      mload(0x40)\n      tag_65\n      swap2\n      swap1\n      tag_66\n      jump\t// in\n    tag_65:\n      mload(0x40)\n      dup1\n      swap2\n      sub\n      swap1\n      return\n        /* \"box/box_allocate.sol\":1496:1564  mapping(bytes => mapping(address => uint256)) public _metaBoxBalance */\n    tag_7:\n      callvalue\n      dup1\n      iszero\n      tag_67\n      jumpi\n      0x00\n      dup1\n      revert\n    tag_67:\n      pop\n      tag_68\n      0x04\n      dup1\n      calldatasize\n      sub\n      dup2\n      add\n      swap1\n      tag_69\n      swap2\n      swap1\n      tag_70\n      jump\t// in\n    tag_69:\n      tag_71\n      jump\t// in\n    tag_68:\n      mload(0x40)\n      tag_72\n      swap2\n      swap1\n      tag_43\n      jump\t// in\n    tag_72:\n      mload(0x40)\n      dup1\n      swap2\n      sub\n      swap1\n      return\n        /* \"box/box_allocate.sol\":8077:8680  function boxSell(string memory meta,uint256 cnt) external callerIsUser {... */\n    tag_8:\n      callvalue\n      dup1\n      iszero\n      tag_73\n      jumpi\n      0x00\n      dup1\n      revert\n    tag_73:\n      pop\n      tag_74\n      0x04\n      dup1\n      calldatasize\n      sub\n      dup2\n      add\n      swap1\n      tag_75\n      swap2\n      swap1\n      tag_46\n      jump\t// in\n    tag_75:\n      tag_76\n      jump\t// in\n    tag_74:\n      stop\n        /* \"box/box_allocate.sol\":3697:3842  function getBoxCnt(string memory meta,address ca) public view returns (uint256) {... */\n    tag_9:\n      callvalue\n      dup1\n      iszero\n      tag_77\n      jumpi\n      0x00\n      dup1\n      revert\n    tag_77:\n      pop\n      tag_78\n      0x04\n      dup1\n      calldatasize\n      sub\n      dup2\n      add\n      swap1\n      tag_79\n      swap2\n      swap1\n      tag_80\n      jump\t// in\n    tag_79:\n      tag_81\n      jump\t// in\n    tag_78:\n      mload(0x40)\n      tag_82\n      swap2\n      swap1\n      tag_43\n      jump\t// in\n    tag_82:\n      mload(0x40)\n      dup1\n      swap2\n      sub\n      swap1\n      return\n        /* \"box/box_allocate.sol\":1270:1305  uint256 public BOX_PLATFORM_FEE = 2 */\n    tag_10:\n      callvalue\n      dup1\n      iszero\n      tag_83\n      jumpi\n      0x00\n      dup1\n      revert\n    tag_83:\n      pop\n      tag_84\n      tag_85\n      jump\t// in\n    tag_84:\n      mload(0x40)\n      tag_86\n      swap2\n      swap1\n      tag_43\n      jump\t// in\n    tag_86:\n      mload(0x40)\n      dup1\n      swap2\n      sub\n      swap1\n      return\n        /* \"box/box_allocate.sol\":988:1034  uint256 public constant PER_BOX_PRICE = 10**16 */\n    tag_11:\n      callvalue\n      dup1\n      iszero\n      tag_87\n      jumpi\n      0x00\n      dup1\n      revert\n    tag_87:\n      pop\n      tag_88\n      tag_89\n      jump\t// in\n    tag_88:\n      mload(0x40)\n      tag_90\n      swap2\n      swap1\n      tag_43\n      jump\t// in\n    tag_90:\n      mload(0x40)\n      dup1\n      swap2\n      sub\n      swap1\n      return\n        /* \"box/box_allocate.sol\":4144:4436  function getSellAmount(string memory meta,uint256 cnt) external callerIsUser view returns(uint256,uint256){... */\n    tag_12:\n      callvalue\n      dup1\n      iszero\n      tag_91\n      jumpi\n      0x00\n      dup1\n      revert\n    tag_91:\n      pop\n      tag_92\n      0x04\n      dup1\n      calldatasize\n      sub\n      dup2\n      add\n      swap1\n      tag_93\n      swap2\n      swap1\n      tag_46\n      jump\t// in\n    tag_93:\n      tag_94\n      jump\t// in\n    tag_92:\n      mload(0x40)\n      tag_95\n      swap3\n      swap2\n      swap1\n      tag_96\n      jump\t// in\n    tag_95:\n      mload(0x40)\n      dup1\n      swap2\n      sub\n      swap1\n      return\n        /* \"box/box_allocate.sol\":1145:1187  uint256 public constant BOX_SALE_CNT = 100 */\n    tag_13:\n      callvalue\n      dup1\n      iszero\n      tag_97\n      jumpi\n      0x00\n      dup1\n      revert\n    tag_97:\n      pop\n      tag_98\n      tag_99\n      jump\t// in\n    tag_98:\n      mload(0x40)\n      tag_100\n      swap2\n      swap1\n      tag_43\n      jump\t// in\n    tag_100:\n      mload(0x40)\n      dup1\n      swap2\n      sub\n      swap1\n      return\n        /* \"box/box_allocate.sol\":3114:3453  function setBoxPrice(BoxPrice[] memory box_prices) external onlyOwner {... */\n    tag_14:\n      callvalue\n      dup1\n      iszero\n      tag_101\n      jumpi\n      0x00\n      dup1\n      revert\n    tag_101:\n      pop\n      tag_102\n      0x04\n      dup1\n      calldatasize\n      sub\n      dup2\n      add\n      swap1\n      tag_103\n      swap2\n      swap1\n      tag_104\n      jump\t// in\n    tag_103:\n      tag_105\n      jump\t// in\n    tag_102:\n      stop\n        /* \"box/box_allocate.sol\":1678:1723  mapping(uint256 => uint256) public _boxPrices */\n    tag_15:\n      callvalue\n      dup1\n      iszero\n      tag_106\n      jumpi\n      0x00\n      dup1\n      revert\n    tag_106:\n      pop\n      tag_107\n      0x04\n      dup1\n      calldatasize\n      sub\n      dup2\n      add\n      swap1\n      tag_108\n      swap2\n      swap1\n      tag_109\n      jump\t// in\n    tag_108:\n      tag_110\n      jump\t// in\n    tag_107:\n      mload(0x40)\n      tag_111\n      swap2\n      swap1\n      tag_43\n      jump\t// in\n    tag_111:\n      mload(0x40)\n      dup1\n      swap2\n      sub\n      swap1\n      return\n        /* \"@openzeppelin/contracts/access/Ownable.sol\":2293:2394  function renounceOwnership() public virtual onlyOwner {... */\n    tag_16:\n      callvalue\n      dup1\n      iszero\n      tag_112\n      jumpi\n      0x00\n      dup1\n      revert\n    tag_112:\n      pop\n      tag_113\n      tag_114\n      jump\t// in\n    tag_113:\n      stop\n        /* \"box/box_allocate.sol\":1397:1467  address public _signOwner = 0x96216849c49358B10257cb55b28eA603c874b05E */\n    tag_17:\n      callvalue\n      dup1\n      iszero\n      tag_115\n      jumpi\n      0x00\n      dup1\n      revert\n    tag_115:\n      pop\n      tag_116\n      tag_117\n      jump\t// in\n    tag_116:\n      mload(0x40)\n      tag_118\n      swap2\n      swap1\n      tag_119\n      jump\t// in\n    tag_118:\n      mload(0x40)\n      dup1\n      swap2\n      sub\n      swap1\n      return\n        /* \"box/box_allocate.sol\":1090:1139  uint256 public constant BOX_SALE_PERIOD = 3600*48 */\n    tag_18:\n      callvalue\n      dup1\n      iszero\n      tag_120\n      jumpi\n      0x00\n      dup1\n      revert\n    tag_120:\n      pop\n      tag_121\n      tag_122\n      jump\t// in\n    tag_121:\n      mload(0x40)\n      tag_123\n      swap2\n      swap1\n      tag_43\n      jump\t// in\n    tag_123:\n      mload(0x40)\n      dup1\n      swap2\n      sub\n      swap1\n      return\n        /* \"box/box_allocate.sol\":8686:9084  function boxClaim(string memory meta) external callerIsUser {... */\n    tag_19:\n      callvalue\n      dup1\n      iszero\n      tag_124\n      jumpi\n      0x00\n      dup1\n      revert\n    tag_124:\n      pop\n      tag_125\n      0x04\n      dup1\n      calldatasize\n      sub\n      dup2\n      add\n      swap1\n      tag_126\n      swap2\n      swap1\n      tag_63\n      jump\t// in\n    tag_126:\n      tag_127\n      jump\t// in\n    tag_125:\n      stop\n        /* \"@openzeppelin/contracts/access/Ownable.sol\":1638:1723  function owner() public view virtual returns (address) {... */\n    tag_20:\n      callvalue\n      dup1\n      iszero\n      tag_128\n      jumpi\n      0x00\n      dup1\n      revert\n    tag_128:\n      pop\n      tag_129\n      tag_130\n      jump\t// in\n    tag_129:\n      mload(0x40)\n      tag_131\n      swap2\n      swap1\n      tag_119\n      jump\t// in\n    tag_131:\n      mload(0x40)\n      dup1\n      swap2\n      sub\n      swap1\n      return\n        /* \"box/box_allocate.sol\":7341:8071  function boxBuy(string memory meta,uint256 cnt) external payable callerIsUser {... */\n    tag_21:\n      tag_132\n      0x04\n      dup1\n      calldatasize\n      sub\n      dup2\n      add\n      swap1\n      tag_133\n      swap2\n      swap1\n      tag_46\n      jump\t// in\n    tag_133:\n      tag_134\n      jump\t// in\n    tag_132:\n      stop\n        /* \"box/box_allocate.sol\":4442:5178  function startBox(string memory meta, bytes memory signature) external callerIsUser {... */\n    tag_22:\n      callvalue\n      dup1\n      iszero\n      tag_135\n      jumpi\n      0x00\n      dup1\n      revert\n    tag_135:\n      pop\n      tag_136\n      0x04\n      dup1\n      calldatasize\n      sub\n      dup2\n      add\n      swap1\n      tag_137\n      swap2\n      swap1\n      tag_138\n      jump\t// in\n    tag_137:\n      tag_139\n      jump\t// in\n    tag_136:\n      stop\n        /* \"box/box_allocate.sol\":1784:1816  address payable public _mutiSign */\n    tag_23:\n      callvalue\n      dup1\n      iszero\n      tag_140\n      jumpi\n      0x00\n      dup1\n      revert\n    tag_140:\n      pop\n      tag_141\n      tag_142\n      jump\t// in\n    tag_141:\n      mload(0x40)\n      tag_143\n      swap2\n      swap1\n      tag_144\n      jump\t// in\n    tag_143:\n      mload(0x40)\n      dup1\n      swap2\n      sub\n      swap1\n      return\n        /* \"box/box_allocate.sol\":1349:1391  mapping(address => uint256) public _nonces */\n    tag_24:\n      callvalue\n      dup1\n      iszero\n      tag_145\n      jumpi\n      0x00\n      dup1\n      revert\n    tag_145:\n      pop\n      tag_146\n      0x04\n      dup1\n      calldatasize\n      sub\n      dup2\n      add\n      swap1\n      tag_147\n      swap2\n      swap1\n      tag_148\n      jump\t// in\n    tag_147:\n      tag_149\n      jump\t// in\n    tag_146:\n      mload(0x40)\n      tag_150\n      swap2\n      swap1\n      tag_43\n      jump\t// in\n    tag_150:\n      mload(0x40)\n      dup1\n      swap2\n      sub\n      swap1\n      return\n        /* \"box/box_allocate.sol\":1193:1226  uint256 public BOX_TRADE_FEE = 10 */\n    tag_25:\n      callvalue\n      dup1\n      iszero\n      tag_151\n      jumpi\n      0x00\n      dup1\n      revert\n    tag_151:\n      pop\n      tag_152\n      tag_153\n      jump\t// in\n    tag_152:\n      mload(0x40)\n      tag_154\n      swap2\n      swap1\n      tag_43\n      jump\t// in\n    tag_154:\n      mload(0x40)\n      dup1\n      swap2\n      sub\n      swap1\n      return\n        /* \"box/box_allocate.sol\":12817:12954  function calculateBoxPrice(uint256 x) public pure returns (uint256) {... */\n    tag_26:\n      callvalue\n      dup1\n      iszero\n      tag_155\n      jumpi\n      0x00\n      dup1\n      revert\n    tag_155:\n      pop\n      tag_156\n      0x04\n      dup1\n      calldatasize\n      sub\n      dup2\n      add\n      swap1\n      tag_157\n      swap2\n      swap1\n      tag_109\n      jump\t// in\n    tag_157:\n      tag_158\n      jump\t// in\n    tag_156:\n      mload(0x40)\n      tag_159\n      swap2\n      swap1\n      tag_43\n      jump\t// in\n    tag_159:\n      mload(0x40)\n      dup1\n      swap2\n      sub\n      swap1\n      return\n        /* \"box/box_allocate.sol\":1232:1264  uint256 public BOX_OWNER_FEE = 4 */\n    tag_27:\n      callvalue\n      dup1\n      iszero\n      tag_160\n      jumpi\n      0x00\n      dup1\n      revert\n    tag_160:\n      pop\n      tag_161\n      tag_162\n      jump\t// in\n    tag_161:\n      mload(0x40)\n      tag_163\n      swap2\n      swap1\n      tag_43\n      jump\t// in\n    tag_163:\n      mload(0x40)\n      dup1\n      swap2\n      sub\n      swap1\n      return\n        /* \"box/box_allocate.sol\":2662:2836  function setMutiSign (address muti_sign) external onlyOwner {... */\n    tag_28:\n      callvalue\n      dup1\n      iszero\n      tag_164\n      jumpi\n      0x00\n      dup1\n      revert\n    tag_164:\n      pop\n      tag_165\n      0x04\n      dup1\n      calldatasize\n      sub\n      dup2\n      add\n      swap1\n      tag_166\n      swap2\n      swap1\n      tag_148\n      jump\t// in\n    tag_166:\n      tag_167\n      jump\t// in\n    tag_165:\n      stop\n        /* \"box/box_allocate.sol\":3848:4138  function getBuyAmount(string memory meta,uint256 cnt) external callerIsUser view returns(uint256,uint256){... */\n    tag_29:\n      callvalue\n      dup1\n      iszero\n      tag_168\n      jumpi\n      0x00\n      dup1\n      revert\n    tag_168:\n      pop\n      tag_169\n      0x04\n      dup1\n      calldatasize\n      sub\n      dup2\n      add\n      swap1\n      tag_170\n      swap2\n      swap1\n      tag_46\n      jump\t// in\n    tag_170:\n      tag_171\n      jump\t// in\n    tag_169:\n      mload(0x40)\n      tag_172\n      swap3\n      swap2\n      swap1\n      tag_96\n      jump\t// in\n    tag_172:\n      mload(0x40)\n      dup1\n      swap2\n      sub\n      swap1\n      return\n        /* \"box/box_allocate.sol\":1040:1084  uint256 public constant PER_BOX_GAS = 10**15 */\n    tag_30:\n      callvalue\n      dup1\n      iszero\n      tag_173\n      jumpi\n      0x00\n      dup1\n      revert\n    tag_173:\n      pop\n      tag_174\n      tag_175\n      jump\t// in\n    tag_174:\n      mload(0x40)\n      tag_176\n      swap2\n      swap1\n      tag_43\n      jump\t// in\n    tag_176:\n      mload(0x40)\n      dup1\n      swap2\n      sub\n      swap1\n      return\n        /* \"@openzeppelin/contracts/access/Ownable.sol\":2543:2758  function transferOwnership(address newOwner) public virtual onlyOwner {... */\n    tag_31:\n      callvalue\n      dup1\n      iszero\n      tag_177\n      jumpi\n      0x00\n      dup1\n      revert\n    tag_177:\n      pop\n      tag_178\n      0x04\n      dup1\n      calldatasize\n      sub\n      dup2\n      add\n      swap1\n      tag_179\n      swap2\n      swap1\n      tag_148\n      jump\t// in\n    tag_179:\n      tag_180\n      jump\t// in\n    tag_178:\n      stop\n        /* \"box/box_allocate.sol\":1311:1342  uint256 public BOX_FARM_FEE = 4 */\n    tag_41:\n      sload(0x04)\n      dup2\n      jump\t// out\n        /* \"box/box_allocate.sol\":5184:5945  function boxPreSale(string memory meta, uint256 box_cnt) external payable callerIsUser returns (bool) {... */\n    tag_47:\n        /* \"box/box_allocate.sol\":5280:5284  bool */\n      0x00\n        /* \"box/box_allocate.sol\":2593:2603  msg.sender */\n      caller\n        /* \"box/box_allocate.sol\":2580:2603  tx.origin == msg.sender */\n      0xffffffffffffffffffffffffffffffffffffffff\n      and\n        /* \"box/box_allocate.sol\":2580:2589  tx.origin */\n      origin\n        /* \"box/box_allocate.sol\":2580:2603  tx.origin == msg.sender */\n      0xffffffffffffffffffffffffffffffffffffffff\n      and\n      eq\n        /* \"box/box_allocate.sol\":2572:2638  require(tx.origin == msg.sender, \"The caller is another contract\") */\n      tag_182\n      jumpi\n      mload(0x40)\n      0x08c379a000000000000000000000000000000000000000000000000000000000\n      dup2\n      mstore\n      0x04\n      add\n      tag_183\n      swap1\n      tag_184\n      jump\t// in\n    tag_183:\n      mload(0x40)\n      dup1\n      swap2\n      sub\n      swap1\n      revert\n    tag_182:\n        /* \"box/box_allocate.sol\":5296:5318  bytes memory metaBytes */\n      0x00\n        /* \"box/box_allocate.sol\":5321:5341  _stringToBytes(meta) */\n      tag_186\n        /* \"box/box_allocate.sol\":5336:5340  meta */\n      dup5\n        /* \"box/box_allocate.sol\":5321:5335  _stringToBytes */\n      tag_64\n        /* \"box/box_allocate.sol\":5321:5341  _stringToBytes(meta) */\n      jump\t// in\n    tag_186:\n        /* \"box/box_allocate.sol\":5296:5341  bytes memory metaBytes = _stringToBytes(meta) */\n      swap1\n      pop\n        /* \"box/box_allocate.sol\":5394:5409  block.timestamp */\n      timestamp\n        /* \"box/box_allocate.sol\":5359:5368  _metaBoxs */\n      0x08\n        /* \"box/box_allocate.sol\":5369:5378  metaBytes */\n      dup3\n        /* \"box/box_allocate.sol\":5359:5379  _metaBoxs[metaBytes] */\n      mload(0x40)\n      tag_187\n      swap2\n      swap1\n      tag_188\n      jump\t// in\n    tag_187:\n      swap1\n      dup2\n      mstore\n      0x20\n      add\n      mload(0x40)\n      dup1\n      swap2\n      sub\n      swap1\n      keccak256\n        /* \"box/box_allocate.sol\":5359:5390  _metaBoxs[metaBytes].expireTime */\n      0x01\n      add\n      sload\n        /* \"box/box_allocate.sol\":5359:5409  _metaBoxs[metaBytes].expireTime >= block.timestamp */\n      lt\n      iszero\n        /* \"box/box_allocate.sol\":5351:5433  require(_metaBoxs[metaBytes].expireTime >= block.timestamp, \"The box sale is end\") */\n      tag_189\n      jumpi\n      mload(0x40)\n      0x08c379a000000000000000000000000000000000000000000000000000000000\n      dup2\n      mstore\n      0x04\n      add\n      tag_190\n      swap1\n      tag_191\n      jump\t// in\n    tag_190:\n      mload(0x40)\n      dup1\n      swap2\n      sub\n      swap1\n      revert\n    tag_189:\n        /* \"box/box_allocate.sol\":5461:5462  0 */\n      0x00\n        /* \"box/box_allocate.sol\":5451:5458  box_cnt */\n      dup4\n        /* \"box/box_allocate.sol\":5451:5462  box_cnt > 0 */\n      gt\n        /* \"box/box_allocate.sol\":5443:5482  require(box_cnt > 0 ,\"Box cnt is zero\") */\n      tag_192\n      jumpi\n      mload(0x40)\n      0x08c379a000000000000000000000000000000000000000000000000000000000\n      dup2\n      mstore\n      0x04\n      add\n      tag_193\n      swap1\n      tag_194\n      jump\t// in\n    tag_193:\n      mload(0x40)\n      dup1\n      swap2\n      sub\n      swap1\n      revert\n    tag_192:\n        /* \"box/box_allocate.sol\":5547:5556  msg.value */\n      callvalue\n        /* \"box/box_allocate.sol\":5500:5543  box_cnt.mul(PER_BOX_PRICE).add(PER_BOX_GAS) */\n      tag_195\n        /* \"box/box_allocate.sol\":1078:1084  10**15 */\n      0x038d7ea4c68000\n        /* \"box/box_allocate.sol\":5500:5526  box_cnt.mul(PER_BOX_PRICE) */\n      tag_196\n        /* \"box/box_allocate.sol\":1028:1034  10**16 */\n      0x2386f26fc10000\n        /* \"box/box_allocate.sol\":5500:5507  box_cnt */\n      dup8\n        /* \"box/box_allocate.sol\":5500:5511  box_cnt.mul */\n      tag_197\n      swap1\n        /* \"box/box_allocate.sol\":5500:5526  box_cnt.mul(PER_BOX_PRICE) */\n      swap2\n      swap1\n      0xffffffff\n      and\n      jump\t// in\n    tag_196:\n        /* \"box/box_allocate.sol\":5500:5530  box_cnt.mul(PER_BOX_PRICE).add */\n      tag_198\n      swap1\n        /* \"box/box_allocate.sol\":5500:5543  box_cnt.mul(PER_BOX_PRICE).add(PER_BOX_GAS) */\n      swap2\n      swap1\n      0xffffffff\n      and\n      jump\t// in\n    tag_195:\n        /* \"box/box_allocate.sol\":5500:5556  box_cnt.mul(PER_BOX_PRICE).add(PER_BOX_GAS) >= msg.value */\n      lt\n      iszero\n        /* \"box/box_allocate.sol\":5492:5584  require(box_cnt.mul(PER_BOX_PRICE).add(PER_BOX_GAS) >= msg.value ,\"Insufficient Box amount\") */\n      tag_199\n      jumpi\n      mload(0x40)\n      0x08c379a000000000000000000000000000000000000000000000000000000000\n      dup2\n      mstore\n      0x04\n      add\n      tag_200\n      swap1\n      tag_201\n      jump\t// in\n    tag_200:\n      mload(0x40)\n      dup1\n      swap2\n      sub\n      swap1\n      revert\n    tag_199:\n        /* \"box/box_allocate.sol\":5594:5607  _boxPreOrders */\n      0x09\n        /* \"box/box_allocate.sol\":5608:5617  metaBytes */\n      dup2\n        /* \"box/box_allocate.sol\":5594:5618  _boxPreOrders[metaBytes] */\n      mload(0x40)\n      tag_202\n      swap2\n      swap1\n      tag_188\n      jump\t// in\n    tag_202:\n      swap1\n      dup2\n      mstore\n      0x20\n      add\n      mload(0x40)\n      dup1\n      swap2\n      sub\n      swap1\n      keccak256\n        /* \"box/box_allocate.sol\":5624:5748  BoxPreOrder({... */\n      mload(0x40)\n      dup1\n      0x60\n      add\n      0x40\n      mstore\n      dup1\n        /* \"box/box_allocate.sol\":5694:5701  box_cnt */\n      dup6\n        /* \"box/box_allocate.sol\":5624:5748  BoxPreOrder({... */\n      dup2\n      mstore\n      0x20\n      add\n        /* \"box/box_allocate.sol\":5661:5671  msg.sender */\n      caller\n        /* \"box/box_allocate.sol\":5624:5748  BoxPreOrder({... */\n      0xffffffffffffffffffffffffffffffffffffffff\n      and\n      dup2\n      mstore\n      0x20\n      add\n        /* \"box/box_allocate.sol\":5728:5733  false */\n      0x00\n        /* \"box/box_allocate.sol\":5624:5748  BoxPreOrder({... */\n      iszero\n      iszero\n      dup2\n      mstore\n      pop\n        /* \"box/box_allocate.sol\":5594:5749  _boxPreOrders[metaBytes].push(BoxPreOrder({... */\n      swap1\n      dup1\n      0x01\n      dup2\n      sload\n      add\n      dup1\n      dup3\n      sstore\n      dup1\n      swap2\n      pop\n      pop\n      0x01\n      swap1\n      sub\n      swap1\n      0x00\n      mstore\n      keccak256(0x00, 0x20)\n      swap1\n      0x02\n      mul\n      add\n      0x00\n      swap1\n      swap2\n      swap1\n      swap2\n      swap1\n      swap2\n      pop\n      0x00\n      dup3\n      add\n      mload\n      dup2\n      0x00\n      add\n      sstore\n      0x20\n      dup3\n      add\n      mload\n      dup2\n      0x01\n      add\n      exp(0x0100, 0x00)\n      dup2\n      sload\n      dup2\n      0xffffffffffffffffffffffffffffffffffffffff\n      mul\n      not\n      and\n      swap1\n      dup4\n      0xffffffffffffffffffffffffffffffffffffffff\n      and\n      mul\n      or\n      swap1\n      sstore\n      pop\n      0x40\n      dup3\n      add\n      mload\n      dup2\n      0x01\n      add\n      exp(0x0100, 0x14)\n      dup2\n      sload\n      dup2\n      0xff\n      mul\n      not\n      and\n      swap1\n      dup4\n      iszero\n      iszero\n      mul\n      or\n      swap1\n      sstore\n      pop\n      pop\n      pop\n        /* \"box/box_allocate.sol\":5790:5831  _metaBoxs[metaBytes].saleCnt.add(box_cnt) */\n      tag_204\n        /* \"box/box_allocate.sol\":5823:5830  box_cnt */\n      dup4\n        /* \"box/box_allocate.sol\":5790:5799  _metaBoxs */\n      0x08\n        /* \"box/box_allocate.sol\":5800:5809  metaBytes */\n      dup4\n        /* \"box/box_allocate.sol\":5790:5810  _metaBoxs[metaBytes] */\n      mload(0x40)\n      tag_205\n      swap2\n      swap1\n      tag_188\n      jump\t// in\n    tag_205:\n      swap1\n      dup2\n      mstore\n      0x20\n      add\n      mload(0x40)\n      dup1\n      swap2\n      sub\n      swap1\n      keccak256\n        /* \"box/box_allocate.sol\":5790:5818  _metaBoxs[metaBytes].saleCnt */\n      0x02\n      add\n      sload\n        /* \"box/box_allocate.sol\":5790:5822  _metaBoxs[metaBytes].saleCnt.add */\n      tag_198\n      swap1\n        /* \"box/box_allocate.sol\":5790:5831  _metaBoxs[metaBytes].saleCnt.add(box_cnt) */\n      swap2\n      swap1\n      0xffffffff\n      and\n      jump\t// in\n    tag_204:\n        /* \"box/box_allocate.sol\":5759:5768  _metaBoxs */\n      0x08\n        /* \"box/box_allocate.sol\":5769:5778  metaBytes */\n      dup3\n        /* \"box/box_allocate.sol\":5759:5779  _metaBoxs[metaBytes] */\n      mload(0x40)\n      tag_206\n      swap2\n      swap1\n      tag_188\n      jump\t// in\n    tag_206:\n      swap1\n      dup2\n      mstore\n      0x20\n      add\n      mload(0x40)\n      dup1\n      swap2\n      sub\n      swap1\n      keccak256\n        /* \"box/box_allocate.sol\":5759:5787  _metaBoxs[metaBytes].saleCnt */\n      0x02\n      add\n        /* \"box/box_allocate.sol\":5759:5831  _metaBoxs[metaBytes].saleCnt = _metaBoxs[metaBytes].saleCnt.add(box_cnt) */\n      dup2\n      swap1\n      sstore\n      pop\n        /* \"box/box_allocate.sol\":5854:5864  msg.sender */\n      caller\n        /* \"box/box_allocate.sol\":5846:5917  BoxSale(msg.sender,meta,_boxPreOrders[metaBytes].length.sub(1),box_cnt) */\n      0xffffffffffffffffffffffffffffffffffffffff\n      and\n      0xdac6f59b977dafbca4da6315b0731c34083e85eaf92766691c987a5ab4468aea\n        /* \"box/box_allocate.sol\":5865:5869  meta */\n      dup6\n        /* \"box/box_allocate.sol\":5870:5908  _boxPreOrders[metaBytes].length.sub(1) */\n      tag_207\n        /* \"box/box_allocate.sol\":5906:5907  1 */\n      0x01\n        /* \"box/box_allocate.sol\":5870:5883  _boxPreOrders */\n      0x09\n        /* \"box/box_allocate.sol\":5884:5893  metaBytes */\n      dup7\n        /* \"box/box_allocate.sol\":5870:5894  _boxPreOrders[metaBytes] */\n      mload(0x40)\n      tag_208\n      swap2\n      swap1\n      tag_188\n      jump\t// in\n    tag_208:\n      swap1\n      dup2\n      mstore\n      0x20\n      add\n      mload(0x40)\n      dup1\n      swap2\n      sub\n      swap1\n      keccak256\n        /* \"box/box_allocate.sol\":5870:5901  _boxPreOrders[metaBytes].length */\n      dup1\n      sload\n      swap1\n      pop\n        /* \"box/box_allocate.sol\":5870:5905  _boxPreOrders[metaBytes].length.sub */\n      tag_209\n      swap1\n        /* \"box/box_allocate.sol\":5870:5908  _boxPreOrders[metaBytes].length.sub(1) */\n      swap2\n      swap1\n      0xffffffff\n      and\n      jump\t// in\n    tag_207:\n        /* \"box/box_allocate.sol\":5909:5916  box_cnt */\n      dup7\n        /* \"box/box_allocate.sol\":5846:5917  BoxSale(msg.sender,meta,_boxPreOrders[metaBytes].length.sub(1),box_cnt) */\n      mload(0x40)\n      tag_210\n      swap4\n      swap3\n      swap2\n      swap1\n      tag_211\n      jump\t// in\n    tag_210:\n      mload(0x40)\n      dup1\n      swap2\n      sub\n      swap1\n      log2\n        /* \"box/box_allocate.sol\":5934:5938  true */\n      0x01\n        /* \"box/box_allocate.sol\":5927:5938  return true */\n      swap2\n      pop\n      pop\n        /* \"box/box_allocate.sol\":5184:5945  function boxPreSale(string memory meta, uint256 box_cnt) external payable callerIsUser returns (bool) {... */\n      swap3\n      swap2\n      pop\n      pop\n      jump\t// out\n        /* \"box/box_allocate.sol\":5955:7335  function boxAllocate(string memory meta,BoxAllocate[] memory box_allocates) external onlyOwner {... */\n    tag_54:\n        /* \"@openzeppelin/contracts/access/Ownable.sol\":1531:1544  _checkOwner() */\n      tag_213\n        /* \"@openzeppelin/contracts/access/Ownable.sol\":1531:1542  _checkOwner */\n      tag_214\n        /* \"@openzeppelin/contracts/access/Ownable.sol\":1531:1544  _checkOwner() */\n      jump\t// in\n    tag_213:\n        /* \"box/box_allocate.sol\":6060:6082  bytes memory metaBytes */\n      0x00\n        /* \"box/box_allocate.sol\":6085:6105  _stringToBytes(meta) */\n      tag_216\n        /* \"box/box_allocate.sol\":6100:6104  meta */\n      dup4\n        /* \"box/box_allocate.sol\":6085:6099  _stringToBytes */\n      tag_64\n        /* \"box/box_allocate.sol\":6085:6105  _stringToBytes(meta) */\n      jump\t// in\n    tag_216:\n        /* \"box/box_allocate.sol\":6060:6105  bytes memory metaBytes = _stringToBytes(meta) */\n      swap1\n      pop\n        /* \"box/box_allocate.sol\":6212:6246  BoxPreOrder[] storage boxPreOrders */\n      0x00\n        /* \"box/box_allocate.sol\":6249:6262  _boxPreOrders */\n      0x09\n        /* \"box/box_allocate.sol\":6263:6272  metaBytes */\n      dup3\n        /* \"box/box_allocate.sol\":6249:6273  _boxPreOrders[metaBytes] */\n      mload(0x40)\n      tag_217\n      swap2\n      swap1\n      tag_188\n      jump\t// in\n    tag_217:\n      swap1\n      dup2\n      mstore\n      0x20\n      add\n      mload(0x40)\n      dup1\n      swap2\n      sub\n      swap1\n      keccak256\n        /* \"box/box_allocate.sol\":6212:6273  BoxPreOrder[] storage boxPreOrders = _boxPreOrders[metaBytes] */\n      swap1\n      pop\n        /* \"box/box_allocate.sol\":6310:6323  box_allocates */\n      dup3\n        /* \"box/box_allocate.sol\":6310:6330  box_allocates.length */\n      mload\n        /* \"box/box_allocate.sol\":6287:6299  boxPreOrders */\n      dup2\n        /* \"box/box_allocate.sol\":6287:6306  boxPreOrders.length */\n      dup1\n      sload\n      swap1\n      pop\n        /* \"box/box_allocate.sol\":6287:6330  boxPreOrders.length >= box_allocates.length */\n      lt\n        /* \"box/box_allocate.sol\":6283:7327  if (boxPreOrders.length >= box_allocates.length) {... */\n      tag_218\n      jumpi\n        /* \"box/box_allocate.sol\":6351:6357  uint i */\n      0x00\n        /* \"box/box_allocate.sol\":6346:7317  for (uint i = 0; i < box_allocates.length; i++) {... */\n    tag_219:\n        /* \"box/box_allocate.sol\":6367:6380  box_allocates */\n      dup4\n        /* \"box/box_allocate.sol\":6367:6387  box_allocates.length */\n      mload\n        /* \"box/box_allocate.sol\":6363:6364  i */\n      dup2\n        /* \"box/box_allocate.sol\":6363:6387  i < box_allocates.length */\n      lt\n        /* \"box/box_allocate.sol\":6346:7317  for (uint i = 0; i < box_allocates.length; i++) {... */\n      iszero\n      tag_220\n      jumpi\n        /* \"box/box_allocate.sol\":6412:6443  BoxAllocate memory box_allocate */\n      0x00\n        /* \"box/box_allocate.sol\":6446:6459  box_allocates */\n      dup5\n        /* \"box/box_allocate.sol\":6460:6461  i */\n      dup3\n        /* \"box/box_allocate.sol\":6446:6462  box_allocates[i] */\n      dup2\n      mload\n      dup2\n      lt\n      tag_222\n      jumpi\n      tag_223\n      tag_224\n      jump\t// in\n    tag_223:\n    tag_222:\n      0x20\n      mul\n      0x20\n      add\n      add\n      mload\n        /* \"box/box_allocate.sol\":6412:6462  BoxAllocate memory box_allocate = box_allocates[i] */\n      swap1\n      pop\n        /* \"box/box_allocate.sol\":6480:6511  BoxPreOrder storage boxPreOrder */\n      0x00\n        /* \"box/box_allocate.sol\":6514:6526  boxPreOrders */\n      dup4\n        /* \"box/box_allocate.sol\":6527:6539  box_allocate */\n      dup3\n        /* \"box/box_allocate.sol\":6527:6550  box_allocate.orderIndex */\n      0x00\n      add\n      mload\n        /* \"box/box_allocate.sol\":6514:6551  boxPreOrders[box_allocate.orderIndex] */\n      dup2\n      sload\n      dup2\n      lt\n      tag_225\n      jumpi\n      tag_226\n      tag_224\n      jump\t// in\n    tag_226:\n    tag_225:\n      swap1\n      0x00\n      mstore\n      keccak256(0x00, 0x20)\n      swap1\n      0x02\n      mul\n      add\n        /* \"box/box_allocate.sol\":6480:6551  BoxPreOrder storage boxPreOrder = boxPreOrders[box_allocate.orderIndex] */\n      swap1\n      pop\n        /* \"box/box_allocate.sol\":6592:6593  0 */\n      0x00\n        /* \"box/box_allocate.sol\":6573:6585  box_allocate */\n      dup3\n        /* \"box/box_allocate.sol\":6573:6589  box_allocate.cnt */\n      0x20\n      add\n      mload\n        /* \"box/box_allocate.sol\":6573:6593  box_allocate.cnt > 0 */\n      gt\n        /* \"box/box_allocate.sol\":6573:6618  box_allocate.cnt > 0 && !boxPreOrder.allocate */\n      dup1\n      iszero\n      tag_228\n      jumpi\n      pop\n        /* \"box/box_allocate.sol\":6598:6609  boxPreOrder */\n      dup1\n        /* \"box/box_allocate.sol\":6598:6618  boxPreOrder.allocate */\n      0x01\n      add\n      0x14\n      swap1\n      sload\n      swap1\n      0x0100\n      exp\n      swap1\n      div\n      0xff\n      and\n        /* \"box/box_allocate.sol\":6597:6618  !boxPreOrder.allocate */\n      iszero\n        /* \"box/box_allocate.sol\":6573:6618  box_allocate.cnt > 0 && !boxPreOrder.allocate */\n    tag_228:\n        /* \"box/box_allocate.sol\":6569:6983  if (box_allocate.cnt > 0 && !boxPreOrder.allocate) {... */\n      iszero\n      tag_229\n      jumpi\n        /* \"box/box_allocate.sol\":6670:6681  boxPreOrder */\n      dup1\n        /* \"box/box_allocate.sol\":6670:6685  boxPreOrder.cnt */\n      0x00\n      add\n      sload\n        /* \"box/box_allocate.sol\":6650:6662  box_allocate */\n      dup3\n        /* \"box/box_allocate.sol\":6650:6666  box_allocate.cnt */\n      0x20\n      add\n      mload\n        /* \"box/box_allocate.sol\":6650:6685  box_allocate.cnt <= boxPreOrder.cnt */\n      gt\n      iszero\n        /* \"box/box_allocate.sol\":6642:6718  require(box_allocate.cnt <= boxPreOrder.cnt,\"Insufficient box allocate cnt\") */\n      tag_230\n      jumpi\n      mload(0x40)\n      0x08c379a000000000000000000000000000000000000000000000000000000000\n      dup2\n      mstore\n      0x04\n      add\n      tag_231\n      swap1\n      tag_232\n      jump\t// in\n    tag_231:\n      mload(0x40)\n      dup1\n      swap2\n      sub\n      swap1\n      revert\n    tag_230:\n        /* \"box/box_allocate.sol\":6763:6767  true */\n      0x01\n        /* \"box/box_allocate.sol\":6740:6751  boxPreOrder */\n      dup2\n        /* \"box/box_allocate.sol\":6740:6760  boxPreOrder.allocate */\n      0x01\n      add\n      0x14\n        /* \"box/box_allocate.sol\":6740:6767  boxPreOrder.allocate = true */\n      0x0100\n      exp\n      dup2\n      sload\n      dup2\n      0xff\n      mul\n      not\n      and\n      swap1\n      dup4\n      iszero\n      iszero\n      mul\n      or\n      swap1\n      sstore\n      pop\n        /* \"box/box_allocate.sol\":6837:6904  _metaBoxBalance[metaBytes][boxPreOrder.owner].add(box_allocate.cnt) */\n      tag_233\n        /* \"box/box_allocate.sol\":6887:6899  box_allocate */\n      dup3\n        /* \"box/box_allocate.sol\":6887:6903  box_allocate.cnt */\n      0x20\n      add\n      mload\n        /* \"box/box_allocate.sol\":6837:6852  _metaBoxBalance */\n      0x07\n        /* \"box/box_allocate.sol\":6853:6862  metaBytes */\n      dup8\n        /* \"box/box_allocate.sol\":6837:6863  _metaBoxBalance[metaBytes] */\n      mload(0x40)\n      tag_234\n      swap2\n      swap1\n      tag_188\n      jump\t// in\n    tag_234:\n      swap1\n      dup2\n      mstore\n      0x20\n      add\n      mload(0x40)\n      dup1\n      swap2\n      sub\n      swap1\n      keccak256\n        /* \"box/box_allocate.sol\":6837:6882  _metaBoxBalance[metaBytes][boxPreOrder.owner] */\n      0x00\n        /* \"box/box_allocate.sol\":6864:6875  boxPreOrder */\n      dup5\n        /* \"box/box_allocate.sol\":6864:6881  boxPreOrder.owner */\n      0x01\n      add\n      0x00\n      swap1\n      sload\n      swap1\n      0x0100\n      exp\n      swap1\n      div\n      0xffffffffffffffffffffffffffffffffffffffff\n      and\n        /* \"box/box_allocate.sol\":6837:6882  _metaBoxBalance[metaBytes][boxPreOrder.owner] */\n      0xffffffffffffffffffffffffffffffffffffffff\n      and\n      0xffffffffffffffffffffffffffffffffffffffff\n      and\n      dup2\n      mstore\n      0x20\n      add\n      swap1\n      dup2\n      mstore\n      0x20\n      add\n      0x00\n      keccak256\n      sload\n        /* \"box/box_allocate.sol\":6837:6886  _metaBoxBalance[metaBytes][boxPreOrder.owner].add */\n      tag_198\n      swap1\n        /* \"box/box_allocate.sol\":6837:6904  _metaBoxBalance[metaBytes][boxPreOrder.owner].add(box_allocate.cnt) */\n      swap2\n      swap1\n      0xffffffff\n      and\n      jump\t// in\n    tag_233:\n        /* \"box/box_allocate.sol\":6789:6804  _metaBoxBalance */\n      0x07\n        /* \"box/box_allocate.sol\":6805:6814  metaBytes */\n      dup7\n        /* \"box/box_allocate.sol\":6789:6815  _metaBoxBalance[metaBytes] */\n      mload(0x40)\n      tag_235\n      swap2\n      swap1\n      tag_188\n      jump\t// in\n    tag_235:\n      swap1\n      dup2\n      mstore\n      0x20\n      add\n      mload(0x40)\n      dup1\n      swap2\n      sub\n      swap1\n      keccak256\n        /* \"box/box_allocate.sol\":6789:6834  _metaBoxBalance[metaBytes][boxPreOrder.owner] */\n      0x00\n        /* \"box/box_allocate.sol\":6816:6827  boxPreOrder */\n      dup4\n        /* \"box/box_allocate.sol\":6816:6833  boxPreOrder.owner */\n      0x01\n      add\n      0x00\n      swap1\n      sload\n      swap1\n      0x0100\n      exp\n      swap1\n      div\n      0xffffffffffffffffffffffffffffffffffffffff\n      and\n        /* \"box/box_allocate.sol\":6789:6834  _metaBoxBalance[metaBytes][boxPreOrder.owner] */\n      0xffffffffffffffffffffffffffffffffffffffff\n      and\n      0xffffffffffffffffffffffffffffffffffffffff\n      and\n      dup2\n      mstore\n      0x20\n      add\n      swap1\n      dup2\n      mstore\n      0x20\n      add\n      0x00\n      keccak256\n        /* \"box/box_allocate.sol\":6789:6904  _metaBoxBalance[metaBytes][boxPreOrder.owner] = _metaBoxBalance[metaBytes][boxPreOrder.owner].add(box_allocate.cnt) */\n      dup2\n      swap1\n      sstore\n      pop\n        /* \"box/box_allocate.sol\":6926:6964  pushAddressArray(metaBytes,msg.sender) */\n      tag_236\n        /* \"box/box_allocate.sol\":6943:6952  metaBytes */\n      dup6\n        /* \"box/box_allocate.sol\":6953:6963  msg.sender */\n      caller\n        /* \"box/box_allocate.sol\":6926:6942  pushAddressArray */\n      tag_237\n        /* \"box/box_allocate.sol\":6926:6964  pushAddressArray(metaBytes,msg.sender) */\n      jump\t// in\n    tag_236:\n        /* \"box/box_allocate.sol\":6569:6983  if (box_allocate.cnt > 0 && !boxPreOrder.allocate) {... */\n    tag_229:\n        /* \"box/box_allocate.sol\":7022:7034  box_allocate */\n      dup2\n        /* \"box/box_allocate.sol\":7022:7038  box_allocate.cnt */\n      0x20\n      add\n      mload\n        /* \"box/box_allocate.sol\":7004:7015  boxPreOrder */\n      dup2\n        /* \"box/box_allocate.sol\":7004:7019  boxPreOrder.cnt */\n      0x00\n      add\n      sload\n        /* \"box/box_allocate.sol\":7004:7038  boxPreOrder.cnt > box_allocate.cnt */\n      gt\n        /* \"box/box_allocate.sol\":7000:7222  if (boxPreOrder.cnt > box_allocate.cnt ) {... */\n      iszero\n      tag_238\n      jumpi\n        /* \"box/box_allocate.sol\":7063:7078  uint256 refound */\n      0x00\n        /* \"box/box_allocate.sol\":7081:7137  boxPreOrder.cnt.sub(box_allocate.cnt).mul(PER_BOX_PRICE) */\n      tag_239\n        /* \"box/box_allocate.sol\":1028:1034  10**16 */\n      0x2386f26fc10000\n        /* \"box/box_allocate.sol\":7081:7118  boxPreOrder.cnt.sub(box_allocate.cnt) */\n      tag_240\n        /* \"box/box_allocate.sol\":7101:7113  box_allocate */\n      dup6\n        /* \"box/box_allocate.sol\":7101:7117  box_allocate.cnt */\n      0x20\n      add\n      mload\n        /* \"box/box_allocate.sol\":7081:7092  boxPreOrder */\n      dup6\n        /* \"box/box_allocate.sol\":7081:7096  boxPreOrder.cnt */\n      0x00\n      add\n      sload\n        /* \"box/box_allocate.sol\":7081:7100  boxPreOrder.cnt.sub */\n      tag_209\n      swap1\n        /* \"box/box_allocate.sol\":7081:7118  boxPreOrder.cnt.sub(box_allocate.cnt) */\n      swap2\n      swap1\n      0xffffffff\n      and\n      jump\t// in\n    tag_240:\n        /* \"box/box_allocate.sol\":7081:7122  boxPreOrder.cnt.sub(box_allocate.cnt).mul */\n      tag_197\n      swap1\n        /* \"box/box_allocate.sol\":7081:7137  boxPreOrder.cnt.sub(box_allocate.cnt).mul(PER_BOX_PRICE) */\n      swap2\n      swap1\n      0xffffffff\n      and\n      jump\t// in\n    tag_239:\n        /* \"box/box_allocate.sol\":7063:7137  uint256 refound = boxPreOrder.cnt.sub(box_allocate.cnt).mul(PER_BOX_PRICE) */\n      swap1\n      pop\n        /* \"box/box_allocate.sol\":7167:7178  boxPreOrder */\n      dup2\n        /* \"box/box_allocate.sol\":7167:7184  boxPreOrder.owner */\n      0x01\n      add\n      0x00\n      swap1\n      sload\n      swap1\n      0x0100\n      exp\n      swap1\n      div\n      0xffffffffffffffffffffffffffffffffffffffff\n      and\n        /* \"box/box_allocate.sol\":7159:7194  payable(boxPreOrder.owner).transfer */\n      0xffffffffffffffffffffffffffffffffffffffff\n      and\n        /* \"box/box_allocate.sol\":7159:7203  payable(boxPreOrder.owner).transfer(refound) */\n      0x08fc\n        /* \"box/box_allocate.sol\":7195:7202  refound */\n      dup3\n        /* \"box/box_allocate.sol\":7159:7203  payable(boxPreOrder.owner).transfer(refound) */\n      swap1\n      dup2\n      iszero\n      mul\n      swap1\n      mload(0x40)\n      0x00\n      mload(0x40)\n      dup1\n      dup4\n      sub\n      dup2\n      dup6\n      dup9\n      dup9\n      call\n      swap4\n      pop\n      pop\n      pop\n      pop\n      iszero\n      dup1\n      iszero\n      tag_242\n      jumpi\n      returndatasize\n      0x00\n      dup1\n      returndatacopy\n      revert(0x00, returndatasize)\n    tag_242:\n      pop\n        /* \"box/box_allocate.sol\":7041:7222  {... */\n      pop\n        /* \"box/box_allocate.sol\":7000:7222  if (boxPreOrder.cnt > box_allocate.cnt ) {... */\n    tag_238:\n        /* \"box/box_allocate.sol\":7262:7272  msg.sender */\n      caller\n        /* \"box/box_allocate.sol\":7244:7302  BoxAllocateRefund(msg.sender,meta,box_allocate.orderIndex) */\n      0xffffffffffffffffffffffffffffffffffffffff\n      and\n      0x53fae72da401d34993de5cb88d89b61921d9ea03b01cf315dccb1f628547d05e\n        /* \"box/box_allocate.sol\":7273:7277  meta */\n      dup9\n        /* \"box/box_allocate.sol\":7278:7290  box_allocate */\n      dup5\n        /* \"box/box_allocate.sol\":7278:7301  box_allocate.orderIndex */\n      0x00\n      add\n      mload\n        /* \"box/box_allocate.sol\":7244:7302  BoxAllocateRefund(msg.sender,meta,box_allocate.orderIndex) */\n      mload(0x40)\n      tag_243\n      swap3\n      swap2\n      swap1\n      tag_244\n      jump\t// in\n    tag_243:\n      mload(0x40)\n      dup1\n      swap2\n      sub\n      swap1\n      log2\n        /* \"box/box_allocate.sol\":6394:7317  {... */\n      pop\n      pop\n        /* \"box/box_allocate.sol\":6389:6392  i++ */\n      dup1\n      dup1\n      tag_245\n      swap1\n      tag_246\n      jump\t// in\n    tag_245:\n      swap2\n      pop\n      pop\n        /* \"box/box_allocate.sol\":6346:7317  for (uint i = 0; i < box_allocates.length; i++) {... */\n      jump(tag_219)\n    tag_220:\n      pop\n        /* \"box/box_allocate.sol\":6283:7327  if (boxPreOrders.length >= box_allocates.length) {... */\n    tag_218:\n        /* \"box/box_allocate.sol\":6050:7335  {... */\n      pop\n      pop\n        /* \"box/box_allocate.sol\":5955:7335  function boxAllocate(string memory meta,BoxAllocate[] memory box_allocates) external onlyOwner {... */\n      pop\n      pop\n      jump\t// out\n        /* \"box/box_allocate.sol\":2842:3108  function setBoxFee(uint256 owner,uint256 platform,uint256 farm) external onlyOwner {... */\n    tag_59:\n        /* \"@openzeppelin/contracts/access/Ownable.sol\":1531:1544  _checkOwner() */\n      tag_248\n        /* \"@openzeppelin/contracts/access/Ownable.sol\":1531:1542  _checkOwner */\n      tag_214\n        /* \"@openzeppelin/contracts/access/Ownable.sol\":1531:1544  _checkOwner() */\n      jump\t// in\n    tag_248:\n        /* \"box/box_allocate.sol\":2951:2956  owner */\n      dup3\n        /* \"box/box_allocate.sol\":2935:2948  BOX_OWNER_FEE */\n      0x02\n        /* \"box/box_allocate.sol\":2935:2956  BOX_OWNER_FEE = owner */\n      dup2\n      swap1\n      sstore\n      pop\n        /* \"box/box_allocate.sol\":2985:2993  platform */\n      dup2\n        /* \"box/box_allocate.sol\":2966:2982  BOX_PLATFORM_FEE */\n      0x03\n        /* \"box/box_allocate.sol\":2966:2993  BOX_PLATFORM_FEE = platform */\n      dup2\n      swap1\n      sstore\n      pop\n        /* \"box/box_allocate.sol\":3018:3022  farm */\n      dup1\n        /* \"box/box_allocate.sol\":3003:3015  BOX_FARM_FEE */\n      0x04\n        /* \"box/box_allocate.sol\":3003:3022  BOX_FARM_FEE = farm */\n      dup2\n      swap1\n      sstore\n      pop\n        /* \"box/box_allocate.sol\":3048:3101  BOX_OWNER_FEE.add(BOX_PLATFORM_FEE).add(BOX_FARM_FEE) */\n      tag_250\n        /* \"box/box_allocate.sol\":3088:3100  BOX_FARM_FEE */\n      sload(0x04)\n        /* \"box/box_allocate.sol\":3048:3083  BOX_OWNER_FEE.add(BOX_PLATFORM_FEE) */\n      tag_251\n        /* \"box/box_allocate.sol\":3066:3082  BOX_PLATFORM_FEE */\n      sload(0x03)\n        /* \"box/box_allocate.sol\":3048:3061  BOX_OWNER_FEE */\n      sload(0x02)\n        /* \"box/box_allocate.sol\":3048:3065  BOX_OWNER_FEE.add */\n      tag_198\n      swap1\n        /* \"box/box_allocate.sol\":3048:3083  BOX_OWNER_FEE.add(BOX_PLATFORM_FEE) */\n      swap2\n      swap1\n      0xffffffff\n      and\n      jump\t// in\n    tag_251:\n        /* \"box/box_allocate.sol\":3048:3087  BOX_OWNER_FEE.add(BOX_PLATFORM_FEE).add */\n      tag_198\n      swap1\n        /* \"box/box_allocate.sol\":3048:3101  BOX_OWNER_FEE.add(BOX_PLATFORM_FEE).add(BOX_FARM_FEE) */\n      swap2\n      swap1\n      0xffffffff\n      and\n      jump\t// in\n    tag_250:\n        /* \"box/box_allocate.sol\":3032:3045  BOX_TRADE_FEE */\n      0x01\n        /* \"box/box_allocate.sol\":3032:3101  BOX_TRADE_FEE = BOX_OWNER_FEE.add(BOX_PLATFORM_FEE).add(BOX_FARM_FEE) */\n      dup2\n      swap1\n      sstore\n      pop\n        /* \"box/box_allocate.sol\":2842:3108  function setBoxFee(uint256 owner,uint256 platform,uint256 farm) external onlyOwner {... */\n      pop\n      pop\n      pop\n      jump\t// out\n        /* \"box/box_allocate.sol\":3459:3691  function _stringToBytes(string memory source) public pure returns (bytes memory) {... */\n    tag_64:\n        /* \"box/box_allocate.sol\":3526:3538  bytes memory */\n      0x60\n        /* \"box/box_allocate.sol\":3550:3569  bytes memory result */\n      0x00\n        /* \"box/box_allocate.sol\":3578:3584  source */\n      dup3\n        /* \"box/box_allocate.sol\":3550:3585  bytes memory result = bytes(source) */\n      swap1\n      pop\n        /* \"box/box_allocate.sol\":3620:3622  32 */\n      0x20\n        /* \"box/box_allocate.sol\":3603:3609  result */\n      dup2\n        /* \"box/box_allocate.sol\":3603:3616  result.length */\n      mload\n        /* \"box/box_allocate.sol\":3603:3622  result.length <= 32 */\n      gt\n      iszero\n        /* \"box/box_allocate.sol\":3595:3661  require(result.length <= 32, \"Ths source string exceeds 32 bytes\") */\n      tag_253\n      jumpi\n      mload(0x40)\n      0x08c379a000000000000000000000000000000000000000000000000000000000\n      dup2\n      mstore\n      0x04\n      add\n      tag_254\n      swap1\n      tag_255\n      jump\t// in\n    tag_254:\n      mload(0x40)\n      dup1\n      swap2\n      sub\n      swap1\n      revert\n    tag_253:\n        /* \"box/box_allocate.sol\":3678:3684  result */\n      dup1\n        /* \"box/box_allocate.sol\":3671:3684  return result */\n      swap2\n      pop\n      pop\n        /* \"box/box_allocate.sol\":3459:3691  function _stringToBytes(string memory source) public pure returns (bytes memory) {... */\n      swap2\n      swap1\n      pop\n      jump\t// out\n        /* \"box/box_allocate.sol\":1496:1564  mapping(bytes => mapping(address => uint256)) public _metaBoxBalance */\n    tag_71:\n      0x07\n      dup3\n      dup1\n      mload\n      0x20\n      dup2\n      add\n      dup3\n      add\n      dup1\n      mload\n      dup5\n      dup3\n      mstore\n      0x20\n      dup4\n      add\n      0x20\n      dup6\n      add\n      keccak256\n      dup2\n      dup4\n      mstore\n      dup1\n      swap6\n      pop\n      pop\n      pop\n      pop\n      pop\n      pop\n      0x20\n      mstore\n      dup1\n      0x00\n      mstore\n      keccak256(0x00, 0x40)\n      0x00\n      swap2\n      pop\n      swap2\n      pop\n      pop\n      sload\n      dup2\n      jump\t// out\n        /* \"box/box_allocate.sol\":8077:8680  function boxSell(string memory meta,uint256 cnt) external callerIsUser {... */\n    tag_76:\n        /* \"box/box_allocate.sol\":2593:2603  msg.sender */\n      caller\n        /* \"box/box_allocate.sol\":2580:2603  tx.origin == msg.sender */\n      0xffffffffffffffffffffffffffffffffffffffff\n      and\n        /* \"box/box_allocate.sol\":2580:2589  tx.origin */\n      origin\n        /* \"box/box_allocate.sol\":2580:2603  tx.origin == msg.sender */\n      0xffffffffffffffffffffffffffffffffffffffff\n      and\n      eq\n        /* \"box/box_allocate.sol\":2572:2638  require(tx.origin == msg.sender, \"The caller is another contract\") */\n      tag_257\n      jumpi\n      mload(0x40)\n      0x08c379a000000000000000000000000000000000000000000000000000000000\n      dup2\n      mstore\n      0x04\n      add\n      tag_258\n      swap1\n      tag_184\n      jump\t// in\n    tag_258:\n      mload(0x40)\n      dup1\n      swap2\n      sub\n      swap1\n      revert\n    tag_257:\n        /* \"box/box_allocate.sol\":8172:8173  0 */\n      0x00\n        /* \"box/box_allocate.sol\":8166:8169  cnt */\n      dup2\n        /* \"box/box_allocate.sol\":8166:8173  cnt > 0 */\n      gt\n        /* \"box/box_allocate.sol\":8158:8197  require(cnt > 0,\"Insufficient Box cnt\") */\n      tag_260\n      jumpi\n      mload(0x40)\n      0x08c379a000000000000000000000000000000000000000000000000000000000\n      dup2\n      mstore\n      0x04\n      add\n      tag_261\n      swap1\n      tag_262\n      jump\t// in\n    tag_261:\n      mload(0x40)\n      dup1\n      swap2\n      sub\n      swap1\n      revert\n    tag_260:\n        /* \"box/box_allocate.sol\":8207:8229  bytes memory metaBytes */\n      0x00\n        /* \"box/box_allocate.sol\":8232:8252  _stringToBytes(meta) */\n      tag_263\n        /* \"box/box_allocate.sol\":8247:8251  meta */\n      dup4\n        /* \"box/box_allocate.sol\":8232:8246  _stringToBytes */\n      tag_64\n        /* \"box/box_allocate.sol\":8232:8252  _stringToBytes(meta) */\n      jump\t// in\n    tag_263:\n        /* \"box/box_allocate.sol\":8207:8252  bytes memory metaBytes = _stringToBytes(meta) */\n      swap1\n      pop\n        /* \"box/box_allocate.sol\":8312:8315  cnt */\n      dup2\n        /* \"box/box_allocate.sol\":8270:8285  _metaBoxBalance */\n      0x07\n        /* \"box/box_allocate.sol\":8286:8295  metaBytes */\n      dup3\n        /* \"box/box_allocate.sol\":8270:8296  _metaBoxBalance[metaBytes] */\n      mload(0x40)\n      tag_264\n      swap2\n      swap1\n      tag_188\n      jump\t// in\n    tag_264:\n      swap1\n      dup2\n      mstore\n      0x20\n      add\n      mload(0x40)\n      dup1\n      swap2\n      sub\n      swap1\n      keccak256\n        /* \"box/box_allocate.sol\":8270:8308  _metaBoxBalance[metaBytes][msg.sender] */\n      0x00\n        /* \"box/box_allocate.sol\":8297:8307  msg.sender */\n      caller\n        /* \"box/box_allocate.sol\":8270:8308  _metaBoxBalance[metaBytes][msg.sender] */\n      0xffffffffffffffffffffffffffffffffffffffff\n      and\n      0xffffffffffffffffffffffffffffffffffffffff\n      and\n      dup2\n      mstore\n      0x20\n      add\n      swap1\n      dup2\n      mstore\n      0x20\n      add\n      0x00\n      keccak256\n      sload\n        /* \"box/box_allocate.sol\":8270:8315  _metaBoxBalance[metaBytes][msg.sender] >= cnt */\n      lt\n      iszero\n        /* \"box/box_allocate.sol\":8262:8343  require(_metaBoxBalance[metaBytes][msg.sender] >= cnt,\"Insufficient Box balance\") */\n      tag_265\n      jumpi\n      mload(0x40)\n      0x08c379a000000000000000000000000000000000000000000000000000000000\n      dup2\n      mstore\n      0x04\n      add\n      tag_266\n      swap1\n      tag_267\n      jump\t// in\n    tag_266:\n      mload(0x40)\n      dup1\n      swap2\n      sub\n      swap1\n      revert\n    tag_265:\n        /* \"box/box_allocate.sol\":8354:8378  uint256 tradeTotalAmount */\n      0x00\n        /* \"box/box_allocate.sol\":8380:8391  uint256 fee */\n      dup1\n        /* \"box/box_allocate.sol\":8396:8430  calculateSellAmount(metaBytes,cnt) */\n      tag_268\n        /* \"box/box_allocate.sol\":8416:8425  metaBytes */\n      dup4\n        /* \"box/box_allocate.sol\":8426:8429  cnt */\n      dup6\n        /* \"box/box_allocate.sol\":8396:8415  calculateSellAmount */\n      tag_269\n        /* \"box/box_allocate.sol\":8396:8430  calculateSellAmount(metaBytes,cnt) */\n      jump\t// in\n    tag_268:\n        /* \"box/box_allocate.sol\":8353:8430  (uint256 tradeTotalAmount, uint256 fee)  = calculateSellAmount(metaBytes,cnt) */\n      swap2\n      pop\n      swap2\n      pop\n        /* \"box/box_allocate.sol\":8481:8528  _metaBoxBalance[metaBytes][msg.sender].sub(cnt) */\n      tag_270\n        /* \"box/box_allocate.sol\":8524:8527  cnt */\n      dup5\n        /* \"box/box_allocate.sol\":8481:8496  _metaBoxBalance */\n      0x07\n        /* \"box/box_allocate.sol\":8497:8506  metaBytes */\n      dup6\n        /* \"box/box_allocate.sol\":8481:8507  _metaBoxBalance[metaBytes] */\n      mload(0x40)\n      tag_271\n      swap2\n      swap1\n      tag_188\n      jump\t// in\n    tag_271:\n      swap1\n      dup2\n      mstore\n      0x20\n      add\n      mload(0x40)\n      dup1\n      swap2\n      sub\n      swap1\n      keccak256\n        /* \"box/box_allocate.sol\":8481:8519  _metaBoxBalance[metaBytes][msg.sender] */\n      0x00\n        /* \"box/box_allocate.sol\":8508:8518  msg.sender */\n      caller\n        /* \"box/box_allocate.sol\":8481:8519  _metaBoxBalance[metaBytes][msg.sender] */\n      0xffffffffffffffffffffffffffffffffffffffff\n      and\n      0xffffffffffffffffffffffffffffffffffffffff\n      and\n      dup2\n      mstore\n      0x20\n      add\n      swap1\n      dup2\n      mstore\n      0x20\n      add\n      0x00\n      keccak256\n      sload\n        /* \"box/box_allocate.sol\":8481:8523  _metaBoxBalance[metaBytes][msg.sender].sub */\n      tag_209\n      swap1\n        /* \"box/box_allocate.sol\":8481:8528  _metaBoxBalance[metaBytes][msg.sender].sub(cnt) */\n      swap2\n      swap1\n      0xffffffff\n      and\n      jump\t// in\n    tag_270:\n        /* \"box/box_allocate.sol\":8440:8455  _metaBoxBalance */\n      0x07\n        /* \"box/box_allocate.sol\":8456:8465  metaBytes */\n      dup5\n        /* \"box/box_allocate.sol\":8440:8466  _metaBoxBalance[metaBytes] */\n      mload(0x40)\n      tag_272\n      swap2\n      swap1\n      tag_188\n      jump\t// in\n    tag_272:\n      swap1\n      dup2\n      mstore\n      0x20\n      add\n      mload(0x40)\n      dup1\n      swap2\n      sub\n      swap1\n      keccak256\n        /* \"box/box_allocate.sol\":8440:8478  _metaBoxBalance[metaBytes][msg.sender] */\n      0x00\n        /* \"box/box_allocate.sol\":8467:8477  msg.sender */\n      caller\n        /* \"box/box_allocate.sol\":8440:8478  _metaBoxBalance[metaBytes][msg.sender] */\n      0xffffffffffffffffffffffffffffffffffffffff\n      and\n      0xffffffffffffffffffffffffffffffffffffffff\n      and\n      dup2\n      mstore\n      0x20\n      add\n      swap1\n      dup2\n      mstore\n      0x20\n      add\n      0x00\n      keccak256\n        /* \"box/box_allocate.sol\":8440:8528  _metaBoxBalance[metaBytes][msg.sender] = _metaBoxBalance[metaBytes][msg.sender].sub(cnt) */\n      dup2\n      swap1\n      sstore\n      pop\n        /* \"box/box_allocate.sol\":8546:8556  msg.sender */\n      caller\n        /* \"box/box_allocate.sol\":8538:8566  payable(msg.sender).transfer */\n      0xffffffffffffffffffffffffffffffffffffffff\n      and\n        /* \"box/box_allocate.sol\":8538:8593  payable(msg.sender).transfer(tradeTotalAmount.sub(fee)) */\n      0x08fc\n        /* \"box/box_allocate.sol\":8567:8592  tradeTotalAmount.sub(fee) */\n      tag_273\n        /* \"box/box_allocate.sol\":8588:8591  fee */\n      dup4\n        /* \"box/box_allocate.sol\":8567:8583  tradeTotalAmount */\n      dup6\n        /* \"box/box_allocate.sol\":8567:8587  tradeTotalAmount.sub */\n      tag_209\n      swap1\n        /* \"box/box_allocate.sol\":8567:8592  tradeTotalAmount.sub(fee) */\n      swap2\n      swap1\n      0xffffffff\n      and\n      jump\t// in\n    tag_273:\n        /* \"box/box_allocate.sol\":8538:8593  payable(msg.sender).transfer(tradeTotalAmount.sub(fee)) */\n      swap1\n      dup2\n      iszero\n      mul\n      swap1\n      mload(0x40)\n      0x00\n      mload(0x40)\n      dup1\n      dup4\n      sub\n      dup2\n      dup6\n      dup9\n      dup9\n      call\n      swap4\n      pop\n      pop\n      pop\n      pop\n      iszero\n      dup1\n      iszero\n      tag_275\n      jumpi\n      returndatasize\n      0x00\n      dup1\n      returndatacopy\n      revert(0x00, returndatasize)\n    tag_275:\n      pop\n        /* \"box/box_allocate.sol\":8617:8627  msg.sender */\n      caller\n        /* \"box/box_allocate.sol\":8608:8673  BoxTrade(msg.sender,meta,tradeTotalAmount,fee,TradeType.SELL,cnt) */\n      0xffffffffffffffffffffffffffffffffffffffff\n      and\n      0xcf59e98e3586000b5aa777c573f007017dc33d0e7aedc7fbde92cc1ce233f20c\n        /* \"box/box_allocate.sol\":8628:8632  meta */\n      dup7\n        /* \"box/box_allocate.sol\":8633:8649  tradeTotalAmount */\n      dup5\n        /* \"box/box_allocate.sol\":8650:8653  fee */\n      dup5\n        /* \"box/box_allocate.sol\":8654:8668  TradeType.SELL */\n      0x01\n        /* \"box/box_allocate.sol\":8669:8672  cnt */\n      dup10\n        /* \"box/box_allocate.sol\":8608:8673  BoxTrade(msg.sender,meta,tradeTotalAmount,fee,TradeType.SELL,cnt) */\n      mload(0x40)\n      tag_276\n      swap6\n      swap5\n      swap4\n      swap3\n      swap2\n      swap1\n      tag_277\n      jump\t// in\n    tag_276:\n      mload(0x40)\n      dup1\n      swap2\n      sub\n      swap1\n      log2\n        /* \"box/box_allocate.sol\":8148:8680  {... */\n      pop\n      pop\n      pop\n        /* \"box/box_allocate.sol\":8077:8680  function boxSell(string memory meta,uint256 cnt) external callerIsUser {... */\n      pop\n      pop\n      jump\t// out\n        /* \"box/box_allocate.sol\":3697:3842  function getBoxCnt(string memory meta,address ca) public view returns (uint256) {... */\n    tag_81:\n        /* \"box/box_allocate.sol\":3768:3775  uint256 */\n      0x00\n        /* \"box/box_allocate.sol\":3794:3809  _metaBoxBalance */\n      0x07\n        /* \"box/box_allocate.sol\":3810:3830  _stringToBytes(meta) */\n      tag_279\n        /* \"box/box_allocate.sol\":3825:3829  meta */\n      dup5\n        /* \"box/box_allocate.sol\":3810:3824  _stringToBytes */\n      tag_64\n        /* \"box/box_allocate.sol\":3810:3830  _stringToBytes(meta) */\n      jump\t// in\n    tag_279:\n        /* \"box/box_allocate.sol\":3794:3831  _metaBoxBalance[_stringToBytes(meta)] */\n      mload(0x40)\n      tag_280\n      swap2\n      swap1\n      tag_188\n      jump\t// in\n    tag_280:\n      swap1\n      dup2\n      mstore\n      0x20\n      add\n      mload(0x40)\n      dup1\n      swap2\n      sub\n      swap1\n      keccak256\n        /* \"box/box_allocate.sol\":3794:3835  _metaBoxBalance[_stringToBytes(meta)][ca] */\n      0x00\n        /* \"box/box_allocate.sol\":3832:3834  ca */\n      dup4\n        /* \"box/box_allocate.sol\":3794:3835  _metaBoxBalance[_stringToBytes(meta)][ca] */\n      0xffffffffffffffffffffffffffffffffffffffff\n      and\n      0xffffffffffffffffffffffffffffffffffffffff\n      and\n      dup2\n      mstore\n      0x20\n      add\n      swap1\n      dup2\n      mstore\n      0x20\n      add\n      0x00\n      keccak256\n      sload\n        /* \"box/box_allocate.sol\":3787:3835  return _metaBoxBalance[_stringToBytes(meta)][ca] */\n      swap1\n      pop\n        /* \"box/box_allocate.sol\":3697:3842  function getBoxCnt(string memory meta,address ca) public view returns (uint256) {... */\n      swap3\n      swap2\n      pop\n      pop\n      jump\t// out\n        /* \"box/box_allocate.sol\":1270:1305  uint256 public BOX_PLATFORM_FEE = 2 */\n    tag_85:\n      sload(0x03)\n      dup2\n      jump\t// out\n        /* \"box/box_allocate.sol\":988:1034  uint256 public constant PER_BOX_PRICE = 10**16 */\n    tag_89:\n        /* \"box/box_allocate.sol\":1028:1034  10**16 */\n      0x2386f26fc10000\n        /* \"box/box_allocate.sol\":988:1034  uint256 public constant PER_BOX_PRICE = 10**16 */\n      dup2\n      jump\t// out\n        /* \"box/box_allocate.sol\":4144:4436  function getSellAmount(string memory meta,uint256 cnt) external callerIsUser view returns(uint256,uint256){... */\n    tag_94:\n        /* \"box/box_allocate.sol\":4234:4241  uint256 */\n      0x00\n        /* \"box/box_allocate.sol\":4242:4249  uint256 */\n      dup1\n        /* \"box/box_allocate.sol\":2593:2603  msg.sender */\n      caller\n        /* \"box/box_allocate.sol\":2580:2603  tx.origin == msg.sender */\n      0xffffffffffffffffffffffffffffffffffffffff\n      and\n        /* \"box/box_allocate.sol\":2580:2589  tx.origin */\n      origin\n        /* \"box/box_allocate.sol\":2580:2603  tx.origin == msg.sender */\n      0xffffffffffffffffffffffffffffffffffffffff\n      and\n      eq\n        /* \"box/box_allocate.sol\":2572:2638  require(tx.origin == msg.sender, \"The caller is another contract\") */\n      tag_282\n      jumpi\n      mload(0x40)\n      0x08c379a000000000000000000000000000000000000000000000000000000000\n      dup2\n      mstore\n      0x04\n      add\n      tag_283\n      swap1\n      tag_184\n      jump\t// in\n    tag_283:\n      mload(0x40)\n      dup1\n      swap2\n      sub\n      swap1\n      revert\n    tag_282:\n        /* \"box/box_allocate.sol\":4260:4282  bytes memory metaBytes */\n      0x00\n        /* \"box/box_allocate.sol\":4285:4305  _stringToBytes(meta) */\n      tag_285\n        /* \"box/box_allocate.sol\":4300:4304  meta */\n      dup6\n        /* \"box/box_allocate.sol\":4285:4299  _stringToBytes */\n      tag_64\n        /* \"box/box_allocate.sol\":4285:4305  _stringToBytes(meta) */\n      jump\t// in\n    tag_285:\n        /* \"box/box_allocate.sol\":4260:4305  bytes memory metaBytes = _stringToBytes(meta) */\n      swap1\n      pop\n        /* \"box/box_allocate.sol\":4316:4340  uint256 tradeTotalAmount */\n      0x00\n        /* \"box/box_allocate.sol\":4341:4352  uint256 fee */\n      dup1\n        /* \"box/box_allocate.sol\":4356:4390  calculateSellAmount(metaBytes,cnt) */\n      tag_286\n        /* \"box/box_allocate.sol\":4376:4385  metaBytes */\n      dup4\n        /* \"box/box_allocate.sol\":4386:4389  cnt */\n      dup8\n        /* \"box/box_allocate.sol\":4356:4375  calculateSellAmount */\n      tag_269\n        /* \"box/box_allocate.sol\":4356:4390  calculateSellAmount(metaBytes,cnt) */\n      jump\t// in\n    tag_286:\n        /* \"box/box_allocate.sol\":4315:4390  (uint256 tradeTotalAmount,uint256 fee) = calculateSellAmount(metaBytes,cnt) */\n      swap2\n      pop\n      swap2\n      pop\n        /* \"box/box_allocate.sol\":4408:4424  tradeTotalAmount */\n      dup2\n        /* \"box/box_allocate.sol\":4425:4428  fee */\n      dup2\n        /* \"box/box_allocate.sol\":4400:4429  return (tradeTotalAmount,fee) */\n      swap5\n      pop\n      swap5\n      pop\n      pop\n      pop\n      pop\n        /* \"box/box_allocate.sol\":4144:4436  function getSellAmount(string memory meta,uint256 cnt) external callerIsUser view returns(uint256,uint256){... */\n      swap3\n      pop\n      swap3\n      swap1\n      pop\n      jump\t// out\n        /* \"box/box_allocate.sol\":1145:1187  uint256 public constant BOX_SALE_CNT = 100 */\n    tag_99:\n        /* \"box/box_allocate.sol\":1184:1187  100 */\n      0x64\n        /* \"box/box_allocate.sol\":1145:1187  uint256 public constant BOX_SALE_CNT = 100 */\n      dup2\n      jump\t// out\n        /* \"box/box_allocate.sol\":3114:3453  function setBoxPrice(BoxPrice[] memory box_prices) external onlyOwner {... */\n    tag_105:\n        /* \"@openzeppelin/contracts/access/Ownable.sol\":1531:1544  _checkOwner() */\n      tag_288\n        /* \"@openzeppelin/contracts/access/Ownable.sol\":1531:1542  _checkOwner */\n      tag_214\n        /* \"@openzeppelin/contracts/access/Ownable.sol\":1531:1544  _checkOwner() */\n      jump\t// in\n    tag_288:\n        /* \"box/box_allocate.sol\":3199:3205  uint i */\n      0x00\n        /* \"box/box_allocate.sol\":3194:3447  for (uint i = 0; i < box_prices.length; i++) {... */\n    tag_290:\n        /* \"box/box_allocate.sol\":3215:3225  box_prices */\n      dup2\n        /* \"box/box_allocate.sol\":3215:3232  box_prices.length */\n      mload\n        /* \"box/box_allocate.sol\":3211:3212  i */\n      dup2\n        /* \"box/box_allocate.sol\":3211:3232  i < box_prices.length */\n      lt\n        /* \"box/box_allocate.sol\":3194:3447  for (uint i = 0; i < box_prices.length; i++) {... */\n      iszero\n      tag_291\n      jumpi\n        /* \"box/box_allocate.sol\":3253:3278  BoxPrice memory box_price */\n      0x00\n        /* \"box/box_allocate.sol\":3281:3291  box_prices */\n      dup3\n        /* \"box/box_allocate.sol\":3292:3293  i */\n      dup3\n        /* \"box/box_allocate.sol\":3281:3294  box_prices[i] */\n      dup2\n      mload\n      dup2\n      lt\n      tag_293\n      jumpi\n      tag_294\n      tag_224\n      jump\t// in\n    tag_294:\n    tag_293:\n      0x20\n      mul\n      0x20\n      add\n      add\n      mload\n        /* \"box/box_allocate.sol\":3253:3294  BoxPrice memory box_price = box_prices[i] */\n      swap1\n      pop\n        /* \"box/box_allocate.sol\":3331:3334  100 */\n      0x64\n        /* \"box/box_allocate.sol\":3312:3321  box_price */\n      dup2\n        /* \"box/box_allocate.sol\":3312:3328  box_price.boxCnt */\n      0x00\n      add\n      mload\n        /* \"box/box_allocate.sol\":3312:3334  box_price.boxCnt > 100 */\n      gt\n        /* \"box/box_allocate.sol\":3312:3357  box_price.boxCnt > 100 && box_price.price > 0 */\n      dup1\n      iszero\n      tag_295\n      jumpi\n      pop\n        /* \"box/box_allocate.sol\":3356:3357  0 */\n      0x00\n        /* \"box/box_allocate.sol\":3338:3347  box_price */\n      dup2\n        /* \"box/box_allocate.sol\":3338:3353  box_price.price */\n      0x20\n      add\n      mload\n        /* \"box/box_allocate.sol\":3338:3357  box_price.price > 0 */\n      gt\n        /* \"box/box_allocate.sol\":3312:3357  box_price.boxCnt > 100 && box_price.price > 0 */\n    tag_295:\n        /* \"box/box_allocate.sol\":3308:3437  if (box_price.boxCnt > 100 && box_price.price > 0){... */\n      iszero\n      tag_296\n      jumpi\n        /* \"box/box_allocate.sol\":3407:3416  box_price */\n      dup1\n        /* \"box/box_allocate.sol\":3407:3422  box_price.price */\n      0x20\n      add\n      mload\n        /* \"box/box_allocate.sol\":3376:3386  _boxPrices */\n      0x0a\n        /* \"box/box_allocate.sol\":3376:3404  _boxPrices[box_price.boxCnt] */\n      0x00\n        /* \"box/box_allocate.sol\":3387:3396  box_price */\n      dup4\n        /* \"box/box_allocate.sol\":3387:3403  box_price.boxCnt */\n      0x00\n      add\n      mload\n        /* \"box/box_allocate.sol\":3376:3404  _boxPrices[box_price.boxCnt] */\n      dup2\n      mstore\n      0x20\n      add\n      swap1\n      dup2\n      mstore\n      0x20\n      add\n      0x00\n      keccak256\n        /* \"box/box_allocate.sol\":3376:3422  _boxPrices[box_price.boxCnt] = box_price.price */\n      dup2\n      swap1\n      sstore\n      pop\n        /* \"box/box_allocate.sol\":3308:3437  if (box_price.boxCnt > 100 && box_price.price > 0){... */\n    tag_296:\n        /* \"box/box_allocate.sol\":3239:3447  {... */\n      pop\n        /* \"box/box_allocate.sol\":3234:3237  i++ */\n      dup1\n      dup1\n      tag_297\n      swap1\n      tag_246\n      jump\t// in\n    tag_297:\n      swap2\n      pop\n      pop\n        /* \"box/box_allocate.sol\":3194:3447  for (uint i = 0; i < box_prices.length; i++) {... */\n      jump(tag_290)\n    tag_291:\n      pop\n        /* \"box/box_allocate.sol\":3114:3453  function setBoxPrice(BoxPrice[] memory box_prices) external onlyOwner {... */\n      pop\n      jump\t// out\n        /* \"box/box_allocate.sol\":1678:1723  mapping(uint256 => uint256) public _boxPrices */\n    tag_110:\n      mstore(0x20, 0x0a)\n      dup1\n      0x00\n      mstore\n      keccak256(0x00, 0x40)\n      0x00\n      swap2\n      pop\n      swap1\n      pop\n      sload\n      dup2\n      jump\t// out\n        /* \"@openzeppelin/contracts/access/Ownable.sol\":2293:2394  function renounceOwnership() public virtual onlyOwner {... */\n    tag_114:\n        /* \"@openzeppelin/contracts/access/Ownable.sol\":1531:1544  _checkOwner() */\n      tag_299\n        /* \"@openzeppelin/contracts/access/Ownable.sol\":1531:1542  _checkOwner */\n      tag_214\n        /* \"@openzeppelin/contracts/access/Ownable.sol\":1531:1544  _checkOwner() */\n      jump\t// in\n    tag_299:\n        /* \"@openzeppelin/contracts/access/Ownable.sol\":2357:2387  _transferOwnership(address(0)) */\n      tag_301\n        /* \"@openzeppelin/contracts/access/Ownable.sol\":2384:2385  0 */\n      0x00\n        /* \"@openzeppelin/contracts/access/Ownable.sol\":2357:2375  _transferOwnership */\n      tag_302\n        /* \"@openzeppelin/contracts/access/Ownable.sol\":2357:2387  _transferOwnership(address(0)) */\n      jump\t// in\n    tag_301:\n        /* \"@openzeppelin/contracts/access/Ownable.sol\":2293:2394  function renounceOwnership() public virtual onlyOwner {... */\n      jump\t// out\n        /* \"box/box_allocate.sol\":1397:1467  address public _signOwner = 0x96216849c49358B10257cb55b28eA603c874b05E */\n    tag_117:\n      0x06\n      0x00\n      swap1\n      sload\n      swap1\n      0x0100\n      exp\n      swap1\n      div\n      0xffffffffffffffffffffffffffffffffffffffff\n      and\n      dup2\n      jump\t// out\n        /* \"box/box_allocate.sol\":1090:1139  uint256 public constant BOX_SALE_PERIOD = 3600*48 */\n    tag_122:\n        /* \"box/box_allocate.sol\":1132:1139  3600*48 */\n      0x02a300\n        /* \"box/box_allocate.sol\":1090:1139  uint256 public constant BOX_SALE_PERIOD = 3600*48 */\n      dup2\n      jump\t// out\n        /* \"box/box_allocate.sol\":8686:9084  function boxClaim(string memory meta) external callerIsUser {... */\n    tag_127:\n        /* \"box/box_allocate.sol\":2593:2603  msg.sender */\n      caller\n        /* \"box/box_allocate.sol\":2580:2603  tx.origin == msg.sender */\n      0xffffffffffffffffffffffffffffffffffffffff\n      and\n        /* \"box/box_allocate.sol\":2580:2589  tx.origin */\n      origin\n        /* \"box/box_allocate.sol\":2580:2603  tx.origin == msg.sender */\n      0xffffffffffffffffffffffffffffffffffffffff\n      and\n      eq\n        /* \"box/box_allocate.sol\":2572:2638  require(tx.origin == msg.sender, \"The caller is another contract\") */\n      tag_304\n      jumpi\n      mload(0x40)\n      0x08c379a000000000000000000000000000000000000000000000000000000000\n      dup2\n      mstore\n      0x04\n      add\n      tag_305\n      swap1\n      tag_184\n      jump\t// in\n    tag_305:\n      mload(0x40)\n      dup1\n      swap2\n      sub\n      swap1\n      revert\n    tag_304:\n        /* \"box/box_allocate.sol\":8756:8778  bytes memory metaBytes */\n      0x00\n        /* \"box/box_allocate.sol\":8781:8801  _stringToBytes(meta) */\n      tag_307\n        /* \"box/box_allocate.sol\":8796:8800  meta */\n      dup3\n        /* \"box/box_allocate.sol\":8781:8795  _stringToBytes */\n      tag_64\n        /* \"box/box_allocate.sol\":8781:8801  _stringToBytes(meta) */\n      jump\t// in\n    tag_307:\n        /* \"box/box_allocate.sol\":8756:8801  bytes memory metaBytes = _stringToBytes(meta) */\n      swap1\n      pop\n        /* \"box/box_allocate.sol\":8811:8824  uint256 claim */\n      0x00\n        /* \"box/box_allocate.sol\":8827:8838  _boxFeeMeta */\n      0x0b\n        /* \"box/box_allocate.sol\":8839:8848  metaBytes */\n      dup3\n        /* \"box/box_allocate.sol\":8827:8849  _boxFeeMeta[metaBytes] */\n      mload(0x40)\n      tag_308\n      swap2\n      swap1\n      tag_188\n      jump\t// in\n    tag_308:\n      swap1\n      dup2\n      mstore\n      0x20\n      add\n      mload(0x40)\n      dup1\n      swap2\n      sub\n      swap1\n      keccak256\n        /* \"box/box_allocate.sol\":8827:8859  _boxFeeMeta[metaBytes].boxClaims */\n      0x02\n      add\n        /* \"box/box_allocate.sol\":8827:8871  _boxFeeMeta[metaBytes].boxClaims[msg.sender] */\n      0x00\n        /* \"box/box_allocate.sol\":8860:8870  msg.sender */\n      caller\n        /* \"box/box_allocate.sol\":8827:8871  _boxFeeMeta[metaBytes].boxClaims[msg.sender] */\n      0xffffffffffffffffffffffffffffffffffffffff\n      and\n      0xffffffffffffffffffffffffffffffffffffffff\n      and\n      dup2\n      mstore\n      0x20\n      add\n      swap1\n      dup2\n      mstore\n      0x20\n      add\n      0x00\n      keccak256\n      sload\n        /* \"box/box_allocate.sol\":8811:8871  uint256 claim = _boxFeeMeta[metaBytes].boxClaims[msg.sender] */\n      swap1\n      pop\n        /* \"box/box_allocate.sol\":8898:8899  0 */\n      0x00\n        /* \"box/box_allocate.sol\":8889:8894  claim */\n      dup2\n        /* \"box/box_allocate.sol\":8889:8899  claim >= 0 */\n      lt\n      iszero\n        /* \"box/box_allocate.sol\":8881:8928  require(claim >= 0,\"Insufficient claim amount\") */\n      tag_309\n      jumpi\n      mload(0x40)\n      0x08c379a000000000000000000000000000000000000000000000000000000000\n      dup2\n      mstore\n      0x04\n      add\n      tag_310\n      swap1\n      tag_311\n      jump\t// in\n    tag_310:\n      mload(0x40)\n      dup1\n      swap2\n      sub\n      swap1\n      revert\n    tag_309:\n        /* \"box/box_allocate.sol\":8985:8986  0 */\n      0x00\n        /* \"box/box_allocate.sol\":8938:8949  _boxFeeMeta */\n      0x0b\n        /* \"box/box_allocate.sol\":8950:8959  metaBytes */\n      dup4\n        /* \"box/box_allocate.sol\":8938:8960  _boxFeeMeta[metaBytes] */\n      mload(0x40)\n      tag_312\n      swap2\n      swap1\n      tag_188\n      jump\t// in\n    tag_312:\n      swap1\n      dup2\n      mstore\n      0x20\n      add\n      mload(0x40)\n      dup1\n      swap2\n      sub\n      swap1\n      keccak256\n        /* \"box/box_allocate.sol\":8938:8970  _boxFeeMeta[metaBytes].boxClaims */\n      0x02\n      add\n        /* \"box/box_allocate.sol\":8938:8982  _boxFeeMeta[metaBytes].boxClaims[msg.sender] */\n      0x00\n        /* \"box/box_allocate.sol\":8971:8981  msg.sender */\n      caller\n        /* \"box/box_allocate.sol\":8938:8982  _boxFeeMeta[metaBytes].boxClaims[msg.sender] */\n      0xffffffffffffffffffffffffffffffffffffffff\n      and\n      0xffffffffffffffffffffffffffffffffffffffff\n      and\n      dup2\n      mstore\n      0x20\n      add\n      swap1\n      dup2\n      mstore\n      0x20\n      add\n      0x00\n      keccak256\n        /* \"box/box_allocate.sol\":8938:8986  _boxFeeMeta[metaBytes].boxClaims[msg.sender] = 0 */\n      dup2\n      swap1\n      sstore\n      pop\n        /* \"box/box_allocate.sol\":9004:9014  msg.sender */\n      caller\n        /* \"box/box_allocate.sol\":8996:9024  payable(msg.sender).transfer */\n      0xffffffffffffffffffffffffffffffffffffffff\n      and\n        /* \"box/box_allocate.sol\":8996:9031  payable(msg.sender).transfer(claim) */\n      0x08fc\n        /* \"box/box_allocate.sol\":9025:9030  claim */\n      dup3\n        /* \"box/box_allocate.sol\":8996:9031  payable(msg.sender).transfer(claim) */\n      swap1\n      dup2\n      iszero\n      mul\n      swap1\n      mload(0x40)\n      0x00\n      mload(0x40)\n      dup1\n      dup4\n      sub\n      dup2\n      dup6\n      dup9\n      dup9\n      call\n      swap4\n      pop\n      pop\n      pop\n      pop\n      iszero\n      dup1\n      iszero\n      tag_314\n      jumpi\n      returndatasize\n      0x00\n      dup1\n      returndatacopy\n      revert(0x00, returndatasize)\n    tag_314:\n      pop\n        /* \"box/box_allocate.sol\":9055:9065  msg.sender */\n      caller\n        /* \"box/box_allocate.sol\":9046:9077  BoxClaim(msg.sender,meta,claim) */\n      0xffffffffffffffffffffffffffffffffffffffff\n      and\n      0x26d73e0951876a99aa7c7d086fccb9e7068f2d9f938edc04f8a3c8006222ed30\n        /* \"box/box_allocate.sol\":9066:9070  meta */\n      dup5\n        /* \"box/box_allocate.sol\":9071:9076  claim */\n      dup4\n        /* \"box/box_allocate.sol\":9046:9077  BoxClaim(msg.sender,meta,claim) */\n      mload(0x40)\n      tag_315\n      swap3\n      swap2\n      swap1\n      tag_244\n      jump\t// in\n    tag_315:\n      mload(0x40)\n      dup1\n      swap2\n      sub\n      swap1\n      log2\n        /* \"box/box_allocate.sol\":8746:9084  {... */\n      pop\n      pop\n        /* \"box/box_allocate.sol\":8686:9084  function boxClaim(string memory meta) external callerIsUser {... */\n      pop\n      jump\t// out\n        /* \"@openzeppelin/contracts/access/Ownable.sol\":1638:1723  function owner() public view virtual returns (address) {... */\n    tag_130:\n        /* \"@openzeppelin/contracts/access/Ownable.sol\":1684:1691  address */\n      0x00\n        /* \"@openzeppelin/contracts/access/Ownable.sol\":1710:1716  _owner */\n      dup1\n      0x00\n      swap1\n      sload\n      swap1\n      0x0100\n      exp\n      swap1\n      div\n      0xffffffffffffffffffffffffffffffffffffffff\n      and\n        /* \"@openzeppelin/contracts/access/Ownable.sol\":1703:1716  return _owner */\n      swap1\n      pop\n        /* \"@openzeppelin/contracts/access/Ownable.sol\":1638:1723  function owner() public view virtual returns (address) {... */\n      swap1\n      jump\t// out\n        /* \"box/box_allocate.sol\":7341:8071  function boxBuy(string memory meta,uint256 cnt) external payable callerIsUser {... */\n    tag_134:\n        /* \"box/box_allocate.sol\":2593:2603  msg.sender */\n      caller\n        /* \"box/box_allocate.sol\":2580:2603  tx.origin == msg.sender */\n      0xffffffffffffffffffffffffffffffffffffffff\n      and\n        /* \"box/box_allocate.sol\":2580:2589  tx.origin */\n      origin\n        /* \"box/box_allocate.sol\":2580:2603  tx.origin == msg.sender */\n      0xffffffffffffffffffffffffffffffffffffffff\n      and\n      eq\n        /* \"box/box_allocate.sol\":2572:2638  require(tx.origin == msg.sender, \"The caller is another contract\") */\n      tag_318\n      jumpi\n      mload(0x40)\n      0x08c379a000000000000000000000000000000000000000000000000000000000\n      dup2\n      mstore\n      0x04\n      add\n      tag_319\n      swap1\n      tag_184\n      jump\t// in\n    tag_319:\n      mload(0x40)\n      dup1\n      swap2\n      sub\n      swap1\n      revert\n    tag_318:\n        /* \"box/box_allocate.sol\":7443:7444  0 */\n      0x00\n        /* \"box/box_allocate.sol\":7437:7440  cnt */\n      dup2\n        /* \"box/box_allocate.sol\":7437:7444  cnt > 0 */\n      gt\n        /* \"box/box_allocate.sol\":7429:7468  require(cnt > 0,\"Insufficient Box cnt\") */\n      tag_321\n      jumpi\n      mload(0x40)\n      0x08c379a000000000000000000000000000000000000000000000000000000000\n      dup2\n      mstore\n      0x04\n      add\n      tag_322\n      swap1\n      tag_262\n      jump\t// in\n    tag_322:\n      mload(0x40)\n      dup1\n      swap2\n      sub\n      swap1\n      revert\n    tag_321:\n        /* \"box/box_allocate.sol\":7478:7500  bytes memory metaBytes */\n      0x00\n        /* \"box/box_allocate.sol\":7503:7523  _stringToBytes(meta) */\n      tag_323\n        /* \"box/box_allocate.sol\":7518:7522  meta */\n      dup4\n        /* \"box/box_allocate.sol\":7503:7517  _stringToBytes */\n      tag_64\n        /* \"box/box_allocate.sol\":7503:7523  _stringToBytes(meta) */\n      jump\t// in\n    tag_323:\n        /* \"box/box_allocate.sol\":7478:7523  bytes memory metaBytes = _stringToBytes(meta) */\n      swap1\n      pop\n        /* \"box/box_allocate.sol\":7534:7558  uint256 tradeTotalAmount */\n      0x00\n        /* \"box/box_allocate.sol\":7560:7571  uint256 fee */\n      dup1\n        /* \"box/box_allocate.sol\":7576:7609  calculateBuyAmount(metaBytes,cnt) */\n      tag_324\n        /* \"box/box_allocate.sol\":7595:7604  metaBytes */\n      dup4\n        /* \"box/box_allocate.sol\":7605:7608  cnt */\n      dup6\n        /* \"box/box_allocate.sol\":7576:7594  calculateBuyAmount */\n      tag_325\n        /* \"box/box_allocate.sol\":7576:7609  calculateBuyAmount(metaBytes,cnt) */\n      jump\t// in\n    tag_324:\n        /* \"box/box_allocate.sol\":7533:7609  (uint256 tradeTotalAmount, uint256 fee)  = calculateBuyAmount(metaBytes,cnt) */\n      swap2\n      pop\n      swap2\n      pop\n        /* \"box/box_allocate.sol\":7640:7665  tradeTotalAmount.add(fee) */\n      tag_326\n        /* \"box/box_allocate.sol\":7661:7664  fee */\n      dup2\n        /* \"box/box_allocate.sol\":7640:7656  tradeTotalAmount */\n      dup4\n        /* \"box/box_allocate.sol\":7640:7660  tradeTotalAmount.add */\n      tag_198\n      swap1\n        /* \"box/box_allocate.sol\":7640:7665  tradeTotalAmount.add(fee) */\n      swap2\n      swap1\n      0xffffffff\n      and\n      jump\t// in\n    tag_326:\n        /* \"box/box_allocate.sol\":7627:7636  msg.value */\n      callvalue\n        /* \"box/box_allocate.sol\":7627:7665  msg.value >= tradeTotalAmount.add(fee) */\n      lt\n      iszero\n        /* \"box/box_allocate.sol\":7619:7692  require(msg.value >= tradeTotalAmount.add(fee),\"Insufficient pay amount\") */\n      tag_327\n      jumpi\n      mload(0x40)\n      0x08c379a000000000000000000000000000000000000000000000000000000000\n      dup2\n      mstore\n      0x04\n      add\n      tag_328\n      swap1\n      tag_329\n      jump\t// in\n    tag_328:\n      mload(0x40)\n      dup1\n      swap2\n      sub\n      swap1\n      revert\n    tag_327:\n        /* \"box/box_allocate.sol\":7718:7743  tradeTotalAmount.add(fee) */\n      tag_330\n        /* \"box/box_allocate.sol\":7739:7742  fee */\n      dup2\n        /* \"box/box_allocate.sol\":7718:7734  tradeTotalAmount */\n      dup4\n        /* \"box/box_allocate.sol\":7718:7738  tradeTotalAmount.add */\n      tag_198\n      swap1\n        /* \"box/box_allocate.sol\":7718:7743  tradeTotalAmount.add(fee) */\n      swap2\n      swap1\n      0xffffffff\n      and\n      jump\t// in\n    tag_330:\n        /* \"box/box_allocate.sol\":7706:7715  msg.value */\n      callvalue\n        /* \"box/box_allocate.sol\":7706:7743  msg.value > tradeTotalAmount.add(fee) */\n      gt\n        /* \"box/box_allocate.sol\":7702:7840  if (msg.value > tradeTotalAmount.add(fee)) {... */\n      iszero\n      tag_331\n      jumpi\n        /* \"box/box_allocate.sol\":7767:7777  msg.sender */\n      caller\n        /* \"box/box_allocate.sol\":7759:7787  payable(msg.sender).transfer */\n      0xffffffffffffffffffffffffffffffffffffffff\n      and\n        /* \"box/box_allocate.sol\":7759:7829  payable(msg.sender).transfer(msg.value.sub(tradeTotalAmount.add(fee))) */\n      0x08fc\n        /* \"box/box_allocate.sol\":7788:7828  msg.value.sub(tradeTotalAmount.add(fee)) */\n      tag_332\n        /* \"box/box_allocate.sol\":7802:7827  tradeTotalAmount.add(fee) */\n      tag_333\n        /* \"box/box_allocate.sol\":7823:7826  fee */\n      dup5\n        /* \"box/box_allocate.sol\":7802:7818  tradeTotalAmount */\n      dup7\n        /* \"box/box_allocate.sol\":7802:7822  tradeTotalAmount.add */\n      tag_198\n      swap1\n        /* \"box/box_allocate.sol\":7802:7827  tradeTotalAmount.add(fee) */\n      swap2\n      swap1\n      0xffffffff\n      and\n      jump\t// in\n    tag_333:\n        /* \"box/box_allocate.sol\":7788:7797  msg.value */\n      callvalue\n        /* \"box/box_allocate.sol\":7788:7801  msg.value.sub */\n      tag_209\n      swap1\n        /* \"box/box_allocate.sol\":7788:7828  msg.value.sub(tradeTotalAmount.add(fee)) */\n      swap2\n      swap1\n      0xffffffff\n      and\n      jump\t// in\n    tag_332:\n        /* \"box/box_allocate.sol\":7759:7829  payable(msg.sender).transfer(msg.value.sub(tradeTotalAmount.add(fee))) */\n      swap1\n      dup2\n      iszero\n      mul\n      swap1\n      mload(0x40)\n      0x00\n      mload(0x40)\n      dup1\n      dup4\n      sub\n      dup2\n      dup6\n      dup9\n      dup9\n      call\n      swap4\n      pop\n      pop\n      pop\n      pop\n      iszero\n      dup1\n      iszero\n      tag_335\n      jumpi\n      returndatasize\n      0x00\n      dup1\n      returndatacopy\n      revert(0x00, returndatasize)\n    tag_335:\n      pop\n        /* \"box/box_allocate.sol\":7702:7840  if (msg.value > tradeTotalAmount.add(fee)) {... */\n    tag_331:\n        /* \"box/box_allocate.sol\":7849:7887  pushAddressArray(metaBytes,msg.sender) */\n      tag_336\n        /* \"box/box_allocate.sol\":7866:7875  metaBytes */\n      dup4\n        /* \"box/box_allocate.sol\":7876:7886  msg.sender */\n      caller\n        /* \"box/box_allocate.sol\":7849:7865  pushAddressArray */\n      tag_237\n        /* \"box/box_allocate.sol\":7849:7887  pushAddressArray(metaBytes,msg.sender) */\n      jump\t// in\n    tag_336:\n        /* \"box/box_allocate.sol\":7938:7985  _metaBoxBalance[metaBytes][msg.sender].add(cnt) */\n      tag_337\n        /* \"box/box_allocate.sol\":7981:7984  cnt */\n      dup5\n        /* \"box/box_allocate.sol\":7938:7953  _metaBoxBalance */\n      0x07\n        /* \"box/box_allocate.sol\":7954:7963  metaBytes */\n      dup6\n        /* \"box/box_allocate.sol\":7938:7964  _metaBoxBalance[metaBytes] */\n      mload(0x40)\n      tag_338\n      swap2\n      swap1\n      tag_188\n      jump\t// in\n    tag_338:\n      swap1\n      dup2\n      mstore\n      0x20\n      add\n      mload(0x40)\n      dup1\n      swap2\n      sub\n      swap1\n      keccak256\n        /* \"box/box_allocate.sol\":7938:7976  _metaBoxBalance[metaBytes][msg.sender] */\n      0x00\n        /* \"box/box_allocate.sol\":7965:7975  msg.sender */\n      caller\n        /* \"box/box_allocate.sol\":7938:7976  _metaBoxBalance[metaBytes][msg.sender] */\n      0xffffffffffffffffffffffffffffffffffffffff\n      and\n      0xffffffffffffffffffffffffffffffffffffffff\n      and\n      dup2\n      mstore\n      0x20\n      add\n      swap1\n      dup2\n      mstore\n      0x20\n      add\n      0x00\n      keccak256\n      sload\n        /* \"box/box_allocate.sol\":7938:7980  _metaBoxBalance[metaBytes][msg.sender].add */\n      tag_198\n      swap1\n        /* \"box/box_allocate.sol\":7938:7985  _metaBoxBalance[metaBytes][msg.sender].add(cnt) */\n      swap2\n      swap1\n      0xffffffff\n      and\n      jump\t// in\n    tag_337:\n        /* \"box/box_allocate.sol\":7897:7912  _metaBoxBalance */\n      0x07\n        /* \"box/box_allocate.sol\":7913:7922  metaBytes */\n      dup5\n        /* \"box/box_allocate.sol\":7897:7923  _metaBoxBalance[metaBytes] */\n      mload(0x40)\n      tag_339\n      swap2\n      swap1\n      tag_188\n      jump\t// in\n    tag_339:\n      swap1\n      dup2\n      mstore\n      0x20\n      add\n      mload(0x40)\n      dup1\n      swap2\n      sub\n      swap1\n      keccak256\n        /* \"box/box_allocate.sol\":7897:7935  _metaBoxBalance[metaBytes][msg.sender] */\n      0x00\n        /* \"box/box_allocate.sol\":7924:7934  msg.sender */\n      caller\n        /* \"box/box_allocate.sol\":7897:7935  _metaBoxBalance[metaBytes][msg.sender] */\n      0xffffffffffffffffffffffffffffffffffffffff\n      and\n      0xffffffffffffffffffffffffffffffffffffffff\n      and\n      dup2\n      mstore\n      0x20\n      add\n      swap1\n      dup2\n      mstore\n      0x20\n      add\n      0x00\n      keccak256\n        /* \"box/box_allocate.sol\":7897:7985  _metaBoxBalance[metaBytes][msg.sender] = _metaBoxBalance[metaBytes][msg.sender].add(cnt) */\n      dup2\n      swap1\n      sstore\n      pop\n        /* \"box/box_allocate.sol\":8009:8019  msg.sender */\n      caller\n        /* \"box/box_allocate.sol\":8000:8064  BoxTrade(msg.sender,meta,tradeTotalAmount,fee,TradeType.BUY,cnt) */\n      0xffffffffffffffffffffffffffffffffffffffff\n      and\n      0xcf59e98e3586000b5aa777c573f007017dc33d0e7aedc7fbde92cc1ce233f20c\n        /* \"box/box_allocate.sol\":8020:8024  meta */\n      dup7\n        /* \"box/box_allocate.sol\":8025:8041  tradeTotalAmount */\n      dup5\n        /* \"box/box_allocate.sol\":8042:8045  fee */\n      dup5\n        /* \"box/box_allocate.sol\":8046:8059  TradeType.BUY */\n      0x00\n        /* \"box/box_allocate.sol\":8060:8063  cnt */\n      dup10\n        /* \"box/box_allocate.sol\":8000:8064  BoxTrade(msg.sender,meta,tradeTotalAmount,fee,TradeType.BUY,cnt) */\n      mload(0x40)\n      tag_340\n      swap6\n      swap5\n      swap4\n      swap3\n      swap2\n      swap1\n      tag_277\n      jump\t// in\n    tag_340:\n      mload(0x40)\n      dup1\n      swap2\n      sub\n      swap1\n      log2\n        /* \"box/box_allocate.sol\":7419:8071  {... */\n      pop\n      pop\n      pop\n        /* \"box/box_allocate.sol\":7341:8071  function boxBuy(string memory meta,uint256 cnt) external payable callerIsUser {... */\n      pop\n      pop\n      jump\t// out\n        /* \"box/box_allocate.sol\":4442:5178  function startBox(string memory meta, bytes memory signature) external callerIsUser {... */\n    tag_139:\n        /* \"box/box_allocate.sol\":2593:2603  msg.sender */\n      caller\n        /* \"box/box_allocate.sol\":2580:2603  tx.origin == msg.sender */\n      0xffffffffffffffffffffffffffffffffffffffff\n      and\n        /* \"box/box_allocate.sol\":2580:2589  tx.origin */\n      origin\n        /* \"box/box_allocate.sol\":2580:2603  tx.origin == msg.sender */\n      0xffffffffffffffffffffffffffffffffffffffff\n      and\n      eq\n        /* \"box/box_allocate.sol\":2572:2638  require(tx.origin == msg.sender, \"The caller is another contract\") */\n      tag_342\n      jumpi\n      mload(0x40)\n      0x08c379a000000000000000000000000000000000000000000000000000000000\n      dup2\n      mstore\n      0x04\n      add\n      tag_343\n      swap1\n      tag_184\n      jump\t// in\n    tag_343:\n      mload(0x40)\n      dup1\n      swap2\n      sub\n      swap1\n      revert\n    tag_342:\n        /* \"box/box_allocate.sol\":4536:4558  bytes memory metaBytes */\n      0x00\n        /* \"box/box_allocate.sol\":4561:4581  _stringToBytes(meta) */\n      tag_345\n        /* \"box/box_allocate.sol\":4576:4580  meta */\n      dup4\n        /* \"box/box_allocate.sol\":4561:4575  _stringToBytes */\n      tag_64\n        /* \"box/box_allocate.sol\":4561:4581  _stringToBytes(meta) */\n      jump\t// in\n    tag_345:\n        /* \"box/box_allocate.sol\":4536:4581  bytes memory metaBytes = _stringToBytes(meta) */\n      swap1\n      pop\n        /* \"box/box_allocate.sol\":4634:4635  0 */\n      0x00\n        /* \"box/box_allocate.sol\":4599:4608  _metaBoxs */\n      0x08\n        /* \"box/box_allocate.sol\":4609:4618  metaBytes */\n      dup3\n        /* \"box/box_allocate.sol\":4599:4619  _metaBoxs[metaBytes] */\n      mload(0x40)\n      tag_346\n      swap2\n      swap1\n      tag_188\n      jump\t// in\n    tag_346:\n      swap1\n      dup2\n      mstore\n      0x20\n      add\n      mload(0x40)\n      dup1\n      swap2\n      sub\n      swap1\n      keccak256\n        /* \"box/box_allocate.sol\":4599:4630  _metaBoxs[metaBytes].expireTime */\n      0x01\n      add\n      sload\n        /* \"box/box_allocate.sol\":4599:4635  _metaBoxs[metaBytes].expireTime == 0 */\n      eq\n        /* \"box/box_allocate.sol\":4591:4654  require(_metaBoxs[metaBytes].expireTime == 0, \"The meta exist\") */\n      tag_347\n      jumpi\n      mload(0x40)\n      0x08c379a000000000000000000000000000000000000000000000000000000000\n      dup2\n      mstore\n      0x04\n      add\n      tag_348\n      swap1\n      tag_349\n      jump\t// in\n    tag_348:\n      mload(0x40)\n      dup1\n      swap2\n      sub\n      swap1\n      revert\n    tag_347:\n        /* \"box/box_allocate.sol\":4664:4679  bytes32 message */\n      0x00\n        /* \"box/box_allocate.sol\":4709:4719  msg.sender */\n      caller\n        /* \"box/box_allocate.sol\":4721:4725  meta */\n      dup5\n        /* \"box/box_allocate.sol\":4727:4734  _nonces */\n      0x05\n        /* \"box/box_allocate.sol\":4727:4748  _nonces[_msgSender()] */\n      0x00\n        /* \"box/box_allocate.sol\":4735:4747  _msgSender() */\n      tag_350\n        /* \"box/box_allocate.sol\":4735:4745  _msgSender */\n      tag_351\n        /* \"box/box_allocate.sol\":4735:4747  _msgSender() */\n      jump\t// in\n    tag_350:\n        /* \"box/box_allocate.sol\":4727:4748  _nonces[_msgSender()] */\n      0xffffffffffffffffffffffffffffffffffffffff\n      and\n      0xffffffffffffffffffffffffffffffffffffffff\n      and\n      dup2\n      mstore\n      0x20\n      add\n      swap1\n      dup2\n      mstore\n      0x20\n      add\n      0x00\n      keccak256\n      sload\n        /* \"box/box_allocate.sol\":4692:4749  abi.encodePacked(msg.sender, meta, _nonces[_msgSender()]) */\n      add(0x20, mload(0x40))\n      tag_352\n      swap4\n      swap3\n      swap2\n      swap1\n      tag_353\n      jump\t// in\n    tag_352:\n      mload(0x40)\n      0x20\n      dup2\n      dup4\n      sub\n      sub\n      dup2\n      mstore\n      swap1\n      0x40\n      mstore\n        /* \"box/box_allocate.sol\":4682:4750  keccak256(abi.encodePacked(msg.sender, meta, _nonces[_msgSender()])) */\n      dup1\n      mload\n      swap1\n      0x20\n      add\n      keccak256\n        /* \"box/box_allocate.sol\":4664:4750  bytes32 message = keccak256(abi.encodePacked(msg.sender, meta, _nonces[_msgSender()])) */\n      swap1\n      pop\n        /* \"box/box_allocate.sol\":4805:4815  _signOwner */\n      0x06\n      0x00\n      swap1\n      sload\n      swap1\n      0x0100\n      exp\n      swap1\n      div\n      0xffffffffffffffffffffffffffffffffffffffff\n      and\n        /* \"box/box_allocate.sol\":4768:4815  ECDSA.recover(message, signature) == _signOwner */\n      0xffffffffffffffffffffffffffffffffffffffff\n      and\n        /* \"box/box_allocate.sol\":4768:4801  ECDSA.recover(message, signature) */\n      tag_354\n        /* \"box/box_allocate.sol\":4782:4789  message */\n      dup3\n        /* \"box/box_allocate.sol\":4791:4800  signature */\n      dup6\n        /* \"box/box_allocate.sol\":4768:4781  ECDSA.recover */\n      tag_355\n        /* \"box/box_allocate.sol\":4768:4801  ECDSA.recover(message, signature) */\n      jump\t// in\n    tag_354:\n        /* \"box/box_allocate.sol\":4768:4815  ECDSA.recover(message, signature) == _signOwner */\n      0xffffffffffffffffffffffffffffffffffffffff\n      and\n      eq\n        /* \"box/box_allocate.sol\":4760:4844  require(ECDSA.recover(message, signature) == _signOwner, \"The signature is invalid\") */\n      tag_356\n      jumpi\n      mload(0x40)\n      0x08c379a000000000000000000000000000000000000000000000000000000000\n      dup2\n      mstore\n      0x04\n      add\n      tag_357\n      swap1\n      tag_358\n      jump\t// in\n    tag_357:\n      mload(0x40)\n      dup1\n      swap2\n      sub\n      swap1\n      revert\n    tag_356:\n        /* \"box/box_allocate.sol\":4854:4872  uint256 expireTime */\n      0x00\n        /* \"box/box_allocate.sol\":4875:4911  block.timestamp.add(BOX_SALE_PERIOD) */\n      tag_359\n        /* \"box/box_allocate.sol\":1132:1139  3600*48 */\n      0x02a300\n        /* \"box/box_allocate.sol\":4875:4890  block.timestamp */\n      timestamp\n        /* \"box/box_allocate.sol\":4875:4894  block.timestamp.add */\n      tag_198\n      swap1\n        /* \"box/box_allocate.sol\":4875:4911  block.timestamp.add(BOX_SALE_PERIOD) */\n      swap2\n      swap1\n      0xffffffff\n      and\n      jump\t// in\n    tag_359:\n        /* \"box/box_allocate.sol\":4854:4911  uint256 expireTime = block.timestamp.add(BOX_SALE_PERIOD) */\n      swap1\n      pop\n        /* \"box/box_allocate.sol\":4944:5120  BoxMeta({... */\n      mload(0x40)\n      dup1\n      0xa0\n      add\n      0x40\n      mstore\n      dup1\n        /* \"box/box_allocate.sol\":4977:4987  msg.sender */\n      caller\n        /* \"box/box_allocate.sol\":4944:5120  BoxMeta({... */\n      0xffffffffffffffffffffffffffffffffffffffff\n      and\n      dup2\n      mstore\n      0x20\n      add\n        /* \"box/box_allocate.sol\":5017:5027  expireTime */\n      dup3\n        /* \"box/box_allocate.sol\":4944:5120  BoxMeta({... */\n      dup2\n      mstore\n      0x20\n      add\n        /* \"box/box_allocate.sol\":5053:5054  0 */\n      0x00\n        /* \"box/box_allocate.sol\":4944:5120  BoxMeta({... */\n      dup2\n      mstore\n      0x20\n      add\n        /* \"box/box_allocate.sol\":5081:5082  0 */\n      0x00\n        /* \"box/box_allocate.sol\":4944:5120  BoxMeta({... */\n      dup2\n      mstore\n      0x20\n      add\n        /* \"box/box_allocate.sol\":5108:5109  0 */\n      0x00\n        /* \"box/box_allocate.sol\":4944:5120  BoxMeta({... */\n      dup2\n      mstore\n      pop\n        /* \"box/box_allocate.sol\":4921:4930  _metaBoxs */\n      0x08\n        /* \"box/box_allocate.sol\":4931:4940  metaBytes */\n      dup5\n        /* \"box/box_allocate.sol\":4921:4941  _metaBoxs[metaBytes] */\n      mload(0x40)\n      tag_360\n      swap2\n      swap1\n      tag_188\n      jump\t// in\n    tag_360:\n      swap1\n      dup2\n      mstore\n      0x20\n      add\n      mload(0x40)\n      dup1\n      swap2\n      sub\n      swap1\n      keccak256\n        /* \"box/box_allocate.sol\":4921:5120  _metaBoxs[metaBytes] = BoxMeta({... */\n      0x00\n      dup3\n      add\n      mload\n      dup2\n      0x00\n      add\n      exp(0x0100, 0x00)\n      dup2\n      sload\n      dup2\n      0xffffffffffffffffffffffffffffffffffffffff\n      mul\n      not\n      and\n      swap1\n      dup4\n      0xffffffffffffffffffffffffffffffffffffffff\n      and\n      mul\n      or\n      swap1\n      sstore\n      pop\n      0x20\n      dup3\n      add\n      mload\n      dup2\n      0x01\n      add\n      sstore\n      0x40\n      dup3\n      add\n      mload\n      dup2\n      0x02\n      add\n      sstore\n      0x60\n      dup3\n      add\n      mload\n      dup2\n      0x03\n      add\n      sstore\n      0x80\n      dup3\n      add\n      mload\n      dup2\n      0x04\n      add\n      sstore\n      swap1\n      pop\n      pop\n        /* \"box/box_allocate.sol\":5144:5154  msg.sender */\n      caller\n        /* \"box/box_allocate.sol\":5135:5171  BoxStart(msg.sender,meta,expireTime) */\n      0xffffffffffffffffffffffffffffffffffffffff\n      and\n      0x0f126ec1fbb7d521827771bfb48ef46eb9059c22613c14d6c7e7ffe14d5b52f5\n        /* \"box/box_allocate.sol\":5155:5159  meta */\n      dup7\n        /* \"box/box_allocate.sol\":5160:5170  expireTime */\n      dup4\n        /* \"box/box_allocate.sol\":5135:5171  BoxStart(msg.sender,meta,expireTime) */\n      mload(0x40)\n      tag_361\n      swap3\n      swap2\n      swap1\n      tag_244\n      jump\t// in\n    tag_361:\n      mload(0x40)\n      dup1\n      swap2\n      sub\n      swap1\n      log2\n        /* \"box/box_allocate.sol\":4526:5178  {... */\n      pop\n      pop\n      pop\n        /* \"box/box_allocate.sol\":4442:5178  function startBox(string memory meta, bytes memory signature) external callerIsUser {... */\n      pop\n      pop\n      jump\t// out\n        /* \"box/box_allocate.sol\":1784:1816  address payable public _mutiSign */\n    tag_142:\n      0x0c\n      0x00\n      swap1\n      sload\n      swap1\n      0x0100\n      exp\n      swap1\n      div\n      0xffffffffffffffffffffffffffffffffffffffff\n      and\n      dup2\n      jump\t// out\n        /* \"box/box_allocate.sol\":1349:1391  mapping(address => uint256) public _nonces */\n    tag_149:\n      mstore(0x20, 0x05)\n      dup1\n      0x00\n      mstore\n      keccak256(0x00, 0x40)\n      0x00\n      swap2\n      pop\n      swap1\n      pop\n      sload\n      dup2\n      jump\t// out\n        /* \"box/box_allocate.sol\":1193:1226  uint256 public BOX_TRADE_FEE = 10 */\n    tag_153:\n      sload(0x01)\n      dup2\n      jump\t// out\n        /* \"box/box_allocate.sol\":12817:12954  function calculateBoxPrice(uint256 x) public pure returns (uint256) {... */\n    tag_158:\n        /* \"box/box_allocate.sol\":12876:12883  uint256 */\n      0x00\n        /* \"box/box_allocate.sol\":12902:12947  sqrt(sqrt(x**5)).mul(5).sub(1500).mul(10**14) */\n      tag_363\n        /* \"box/box_allocate.sol\":12940:12946  10**14 */\n      0x5af3107a4000\n        /* \"box/box_allocate.sol\":12902:12935  sqrt(sqrt(x**5)).mul(5).sub(1500) */\n      tag_364\n        /* \"box/box_allocate.sol\":12930:12934  1500 */\n      0x05dc\n        /* \"box/box_allocate.sol\":12902:12925  sqrt(sqrt(x**5)).mul(5) */\n      tag_365\n        /* \"box/box_allocate.sol\":12923:12924  5 */\n      0x05\n        /* \"box/box_allocate.sol\":12902:12918  sqrt(sqrt(x**5)) */\n      tag_366\n        /* \"box/box_allocate.sol\":12907:12917  sqrt(x**5) */\n      tag_367\n        /* \"box/box_allocate.sol\":12915:12916  5 */\n      0x05\n        /* \"box/box_allocate.sol\":12912:12913  x */\n      dup11\n        /* \"box/box_allocate.sol\":12912:12916  x**5 */\n      tag_368\n      swap2\n      swap1\n      tag_369\n      jump\t// in\n    tag_368:\n        /* \"box/box_allocate.sol\":12907:12911  sqrt */\n      tag_370\n        /* \"box/box_allocate.sol\":12907:12917  sqrt(x**5) */\n      jump\t// in\n    tag_367:\n        /* \"box/box_allocate.sol\":12902:12906  sqrt */\n      tag_370\n        /* \"box/box_allocate.sol\":12902:12918  sqrt(sqrt(x**5)) */\n      jump\t// in\n    tag_366:\n        /* \"box/box_allocate.sol\":12902:12922  sqrt(sqrt(x**5)).mul */\n      tag_197\n      swap1\n        /* \"box/box_allocate.sol\":12902:12925  sqrt(sqrt(x**5)).mul(5) */\n      swap2\n      swap1\n      0xffffffff\n      and\n      jump\t// in\n    tag_365:\n        /* \"box/box_allocate.sol\":12902:12929  sqrt(sqrt(x**5)).mul(5).sub */\n      tag_209\n      swap1\n        /* \"box/box_allocate.sol\":12902:12935  sqrt(sqrt(x**5)).mul(5).sub(1500) */\n      swap2\n      swap1\n      0xffffffff\n      and\n      jump\t// in\n    tag_364:\n        /* \"box/box_allocate.sol\":12902:12939  sqrt(sqrt(x**5)).mul(5).sub(1500).mul */\n      tag_197\n      swap1\n        /* \"box/box_allocate.sol\":12902:12947  sqrt(sqrt(x**5)).mul(5).sub(1500).mul(10**14) */\n      swap2\n      swap1\n      0xffffffff\n      and\n      jump\t// in\n    tag_363:\n        /* \"box/box_allocate.sol\":12895:12947  return sqrt(sqrt(x**5)).mul(5).sub(1500).mul(10**14) */\n      swap1\n      pop\n        /* \"box/box_allocate.sol\":12817:12954  function calculateBoxPrice(uint256 x) public pure returns (uint256) {... */\n      swap2\n      swap1\n      pop\n      jump\t// out\n        /* \"box/box_allocate.sol\":1232:1264  uint256 public BOX_OWNER_FEE = 4 */\n    tag_162:\n      sload(0x02)\n      dup2\n      jump\t// out\n        /* \"box/box_allocate.sol\":2662:2836  function setMutiSign (address muti_sign) external onlyOwner {... */\n    tag_167:\n        /* \"@openzeppelin/contracts/access/Ownable.sol\":1531:1544  _checkOwner() */\n      tag_372\n        /* \"@openzeppelin/contracts/access/Ownable.sol\":1531:1542  _checkOwner */\n      tag_214\n        /* \"@openzeppelin/contracts/access/Ownable.sol\":1531:1544  _checkOwner() */\n      jump\t// in\n    tag_372:\n        /* \"box/box_allocate.sol\":2752:2761  muti_sign */\n      dup1\n        /* \"box/box_allocate.sol\":2738:2761  address(0) != muti_sign */\n      0xffffffffffffffffffffffffffffffffffffffff\n      and\n        /* \"box/box_allocate.sol\":2746:2747  0 */\n      0x00\n        /* \"box/box_allocate.sol\":2738:2761  address(0) != muti_sign */\n      0xffffffffffffffffffffffffffffffffffffffff\n      and\n      sub\n        /* \"box/box_allocate.sol\":2730:2791  require(address(0) != muti_sign,\"muti_sign is zero addresss\") */\n      tag_374\n      jumpi\n      mload(0x40)\n      0x08c379a000000000000000000000000000000000000000000000000000000000\n      dup2\n      mstore\n      0x04\n      add\n      tag_375\n      swap1\n      tag_376\n      jump\t// in\n    tag_375:\n      mload(0x40)\n      dup1\n      swap2\n      sub\n      swap1\n      revert\n    tag_374:\n        /* \"box/box_allocate.sol\":2819:2828  muti_sign */\n      dup1\n        /* \"box/box_allocate.sol\":2799:2808  _mutiSign */\n      0x0c\n      0x00\n        /* \"box/box_allocate.sol\":2799:2829  _mutiSign = payable(muti_sign) */\n      0x0100\n      exp\n      dup2\n      sload\n      dup2\n      0xffffffffffffffffffffffffffffffffffffffff\n      mul\n      not\n      and\n      swap1\n      dup4\n      0xffffffffffffffffffffffffffffffffffffffff\n      and\n      mul\n      or\n      swap1\n      sstore\n      pop\n        /* \"box/box_allocate.sol\":2662:2836  function setMutiSign (address muti_sign) external onlyOwner {... */\n      pop\n      jump\t// out\n        /* \"box/box_allocate.sol\":3848:4138  function getBuyAmount(string memory meta,uint256 cnt) external callerIsUser view returns(uint256,uint256){... */\n    tag_171:\n        /* \"box/box_allocate.sol\":3937:3944  uint256 */\n      0x00\n        /* \"box/box_allocate.sol\":3945:3952  uint256 */\n      dup1\n        /* \"box/box_allocate.sol\":2593:2603  msg.sender */\n      caller\n        /* \"box/box_allocate.sol\":2580:2603  tx.origin == msg.sender */\n      0xffffffffffffffffffffffffffffffffffffffff\n      and\n        /* \"box/box_allocate.sol\":2580:2589  tx.origin */\n      origin\n        /* \"box/box_allocate.sol\":2580:2603  tx.origin == msg.sender */\n      0xffffffffffffffffffffffffffffffffffffffff\n      and\n      eq\n        /* \"box/box_allocate.sol\":2572:2638  require(tx.origin == msg.sender, \"The caller is another contract\") */\n      tag_378\n      jumpi\n      mload(0x40)\n      0x08c379a000000000000000000000000000000000000000000000000000000000\n      dup2\n      mstore\n      0x04\n      add\n      tag_379\n      swap1\n      tag_184\n      jump\t// in\n    tag_379:\n      mload(0x40)\n      dup1\n      swap2\n      sub\n      swap1\n      revert\n    tag_378:\n        /* \"box/box_allocate.sol\":3963:3985  bytes memory metaBytes */\n      0x00\n        /* \"box/box_allocate.sol\":3988:4008  _stringToBytes(meta) */\n      tag_381\n        /* \"box/box_allocate.sol\":4003:4007  meta */\n      dup6\n        /* \"box/box_allocate.sol\":3988:4002  _stringToBytes */\n      tag_64\n        /* \"box/box_allocate.sol\":3988:4008  _stringToBytes(meta) */\n      jump\t// in\n    tag_381:\n        /* \"box/box_allocate.sol\":3963:4008  bytes memory metaBytes = _stringToBytes(meta) */\n      swap1\n      pop\n        /* \"box/box_allocate.sol\":4019:4043  uint256 tradeTotalAmount */\n      0x00\n        /* \"box/box_allocate.sol\":4044:4055  uint256 fee */\n      dup1\n        /* \"box/box_allocate.sol\":4059:4092  calculateBuyAmount(metaBytes,cnt) */\n      tag_382\n        /* \"box/box_allocate.sol\":4078:4087  metaBytes */\n      dup4\n        /* \"box/box_allocate.sol\":4088:4091  cnt */\n      dup8\n        /* \"box/box_allocate.sol\":4059:4077  calculateBuyAmount */\n      tag_325\n        /* \"box/box_allocate.sol\":4059:4092  calculateBuyAmount(metaBytes,cnt) */\n      jump\t// in\n    tag_382:\n        /* \"box/box_allocate.sol\":4018:4092  (uint256 tradeTotalAmount,uint256 fee) = calculateBuyAmount(metaBytes,cnt) */\n      swap2\n      pop\n      swap2\n      pop\n        /* \"box/box_allocate.sol\":4110:4126  tradeTotalAmount */\n      dup2\n        /* \"box/box_allocate.sol\":4127:4130  fee */\n      dup2\n        /* \"box/box_allocate.sol\":4102:4131  return (tradeTotalAmount,fee) */\n      swap5\n      pop\n      swap5\n      pop\n      pop\n      pop\n      pop\n        /* \"box/box_allocate.sol\":3848:4138  function getBuyAmount(string memory meta,uint256 cnt) external callerIsUser view returns(uint256,uint256){... */\n      swap3\n      pop\n      swap3\n      swap1\n      pop\n      jump\t// out\n        /* \"box/box_allocate.sol\":1040:1084  uint256 public constant PER_BOX_GAS = 10**15 */\n    tag_175:\n        /* \"box/box_allocate.sol\":1078:1084  10**15 */\n      0x038d7ea4c68000\n        /* \"box/box_allocate.sol\":1040:1084  uint256 public constant PER_BOX_GAS = 10**15 */\n      dup2\n      jump\t// out\n        /* \"@openzeppelin/contracts/access/Ownable.sol\":2543:2758  function transferOwnership(address newOwner) public virtual onlyOwner {... */\n    tag_180:\n        /* \"@openzeppelin/contracts/access/Ownable.sol\":1531:1544  _checkOwner() */\n      tag_384\n        /* \"@openzeppelin/contracts/access/Ownable.sol\":1531:1542  _checkOwner */\n      tag_214\n        /* \"@openzeppelin/contracts/access/Ownable.sol\":1531:1544  _checkOwner() */\n      jump\t// in\n    tag_384:\n        /* \"@openzeppelin/contracts/access/Ownable.sol\":2647:2648  0 */\n      0x00\n        /* \"@openzeppelin/contracts/access/Ownable.sol\":2627:2649  newOwner == address(0) */\n      0xffffffffffffffffffffffffffffffffffffffff\n      and\n        /* \"@openzeppelin/contracts/access/Ownable.sol\":2627:2635  newOwner */\n      dup2\n        /* \"@openzeppelin/contracts/access/Ownable.sol\":2627:2649  newOwner == address(0) */\n      0xffffffffffffffffffffffffffffffffffffffff\n      and\n      sub\n        /* \"@openzeppelin/contracts/access/Ownable.sol\":2623:2714  if (newOwner == address(0)) {... */\n      tag_386\n      jumpi\n        /* \"@openzeppelin/contracts/access/Ownable.sol\":2700:2701  0 */\n      0x00\n        /* \"@openzeppelin/contracts/access/Ownable.sol\":2672:2703  OwnableInvalidOwner(address(0)) */\n      mload(0x40)\n      0x1e4fbdf700000000000000000000000000000000000000000000000000000000\n      dup2\n      mstore\n      0x04\n      add\n      tag_387\n      swap2\n      swap1\n      tag_119\n      jump\t// in\n    tag_387:\n      mload(0x40)\n      dup1\n      swap2\n      sub\n      swap1\n      revert\n        /* \"@openzeppelin/contracts/access/Ownable.sol\":2623:2714  if (newOwner == address(0)) {... */\n    tag_386:\n        /* \"@openzeppelin/contracts/access/Ownable.sol\":2723:2751  _transferOwnership(newOwner) */\n      tag_388\n        /* \"@openzeppelin/contracts/access/Ownable.sol\":2742:2750  newOwner */\n      dup2\n        /* \"@openzeppelin/contracts/access/Ownable.sol\":2723:2741  _transferOwnership */\n      tag_302\n        /* \"@openzeppelin/contracts/access/Ownable.sol\":2723:2751  _transferOwnership(newOwner) */\n      jump\t// in\n    tag_388:\n        /* \"@openzeppelin/contracts/access/Ownable.sol\":2543:2758  function transferOwnership(address newOwner) public virtual onlyOwner {... */\n      pop\n      jump\t// out\n        /* \"@openzeppelin/contracts/utils/math/SafeMath.sol\":3465:3561  function mul(uint256 a, uint256 b) internal pure returns (uint256) {... */\n    tag_197:\n        /* \"@openzeppelin/contracts/utils/math/SafeMath.sol\":3523:3530  uint256 */\n      0x00\n        /* \"@openzeppelin/contracts/utils/math/SafeMath.sol\":3553:3554  b */\n      dup2\n        /* \"@openzeppelin/contracts/utils/math/SafeMath.sol\":3549:3550  a */\n      dup4\n        /* \"@openzeppelin/contracts/utils/math/SafeMath.sol\":3549:3554  a * b */\n      tag_390\n      swap2\n      swap1\n      tag_391\n      jump\t// in\n    tag_390:\n        /* \"@openzeppelin/contracts/utils/math/SafeMath.sol\":3542:3554  return a * b */\n      swap1\n      pop\n        /* \"@openzeppelin/contracts/utils/math/SafeMath.sol\":3465:3561  function mul(uint256 a, uint256 b) internal pure returns (uint256) {... */\n      swap3\n      swap2\n      pop\n      pop\n      jump\t// out\n        /* \"@openzeppelin/contracts/utils/math/SafeMath.sol\":2755:2851  function add(uint256 a, uint256 b) internal pure returns (uint256) {... */\n    tag_198:\n        /* \"@openzeppelin/contracts/utils/math/SafeMath.sol\":2813:2820  uint256 */\n      0x00\n        /* \"@openzeppelin/contracts/utils/math/SafeMath.sol\":2843:2844  b */\n      dup2\n        /* \"@openzeppelin/contracts/utils/math/SafeMath.sol\":2839:2840  a */\n      dup4\n        /* \"@openzeppelin/contracts/utils/math/SafeMath.sol\":2839:2844  a + b */\n      tag_393\n      swap2\n      swap1\n      tag_394\n      jump\t// in\n    tag_393:\n        /* \"@openzeppelin/contracts/utils/math/SafeMath.sol\":2832:2844  return a + b */\n      swap1\n      pop\n        /* \"@openzeppelin/contracts/utils/math/SafeMath.sol\":2755:2851  function add(uint256 a, uint256 b) internal pure returns (uint256) {... */\n      swap3\n      swap2\n      pop\n      pop\n      jump\t// out\n        /* \"@openzeppelin/contracts/utils/math/SafeMath.sol\":3122:3218  function sub(uint256 a, uint256 b) internal pure returns (uint256) {... */\n    tag_209:\n        /* \"@openzeppelin/contracts/utils/math/SafeMath.sol\":3180:3187  uint256 */\n      0x00\n        /* \"@openzeppelin/contracts/utils/math/SafeMath.sol\":3210:3211  b */\n      dup2\n        /* \"@openzeppelin/contracts/utils/math/SafeMath.sol\":3206:3207  a */\n      dup4\n        /* \"@openzeppelin/contracts/utils/math/SafeMath.sol\":3206:3211  a - b */\n      tag_396\n      swap2\n      swap1\n      tag_397\n      jump\t// in\n    tag_396:\n        /* \"@openzeppelin/contracts/utils/math/SafeMath.sol\":3199:3211  return a - b */\n      swap1\n      pop\n        /* \"@openzeppelin/contracts/utils/math/SafeMath.sol\":3122:3218  function sub(uint256 a, uint256 b) internal pure returns (uint256) {... */\n      swap3\n      swap2\n      pop\n      pop\n      jump\t// out\n        /* \"@openzeppelin/contracts/access/Ownable.sol\":1796:1958  function _checkOwner() internal view virtual {... */\n    tag_214:\n        /* \"@openzeppelin/contracts/access/Ownable.sol\":1866:1878  _msgSender() */\n      tag_399\n        /* \"@openzeppelin/contracts/access/Ownable.sol\":1866:1876  _msgSender */\n      tag_351\n        /* \"@openzeppelin/contracts/access/Ownable.sol\":1866:1878  _msgSender() */\n      jump\t// in\n    tag_399:\n        /* \"@openzeppelin/contracts/access/Ownable.sol\":1855:1878  owner() != _msgSender() */\n      0xffffffffffffffffffffffffffffffffffffffff\n      and\n        /* \"@openzeppelin/contracts/access/Ownable.sol\":1855:1862  owner() */\n      tag_400\n        /* \"@openzeppelin/contracts/access/Ownable.sol\":1855:1860  owner */\n      tag_130\n        /* \"@openzeppelin/contracts/access/Ownable.sol\":1855:1862  owner() */\n      jump\t// in\n    tag_400:\n        /* \"@openzeppelin/contracts/access/Ownable.sol\":1855:1878  owner() != _msgSender() */\n      0xffffffffffffffffffffffffffffffffffffffff\n      and\n      eq\n        /* \"@openzeppelin/contracts/access/Ownable.sol\":1851:1952  if (owner() != _msgSender()) {... */\n      tag_401\n      jumpi\n        /* \"@openzeppelin/contracts/access/Ownable.sol\":1928:1940  _msgSender() */\n      tag_402\n        /* \"@openzeppelin/contracts/access/Ownable.sol\":1928:1938  _msgSender */\n      tag_351\n        /* \"@openzeppelin/contracts/access/Ownable.sol\":1928:1940  _msgSender() */\n      jump\t// in\n    tag_402:\n        /* \"@openzeppelin/contracts/access/Ownable.sol\":1901:1941  OwnableUnauthorizedAccount(_msgSender()) */\n      mload(0x40)\n      0x118cdaa700000000000000000000000000000000000000000000000000000000\n      dup2\n      mstore\n      0x04\n      add\n      tag_403\n      swap2\n      swap1\n      tag_119\n      jump\t// in\n    tag_403:\n      mload(0x40)\n      dup1\n      swap2\n      sub\n      swap1\n      revert\n        /* \"@openzeppelin/contracts/access/Ownable.sol\":1851:1952  if (owner() != _msgSender()) {... */\n    tag_401:\n        /* \"@openzeppelin/contracts/access/Ownable.sol\":1796:1958  function _checkOwner() internal view virtual {... */\n      jump\t// out\n        /* \"box/box_allocate.sol\":12351:12783  function pushAddressArray (bytes memory metaBytes, address trader) internal  {... */\n    tag_237:\n        /* \"box/box_allocate.sol\":12438:12467  BoxFeeMeta storage boxFeeMeta */\n      0x00\n        /* \"box/box_allocate.sol\":12470:12481  _boxFeeMeta */\n      0x0b\n        /* \"box/box_allocate.sol\":12482:12491  metaBytes */\n      dup4\n        /* \"box/box_allocate.sol\":12470:12492  _boxFeeMeta[metaBytes] */\n      mload(0x40)\n      tag_405\n      swap2\n      swap1\n      tag_188\n      jump\t// in\n    tag_405:\n      swap1\n      dup2\n      mstore\n      0x20\n      add\n      mload(0x40)\n      dup1\n      swap2\n      sub\n      swap1\n      keccak256\n        /* \"box/box_allocate.sol\":12438:12492  BoxFeeMeta storage boxFeeMeta = _boxFeeMeta[metaBytes] */\n      swap1\n      pop\n        /* \"box/box_allocate.sol\":12502:12521  uint256 traderIndex */\n      0x00\n        /* \"box/box_allocate.sol\":12524:12534  boxFeeMeta */\n      dup2\n        /* \"box/box_allocate.sol\":12524:12552  boxFeeMeta.addressArrayIndex */\n      0x01\n      add\n        /* \"box/box_allocate.sol\":12524:12560  boxFeeMeta.addressArrayIndex[trader] */\n      0x00\n        /* \"box/box_allocate.sol\":12553:12559  trader */\n      dup5\n        /* \"box/box_allocate.sol\":12524:12560  boxFeeMeta.addressArrayIndex[trader] */\n      0xffffffffffffffffffffffffffffffffffffffff\n      and\n      0xffffffffffffffffffffffffffffffffffffffff\n      and\n      dup2\n      mstore\n      0x20\n      add\n      swap1\n      dup2\n      mstore\n      0x20\n      add\n      0x00\n      keccak256\n      sload\n        /* \"box/box_allocate.sol\":12502:12560  uint256 traderIndex = boxFeeMeta.addressArrayIndex[trader] */\n      swap1\n      pop\n        /* \"box/box_allocate.sol\":12614:12620  trader */\n      dup3\n        /* \"box/box_allocate.sol\":12574:12620  boxFeeMeta.addressArray[traderIndex] != trader */\n      0xffffffffffffffffffffffffffffffffffffffff\n      and\n        /* \"box/box_allocate.sol\":12574:12584  boxFeeMeta */\n      dup3\n        /* \"box/box_allocate.sol\":12574:12597  boxFeeMeta.addressArray */\n      0x00\n      add\n        /* \"box/box_allocate.sol\":12598:12609  traderIndex */\n      dup3\n        /* \"box/box_allocate.sol\":12574:12610  boxFeeMeta.addressArray[traderIndex] */\n      dup2\n      sload\n      dup2\n      lt\n      tag_406\n      jumpi\n      tag_407\n      tag_224\n      jump\t// in\n    tag_407:\n    tag_406:\n      swap1\n      0x00\n      mstore\n      keccak256(0x00, 0x20)\n      add\n      0x00\n      swap1\n      sload\n      swap1\n      0x0100\n      exp\n      swap1\n      div\n      0xffffffffffffffffffffffffffffffffffffffff\n      and\n        /* \"box/box_allocate.sol\":12574:12620  boxFeeMeta.addressArray[traderIndex] != trader */\n      0xffffffffffffffffffffffffffffffffffffffff\n      and\n      eq\n        /* \"box/box_allocate.sol\":12570:12777  if (boxFeeMeta.addressArray[traderIndex] != trader) {... */\n      tag_409\n      jumpi\n        /* \"box/box_allocate.sol\":12636:12646  boxFeeMeta */\n      dup2\n        /* \"box/box_allocate.sol\":12636:12659  boxFeeMeta.addressArray */\n      0x00\n      add\n        /* \"box/box_allocate.sol\":12665:12675  msg.sender */\n      caller\n        /* \"box/box_allocate.sol\":12636:12676  boxFeeMeta.addressArray.push(msg.sender) */\n      swap1\n      dup1\n      0x01\n      dup2\n      sload\n      add\n      dup1\n      dup3\n      sstore\n      dup1\n      swap2\n      pop\n      pop\n      0x01\n      swap1\n      sub\n      swap1\n      0x00\n      mstore\n      keccak256(0x00, 0x20)\n      add\n      0x00\n      swap1\n      swap2\n      swap1\n      swap2\n      swap1\n      swap2\n      0x0100\n      exp\n      dup2\n      sload\n      dup2\n      0xffffffffffffffffffffffffffffffffffffffff\n      mul\n      not\n      and\n      swap1\n      dup4\n      0xffffffffffffffffffffffffffffffffffffffff\n      and\n      mul\n      or\n      swap1\n      sstore\n      pop\n        /* \"box/box_allocate.sol\":12729:12766  boxFeeMeta.addressArray.length.sub(1) */\n      tag_411\n        /* \"box/box_allocate.sol\":12764:12765  1 */\n      0x01\n        /* \"box/box_allocate.sol\":12729:12739  boxFeeMeta */\n      dup4\n        /* \"box/box_allocate.sol\":12729:12752  boxFeeMeta.addressArray */\n      0x00\n      add\n        /* \"box/box_allocate.sol\":12729:12759  boxFeeMeta.addressArray.length */\n      dup1\n      sload\n      swap1\n      pop\n        /* \"box/box_allocate.sol\":12729:12763  boxFeeMeta.addressArray.length.sub */\n      tag_209\n      swap1\n        /* \"box/box_allocate.sol\":12729:12766  boxFeeMeta.addressArray.length.sub(1) */\n      swap2\n      swap1\n      0xffffffff\n      and\n      jump\t// in\n    tag_411:\n        /* \"box/box_allocate.sol\":12690:12700  boxFeeMeta */\n      dup3\n        /* \"box/box_allocate.sol\":12690:12718  boxFeeMeta.addressArrayIndex */\n      0x01\n      add\n        /* \"box/box_allocate.sol\":12690:12726  boxFeeMeta.addressArrayIndex[trader] */\n      0x00\n        /* \"box/box_allocate.sol\":12719:12725  trader */\n      dup6\n        /* \"box/box_allocate.sol\":12690:12726  boxFeeMeta.addressArrayIndex[trader] */\n      0xffffffffffffffffffffffffffffffffffffffff\n      and\n      0xffffffffffffffffffffffffffffffffffffffff\n      and\n      dup2\n      mstore\n      0x20\n      add\n      swap1\n      dup2\n      mstore\n      0x20\n      add\n      0x00\n      keccak256\n        /* \"box/box_allocate.sol\":12690:12766  boxFeeMeta.addressArrayIndex[trader] = boxFeeMeta.addressArray.length.sub(1) */\n      dup2\n      swap1\n      sstore\n      pop\n        /* \"box/box_allocate.sol\":12570:12777  if (boxFeeMeta.addressArray[traderIndex] != trader) {... */\n    tag_409:\n        /* \"box/box_allocate.sol\":12428:12783  {... */\n      pop\n      pop\n        /* \"box/box_allocate.sol\":12351:12783  function pushAddressArray (bytes memory metaBytes, address trader) internal  {... */\n      pop\n      pop\n      jump\t// out\n        /* \"box/box_allocate.sol\":9962:10923  function calculateSellAmount(bytes memory metaBytes,uint256 cnt) internal view returns(uint256,uint256){... */\n    tag_269:\n        /* \"box/box_allocate.sol\":10049:10056  uint256 */\n      0x00\n        /* \"box/box_allocate.sol\":10057:10064  uint256 */\n      dup1\n        /* \"box/box_allocate.sol\":10089:10090  0 */\n      0x00\n        /* \"box/box_allocate.sol\":10083:10086  cnt */\n      dup4\n        /* \"box/box_allocate.sol\":10083:10090  cnt > 0 */\n      gt\n        /* \"box/box_allocate.sol\":10075:10114  require(cnt > 0,\"Insufficient Box cnt\") */\n      tag_413\n      jumpi\n      mload(0x40)\n      0x08c379a000000000000000000000000000000000000000000000000000000000\n      dup2\n      mstore\n      0x04\n      add\n      tag_414\n      swap1\n      tag_262\n      jump\t// in\n    tag_414:\n      mload(0x40)\n      dup1\n      swap2\n      sub\n      swap1\n      revert\n    tag_413:\n        /* \"box/box_allocate.sol\":10174:10177  cnt */\n      dup3\n        /* \"box/box_allocate.sol\":10132:10147  _metaBoxBalance */\n      0x07\n        /* \"box/box_allocate.sol\":10148:10157  metaBytes */\n      dup6\n        /* \"box/box_allocate.sol\":10132:10158  _metaBoxBalance[metaBytes] */\n      mload(0x40)\n      tag_415\n      swap2\n      swap1\n      tag_188\n      jump\t// in\n    tag_415:\n      swap1\n      dup2\n      mstore\n      0x20\n      add\n      mload(0x40)\n      dup1\n      swap2\n      sub\n      swap1\n      keccak256\n        /* \"box/box_allocate.sol\":10132:10170  _metaBoxBalance[metaBytes][msg.sender] */\n      0x00\n        /* \"box/box_allocate.sol\":10159:10169  msg.sender */\n      caller\n        /* \"box/box_allocate.sol\":10132:10170  _metaBoxBalance[metaBytes][msg.sender] */\n      0xffffffffffffffffffffffffffffffffffffffff\n      and\n      0xffffffffffffffffffffffffffffffffffffffff\n      and\n      dup2\n      mstore\n      0x20\n      add\n      swap1\n      dup2\n      mstore\n      0x20\n      add\n      0x00\n      keccak256\n      sload\n        /* \"box/box_allocate.sol\":10132:10177  _metaBoxBalance[metaBytes][msg.sender] >= cnt */\n      lt\n      iszero\n        /* \"box/box_allocate.sol\":10124:10205  require(_metaBoxBalance[metaBytes][msg.sender] >= cnt,\"Insufficient Box balance\") */\n      tag_416\n      jumpi\n      mload(0x40)\n      0x08c379a000000000000000000000000000000000000000000000000000000000\n      dup2\n      mstore\n      0x04\n      add\n      tag_417\n      swap1\n      tag_267\n      jump\t// in\n    tag_417:\n      mload(0x40)\n      dup1\n      swap2\n      sub\n      swap1\n      revert\n    tag_416:\n        /* \"box/box_allocate.sol\":10215:10239  uint256 tradeTotalAmount */\n      0x00\n        /* \"box/box_allocate.sol\":10253:10275  uint256 tradeCntBefore */\n      dup1\n        /* \"box/box_allocate.sol\":10278:10287  _metaBoxs */\n      0x08\n        /* \"box/box_allocate.sol\":10288:10297  metaBytes */\n      dup7\n        /* \"box/box_allocate.sol\":10278:10298  _metaBoxs[metaBytes] */\n      mload(0x40)\n      tag_418\n      swap2\n      swap1\n      tag_188\n      jump\t// in\n    tag_418:\n      swap1\n      dup2\n      mstore\n      0x20\n      add\n      mload(0x40)\n      dup1\n      swap2\n      sub\n      swap1\n      keccak256\n        /* \"box/box_allocate.sol\":10278:10307  _metaBoxs[metaBytes].tradeCnt */\n      0x03\n      add\n      sload\n        /* \"box/box_allocate.sol\":10253:10307  uint256 tradeCntBefore = _metaBoxs[metaBytes].tradeCnt */\n      swap1\n      pop\n        /* \"box/box_allocate.sol\":10322:10331  uint256 i */\n      0x00\n        /* \"box/box_allocate.sol\":10317:10810  for (uint256 i = 0; i < cnt; i++) {... */\n    tag_419:\n        /* \"box/box_allocate.sol\":10341:10344  cnt */\n      dup6\n        /* \"box/box_allocate.sol\":10337:10338  i */\n      dup2\n        /* \"box/box_allocate.sol\":10337:10344  i < cnt */\n      lt\n        /* \"box/box_allocate.sol\":10317:10810  for (uint256 i = 0; i < cnt; i++) {... */\n      iszero\n      tag_420\n      jumpi\n        /* \"box/box_allocate.sol\":10365:10386  uint256 tradeCntAfter */\n      0x00\n        /* \"box/box_allocate.sol\":10389:10410  tradeCntBefore.sub(1) */\n      tag_422\n        /* \"box/box_allocate.sol\":10408:10409  1 */\n      0x01\n        /* \"box/box_allocate.sol\":10389:10403  tradeCntBefore */\n      dup5\n        /* \"box/box_allocate.sol\":10389:10407  tradeCntBefore.sub */\n      tag_209\n      swap1\n        /* \"box/box_allocate.sol\":10389:10410  tradeCntBefore.sub(1) */\n      swap2\n      swap1\n      0xffffffff\n      and\n      jump\t// in\n    tag_422:\n        /* \"box/box_allocate.sol\":10365:10410  uint256 tradeCntAfter = tradeCntBefore.sub(1) */\n      swap1\n      pop\n        /* \"box/box_allocate.sol\":10424:10437  uint256 price */\n      0x00\n        /* \"box/box_allocate.sol\":1028:1034  10**16 */\n      0x2386f26fc10000\n        /* \"box/box_allocate.sol\":10424:10453  uint256 price = PER_BOX_PRICE */\n      swap1\n      pop\n        /* \"box/box_allocate.sol\":1184:1187  100 */\n      0x64\n        /* \"box/box_allocate.sol\":10471:10485  tradeCntBefore */\n      dup5\n        /* \"box/box_allocate.sol\":10471:10500  tradeCntBefore > BOX_SALE_CNT */\n      gt\n        /* \"box/box_allocate.sol\":10467:10696  if (tradeCntBefore > BOX_SALE_CNT) {... */\n      iszero\n      tag_423\n      jumpi\n        /* \"box/box_allocate.sol\":10528:10538  _boxPrices */\n      0x0a\n        /* \"box/box_allocate.sol\":10528:10554  _boxPrices[tradeCntBefore] */\n      0x00\n        /* \"box/box_allocate.sol\":10539:10553  tradeCntBefore */\n      dup6\n        /* \"box/box_allocate.sol\":10528:10554  _boxPrices[tradeCntBefore] */\n      dup2\n      mstore\n      0x20\n      add\n      swap1\n      dup2\n      mstore\n      0x20\n      add\n      0x00\n      keccak256\n      sload\n        /* \"box/box_allocate.sol\":10520:10554  price = _boxPrices[tradeCntBefore] */\n      swap1\n      pop\n        /* \"box/box_allocate.sol\":1028:1034  10**16 */\n      0x2386f26fc10000\n        /* \"box/box_allocate.sol\":10576:10581  price */\n      dup2\n        /* \"box/box_allocate.sol\":10576:10598  price <= PER_BOX_PRICE */\n      gt\n        /* \"box/box_allocate.sol\":10572:10682  if (price <= PER_BOX_PRICE) {... */\n      tag_424\n      jumpi\n        /* \"box/box_allocate.sol\":10630:10663  calculateBoxPrice(tradeCntBefore) */\n      tag_425\n        /* \"box/box_allocate.sol\":10648:10662  tradeCntBefore */\n      dup5\n        /* \"box/box_allocate.sol\":10630:10647  calculateBoxPrice */\n      tag_158\n        /* \"box/box_allocate.sol\":10630:10663  calculateBoxPrice(tradeCntBefore) */\n      jump\t// in\n    tag_425:\n        /* \"box/box_allocate.sol\":10622:10663  price = calculateBoxPrice(tradeCntBefore) */\n      swap1\n      pop\n        /* \"box/box_allocate.sol\":10572:10682  if (price <= PER_BOX_PRICE) {... */\n    tag_424:\n        /* \"box/box_allocate.sol\":10467:10696  if (tradeCntBefore > BOX_SALE_CNT) {... */\n    tag_423:\n        /* \"box/box_allocate.sol\":10728:10755  tradeTotalAmount.add(price) */\n      tag_426\n        /* \"box/box_allocate.sol\":10749:10754  price */\n      dup2\n        /* \"box/box_allocate.sol\":10728:10744  tradeTotalAmount */\n      dup7\n        /* \"box/box_allocate.sol\":10728:10748  tradeTotalAmount.add */\n      tag_198\n      swap1\n        /* \"box/box_allocate.sol\":10728:10755  tradeTotalAmount.add(price) */\n      swap2\n      swap1\n      0xffffffff\n      and\n      jump\t// in\n    tag_426:\n        /* \"box/box_allocate.sol\":10709:10755  tradeTotalAmount = tradeTotalAmount.add(price) */\n      swap5\n      pop\n        /* \"box/box_allocate.sol\":10786:10799  tradeCntAfter */\n      dup2\n        /* \"box/box_allocate.sol\":10769:10799  tradeCntBefore = tradeCntAfter */\n      swap4\n      pop\n        /* \"box/box_allocate.sol\":10351:10810  {... */\n      pop\n      pop\n        /* \"box/box_allocate.sol\":10346:10349  i++ */\n      dup1\n      dup1\n      tag_427\n      swap1\n      tag_246\n      jump\t// in\n    tag_427:\n      swap2\n      pop\n      pop\n        /* \"box/box_allocate.sol\":10317:10810  for (uint256 i = 0; i < cnt; i++) {... */\n      jump(tag_419)\n    tag_420:\n      pop\n        /* \"box/box_allocate.sol\":10819:10830  uint256 fee */\n      0x00\n        /* \"box/box_allocate.sol\":10833:10877  tradeTotalAmount.mul(BOX_TRADE_FEE).div(100) */\n      tag_428\n        /* \"box/box_allocate.sol\":10873:10876  100 */\n      0x64\n        /* \"box/box_allocate.sol\":10833:10868  tradeTotalAmount.mul(BOX_TRADE_FEE) */\n      tag_429\n        /* \"box/box_allocate.sol\":10854:10867  BOX_TRADE_FEE */\n      sload(0x01)\n        /* \"box/box_allocate.sol\":10833:10849  tradeTotalAmount */\n      dup7\n        /* \"box/box_allocate.sol\":10833:10853  tradeTotalAmount.mul */\n      tag_197\n      swap1\n        /* \"box/box_allocate.sol\":10833:10868  tradeTotalAmount.mul(BOX_TRADE_FEE) */\n      swap2\n      swap1\n      0xffffffff\n      and\n      jump\t// in\n    tag_429:\n        /* \"box/box_allocate.sol\":10833:10872  tradeTotalAmount.mul(BOX_TRADE_FEE).div */\n      tag_430\n      swap1\n        /* \"box/box_allocate.sol\":10833:10877  tradeTotalAmount.mul(BOX_TRADE_FEE).div(100) */\n      swap2\n      swap1\n      0xffffffff\n      and\n      jump\t// in\n    tag_428:\n        /* \"box/box_allocate.sol\":10819:10877  uint256 fee = tradeTotalAmount.mul(BOX_TRADE_FEE).div(100) */\n      swap1\n      pop\n        /* \"box/box_allocate.sol\":10895:10911  tradeTotalAmount */\n      dup3\n        /* \"box/box_allocate.sol\":10912:10915  fee */\n      dup2\n        /* \"box/box_allocate.sol\":10887:10916  return (tradeTotalAmount,fee) */\n      swap5\n      pop\n      swap5\n      pop\n      pop\n      pop\n      pop\n        /* \"box/box_allocate.sol\":9962:10923  function calculateSellAmount(bytes memory metaBytes,uint256 cnt) internal view returns(uint256,uint256){... */\n      swap3\n      pop\n      swap3\n      swap1\n      pop\n      jump\t// out\n        /* \"@openzeppelin/contracts/access/Ownable.sol\":2912:3099  function _transferOwnership(address newOwner) internal virtual {... */\n    tag_302:\n        /* \"@openzeppelin/contracts/access/Ownable.sol\":2985:3001  address oldOwner */\n      0x00\n        /* \"@openzeppelin/contracts/access/Ownable.sol\":3004:3010  _owner */\n      dup1\n      0x00\n      swap1\n      sload\n      swap1\n      0x0100\n      exp\n      swap1\n      div\n      0xffffffffffffffffffffffffffffffffffffffff\n      and\n        /* \"@openzeppelin/contracts/access/Ownable.sol\":2985:3010  address oldOwner = _owner */\n      swap1\n      pop\n        /* \"@openzeppelin/contracts/access/Ownable.sol\":3029:3037  newOwner */\n      dup2\n        /* \"@openzeppelin/contracts/access/Ownable.sol\":3020:3026  _owner */\n      0x00\n      dup1\n        /* \"@openzeppelin/contracts/access/Ownable.sol\":3020:3037  _owner = newOwner */\n      0x0100\n      exp\n      dup2\n      sload\n      dup2\n      0xffffffffffffffffffffffffffffffffffffffff\n      mul\n      not\n      and\n      swap1\n      dup4\n      0xffffffffffffffffffffffffffffffffffffffff\n      and\n      mul\n      or\n      swap1\n      sstore\n      pop\n        /* \"@openzeppelin/contracts/access/Ownable.sol\":3083:3091  newOwner */\n      dup2\n        /* \"@openzeppelin/contracts/access/Ownable.sol\":3052:3092  OwnershipTransferred(oldOwner, newOwner) */\n      0xffffffffffffffffffffffffffffffffffffffff\n      and\n        /* \"@openzeppelin/contracts/access/Ownable.sol\":3073:3081  oldOwner */\n      dup2\n        /* \"@openzeppelin/contracts/access/Ownable.sol\":3052:3092  OwnershipTransferred(oldOwner, newOwner) */\n      0xffffffffffffffffffffffffffffffffffffffff\n      and\n      0x8be0079c531659141344cd1fd0a4f28419497f9722a3daafe3b4186f6b6457e0\n      mload(0x40)\n      mload(0x40)\n      dup1\n      swap2\n      sub\n      swap1\n      log3\n        /* \"@openzeppelin/contracts/access/Ownable.sol\":2975:3099  {... */\n      pop\n        /* \"@openzeppelin/contracts/access/Ownable.sol\":2912:3099  function _transferOwnership(address newOwner) internal virtual {... */\n      pop\n      jump\t// out\n        /* \"box/box_allocate.sol\":9090:9956  function calculateBuyAmount(bytes memory metaBytes,uint256 cnt) internal view returns(uint256,uint256){... */\n    tag_325:\n        /* \"box/box_allocate.sol\":9176:9183  uint256 */\n      0x00\n        /* \"box/box_allocate.sol\":9184:9191  uint256 */\n      dup1\n        /* \"box/box_allocate.sol\":9216:9217  0 */\n      0x00\n        /* \"box/box_allocate.sol\":9210:9213  cnt */\n      dup4\n        /* \"box/box_allocate.sol\":9210:9217  cnt > 0 */\n      gt\n        /* \"box/box_allocate.sol\":9202:9241  require(cnt > 0,\"Insufficient Box cnt\") */\n      tag_433\n      jumpi\n      mload(0x40)\n      0x08c379a000000000000000000000000000000000000000000000000000000000\n      dup2\n      mstore\n      0x04\n      add\n      tag_434\n      swap1\n      tag_262\n      jump\t// in\n    tag_434:\n      mload(0x40)\n      dup1\n      swap2\n      sub\n      swap1\n      revert\n    tag_433:\n        /* \"box/box_allocate.sol\":9251:9275  uint256 tradeTotalAmount */\n      0x00\n        /* \"box/box_allocate.sol\":9289:9311  uint256 tradeCntBefore */\n      dup1\n        /* \"box/box_allocate.sol\":9314:9323  _metaBoxs */\n      0x08\n        /* \"box/box_allocate.sol\":9324:9333  metaBytes */\n      dup7\n        /* \"box/box_allocate.sol\":9314:9334  _metaBoxs[metaBytes] */\n      mload(0x40)\n      tag_435\n      swap2\n      swap1\n      tag_188\n      jump\t// in\n    tag_435:\n      swap1\n      dup2\n      mstore\n      0x20\n      add\n      mload(0x40)\n      dup1\n      swap2\n      sub\n      swap1\n      keccak256\n        /* \"box/box_allocate.sol\":9314:9343  _metaBoxs[metaBytes].tradeCnt */\n      0x03\n      add\n      sload\n        /* \"box/box_allocate.sol\":9289:9343  uint256 tradeCntBefore = _metaBoxs[metaBytes].tradeCnt */\n      swap1\n      pop\n        /* \"box/box_allocate.sol\":9358:9367  uint256 i */\n      0x00\n        /* \"box/box_allocate.sol\":9353:9843  for (uint256 i = 0; i < cnt; i++) {... */\n    tag_436:\n        /* \"box/box_allocate.sol\":9377:9380  cnt */\n      dup6\n        /* \"box/box_allocate.sol\":9373:9374  i */\n      dup2\n        /* \"box/box_allocate.sol\":9373:9380  i < cnt */\n      lt\n        /* \"box/box_allocate.sol\":9353:9843  for (uint256 i = 0; i < cnt; i++) {... */\n      iszero\n      tag_437\n      jumpi\n        /* \"box/box_allocate.sol\":9401:9422  uint256 tradeCntAfter */\n      0x00\n        /* \"box/box_allocate.sol\":9425:9446  tradeCntBefore.add(1) */\n      tag_439\n        /* \"box/box_allocate.sol\":9444:9445  1 */\n      0x01\n        /* \"box/box_allocate.sol\":9425:9439  tradeCntBefore */\n      dup5\n        /* \"box/box_allocate.sol\":9425:9443  tradeCntBefore.add */\n      tag_198\n      swap1\n        /* \"box/box_allocate.sol\":9425:9446  tradeCntBefore.add(1) */\n      swap2\n      swap1\n      0xffffffff\n      and\n      jump\t// in\n    tag_439:\n        /* \"box/box_allocate.sol\":9401:9446  uint256 tradeCntAfter = tradeCntBefore.add(1) */\n      swap1\n      pop\n        /* \"box/box_allocate.sol\":9460:9473  uint256 price */\n      0x00\n        /* \"box/box_allocate.sol\":1028:1034  10**16 */\n      0x2386f26fc10000\n        /* \"box/box_allocate.sol\":9460:9489  uint256 price = PER_BOX_PRICE */\n      swap1\n      pop\n        /* \"box/box_allocate.sol\":1184:1187  100 */\n      0x64\n        /* \"box/box_allocate.sol\":9507:9520  tradeCntAfter */\n      dup3\n        /* \"box/box_allocate.sol\":9507:9535  tradeCntAfter > BOX_SALE_CNT */\n      gt\n        /* \"box/box_allocate.sol\":9503:9729  if (tradeCntAfter > BOX_SALE_CNT) {... */\n      iszero\n      tag_440\n      jumpi\n        /* \"box/box_allocate.sol\":9563:9573  _boxPrices */\n      0x0a\n        /* \"box/box_allocate.sol\":9563:9588  _boxPrices[tradeCntAfter] */\n      0x00\n        /* \"box/box_allocate.sol\":9574:9587  tradeCntAfter */\n      dup4\n        /* \"box/box_allocate.sol\":9563:9588  _boxPrices[tradeCntAfter] */\n      dup2\n      mstore\n      0x20\n      add\n      swap1\n      dup2\n      mstore\n      0x20\n      add\n      0x00\n      keccak256\n      sload\n        /* \"box/box_allocate.sol\":9555:9588  price = _boxPrices[tradeCntAfter] */\n      swap1\n      pop\n        /* \"box/box_allocate.sol\":1028:1034  10**16 */\n      0x2386f26fc10000\n        /* \"box/box_allocate.sol\":9610:9615  price */\n      dup2\n        /* \"box/box_allocate.sol\":9610:9632  price <= PER_BOX_PRICE */\n      gt\n        /* \"box/box_allocate.sol\":9606:9715  if (price <= PER_BOX_PRICE) {... */\n      tag_441\n      jumpi\n        /* \"box/box_allocate.sol\":9664:9696  calculateBoxPrice(tradeCntAfter) */\n      tag_442\n        /* \"box/box_allocate.sol\":9682:9695  tradeCntAfter */\n      dup3\n        /* \"box/box_allocate.sol\":9664:9681  calculateBoxPrice */\n      tag_158\n        /* \"box/box_allocate.sol\":9664:9696  calculateBoxPrice(tradeCntAfter) */\n      jump\t// in\n    tag_442:\n        /* \"box/box_allocate.sol\":9656:9696  price = calculateBoxPrice(tradeCntAfter) */\n      swap1\n      pop\n        /* \"box/box_allocate.sol\":9606:9715  if (price <= PER_BOX_PRICE) {... */\n    tag_441:\n        /* \"box/box_allocate.sol\":9503:9729  if (tradeCntAfter > BOX_SALE_CNT) {... */\n    tag_440:\n        /* \"box/box_allocate.sol\":9761:9788  tradeTotalAmount.add(price) */\n      tag_443\n        /* \"box/box_allocate.sol\":9782:9787  price */\n      dup2\n        /* \"box/box_allocate.sol\":9761:9777  tradeTotalAmount */\n      dup7\n        /* \"box/box_allocate.sol\":9761:9781  tradeTotalAmount.add */\n      tag_198\n      swap1\n        /* \"box/box_allocate.sol\":9761:9788  tradeTotalAmount.add(price) */\n      swap2\n      swap1\n      0xffffffff\n      and\n      jump\t// in\n    tag_443:\n        /* \"box/box_allocate.sol\":9742:9788  tradeTotalAmount = tradeTotalAmount.add(price) */\n      swap5\n      pop\n        /* \"box/box_allocate.sol\":9819:9832  tradeCntAfter */\n      dup2\n        /* \"box/box_allocate.sol\":9802:9832  tradeCntBefore = tradeCntAfter */\n      swap4\n      pop\n        /* \"box/box_allocate.sol\":9387:9843  {... */\n      pop\n      pop\n        /* \"box/box_allocate.sol\":9382:9385  i++ */\n      dup1\n      dup1\n      tag_444\n      swap1\n      tag_246\n      jump\t// in\n    tag_444:\n      swap2\n      pop\n      pop\n        /* \"box/box_allocate.sol\":9353:9843  for (uint256 i = 0; i < cnt; i++) {... */\n      jump(tag_436)\n    tag_437:\n      pop\n        /* \"box/box_allocate.sol\":9852:9863  uint256 fee */\n      0x00\n        /* \"box/box_allocate.sol\":9866:9910  tradeTotalAmount.mul(BOX_TRADE_FEE).div(100) */\n      tag_445\n        /* \"box/box_allocate.sol\":9906:9909  100 */\n      0x64\n        /* \"box/box_allocate.sol\":9866:9901  tradeTotalAmount.mul(BOX_TRADE_FEE) */\n      tag_446\n        /* \"box/box_allocate.sol\":9887:9900  BOX_TRADE_FEE */\n      sload(0x01)\n        /* \"box/box_allocate.sol\":9866:9882  tradeTotalAmount */\n      dup7\n        /* \"box/box_allocate.sol\":9866:9886  tradeTotalAmount.mul */\n      tag_197\n      swap1\n        /* \"box/box_allocate.sol\":9866:9901  tradeTotalAmount.mul(BOX_TRADE_FEE) */\n      swap2\n      swap1\n      0xffffffff\n      and\n      jump\t// in\n    tag_446:\n        /* \"box/box_allocate.sol\":9866:9905  tradeTotalAmount.mul(BOX_TRADE_FEE).div */\n      tag_430\n      swap1\n        /* \"box/box_allocate.sol\":9866:9910  tradeTotalAmount.mul(BOX_TRADE_FEE).div(100) */\n      swap2\n      swap1\n      0xffffffff\n      and\n      jump\t// in\n    tag_445:\n        /* \"box/box_allocate.sol\":9852:9910  uint256 fee = tradeTotalAmount.mul(BOX_TRADE_FEE).div(100) */\n      swap1\n      pop\n        /* \"box/box_allocate.sol\":9928:9944  tradeTotalAmount */\n      dup3\n        /* \"box/box_allocate.sol\":9945:9948  fee */\n      dup2\n        /* \"box/box_allocate.sol\":9920:9949  return (tradeTotalAmount,fee) */\n      swap5\n      pop\n      swap5\n      pop\n      pop\n      pop\n      pop\n        /* \"box/box_allocate.sol\":9090:9956  function calculateBuyAmount(bytes memory metaBytes,uint256 cnt) internal view returns(uint256,uint256){... */\n      swap3\n      pop\n      swap3\n      swap1\n      pop\n      jump\t// out\n        /* \"@openzeppelin/contracts/utils/Context.sol\":656:752  function _msgSender() internal view virtual returns (address) {... */\n    tag_351:\n        /* \"@openzeppelin/contracts/utils/Context.sol\":709:716  address */\n      0x00\n        /* \"@openzeppelin/contracts/utils/Context.sol\":735:745  msg.sender */\n      caller\n        /* \"@openzeppelin/contracts/utils/Context.sol\":728:745  return msg.sender */\n      swap1\n      pop\n        /* \"@openzeppelin/contracts/utils/Context.sol\":656:752  function _msgSender() internal view virtual returns (address) {... */\n      swap1\n      jump\t// out\n        /* \"@openzeppelin/contracts/utils/cryptography/ECDSA.sol\":3702:3957  function recover(bytes32 hash, bytes memory signature) internal pure returns (address) {... */\n    tag_355:\n        /* \"@openzeppelin/contracts/utils/cryptography/ECDSA.sol\":3780:3787  address */\n      0x00\n        /* \"@openzeppelin/contracts/utils/cryptography/ECDSA.sol\":3800:3817  address recovered */\n      dup1\n        /* \"@openzeppelin/contracts/utils/cryptography/ECDSA.sol\":3819:3837  RecoverError error */\n      0x00\n        /* \"@openzeppelin/contracts/utils/cryptography/ECDSA.sol\":3839:3855  bytes32 errorArg */\n      dup1\n        /* \"@openzeppelin/contracts/utils/cryptography/ECDSA.sol\":3859:3886  tryRecover(hash, signature) */\n      tag_449\n        /* \"@openzeppelin/contracts/utils/cryptography/ECDSA.sol\":3870:3874  hash */\n      dup7\n        /* \"@openzeppelin/contracts/utils/cryptography/ECDSA.sol\":3876:3885  signature */\n      dup7\n        /* \"@openzeppelin/contracts/utils/cryptography/ECDSA.sol\":3859:3869  tryRecover */\n      tag_450\n        /* \"@openzeppelin/contracts/utils/cryptography/ECDSA.sol\":3859:3886  tryRecover(hash, signature) */\n      jump\t// in\n    tag_449:\n        /* \"@openzeppelin/contracts/utils/cryptography/ECDSA.sol\":3799:3886  (address recovered, RecoverError error, bytes32 errorArg) = tryRecover(hash, signature) */\n      swap3\n      pop\n      swap3\n      pop\n      swap3\n      pop\n        /* \"@openzeppelin/contracts/utils/cryptography/ECDSA.sol\":3896:3924  _throwError(error, errorArg) */\n      tag_451\n        /* \"@openzeppelin/contracts/utils/cryptography/ECDSA.sol\":3908:3913  error */\n      dup3\n        /* \"@openzeppelin/contracts/utils/cryptography/ECDSA.sol\":3915:3923  errorArg */\n      dup3\n        /* \"@openzeppelin/contracts/utils/cryptography/ECDSA.sol\":3896:3907  _throwError */\n      tag_452\n        /* \"@openzeppelin/contracts/utils/cryptography/ECDSA.sol\":3896:3924  _throwError(error, errorArg) */\n      jump\t// in\n    tag_451:\n        /* \"@openzeppelin/contracts/utils/cryptography/ECDSA.sol\":3941:3950  recovered */\n      dup3\n        /* \"@openzeppelin/contracts/utils/cryptography/ECDSA.sol\":3934:3950  return recovered */\n      swap4\n      pop\n      pop\n      pop\n      pop\n        /* \"@openzeppelin/contracts/utils/cryptography/ECDSA.sol\":3702:3957  function recover(bytes32 hash, bytes memory signature) internal pure returns (address) {... */\n      swap3\n      swap2\n      pop\n      pop\n      jump\t// out\n        /* \"box/box_allocate.sol\":12960:13232  function sqrt(uint256 y) internal pure returns (uint256) {... */\n    tag_370:\n        /* \"box/box_allocate.sol\":13008:13015  uint256 */\n      0x00\n        /* \"box/box_allocate.sol\":13036:13037  0 */\n      dup1\n        /* \"box/box_allocate.sol\":13031:13032  y */\n      dup3\n        /* \"box/box_allocate.sol\":13031:13037  y == 0 */\n      eq\n        /* \"box/box_allocate.sol\":13031:13047  y == 0 || y == 1 */\n      dup1\n      tag_454\n      jumpi\n      pop\n        /* \"box/box_allocate.sol\":13046:13047  1 */\n      0x01\n        /* \"box/box_allocate.sol\":13041:13042  y */\n      dup3\n        /* \"box/box_allocate.sol\":13041:13047  y == 1 */\n      eq\n        /* \"box/box_allocate.sol\":13031:13047  y == 0 || y == 1 */\n    tag_454:\n        /* \"box/box_allocate.sol\":13027:13057  if (y == 0 || y == 1) return y */\n      iszero\n      tag_455\n      jumpi\n        /* \"box/box_allocate.sol\":13056:13057  y */\n      dup2\n        /* \"box/box_allocate.sol\":13049:13057  return y */\n      swap1\n      pop\n      jump(tag_453)\n        /* \"box/box_allocate.sol\":13027:13057  if (y == 0 || y == 1) return y */\n    tag_455:\n        /* \"box/box_allocate.sol\":13075:13084  uint256 z */\n      0x00\n        /* \"box/box_allocate.sol\":13097:13098  2 */\n      0x02\n        /* \"box/box_allocate.sol\":13092:13093  1 */\n      0x01\n        /* \"box/box_allocate.sol\":13088:13089  y */\n      dup5\n        /* \"box/box_allocate.sol\":13088:13093  y + 1 */\n      tag_456\n      swap2\n      swap1\n      tag_394\n      jump\t// in\n    tag_456:\n        /* \"box/box_allocate.sol\":13087:13098  (y + 1) / 2 */\n      tag_457\n      swap2\n      swap1\n      tag_458\n      jump\t// in\n    tag_457:\n        /* \"box/box_allocate.sol\":13075:13098  uint256 z = (y + 1) / 2 */\n      swap1\n      pop\n        /* \"box/box_allocate.sol\":13108:13117  uint256 x */\n      0x00\n        /* \"box/box_allocate.sol\":13120:13121  y */\n      dup4\n        /* \"box/box_allocate.sol\":13108:13121  uint256 x = y */\n      swap1\n      pop\n        /* \"box/box_allocate.sol\":13131:13208  while (z < x) {... */\n    tag_459:\n        /* \"box/box_allocate.sol\":13142:13143  x */\n      dup1\n        /* \"box/box_allocate.sol\":13138:13139  z */\n      dup3\n        /* \"box/box_allocate.sol\":13138:13143  z < x */\n      lt\n        /* \"box/box_allocate.sol\":13131:13208  while (z < x) {... */\n      iszero\n      tag_460\n      jumpi\n        /* \"box/box_allocate.sol\":13163:13164  z */\n      dup2\n        /* \"box/box_allocate.sol\":13159:13164  x = z */\n      swap1\n      pop\n        /* \"box/box_allocate.sol\":13196:13197  2 */\n      0x02\n        /* \"box/box_allocate.sol\":13191:13192  z */\n      dup3\n        /* \"box/box_allocate.sol\":13187:13188  z */\n      dup4\n        /* \"box/box_allocate.sol\":13183:13184  y */\n      dup7\n        /* \"box/box_allocate.sol\":13183:13188  y / z */\n      tag_461\n      swap2\n      swap1\n      tag_458\n      jump\t// in\n    tag_461:\n        /* \"box/box_allocate.sol\":13183:13192  y / z + z */\n      tag_462\n      swap2\n      swap1\n      tag_394\n      jump\t// in\n    tag_462:\n        /* \"box/box_allocate.sol\":13182:13197  (y / z + z) / 2 */\n      tag_463\n      swap2\n      swap1\n      tag_458\n      jump\t// in\n    tag_463:\n        /* \"box/box_allocate.sol\":13178:13197  z = (y / z + z) / 2 */\n      swap2\n      pop\n        /* \"box/box_allocate.sol\":13131:13208  while (z < x) {... */\n      jump(tag_459)\n    tag_460:\n        /* \"box/box_allocate.sol\":13224:13225  x */\n      dup1\n        /* \"box/box_allocate.sol\":13217:13225  return x */\n      swap3\n      pop\n      pop\n      pop\n        /* \"box/box_allocate.sol\":12960:13232  function sqrt(uint256 y) internal pure returns (uint256) {... */\n    tag_453:\n      swap2\n      swap1\n      pop\n      jump\t// out\n        /* \"@openzeppelin/contracts/utils/math/SafeMath.sol\":3850:3946  function div(uint256 a, uint256 b) internal pure returns (uint256) {... */\n    tag_430:\n        /* \"@openzeppelin/contracts/utils/math/SafeMath.sol\":3908:3915  uint256 */\n      0x00\n        /* \"@openzeppelin/contracts/utils/math/SafeMath.sol\":3938:3939  b */\n      dup2\n        /* \"@openzeppelin/contracts/utils/math/SafeMath.sol\":3934:3935  a */\n      dup4\n        /* \"@openzeppelin/contracts/utils/math/SafeMath.sol\":3934:3939  a / b */\n      tag_465\n      swap2\n      swap1\n      tag_458\n      jump\t// in\n    tag_465:\n        /* \"@openzeppelin/contracts/utils/math/SafeMath.sol\":3927:3939  return a / b */\n      swap1\n      pop\n        /* \"@openzeppelin/contracts/utils/math/SafeMath.sol\":3850:3946  function div(uint256 a, uint256 b) internal pure returns (uint256) {... */\n      swap3\n      swap2\n      pop\n      pop\n      jump\t// out\n        /* \"@openzeppelin/contracts/utils/cryptography/ECDSA.sol\":2129:2895  function tryRecover(bytes32 hash, bytes memory signature) internal pure returns (address, RecoverError, bytes32) {... */\n    tag_450:\n        /* \"@openzeppelin/contracts/utils/cryptography/ECDSA.sol\":2210:2217  address */\n      0x00\n        /* \"@openzeppelin/contracts/utils/cryptography/ECDSA.sol\":2219:2231  RecoverError */\n      dup1\n        /* \"@openzeppelin/contracts/utils/cryptography/ECDSA.sol\":2233:2240  bytes32 */\n      0x00\n        /* \"@openzeppelin/contracts/utils/cryptography/ECDSA.sol\":2276:2278  65 */\n      0x41\n        /* \"@openzeppelin/contracts/utils/cryptography/ECDSA.sol\":2256:2265  signature */\n      dup5\n        /* \"@openzeppelin/contracts/utils/cryptography/ECDSA.sol\":2256:2272  signature.length */\n      mload\n        /* \"@openzeppelin/contracts/utils/cryptography/ECDSA.sol\":2256:2278  signature.length == 65 */\n      sub\n        /* \"@openzeppelin/contracts/utils/cryptography/ECDSA.sol\":2252:2889  if (signature.length == 65) {... */\n      tag_467\n      jumpi\n        /* \"@openzeppelin/contracts/utils/cryptography/ECDSA.sol\":2294:2303  bytes32 r */\n      0x00\n        /* \"@openzeppelin/contracts/utils/cryptography/ECDSA.sol\":2317:2326  bytes32 s */\n      dup1\n        /* \"@openzeppelin/contracts/utils/cryptography/ECDSA.sol\":2340:2347  uint8 v */\n      0x00\n        /* \"@openzeppelin/contracts/utils/cryptography/ECDSA.sol\":2592:2596  0x20 */\n      0x20\n        /* \"@openzeppelin/contracts/utils/cryptography/ECDSA.sol\":2581:2590  signature */\n      dup8\n        /* \"@openzeppelin/contracts/utils/cryptography/ECDSA.sol\":2577:2597  add(signature, 0x20) */\n      add\n        /* \"@openzeppelin/contracts/utils/cryptography/ECDSA.sol\":2571:2598  mload(add(signature, 0x20)) */\n      mload\n        /* \"@openzeppelin/contracts/utils/cryptography/ECDSA.sol\":2566:2598  r := mload(add(signature, 0x20)) */\n      swap3\n      pop\n        /* \"@openzeppelin/contracts/utils/cryptography/ECDSA.sol\":2641:2645  0x40 */\n      0x40\n        /* \"@openzeppelin/contracts/utils/cryptography/ECDSA.sol\":2630:2639  signature */\n      dup8\n        /* \"@openzeppelin/contracts/utils/cryptography/ECDSA.sol\":2626:2646  add(signature, 0x40) */\n      add\n        /* \"@openzeppelin/contracts/utils/cryptography/ECDSA.sol\":2620:2647  mload(add(signature, 0x40)) */\n      mload\n        /* \"@openzeppelin/contracts/utils/cryptography/ECDSA.sol\":2615:2647  s := mload(add(signature, 0x40)) */\n      swap2\n      pop\n        /* \"@openzeppelin/contracts/utils/cryptography/ECDSA.sol\":2698:2702  0x60 */\n      0x60\n        /* \"@openzeppelin/contracts/utils/cryptography/ECDSA.sol\":2687:2696  signature */\n      dup8\n        /* \"@openzeppelin/contracts/utils/cryptography/ECDSA.sol\":2683:2703  add(signature, 0x60) */\n      add\n        /* \"@openzeppelin/contracts/utils/cryptography/ECDSA.sol\":2677:2704  mload(add(signature, 0x60)) */\n      mload\n        /* \"@openzeppelin/contracts/utils/cryptography/ECDSA.sol\":2674:2675  0 */\n      0x00\n        /* \"@openzeppelin/contracts/utils/cryptography/ECDSA.sol\":2669:2705  byte(0, mload(add(signature, 0x60))) */\n      byte\n        /* \"@openzeppelin/contracts/utils/cryptography/ECDSA.sol\":2664:2705  v := byte(0, mload(add(signature, 0x60))) */\n      swap1\n      pop\n        /* \"@openzeppelin/contracts/utils/cryptography/ECDSA.sol\":2739:2764  tryRecover(hash, v, r, s) */\n      tag_468\n        /* \"@openzeppelin/contracts/utils/cryptography/ECDSA.sol\":2750:2754  hash */\n      dup9\n        /* \"@openzeppelin/contracts/utils/cryptography/ECDSA.sol\":2756:2757  v */\n      dup3\n        /* \"@openzeppelin/contracts/utils/cryptography/ECDSA.sol\":2759:2760  r */\n      dup6\n        /* \"@openzeppelin/contracts/utils/cryptography/ECDSA.sol\":2762:2763  s */\n      dup6\n        /* \"@openzeppelin/contracts/utils/cryptography/ECDSA.sol\":2739:2749  tryRecover */\n      tag_469\n        /* \"@openzeppelin/contracts/utils/cryptography/ECDSA.sol\":2739:2764  tryRecover(hash, v, r, s) */\n      jump\t// in\n    tag_468:\n        /* \"@openzeppelin/contracts/utils/cryptography/ECDSA.sol\":2732:2764  return tryRecover(hash, v, r, s) */\n      swap6\n      pop\n      swap6\n      pop\n      swap6\n      pop\n      pop\n      pop\n      pop\n      jump(tag_466)\n        /* \"@openzeppelin/contracts/utils/cryptography/ECDSA.sol\":2252:2889  if (signature.length == 65) {... */\n    tag_467:\n        /* \"@openzeppelin/contracts/utils/cryptography/ECDSA.sol\":2811:2812  0 */\n      0x00\n        /* \"@openzeppelin/contracts/utils/cryptography/ECDSA.sol\":2815:2850  RecoverError.InvalidSignatureLength */\n      0x02\n        /* \"@openzeppelin/contracts/utils/cryptography/ECDSA.sol\":2860:2869  signature */\n      dup6\n        /* \"@openzeppelin/contracts/utils/cryptography/ECDSA.sol\":2860:2876  signature.length */\n      mload\n        /* \"@openzeppelin/contracts/utils/cryptography/ECDSA.sol\":2852:2877  bytes32(signature.length) */\n      0x00\n      shl\n        /* \"@openzeppelin/contracts/utils/cryptography/ECDSA.sol\":2795:2878  return (address(0), RecoverError.InvalidSignatureLength, bytes32(signature.length)) */\n      swap3\n      pop\n      swap3\n      pop\n      swap3\n      pop\n        /* \"@openzeppelin/contracts/utils/cryptography/ECDSA.sol\":2129:2895  function tryRecover(bytes32 hash, bytes memory signature) internal pure returns (address, RecoverError, bytes32) {... */\n    tag_466:\n      swap3\n      pop\n      swap3\n      pop\n      swap3\n      jump\t// out\n        /* \"@openzeppelin/contracts/utils/cryptography/ECDSA.sol\":7196:7728  function _throwError(RecoverError error, bytes32 errorArg) private pure {... */\n    tag_452:\n        /* \"@openzeppelin/contracts/utils/cryptography/ECDSA.sol\":7291:7311  RecoverError.NoError */\n      0x00\n        /* \"@openzeppelin/contracts/utils/cryptography/ECDSA.sol\":7282:7311  error == RecoverError.NoError */\n      0x03\n      dup2\n      gt\n      iszero\n      tag_472\n      jumpi\n      tag_473\n      tag_474\n      jump\t// in\n    tag_473:\n    tag_472:\n        /* \"@openzeppelin/contracts/utils/cryptography/ECDSA.sol\":7282:7287  error */\n      dup3\n        /* \"@openzeppelin/contracts/utils/cryptography/ECDSA.sol\":7282:7311  error == RecoverError.NoError */\n      0x03\n      dup2\n      gt\n      iszero\n      tag_475\n      jumpi\n      tag_476\n      tag_474\n      jump\t// in\n    tag_476:\n    tag_475:\n      sub\n        /* \"@openzeppelin/contracts/utils/cryptography/ECDSA.sol\":7278:7722  if (error == RecoverError.NoError) {... */\n      iszero\n        /* \"@openzeppelin/contracts/utils/cryptography/ECDSA.sol\":7327:7334  return; */\n      tag_471\n        /* \"@openzeppelin/contracts/utils/cryptography/ECDSA.sol\":7278:7722  if (error == RecoverError.NoError) {... */\n      jumpi\n        /* \"@openzeppelin/contracts/utils/cryptography/ECDSA.sol\":7387:7416  RecoverError.InvalidSignature */\n      0x01\n        /* \"@openzeppelin/contracts/utils/cryptography/ECDSA.sol\":7378:7416  error == RecoverError.InvalidSignature */\n      0x03\n      dup2\n      gt\n      iszero\n      tag_479\n      jumpi\n      tag_480\n      tag_474\n      jump\t// in\n    tag_480:\n    tag_479:\n        /* \"@openzeppelin/contracts/utils/cryptography/ECDSA.sol\":7378:7383  error */\n      dup3\n        /* \"@openzeppelin/contracts/utils/cryptography/ECDSA.sol\":7378:7416  error == RecoverError.InvalidSignature */\n      0x03\n      dup2\n      gt\n      iszero\n      tag_481\n      jumpi\n      tag_482\n      tag_474\n      jump\t// in\n    tag_482:\n    tag_481:\n      sub\n        /* \"@openzeppelin/contracts/utils/cryptography/ECDSA.sol\":7374:7722  if (error == RecoverError.InvalidSignature) {... */\n      tag_483\n      jumpi\n        /* \"@openzeppelin/contracts/utils/cryptography/ECDSA.sol\":7439:7462  ECDSAInvalidSignature() */\n      mload(0x40)\n      0xf645eedf00000000000000000000000000000000000000000000000000000000\n      dup2\n      mstore\n      0x04\n      add\n      mload(0x40)\n      dup1\n      swap2\n      sub\n      swap1\n      revert\n        /* \"@openzeppelin/contracts/utils/cryptography/ECDSA.sol\":7374:7722  if (error == RecoverError.InvalidSignature) {... */\n    tag_483:\n        /* \"@openzeppelin/contracts/utils/cryptography/ECDSA.sol\":7492:7527  RecoverError.InvalidSignatureLength */\n      0x02\n        /* \"@openzeppelin/contracts/utils/cryptography/ECDSA.sol\":7483:7527  error == RecoverError.InvalidSignatureLength */\n      0x03\n      dup2\n      gt\n      iszero\n      tag_485\n      jumpi\n      tag_486\n      tag_474\n      jump\t// in\n    tag_486:\n    tag_485:\n        /* \"@openzeppelin/contracts/utils/cryptography/ECDSA.sol\":7483:7488  error */\n      dup3\n        /* \"@openzeppelin/contracts/utils/cryptography/ECDSA.sol\":7483:7527  error == RecoverError.InvalidSignatureLength */\n      0x03\n      dup2\n      gt\n      iszero\n      tag_487\n      jumpi\n      tag_488\n      tag_474\n      jump\t// in\n    tag_488:\n    tag_487:\n      sub\n        /* \"@openzeppelin/contracts/utils/cryptography/ECDSA.sol\":7479:7722  if (error == RecoverError.InvalidSignatureLength) {... */\n      tag_489\n      jumpi\n        /* \"@openzeppelin/contracts/utils/cryptography/ECDSA.sol\":7586:7594  errorArg */\n      dup1\n        /* \"@openzeppelin/contracts/utils/cryptography/ECDSA.sol\":7578:7595  uint256(errorArg) */\n      0x00\n      shr\n        /* \"@openzeppelin/contracts/utils/cryptography/ECDSA.sol\":7550:7596  ECDSAInvalidSignatureLength(uint256(errorArg)) */\n      mload(0x40)\n      0xfce698f700000000000000000000000000000000000000000000000000000000\n      dup2\n      mstore\n      0x04\n      add\n      tag_490\n      swap2\n      swap1\n      tag_43\n      jump\t// in\n    tag_490:\n      mload(0x40)\n      dup1\n      swap2\n      sub\n      swap1\n      revert\n        /* \"@openzeppelin/contracts/utils/cryptography/ECDSA.sol\":7479:7722  if (error == RecoverError.InvalidSignatureLength) {... */\n    tag_489:\n        /* \"@openzeppelin/contracts/utils/cryptography/ECDSA.sol\":7626:7656  RecoverError.InvalidSignatureS */\n      0x03\n        /* \"@openzeppelin/contracts/utils/cryptography/ECDSA.sol\":7617:7656  error == RecoverError.InvalidSignatureS */\n      dup1\n      dup2\n      gt\n      iszero\n      tag_492\n      jumpi\n      tag_493\n      tag_474\n      jump\t// in\n    tag_493:\n    tag_492:\n        /* \"@openzeppelin/contracts/utils/cryptography/ECDSA.sol\":7617:7622  error */\n      dup3\n        /* \"@openzeppelin/contracts/utils/cryptography/ECDSA.sol\":7617:7656  error == RecoverError.InvalidSignatureS */\n      0x03\n      dup2\n      gt\n      iszero\n      tag_494\n      jumpi\n      tag_495\n      tag_474\n      jump\t// in\n    tag_495:\n    tag_494:\n      sub\n        /* \"@openzeppelin/contracts/utils/cryptography/ECDSA.sol\":7613:7722  if (error == RecoverError.InvalidSignatureS) {... */\n      tag_496\n      jumpi\n        /* \"@openzeppelin/contracts/utils/cryptography/ECDSA.sol\":7702:7710  errorArg */\n      dup1\n        /* \"@openzeppelin/contracts/utils/cryptography/ECDSA.sol\":7679:7711  ECDSAInvalidSignatureS(errorArg) */\n      mload(0x40)\n      0xd78bce0c00000000000000000000000000000000000000000000000000000000\n      dup2\n      mstore\n      0x04\n      add\n      tag_497\n      swap2\n      swap1\n      tag_498\n      jump\t// in\n    tag_497:\n      mload(0x40)\n      dup1\n      swap2\n      sub\n      swap1\n      revert\n        /* \"@openzeppelin/contracts/utils/cryptography/ECDSA.sol\":7613:7722  if (error == RecoverError.InvalidSignatureS) {... */\n    tag_496:\n        /* \"@openzeppelin/contracts/utils/cryptography/ECDSA.sol\":7196:7728  function _throwError(RecoverError error, bytes32 errorArg) private pure {... */\n    tag_471:\n      pop\n      pop\n      jump\t// out\n        /* \"@openzeppelin/contracts/utils/cryptography/ECDSA.sol\":5140:6670  function tryRecover(... */\n    tag_469:\n        /* \"@openzeppelin/contracts/utils/cryptography/ECDSA.sol\":5266:5273  address */\n      0x00\n        /* \"@openzeppelin/contracts/utils/cryptography/ECDSA.sol\":5275:5287  RecoverError */\n      dup1\n        /* \"@openzeppelin/contracts/utils/cryptography/ECDSA.sol\":5289:5296  bytes32 */\n      0x00\n        /* \"@openzeppelin/contracts/utils/cryptography/ECDSA.sol\":6199:6265  0x7FFFFFFFFFFFFFFFFFFFFFFFFFFFFFFF5D576E7357A4501DDFE92F46681B20A0 */\n      0x7fffffffffffffffffffffffffffffff5d576e7357a4501ddfe92f46681b20a0\n        /* \"@openzeppelin/contracts/utils/cryptography/ECDSA.sol\":6194:6195  s */\n      dup5\n        /* \"@openzeppelin/contracts/utils/cryptography/ECDSA.sol\":6186:6196  uint256(s) */\n      0x00\n      shr\n        /* \"@openzeppelin/contracts/utils/cryptography/ECDSA.sol\":6186:6265  uint256(s) > 0x7FFFFFFFFFFFFFFFFFFFFFFFFFFFFFFF5D576E7357A4501DDFE92F46681B20A0 */\n      gt\n        /* \"@openzeppelin/contracts/utils/cryptography/ECDSA.sol\":6182:6346  if (uint256(s) > 0x7FFFFFFFFFFFFFFFFFFFFFFFFFFFFFFF5D576E7357A4501DDFE92F46681B20A0) {... */\n      iszero\n      tag_500\n      jumpi\n        /* \"@openzeppelin/contracts/utils/cryptography/ECDSA.sol\":6297:6298  0 */\n      0x00\n        /* \"@openzeppelin/contracts/utils/cryptography/ECDSA.sol\":6301:6331  RecoverError.InvalidSignatureS */\n      0x03\n        /* \"@openzeppelin/contracts/utils/cryptography/ECDSA.sol\":6333:6334  s */\n      dup6\n        /* \"@openzeppelin/contracts/utils/cryptography/ECDSA.sol\":6281:6335  return (address(0), RecoverError.InvalidSignatureS, s) */\n      swap3\n      pop\n      swap3\n      pop\n      swap3\n      pop\n      jump(tag_499)\n        /* \"@openzeppelin/contracts/utils/cryptography/ECDSA.sol\":6182:6346  if (uint256(s) > 0x7FFFFFFFFFFFFFFFFFFFFFFFFFFFFFFF5D576E7357A4501DDFE92F46681B20A0) {... */\n    tag_500:\n        /* \"@openzeppelin/contracts/utils/cryptography/ECDSA.sol\":6440:6454  address signer */\n      0x00\n        /* \"@openzeppelin/contracts/utils/cryptography/ECDSA.sol\":6457:6481  ecrecover(hash, v, r, s) */\n      0x01\n        /* \"@openzeppelin/contracts/utils/cryptography/ECDSA.sol\":6467:6471  hash */\n      dup9\n        /* \"@openzeppelin/contracts/utils/cryptography/ECDSA.sol\":6473:6474  v */\n      dup9\n        /* \"@openzeppelin/contracts/utils/cryptography/ECDSA.sol\":6476:6477  r */\n      dup9\n        /* \"@openzeppelin/contracts/utils/cryptography/ECDSA.sol\":6479:6480  s */\n      dup9\n        /* \"@openzeppelin/contracts/utils/cryptography/ECDSA.sol\":6457:6481  ecrecover(hash, v, r, s) */\n      mload(0x40)\n      0x00\n      dup2\n      mstore\n      0x20\n      add\n      0x40\n      mstore\n      mload(0x40)\n      tag_501\n      swap5\n      swap4\n      swap3\n      swap2\n      swap1\n      tag_502\n      jump\t// in\n    tag_501:\n      0x20\n      mload(0x40)\n      0x20\n      dup2\n      sub\n      swap1\n      dup1\n      dup5\n      sub\n      swap1\n      dup6\n      gas\n      staticcall\n      iszero\n      dup1\n      iszero\n      tag_504\n      jumpi\n      returndatasize\n      0x00\n      dup1\n      returndatacopy\n      revert(0x00, returndatasize)\n    tag_504:\n      pop\n      pop\n      pop\n      mload(sub(mload(0x40), 0x20))\n        /* \"@openzeppelin/contracts/utils/cryptography/ECDSA.sol\":6440:6481  address signer = ecrecover(hash, v, r, s) */\n      swap1\n      pop\n        /* \"@openzeppelin/contracts/utils/cryptography/ECDSA.sol\":6513:6514  0 */\n      0x00\n        /* \"@openzeppelin/contracts/utils/cryptography/ECDSA.sol\":6495:6515  signer == address(0) */\n      0xffffffffffffffffffffffffffffffffffffffff\n      and\n        /* \"@openzeppelin/contracts/utils/cryptography/ECDSA.sol\":6495:6501  signer */\n      dup2\n        /* \"@openzeppelin/contracts/utils/cryptography/ECDSA.sol\":6495:6515  signer == address(0) */\n      0xffffffffffffffffffffffffffffffffffffffff\n      and\n      sub\n        /* \"@openzeppelin/contracts/utils/cryptography/ECDSA.sol\":6491:6604  if (signer == address(0)) {... */\n      tag_505\n      jumpi\n        /* \"@openzeppelin/contracts/utils/cryptography/ECDSA.sol\":6547:6548  0 */\n      0x00\n        /* \"@openzeppelin/contracts/utils/cryptography/ECDSA.sol\":6551:6580  RecoverError.InvalidSignature */\n      0x01\n        /* \"@openzeppelin/contracts/utils/cryptography/ECDSA.sol\":6590:6591  0 */\n      0x00\n        /* \"@openzeppelin/contracts/utils/cryptography/ECDSA.sol\":6582:6592  bytes32(0) */\n      dup1\n      shl\n        /* \"@openzeppelin/contracts/utils/cryptography/ECDSA.sol\":6531:6593  return (address(0), RecoverError.InvalidSignature, bytes32(0)) */\n      swap4\n      pop\n      swap4\n      pop\n      swap4\n      pop\n      pop\n      jump(tag_499)\n        /* \"@openzeppelin/contracts/utils/cryptography/ECDSA.sol\":6491:6604  if (signer == address(0)) {... */\n    tag_505:\n        /* \"@openzeppelin/contracts/utils/cryptography/ECDSA.sol\":6622:6628  signer */\n      dup1\n        /* \"@openzeppelin/contracts/utils/cryptography/ECDSA.sol\":6630:6650  RecoverError.NoError */\n      0x00\n        /* \"@openzeppelin/contracts/utils/cryptography/ECDSA.sol\":6660:6661  0 */\n      dup1\n        /* \"@openzeppelin/contracts/utils/cryptography/ECDSA.sol\":6652:6662  bytes32(0) */\n      0x00\n      shl\n        /* \"@openzeppelin/contracts/utils/cryptography/ECDSA.sol\":6614:6663  return (signer, RecoverError.NoError, bytes32(0)) */\n      swap4\n      pop\n      swap4\n      pop\n      swap4\n      pop\n      pop\n        /* \"@openzeppelin/contracts/utils/cryptography/ECDSA.sol\":5140:6670  function tryRecover(... */\n    tag_499:\n      swap5\n      pop\n      swap5\n      pop\n      swap5\n      swap2\n      pop\n      pop\n      jump\t// out\n        /* \"#utility.yul\":7:84   */\n    tag_506:\n        /* \"#utility.yul\":44:51   */\n      0x00\n        /* \"#utility.yul\":73:78   */\n      dup2\n        /* \"#utility.yul\":62:78   */\n      swap1\n      pop\n        /* \"#utility.yul\":7:84   */\n      swap2\n      swap1\n      pop\n      jump\t// out\n        /* \"#utility.yul\":90:208   */\n    tag_507:\n        /* \"#utility.yul\":177:201   */\n      tag_605\n        /* \"#utility.yul\":195:200   */\n      dup2\n        /* \"#utility.yul\":177:201   */\n      tag_506\n      jump\t// in\n    tag_605:\n        /* \"#utility.yul\":172:175   */\n      dup3\n        /* \"#utility.yul\":165:202   */\n      mstore\n        /* \"#utility.yul\":90:208   */\n      pop\n      pop\n      jump\t// out\n        /* \"#utility.yul\":214:436   */\n    tag_43:\n        /* \"#utility.yul\":307:311   */\n      0x00\n        /* \"#utility.yul\":345:347   */\n      0x20\n        /* \"#utility.yul\":334:343   */\n      dup3\n        /* \"#utility.yul\":330:348   */\n      add\n        /* \"#utility.yul\":322:348   */\n      swap1\n      pop\n        /* \"#utility.yul\":358:429   */\n      tag_607\n        /* \"#utility.yul\":426:427   */\n      0x00\n        /* \"#utility.yul\":415:424   */\n      dup4\n        /* \"#utility.yul\":411:428   */\n      add\n        /* \"#utility.yul\":402:408   */\n      dup5\n        /* \"#utility.yul\":358:429   */\n      tag_507\n      jump\t// in\n    tag_607:\n        /* \"#utility.yul\":214:436   */\n      swap3\n      swap2\n      pop\n      pop\n      jump\t// out\n        /* \"#utility.yul\":442:517   */\n    tag_508:\n        /* \"#utility.yul\":475:481   */\n      0x00\n        /* \"#utility.yul\":508:510   */\n      0x40\n        /* \"#utility.yul\":502:511   */\n      mload\n        /* \"#utility.yul\":492:511   */\n      swap1\n      pop\n        /* \"#utility.yul\":442:517   */\n      swap1\n      jump\t// out\n        /* \"#utility.yul\":523:640   */\n    tag_509:\n        /* \"#utility.yul\":632:633   */\n      0x00\n        /* \"#utility.yul\":629:630   */\n      dup1\n        /* \"#utility.yul\":622:634   */\n      revert\n        /* \"#utility.yul\":646:763   */\n    tag_510:\n        /* \"#utility.yul\":755:756   */\n      0x00\n        /* \"#utility.yul\":752:753   */\n      dup1\n        /* \"#utility.yul\":745:757   */\n      revert\n        /* \"#utility.yul\":769:886   */\n    tag_511:\n        /* \"#utility.yul\":878:879   */\n      0x00\n        /* \"#utility.yul\":875:876   */\n      dup1\n        /* \"#utility.yul\":868:880   */\n      revert\n        /* \"#utility.yul\":892:1009   */\n    tag_512:\n        /* \"#utility.yul\":1001:1002   */\n      0x00\n        /* \"#utility.yul\":998:999   */\n      dup1\n        /* \"#utility.yul\":991:1003   */\n      revert\n        /* \"#utility.yul\":1015:1117   */\n    tag_513:\n        /* \"#utility.yul\":1056:1062   */\n      0x00\n        /* \"#utility.yul\":1107:1109   */\n      0x1f\n        /* \"#utility.yul\":1103:1110   */\n      not\n        /* \"#utility.yul\":1098:1100   */\n      0x1f\n        /* \"#utility.yul\":1091:1096   */\n      dup4\n        /* \"#utility.yul\":1087:1101   */\n      add\n        /* \"#utility.yul\":1083:1111   */\n      and\n        /* \"#utility.yul\":1073:1111   */\n      swap1\n      pop\n        /* \"#utility.yul\":1015:1117   */\n      swap2\n      swap1\n      pop\n      jump\t// out\n        /* \"#utility.yul\":1123:1303   */\n    tag_514:\n        /* \"#utility.yul\":1171:1248   */\n      0x4e487b7100000000000000000000000000000000000000000000000000000000\n        /* \"#utility.yul\":1168:1169   */\n      0x00\n        /* \"#utility.yul\":1161:1249   */\n      mstore\n        /* \"#utility.yul\":1268:1272   */\n      0x41\n        /* \"#utility.yul\":1265:1266   */\n      0x04\n        /* \"#utility.yul\":1258:1273   */\n      mstore\n        /* \"#utility.yul\":1292:1296   */\n      0x24\n        /* \"#utility.yul\":1289:1290   */\n      0x00\n        /* \"#utility.yul\":1282:1297   */\n      revert\n        /* \"#utility.yul\":1309:1590   */\n    tag_515:\n        /* \"#utility.yul\":1392:1419   */\n      tag_616\n        /* \"#utility.yul\":1414:1418   */\n      dup3\n        /* \"#utility.yul\":1392:1419   */\n      tag_513\n      jump\t// in\n    tag_616:\n        /* \"#utility.yul\":1384:1390   */\n      dup2\n        /* \"#utility.yul\":1380:1420   */\n      add\n        /* \"#utility.yul\":1522:1528   */\n      dup2\n        /* \"#utility.yul\":1510:1520   */\n      dup2\n        /* \"#utility.yul\":1507:1529   */\n      lt\n        /* \"#utility.yul\":1486:1504   */\n      0xffffffffffffffff\n        /* \"#utility.yul\":1474:1484   */\n      dup3\n        /* \"#utility.yul\":1471:1505   */\n      gt\n        /* \"#utility.yul\":1468:1530   */\n      or\n        /* \"#utility.yul\":1465:1553   */\n      iszero\n      tag_617\n      jumpi\n        /* \"#utility.yul\":1533:1551   */\n      tag_618\n      tag_514\n      jump\t// in\n    tag_618:\n        /* \"#utility.yul\":1465:1553   */\n    tag_617:\n        /* \"#utility.yul\":1573:1583   */\n      dup1\n        /* \"#utility.yul\":1569:1571   */\n      0x40\n        /* \"#utility.yul\":1562:1584   */\n      mstore\n        /* \"#utility.yul\":1352:1590   */\n      pop\n        /* \"#utility.yul\":1309:1590   */\n      pop\n      pop\n      jump\t// out\n        /* \"#utility.yul\":1596:1725   */\n    tag_516:\n        /* \"#utility.yul\":1630:1636   */\n      0x00\n        /* \"#utility.yul\":1657:1677   */\n      tag_620\n      tag_508\n      jump\t// in\n    tag_620:\n        /* \"#utility.yul\":1647:1677   */\n      swap1\n      pop\n        /* \"#utility.yul\":1686:1719   */\n      tag_621\n        /* \"#utility.yul\":1714:1718   */\n      dup3\n        /* \"#utility.yul\":1706:1712   */\n      dup3\n        /* \"#utility.yul\":1686:1719   */\n      tag_515\n      jump\t// in\n    tag_621:\n        /* \"#utility.yul\":1596:1725   */\n      swap2\n      swap1\n      pop\n      jump\t// out\n        /* \"#utility.yul\":1731:2039   */\n    tag_517:\n        /* \"#utility.yul\":1793:1797   */\n      0x00\n        /* \"#utility.yul\":1883:1901   */\n      0xffffffffffffffff\n        /* \"#utility.yul\":1875:1881   */\n      dup3\n        /* \"#utility.yul\":1872:1902   */\n      gt\n        /* \"#utility.yul\":1869:1925   */\n      iszero\n      tag_623\n      jumpi\n        /* \"#utility.yul\":1905:1923   */\n      tag_624\n      tag_514\n      jump\t// in\n    tag_624:\n        /* \"#utility.yul\":1869:1925   */\n    tag_623:\n        /* \"#utility.yul\":1943:1972   */\n      tag_625\n        /* \"#utility.yul\":1965:1971   */\n      dup3\n        /* \"#utility.yul\":1943:1972   */\n      tag_513\n      jump\t// in\n    tag_625:\n        /* \"#utility.yul\":1935:1972   */\n      swap1\n      pop\n        /* \"#utility.yul\":2027:2031   */\n      0x20\n        /* \"#utility.yul\":2021:2025   */\n      dup2\n        /* \"#utility.yul\":2017:2032   */\n      add\n        /* \"#utility.yul\":2009:2032   */\n      swap1\n      pop\n        /* \"#utility.yul\":1731:2039   */\n      swap2\n      swap1\n      pop\n      jump\t// out\n        /* \"#utility.yul\":2045:2191   */\n    tag_518:\n        /* \"#utility.yul\":2142:2148   */\n      dup3\n        /* \"#utility.yul\":2137:2140   */\n      dup2\n        /* \"#utility.yul\":2132:2135   */\n      dup4\n        /* \"#utility.yul\":2119:2149   */\n      calldatacopy\n        /* \"#utility.yul\":2183:2184   */\n      0x00\n        /* \"#utility.yul\":2174:2180   */\n      dup4\n        /* \"#utility.yul\":2169:2172   */\n      dup4\n        /* \"#utility.yul\":2165:2181   */\n      add\n        /* \"#utility.yul\":2158:2185   */\n      mstore\n        /* \"#utility.yul\":2045:2191   */\n      pop\n      pop\n      pop\n      jump\t// out\n        /* \"#utility.yul\":2197:2622   */\n    tag_519:\n        /* \"#utility.yul\":2275:2280   */\n      0x00\n        /* \"#utility.yul\":2300:2366   */\n      tag_628\n        /* \"#utility.yul\":2316:2365   */\n      tag_629\n        /* \"#utility.yul\":2358:2364   */\n      dup5\n        /* \"#utility.yul\":2316:2365   */\n      tag_517\n      jump\t// in\n    tag_629:\n        /* \"#utility.yul\":2300:2366   */\n      tag_516\n      jump\t// in\n    tag_628:\n        /* \"#utility.yul\":2291:2366   */\n      swap1\n      pop\n        /* \"#utility.yul\":2389:2395   */\n      dup3\n        /* \"#utility.yul\":2382:2387   */\n      dup2\n        /* \"#utility.yul\":2375:2396   */\n      mstore\n        /* \"#utility.yul\":2427:2431   */\n      0x20\n        /* \"#utility.yul\":2420:2425   */\n      dup2\n        /* \"#utility.yul\":2416:2432   */\n      add\n        /* \"#utility.yul\":2465:2468   */\n      dup5\n        /* \"#utility.yul\":2456:2462   */\n      dup5\n        /* \"#utility.yul\":2451:2454   */\n      dup5\n        /* \"#utility.yul\":2447:2463   */\n      add\n        /* \"#utility.yul\":2444:2469   */\n      gt\n        /* \"#utility.yul\":2441:2553   */\n      iszero\n      tag_630\n      jumpi\n        /* \"#utility.yul\":2472:2551   */\n      tag_631\n      tag_512\n      jump\t// in\n    tag_631:\n        /* \"#utility.yul\":2441:2553   */\n    tag_630:\n        /* \"#utility.yul\":2562:2616   */\n      tag_632\n        /* \"#utility.yul\":2609:2615   */\n      dup5\n        /* \"#utility.yul\":2604:2607   */\n      dup3\n        /* \"#utility.yul\":2599:2602   */\n      dup6\n        /* \"#utility.yul\":2562:2616   */\n      tag_518\n      jump\t// in\n    tag_632:\n        /* \"#utility.yul\":2281:2622   */\n      pop\n        /* \"#utility.yul\":2197:2622   */\n      swap4\n      swap3\n      pop\n      pop\n      pop\n      jump\t// out\n        /* \"#utility.yul\":2642:2982   */\n    tag_520:\n        /* \"#utility.yul\":2698:2703   */\n      0x00\n        /* \"#utility.yul\":2747:2750   */\n      dup3\n        /* \"#utility.yul\":2740:2744   */\n      0x1f\n        /* \"#utility.yul\":2732:2738   */\n      dup4\n        /* \"#utility.yul\":2728:2745   */\n      add\n        /* \"#utility.yul\":2724:2751   */\n      slt\n        /* \"#utility.yul\":2714:2836   */\n      tag_634\n      jumpi\n        /* \"#utility.yul\":2755:2834   */\n      tag_635\n      tag_511\n      jump\t// in\n    tag_635:\n        /* \"#utility.yul\":2714:2836   */\n    tag_634:\n        /* \"#utility.yul\":2872:2878   */\n      dup2\n        /* \"#utility.yul\":2859:2879   */\n      calldataload\n        /* \"#utility.yul\":2897:2976   */\n      tag_636\n        /* \"#utility.yul\":2972:2975   */\n      dup5\n        /* \"#utility.yul\":2964:2970   */\n      dup3\n        /* \"#utility.yul\":2957:2961   */\n      0x20\n        /* \"#utility.yul\":2949:2955   */\n      dup7\n        /* \"#utility.yul\":2945:2962   */\n      add\n        /* \"#utility.yul\":2897:2976   */\n      tag_519\n      jump\t// in\n    tag_636:\n        /* \"#utility.yul\":2888:2976   */\n      swap2\n      pop\n        /* \"#utility.yul\":2704:2982   */\n      pop\n        /* \"#utility.yul\":2642:2982   */\n      swap3\n      swap2\n      pop\n      pop\n      jump\t// out\n        /* \"#utility.yul\":2988:3110   */\n    tag_521:\n        /* \"#utility.yul\":3061:3085   */\n      tag_638\n        /* \"#utility.yul\":3079:3084   */\n      dup2\n        /* \"#utility.yul\":3061:3085   */\n      tag_506\n      jump\t// in\n    tag_638:\n        /* \"#utility.yul\":3054:3059   */\n      dup2\n        /* \"#utility.yul\":3051:3086   */\n      eq\n        /* \"#utility.yul\":3041:3104   */\n      tag_639\n      jumpi\n        /* \"#utility.yul\":3100:3101   */\n      0x00\n        /* \"#utility.yul\":3097:3098   */\n      dup1\n        /* \"#utility.yul\":3090:3102   */\n      revert\n        /* \"#utility.yul\":3041:3104   */\n    tag_639:\n        /* \"#utility.yul\":2988:3110   */\n      pop\n      jump\t// out\n        /* \"#utility.yul\":3116:3255   */\n    tag_522:\n        /* \"#utility.yul\":3162:3167   */\n      0x00\n        /* \"#utility.yul\":3200:3206   */\n      dup2\n        /* \"#utility.yul\":3187:3207   */\n      calldataload\n        /* \"#utility.yul\":3178:3207   */\n      swap1\n      pop\n        /* \"#utility.yul\":3216:3249   */\n      tag_641\n        /* \"#utility.yul\":3243:3248   */\n      dup2\n        /* \"#utility.yul\":3216:3249   */\n      tag_521\n      jump\t// in\n    tag_641:\n        /* \"#utility.yul\":3116:3255   */\n      swap3\n      swap2\n      pop\n      pop\n      jump\t// out\n        /* \"#utility.yul\":3261:3915   */\n    tag_46:\n        /* \"#utility.yul\":3339:3345   */\n      0x00\n        /* \"#utility.yul\":3347:3353   */\n      dup1\n        /* \"#utility.yul\":3396:3398   */\n      0x40\n        /* \"#utility.yul\":3384:3393   */\n      dup4\n        /* \"#utility.yul\":3375:3382   */\n      dup6\n        /* \"#utility.yul\":3371:3394   */\n      sub\n        /* \"#utility.yul\":3367:3399   */\n      slt\n        /* \"#utility.yul\":3364:3483   */\n      iszero\n      tag_643\n      jumpi\n        /* \"#utility.yul\":3402:3481   */\n      tag_644\n      tag_509\n      jump\t// in\n    tag_644:\n        /* \"#utility.yul\":3364:3483   */\n    tag_643:\n        /* \"#utility.yul\":3550:3551   */\n      0x00\n        /* \"#utility.yul\":3539:3548   */\n      dup4\n        /* \"#utility.yul\":3535:3552   */\n      add\n        /* \"#utility.yul\":3522:3553   */\n      calldataload\n        /* \"#utility.yul\":3580:3598   */\n      0xffffffffffffffff\n        /* \"#utility.yul\":3572:3578   */\n      dup2\n        /* \"#utility.yul\":3569:3599   */\n      gt\n        /* \"#utility.yul\":3566:3683   */\n      iszero\n      tag_645\n      jumpi\n        /* \"#utility.yul\":3602:3681   */\n      tag_646\n      tag_510\n      jump\t// in\n    tag_646:\n        /* \"#utility.yul\":3566:3683   */\n    tag_645:\n        /* \"#utility.yul\":3707:3770   */\n      tag_647\n        /* \"#utility.yul\":3762:3769   */\n      dup6\n        /* \"#utility.yul\":3753:3759   */\n      dup3\n        /* \"#utility.yul\":3742:3751   */\n      dup7\n        /* \"#utility.yul\":3738:3760   */\n      add\n        /* \"#utility.yul\":3707:3770   */\n      tag_520\n      jump\t// in\n    tag_647:\n        /* \"#utility.yul\":3697:3770   */\n      swap3\n      pop\n        /* \"#utility.yul\":3493:3780   */\n      pop\n        /* \"#utility.yul\":3819:3821   */\n      0x20\n        /* \"#utility.yul\":3845:3898   */\n      tag_648\n        /* \"#utility.yul\":3890:3897   */\n      dup6\n        /* \"#utility.yul\":3881:3887   */\n      dup3\n        /* \"#utility.yul\":3870:3879   */\n      dup7\n        /* \"#utility.yul\":3866:3888   */\n      add\n        /* \"#utility.yul\":3845:3898   */\n      tag_522\n      jump\t// in\n    tag_648:\n        /* \"#utility.yul\":3835:3898   */\n      swap2\n      pop\n        /* \"#utility.yul\":3790:3908   */\n      pop\n        /* \"#utility.yul\":3261:3915   */\n      swap3\n      pop\n      swap3\n      swap1\n      pop\n      jump\t// out\n        /* \"#utility.yul\":3921:4011   */\n    tag_523:\n        /* \"#utility.yul\":3955:3962   */\n      0x00\n        /* \"#utility.yul\":3998:4003   */\n      dup2\n        /* \"#utility.yul\":3991:4004   */\n      iszero\n        /* \"#utility.yul\":3984:4005   */\n      iszero\n        /* \"#utility.yul\":3973:4005   */\n      swap1\n      pop\n        /* \"#utility.yul\":3921:4011   */\n      swap2\n      swap1\n      pop\n      jump\t// out\n        /* \"#utility.yul\":4017:4126   */\n    tag_524:\n        /* \"#utility.yul\":4098:4119   */\n      tag_651\n        /* \"#utility.yul\":4113:4118   */\n      dup2\n        /* \"#utility.yul\":4098:4119   */\n      tag_523\n      jump\t// in\n    tag_651:\n        /* \"#utility.yul\":4093:4096   */\n      dup3\n        /* \"#utility.yul\":4086:4120   */\n      mstore\n        /* \"#utility.yul\":4017:4126   */\n      pop\n      pop\n      jump\t// out\n        /* \"#utility.yul\":4132:4342   */\n    tag_49:\n        /* \"#utility.yul\":4219:4223   */\n      0x00\n        /* \"#utility.yul\":4257:4259   */\n      0x20\n        /* \"#utility.yul\":4246:4255   */\n      dup3\n        /* \"#utility.yul\":4242:4260   */\n      add\n        /* \"#utility.yul\":4234:4260   */\n      swap1\n      pop\n        /* \"#utility.yul\":4270:4335   */\n      tag_653\n        /* \"#utility.yul\":4332:4333   */\n      0x00\n        /* \"#utility.yul\":4321:4330   */\n      dup4\n        /* \"#utility.yul\":4317:4334   */\n      add\n        /* \"#utility.yul\":4308:4314   */\n      dup5\n        /* \"#utility.yul\":4270:4335   */\n      tag_524\n      jump\t// in\n    tag_653:\n        /* \"#utility.yul\":4132:4342   */\n      swap3\n      swap2\n      pop\n      pop\n      jump\t// out\n        /* \"#utility.yul\":4348:4687   */\n    tag_525:\n        /* \"#utility.yul\":4453:4457   */\n      0x00\n        /* \"#utility.yul\":4543:4561   */\n      0xffffffffffffffff\n        /* \"#utility.yul\":4535:4541   */\n      dup3\n        /* \"#utility.yul\":4532:4562   */\n      gt\n        /* \"#utility.yul\":4529:4585   */\n      iszero\n      tag_655\n      jumpi\n        /* \"#utility.yul\":4565:4583   */\n      tag_656\n      tag_514\n      jump\t// in\n    tag_656:\n        /* \"#utility.yul\":4529:4585   */\n    tag_655:\n        /* \"#utility.yul\":4615:4619   */\n      0x20\n        /* \"#utility.yul\":4607:4613   */\n      dup3\n        /* \"#utility.yul\":4603:4620   */\n      mul\n        /* \"#utility.yul\":4595:4620   */\n      swap1\n      pop\n        /* \"#utility.yul\":4675:4679   */\n      0x20\n        /* \"#utility.yul\":4669:4673   */\n      dup2\n        /* \"#utility.yul\":4665:4680   */\n      add\n        /* \"#utility.yul\":4657:4680   */\n      swap1\n      pop\n        /* \"#utility.yul\":4348:4687   */\n      swap2\n      swap1\n      pop\n      jump\t// out\n        /* \"#utility.yul\":4693:4810   */\n    tag_526:\n        /* \"#utility.yul\":4802:4803   */\n      0x00\n        /* \"#utility.yul\":4799:4800   */\n      dup1\n        /* \"#utility.yul\":4792:4804   */\n      revert\n        /* \"#utility.yul\":4816:4933   */\n    tag_527:\n        /* \"#utility.yul\":4925:4926   */\n      0x00\n        /* \"#utility.yul\":4922:4923   */\n      dup1\n        /* \"#utility.yul\":4915:4927   */\n      revert\n        /* \"#utility.yul\":5105:5687   */\n    tag_529:\n        /* \"#utility.yul\":5182:5187   */\n      0x00\n        /* \"#utility.yul\":5226:5230   */\n      0x40\n        /* \"#utility.yul\":5214:5223   */\n      dup3\n        /* \"#utility.yul\":5209:5212   */\n      dup5\n        /* \"#utility.yul\":5205:5224   */\n      sub\n        /* \"#utility.yul\":5201:5231   */\n      slt\n        /* \"#utility.yul\":5198:5315   */\n      iszero\n      tag_661\n      jumpi\n        /* \"#utility.yul\":5234:5313   */\n      tag_662\n      tag_527\n      jump\t// in\n    tag_662:\n        /* \"#utility.yul\":5198:5315   */\n    tag_661:\n        /* \"#utility.yul\":5333:5354   */\n      tag_663\n        /* \"#utility.yul\":5349:5353   */\n      0x40\n        /* \"#utility.yul\":5333:5354   */\n      tag_516\n      jump\t// in\n    tag_663:\n        /* \"#utility.yul\":5324:5354   */\n      swap1\n      pop\n        /* \"#utility.yul\":5419:5420   */\n      0x00\n        /* \"#utility.yul\":5459:5508   */\n      tag_664\n        /* \"#utility.yul\":5504:5507   */\n      dup5\n        /* \"#utility.yul\":5495:5501   */\n      dup3\n        /* \"#utility.yul\":5484:5493   */\n      dup6\n        /* \"#utility.yul\":5480:5502   */\n      add\n        /* \"#utility.yul\":5459:5508   */\n      tag_522\n      jump\t// in\n    tag_664:\n        /* \"#utility.yul\":5452:5456   */\n      0x00\n        /* \"#utility.yul\":5445:5450   */\n      dup4\n        /* \"#utility.yul\":5441:5457   */\n      add\n        /* \"#utility.yul\":5434:5509   */\n      mstore\n        /* \"#utility.yul\":5364:5520   */\n      pop\n        /* \"#utility.yul\":5578:5580   */\n      0x20\n        /* \"#utility.yul\":5619:5668   */\n      tag_665\n        /* \"#utility.yul\":5664:5667   */\n      dup5\n        /* \"#utility.yul\":5655:5661   */\n      dup3\n        /* \"#utility.yul\":5644:5653   */\n      dup6\n        /* \"#utility.yul\":5640:5662   */\n      add\n        /* \"#utility.yul\":5619:5668   */\n      tag_522\n      jump\t// in\n    tag_665:\n        /* \"#utility.yul\":5612:5616   */\n      0x20\n        /* \"#utility.yul\":5605:5610   */\n      dup4\n        /* \"#utility.yul\":5601:5617   */\n      add\n        /* \"#utility.yul\":5594:5669   */\n      mstore\n        /* \"#utility.yul\":5530:5680   */\n      pop\n        /* \"#utility.yul\":5105:5687   */\n      swap3\n      swap2\n      pop\n      pop\n      jump\t// out\n        /* \"#utility.yul\":5738:6532   */\n    tag_530:\n        /* \"#utility.yul\":5862:5867   */\n      0x00\n        /* \"#utility.yul\":5887:5996   */\n      tag_667\n        /* \"#utility.yul\":5903:5995   */\n      tag_668\n        /* \"#utility.yul\":5988:5994   */\n      dup5\n        /* \"#utility.yul\":5903:5995   */\n      tag_525\n      jump\t// in\n    tag_668:\n        /* \"#utility.yul\":5887:5996   */\n      tag_516\n      jump\t// in\n    tag_667:\n        /* \"#utility.yul\":5878:5996   */\n      swap1\n      pop\n        /* \"#utility.yul\":6016:6021   */\n      dup1\n        /* \"#utility.yul\":6045:6051   */\n      dup4\n        /* \"#utility.yul\":6038:6043   */\n      dup3\n        /* \"#utility.yul\":6031:6052   */\n      mstore\n        /* \"#utility.yul\":6079:6083   */\n      0x20\n        /* \"#utility.yul\":6072:6077   */\n      dup3\n        /* \"#utility.yul\":6068:6084   */\n      add\n        /* \"#utility.yul\":6061:6084   */\n      swap1\n      pop\n        /* \"#utility.yul\":6132:6136   */\n      0x40\n        /* \"#utility.yul\":6124:6130   */\n      dup5\n        /* \"#utility.yul\":6120:6137   */\n      mul\n        /* \"#utility.yul\":6112:6118   */\n      dup4\n        /* \"#utility.yul\":6108:6138   */\n      add\n        /* \"#utility.yul\":6161:6164   */\n      dup6\n        /* \"#utility.yul\":6153:6159   */\n      dup2\n        /* \"#utility.yul\":6150:6165   */\n      gt\n        /* \"#utility.yul\":6147:6269   */\n      iszero\n      tag_669\n      jumpi\n        /* \"#utility.yul\":6180:6259   */\n      tag_670\n      tag_526\n      jump\t// in\n    tag_670:\n        /* \"#utility.yul\":6147:6269   */\n    tag_669:\n        /* \"#utility.yul\":6295:6301   */\n      dup4\n        /* \"#utility.yul\":6278:6526   */\n    tag_671:\n        /* \"#utility.yul\":6312:6318   */\n      dup2\n        /* \"#utility.yul\":6307:6310   */\n      dup2\n        /* \"#utility.yul\":6304:6319   */\n      lt\n        /* \"#utility.yul\":6278:6526   */\n      iszero\n      tag_673\n      jumpi\n        /* \"#utility.yul\":6387:6390   */\n      dup1\n        /* \"#utility.yul\":6416:6481   */\n      tag_674\n        /* \"#utility.yul\":6477:6480   */\n      dup9\n        /* \"#utility.yul\":6465:6475   */\n      dup3\n        /* \"#utility.yul\":6416:6481   */\n      tag_529\n      jump\t// in\n    tag_674:\n        /* \"#utility.yul\":6411:6414   */\n      dup5\n        /* \"#utility.yul\":6404:6482   */\n      mstore\n        /* \"#utility.yul\":6511:6515   */\n      0x20\n        /* \"#utility.yul\":6506:6509   */\n      dup5\n        /* \"#utility.yul\":6502:6516   */\n      add\n        /* \"#utility.yul\":6495:6516   */\n      swap4\n      pop\n        /* \"#utility.yul\":6354:6526   */\n      pop\n        /* \"#utility.yul\":6338:6342   */\n      0x40\n        /* \"#utility.yul\":6333:6336   */\n      dup2\n        /* \"#utility.yul\":6329:6343   */\n      add\n        /* \"#utility.yul\":6322:6343   */\n      swap1\n      pop\n        /* \"#utility.yul\":6278:6526   */\n      jump(tag_671)\n    tag_673:\n        /* \"#utility.yul\":6282:6303   */\n      pop\n        /* \"#utility.yul\":5868:6532   */\n      pop\n      pop\n        /* \"#utility.yul\":5738:6532   */\n      swap4\n      swap3\n      pop\n      pop\n      pop\n      jump\t// out\n        /* \"#utility.yul\":6583:7009   */\n    tag_531:\n        /* \"#utility.yul\":6682:6687   */\n      0x00\n        /* \"#utility.yul\":6731:6734   */\n      dup3\n        /* \"#utility.yul\":6724:6728   */\n      0x1f\n        /* \"#utility.yul\":6716:6722   */\n      dup4\n        /* \"#utility.yul\":6712:6729   */\n      add\n        /* \"#utility.yul\":6708:6735   */\n      slt\n        /* \"#utility.yul\":6698:6820   */\n      tag_676\n      jumpi\n        /* \"#utility.yul\":6739:6818   */\n      tag_677\n      tag_511\n      jump\t// in\n    tag_677:\n        /* \"#utility.yul\":6698:6820   */\n    tag_676:\n        /* \"#utility.yul\":6856:6862   */\n      dup2\n        /* \"#utility.yul\":6843:6863   */\n      calldataload\n        /* \"#utility.yul\":6881:7003   */\n      tag_678\n        /* \"#utility.yul\":6999:7002   */\n      dup5\n        /* \"#utility.yul\":6991:6997   */\n      dup3\n        /* \"#utility.yul\":6984:6988   */\n      0x20\n        /* \"#utility.yul\":6976:6982   */\n      dup7\n        /* \"#utility.yul\":6972:6989   */\n      add\n        /* \"#utility.yul\":6881:7003   */\n      tag_530\n      jump\t// in\n    tag_678:\n        /* \"#utility.yul\":6872:7003   */\n      swap2\n      pop\n        /* \"#utility.yul\":6688:7009   */\n      pop\n        /* \"#utility.yul\":6583:7009   */\n      swap3\n      swap2\n      pop\n      pop\n      jump\t// out\n        /* \"#utility.yul\":7015:7935   */\n    tag_53:\n        /* \"#utility.yul\":7146:7152   */\n      0x00\n        /* \"#utility.yul\":7154:7160   */\n      dup1\n        /* \"#utility.yul\":7203:7205   */\n      0x40\n        /* \"#utility.yul\":7191:7200   */\n      dup4\n        /* \"#utility.yul\":7182:7189   */\n      dup6\n        /* \"#utility.yul\":7178:7201   */\n      sub\n        /* \"#utility.yul\":7174:7206   */\n      slt\n        /* \"#utility.yul\":7171:7290   */\n      iszero\n      tag_680\n      jumpi\n        /* \"#utility.yul\":7209:7288   */\n      tag_681\n      tag_509\n      jump\t// in\n    tag_681:\n        /* \"#utility.yul\":7171:7290   */\n    tag_680:\n        /* \"#utility.yul\":7357:7358   */\n      0x00\n        /* \"#utility.yul\":7346:7355   */\n      dup4\n        /* \"#utility.yul\":7342:7359   */\n      add\n        /* \"#utility.yul\":7329:7360   */\n      calldataload\n        /* \"#utility.yul\":7387:7405   */\n      0xffffffffffffffff\n        /* \"#utility.yul\":7379:7385   */\n      dup2\n        /* \"#utility.yul\":7376:7406   */\n      gt\n        /* \"#utility.yul\":7373:7490   */\n      iszero\n      tag_682\n      jumpi\n        /* \"#utility.yul\":7409:7488   */\n      tag_683\n      tag_510\n      jump\t// in\n    tag_683:\n        /* \"#utility.yul\":7373:7490   */\n    tag_682:\n        /* \"#utility.yul\":7514:7577   */\n      tag_684\n        /* \"#utility.yul\":7569:7576   */\n      dup6\n        /* \"#utility.yul\":7560:7566   */\n      dup3\n        /* \"#utility.yul\":7549:7558   */\n      dup7\n        /* \"#utility.yul\":7545:7567   */\n      add\n        /* \"#utility.yul\":7514:7577   */\n      tag_520\n      jump\t// in\n    tag_684:\n        /* \"#utility.yul\":7504:7577   */\n      swap3\n      pop\n        /* \"#utility.yul\":7300:7587   */\n      pop\n        /* \"#utility.yul\":7654:7656   */\n      0x20\n        /* \"#utility.yul\":7643:7652   */\n      dup4\n        /* \"#utility.yul\":7639:7657   */\n      add\n        /* \"#utility.yul\":7626:7658   */\n      calldataload\n        /* \"#utility.yul\":7685:7703   */\n      0xffffffffffffffff\n        /* \"#utility.yul\":7677:7683   */\n      dup2\n        /* \"#utility.yul\":7674:7704   */\n      gt\n        /* \"#utility.yul\":7671:7788   */\n      iszero\n      tag_685\n      jumpi\n        /* \"#utility.yul\":7707:7786   */\n      tag_686\n      tag_510\n      jump\t// in\n    tag_686:\n        /* \"#utility.yul\":7671:7788   */\n    tag_685:\n        /* \"#utility.yul\":7812:7918   */\n      tag_687\n        /* \"#utility.yul\":7910:7917   */\n      dup6\n        /* \"#utility.yul\":7901:7907   */\n      dup3\n        /* \"#utility.yul\":7890:7899   */\n      dup7\n        /* \"#utility.yul\":7886:7908   */\n      add\n        /* \"#utility.yul\":7812:7918   */\n      tag_531\n      jump\t// in\n    tag_687:\n        /* \"#utility.yul\":7802:7918   */\n      swap2\n      pop\n        /* \"#utility.yul\":7597:7928   */\n      pop\n        /* \"#utility.yul\":7015:7935   */\n      swap3\n      pop\n      swap3\n      swap1\n      pop\n      jump\t// out\n        /* \"#utility.yul\":7941:8560   */\n    tag_58:\n        /* \"#utility.yul\":8018:8024   */\n      0x00\n        /* \"#utility.yul\":8026:8032   */\n      dup1\n        /* \"#utility.yul\":8034:8040   */\n      0x00\n        /* \"#utility.yul\":8083:8085   */\n      0x60\n        /* \"#utility.yul\":8071:8080   */\n      dup5\n        /* \"#utility.yul\":8062:8069   */\n      dup7\n        /* \"#utility.yul\":8058:8081   */\n      sub\n        /* \"#utility.yul\":8054:8086   */\n      slt\n        /* \"#utility.yul\":8051:8170   */\n      iszero\n      tag_689\n      jumpi\n        /* \"#utility.yul\":8089:8168   */\n      tag_690\n      tag_509\n      jump\t// in\n    tag_690:\n        /* \"#utility.yul\":8051:8170   */\n    tag_689:\n        /* \"#utility.yul\":8209:8210   */\n      0x00\n        /* \"#utility.yul\":8234:8287   */\n      tag_691\n        /* \"#utility.yul\":8279:8286   */\n      dup7\n        /* \"#utility.yul\":8270:8276   */\n      dup3\n        /* \"#utility.yul\":8259:8268   */\n      dup8\n        /* \"#utility.yul\":8255:8277   */\n      add\n        /* \"#utility.yul\":8234:8287   */\n      tag_522\n      jump\t// in\n    tag_691:\n        /* \"#utility.yul\":8224:8287   */\n      swap4\n      pop\n        /* \"#utility.yul\":8180:8297   */\n      pop\n        /* \"#utility.yul\":8336:8338   */\n      0x20\n        /* \"#utility.yul\":8362:8415   */\n      tag_692\n        /* \"#utility.yul\":8407:8414   */\n      dup7\n        /* \"#utility.yul\":8398:8404   */\n      dup3\n        /* \"#utility.yul\":8387:8396   */\n      dup8\n        /* \"#utility.yul\":8383:8405   */\n      add\n        /* \"#utility.yul\":8362:8415   */\n      tag_522\n      jump\t// in\n    tag_692:\n        /* \"#utility.yul\":8352:8415   */\n      swap3\n      pop\n        /* \"#utility.yul\":8307:8425   */\n      pop\n        /* \"#utility.yul\":8464:8466   */\n      0x40\n        /* \"#utility.yul\":8490:8543   */\n      tag_693\n        /* \"#utility.yul\":8535:8542   */\n      dup7\n        /* \"#utility.yul\":8526:8532   */\n      dup3\n        /* \"#utility.yul\":8515:8524   */\n      dup8\n        /* \"#utility.yul\":8511:8533   */\n      add\n        /* \"#utility.yul\":8490:8543   */\n      tag_522\n      jump\t// in\n    tag_693:\n        /* \"#utility.yul\":8480:8543   */\n      swap2\n      pop\n        /* \"#utility.yul\":8435:8553   */\n      pop\n        /* \"#utility.yul\":7941:8560   */\n      swap3\n      pop\n      swap3\n      pop\n      swap3\n      jump\t// out\n        /* \"#utility.yul\":8566:9075   */\n    tag_63:\n        /* \"#utility.yul\":8635:8641   */\n      0x00\n        /* \"#utility.yul\":8684:8686   */\n      0x20\n        /* \"#utility.yul\":8672:8681   */\n      dup3\n        /* \"#utility.yul\":8663:8670   */\n      dup5\n        /* \"#utility.yul\":8659:8682   */\n      sub\n        /* \"#utility.yul\":8655:8687   */\n      slt\n        /* \"#utility.yul\":8652:8771   */\n      iszero\n      tag_695\n      jumpi\n        /* \"#utility.yul\":8690:8769   */\n      tag_696\n      tag_509\n      jump\t// in\n    tag_696:\n        /* \"#utility.yul\":8652:8771   */\n    tag_695:\n        /* \"#utility.yul\":8838:8839   */\n      0x00\n        /* \"#utility.yul\":8827:8836   */\n      dup3\n        /* \"#utility.yul\":8823:8840   */\n      add\n        /* \"#utility.yul\":8810:8841   */\n      calldataload\n        /* \"#utility.yul\":8868:8886   */\n      0xffffffffffffffff\n        /* \"#utility.yul\":8860:8866   */\n      dup2\n        /* \"#utility.yul\":8857:8887   */\n      gt\n        /* \"#utility.yul\":8854:8971   */\n      iszero\n      tag_697\n      jumpi\n        /* \"#utility.yul\":8890:8969   */\n      tag_698\n      tag_510\n      jump\t// in\n    tag_698:\n        /* \"#utility.yul\":8854:8971   */\n    tag_697:\n        /* \"#utility.yul\":8995:9058   */\n      tag_699\n        /* \"#utility.yul\":9050:9057   */\n      dup5\n        /* \"#utility.yul\":9041:9047   */\n      dup3\n        /* \"#utility.yul\":9030:9039   */\n      dup6\n        /* \"#utility.yul\":9026:9048   */\n      add\n        /* \"#utility.yul\":8995:9058   */\n      tag_520\n      jump\t// in\n    tag_699:\n        /* \"#utility.yul\":8985:9058   */\n      swap2\n      pop\n        /* \"#utility.yul\":8781:9068   */\n      pop\n        /* \"#utility.yul\":8566:9075   */\n      swap3\n      swap2\n      pop\n      pop\n      jump\t// out\n        /* \"#utility.yul\":9081:9179   */\n    tag_532:\n        /* \"#utility.yul\":9132:9138   */\n      0x00\n        /* \"#utility.yul\":9166:9171   */\n      dup2\n        /* \"#utility.yul\":9160:9172   */\n      mload\n        /* \"#utility.yul\":9150:9172   */\n      swap1\n      pop\n        /* \"#utility.yul\":9081:9179   */\n      swap2\n      swap1\n      pop\n      jump\t// out\n        /* \"#utility.yul\":9185:9353   */\n    tag_533:\n        /* \"#utility.yul\":9268:9279   */\n      0x00\n        /* \"#utility.yul\":9302:9308   */\n      dup3\n        /* \"#utility.yul\":9297:9300   */\n      dup3\n        /* \"#utility.yul\":9290:9309   */\n      mstore\n        /* \"#utility.yul\":9342:9346   */\n      0x20\n        /* \"#utility.yul\":9337:9340   */\n      dup3\n        /* \"#utility.yul\":9333:9347   */\n      add\n        /* \"#utility.yul\":9318:9347   */\n      swap1\n      pop\n        /* \"#utility.yul\":9185:9353   */\n      swap3\n      swap2\n      pop\n      pop\n      jump\t// out\n        /* \"#utility.yul\":9359:9605   */\n    tag_534:\n        /* \"#utility.yul\":9440:9441   */\n      0x00\n        /* \"#utility.yul\":9450:9563   */\n    tag_703:\n        /* \"#utility.yul\":9464:9470   */\n      dup4\n        /* \"#utility.yul\":9461:9462   */\n      dup2\n        /* \"#utility.yul\":9458:9471   */\n      lt\n        /* \"#utility.yul\":9450:9563   */\n      iszero\n      tag_705\n      jumpi\n        /* \"#utility.yul\":9549:9550   */\n      dup1\n        /* \"#utility.yul\":9544:9547   */\n      dup3\n        /* \"#utility.yul\":9540:9551   */\n      add\n        /* \"#utility.yul\":9534:9552   */\n      mload\n        /* \"#utility.yul\":9530:9531   */\n      dup2\n        /* \"#utility.yul\":9525:9528   */\n      dup5\n        /* \"#utility.yul\":9521:9532   */\n      add\n        /* \"#utility.yul\":9514:9553   */\n      mstore\n        /* \"#utility.yul\":9486:9488   */\n      0x20\n        /* \"#utility.yul\":9483:9484   */\n      dup2\n        /* \"#utility.yul\":9479:9489   */\n      add\n        /* \"#utility.yul\":9474:9489   */\n      swap1\n      pop\n        /* \"#utility.yul\":9450:9563   */\n      jump(tag_703)\n    tag_705:\n        /* \"#utility.yul\":9597:9598   */\n      0x00\n        /* \"#utility.yul\":9588:9594   */\n      dup5\n        /* \"#utility.yul\":9583:9586   */\n      dup5\n        /* \"#utility.yul\":9579:9595   */\n      add\n        /* \"#utility.yul\":9572:9599   */\n      mstore\n        /* \"#utility.yul\":9421:9605   */\n      pop\n        /* \"#utility.yul\":9359:9605   */\n      pop\n      pop\n      pop\n      jump\t// out\n        /* \"#utility.yul\":9611:9984   */\n    tag_535:\n        /* \"#utility.yul\":9697:9700   */\n      0x00\n        /* \"#utility.yul\":9725:9763   */\n      tag_707\n        /* \"#utility.yul\":9757:9762   */\n      dup3\n        /* \"#utility.yul\":9725:9763   */\n      tag_532\n      jump\t// in\n    tag_707:\n        /* \"#utility.yul\":9779:9849   */\n      tag_708\n        /* \"#utility.yul\":9842:9848   */\n      dup2\n        /* \"#utility.yul\":9837:9840   */\n      dup6\n        /* \"#utility.yul\":9779:9849   */\n      tag_533\n      jump\t// in\n    tag_708:\n        /* \"#utility.yul\":9772:9849   */\n      swap4\n      pop\n        /* \"#utility.yul\":9858:9923   */\n      tag_709\n        /* \"#utility.yul\":9916:9922   */\n      dup2\n        /* \"#utility.yul\":9911:9914   */\n      dup6\n        /* \"#utility.yul\":9904:9908   */\n      0x20\n        /* \"#utility.yul\":9897:9902   */\n      dup7\n        /* \"#utility.yul\":9893:9909   */\n      add\n        /* \"#utility.yul\":9858:9923   */\n      tag_534\n      jump\t// in\n    tag_709:\n        /* \"#utility.yul\":9948:9977   */\n      tag_710\n        /* \"#utility.yul\":9970:9976   */\n      dup2\n        /* \"#utility.yul\":9948:9977   */\n      tag_513\n      jump\t// in\n    tag_710:\n        /* \"#utility.yul\":9943:9946   */\n      dup5\n        /* \"#utility.yul\":9939:9978   */\n      add\n        /* \"#utility.yul\":9932:9978   */\n      swap2\n      pop\n        /* \"#utility.yul\":9701:9984   */\n      pop\n        /* \"#utility.yul\":9611:9984   */\n      swap3\n      swap2\n      pop\n      pop\n      jump\t// out\n        /* \"#utility.yul\":9990:10299   */\n    tag_66:\n        /* \"#utility.yul\":10101:10105   */\n      0x00\n        /* \"#utility.yul\":10139:10141   */\n      0x20\n        /* \"#utility.yul\":10128:10137   */\n      dup3\n        /* \"#utility.yul\":10124:10142   */\n      add\n        /* \"#utility.yul\":10116:10142   */\n      swap1\n      pop\n        /* \"#utility.yul\":10188:10197   */\n      dup2\n        /* \"#utility.yul\":10182:10186   */\n      dup2\n        /* \"#utility.yul\":10178:10198   */\n      sub\n        /* \"#utility.yul\":10174:10175   */\n      0x00\n        /* \"#utility.yul\":10163:10172   */\n      dup4\n        /* \"#utility.yul\":10159:10176   */\n      add\n        /* \"#utility.yul\":10152:10199   */\n      mstore\n        /* \"#utility.yul\":10216:10292   */\n      tag_712\n        /* \"#utility.yul\":10287:10291   */\n      dup2\n        /* \"#utility.yul\":10278:10284   */\n      dup5\n        /* \"#utility.yul\":10216:10292   */\n      tag_535\n      jump\t// in\n    tag_712:\n        /* \"#utility.yul\":10208:10292   */\n      swap1\n      pop\n        /* \"#utility.yul\":9990:10299   */\n      swap3\n      swap2\n      pop\n      pop\n      jump\t// out\n        /* \"#utility.yul\":10305:10612   */\n    tag_536:\n        /* \"#utility.yul\":10366:10370   */\n      0x00\n        /* \"#utility.yul\":10456:10474   */\n      0xffffffffffffffff\n        /* \"#utility.yul\":10448:10454   */\n      dup3\n        /* \"#utility.yul\":10445:10475   */\n      gt\n        /* \"#utility.yul\":10442:10498   */\n      iszero\n      tag_714\n      jumpi\n        /* \"#utility.yul\":10478:10496   */\n      tag_715\n      tag_514\n      jump\t// in\n    tag_715:\n        /* \"#utility.yul\":10442:10498   */\n    tag_714:\n        /* \"#utility.yul\":10516:10545   */\n      tag_716\n        /* \"#utility.yul\":10538:10544   */\n      dup3\n        /* \"#utility.yul\":10516:10545   */\n      tag_513\n      jump\t// in\n    tag_716:\n        /* \"#utility.yul\":10508:10545   */\n      swap1\n      pop\n        /* \"#utility.yul\":10600:10604   */\n      0x20\n        /* \"#utility.yul\":10594:10598   */\n      dup2\n        /* \"#utility.yul\":10590:10605   */\n      add\n        /* \"#utility.yul\":10582:10605   */\n      swap1\n      pop\n        /* \"#utility.yul\":10305:10612   */\n      swap2\n      swap1\n      pop\n      jump\t// out\n        /* \"#utility.yul\":10618:11041   */\n    tag_537:\n        /* \"#utility.yul\":10695:10700   */\n      0x00\n        /* \"#utility.yul\":10720:10785   */\n      tag_718\n        /* \"#utility.yul\":10736:10784   */\n      tag_719\n        /* \"#utility.yul\":10777:10783   */\n      dup5\n        /* \"#utility.yul\":10736:10784   */\n      tag_536\n      jump\t// in\n    tag_719:\n        /* \"#utility.yul\":10720:10785   */\n      tag_516\n      jump\t// in\n    tag_718:\n        /* \"#utility.yul\":10711:10785   */\n      swap1\n      pop\n        /* \"#utility.yul\":10808:10814   */\n      dup3\n        /* \"#utility.yul\":10801:10806   */\n      dup2\n        /* \"#utility.yul\":10794:10815   */\n      mstore\n        /* \"#utility.yul\":10846:10850   */\n      0x20\n        /* \"#utility.yul\":10839:10844   */\n      dup2\n        /* \"#utility.yul\":10835:10851   */\n      add\n        /* \"#utility.yul\":10884:10887   */\n      dup5\n        /* \"#utility.yul\":10875:10881   */\n      dup5\n        /* \"#utility.yul\":10870:10873   */\n      dup5\n        /* \"#utility.yul\":10866:10882   */\n      add\n        /* \"#utility.yul\":10863:10888   */\n      gt\n        /* \"#utility.yul\":10860:10972   */\n      iszero\n      tag_720\n      jumpi\n        /* \"#utility.yul\":10891:10970   */\n      tag_721\n      tag_512\n      jump\t// in\n    tag_721:\n        /* \"#utility.yul\":10860:10972   */\n    tag_720:\n        /* \"#utility.yul\":10981:11035   */\n      tag_722\n        /* \"#utility.yul\":11028:11034   */\n      dup5\n        /* \"#utility.yul\":11023:11026   */\n      dup3\n        /* \"#utility.yul\":11018:11021   */\n      dup6\n        /* \"#utility.yul\":10981:11035   */\n      tag_518\n      jump\t// in\n    tag_722:\n        /* \"#utility.yul\":10701:11041   */\n      pop\n        /* \"#utility.yul\":10618:11041   */\n      swap4\n      swap3\n      pop\n      pop\n      pop\n      jump\t// out\n        /* \"#utility.yul\":11060:11398   */\n    tag_538:\n        /* \"#utility.yul\":11115:11120   */\n      0x00\n        /* \"#utility.yul\":11164:11167   */\n      dup3\n        /* \"#utility.yul\":11157:11161   */\n      0x1f\n        /* \"#utility.yul\":11149:11155   */\n      dup4\n        /* \"#utility.yul\":11145:11162   */\n      add\n        /* \"#utility.yul\":11141:11168   */\n      slt\n        /* \"#utility.yul\":11131:11253   */\n      tag_724\n      jumpi\n        /* \"#utility.yul\":11172:11251   */\n      tag_725\n      tag_511\n      jump\t// in\n    tag_725:\n        /* \"#utility.yul\":11131:11253   */\n    tag_724:\n        /* \"#utility.yul\":11289:11295   */\n      dup2\n        /* \"#utility.yul\":11276:11296   */\n      calldataload\n        /* \"#utility.yul\":11314:11392   */\n      tag_726\n        /* \"#utility.yul\":11388:11391   */\n      dup5\n        /* \"#utility.yul\":11380:11386   */\n      dup3\n        /* \"#utility.yul\":11373:11377   */\n      0x20\n        /* \"#utility.yul\":11365:11371   */\n      dup7\n        /* \"#utility.yul\":11361:11378   */\n      add\n        /* \"#utility.yul\":11314:11392   */\n      tag_537\n      jump\t// in\n    tag_726:\n        /* \"#utility.yul\":11305:11392   */\n      swap2\n      pop\n        /* \"#utility.yul\":11121:11398   */\n      pop\n        /* \"#utility.yul\":11060:11398   */\n      swap3\n      swap2\n      pop\n      pop\n      jump\t// out\n        /* \"#utility.yul\":11404:11530   */\n    tag_539:\n        /* \"#utility.yul\":11441:11448   */\n      0x00\n        /* \"#utility.yul\":11481:11523   */\n      0xffffffffffffffffffffffffffffffffffffffff\n        /* \"#utility.yul\":11474:11479   */\n      dup3\n        /* \"#utility.yul\":11470:11524   */\n      and\n        /* \"#utility.yul\":11459:11524   */\n      swap1\n      pop\n        /* \"#utility.yul\":11404:11530   */\n      swap2\n      swap1\n      pop\n      jump\t// out\n        /* \"#utility.yul\":11536:11632   */\n    tag_540:\n        /* \"#utility.yul\":11573:11580   */\n      0x00\n        /* \"#utility.yul\":11602:11626   */\n      tag_729\n        /* \"#utility.yul\":11620:11625   */\n      dup3\n        /* \"#utility.yul\":11602:11626   */\n      tag_539\n      jump\t// in\n    tag_729:\n        /* \"#utility.yul\":11591:11626   */\n      swap1\n      pop\n        /* \"#utility.yul\":11536:11632   */\n      swap2\n      swap1\n      pop\n      jump\t// out\n        /* \"#utility.yul\":11638:11760   */\n    tag_541:\n        /* \"#utility.yul\":11711:11735   */\n      tag_731\n        /* \"#utility.yul\":11729:11734   */\n      dup2\n        /* \"#utility.yul\":11711:11735   */\n      tag_540\n      jump\t// in\n    tag_731:\n        /* \"#utility.yul\":11704:11709   */\n      dup2\n        /* \"#utility.yul\":11701:11736   */\n      eq\n        /* \"#utility.yul\":11691:11754   */\n      tag_732\n      jumpi\n        /* \"#utility.yul\":11750:11751   */\n      0x00\n        /* \"#utility.yul\":11747:11748   */\n      dup1\n        /* \"#utility.yul\":11740:11752   */\n      revert\n        /* \"#utility.yul\":11691:11754   */\n    tag_732:\n        /* \"#utility.yul\":11638:11760   */\n      pop\n      jump\t// out\n        /* \"#utility.yul\":11766:11905   */\n    tag_542:\n        /* \"#utility.yul\":11812:11817   */\n      0x00\n        /* \"#utility.yul\":11850:11856   */\n      dup2\n        /* \"#utility.yul\":11837:11857   */\n      calldataload\n        /* \"#utility.yul\":11828:11857   */\n      swap1\n      pop\n        /* \"#utility.yul\":11866:11899   */\n      tag_734\n        /* \"#utility.yul\":11893:11898   */\n      dup2\n        /* \"#utility.yul\":11866:11899   */\n      tag_541\n      jump\t// in\n    tag_734:\n        /* \"#utility.yul\":11766:11905   */\n      swap3\n      swap2\n      pop\n      pop\n      jump\t// out\n        /* \"#utility.yul\":11911:12563   */\n    tag_70:\n        /* \"#utility.yul\":11988:11994   */\n      0x00\n        /* \"#utility.yul\":11996:12002   */\n      dup1\n        /* \"#utility.yul\":12045:12047   */\n      0x40\n        /* \"#utility.yul\":12033:12042   */\n      dup4\n        /* \"#utility.yul\":12024:12031   */\n      dup6\n        /* \"#utility.yul\":12020:12043   */\n      sub\n        /* \"#utility.yul\":12016:12048   */\n      slt\n        /* \"#utility.yul\":12013:12132   */\n      iszero\n      tag_736\n      jumpi\n        /* \"#utility.yul\":12051:12130   */\n      tag_737\n      tag_509\n      jump\t// in\n    tag_737:\n        /* \"#utility.yul\":12013:12132   */\n    tag_736:\n        /* \"#utility.yul\":12199:12200   */\n      0x00\n        /* \"#utility.yul\":12188:12197   */\n      dup4\n        /* \"#utility.yul\":12184:12201   */\n      add\n        /* \"#utility.yul\":12171:12202   */\n      calldataload\n        /* \"#utility.yul\":12229:12247   */\n      0xffffffffffffffff\n        /* \"#utility.yul\":12221:12227   */\n      dup2\n        /* \"#utility.yul\":12218:12248   */\n      gt\n        /* \"#utility.yul\":12215:12332   */\n      iszero\n      tag_738\n      jumpi\n        /* \"#utility.yul\":12251:12330   */\n      tag_739\n      tag_510\n      jump\t// in\n    tag_739:\n        /* \"#utility.yul\":12215:12332   */\n    tag_738:\n        /* \"#utility.yul\":12356:12418   */\n      tag_740\n        /* \"#utility.yul\":12410:12417   */\n      dup6\n        /* \"#utility.yul\":12401:12407   */\n      dup3\n        /* \"#utility.yul\":12390:12399   */\n      dup7\n        /* \"#utility.yul\":12386:12408   */\n      add\n        /* \"#utility.yul\":12356:12418   */\n      tag_538\n      jump\t// in\n    tag_740:\n        /* \"#utility.yul\":12346:12418   */\n      swap3\n      pop\n        /* \"#utility.yul\":12142:12428   */\n      pop\n        /* \"#utility.yul\":12467:12469   */\n      0x20\n        /* \"#utility.yul\":12493:12546   */\n      tag_741\n        /* \"#utility.yul\":12538:12545   */\n      dup6\n        /* \"#utility.yul\":12529:12535   */\n      dup3\n        /* \"#utility.yul\":12518:12527   */\n      dup7\n        /* \"#utility.yul\":12514:12536   */\n      add\n        /* \"#utility.yul\":12493:12546   */\n      tag_542\n      jump\t// in\n    tag_741:\n        /* \"#utility.yul\":12483:12546   */\n      swap2\n      pop\n        /* \"#utility.yul\":12438:12556   */\n      pop\n        /* \"#utility.yul\":11911:12563   */\n      swap3\n      pop\n      swap3\n      swap1\n      pop\n      jump\t// out\n        /* \"#utility.yul\":12569:13223   */\n    tag_80:\n        /* \"#utility.yul\":12647:12653   */\n      0x00\n        /* \"#utility.yul\":12655:12661   */\n      dup1\n        /* \"#utility.yul\":12704:12706   */\n      0x40\n        /* \"#utility.yul\":12692:12701   */\n      dup4\n        /* \"#utility.yul\":12683:12690   */\n      dup6\n        /* \"#utility.yul\":12679:12702   */\n      sub\n        /* \"#utility.yul\":12675:12707   */\n      slt\n        /* \"#utility.yul\":12672:12791   */\n      iszero\n      tag_743\n      jumpi\n        /* \"#utility.yul\":12710:12789   */\n      tag_744\n      tag_509\n      jump\t// in\n    tag_744:\n        /* \"#utility.yul\":12672:12791   */\n    tag_743:\n        /* \"#utility.yul\":12858:12859   */\n      0x00\n        /* \"#utility.yul\":12847:12856   */\n      dup4\n        /* \"#utility.yul\":12843:12860   */\n      add\n        /* \"#utility.yul\":12830:12861   */\n      calldataload\n        /* \"#utility.yul\":12888:12906   */\n      0xffffffffffffffff\n        /* \"#utility.yul\":12880:12886   */\n      dup2\n        /* \"#utility.yul\":12877:12907   */\n      gt\n        /* \"#utility.yul\":12874:12991   */\n      iszero\n      tag_745\n      jumpi\n        /* \"#utility.yul\":12910:12989   */\n      tag_746\n      tag_510\n      jump\t// in\n    tag_746:\n        /* \"#utility.yul\":12874:12991   */\n    tag_745:\n        /* \"#utility.yul\":13015:13078   */\n      tag_747\n        /* \"#utility.yul\":13070:13077   */\n      dup6\n        /* \"#utility.yul\":13061:13067   */\n      dup3\n        /* \"#utility.yul\":13050:13059   */\n      dup7\n        /* \"#utility.yul\":13046:13068   */\n      add\n        /* \"#utility.yul\":13015:13078   */\n      tag_520\n      jump\t// in\n    tag_747:\n        /* \"#utility.yul\":13005:13078   */\n      swap3\n      pop\n        /* \"#utility.yul\":12801:13088   */\n      pop\n        /* \"#utility.yul\":13127:13129   */\n      0x20\n        /* \"#utility.yul\":13153:13206   */\n      tag_748\n        /* \"#utility.yul\":13198:13205   */\n      dup6\n        /* \"#utility.yul\":13189:13195   */\n      dup3\n        /* \"#utility.yul\":13178:13187   */\n      dup7\n        /* \"#utility.yul\":13174:13196   */\n      add\n        /* \"#utility.yul\":13153:13206   */\n      tag_542\n      jump\t// in\n    tag_748:\n        /* \"#utility.yul\":13143:13206   */\n      swap2\n      pop\n        /* \"#utility.yul\":13098:13216   */\n      pop\n        /* \"#utility.yul\":12569:13223   */\n      swap3\n      pop\n      swap3\n      swap1\n      pop\n      jump\t// out\n        /* \"#utility.yul\":13229:13561   */\n    tag_96:\n        /* \"#utility.yul\":13350:13354   */\n      0x00\n        /* \"#utility.yul\":13388:13390   */\n      0x40\n        /* \"#utility.yul\":13377:13386   */\n      dup3\n        /* \"#utility.yul\":13373:13391   */\n      add\n        /* \"#utility.yul\":13365:13391   */\n      swap1\n      pop\n        /* \"#utility.yul\":13401:13472   */\n      tag_750\n        /* \"#utility.yul\":13469:13470   */\n      0x00\n        /* \"#utility.yul\":13458:13467   */\n      dup4\n        /* \"#utility.yul\":13454:13471   */\n      add\n        /* \"#utility.yul\":13445:13451   */\n      dup6\n        /* \"#utility.yul\":13401:13472   */\n      tag_507\n      jump\t// in\n    tag_750:\n        /* \"#utility.yul\":13482:13554   */\n      tag_751\n        /* \"#utility.yul\":13550:13552   */\n      0x20\n        /* \"#utility.yul\":13539:13548   */\n      dup4\n        /* \"#utility.yul\":13535:13553   */\n      add\n        /* \"#utility.yul\":13526:13532   */\n      dup5\n        /* \"#utility.yul\":13482:13554   */\n      tag_507\n      jump\t// in\n    tag_751:\n        /* \"#utility.yul\":13229:13561   */\n      swap4\n      swap3\n      pop\n      pop\n      pop\n      jump\t// out\n        /* \"#utility.yul\":13567:13903   */\n    tag_543:\n        /* \"#utility.yul\":13669:13673   */\n      0x00\n        /* \"#utility.yul\":13759:13777   */\n      0xffffffffffffffff\n        /* \"#utility.yul\":13751:13757   */\n      dup3\n        /* \"#utility.yul\":13748:13778   */\n      gt\n        /* \"#utility.yul\":13745:13801   */\n      iszero\n      tag_753\n      jumpi\n        /* \"#utility.yul\":13781:13799   */\n      tag_754\n      tag_514\n      jump\t// in\n    tag_754:\n        /* \"#utility.yul\":13745:13801   */\n    tag_753:\n        /* \"#utility.yul\":13831:13835   */\n      0x20\n        /* \"#utility.yul\":13823:13829   */\n      dup3\n        /* \"#utility.yul\":13819:13836   */\n      mul\n        /* \"#utility.yul\":13811:13836   */\n      swap1\n      pop\n        /* \"#utility.yul\":13891:13895   */\n      0x20\n        /* \"#utility.yul\":13885:13889   */\n      dup2\n        /* \"#utility.yul\":13881:13896   */\n      add\n        /* \"#utility.yul\":13873:13896   */\n      swap1\n      pop\n        /* \"#utility.yul\":13567:13903   */\n      swap2\n      swap1\n      pop\n      jump\t// out\n        /* \"#utility.yul\":13949:14526   */\n    tag_544:\n        /* \"#utility.yul\":14023:14028   */\n      0x00\n        /* \"#utility.yul\":14067:14071   */\n      0x40\n        /* \"#utility.yul\":14055:14064   */\n      dup3\n        /* \"#utility.yul\":14050:14053   */\n      dup5\n        /* \"#utility.yul\":14046:14065   */\n      sub\n        /* \"#utility.yul\":14042:14072   */\n      slt\n        /* \"#utility.yul\":14039:14156   */\n      iszero\n      tag_756\n      jumpi\n        /* \"#utility.yul\":14075:14154   */\n      tag_757\n      tag_527\n      jump\t// in\n    tag_757:\n        /* \"#utility.yul\":14039:14156   */\n    tag_756:\n        /* \"#utility.yul\":14174:14195   */\n      tag_758\n        /* \"#utility.yul\":14190:14194   */\n      0x40\n        /* \"#utility.yul\":14174:14195   */\n      tag_516\n      jump\t// in\n    tag_758:\n        /* \"#utility.yul\":14165:14195   */\n      swap1\n      pop\n        /* \"#utility.yul\":14256:14257   */\n      0x00\n        /* \"#utility.yul\":14296:14345   */\n      tag_759\n        /* \"#utility.yul\":14341:14344   */\n      dup5\n        /* \"#utility.yul\":14332:14338   */\n      dup3\n        /* \"#utility.yul\":14321:14330   */\n      dup6\n        /* \"#utility.yul\":14317:14339   */\n      add\n        /* \"#utility.yul\":14296:14345   */\n      tag_522\n      jump\t// in\n    tag_759:\n        /* \"#utility.yul\":14289:14293   */\n      0x00\n        /* \"#utility.yul\":14282:14287   */\n      dup4\n        /* \"#utility.yul\":14278:14294   */\n      add\n        /* \"#utility.yul\":14271:14346   */\n      mstore\n        /* \"#utility.yul\":14205:14357   */\n      pop\n        /* \"#utility.yul\":14417:14419   */\n      0x20\n        /* \"#utility.yul\":14458:14507   */\n      tag_760\n        /* \"#utility.yul\":14503:14506   */\n      dup5\n        /* \"#utility.yul\":14494:14500   */\n      dup3\n        /* \"#utility.yul\":14483:14492   */\n      dup6\n        /* \"#utility.yul\":14479:14501   */\n      add\n        /* \"#utility.yul\":14458:14507   */\n      tag_522\n      jump\t// in\n    tag_760:\n        /* \"#utility.yul\":14451:14455   */\n      0x20\n        /* \"#utility.yul\":14444:14449   */\n      dup4\n        /* \"#utility.yul\":14440:14456   */\n      add\n        /* \"#utility.yul\":14433:14508   */\n      mstore\n        /* \"#utility.yul\":14367:14519   */\n      pop\n        /* \"#utility.yul\":13949:14526   */\n      swap3\n      swap2\n      pop\n      pop\n      jump\t// out\n        /* \"#utility.yul\":14574:15359   */\n    tag_545:\n        /* \"#utility.yul\":14695:14700   */\n      0x00\n        /* \"#utility.yul\":14720:14826   */\n      tag_762\n        /* \"#utility.yul\":14736:14825   */\n      tag_763\n        /* \"#utility.yul\":14818:14824   */\n      dup5\n        /* \"#utility.yul\":14736:14825   */\n      tag_543\n      jump\t// in\n    tag_763:\n        /* \"#utility.yul\":14720:14826   */\n      tag_516\n      jump\t// in\n    tag_762:\n        /* \"#utility.yul\":14711:14826   */\n      swap1\n      pop\n        /* \"#utility.yul\":14846:14851   */\n      dup1\n        /* \"#utility.yul\":14875:14881   */\n      dup4\n        /* \"#utility.yul\":14868:14873   */\n      dup3\n        /* \"#utility.yul\":14861:14882   */\n      mstore\n        /* \"#utility.yul\":14909:14913   */\n      0x20\n        /* \"#utility.yul\":14902:14907   */\n      dup3\n        /* \"#utility.yul\":14898:14914   */\n      add\n        /* \"#utility.yul\":14891:14914   */\n      swap1\n      pop\n        /* \"#utility.yul\":14962:14966   */\n      0x40\n        /* \"#utility.yul\":14954:14960   */\n      dup5\n        /* \"#utility.yul\":14950:14967   */\n      mul\n        /* \"#utility.yul\":14942:14948   */\n      dup4\n        /* \"#utility.yul\":14938:14968   */\n      add\n        /* \"#utility.yul\":14991:14994   */\n      dup6\n        /* \"#utility.yul\":14983:14989   */\n      dup2\n        /* \"#utility.yul\":14980:14995   */\n      gt\n        /* \"#utility.yul\":14977:15099   */\n      iszero\n      tag_764\n      jumpi\n        /* \"#utility.yul\":15010:15089   */\n      tag_765\n      tag_526\n      jump\t// in\n    tag_765:\n        /* \"#utility.yul\":14977:15099   */\n    tag_764:\n        /* \"#utility.yul\":15125:15131   */\n      dup4\n        /* \"#utility.yul\":15108:15353   */\n    tag_766:\n        /* \"#utility.yul\":15142:15148   */\n      dup2\n        /* \"#utility.yul\":15137:15140   */\n      dup2\n        /* \"#utility.yul\":15134:15149   */\n      lt\n        /* \"#utility.yul\":15108:15353   */\n      iszero\n      tag_768\n      jumpi\n        /* \"#utility.yul\":15217:15220   */\n      dup1\n        /* \"#utility.yul\":15246:15308   */\n      tag_769\n        /* \"#utility.yul\":15304:15307   */\n      dup9\n        /* \"#utility.yul\":15292:15302   */\n      dup3\n        /* \"#utility.yul\":15246:15308   */\n      tag_544\n      jump\t// in\n    tag_769:\n        /* \"#utility.yul\":15241:15244   */\n      dup5\n        /* \"#utility.yul\":15234:15309   */\n      mstore\n        /* \"#utility.yul\":15338:15342   */\n      0x20\n        /* \"#utility.yul\":15333:15336   */\n      dup5\n        /* \"#utility.yul\":15329:15343   */\n      add\n        /* \"#utility.yul\":15322:15343   */\n      swap4\n      pop\n        /* \"#utility.yul\":15184:15353   */\n      pop\n        /* \"#utility.yul\":15168:15172   */\n      0x40\n        /* \"#utility.yul\":15163:15166   */\n      dup2\n        /* \"#utility.yul\":15159:15173   */\n      add\n        /* \"#utility.yul\":15152:15173   */\n      swap1\n      pop\n        /* \"#utility.yul\":15108:15353   */\n      jump(tag_766)\n    tag_768:\n        /* \"#utility.yul\":15112:15133   */\n      pop\n        /* \"#utility.yul\":14701:15359   */\n      pop\n      pop\n        /* \"#utility.yul\":14574:15359   */\n      swap4\n      swap3\n      pop\n      pop\n      pop\n      jump\t// out\n        /* \"#utility.yul\":15407:15827   */\n    tag_546:\n        /* \"#utility.yul\":15503:15508   */\n      0x00\n        /* \"#utility.yul\":15552:15555   */\n      dup3\n        /* \"#utility.yul\":15545:15549   */\n      0x1f\n        /* \"#utility.yul\":15537:15543   */\n      dup4\n        /* \"#utility.yul\":15533:15550   */\n      add\n        /* \"#utility.yul\":15529:15556   */\n      slt\n        /* \"#utility.yul\":15519:15641   */\n      tag_771\n      jumpi\n        /* \"#utility.yul\":15560:15639   */\n      tag_772\n      tag_511\n      jump\t// in\n    tag_772:\n        /* \"#utility.yul\":15519:15641   */\n    tag_771:\n        /* \"#utility.yul\":15677:15683   */\n      dup2\n        /* \"#utility.yul\":15664:15684   */\n      calldataload\n        /* \"#utility.yul\":15702:15821   */\n      tag_773\n        /* \"#utility.yul\":15817:15820   */\n      dup5\n        /* \"#utility.yul\":15809:15815   */\n      dup3\n        /* \"#utility.yul\":15802:15806   */\n      0x20\n        /* \"#utility.yul\":15794:15800   */\n      dup7\n        /* \"#utility.yul\":15790:15807   */\n      add\n        /* \"#utility.yul\":15702:15821   */\n      tag_545\n      jump\t// in\n    tag_773:\n        /* \"#utility.yul\":15693:15821   */\n      swap2\n      pop\n        /* \"#utility.yul\":15509:15827   */\n      pop\n        /* \"#utility.yul\":15407:15827   */\n      swap3\n      swap2\n      pop\n      pop\n      jump\t// out\n        /* \"#utility.yul\":15833:16422   */\n    tag_104:\n        /* \"#utility.yul\":15942:15948   */\n      0x00\n        /* \"#utility.yul\":15991:15993   */\n      0x20\n        /* \"#utility.yul\":15979:15988   */\n      dup3\n        /* \"#utility.yul\":15970:15977   */\n      dup5\n        /* \"#utility.yul\":15966:15989   */\n      sub\n        /* \"#utility.yul\":15962:15994   */\n      slt\n        /* \"#utility.yul\":15959:16078   */\n      iszero\n      tag_775\n      jumpi\n        /* \"#utility.yul\":15997:16076   */\n      tag_776\n      tag_509\n      jump\t// in\n    tag_776:\n        /* \"#utility.yul\":15959:16078   */\n    tag_775:\n        /* \"#utility.yul\":16145:16146   */\n      0x00\n        /* \"#utility.yul\":16134:16143   */\n      dup3\n        /* \"#utility.yul\":16130:16147   */\n      add\n        /* \"#utility.yul\":16117:16148   */\n      calldataload\n        /* \"#utility.yul\":16175:16193   */\n      0xffffffffffffffff\n        /* \"#utility.yul\":16167:16173   */\n      dup2\n        /* \"#utility.yul\":16164:16194   */\n      gt\n        /* \"#utility.yul\":16161:16278   */\n      iszero\n      tag_777\n      jumpi\n        /* \"#utility.yul\":16197:16276   */\n      tag_778\n      tag_510\n      jump\t// in\n    tag_778:\n        /* \"#utility.yul\":16161:16278   */\n    tag_777:\n        /* \"#utility.yul\":16302:16405   */\n      tag_779\n        /* \"#utility.yul\":16397:16404   */\n      dup5\n        /* \"#utility.yul\":16388:16394   */\n      dup3\n        /* \"#utility.yul\":16377:16386   */\n      dup6\n        /* \"#utility.yul\":16373:16395   */\n      add\n        /* \"#utility.yul\":16302:16405   */\n      tag_546\n      jump\t// in\n    tag_779:\n        /* \"#utility.yul\":16292:16405   */\n      swap2\n      pop\n        /* \"#utility.yul\":16088:16415   */\n      pop\n        /* \"#utility.yul\":15833:16422   */\n      swap3\n      swap2\n      pop\n      pop\n      jump\t// out\n        /* \"#utility.yul\":16428:16757   */\n    tag_109:\n        /* \"#utility.yul\":16487:16493   */\n      0x00\n        /* \"#utility.yul\":16536:16538   */\n      0x20\n        /* \"#utility.yul\":16524:16533   */\n      dup3\n        /* \"#utility.yul\":16515:16522   */\n      dup5\n        /* \"#utility.yul\":16511:16534   */\n      sub\n        /* \"#utility.yul\":16507:16539   */\n      slt\n        /* \"#utility.yul\":16504:16623   */\n      iszero\n      tag_781\n      jumpi\n        /* \"#utility.yul\":16542:16621   */\n      tag_782\n      tag_509\n      jump\t// in\n    tag_782:\n        /* \"#utility.yul\":16504:16623   */\n    tag_781:\n        /* \"#utility.yul\":16662:16663   */\n      0x00\n        /* \"#utility.yul\":16687:16740   */\n      tag_783\n        /* \"#utility.yul\":16732:16739   */\n      dup5\n        /* \"#utility.yul\":16723:16729   */\n      dup3\n        /* \"#utility.yul\":16712:16721   */\n      dup6\n        /* \"#utility.yul\":16708:16730   */\n      add\n        /* \"#utility.yul\":16687:16740   */\n      tag_522\n      jump\t// in\n    tag_783:\n        /* \"#utility.yul\":16677:16740   */\n      swap2\n      pop\n        /* \"#utility.yul\":16633:16750   */\n      pop\n        /* \"#utility.yul\":16428:16757   */\n      swap3\n      swap2\n      pop\n      pop\n      jump\t// out\n        /* \"#utility.yul\":16763:16881   */\n    tag_547:\n        /* \"#utility.yul\":16850:16874   */\n      tag_785\n        /* \"#utility.yul\":16868:16873   */\n      dup2\n        /* \"#utility.yul\":16850:16874   */\n      tag_540\n      jump\t// in\n    tag_785:\n        /* \"#utility.yul\":16845:16848   */\n      dup3\n        /* \"#utility.yul\":16838:16875   */\n      mstore\n        /* \"#utility.yul\":16763:16881   */\n      pop\n      pop\n      jump\t// out\n        /* \"#utility.yul\":16887:17109   */\n    tag_119:\n        /* \"#utility.yul\":16980:16984   */\n      0x00\n        /* \"#utility.yul\":17018:17020   */\n      0x20\n        /* \"#utility.yul\":17007:17016   */\n      dup3\n        /* \"#utility.yul\":17003:17021   */\n      add\n        /* \"#utility.yul\":16995:17021   */\n      swap1\n      pop\n        /* \"#utility.yul\":17031:17102   */\n      tag_787\n        /* \"#utility.yul\":17099:17100   */\n      0x00\n        /* \"#utility.yul\":17088:17097   */\n      dup4\n        /* \"#utility.yul\":17084:17101   */\n      add\n        /* \"#utility.yul\":17075:17081   */\n      dup5\n        /* \"#utility.yul\":17031:17102   */\n      tag_547\n      jump\t// in\n    tag_787:\n        /* \"#utility.yul\":16887:17109   */\n      swap3\n      swap2\n      pop\n      pop\n      jump\t// out\n        /* \"#utility.yul\":17115:17947   */\n    tag_138:\n        /* \"#utility.yul\":17202:17208   */\n      0x00\n        /* \"#utility.yul\":17210:17216   */\n      dup1\n        /* \"#utility.yul\":17259:17261   */\n      0x40\n        /* \"#utility.yul\":17247:17256   */\n      dup4\n        /* \"#utility.yul\":17238:17245   */\n      dup6\n        /* \"#utility.yul\":17234:17257   */\n      sub\n        /* \"#utility.yul\":17230:17262   */\n      slt\n        /* \"#utility.yul\":17227:17346   */\n      iszero\n      tag_789\n      jumpi\n        /* \"#utility.yul\":17265:17344   */\n      tag_790\n      tag_509\n      jump\t// in\n    tag_790:\n        /* \"#utility.yul\":17227:17346   */\n    tag_789:\n        /* \"#utility.yul\":17413:17414   */\n      0x00\n        /* \"#utility.yul\":17402:17411   */\n      dup4\n        /* \"#utility.yul\":17398:17415   */\n      add\n        /* \"#utility.yul\":17385:17416   */\n      calldataload\n        /* \"#utility.yul\":17443:17461   */\n      0xffffffffffffffff\n        /* \"#utility.yul\":17435:17441   */\n      dup2\n        /* \"#utility.yul\":17432:17462   */\n      gt\n        /* \"#utility.yul\":17429:17546   */\n      iszero\n      tag_791\n      jumpi\n        /* \"#utility.yul\":17465:17544   */\n      tag_792\n      tag_510\n      jump\t// in\n    tag_792:\n        /* \"#utility.yul\":17429:17546   */\n    tag_791:\n        /* \"#utility.yul\":17570:17633   */\n      tag_793\n        /* \"#utility.yul\":17625:17632   */\n      dup6\n        /* \"#utility.yul\":17616:17622   */\n      dup3\n        /* \"#utility.yul\":17605:17614   */\n      dup7\n        /* \"#utility.yul\":17601:17623   */\n      add\n        /* \"#utility.yul\":17570:17633   */\n      tag_520\n      jump\t// in\n    tag_793:\n        /* \"#utility.yul\":17560:17633   */\n      swap3\n      pop\n        /* \"#utility.yul\":17356:17643   */\n      pop\n        /* \"#utility.yul\":17710:17712   */\n      0x20\n        /* \"#utility.yul\":17699:17708   */\n      dup4\n        /* \"#utility.yul\":17695:17713   */\n      add\n        /* \"#utility.yul\":17682:17714   */\n      calldataload\n        /* \"#utility.yul\":17741:17759   */\n      0xffffffffffffffff\n        /* \"#utility.yul\":17733:17739   */\n      dup2\n        /* \"#utility.yul\":17730:17760   */\n      gt\n        /* \"#utility.yul\":17727:17844   */\n      iszero\n      tag_794\n      jumpi\n        /* \"#utility.yul\":17763:17842   */\n      tag_795\n      tag_510\n      jump\t// in\n    tag_795:\n        /* \"#utility.yul\":17727:17844   */\n    tag_794:\n        /* \"#utility.yul\":17868:17930   */\n      tag_796\n        /* \"#utility.yul\":17922:17929   */\n      dup6\n        /* \"#utility.yul\":17913:17919   */\n      dup3\n        /* \"#utility.yul\":17902:17911   */\n      dup7\n        /* \"#utility.yul\":17898:17920   */\n      add\n        /* \"#utility.yul\":17868:17930   */\n      tag_538\n      jump\t// in\n    tag_796:\n        /* \"#utility.yul\":17858:17930   */\n      swap2\n      pop\n        /* \"#utility.yul\":17653:17940   */\n      pop\n        /* \"#utility.yul\":17115:17947   */\n      swap3\n      pop\n      swap3\n      swap1\n      pop\n      jump\t// out\n        /* \"#utility.yul\":17953:18057   */\n    tag_548:\n        /* \"#utility.yul\":17998:18005   */\n      0x00\n        /* \"#utility.yul\":18027:18051   */\n      tag_798\n        /* \"#utility.yul\":18045:18050   */\n      dup3\n        /* \"#utility.yul\":18027:18051   */\n      tag_539\n      jump\t// in\n    tag_798:\n        /* \"#utility.yul\":18016:18051   */\n      swap1\n      pop\n        /* \"#utility.yul\":17953:18057   */\n      swap2\n      swap1\n      pop\n      jump\t// out\n        /* \"#utility.yul\":18063:18205   */\n    tag_549:\n        /* \"#utility.yul\":18166:18198   */\n      tag_800\n        /* \"#utility.yul\":18192:18197   */\n      dup2\n        /* \"#utility.yul\":18166:18198   */\n      tag_548\n      jump\t// in\n    tag_800:\n        /* \"#utility.yul\":18161:18164   */\n      dup3\n        /* \"#utility.yul\":18154:18199   */\n      mstore\n        /* \"#utility.yul\":18063:18205   */\n      pop\n      pop\n      jump\t// out\n        /* \"#utility.yul\":18211:18465   */\n    tag_144:\n        /* \"#utility.yul\":18320:18324   */\n      0x00\n        /* \"#utility.yul\":18358:18360   */\n      0x20\n        /* \"#utility.yul\":18347:18356   */\n      dup3\n        /* \"#utility.yul\":18343:18361   */\n      add\n        /* \"#utility.yul\":18335:18361   */\n      swap1\n      pop\n        /* \"#utility.yul\":18371:18458   */\n      tag_802\n        /* \"#utility.yul\":18455:18456   */\n      0x00\n        /* \"#utility.yul\":18444:18453   */\n      dup4\n        /* \"#utility.yul\":18440:18457   */\n      add\n        /* \"#utility.yul\":18431:18437   */\n      dup5\n        /* \"#utility.yul\":18371:18458   */\n      tag_549\n      jump\t// in\n    tag_802:\n        /* \"#utility.yul\":18211:18465   */\n      swap3\n      swap2\n      pop\n      pop\n      jump\t// out\n        /* \"#utility.yul\":18471:18800   */\n    tag_148:\n        /* \"#utility.yul\":18530:18536   */\n      0x00\n        /* \"#utility.yul\":18579:18581   */\n      0x20\n        /* \"#utility.yul\":18567:18576   */\n      dup3\n        /* \"#utility.yul\":18558:18565   */\n      dup5\n        /* \"#utility.yul\":18554:18577   */\n      sub\n        /* \"#utility.yul\":18550:18582   */\n      slt\n        /* \"#utility.yul\":18547:18666   */\n      iszero\n      tag_804\n      jumpi\n        /* \"#utility.yul\":18585:18664   */\n      tag_805\n      tag_509\n      jump\t// in\n    tag_805:\n        /* \"#utility.yul\":18547:18666   */\n    tag_804:\n        /* \"#utility.yul\":18705:18706   */\n      0x00\n        /* \"#utility.yul\":18730:18783   */\n      tag_806\n        /* \"#utility.yul\":18775:18782   */\n      dup5\n        /* \"#utility.yul\":18766:18772   */\n      dup3\n        /* \"#utility.yul\":18755:18764   */\n      dup6\n        /* \"#utility.yul\":18751:18773   */\n      add\n        /* \"#utility.yul\":18730:18783   */\n      tag_542\n      jump\t// in\n    tag_806:\n        /* \"#utility.yul\":18720:18783   */\n      swap2\n      pop\n        /* \"#utility.yul\":18676:18793   */\n      pop\n        /* \"#utility.yul\":18471:18800   */\n      swap3\n      swap2\n      pop\n      pop\n      jump\t// out\n        /* \"#utility.yul\":18806:18975   */\n    tag_550:\n        /* \"#utility.yul\":18890:18901   */\n      0x00\n        /* \"#utility.yul\":18924:18930   */\n      dup3\n        /* \"#utility.yul\":18919:18922   */\n      dup3\n        /* \"#utility.yul\":18912:18931   */\n      mstore\n        /* \"#utility.yul\":18964:18968   */\n      0x20\n        /* \"#utility.yul\":18959:18962   */\n      dup3\n        /* \"#utility.yul\":18955:18969   */\n      add\n        /* \"#utility.yul\":18940:18969   */\n      swap1\n      pop\n        /* \"#utility.yul\":18806:18975   */\n      swap3\n      swap2\n      pop\n      pop\n      jump\t// out\n        /* \"#utility.yul\":18981:19161   */\n    tag_551:\n        /* \"#utility.yul\":19121:19153   */\n      0x5468652063616c6c657220697320616e6f7468657220636f6e74726163740000\n        /* \"#utility.yul\":19117:19118   */\n      0x00\n        /* \"#utility.yul\":19109:19115   */\n      dup3\n        /* \"#utility.yul\":19105:19119   */\n      add\n        /* \"#utility.yul\":19098:19154   */\n      mstore\n        /* \"#utility.yul\":18981:19161   */\n      pop\n      jump\t// out\n        /* \"#utility.yul\":19167:19533   */\n    tag_552:\n        /* \"#utility.yul\":19309:19312   */\n      0x00\n        /* \"#utility.yul\":19330:19397   */\n      tag_810\n        /* \"#utility.yul\":19394:19396   */\n      0x1e\n        /* \"#utility.yul\":19389:19392   */\n      dup4\n        /* \"#utility.yul\":19330:19397   */\n      tag_550\n      jump\t// in\n    tag_810:\n        /* \"#utility.yul\":19323:19397   */\n      swap2\n      pop\n        /* \"#utility.yul\":19406:19499   */\n      tag_811\n        /* \"#utility.yul\":19495:19498   */\n      dup3\n        /* \"#utility.yul\":19406:19499   */\n      tag_551\n      jump\t// in\n    tag_811:\n        /* \"#utility.yul\":19524:19526   */\n      0x20\n        /* \"#utility.yul\":19519:19522   */\n      dup3\n        /* \"#utility.yul\":19515:19527   */\n      add\n        /* \"#utility.yul\":19508:19527   */\n      swap1\n      pop\n        /* \"#utility.yul\":19167:19533   */\n      swap2\n      swap1\n      pop\n      jump\t// out\n        /* \"#utility.yul\":19539:19958   */\n    tag_184:\n        /* \"#utility.yul\":19705:19709   */\n      0x00\n        /* \"#utility.yul\":19743:19745   */\n      0x20\n        /* \"#utility.yul\":19732:19741   */\n      dup3\n        /* \"#utility.yul\":19728:19746   */\n      add\n        /* \"#utility.yul\":19720:19746   */\n      swap1\n      pop\n        /* \"#utility.yul\":19792:19801   */\n      dup2\n        /* \"#utility.yul\":19786:19790   */\n      dup2\n        /* \"#utility.yul\":19782:19802   */\n      sub\n        /* \"#utility.yul\":19778:19779   */\n      0x00\n        /* \"#utility.yul\":19767:19776   */\n      dup4\n        /* \"#utility.yul\":19763:19780   */\n      add\n        /* \"#utility.yul\":19756:19803   */\n      mstore\n        /* \"#utility.yul\":19820:19951   */\n      tag_813\n        /* \"#utility.yul\":19946:19950   */\n      dup2\n        /* \"#utility.yul\":19820:19951   */\n      tag_552\n      jump\t// in\n    tag_813:\n        /* \"#utility.yul\":19812:19951   */\n      swap1\n      pop\n        /* \"#utility.yul\":19539:19958   */\n      swap2\n      swap1\n      pop\n      jump\t// out\n        /* \"#utility.yul\":19964:20111   */\n    tag_553:\n        /* \"#utility.yul\":20065:20076   */\n      0x00\n        /* \"#utility.yul\":20102:20105   */\n      dup2\n        /* \"#utility.yul\":20087:20105   */\n      swap1\n      pop\n        /* \"#utility.yul\":19964:20111   */\n      swap3\n      swap2\n      pop\n      pop\n      jump\t// out\n        /* \"#utility.yul\":20117:20503   */\n    tag_554:\n        /* \"#utility.yul\":20221:20224   */\n      0x00\n        /* \"#utility.yul\":20249:20287   */\n      tag_816\n        /* \"#utility.yul\":20281:20286   */\n      dup3\n        /* \"#utility.yul\":20249:20287   */\n      tag_532\n      jump\t// in\n    tag_816:\n        /* \"#utility.yul\":20303:20391   */\n      tag_817\n        /* \"#utility.yul\":20384:20390   */\n      dup2\n        /* \"#utility.yul\":20379:20382   */\n      dup6\n        /* \"#utility.yul\":20303:20391   */\n      tag_553\n      jump\t// in\n    tag_817:\n        /* \"#utility.yul\":20296:20391   */\n      swap4\n      pop\n        /* \"#utility.yul\":20400:20465   */\n      tag_818\n        /* \"#utility.yul\":20458:20464   */\n      dup2\n        /* \"#utility.yul\":20453:20456   */\n      dup6\n        /* \"#utility.yul\":20446:20450   */\n      0x20\n        /* \"#utility.yul\":20439:20444   */\n      dup7\n        /* \"#utility.yul\":20435:20451   */\n      add\n        /* \"#utility.yul\":20400:20465   */\n      tag_534\n      jump\t// in\n    tag_818:\n        /* \"#utility.yul\":20490:20496   */\n      dup1\n        /* \"#utility.yul\":20485:20488   */\n      dup5\n        /* \"#utility.yul\":20481:20497   */\n      add\n        /* \"#utility.yul\":20474:20497   */\n      swap2\n      pop\n        /* \"#utility.yul\":20225:20503   */\n      pop\n        /* \"#utility.yul\":20117:20503   */\n      swap3\n      swap2\n      pop\n      pop\n      jump\t// out\n        /* \"#utility.yul\":20509:20780   */\n    tag_188:\n        /* \"#utility.yul\":20639:20642   */\n      0x00\n        /* \"#utility.yul\":20661:20754   */\n      tag_820\n        /* \"#utility.yul\":20750:20753   */\n      dup3\n        /* \"#utility.yul\":20741:20747   */\n      dup5\n        /* \"#utility.yul\":20661:20754   */\n      tag_554\n      jump\t// in\n    tag_820:\n        /* \"#utility.yul\":20654:20754   */\n      swap2\n      pop\n        /* \"#utility.yul\":20771:20774   */\n      dup2\n        /* \"#utility.yul\":20764:20774   */\n      swap1\n      pop\n        /* \"#utility.yul\":20509:20780   */\n      swap3\n      swap2\n      pop\n      pop\n      jump\t// out\n        /* \"#utility.yul\":20786:20955   */\n    tag_555:\n        /* \"#utility.yul\":20926:20947   */\n      0x54686520626f782073616c6520697320656e6400000000000000000000000000\n        /* \"#utility.yul\":20922:20923   */\n      0x00\n        /* \"#utility.yul\":20914:20920   */\n      dup3\n        /* \"#utility.yul\":20910:20924   */\n      add\n        /* \"#utility.yul\":20903:20948   */\n      mstore\n        /* \"#utility.yul\":20786:20955   */\n      pop\n      jump\t// out\n        /* \"#utility.yul\":20961:21327   */\n    tag_556:\n        /* \"#utility.yul\":21103:21106   */\n      0x00\n        /* \"#utility.yul\":21124:21191   */\n      tag_823\n        /* \"#utility.yul\":21188:21190   */\n      0x13\n        /* \"#utility.yul\":21183:21186   */\n      dup4\n        /* \"#utility.yul\":21124:21191   */\n      tag_550\n      jump\t// in\n    tag_823:\n        /* \"#utility.yul\":21117:21191   */\n      swap2\n      pop\n        /* \"#utility.yul\":21200:21293   */\n      tag_824\n        /* \"#utility.yul\":21289:21292   */\n      dup3\n        /* \"#utility.yul\":21200:21293   */\n      tag_555\n      jump\t// in\n    tag_824:\n        /* \"#utility.yul\":21318:21320   */\n      0x20\n        /* \"#utility.yul\":21313:21316   */\n      dup3\n        /* \"#utility.yul\":21309:21321   */\n      add\n        /* \"#utility.yul\":21302:21321   */\n      swap1\n      pop\n        /* \"#utility.yul\":20961:21327   */\n      swap2\n      swap1\n      pop\n      jump\t// out\n        /* \"#utility.yul\":21333:21752   */\n    tag_191:\n        /* \"#utility.yul\":21499:21503   */\n      0x00\n        /* \"#utility.yul\":21537:21539   */\n      0x20\n        /* \"#utility.yul\":21526:21535   */\n      dup3\n        /* \"#utility.yul\":21522:21540   */\n      add\n        /* \"#utility.yul\":21514:21540   */\n      swap1\n      pop\n        /* \"#utility.yul\":21586:21595   */\n      dup2\n        /* \"#utility.yul\":21580:21584   */\n      dup2\n        /* \"#utility.yul\":21576:21596   */\n      sub\n        /* \"#utility.yul\":21572:21573   */\n      0x00\n        /* \"#utility.yul\":21561:21570   */\n      dup4\n        /* \"#utility.yul\":21557:21574   */\n      add\n        /* \"#utility.yul\":21550:21597   */\n      mstore\n        /* \"#utility.yul\":21614:21745   */\n      tag_826\n        /* \"#utility.yul\":21740:21744   */\n      dup2\n        /* \"#utility.yul\":21614:21745   */\n      tag_556\n      jump\t// in\n    tag_826:\n        /* \"#utility.yul\":21606:21745   */\n      swap1\n      pop\n        /* \"#utility.yul\":21333:21752   */\n      swap2\n      swap1\n      pop\n      jump\t// out\n        /* \"#utility.yul\":21758:21923   */\n    tag_557:\n        /* \"#utility.yul\":21898:21915   */\n      0x426f7820636e74206973207a65726f0000000000000000000000000000000000\n        /* \"#utility.yul\":21894:21895   */\n      0x00\n        /* \"#utility.yul\":21886:21892   */\n      dup3\n        /* \"#utility.yul\":21882:21896   */\n      add\n        /* \"#utility.yul\":21875:21916   */\n      mstore\n        /* \"#utility.yul\":21758:21923   */\n      pop\n      jump\t// out\n        /* \"#utility.yul\":21929:22295   */\n    tag_558:\n        /* \"#utility.yul\":22071:22074   */\n      0x00\n        /* \"#utility.yul\":22092:22159   */\n      tag_829\n        /* \"#utility.yul\":22156:22158   */\n      0x0f\n        /* \"#utility.yul\":22151:22154   */\n      dup4\n        /* \"#utility.yul\":22092:22159   */\n      tag_550\n      jump\t// in\n    tag_829:\n        /* \"#utility.yul\":22085:22159   */\n      swap2\n      pop\n        /* \"#utility.yul\":22168:22261   */\n      tag_830\n        /* \"#utility.yul\":22257:22260   */\n      dup3\n        /* \"#utility.yul\":22168:22261   */\n      tag_557\n      jump\t// in\n    tag_830:\n        /* \"#utility.yul\":22286:22288   */\n      0x20\n        /* \"#utility.yul\":22281:22284   */\n      dup3\n        /* \"#utility.yul\":22277:22289   */\n      add\n        /* \"#utility.yul\":22270:22289   */\n      swap1\n      pop\n        /* \"#utility.yul\":21929:22295   */\n      swap2\n      swap1\n      pop\n      jump\t// out\n        /* \"#utility.yul\":22301:22720   */\n    tag_194:\n        /* \"#utility.yul\":22467:22471   */\n      0x00\n        /* \"#utility.yul\":22505:22507   */\n      0x20\n        /* \"#utility.yul\":22494:22503   */\n      dup3\n        /* \"#utility.yul\":22490:22508   */\n      add\n        /* \"#utility.yul\":22482:22508   */\n      swap1\n      pop\n        /* \"#utility.yul\":22554:22563   */\n      dup2\n        /* \"#utility.yul\":22548:22552   */\n      dup2\n        /* \"#utility.yul\":22544:22564   */\n      sub\n        /* \"#utility.yul\":22540:22541   */\n      0x00\n        /* \"#utility.yul\":22529:22538   */\n      dup4\n        /* \"#utility.yul\":22525:22542   */\n      add\n        /* \"#utility.yul\":22518:22565   */\n      mstore\n        /* \"#utility.yul\":22582:22713   */\n      tag_832\n        /* \"#utility.yul\":22708:22712   */\n      dup2\n        /* \"#utility.yul\":22582:22713   */\n      tag_558\n      jump\t// in\n    tag_832:\n        /* \"#utility.yul\":22574:22713   */\n      swap1\n      pop\n        /* \"#utility.yul\":22301:22720   */\n      swap2\n      swap1\n      pop\n      jump\t// out\n        /* \"#utility.yul\":22726:22899   */\n    tag_559:\n        /* \"#utility.yul\":22866:22891   */\n      0x496e73756666696369656e7420426f7820616d6f756e74000000000000000000\n        /* \"#utility.yul\":22862:22863   */\n      0x00\n        /* \"#utility.yul\":22854:22860   */\n      dup3\n        /* \"#utility.yul\":22850:22864   */\n      add\n        /* \"#utility.yul\":22843:22892   */\n      mstore\n        /* \"#utility.yul\":22726:22899   */\n      pop\n      jump\t// out\n        /* \"#utility.yul\":22905:23271   */\n    tag_560:\n        /* \"#utility.yul\":23047:23050   */\n      0x00\n        /* \"#utility.yul\":23068:23135   */\n      tag_835\n        /* \"#utility.yul\":23132:23134   */\n      0x17\n        /* \"#utility.yul\":23127:23130   */\n      dup4\n        /* \"#utility.yul\":23068:23135   */\n      tag_550\n      jump\t// in\n    tag_835:\n        /* \"#utility.yul\":23061:23135   */\n      swap2\n      pop\n        /* \"#utility.yul\":23144:23237   */\n      tag_836\n        /* \"#utility.yul\":23233:23236   */\n      dup3\n        /* \"#utility.yul\":23144:23237   */\n      tag_559\n      jump\t// in\n    tag_836:\n        /* \"#utility.yul\":23262:23264   */\n      0x20\n        /* \"#utility.yul\":23257:23260   */\n      dup3\n        /* \"#utility.yul\":23253:23265   */\n      add\n        /* \"#utility.yul\":23246:23265   */\n      swap1\n      pop\n        /* \"#utility.yul\":22905:23271   */\n      swap2\n      swap1\n      pop\n      jump\t// out\n        /* \"#utility.yul\":23277:23696   */\n    tag_201:\n        /* \"#utility.yul\":23443:23447   */\n      0x00\n        /* \"#utility.yul\":23481:23483   */\n      0x20\n        /* \"#utility.yul\":23470:23479   */\n      dup3\n        /* \"#utility.yul\":23466:23484   */\n      add\n        /* \"#utility.yul\":23458:23484   */\n      swap1\n      pop\n        /* \"#utility.yul\":23530:23539   */\n      dup2\n        /* \"#utility.yul\":23524:23528   */\n      dup2\n        /* \"#utility.yul\":23520:23540   */\n      sub\n        /* \"#utility.yul\":23516:23517   */\n      0x00\n        /* \"#utility.yul\":23505:23514   */\n      dup4\n        /* \"#utility.yul\":23501:23518   */\n      add\n        /* \"#utility.yul\":23494:23541   */\n      mstore\n        /* \"#utility.yul\":23558:23689   */\n      tag_838\n        /* \"#utility.yul\":23684:23688   */\n      dup2\n        /* \"#utility.yul\":23558:23689   */\n      tag_560\n      jump\t// in\n    tag_838:\n        /* \"#utility.yul\":23550:23689   */\n      swap1\n      pop\n        /* \"#utility.yul\":23277:23696   */\n      swap2\n      swap1\n      pop\n      jump\t// out\n        /* \"#utility.yul\":23702:23801   */\n    tag_561:\n        /* \"#utility.yul\":23754:23760   */\n      0x00\n        /* \"#utility.yul\":23788:23793   */\n      dup2\n        /* \"#utility.yul\":23782:23794   */\n      mload\n        /* \"#utility.yul\":23772:23794   */\n      swap1\n      pop\n        /* \"#utility.yul\":23702:23801   */\n      swap2\n      swap1\n      pop\n      jump\t// out\n        /* \"#utility.yul\":23807:24184   */\n    tag_562:\n        /* \"#utility.yul\":23895:23898   */\n      0x00\n        /* \"#utility.yul\":23923:23962   */\n      tag_841\n        /* \"#utility.yul\":23956:23961   */\n      dup3\n        /* \"#utility.yul\":23923:23962   */\n      tag_561\n      jump\t// in\n    tag_841:\n        /* \"#utility.yul\":23978:24049   */\n      tag_842\n        /* \"#utility.yul\":24042:24048   */\n      dup2\n        /* \"#utility.yul\":24037:24040   */\n      dup6\n        /* \"#utility.yul\":23978:24049   */\n      tag_550\n      jump\t// in\n    tag_842:\n        /* \"#utility.yul\":23971:24049   */\n      swap4\n      pop\n        /* \"#utility.yul\":24058:24123   */\n      tag_843\n        /* \"#utility.yul\":24116:24122   */\n      dup2\n        /* \"#utility.yul\":24111:24114   */\n      dup6\n        /* \"#utility.yul\":24104:24108   */\n      0x20\n        /* \"#utility.yul\":24097:24102   */\n      dup7\n        /* \"#utility.yul\":24093:24109   */\n      add\n        /* \"#utility.yul\":24058:24123   */\n      tag_534\n      jump\t// in\n    tag_843:\n        /* \"#utility.yul\":24148:24177   */\n      tag_844\n        /* \"#utility.yul\":24170:24176   */\n      dup2\n        /* \"#utility.yul\":24148:24177   */\n      tag_513\n      jump\t// in\n    tag_844:\n        /* \"#utility.yul\":24143:24146   */\n      dup5\n        /* \"#utility.yul\":24139:24178   */\n      add\n        /* \"#utility.yul\":24132:24178   */\n      swap2\n      pop\n        /* \"#utility.yul\":23899:24184   */\n      pop\n        /* \"#utility.yul\":23807:24184   */\n      swap3\n      swap2\n      pop\n      pop\n      jump\t// out\n        /* \"#utility.yul\":24190:24723   */\n    tag_211:\n        /* \"#utility.yul\":24359:24363   */\n      0x00\n        /* \"#utility.yul\":24397:24399   */\n      0x60\n        /* \"#utility.yul\":24386:24395   */\n      dup3\n        /* \"#utility.yul\":24382:24400   */\n      add\n        /* \"#utility.yul\":24374:24400   */\n      swap1\n      pop\n        /* \"#utility.yul\":24446:24455   */\n      dup2\n        /* \"#utility.yul\":24440:24444   */\n      dup2\n        /* \"#utility.yul\":24436:24456   */\n      sub\n        /* \"#utility.yul\":24432:24433   */\n      0x00\n        /* \"#utility.yul\":24421:24430   */\n      dup4\n        /* \"#utility.yul\":24417:24434   */\n      add\n        /* \"#utility.yul\":24410:24457   */\n      mstore\n        /* \"#utility.yul\":24474:24552   */\n      tag_846\n        /* \"#utility.yul\":24547:24551   */\n      dup2\n        /* \"#utility.yul\":24538:24544   */\n      dup7\n        /* \"#utility.yul\":24474:24552   */\n      tag_562\n      jump\t// in\n    tag_846:\n        /* \"#utility.yul\":24466:24552   */\n      swap1\n      pop\n        /* \"#utility.yul\":24562:24634   */\n      tag_847\n        /* \"#utility.yul\":24630:24632   */\n      0x20\n        /* \"#utility.yul\":24619:24628   */\n      dup4\n        /* \"#utility.yul\":24615:24633   */\n      add\n        /* \"#utility.yul\":24606:24612   */\n      dup6\n        /* \"#utility.yul\":24562:24634   */\n      tag_507\n      jump\t// in\n    tag_847:\n        /* \"#utility.yul\":24644:24716   */\n      tag_848\n        /* \"#utility.yul\":24712:24714   */\n      0x40\n        /* \"#utility.yul\":24701:24710   */\n      dup4\n        /* \"#utility.yul\":24697:24715   */\n      add\n        /* \"#utility.yul\":24688:24694   */\n      dup5\n        /* \"#utility.yul\":24644:24716   */\n      tag_507\n      jump\t// in\n    tag_848:\n        /* \"#utility.yul\":24190:24723   */\n      swap5\n      swap4\n      pop\n      pop\n      pop\n      pop\n      jump\t// out\n        /* \"#utility.yul\":24729:24909   */\n    tag_224:\n        /* \"#utility.yul\":24777:24854   */\n      0x4e487b7100000000000000000000000000000000000000000000000000000000\n        /* \"#utility.yul\":24774:24775   */\n      0x00\n        /* \"#utility.yul\":24767:24855   */\n      mstore\n        /* \"#utility.yul\":24874:24878   */\n      0x32\n        /* \"#utility.yul\":24871:24872   */\n      0x04\n        /* \"#utility.yul\":24864:24879   */\n      mstore\n        /* \"#utility.yul\":24898:24902   */\n      0x24\n        /* \"#utility.yul\":24895:24896   */\n      0x00\n        /* \"#utility.yul\":24888:24903   */\n      revert\n        /* \"#utility.yul\":24915:25094   */\n    tag_563:\n        /* \"#utility.yul\":25055:25086   */\n      0x496e73756666696369656e7420626f7820616c6c6f6361746520636e74000000\n        /* \"#utility.yul\":25051:25052   */\n      0x00\n        /* \"#utility.yul\":25043:25049   */\n      dup3\n        /* \"#utility.yul\":25039:25053   */\n      add\n        /* \"#utility.yul\":25032:25087   */\n      mstore\n        /* \"#utility.yul\":24915:25094   */\n      pop\n      jump\t// out\n        /* \"#utility.yul\":25100:25466   */\n    tag_564:\n        /* \"#utility.yul\":25242:25245   */\n      0x00\n        /* \"#utility.yul\":25263:25330   */\n      tag_852\n        /* \"#utility.yul\":25327:25329   */\n      0x1d\n        /* \"#utility.yul\":25322:25325   */\n      dup4\n        /* \"#utility.yul\":25263:25330   */\n      tag_550\n      jump\t// in\n    tag_852:\n        /* \"#utility.yul\":25256:25330   */\n      swap2\n      pop\n        /* \"#utility.yul\":25339:25432   */\n      tag_853\n        /* \"#utility.yul\":25428:25431   */\n      dup3\n        /* \"#utility.yul\":25339:25432   */\n      tag_563\n      jump\t// in\n    tag_853:\n        /* \"#utility.yul\":25457:25459   */\n      0x20\n        /* \"#utility.yul\":25452:25455   */\n      dup3\n        /* \"#utility.yul\":25448:25460   */\n      add\n        /* \"#utility.yul\":25441:25460   */\n      swap1\n      pop\n        /* \"#utility.yul\":25100:25466   */\n      swap2\n      swap1\n      pop\n      jump\t// out\n        /* \"#utility.yul\":25472:25891   */\n    tag_232:\n        /* \"#utility.yul\":25638:25642   */\n      0x00\n        /* \"#utility.yul\":25676:25678   */\n      0x20\n        /* \"#utility.yul\":25665:25674   */\n      dup3\n        /* \"#utility.yul\":25661:25679   */\n      add\n        /* \"#utility.yul\":25653:25679   */\n      swap1\n      pop\n        /* \"#utility.yul\":25725:25734   */\n      dup2\n        /* \"#utility.yul\":25719:25723   */\n      dup2\n        /* \"#utility.yul\":25715:25735   */\n      sub\n        /* \"#utility.yul\":25711:25712   */\n      0x00\n        /* \"#utility.yul\":25700:25709   */\n      dup4\n        /* \"#utility.yul\":25696:25713   */\n      add\n        /* \"#utility.yul\":25689:25736   */\n      mstore\n        /* \"#utility.yul\":25753:25884   */\n      tag_855\n        /* \"#utility.yul\":25879:25883   */\n      dup2\n        /* \"#utility.yul\":25753:25884   */\n      tag_564\n      jump\t// in\n    tag_855:\n        /* \"#utility.yul\":25745:25884   */\n      swap1\n      pop\n        /* \"#utility.yul\":25472:25891   */\n      swap2\n      swap1\n      pop\n      jump\t// out\n        /* \"#utility.yul\":25897:26320   */\n    tag_244:\n        /* \"#utility.yul\":26038:26042   */\n      0x00\n        /* \"#utility.yul\":26076:26078   */\n      0x40\n        /* \"#utility.yul\":26065:26074   */\n      dup3\n        /* \"#utility.yul\":26061:26079   */\n      add\n        /* \"#utility.yul\":26053:26079   */\n      swap1\n      pop\n        /* \"#utility.yul\":26125:26134   */\n      dup2\n        /* \"#utility.yul\":26119:26123   */\n      dup2\n        /* \"#utility.yul\":26115:26135   */\n      sub\n        /* \"#utility.yul\":26111:26112   */\n      0x00\n        /* \"#utility.yul\":26100:26109   */\n      dup4\n        /* \"#utility.yul\":26096:26113   */\n      add\n        /* \"#utility.yul\":26089:26136   */\n      mstore\n        /* \"#utility.yul\":26153:26231   */\n      tag_857\n        /* \"#utility.yul\":26226:26230   */\n      dup2\n        /* \"#utility.yul\":26217:26223   */\n      dup6\n        /* \"#utility.yul\":26153:26231   */\n      tag_562\n      jump\t// in\n    tag_857:\n        /* \"#utility.yul\":26145:26231   */\n      swap1\n      pop\n        /* \"#utility.yul\":26241:26313   */\n      tag_858\n        /* \"#utility.yul\":26309:26311   */\n      0x20\n        /* \"#utility.yul\":26298:26307   */\n      dup4\n        /* \"#utility.yul\":26294:26312   */\n      add\n        /* \"#utility.yul\":26285:26291   */\n      dup5\n        /* \"#utility.yul\":26241:26313   */\n      tag_507\n      jump\t// in\n    tag_858:\n        /* \"#utility.yul\":25897:26320   */\n      swap4\n      swap3\n      pop\n      pop\n      pop\n      jump\t// out\n        /* \"#utility.yul\":26326:26506   */\n    tag_565:\n        /* \"#utility.yul\":26374:26451   */\n      0x4e487b7100000000000000000000000000000000000000000000000000000000\n        /* \"#utility.yul\":26371:26372   */\n      0x00\n        /* \"#utility.yul\":26364:26452   */\n      mstore\n        /* \"#utility.yul\":26471:26475   */\n      0x11\n        /* \"#utility.yul\":26468:26469   */\n      0x04\n        /* \"#utility.yul\":26461:26476   */\n      mstore\n        /* \"#utility.yul\":26495:26499   */\n      0x24\n        /* \"#utility.yul\":26492:26493   */\n      0x00\n        /* \"#utility.yul\":26485:26500   */\n      revert\n        /* \"#utility.yul\":26512:26745   */\n    tag_246:\n        /* \"#utility.yul\":26551:26554   */\n      0x00\n        /* \"#utility.yul\":26574:26598   */\n      tag_861\n        /* \"#utility.yul\":26592:26597   */\n      dup3\n        /* \"#utility.yul\":26574:26598   */\n      tag_506\n      jump\t// in\n    tag_861:\n        /* \"#utility.yul\":26565:26598   */\n      swap2\n      pop\n        /* \"#utility.yul\":26620:26686   */\n      0xffffffffffffffffffffffffffffffffffffffffffffffffffffffffffffffff\n        /* \"#utility.yul\":26613:26618   */\n      dup3\n        /* \"#utility.yul\":26610:26687   */\n      sub\n        /* \"#utility.yul\":26607:26710   */\n      tag_862\n      jumpi\n        /* \"#utility.yul\":26690:26708   */\n      tag_863\n      tag_565\n      jump\t// in\n    tag_863:\n        /* \"#utility.yul\":26607:26710   */\n    tag_862:\n        /* \"#utility.yul\":26737:26738   */\n      0x01\n        /* \"#utility.yul\":26730:26735   */\n      dup3\n        /* \"#utility.yul\":26726:26739   */\n      add\n        /* \"#utility.yul\":26719:26739   */\n      swap1\n      pop\n        /* \"#utility.yul\":26512:26745   */\n      swap2\n      swap1\n      pop\n      jump\t// out\n        /* \"#utility.yul\":26751:26972   */\n    tag_566:\n        /* \"#utility.yul\":26891:26925   */\n      0x54687320736f7572636520737472696e67206578636565647320333220627974\n        /* \"#utility.yul\":26887:26888   */\n      0x00\n        /* \"#utility.yul\":26879:26885   */\n      dup3\n        /* \"#utility.yul\":26875:26889   */\n      add\n        /* \"#utility.yul\":26868:26926   */\n      mstore\n        /* \"#utility.yul\":26960:26964   */\n      0x6573000000000000000000000000000000000000000000000000000000000000\n        /* \"#utility.yul\":26955:26957   */\n      0x20\n        /* \"#utility.yul\":26947:26953   */\n      dup3\n        /* \"#utility.yul\":26943:26958   */\n      add\n        /* \"#utility.yul\":26936:26965   */\n      mstore\n        /* \"#utility.yul\":26751:26972   */\n      pop\n      jump\t// out\n        /* \"#utility.yul\":26978:27344   */\n    tag_567:\n        /* \"#utility.yul\":27120:27123   */\n      0x00\n        /* \"#utility.yul\":27141:27208   */\n      tag_866\n        /* \"#utility.yul\":27205:27207   */\n      0x22\n        /* \"#utility.yul\":27200:27203   */\n      dup4\n        /* \"#utility.yul\":27141:27208   */\n      tag_550\n      jump\t// in\n    tag_866:\n        /* \"#utility.yul\":27134:27208   */\n      swap2\n      pop\n        /* \"#utility.yul\":27217:27310   */\n      tag_867\n        /* \"#utility.yul\":27306:27309   */\n      dup3\n        /* \"#utility.yul\":27217:27310   */\n      tag_566\n      jump\t// in\n    tag_867:\n        /* \"#utility.yul\":27335:27337   */\n      0x40\n        /* \"#utility.yul\":27330:27333   */\n      dup3\n        /* \"#utility.yul\":27326:27338   */\n      add\n        /* \"#utility.yul\":27319:27338   */\n      swap1\n      pop\n        /* \"#utility.yul\":26978:27344   */\n      swap2\n      swap1\n      pop\n      jump\t// out\n        /* \"#utility.yul\":27350:27769   */\n    tag_255:\n        /* \"#utility.yul\":27516:27520   */\n      0x00\n        /* \"#utility.yul\":27554:27556   */\n      0x20\n        /* \"#utility.yul\":27543:27552   */\n      dup3\n        /* \"#utility.yul\":27539:27557   */\n      add\n        /* \"#utility.yul\":27531:27557   */\n      swap1\n      pop\n        /* \"#utility.yul\":27603:27612   */\n      dup2\n        /* \"#utility.yul\":27597:27601   */\n      dup2\n        /* \"#utility.yul\":27593:27613   */\n      sub\n        /* \"#utility.yul\":27589:27590   */\n      0x00\n        /* \"#utility.yul\":27578:27587   */\n      dup4\n        /* \"#utility.yul\":27574:27591   */\n      add\n        /* \"#utility.yul\":27567:27614   */\n      mstore\n        /* \"#utility.yul\":27631:27762   */\n      tag_869\n        /* \"#utility.yul\":27757:27761   */\n      dup2\n        /* \"#utility.yul\":27631:27762   */\n      tag_567\n      jump\t// in\n    tag_869:\n        /* \"#utility.yul\":27623:27762   */\n      swap1\n      pop\n        /* \"#utility.yul\":27350:27769   */\n      swap2\n      swap1\n      pop\n      jump\t// out\n        /* \"#utility.yul\":27775:27945   */\n    tag_568:\n        /* \"#utility.yul\":27915:27937   */\n      0x496e73756666696369656e7420426f7820636e74000000000000000000000000\n        /* \"#utility.yul\":27911:27912   */\n      0x00\n        /* \"#utility.yul\":27903:27909   */\n      dup3\n        /* \"#utility.yul\":27899:27913   */\n      add\n        /* \"#utility.yul\":27892:27938   */\n      mstore\n        /* \"#utility.yul\":27775:27945   */\n      pop\n      jump\t// out\n        /* \"#utility.yul\":27951:28317   */\n    tag_569:\n        /* \"#utility.yul\":28093:28096   */\n      0x00\n        /* \"#utility.yul\":28114:28181   */\n      tag_872\n        /* \"#utility.yul\":28178:28180   */\n      0x14\n        /* \"#utility.yul\":28173:28176   */\n      dup4\n        /* \"#utility.yul\":28114:28181   */\n      tag_550\n      jump\t// in\n    tag_872:\n        /* \"#utility.yul\":28107:28181   */\n      swap2\n      pop\n        /* \"#utility.yul\":28190:28283   */\n      tag_873\n        /* \"#utility.yul\":28279:28282   */\n      dup3\n        /* \"#utility.yul\":28190:28283   */\n      tag_568\n      jump\t// in\n    tag_873:\n        /* \"#utility.yul\":28308:28310   */\n      0x20\n        /* \"#utility.yul\":28303:28306   */\n      dup3\n        /* \"#utility.yul\":28299:28311   */\n      add\n        /* \"#utility.yul\":28292:28311   */\n      swap1\n      pop\n        /* \"#utility.yul\":27951:28317   */\n      swap2\n      swap1\n      pop\n      jump\t// out\n        /* \"#utility.yul\":28323:28742   */\n    tag_262:\n        /* \"#utility.yul\":28489:28493   */\n      0x00\n        /* \"#utility.yul\":28527:28529   */\n      0x20\n        /* \"#utility.yul\":28516:28525   */\n      dup3\n        /* \"#utility.yul\":28512:28530   */\n      add\n        /* \"#utility.yul\":28504:28530   */\n      swap1\n      pop\n        /* \"#utility.yul\":28576:28585   */\n      dup2\n        /* \"#utility.yul\":28570:28574   */\n      dup2\n        /* \"#utility.yul\":28566:28586   */\n      sub\n        /* \"#utility.yul\":28562:28563   */\n      0x00\n        /* \"#utility.yul\":28551:28560   */\n      dup4\n        /* \"#utility.yul\":28547:28564   */\n      add\n        /* \"#utility.yul\":28540:28587   */\n      mstore\n        /* \"#utility.yul\":28604:28735   */\n      tag_875\n        /* \"#utility.yul\":28730:28734   */\n      dup2\n        /* \"#utility.yul\":28604:28735   */\n      tag_569\n      jump\t// in\n    tag_875:\n        /* \"#utility.yul\":28596:28735   */\n      swap1\n      pop\n        /* \"#utility.yul\":28323:28742   */\n      swap2\n      swap1\n      pop\n      jump\t// out\n        /* \"#utility.yul\":28748:28922   */\n    tag_570:\n        /* \"#utility.yul\":28888:28914   */\n      0x496e73756666696369656e7420426f782062616c616e63650000000000000000\n        /* \"#utility.yul\":28884:28885   */\n      0x00\n        /* \"#utility.yul\":28876:28882   */\n      dup3\n        /* \"#utility.yul\":28872:28886   */\n      add\n        /* \"#utility.yul\":28865:28915   */\n      mstore\n        /* \"#utility.yul\":28748:28922   */\n      pop\n      jump\t// out\n        /* \"#utility.yul\":28928:29294   */\n    tag_571:\n        /* \"#utility.yul\":29070:29073   */\n      0x00\n        /* \"#utility.yul\":29091:29158   */\n      tag_878\n        /* \"#utility.yul\":29155:29157   */\n      0x18\n        /* \"#utility.yul\":29150:29153   */\n      dup4\n        /* \"#utility.yul\":29091:29158   */\n      tag_550\n      jump\t// in\n    tag_878:\n        /* \"#utility.yul\":29084:29158   */\n      swap2\n      pop\n        /* \"#utility.yul\":29167:29260   */\n      tag_879\n        /* \"#utility.yul\":29256:29259   */\n      dup3\n        /* \"#utility.yul\":29167:29260   */\n      tag_570\n      jump\t// in\n    tag_879:\n        /* \"#utility.yul\":29285:29287   */\n      0x20\n        /* \"#utility.yul\":29280:29283   */\n      dup3\n        /* \"#utility.yul\":29276:29288   */\n      add\n        /* \"#utility.yul\":29269:29288   */\n      swap1\n      pop\n        /* \"#utility.yul\":28928:29294   */\n      swap2\n      swap1\n      pop\n      jump\t// out\n        /* \"#utility.yul\":29300:29719   */\n    tag_267:\n        /* \"#utility.yul\":29466:29470   */\n      0x00\n        /* \"#utility.yul\":29504:29506   */\n      0x20\n        /* \"#utility.yul\":29493:29502   */\n      dup3\n        /* \"#utility.yul\":29489:29507   */\n      add\n        /* \"#utility.yul\":29481:29507   */\n      swap1\n      pop\n        /* \"#utility.yul\":29553:29562   */\n      dup2\n        /* \"#utility.yul\":29547:29551   */\n      dup2\n        /* \"#utility.yul\":29543:29563   */\n      sub\n        /* \"#utility.yul\":29539:29540   */\n      0x00\n        /* \"#utility.yul\":29528:29537   */\n      dup4\n        /* \"#utility.yul\":29524:29541   */\n      add\n        /* \"#utility.yul\":29517:29564   */\n      mstore\n        /* \"#utility.yul\":29581:29712   */\n      tag_881\n        /* \"#utility.yul\":29707:29711   */\n      dup2\n        /* \"#utility.yul\":29581:29712   */\n      tag_571\n      jump\t// in\n    tag_881:\n        /* \"#utility.yul\":29573:29712   */\n      swap1\n      pop\n        /* \"#utility.yul\":29300:29719   */\n      swap2\n      swap1\n      pop\n      jump\t// out\n        /* \"#utility.yul\":29725:29905   */\n    tag_474:\n        /* \"#utility.yul\":29773:29850   */\n      0x4e487b7100000000000000000000000000000000000000000000000000000000\n        /* \"#utility.yul\":29770:29771   */\n      0x00\n        /* \"#utility.yul\":29763:29851   */\n      mstore\n        /* \"#utility.yul\":29870:29874   */\n      0x21\n        /* \"#utility.yul\":29867:29868   */\n      0x04\n        /* \"#utility.yul\":29860:29875   */\n      mstore\n        /* \"#utility.yul\":29894:29898   */\n      0x24\n        /* \"#utility.yul\":29891:29892   */\n      0x00\n        /* \"#utility.yul\":29884:29899   */\n      revert\n        /* \"#utility.yul\":29911:30029   */\n    tag_572:\n        /* \"#utility.yul\":29997:29998   */\n      0x02\n        /* \"#utility.yul\":29990:29995   */\n      dup2\n        /* \"#utility.yul\":29987:29999   */\n      lt\n        /* \"#utility.yul\":29977:30023   */\n      tag_884\n      jumpi\n        /* \"#utility.yul\":30003:30021   */\n      tag_885\n      tag_474\n      jump\t// in\n    tag_885:\n        /* \"#utility.yul\":29977:30023   */\n    tag_884:\n        /* \"#utility.yul\":29911:30029   */\n      pop\n      jump\t// out\n        /* \"#utility.yul\":30035:30172   */\n    tag_573:\n        /* \"#utility.yul\":30085:30092   */\n      0x00\n        /* \"#utility.yul\":30114:30119   */\n      dup2\n        /* \"#utility.yul\":30103:30119   */\n      swap1\n      pop\n        /* \"#utility.yul\":30120:30166   */\n      tag_887\n        /* \"#utility.yul\":30160:30165   */\n      dup3\n        /* \"#utility.yul\":30120:30166   */\n      tag_572\n      jump\t// in\n    tag_887:\n        /* \"#utility.yul\":30035:30172   */\n      swap2\n      swap1\n      pop\n      jump\t// out\n        /* \"#utility.yul\":30178:30315   */\n    tag_574:\n        /* \"#utility.yul\":30239:30248   */\n      0x00\n        /* \"#utility.yul\":30272:30309   */\n      tag_889\n        /* \"#utility.yul\":30303:30308   */\n      dup3\n        /* \"#utility.yul\":30272:30309   */\n      tag_573\n      jump\t// in\n    tag_889:\n        /* \"#utility.yul\":30259:30309   */\n      swap1\n      pop\n        /* \"#utility.yul\":30178:30315   */\n      swap2\n      swap1\n      pop\n      jump\t// out\n        /* \"#utility.yul\":30321:30474   */\n    tag_575:\n        /* \"#utility.yul\":30419:30467   */\n      tag_891\n        /* \"#utility.yul\":30461:30466   */\n      dup2\n        /* \"#utility.yul\":30419:30467   */\n      tag_574\n      jump\t// in\n    tag_891:\n        /* \"#utility.yul\":30414:30417   */\n      dup3\n        /* \"#utility.yul\":30407:30468   */\n      mstore\n        /* \"#utility.yul\":30321:30474   */\n      pop\n      pop\n      jump\t// out\n        /* \"#utility.yul\":30480:31257   */\n    tag_277:\n        /* \"#utility.yul\":30716:30720   */\n      0x00\n        /* \"#utility.yul\":30754:30757   */\n      0xa0\n        /* \"#utility.yul\":30743:30752   */\n      dup3\n        /* \"#utility.yul\":30739:30758   */\n      add\n        /* \"#utility.yul\":30731:30758   */\n      swap1\n      pop\n        /* \"#utility.yul\":30804:30813   */\n      dup2\n        /* \"#utility.yul\":30798:30802   */\n      dup2\n        /* \"#utility.yul\":30794:30814   */\n      sub\n        /* \"#utility.yul\":30790:30791   */\n      0x00\n        /* \"#utility.yul\":30779:30788   */\n      dup4\n        /* \"#utility.yul\":30775:30792   */\n      add\n        /* \"#utility.yul\":30768:30815   */\n      mstore\n        /* \"#utility.yul\":30832:30910   */\n      tag_893\n        /* \"#utility.yul\":30905:30909   */\n      dup2\n        /* \"#utility.yul\":30896:30902   */\n      dup9\n        /* \"#utility.yul\":30832:30910   */\n      tag_562\n      jump\t// in\n    tag_893:\n        /* \"#utility.yul\":30824:30910   */\n      swap1\n      pop\n        /* \"#utility.yul\":30920:30992   */\n      tag_894\n        /* \"#utility.yul\":30988:30990   */\n      0x20\n        /* \"#utility.yul\":30977:30986   */\n      dup4\n        /* \"#utility.yul\":30973:30991   */\n      add\n        /* \"#utility.yul\":30964:30970   */\n      dup8\n        /* \"#utility.yul\":30920:30992   */\n      tag_507\n      jump\t// in\n    tag_894:\n        /* \"#utility.yul\":31002:31074   */\n      tag_895\n        /* \"#utility.yul\":31070:31072   */\n      0x40\n        /* \"#utility.yul\":31059:31068   */\n      dup4\n        /* \"#utility.yul\":31055:31073   */\n      add\n        /* \"#utility.yul\":31046:31052   */\n      dup7\n        /* \"#utility.yul\":31002:31074   */\n      tag_507\n      jump\t// in\n    tag_895:\n        /* \"#utility.yul\":31084:31167   */\n      tag_896\n        /* \"#utility.yul\":31163:31165   */\n      0x60\n        /* \"#utility.yul\":31152:31161   */\n      dup4\n        /* \"#utility.yul\":31148:31166   */\n      add\n        /* \"#utility.yul\":31139:31145   */\n      dup6\n        /* \"#utility.yul\":31084:31167   */\n      tag_575\n      jump\t// in\n    tag_896:\n        /* \"#utility.yul\":31177:31250   */\n      tag_897\n        /* \"#utility.yul\":31245:31248   */\n      0x80\n        /* \"#utility.yul\":31234:31243   */\n      dup4\n        /* \"#utility.yul\":31230:31249   */\n      add\n        /* \"#utility.yul\":31221:31227   */\n      dup5\n        /* \"#utility.yul\":31177:31250   */\n      tag_507\n      jump\t// in\n    tag_897:\n        /* \"#utility.yul\":30480:31257   */\n      swap7\n      swap6\n      pop\n      pop\n      pop\n      pop\n      pop\n      pop\n      jump\t// out\n        /* \"#utility.yul\":31263:31438   */\n    tag_576:\n        /* \"#utility.yul\":31403:31430   */\n      0x496e73756666696369656e7420636c61696d20616d6f756e7400000000000000\n        /* \"#utility.yul\":31399:31400   */\n      0x00\n        /* \"#utility.yul\":31391:31397   */\n      dup3\n        /* \"#utility.yul\":31387:31401   */\n      add\n        /* \"#utility.yul\":31380:31431   */\n      mstore\n        /* \"#utility.yul\":31263:31438   */\n      pop\n      jump\t// out\n        /* \"#utility.yul\":31444:31810   */\n    tag_577:\n        /* \"#utility.yul\":31586:31589   */\n      0x00\n        /* \"#utility.yul\":31607:31674   */\n      tag_900\n        /* \"#utility.yul\":31671:31673   */\n      0x19\n        /* \"#utility.yul\":31666:31669   */\n      dup4\n        /* \"#utility.yul\":31607:31674   */\n      tag_550\n      jump\t// in\n    tag_900:\n        /* \"#utility.yul\":31600:31674   */\n      swap2\n      pop\n        /* \"#utility.yul\":31683:31776   */\n      tag_901\n        /* \"#utility.yul\":31772:31775   */\n      dup3\n        /* \"#utility.yul\":31683:31776   */\n      tag_576\n      jump\t// in\n    tag_901:\n        /* \"#utility.yul\":31801:31803   */\n      0x20\n        /* \"#utility.yul\":31796:31799   */\n      dup3\n        /* \"#utility.yul\":31792:31804   */\n      add\n        /* \"#utility.yul\":31785:31804   */\n      swap1\n      pop\n        /* \"#utility.yul\":31444:31810   */\n      swap2\n      swap1\n      pop\n      jump\t// out\n        /* \"#utility.yul\":31816:32235   */\n    tag_311:\n        /* \"#utility.yul\":31982:31986   */\n      0x00\n        /* \"#utility.yul\":32020:32022   */\n      0x20\n        /* \"#utility.yul\":32009:32018   */\n      dup3\n        /* \"#utility.yul\":32005:32023   */\n      add\n        /* \"#utility.yul\":31997:32023   */\n      swap1\n      pop\n        /* \"#utility.yul\":32069:32078   */\n      dup2\n        /* \"#utility.yul\":32063:32067   */\n      dup2\n        /* \"#utility.yul\":32059:32079   */\n      sub\n        /* \"#utility.yul\":32055:32056   */\n      0x00\n        /* \"#utility.yul\":32044:32053   */\n      dup4\n        /* \"#utility.yul\":32040:32057   */\n      add\n        /* \"#utility.yul\":32033:32080   */\n      mstore\n        /* \"#utility.yul\":32097:32228   */\n      tag_903\n        /* \"#utility.yul\":32223:32227   */\n      dup2\n        /* \"#utility.yul\":32097:32228   */\n      tag_577\n      jump\t// in\n    tag_903:\n        /* \"#utility.yul\":32089:32228   */\n      swap1\n      pop\n        /* \"#utility.yul\":31816:32235   */\n      swap2\n      swap1\n      pop\n      jump\t// out\n        /* \"#utility.yul\":32241:32414   */\n    tag_578:\n        /* \"#utility.yul\":32381:32406   */\n      0x496e73756666696369656e742070617920616d6f756e74000000000000000000\n        /* \"#utility.yul\":32377:32378   */\n      0x00\n        /* \"#utility.yul\":32369:32375   */\n      dup3\n        /* \"#utility.yul\":32365:32379   */\n      add\n        /* \"#utility.yul\":32358:32407   */\n      mstore\n        /* \"#utility.yul\":32241:32414   */\n      pop\n      jump\t// out\n        /* \"#utility.yul\":32420:32786   */\n    tag_579:\n        /* \"#utility.yul\":32562:32565   */\n      0x00\n        /* \"#utility.yul\":32583:32650   */\n      tag_906\n        /* \"#utility.yul\":32647:32649   */\n      0x17\n        /* \"#utility.yul\":32642:32645   */\n      dup4\n        /* \"#utility.yul\":32583:32650   */\n      tag_550\n      jump\t// in\n    tag_906:\n        /* \"#utility.yul\":32576:32650   */\n      swap2\n      pop\n        /* \"#utility.yul\":32659:32752   */\n      tag_907\n        /* \"#utility.yul\":32748:32751   */\n      dup3\n        /* \"#utility.yul\":32659:32752   */\n      tag_578\n      jump\t// in\n    tag_907:\n        /* \"#utility.yul\":32777:32779   */\n      0x20\n        /* \"#utility.yul\":32772:32775   */\n      dup3\n        /* \"#utility.yul\":32768:32780   */\n      add\n        /* \"#utility.yul\":32761:32780   */\n      swap1\n      pop\n        /* \"#utility.yul\":32420:32786   */\n      swap2\n      swap1\n      pop\n      jump\t// out\n        /* \"#utility.yul\":32792:33211   */\n    tag_329:\n        /* \"#utility.yul\":32958:32962   */\n      0x00\n        /* \"#utility.yul\":32996:32998   */\n      0x20\n        /* \"#utility.yul\":32985:32994   */\n      dup3\n        /* \"#utility.yul\":32981:32999   */\n      add\n        /* \"#utility.yul\":32973:32999   */\n      swap1\n      pop\n        /* \"#utility.yul\":33045:33054   */\n      dup2\n        /* \"#utility.yul\":33039:33043   */\n      dup2\n        /* \"#utility.yul\":33035:33055   */\n      sub\n        /* \"#utility.yul\":33031:33032   */\n      0x00\n        /* \"#utility.yul\":33020:33029   */\n      dup4\n        /* \"#utility.yul\":33016:33033   */\n      add\n        /* \"#utility.yul\":33009:33056   */\n      mstore\n        /* \"#utility.yul\":33073:33204   */\n      tag_909\n        /* \"#utility.yul\":33199:33203   */\n      dup2\n        /* \"#utility.yul\":33073:33204   */\n      tag_579\n      jump\t// in\n    tag_909:\n        /* \"#utility.yul\":33065:33204   */\n      swap1\n      pop\n        /* \"#utility.yul\":32792:33211   */\n      swap2\n      swap1\n      pop\n      jump\t// out\n        /* \"#utility.yul\":33217:33381   */\n    tag_580:\n        /* \"#utility.yul\":33357:33373   */\n      0x546865206d657461206578697374000000000000000000000000000000000000\n        /* \"#utility.yul\":33353:33354   */\n      0x00\n        /* \"#utility.yul\":33345:33351   */\n      dup3\n        /* \"#utility.yul\":33341:33355   */\n      add\n        /* \"#utility.yul\":33334:33374   */\n      mstore\n        /* \"#utility.yul\":33217:33381   */\n      pop\n      jump\t// out\n        /* \"#utility.yul\":33387:33753   */\n    tag_581:\n        /* \"#utility.yul\":33529:33532   */\n      0x00\n        /* \"#utility.yul\":33550:33617   */\n      tag_912\n        /* \"#utility.yul\":33614:33616   */\n      0x0e\n        /* \"#utility.yul\":33609:33612   */\n      dup4\n        /* \"#utility.yul\":33550:33617   */\n      tag_550\n      jump\t// in\n    tag_912:\n        /* \"#utility.yul\":33543:33617   */\n      swap2\n      pop\n        /* \"#utility.yul\":33626:33719   */\n      tag_913\n        /* \"#utility.yul\":33715:33718   */\n      dup3\n        /* \"#utility.yul\":33626:33719   */\n      tag_580\n      jump\t// in\n    tag_913:\n        /* \"#utility.yul\":33744:33746   */\n      0x20\n        /* \"#utility.yul\":33739:33742   */\n      dup3\n        /* \"#utility.yul\":33735:33747   */\n      add\n        /* \"#utility.yul\":33728:33747   */\n      swap1\n      pop\n        /* \"#utility.yul\":33387:33753   */\n      swap2\n      swap1\n      pop\n      jump\t// out\n        /* \"#utility.yul\":33759:34178   */\n    tag_349:\n        /* \"#utility.yul\":33925:33929   */\n      0x00\n        /* \"#utility.yul\":33963:33965   */\n      0x20\n        /* \"#utility.yul\":33952:33961   */\n      dup3\n        /* \"#utility.yul\":33948:33966   */\n      add\n        /* \"#utility.yul\":33940:33966   */\n      swap1\n      pop\n        /* \"#utility.yul\":34012:34021   */\n      dup2\n        /* \"#utility.yul\":34006:34010   */\n      dup2\n        /* \"#utility.yul\":34002:34022   */\n      sub\n        /* \"#utility.yul\":33998:33999   */\n      0x00\n        /* \"#utility.yul\":33987:33996   */\n      dup4\n        /* \"#utility.yul\":33983:34000   */\n      add\n        /* \"#utility.yul\":33976:34023   */\n      mstore\n        /* \"#utility.yul\":34040:34171   */\n      tag_915\n        /* \"#utility.yul\":34166:34170   */\n      dup2\n        /* \"#utility.yul\":34040:34171   */\n      tag_581\n      jump\t// in\n    tag_915:\n        /* \"#utility.yul\":34032:34171   */\n      swap1\n      pop\n        /* \"#utility.yul\":33759:34178   */\n      swap2\n      swap1\n      pop\n      jump\t// out\n        /* \"#utility.yul\":34184:34278   */\n    tag_582:\n        /* \"#utility.yul\":34217:34225   */\n      0x00\n        /* \"#utility.yul\":34265:34270   */\n      dup2\n        /* \"#utility.yul\":34261:34263   */\n      0x60\n        /* \"#utility.yul\":34257:34271   */\n      shl\n        /* \"#utility.yul\":34236:34271   */\n      swap1\n      pop\n        /* \"#utility.yul\":34184:34278   */\n      swap2\n      swap1\n      pop\n      jump\t// out\n        /* \"#utility.yul\":34284:34378   */\n    tag_583:\n        /* \"#utility.yul\":34323:34330   */\n      0x00\n        /* \"#utility.yul\":34352:34372   */\n      tag_918\n        /* \"#utility.yul\":34366:34371   */\n      dup3\n        /* \"#utility.yul\":34352:34372   */\n      tag_582\n      jump\t// in\n    tag_918:\n        /* \"#utility.yul\":34341:34372   */\n      swap1\n      pop\n        /* \"#utility.yul\":34284:34378   */\n      swap2\n      swap1\n      pop\n      jump\t// out\n        /* \"#utility.yul\":34384:34484   */\n    tag_584:\n        /* \"#utility.yul\":34423:34430   */\n      0x00\n        /* \"#utility.yul\":34452:34478   */\n      tag_920\n        /* \"#utility.yul\":34472:34477   */\n      dup3\n        /* \"#utility.yul\":34452:34478   */\n      tag_583\n      jump\t// in\n    tag_920:\n        /* \"#utility.yul\":34441:34478   */\n      swap1\n      pop\n        /* \"#utility.yul\":34384:34484   */\n      swap2\n      swap1\n      pop\n      jump\t// out\n        /* \"#utility.yul\":34490:34647   */\n    tag_585:\n        /* \"#utility.yul\":34595:34640   */\n      tag_922\n        /* \"#utility.yul\":34615:34639   */\n      tag_923\n        /* \"#utility.yul\":34633:34638   */\n      dup3\n        /* \"#utility.yul\":34615:34639   */\n      tag_540\n      jump\t// in\n    tag_923:\n        /* \"#utility.yul\":34595:34640   */\n      tag_584\n      jump\t// in\n    tag_922:\n        /* \"#utility.yul\":34590:34593   */\n      dup3\n        /* \"#utility.yul\":34583:34641   */\n      mstore\n        /* \"#utility.yul\":34490:34647   */\n      pop\n      pop\n      jump\t// out\n        /* \"#utility.yul\":34653:34801   */\n    tag_586:\n        /* \"#utility.yul\":34755:34766   */\n      0x00\n        /* \"#utility.yul\":34792:34795   */\n      dup2\n        /* \"#utility.yul\":34777:34795   */\n      swap1\n      pop\n        /* \"#utility.yul\":34653:34801   */\n      swap3\n      swap2\n      pop\n      pop\n      jump\t// out\n        /* \"#utility.yul\":34807:35197   */\n    tag_587:\n        /* \"#utility.yul\":34913:34916   */\n      0x00\n        /* \"#utility.yul\":34941:34980   */\n      tag_926\n        /* \"#utility.yul\":34974:34979   */\n      dup3\n        /* \"#utility.yul\":34941:34980   */\n      tag_561\n      jump\t// in\n    tag_926:\n        /* \"#utility.yul\":34996:35085   */\n      tag_927\n        /* \"#utility.yul\":35078:35084   */\n      dup2\n        /* \"#utility.yul\":35073:35076   */\n      dup6\n        /* \"#utility.yul\":34996:35085   */\n      tag_586\n      jump\t// in\n    tag_927:\n        /* \"#utility.yul\":34989:35085   */\n      swap4\n      pop\n        /* \"#utility.yul\":35094:35159   */\n      tag_928\n        /* \"#utility.yul\":35152:35158   */\n      dup2\n        /* \"#utility.yul\":35147:35150   */\n      dup6\n        /* \"#utility.yul\":35140:35144   */\n      0x20\n        /* \"#utility.yul\":35133:35138   */\n      dup7\n        /* \"#utility.yul\":35129:35145   */\n      add\n        /* \"#utility.yul\":35094:35159   */\n      tag_534\n      jump\t// in\n    tag_928:\n        /* \"#utility.yul\":35184:35190   */\n      dup1\n        /* \"#utility.yul\":35179:35182   */\n      dup5\n        /* \"#utility.yul\":35175:35191   */\n      add\n        /* \"#utility.yul\":35168:35191   */\n      swap2\n      pop\n        /* \"#utility.yul\":34917:35197   */\n      pop\n        /* \"#utility.yul\":34807:35197   */\n      swap3\n      swap2\n      pop\n      pop\n      jump\t// out\n        /* \"#utility.yul\":35203:35282   */\n    tag_588:\n        /* \"#utility.yul\":35242:35249   */\n      0x00\n        /* \"#utility.yul\":35271:35276   */\n      dup2\n        /* \"#utility.yul\":35260:35276   */\n      swap1\n      pop\n        /* \"#utility.yul\":35203:35282   */\n      swap2\n      swap1\n      pop\n      jump\t// out\n        /* \"#utility.yul\":35288:35445   */\n    tag_589:\n        /* \"#utility.yul\":35393:35438   */\n      tag_931\n        /* \"#utility.yul\":35413:35437   */\n      tag_932\n        /* \"#utility.yul\":35431:35436   */\n      dup3\n        /* \"#utility.yul\":35413:35437   */\n      tag_506\n      jump\t// in\n    tag_932:\n        /* \"#utility.yul\":35393:35438   */\n      tag_588\n      jump\t// in\n    tag_931:\n        /* \"#utility.yul\":35388:35391   */\n      dup3\n        /* \"#utility.yul\":35381:35439   */\n      mstore\n        /* \"#utility.yul\":35288:35445   */\n      pop\n      pop\n      jump\t// out\n        /* \"#utility.yul\":35451:36008   */\n    tag_353:\n        /* \"#utility.yul\":35639:35642   */\n      0x00\n        /* \"#utility.yul\":35654:35729   */\n      tag_934\n        /* \"#utility.yul\":35725:35728   */\n      dup3\n        /* \"#utility.yul\":35716:35722   */\n      dup7\n        /* \"#utility.yul\":35654:35729   */\n      tag_585\n      jump\t// in\n    tag_934:\n        /* \"#utility.yul\":35754:35756   */\n      0x14\n        /* \"#utility.yul\":35749:35752   */\n      dup3\n        /* \"#utility.yul\":35745:35757   */\n      add\n        /* \"#utility.yul\":35738:35757   */\n      swap2\n      pop\n        /* \"#utility.yul\":35774:35869   */\n      tag_935\n        /* \"#utility.yul\":35865:35868   */\n      dup3\n        /* \"#utility.yul\":35856:35862   */\n      dup6\n        /* \"#utility.yul\":35774:35869   */\n      tag_587\n      jump\t// in\n    tag_935:\n        /* \"#utility.yul\":35767:35869   */\n      swap2\n      pop\n        /* \"#utility.yul\":35879:35954   */\n      tag_936\n        /* \"#utility.yul\":35950:35953   */\n      dup3\n        /* \"#utility.yul\":35941:35947   */\n      dup5\n        /* \"#utility.yul\":35879:35954   */\n      tag_589\n      jump\t// in\n    tag_936:\n        /* \"#utility.yul\":35979:35981   */\n      0x20\n        /* \"#utility.yul\":35974:35977   */\n      dup3\n        /* \"#utility.yul\":35970:35982   */\n      add\n        /* \"#utility.yul\":35963:35982   */\n      swap2\n      pop\n        /* \"#utility.yul\":35999:36002   */\n      dup2\n        /* \"#utility.yul\":35992:36002   */\n      swap1\n      pop\n        /* \"#utility.yul\":35451:36008   */\n      swap5\n      swap4\n      pop\n      pop\n      pop\n      pop\n      jump\t// out\n        /* \"#utility.yul\":36014:36188   */\n    tag_590:\n        /* \"#utility.yul\":36154:36180   */\n      0x546865207369676e617475726520697320696e76616c69640000000000000000\n        /* \"#utility.yul\":36150:36151   */\n      0x00\n        /* \"#utility.yul\":36142:36148   */\n      dup3\n        /* \"#utility.yul\":36138:36152   */\n      add\n        /* \"#utility.yul\":36131:36181   */\n      mstore\n        /* \"#utility.yul\":36014:36188   */\n      pop\n      jump\t// out\n        /* \"#utility.yul\":36194:36560   */\n    tag_591:\n        /* \"#utility.yul\":36336:36339   */\n      0x00\n        /* \"#utility.yul\":36357:36424   */\n      tag_939\n        /* \"#utility.yul\":36421:36423   */\n      0x18\n        /* \"#utility.yul\":36416:36419   */\n      dup4\n        /* \"#utility.yul\":36357:36424   */\n      tag_550\n      jump\t// in\n    tag_939:\n        /* \"#utility.yul\":36350:36424   */\n      swap2\n      pop\n        /* \"#utility.yul\":36433:36526   */\n      tag_940\n        /* \"#utility.yul\":36522:36525   */\n      dup3\n        /* \"#utility.yul\":36433:36526   */\n      tag_590\n      jump\t// in\n    tag_940:\n        /* \"#utility.yul\":36551:36553   */\n      0x20\n        /* \"#utility.yul\":36546:36549   */\n      dup3\n        /* \"#utility.yul\":36542:36554   */\n      add\n        /* \"#utility.yul\":36535:36554   */\n      swap1\n      pop\n        /* \"#utility.yul\":36194:36560   */\n      swap2\n      swap1\n      pop\n      jump\t// out\n        /* \"#utility.yul\":36566:36985   */\n    tag_358:\n        /* \"#utility.yul\":36732:36736   */\n      0x00\n        /* \"#utility.yul\":36770:36772   */\n      0x20\n        /* \"#utility.yul\":36759:36768   */\n      dup3\n        /* \"#utility.yul\":36755:36773   */\n      add\n        /* \"#utility.yul\":36747:36773   */\n      swap1\n      pop\n        /* \"#utility.yul\":36819:36828   */\n      dup2\n        /* \"#utility.yul\":36813:36817   */\n      dup2\n        /* \"#utility.yul\":36809:36829   */\n      sub\n        /* \"#utility.yul\":36805:36806   */\n      0x00\n        /* \"#utility.yul\":36794:36803   */\n      dup4\n        /* \"#utility.yul\":36790:36807   */\n      add\n        /* \"#utility.yul\":36783:36830   */\n      mstore\n        /* \"#utility.yul\":36847:36978   */\n      tag_942\n        /* \"#utility.yul\":36973:36977   */\n      dup2\n        /* \"#utility.yul\":36847:36978   */\n      tag_591\n      jump\t// in\n    tag_942:\n        /* \"#utility.yul\":36839:36978   */\n      swap1\n      pop\n        /* \"#utility.yul\":36566:36985   */\n      swap2\n      swap1\n      pop\n      jump\t// out\n        /* \"#utility.yul\":36991:37093   */\n    tag_592:\n        /* \"#utility.yul\":37033:37041   */\n      0x00\n        /* \"#utility.yul\":37080:37085   */\n      dup2\n        /* \"#utility.yul\":37077:37078   */\n      0x01\n        /* \"#utility.yul\":37073:37086   */\n      shr\n        /* \"#utility.yul\":37052:37086   */\n      swap1\n      pop\n        /* \"#utility.yul\":36991:37093   */\n      swap2\n      swap1\n      pop\n      jump\t// out\n        /* \"#utility.yul\":37099:37947   */\n    tag_593:\n        /* \"#utility.yul\":37160:37165   */\n      0x00\n        /* \"#utility.yul\":37167:37171   */\n      dup1\n        /* \"#utility.yul\":37191:37197   */\n      dup3\n        /* \"#utility.yul\":37182:37197   */\n      swap2\n      pop\n        /* \"#utility.yul\":37215:37220   */\n      dup4\n        /* \"#utility.yul\":37206:37220   */\n      swap1\n      pop\n        /* \"#utility.yul\":37229:37941   */\n    tag_945:\n        /* \"#utility.yul\":37250:37251   */\n      0x01\n        /* \"#utility.yul\":37240:37248   */\n      dup6\n        /* \"#utility.yul\":37237:37252   */\n      gt\n        /* \"#utility.yul\":37229:37941   */\n      iszero\n      tag_947\n      jumpi\n        /* \"#utility.yul\":37345:37349   */\n      dup1\n        /* \"#utility.yul\":37340:37343   */\n      dup7\n        /* \"#utility.yul\":37336:37350   */\n      div\n        /* \"#utility.yul\":37330:37334   */\n      dup2\n        /* \"#utility.yul\":37327:37351   */\n      gt\n        /* \"#utility.yul\":37324:37374   */\n      iszero\n      tag_948\n      jumpi\n        /* \"#utility.yul\":37354:37372   */\n      tag_949\n      tag_565\n      jump\t// in\n    tag_949:\n        /* \"#utility.yul\":37324:37374   */\n    tag_948:\n        /* \"#utility.yul\":37404:37405   */\n      0x01\n        /* \"#utility.yul\":37394:37402   */\n      dup6\n        /* \"#utility.yul\":37390:37406   */\n      and\n        /* \"#utility.yul\":37387:37838   */\n      iszero\n      tag_950\n      jumpi\n        /* \"#utility.yul\":37819:37823   */\n      dup1\n        /* \"#utility.yul\":37812:37817   */\n      dup3\n        /* \"#utility.yul\":37808:37824   */\n      mul\n        /* \"#utility.yul\":37799:37824   */\n      swap2\n      pop\n        /* \"#utility.yul\":37387:37838   */\n    tag_950:\n        /* \"#utility.yul\":37869:37873   */\n      dup1\n        /* \"#utility.yul\":37863:37867   */\n      dup2\n        /* \"#utility.yul\":37859:37874   */\n      mul\n        /* \"#utility.yul\":37851:37874   */\n      swap1\n      pop\n        /* \"#utility.yul\":37899:37931   */\n      tag_951\n        /* \"#utility.yul\":37922:37930   */\n      dup6\n        /* \"#utility.yul\":37899:37931   */\n      tag_592\n      jump\t// in\n    tag_951:\n        /* \"#utility.yul\":37887:37931   */\n      swap5\n      pop\n        /* \"#utility.yul\":37229:37941   */\n      jump(tag_945)\n    tag_947:\n        /* \"#utility.yul\":37099:37947   */\n      swap5\n      pop\n      swap5\n      swap3\n      pop\n      pop\n      pop\n      jump\t// out\n        /* \"#utility.yul\":37953:39026   */\n    tag_594:\n        /* \"#utility.yul\":38007:38012   */\n      0x00\n        /* \"#utility.yul\":38198:38206   */\n      dup3\n        /* \"#utility.yul\":38188:38228   */\n      tag_953\n      jumpi\n        /* \"#utility.yul\":38219:38220   */\n      0x01\n        /* \"#utility.yul\":38210:38220   */\n      swap1\n      pop\n        /* \"#utility.yul\":38221:38226   */\n      jump(tag_952)\n        /* \"#utility.yul\":38188:38228   */\n    tag_953:\n        /* \"#utility.yul\":38247:38251   */\n      dup2\n        /* \"#utility.yul\":38237:38273   */\n      tag_954\n      jumpi\n        /* \"#utility.yul\":38264:38265   */\n      0x00\n        /* \"#utility.yul\":38255:38265   */\n      swap1\n      pop\n        /* \"#utility.yul\":38266:38271   */\n      jump(tag_952)\n        /* \"#utility.yul\":38237:38273   */\n    tag_954:\n        /* \"#utility.yul\":38333:38337   */\n      dup2\n        /* \"#utility.yul\":38381:38382   */\n      0x01\n        /* \"#utility.yul\":38376:38403   */\n      dup2\n      eq\n      tag_956\n      jumpi\n        /* \"#utility.yul\":38417:38418   */\n      0x02\n        /* \"#utility.yul\":38412:38603   */\n      dup2\n      eq\n      tag_957\n      jumpi\n        /* \"#utility.yul\":38326:38603   */\n      jump(tag_955)\n        /* \"#utility.yul\":38376:38403   */\n    tag_956:\n        /* \"#utility.yul\":38394:38395   */\n      0x01\n        /* \"#utility.yul\":38385:38395   */\n      swap2\n      pop\n        /* \"#utility.yul\":38396:38401   */\n      pop\n      jump(tag_952)\n        /* \"#utility.yul\":38412:38603   */\n    tag_957:\n        /* \"#utility.yul\":38457:38460   */\n      0xff\n        /* \"#utility.yul\":38447:38455   */\n      dup5\n        /* \"#utility.yul\":38444:38461   */\n      gt\n        /* \"#utility.yul\":38441:38484   */\n      iszero\n      tag_958\n      jumpi\n        /* \"#utility.yul\":38464:38482   */\n      tag_959\n      tag_565\n      jump\t// in\n    tag_959:\n        /* \"#utility.yul\":38441:38484   */\n    tag_958:\n        /* \"#utility.yul\":38513:38521   */\n      dup4\n        /* \"#utility.yul\":38510:38511   */\n      0x02\n        /* \"#utility.yul\":38506:38522   */\n      exp\n        /* \"#utility.yul\":38497:38522   */\n      swap2\n      pop\n        /* \"#utility.yul\":38548:38551   */\n      dup5\n        /* \"#utility.yul\":38541:38546   */\n      dup3\n        /* \"#utility.yul\":38538:38552   */\n      gt\n        /* \"#utility.yul\":38535:38575   */\n      iszero\n      tag_960\n      jumpi\n        /* \"#utility.yul\":38555:38573   */\n      tag_961\n      tag_565\n      jump\t// in\n    tag_961:\n        /* \"#utility.yul\":38535:38575   */\n    tag_960:\n        /* \"#utility.yul\":38588:38593   */\n      pop\n      jump(tag_952)\n        /* \"#utility.yul\":38326:38603   */\n    tag_955:\n      pop\n        /* \"#utility.yul\":38712:38714   */\n      0x20\n        /* \"#utility.yul\":38702:38710   */\n      dup4\n        /* \"#utility.yul\":38699:38715   */\n      lt\n        /* \"#utility.yul\":38693:38696   */\n      0x0133\n        /* \"#utility.yul\":38687:38691   */\n      dup4\n        /* \"#utility.yul\":38684:38697   */\n      lt\n        /* \"#utility.yul\":38680:38716   */\n      and\n        /* \"#utility.yul\":38662:38664   */\n      0x4e\n        /* \"#utility.yul\":38652:38660   */\n      dup5\n        /* \"#utility.yul\":38649:38665   */\n      lt\n        /* \"#utility.yul\":38644:38646   */\n      0x0b\n        /* \"#utility.yul\":38638:38642   */\n      dup5\n        /* \"#utility.yul\":38635:38647   */\n      lt\n        /* \"#utility.yul\":38631:38666   */\n      and\n        /* \"#utility.yul\":38615:38726   */\n      or\n        /* \"#utility.yul\":38612:38858   */\n      iszero\n      tag_962\n      jumpi\n        /* \"#utility.yul\":38768:38776   */\n      dup3\n        /* \"#utility.yul\":38762:38766   */\n      dup3\n        /* \"#utility.yul\":38758:38777   */\n      exp\n        /* \"#utility.yul\":38749:38777   */\n      swap1\n      pop\n        /* \"#utility.yul\":38803:38806   */\n      dup4\n        /* \"#utility.yul\":38796:38801   */\n      dup2\n        /* \"#utility.yul\":38793:38807   */\n      gt\n        /* \"#utility.yul\":38790:38830   */\n      iszero\n      tag_963\n      jumpi\n        /* \"#utility.yul\":38810:38828   */\n      tag_964\n      tag_565\n      jump\t// in\n    tag_964:\n        /* \"#utility.yul\":38790:38830   */\n    tag_963:\n        /* \"#utility.yul\":38843:38848   */\n      jump(tag_952)\n        /* \"#utility.yul\":38612:38858   */\n    tag_962:\n        /* \"#utility.yul\":38883:38925   */\n      tag_965\n        /* \"#utility.yul\":38921:38924   */\n      dup5\n        /* \"#utility.yul\":38911:38919   */\n      dup5\n        /* \"#utility.yul\":38905:38909   */\n      dup5\n        /* \"#utility.yul\":38902:38903   */\n      0x01\n        /* \"#utility.yul\":38883:38925   */\n      tag_593\n      jump\t// in\n    tag_965:\n        /* \"#utility.yul\":38868:38925   */\n      swap3\n      pop\n      swap1\n      pop\n        /* \"#utility.yul\":38957:38961   */\n      dup2\n        /* \"#utility.yul\":38952:38955   */\n      dup5\n        /* \"#utility.yul\":38948:38962   */\n      div\n        /* \"#utility.yul\":38941:38946   */\n      dup2\n        /* \"#utility.yul\":38938:38963   */\n      gt\n        /* \"#utility.yul\":38935:38986   */\n      iszero\n      tag_966\n      jumpi\n        /* \"#utility.yul\":38966:38984   */\n      tag_967\n      tag_565\n      jump\t// in\n    tag_967:\n        /* \"#utility.yul\":38935:38986   */\n    tag_966:\n        /* \"#utility.yul\":39015:39019   */\n      dup2\n        /* \"#utility.yul\":39008:39013   */\n      dup2\n        /* \"#utility.yul\":39004:39020   */\n      mul\n        /* \"#utility.yul\":38995:39020   */\n      swap1\n      pop\n        /* \"#utility.yul\":37953:39026   */\n    tag_952:\n      swap4\n      swap3\n      pop\n      pop\n      pop\n      jump\t// out\n        /* \"#utility.yul\":39032:39118   */\n    tag_595:\n        /* \"#utility.yul\":39067:39074   */\n      0x00\n        /* \"#utility.yul\":39107:39111   */\n      0xff\n        /* \"#utility.yul\":39100:39105   */\n      dup3\n        /* \"#utility.yul\":39096:39112   */\n      and\n        /* \"#utility.yul\":39085:39112   */\n      swap1\n      pop\n        /* \"#utility.yul\":39032:39118   */\n      swap2\n      swap1\n      pop\n      jump\t// out\n        /* \"#utility.yul\":39124:39405   */\n    tag_369:\n        /* \"#utility.yul\":39182:39187   */\n      0x00\n        /* \"#utility.yul\":39206:39229   */\n      tag_970\n        /* \"#utility.yul\":39224:39228   */\n      dup3\n        /* \"#utility.yul\":39206:39229   */\n      tag_506\n      jump\t// in\n    tag_970:\n        /* \"#utility.yul\":39198:39229   */\n      swap2\n      pop\n        /* \"#utility.yul\":39250:39275   */\n      tag_971\n        /* \"#utility.yul\":39266:39274   */\n      dup4\n        /* \"#utility.yul\":39250:39275   */\n      tag_595\n      jump\t// in\n    tag_971:\n        /* \"#utility.yul\":39238:39275   */\n      swap3\n      pop\n        /* \"#utility.yul\":39294:39398   */\n      tag_972\n        /* \"#utility.yul\":39331:39397   */\n      0xffffffffffffffffffffffffffffffffffffffffffffffffffffffffffffffff\n        /* \"#utility.yul\":39321:39329   */\n      dup5\n        /* \"#utility.yul\":39315:39319   */\n      dup5\n        /* \"#utility.yul\":39294:39398   */\n      tag_594\n      jump\t// in\n    tag_972:\n        /* \"#utility.yul\":39285:39398   */\n      swap1\n      pop\n        /* \"#utility.yul\":39124:39405   */\n      swap3\n      swap2\n      pop\n      pop\n      jump\t// out\n        /* \"#utility.yul\":39411:39587   */\n    tag_596:\n        /* \"#utility.yul\":39551:39579   */\n      0x6d7574695f7369676e206973207a65726f206164647265737373000000000000\n        /* \"#utility.yul\":39547:39548   */\n      0x00\n        /* \"#utility.yul\":39539:39545   */\n      dup3\n        /* \"#utility.yul\":39535:39549   */\n      add\n        /* \"#utility.yul\":39528:39580   */\n      mstore\n        /* \"#utility.yul\":39411:39587   */\n      pop\n      jump\t// out\n        /* \"#utility.yul\":39593:39959   */\n    tag_597:\n        /* \"#utility.yul\":39735:39738   */\n      0x00\n        /* \"#utility.yul\":39756:39823   */\n      tag_975\n        /* \"#utility.yul\":39820:39822   */\n      0x1a\n        /* \"#utility.yul\":39815:39818   */\n      dup4\n        /* \"#utility.yul\":39756:39823   */\n      tag_550\n      jump\t// in\n    tag_975:\n        /* \"#utility.yul\":39749:39823   */\n      swap2\n      pop\n        /* \"#utility.yul\":39832:39925   */\n      tag_976\n        /* \"#utility.yul\":39921:39924   */\n      dup3\n        /* \"#utility.yul\":39832:39925   */\n      tag_596\n      jump\t// in\n    tag_976:\n        /* \"#utility.yul\":39950:39952   */\n      0x20\n        /* \"#utility.yul\":39945:39948   */\n      dup3\n        /* \"#utility.yul\":39941:39953   */\n      add\n        /* \"#utility.yul\":39934:39953   */\n      swap1\n      pop\n        /* \"#utility.yul\":39593:39959   */\n      swap2\n      swap1\n      pop\n      jump\t// out\n        /* \"#utility.yul\":39965:40384   */\n    tag_376:\n        /* \"#utility.yul\":40131:40135   */\n      0x00\n        /* \"#utility.yul\":40169:40171   */\n      0x20\n        /* \"#utility.yul\":40158:40167   */\n      dup3\n        /* \"#utility.yul\":40154:40172   */\n      add\n        /* \"#utility.yul\":40146:40172   */\n      swap1\n      pop\n        /* \"#utility.yul\":40218:40227   */\n      dup2\n        /* \"#utility.yul\":40212:40216   */\n      dup2\n        /* \"#utility.yul\":40208:40228   */\n      sub\n        /* \"#utility.yul\":40204:40205   */\n      0x00\n        /* \"#utility.yul\":40193:40202   */\n      dup4\n        /* \"#utility.yul\":40189:40206   */\n      add\n        /* \"#utility.yul\":40182:40229   */\n      mstore\n        /* \"#utility.yul\":40246:40377   */\n      tag_978\n        /* \"#utility.yul\":40372:40376   */\n      dup2\n        /* \"#utility.yul\":40246:40377   */\n      tag_597\n      jump\t// in\n    tag_978:\n        /* \"#utility.yul\":40238:40377   */\n      swap1\n      pop\n        /* \"#utility.yul\":39965:40384   */\n      swap2\n      swap1\n      pop\n      jump\t// out\n        /* \"#utility.yul\":40390:40800   */\n    tag_391:\n        /* \"#utility.yul\":40430:40437   */\n      0x00\n        /* \"#utility.yul\":40453:40473   */\n      tag_980\n        /* \"#utility.yul\":40471:40472   */\n      dup3\n        /* \"#utility.yul\":40453:40473   */\n      tag_506\n      jump\t// in\n    tag_980:\n        /* \"#utility.yul\":40448:40473   */\n      swap2\n      pop\n        /* \"#utility.yul\":40487:40507   */\n      tag_981\n        /* \"#utility.yul\":40505:40506   */\n      dup4\n        /* \"#utility.yul\":40487:40507   */\n      tag_506\n      jump\t// in\n    tag_981:\n        /* \"#utility.yul\":40482:40507   */\n      swap3\n      pop\n        /* \"#utility.yul\":40542:40543   */\n      dup3\n        /* \"#utility.yul\":40539:40540   */\n      dup3\n        /* \"#utility.yul\":40535:40544   */\n      mul\n        /* \"#utility.yul\":40564:40594   */\n      tag_982\n        /* \"#utility.yul\":40582:40593   */\n      dup2\n        /* \"#utility.yul\":40564:40594   */\n      tag_506\n      jump\t// in\n    tag_982:\n        /* \"#utility.yul\":40553:40594   */\n      swap2\n      pop\n        /* \"#utility.yul\":40743:40744   */\n      dup3\n        /* \"#utility.yul\":40734:40741   */\n      dup3\n        /* \"#utility.yul\":40730:40745   */\n      div\n        /* \"#utility.yul\":40727:40728   */\n      dup5\n        /* \"#utility.yul\":40724:40746   */\n      eq\n        /* \"#utility.yul\":40704:40705   */\n      dup4\n        /* \"#utility.yul\":40697:40706   */\n      iszero\n        /* \"#utility.yul\":40677:40760   */\n      or\n        /* \"#utility.yul\":40654:40793   */\n      tag_983\n      jumpi\n        /* \"#utility.yul\":40773:40791   */\n      tag_984\n      tag_565\n      jump\t// in\n    tag_984:\n        /* \"#utility.yul\":40654:40793   */\n    tag_983:\n        /* \"#utility.yul\":40438:40800   */\n      pop\n        /* \"#utility.yul\":40390:40800   */\n      swap3\n      swap2\n      pop\n      pop\n      jump\t// out\n        /* \"#utility.yul\":40806:40997   */\n    tag_394:\n        /* \"#utility.yul\":40846:40849   */\n      0x00\n        /* \"#utility.yul\":40865:40885   */\n      tag_986\n        /* \"#utility.yul\":40883:40884   */\n      dup3\n        /* \"#utility.yul\":40865:40885   */\n      tag_506\n      jump\t// in\n    tag_986:\n        /* \"#utility.yul\":40860:40885   */\n      swap2\n      pop\n        /* \"#utility.yul\":40899:40919   */\n      tag_987\n        /* \"#utility.yul\":40917:40918   */\n      dup4\n        /* \"#utility.yul\":40899:40919   */\n      tag_506\n      jump\t// in\n    tag_987:\n        /* \"#utility.yul\":40894:40919   */\n      swap3\n      pop\n        /* \"#utility.yul\":40942:40943   */\n      dup3\n        /* \"#utility.yul\":40939:40940   */\n      dup3\n        /* \"#utility.yul\":40935:40944   */\n      add\n        /* \"#utility.yul\":40928:40944   */\n      swap1\n      pop\n        /* \"#utility.yul\":40963:40966   */\n      dup1\n        /* \"#utility.yul\":40960:40961   */\n      dup3\n        /* \"#utility.yul\":40957:40967   */\n      gt\n        /* \"#utility.yul\":40954:40990   */\n      iszero\n      tag_988\n      jumpi\n        /* \"#utility.yul\":40970:40988   */\n      tag_989\n      tag_565\n      jump\t// in\n    tag_989:\n        /* \"#utility.yul\":40954:40990   */\n    tag_988:\n        /* \"#utility.yul\":40806:40997   */\n      swap3\n      swap2\n      pop\n      pop\n      jump\t// out\n        /* \"#utility.yul\":41003:41197   */\n    tag_397:\n        /* \"#utility.yul\":41043:41047   */\n      0x00\n        /* \"#utility.yul\":41063:41083   */\n      tag_991\n        /* \"#utility.yul\":41081:41082   */\n      dup3\n        /* \"#utility.yul\":41063:41083   */\n      tag_506\n      jump\t// in\n    tag_991:\n        /* \"#utility.yul\":41058:41083   */\n      swap2\n      pop\n        /* \"#utility.yul\":41097:41117   */\n      tag_992\n        /* \"#utility.yul\":41115:41116   */\n      dup4\n        /* \"#utility.yul\":41097:41117   */\n      tag_506\n      jump\t// in\n    tag_992:\n        /* \"#utility.yul\":41092:41117   */\n      swap3\n      pop\n        /* \"#utility.yul\":41141:41142   */\n      dup3\n        /* \"#utility.yul\":41138:41139   */\n      dup3\n        /* \"#utility.yul\":41134:41143   */\n      sub\n        /* \"#utility.yul\":41126:41143   */\n      swap1\n      pop\n        /* \"#utility.yul\":41165:41166   */\n      dup2\n        /* \"#utility.yul\":41159:41163   */\n      dup2\n        /* \"#utility.yul\":41156:41167   */\n      gt\n        /* \"#utility.yul\":41153:41190   */\n      iszero\n      tag_993\n      jumpi\n        /* \"#utility.yul\":41170:41188   */\n      tag_994\n      tag_565\n      jump\t// in\n    tag_994:\n        /* \"#utility.yul\":41153:41190   */\n    tag_993:\n        /* \"#utility.yul\":41003:41197   */\n      swap3\n      swap2\n      pop\n      pop\n      jump\t// out\n        /* \"#utility.yul\":41203:41383   */\n    tag_598:\n        /* \"#utility.yul\":41251:41328   */\n      0x4e487b7100000000000000000000000000000000000000000000000000000000\n        /* \"#utility.yul\":41248:41249   */\n      0x00\n        /* \"#utility.yul\":41241:41329   */\n      mstore\n        /* \"#utility.yul\":41348:41352   */\n      0x12\n        /* \"#utility.yul\":41345:41346   */\n      0x04\n        /* \"#utility.yul\":41338:41353   */\n      mstore\n        /* \"#utility.yul\":41372:41376   */\n      0x24\n        /* \"#utility.yul\":41369:41370   */\n      0x00\n        /* \"#utility.yul\":41362:41377   */\n      revert\n        /* \"#utility.yul\":41389:41574   */\n    tag_458:\n        /* \"#utility.yul\":41429:41430   */\n      0x00\n        /* \"#utility.yul\":41446:41466   */\n      tag_997\n        /* \"#utility.yul\":41464:41465   */\n      dup3\n        /* \"#utility.yul\":41446:41466   */\n      tag_506\n      jump\t// in\n    tag_997:\n        /* \"#utility.yul\":41441:41466   */\n      swap2\n      pop\n        /* \"#utility.yul\":41480:41500   */\n      tag_998\n        /* \"#utility.yul\":41498:41499   */\n      dup4\n        /* \"#utility.yul\":41480:41500   */\n      tag_506\n      jump\t// in\n    tag_998:\n        /* \"#utility.yul\":41475:41500   */\n      swap3\n      pop\n        /* \"#utility.yul\":41519:41520   */\n      dup3\n        /* \"#utility.yul\":41509:41544   */\n      tag_999\n      jumpi\n        /* \"#utility.yul\":41524:41542   */\n      tag_1000\n      tag_598\n      jump\t// in\n    tag_1000:\n        /* \"#utility.yul\":41509:41544   */\n    tag_999:\n        /* \"#utility.yul\":41566:41567   */\n      dup3\n        /* \"#utility.yul\":41563:41564   */\n      dup3\n        /* \"#utility.yul\":41559:41568   */\n      div\n        /* \"#utility.yul\":41554:41568   */\n      swap1\n      pop\n        /* \"#utility.yul\":41389:41574   */\n      swap3\n      swap2\n      pop\n      pop\n      jump\t// out\n        /* \"#utility.yul\":41580:41657   */\n    tag_599:\n        /* \"#utility.yul\":41617:41624   */\n      0x00\n        /* \"#utility.yul\":41646:41651   */\n      dup2\n        /* \"#utility.yul\":41635:41651   */\n      swap1\n      pop\n        /* \"#utility.yul\":41580:41657   */\n      swap2\n      swap1\n      pop\n      jump\t// out\n        /* \"#utility.yul\":41663:41781   */\n    tag_600:\n        /* \"#utility.yul\":41750:41774   */\n      tag_1003\n        /* \"#utility.yul\":41768:41773   */\n      dup2\n        /* \"#utility.yul\":41750:41774   */\n      tag_599\n      jump\t// in\n    tag_1003:\n        /* \"#utility.yul\":41745:41748   */\n      dup3\n        /* \"#utility.yul\":41738:41775   */\n      mstore\n        /* \"#utility.yul\":41663:41781   */\n      pop\n      pop\n      jump\t// out\n        /* \"#utility.yul\":41787:42009   */\n    tag_498:\n        /* \"#utility.yul\":41880:41884   */\n      0x00\n        /* \"#utility.yul\":41918:41920   */\n      0x20\n        /* \"#utility.yul\":41907:41916   */\n      dup3\n        /* \"#utility.yul\":41903:41921   */\n      add\n        /* \"#utility.yul\":41895:41921   */\n      swap1\n      pop\n        /* \"#utility.yul\":41931:42002   */\n      tag_1005\n        /* \"#utility.yul\":41999:42000   */\n      0x00\n        /* \"#utility.yul\":41988:41997   */\n      dup4\n        /* \"#utility.yul\":41984:42001   */\n      add\n        /* \"#utility.yul\":41975:41981   */\n      dup5\n        /* \"#utility.yul\":41931:42002   */\n      tag_600\n      jump\t// in\n    tag_1005:\n        /* \"#utility.yul\":41787:42009   */\n      swap3\n      swap2\n      pop\n      pop\n      jump\t// out\n        /* \"#utility.yul\":42015:42127   */\n    tag_601:\n        /* \"#utility.yul\":42098:42120   */\n      tag_1007\n        /* \"#utility.yul\":42114:42119   */\n      dup2\n        /* \"#utility.yul\":42098:42120   */\n      tag_595\n      jump\t// in\n    tag_1007:\n        /* \"#utility.yul\":42093:42096   */\n      dup3\n        /* \"#utility.yul\":42086:42121   */\n      mstore\n        /* \"#utility.yul\":42015:42127   */\n      pop\n      pop\n      jump\t// out\n        /* \"#utility.yul\":42133:42678   */\n    tag_502:\n        /* \"#utility.yul\":42306:42310   */\n      0x00\n        /* \"#utility.yul\":42344:42347   */\n      0x80\n        /* \"#utility.yul\":42333:42342   */\n      dup3\n        /* \"#utility.yul\":42329:42348   */\n      add\n        /* \"#utility.yul\":42321:42348   */\n      swap1\n      pop\n        /* \"#utility.yul\":42358:42429   */\n      tag_1009\n        /* \"#utility.yul\":42426:42427   */\n      0x00\n        /* \"#utility.yul\":42415:42424   */\n      dup4\n        /* \"#utility.yul\":42411:42428   */\n      add\n        /* \"#utility.yul\":42402:42408   */\n      dup8\n        /* \"#utility.yul\":42358:42429   */\n      tag_600\n      jump\t// in\n    tag_1009:\n        /* \"#utility.yul\":42439:42507   */\n      tag_1010\n        /* \"#utility.yul\":42503:42505   */\n      0x20\n        /* \"#utility.yul\":42492:42501   */\n      dup4\n        /* \"#utility.yul\":42488:42506   */\n      add\n        /* \"#utility.yul\":42479:42485   */\n      dup7\n        /* \"#utility.yul\":42439:42507   */\n      tag_601\n      jump\t// in\n    tag_1010:\n        /* \"#utility.yul\":42517:42589   */\n      tag_1011\n        /* \"#utility.yul\":42585:42587   */\n      0x40\n        /* \"#utility.yul\":42574:42583   */\n      dup4\n        /* \"#utility.yul\":42570:42588   */\n      add\n        /* \"#utility.yul\":42561:42567   */\n      dup6\n        /* \"#utility.yul\":42517:42589   */\n      tag_600\n      jump\t// in\n    tag_1011:\n        /* \"#utility.yul\":42599:42671   */\n      tag_1012\n        /* \"#utility.yul\":42667:42669   */\n      0x60\n        /* \"#utility.yul\":42656:42665   */\n      dup4\n        /* \"#utility.yul\":42652:42670   */\n      add\n        /* \"#utility.yul\":42643:42649   */\n      dup5\n        /* \"#utility.yul\":42599:42671   */\n      tag_600\n      jump\t// in\n    tag_1012:\n        /* \"#utility.yul\":42133:42678   */\n      swap6\n      swap5\n      pop\n      pop\n      pop\n      pop\n      pop\n      jump\t// out\n\n    auxdata: 0xa2646970667358221220480f6fcc2f9ed47352a413b819ff05441e2cfd69c0aee52c95538a9732ce3e5564736f6c63430008140033\n}\n",
				"bytecode": {
					"linkReferences": {},
					"object": "6080604052600a60015560046002556002600355600480557396216849c49358b10257cb55b28ea603c874b05e60065f6101000a81548173ffffffffffffffffffffffffffffffffffffffff021916908373ffffffffffffffffffffffffffffffffffffffff16021790555034801562000077575f80fd5b50335f73ffffffffffffffffffffffffffffffffffffffff168173ffffffffffffffffffffffffffffffffffffffff1603620000ec575f6040517f1e4fbdf7000000000000000000000000000000000000000000000000000000008152600401620000e3919062000248565b60405180910390fd5b620000fd816200014460201b60201c565b5033600c5f6101000a81548173ffffffffffffffffffffffffffffffffffffffff021916908373ffffffffffffffffffffffffffffffffffffffff16021790555062000263565b5f805f9054906101000a900473ffffffffffffffffffffffffffffffffffffffff169050815f806101000a81548173ffffffffffffffffffffffffffffffffffffffff021916908373ffffffffffffffffffffffffffffffffffffffff1602179055508173ffffffffffffffffffffffffffffffffffffffff168173ffffffffffffffffffffffffffffffffffffffff167f8be0079c531659141344cd1fd0a4f28419497f9722a3daafe3b4186f6b6457e060405160405180910390a35050565b5f73ffffffffffffffffffffffffffffffffffffffff82169050919050565b5f620002308262000205565b9050919050565b620002428162000224565b82525050565b5f6020820190506200025d5f83018462000237565b92915050565b613d2e80620002715f395ff3fe6080604052600436106101cc575f3560e01c806373db533d116100f6578063b9844d8d11610094578063cc9d197411610063578063cc9d19741461066b578063de2fe26a14610693578063e20f7997146106d0578063f2fde38b146106fa576101cc565b8063b9844d8d1461059f578063ba7d5bfd146105db578063c5695aef14610605578063c724940f14610641576101cc565b80638da5cb5b116100d05780638da5cb5b14610507578063909aa42a14610531578063ad006b2f1461054d578063b791fd9f14610575576101cc565b806373db533d1461048b5780638690e716146104b557806386bde413146104df576101cc565b806330762af71161016e5780635085d4d81161013d5780635085d4d8146103e757806351c651a81461041157806352a13a5614610439578063715018a614610475576101cc565b806330762af71461031a5780633beab5701461035657806344ed635a14610380578063473d833c146103aa576101cc565b8063116643c5116101aa578063116643c5146102525780631b4f7e281461027a57806320b638b8146102b65780632be32d32146102f2576101cc565b80630b775510146101d05780630f09e5e2146101fa57806310225b481461022a575b5f80fd5b3480156101db575f80fd5b506101e4610722565b6040516101f19190612802565b60405180910390f35b610214600480360381019061020f9190612992565b610728565b6040516102219190612a06565b60405180910390f35b348015610235575f80fd5b50610250600480360381019061024b9190612b34565b610a8f565b005b34801561025d575f80fd5b5061027860048036038101906102739190612baa565b610de8565b005b348015610285575f80fd5b506102a0600480360381019061029b9190612bfa565b610e3b565b6040516102ad9190612cbb565b60405180910390f35b3480156102c1575f80fd5b506102dc60048036038101906102d79190612dd3565b610e8f565b6040516102e99190612802565b60405180910390f35b3480156102fd575f80fd5b5061031860048036038101906103139190612992565b610ec7565b005b348015610325575f80fd5b50610340600480360381019061033b9190612e2d565b6111ac565b60405161034d9190612802565b60405180910390f35b348015610361575f80fd5b5061036a611217565b6040516103779190612802565b60405180910390f35b34801561038b575f80fd5b5061039461121d565b6040516103a19190612802565b60405180910390f35b3480156103b5575f80fd5b506103d060048036038101906103cb9190612992565b611228565b6040516103de929190612e87565b60405180910390f35b3480156103f2575f80fd5b506103fb6112c4565b6040516104089190612802565b60405180910390f35b34801561041c575f80fd5b5061043760048036038101906104329190612fbb565b6112c9565b005b348015610444575f80fd5b5061045f600480360381019061045a9190613002565b61134b565b60405161046c9190612802565b60405180910390f35b348015610480575f80fd5b50610489611360565b005b348015610496575f80fd5b5061049f611373565b6040516104ac919061303c565b60405180910390f35b3480156104c0575f80fd5b506104c9611398565b6040516104d69190612802565b60405180910390f35b3480156104ea575f80fd5b5061050560048036038101906105009190612bfa565b61139f565b005b348015610512575f80fd5b5061051b6115b6565b604051610528919061303c565b60405180910390f35b61054b60048036038101906105469190612992565b6115dd565b005b348015610558575f80fd5b50610573600480360381019061056e9190613055565b6118b1565b005b348015610580575f80fd5b50610589611bd2565b60405161059691906130eb565b60405180910390f35b3480156105aa575f80fd5b506105c560048036038101906105c09190613104565b611bf7565b6040516105d29190612802565b60405180910390f35b3480156105e6575f80fd5b506105ef611c0c565b6040516105fc9190612802565b60405180910390f35b348015610610575f80fd5b5061062b60048036038101906106269190613002565b611c12565b6040516106389190612802565b60405180910390f35b34801561064c575f80fd5b50610655611c76565b6040516106629190612802565b60405180910390f35b348015610676575f80fd5b50610691600480360381019061068c9190613104565b611c7c565b005b34801561069e575f80fd5b506106b960048036038101906106b49190612992565b611d35565b6040516106c7929190612e87565b60405180910390f35b3480156106db575f80fd5b506106e4611dd1565b6040516106f19190612802565b60405180910390f35b348015610705575f80fd5b50610720600480360381019061071b9190613104565b611ddc565b005b60045481565b5f3373ffffffffffffffffffffffffffffffffffffffff163273ffffffffffffffffffffffffffffffffffffffff1614610797576040517f08c379a000000000000000000000000000000000000000000000000000000000815260040161078e90613189565b60405180910390fd5b5f6107a184610e3b565b9050426008826040516107b491906131e1565b9081526020016040518091039020600101541015610807576040517f08c379a00000000000000000000000000000000000000000000000000000000081526004016107fe90613241565b60405180910390fd5b5f8311610849576040517f08c379a0000000000000000000000000000000000000000000000000000000008152600401610840906132a9565b60405180910390fd5b3461087d66038d7ea4c6800061086f662386f26fc1000087611e6090919063ffffffff16565b611e7590919063ffffffff16565b10156108be576040517f08c379a00000000000000000000000000000000000000000000000000000000081526004016108b590613311565b60405180910390fd5b6009816040516108ce91906131e1565b908152602001604051809103902060405180606001604052808581526020013373ffffffffffffffffffffffffffffffffffffffff1681526020015f1515815250908060018154018082558091505060019003905f5260205f2090600202015f909190919091505f820151815f01556020820151816001015f6101000a81548173ffffffffffffffffffffffffffffffffffffffff021916908373ffffffffffffffffffffffffffffffffffffffff16021790555060408201518160010160146101000a81548160ff02191690831515021790555050506109d9836008836040516109b991906131e1565b908152602001604051809103902060020154611e7590919063ffffffff16565b6008826040516109e991906131e1565b9081526020016040518091039020600201819055503373ffffffffffffffffffffffffffffffffffffffff167fdac6f59b977dafbca4da6315b0731c34083e85eaf92766691c987a5ab4468aea85610a6c6001600986604051610a4c91906131e1565b908152602001604051809103902080549050611e8a90919063ffffffff16565b86604051610a7c93929190613371565b60405180910390a2600191505092915050565b610a97611e9f565b5f610aa183610e3b565b90505f600982604051610ab491906131e1565b908152602001604051809103902090508251818054905010610de2575f5b8351811015610de0575f848281518110610aef57610aee6133ad565b5b602002602001015190505f83825f015181548110610b1057610b0f6133ad565b5b905f5260205f20906002020190505f8260200151118015610b4057508060010160149054906101000a900460ff16155b15610cca57805f015482602001511115610b8f576040517f08c379a0000000000000000000000000000000000000000000000000000000008152600401610b8690613424565b60405180910390fd5b60018160010160146101000a81548160ff021916908315150217905550610c3f8260200151600787604051610bc491906131e1565b90815260200160405180910390205f846001015f9054906101000a900473ffffffffffffffffffffffffffffffffffffffff1673ffffffffffffffffffffffffffffffffffffffff1673ffffffffffffffffffffffffffffffffffffffff1681526020019081526020015f2054611e7590919063ffffffff16565b600786604051610c4f91906131e1565b90815260200160405180910390205f836001015f9054906101000a900473ffffffffffffffffffffffffffffffffffffffff1673ffffffffffffffffffffffffffffffffffffffff1673ffffffffffffffffffffffffffffffffffffffff1681526020019081526020015f2081905550610cc98533611f26565b5b8160200151815f01541115610d78575f610d0d662386f26fc10000610cff8560200151855f0154611e8a90919063ffffffff16565b611e6090919063ffffffff16565b9050816001015f9054906101000a900473ffffffffffffffffffffffffffffffffffffffff1673ffffffffffffffffffffffffffffffffffffffff166108fc8290811502906040515f60405180830381858888f19350505050158015610d75573d5f803e3d5ffd5b50505b3373ffffffffffffffffffffffffffffffffffffffff167f53fae72da401d34993de5cb88d89b61921d9ea03b01cf315dccb1f628547d05e88845f0151604051610dc3929190613442565b60405180910390a250508080610dd89061349d565b915050610ad2565b505b50505050565b610df0611e9f565b826002819055508160038190555080600481905550610e30600454610e22600354600254611e7590919063ffffffff16565b611e7590919063ffffffff16565b600181905550505050565b60605f829050602081511115610e86576040517f08c379a0000000000000000000000000000000000000000000000000000000008152600401610e7d90613554565b60405180910390fd5b80915050919050565b600782805160208101820180518482526020830160208501208183528095505050505050602052805f5260405f205f91509150505481565b3373ffffffffffffffffffffffffffffffffffffffff163273ffffffffffffffffffffffffffffffffffffffff1614610f35576040517f08c379a0000000000000000000000000000000000000000000000000000000008152600401610f2c90613189565b60405180910390fd5b5f8111610f77576040517f08c379a0000000000000000000000000000000000000000000000000000000008152600401610f6e906135bc565b60405180910390fd5b5f610f8183610e3b565b905081600782604051610f9491906131e1565b90815260200160405180910390205f3373ffffffffffffffffffffffffffffffffffffffff1673ffffffffffffffffffffffffffffffffffffffff1681526020019081526020015f2054101561101f576040517f08c379a000000000000000000000000000000000000000000000000000000000815260040161101690613624565b60405180910390fd5b5f8061102b83856120be565b9150915061109b8460078560405161104391906131e1565b90815260200160405180910390205f3373ffffffffffffffffffffffffffffffffffffffff1673ffffffffffffffffffffffffffffffffffffffff1681526020019081526020015f2054611e8a90919063ffffffff16565b6007846040516110ab91906131e1565b90815260200160405180910390205f3373ffffffffffffffffffffffffffffffffffffffff1673ffffffffffffffffffffffffffffffffffffffff1681526020019081526020015f20819055503373ffffffffffffffffffffffffffffffffffffffff166108fc6111258385611e8a90919063ffffffff16565b90811502906040515f60405180830381858888f1935050505015801561114d573d5f803e3d5ffd5b503373ffffffffffffffffffffffffffffffffffffffff167fcf59e98e3586000b5aa777c573f007017dc33d0e7aedc7fbde92cc1ce233f20c86848460018960405161119d9594939291906136b5565b60405180910390a25050505050565b5f60076111b884610e3b565b6040516111c591906131e1565b90815260200160405180910390205f8373ffffffffffffffffffffffffffffffffffffffff1673ffffffffffffffffffffffffffffffffffffffff1681526020019081526020015f2054905092915050565b60035481565b662386f26fc1000081565b5f803373ffffffffffffffffffffffffffffffffffffffff163273ffffffffffffffffffffffffffffffffffffffff1614611298576040517f08c379a000000000000000000000000000000000000000000000000000000000815260040161128f90613189565b60405180910390fd5b5f6112a285610e3b565b90505f806112b083876120be565b915091508181945094505050509250929050565b606481565b6112d1611e9f565b5f5b8151811015611347575f8282815181106112f0576112ef6133ad565b5b602002602001015190506064815f015111801561131057505f8160200151115b15611333578060200151600a5f835f015181526020019081526020015f20819055505b50808061133f9061349d565b9150506112d3565b5050565b600a602052805f5260405f205f915090505481565b611368611e9f565b6113715f612291565b565b60065f9054906101000a900473ffffffffffffffffffffffffffffffffffffffff1681565b6202a30081565b3373ffffffffffffffffffffffffffffffffffffffff163273ffffffffffffffffffffffffffffffffffffffff161461140d576040517f08c379a000000000000000000000000000000000000000000000000000000000815260040161140490613189565b60405180910390fd5b5f61141782610e3b565b90505f600b8260405161142a91906131e1565b90815260200160405180910390206002015f3373ffffffffffffffffffffffffffffffffffffffff1673ffffffffffffffffffffffffffffffffffffffff1681526020019081526020015f205490505f8110156114bc576040517f08c379a00000000000000000000000000000000000000000000000000000000081526004016114b390613757565b60405180910390fd5b5f600b836040516114cd91906131e1565b90815260200160405180910390206002015f3373ffffffffffffffffffffffffffffffffffffffff1673ffffffffffffffffffffffffffffffffffffffff1681526020019081526020015f20819055503373ffffffffffffffffffffffffffffffffffffffff166108fc8290811502906040515f60405180830381858888f19350505050158015611560573d5f803e3d5ffd5b503373ffffffffffffffffffffffffffffffffffffffff167f26d73e0951876a99aa7c7d086fccb9e7068f2d9f938edc04f8a3c8006222ed3084836040516115a9929190613442565b60405180910390a2505050565b5f805f9054906101000a900473ffffffffffffffffffffffffffffffffffffffff16905090565b3373ffffffffffffffffffffffffffffffffffffffff163273ffffffffffffffffffffffffffffffffffffffff161461164b576040517f08c379a000000000000000000000000000000000000000000000000000000000815260040161164290613189565b60405180910390fd5b5f811161168d576040517f08c379a0000000000000000000000000000000000000000000000000000000008152600401611684906135bc565b60405180910390fd5b5f61169783610e3b565b90505f806116a58385612352565b915091506116bc8183611e7590919063ffffffff16565b3410156116fe576040517f08c379a00000000000000000000000000000000000000000000000000000000081526004016116f5906137bf565b60405180910390fd5b6117118183611e7590919063ffffffff16565b341115611781573373ffffffffffffffffffffffffffffffffffffffff166108fc6117576117488486611e7590919063ffffffff16565b34611e8a90919063ffffffff16565b90811502906040515f60405180830381858888f1935050505015801561177f573d5f803e3d5ffd5b505b61178b8333611f26565b6117f78460078560405161179f91906131e1565b90815260200160405180910390205f3373ffffffffffffffffffffffffffffffffffffffff1673ffffffffffffffffffffffffffffffffffffffff1681526020019081526020015f2054611e7590919063ffffffff16565b60078460405161180791906131e1565b90815260200160405180910390205f3373ffffffffffffffffffffffffffffffffffffffff1673ffffffffffffffffffffffffffffffffffffffff1681526020019081526020015f20819055503373ffffffffffffffffffffffffffffffffffffffff167fcf59e98e3586000b5aa777c573f007017dc33d0e7aedc7fbde92cc1ce233f20c8684845f896040516118a29594939291906136b5565b60405180910390a25050505050565b3373ffffffffffffffffffffffffffffffffffffffff163273ffffffffffffffffffffffffffffffffffffffff161461191f576040517f08c379a000000000000000000000000000000000000000000000000000000000815260040161191690613189565b60405180910390fd5b5f61192983610e3b565b90505f60088260405161193c91906131e1565b9081526020016040518091039020600101541461198e576040517f08c379a000000000000000000000000000000000000000000000000000000000815260040161198590613827565b60405180910390fd5b5f338460055f61199c612489565b73ffffffffffffffffffffffffffffffffffffffff1673ffffffffffffffffffffffffffffffffffffffff1681526020019081526020015f20546040516020016119e8939291906138e4565b60405160208183030381529060405280519060200120905060065f9054906101000a900473ffffffffffffffffffffffffffffffffffffffff1673ffffffffffffffffffffffffffffffffffffffff16611a428285612490565b73ffffffffffffffffffffffffffffffffffffffff1614611a98576040517f08c379a0000000000000000000000000000000000000000000000000000000008152600401611a8f90613966565b60405180910390fd5b5f611aaf6202a30042611e7590919063ffffffff16565b90506040518060a001604052803373ffffffffffffffffffffffffffffffffffffffff1681526020018281526020015f81526020015f81526020015f815250600884604051611afe91906131e1565b90815260200160405180910390205f820151815f015f6101000a81548173ffffffffffffffffffffffffffffffffffffffff021916908373ffffffffffffffffffffffffffffffffffffffff160217905550602082015181600101556040820151816002015560608201518160030155608082015181600401559050503373ffffffffffffffffffffffffffffffffffffffff167f0f126ec1fbb7d521827771bfb48ef46eb9059c22613c14d6c7e7ffe14d5b52f58683604051611bc3929190613442565b60405180910390a25050505050565b600c5f9054906101000a900473ffffffffffffffffffffffffffffffffffffffff1681565b6005602052805f5260405f205f915090505481565b60015481565b5f611c6f655af3107a4000611c616105dc611c536005611c45611c4060058a611c3b9190613abf565b6124ba565b6124ba565b611e6090919063ffffffff16565b611e8a90919063ffffffff16565b611e6090919063ffffffff16565b9050919050565b60025481565b611c84611e9f565b8073ffffffffffffffffffffffffffffffffffffffff165f73ffffffffffffffffffffffffffffffffffffffff1603611cf2576040517f08c379a0000000000000000000000000000000000000000000000000000000008152600401611ce990613b53565b60405180910390fd5b80600c5f6101000a81548173ffffffffffffffffffffffffffffffffffffffff021916908373ffffffffffffffffffffffffffffffffffffffff16021790555050565b5f803373ffffffffffffffffffffffffffffffffffffffff163273ffffffffffffffffffffffffffffffffffffffff1614611da5576040517f08c379a0000000000000000000000000000000000000000000000000000000008152600401611d9c90613189565b60405180910390fd5b5f611daf85610e3b565b90505f80611dbd8387612352565b915091508181945094505050509250929050565b66038d7ea4c6800081565b611de4611e9f565b5f73ffffffffffffffffffffffffffffffffffffffff168173ffffffffffffffffffffffffffffffffffffffff1603611e54575f6040517f1e4fbdf7000000000000000000000000000000000000000000000000000000008152600401611e4b919061303c565b60405180910390fd5b611e5d81612291565b50565b5f8183611e6d9190613b71565b905092915050565b5f8183611e829190613bb2565b905092915050565b5f8183611e979190613be5565b905092915050565b611ea7612489565b73ffffffffffffffffffffffffffffffffffffffff16611ec56115b6565b73ffffffffffffffffffffffffffffffffffffffff1614611f2457611ee8612489565b6040517f118cdaa7000000000000000000000000000000000000000000000000000000008152600401611f1b919061303c565b60405180910390fd5b565b5f600b83604051611f3791906131e1565b908152602001604051809103902090505f816001015f8473ffffffffffffffffffffffffffffffffffffffff1673ffffffffffffffffffffffffffffffffffffffff1681526020019081526020015f205490508273ffffffffffffffffffffffffffffffffffffffff16825f018281548110611fb657611fb56133ad565b5b905f5260205f20015f9054906101000a900473ffffffffffffffffffffffffffffffffffffffff1673ffffffffffffffffffffffffffffffffffffffff16146120b857815f0133908060018154018082558091505060019003905f5260205f20015f9091909190916101000a81548173ffffffffffffffffffffffffffffffffffffffff021916908373ffffffffffffffffffffffffffffffffffffffff1602179055506120746001835f0180549050611e8a90919063ffffffff16565b826001015f8573ffffffffffffffffffffffffffffffffffffffff1673ffffffffffffffffffffffffffffffffffffffff1681526020019081526020015f20819055505b50505050565b5f805f8311612102576040517f08c379a00000000000000000000000000000000000000000000000000000000081526004016120f9906135bc565b60405180910390fd5b8260078560405161211391906131e1565b90815260200160405180910390205f3373ffffffffffffffffffffffffffffffffffffffff1673ffffffffffffffffffffffffffffffffffffffff1681526020019081526020015f2054101561219e576040517f08c379a000000000000000000000000000000000000000000000000000000000815260040161219590613624565b60405180910390fd5b5f806008866040516121b091906131e1565b90815260200160405180910390206003015490505f5b85811015612255575f6121e3600184611e8a90919063ffffffff16565b90505f662386f26fc100009050606484111561222857600a5f8581526020019081526020015f20549050662386f26fc1000081116122275761222484611c12565b90505b5b61223b8186611e7590919063ffffffff16565b94508193505050808061224d9061349d565b9150506121c6565b505f61227f606461227160015486611e6090919063ffffffff16565b61253790919063ffffffff16565b90508281945094505050509250929050565b5f805f9054906101000a900473ffffffffffffffffffffffffffffffffffffffff169050815f806101000a81548173ffffffffffffffffffffffffffffffffffffffff021916908373ffffffffffffffffffffffffffffffffffffffff1602179055508173ffffffffffffffffffffffffffffffffffffffff168173ffffffffffffffffffffffffffffffffffffffff167f8be0079c531659141344cd1fd0a4f28419497f9722a3daafe3b4186f6b6457e060405160405180910390a35050565b5f805f8311612396576040517f08c379a000000000000000000000000000000000000000000000000000000000815260040161238d906135bc565b60405180910390fd5b5f806008866040516123a891906131e1565b90815260200160405180910390206003015490505f5b8581101561244d575f6123db600184611e7590919063ffffffff16565b90505f662386f26fc100009050606482111561242057600a5f8381526020019081526020015f20549050662386f26fc10000811161241f5761241c82611c12565b90505b5b6124338186611e7590919063ffffffff16565b9450819350505080806124459061349d565b9150506123be565b505f612477606461246960015486611e6090919063ffffffff16565b61253790919063ffffffff16565b90508281945094505050509250929050565b5f33905090565b5f805f8061249e868661254c565b9250925092506124ae82826125a1565b82935050505092915050565b5f808214806124c95750600182145b156124d657819050612532565b5f60026001846124e69190613bb2565b6124f09190613c45565b90505f8390505b8082101561252c5781905060028283866125119190613c45565b61251b9190613bb2565b6125259190613c45565b91506124f7565b80925050505b919050565b5f81836125449190613c45565b905092915050565b5f805f604184510361258c575f805f602087015192506040870151915060608701515f1a905061257e88828585612703565b95509550955050505061259a565b5f600285515f1b9250925092505b9250925092565b5f60038111156125b4576125b3613642565b5b8260038111156125c7576125c6613642565b5b03156126ff57600160038111156125e1576125e0613642565b5b8260038111156125f4576125f3613642565b5b0361262b576040517ff645eedf00000000000000000000000000000000000000000000000000000000815260040160405180910390fd5b6002600381111561263f5761263e613642565b5b82600381111561265257612651613642565b5b0361269657805f1c6040517ffce698f700000000000000000000000000000000000000000000000000000000815260040161268d9190612802565b60405180910390fd5b6003808111156126a9576126a8613642565b5b8260038111156126bc576126bb613642565b5b036126fe57806040517fd78bce0c0000000000000000000000000000000000000000000000000000000081526004016126f59190613c8d565b60405180910390fd5b5b5050565b5f805f7f7fffffffffffffffffffffffffffffff5d576e7357a4501ddfe92f46681b20a0845f1c111561273f575f6003859250925092506127e0565b5f6001888888886040515f81526020016040526040516127629493929190613cb5565b6020604051602081039080840390855afa158015612782573d5f803e3d5ffd5b5050506020604051035190505f73ffffffffffffffffffffffffffffffffffffffff168173ffffffffffffffffffffffffffffffffffffffff16036127d3575f60015f801b935093509350506127e0565b805f805f1b935093509350505b9450945094915050565b5f819050919050565b6127fc816127ea565b82525050565b5f6020820190506128155f8301846127f3565b92915050565b5f604051905090565b5f80fd5b5f80fd5b5f80fd5b5f80fd5b5f601f19601f8301169050919050565b7f4e487b71000000000000000000000000000000000000000000000000000000005f52604160045260245ffd5b61287a82612834565b810181811067ffffffffffffffff8211171561289957612898612844565b5b80604052505050565b5f6128ab61281b565b90506128b78282612871565b919050565b5f67ffffffffffffffff8211156128d6576128d5612844565b5b6128df82612834565b9050602081019050919050565b828183375f83830152505050565b5f61290c612907846128bc565b6128a2565b90508281526020810184848401111561292857612927612830565b5b6129338482856128ec565b509392505050565b5f82601f83011261294f5761294e61282c565b5b813561295f8482602086016128fa565b91505092915050565b612971816127ea565b811461297b575f80fd5b50565b5f8135905061298c81612968565b92915050565b5f80604083850312156129a8576129a7612824565b5b5f83013567ffffffffffffffff8111156129c5576129c4612828565b5b6129d18582860161293b565b92505060206129e28582860161297e565b9150509250929050565b5f8115159050919050565b612a00816129ec565b82525050565b5f602082019050612a195f8301846129f7565b92915050565b5f67ffffffffffffffff821115612a3957612a38612844565b5b602082029050602081019050919050565b5f80fd5b5f80fd5b5f60408284031215612a6757612a66612a4e565b5b612a7160406128a2565b90505f612a808482850161297e565b5f830152506020612a938482850161297e565b60208301525092915050565b5f612ab1612aac84612a1f565b6128a2565b90508083825260208201905060408402830185811115612ad457612ad3612a4a565b5b835b81811015612afd5780612ae98882612a52565b845260208401935050604081019050612ad6565b5050509392505050565b5f82601f830112612b1b57612b1a61282c565b5b8135612b2b848260208601612a9f565b91505092915050565b5f8060408385031215612b4a57612b49612824565b5b5f83013567ffffffffffffffff811115612b6757612b66612828565b5b612b738582860161293b565b925050602083013567ffffffffffffffff811115612b9457612b93612828565b5b612ba085828601612b07565b9150509250929050565b5f805f60608486031215612bc157612bc0612824565b5b5f612bce8682870161297e565b9350506020612bdf8682870161297e565b9250506040612bf08682870161297e565b9150509250925092565b5f60208284031215612c0f57612c0e612824565b5b5f82013567ffffffffffffffff811115612c2c57612c2b612828565b5b612c388482850161293b565b91505092915050565b5f81519050919050565b5f82825260208201905092915050565b5f5b83811015612c78578082015181840152602081019050612c5d565b5f8484015250505050565b5f612c8d82612c41565b612c978185612c4b565b9350612ca7818560208601612c5b565b612cb081612834565b840191505092915050565b5f6020820190508181035f830152612cd38184612c83565b905092915050565b5f67ffffffffffffffff821115612cf557612cf4612844565b5b612cfe82612834565b9050602081019050919050565b5f612d1d612d1884612cdb565b6128a2565b905082815260208101848484011115612d3957612d38612830565b5b612d448482856128ec565b509392505050565b5f82601f830112612d6057612d5f61282c565b5b8135612d70848260208601612d0b565b91505092915050565b5f73ffffffffffffffffffffffffffffffffffffffff82169050919050565b5f612da282612d79565b9050919050565b612db281612d98565b8114612dbc575f80fd5b50565b5f81359050612dcd81612da9565b92915050565b5f8060408385031215612de957612de8612824565b5b5f83013567ffffffffffffffff811115612e0657612e05612828565b5b612e1285828601612d4c565b9250506020612e2385828601612dbf565b9150509250929050565b5f8060408385031215612e4357612e42612824565b5b5f83013567ffffffffffffffff811115612e6057612e5f612828565b5b612e6c8582860161293b565b9250506020612e7d85828601612dbf565b9150509250929050565b5f604082019050612e9a5f8301856127f3565b612ea760208301846127f3565b9392505050565b5f67ffffffffffffffff821115612ec857612ec7612844565b5b602082029050602081019050919050565b5f60408284031215612eee57612eed612a4e565b5b612ef860406128a2565b90505f612f078482850161297e565b5f830152506020612f1a8482850161297e565b60208301525092915050565b5f612f38612f3384612eae565b6128a2565b90508083825260208201905060408402830185811115612f5b57612f5a612a4a565b5b835b81811015612f845780612f708882612ed9565b845260208401935050604081019050612f5d565b5050509392505050565b5f82601f830112612fa257612fa161282c565b5b8135612fb2848260208601612f26565b91505092915050565b5f60208284031215612fd057612fcf612824565b5b5f82013567ffffffffffffffff811115612fed57612fec612828565b5b612ff984828501612f8e565b91505092915050565b5f6020828403121561301757613016612824565b5b5f6130248482850161297e565b91505092915050565b61303681612d98565b82525050565b5f60208201905061304f5f83018461302d565b92915050565b5f806040838503121561306b5761306a612824565b5b5f83013567ffffffffffffffff81111561308857613087612828565b5b6130948582860161293b565b925050602083013567ffffffffffffffff8111156130b5576130b4612828565b5b6130c185828601612d4c565b9150509250929050565b5f6130d582612d79565b9050919050565b6130e5816130cb565b82525050565b5f6020820190506130fe5f8301846130dc565b92915050565b5f6020828403121561311957613118612824565b5b5f61312684828501612dbf565b91505092915050565b5f82825260208201905092915050565b7f5468652063616c6c657220697320616e6f7468657220636f6e747261637400005f82015250565b5f613173601e8361312f565b915061317e8261313f565b602082019050919050565b5f6020820190508181035f8301526131a081613167565b9050919050565b5f81905092915050565b5f6131bb82612c41565b6131c581856131a7565b93506131d5818560208601612c5b565b80840191505092915050565b5f6131ec82846131b1565b915081905092915050565b7f54686520626f782073616c6520697320656e64000000000000000000000000005f82015250565b5f61322b60138361312f565b9150613236826131f7565b602082019050919050565b5f6020820190508181035f8301526132588161321f565b9050919050565b7f426f7820636e74206973207a65726f00000000000000000000000000000000005f82015250565b5f613293600f8361312f565b915061329e8261325f565b602082019050919050565b5f6020820190508181035f8301526132c081613287565b9050919050565b7f496e73756666696369656e7420426f7820616d6f756e740000000000000000005f82015250565b5f6132fb60178361312f565b9150613306826132c7565b602082019050919050565b5f6020820190508181035f830152613328816132ef565b9050919050565b5f81519050919050565b5f6133438261332f565b61334d818561312f565b935061335d818560208601612c5b565b61336681612834565b840191505092915050565b5f6060820190508181035f8301526133898186613339565b905061339860208301856127f3565b6133a560408301846127f3565b949350505050565b7f4e487b71000000000000000000000000000000000000000000000000000000005f52603260045260245ffd5b7f496e73756666696369656e7420626f7820616c6c6f6361746520636e740000005f82015250565b5f61340e601d8361312f565b9150613419826133da565b602082019050919050565b5f6020820190508181035f83015261343b81613402565b9050919050565b5f6040820190508181035f83015261345a8185613339565b905061346960208301846127f3565b9392505050565b7f4e487b71000000000000000000000000000000000000000000000000000000005f52601160045260245ffd5b5f6134a7826127ea565b91507fffffffffffffffffffffffffffffffffffffffffffffffffffffffffffffffff82036134d9576134d8613470565b5b600182019050919050565b7f54687320736f7572636520737472696e672065786365656473203332206279745f8201527f6573000000000000000000000000000000000000000000000000000000000000602082015250565b5f61353e60228361312f565b9150613549826134e4565b604082019050919050565b5f6020820190508181035f83015261356b81613532565b9050919050565b7f496e73756666696369656e7420426f7820636e740000000000000000000000005f82015250565b5f6135a660148361312f565b91506135b182613572565b602082019050919050565b5f6020820190508181035f8301526135d38161359a565b9050919050565b7f496e73756666696369656e7420426f782062616c616e636500000000000000005f82015250565b5f61360e60188361312f565b9150613619826135da565b602082019050919050565b5f6020820190508181035f83015261363b81613602565b9050919050565b7f4e487b71000000000000000000000000000000000000000000000000000000005f52602160045260245ffd5b600281106136805761367f613642565b5b50565b5f8190506136908261366f565b919050565b5f61369f82613683565b9050919050565b6136af81613695565b82525050565b5f60a0820190508181035f8301526136cd8188613339565b90506136dc60208301876127f3565b6136e960408301866127f3565b6136f660608301856136a6565b61370360808301846127f3565b9695505050505050565b7f496e73756666696369656e7420636c61696d20616d6f756e74000000000000005f82015250565b5f61374160198361312f565b915061374c8261370d565b602082019050919050565b5f6020820190508181035f83015261376e81613735565b9050919050565b7f496e73756666696369656e742070617920616d6f756e740000000000000000005f82015250565b5f6137a960178361312f565b91506137b482613775565b602082019050919050565b5f6020820190508181035f8301526137d68161379d565b9050919050565b7f546865206d6574612065786973740000000000000000000000000000000000005f82015250565b5f613811600e8361312f565b915061381c826137dd565b602082019050919050565b5f6020820190508181035f83015261383e81613805565b9050919050565b5f8160601b9050919050565b5f61385b82613845565b9050919050565b5f61386c82613851565b9050919050565b61388461387f82612d98565b613862565b82525050565b5f81905092915050565b5f61389e8261332f565b6138a8818561388a565b93506138b8818560208601612c5b565b80840191505092915050565b5f819050919050565b6138de6138d9826127ea565b6138c4565b82525050565b5f6138ef8286613873565b6014820191506138ff8285613894565b915061390b82846138cd565b602082019150819050949350505050565b7f546865207369676e617475726520697320696e76616c696400000000000000005f82015250565b5f61395060188361312f565b915061395b8261391c565b602082019050919050565b5f6020820190508181035f83015261397d81613944565b9050919050565b5f8160011c9050919050565b5f808291508390505b60018511156139d9578086048111156139b5576139b4613470565b5b60018516156139c45780820291505b80810290506139d285613984565b9450613999565b94509492505050565b5f826139f15760019050613aac565b816139fe575f9050613aac565b8160018114613a145760028114613a1e57613a4d565b6001915050613aac565b60ff841115613a3057613a2f613470565b5b8360020a915084821115613a4757613a46613470565b5b50613aac565b5060208310610133831016604e8410600b8410161715613a825782820a905083811115613a7d57613a7c613470565b5b613aac565b613a8f8484846001613990565b92509050818404811115613aa657613aa5613470565b5b81810290505b9392505050565b5f60ff82169050919050565b5f613ac9826127ea565b9150613ad483613ab3565b9250613b017fffffffffffffffffffffffffffffffffffffffffffffffffffffffffffffffff84846139e2565b905092915050565b7f6d7574695f7369676e206973207a65726f2061646472657373730000000000005f82015250565b5f613b3d601a8361312f565b9150613b4882613b09565b602082019050919050565b5f6020820190508181035f830152613b6a81613b31565b9050919050565b5f613b7b826127ea565b9150613b86836127ea565b9250828202613b94816127ea565b91508282048414831517613bab57613baa613470565b5b5092915050565b5f613bbc826127ea565b9150613bc7836127ea565b9250828201905080821115613bdf57613bde613470565b5b92915050565b5f613bef826127ea565b9150613bfa836127ea565b9250828203905081811115613c1257613c11613470565b5b92915050565b7f4e487b71000000000000000000000000000000000000000000000000000000005f52601260045260245ffd5b5f613c4f826127ea565b9150613c5a836127ea565b925082613c6a57613c69613c18565b5b828204905092915050565b5f819050919050565b613c8781613c75565b82525050565b5f602082019050613ca05f830184613c7e565b92915050565b613caf81613ab3565b82525050565b5f608082019050613cc85f830187613c7e565b613cd56020830186613ca6565b613ce26040830185613c7e565b613cef6060830184613c7e565b9594505050505056fea2646970667358221220480f6fcc2f9ed47352a413b819ff05441e2cfd69c0aee52c95538a9732ce3e5564736f6c63430008140033",
					"opcodes": "PUSH1 0x80 PUSH1 0x40 MSTORE PUSH1 0xA PUSH1 0x1 SSTORE PUSH1 0x4 PUSH1 0x2 SSTORE PUSH1 0x2 PUSH1 0x3 SSTORE PUSH1 0x4 DUP1 SSTORE PUSH20 0x96216849C49358B10257CB55B28EA603C874B05E PUSH1 0x6 PUSH0 PUSH2 0x100 EXP DUP2 SLOAD DUP2 PUSH20 0xFFFFFFFFFFFFFFFFFFFFFFFFFFFFFFFFFFFFFFFF MUL NOT AND SWAP1 DUP4 PUSH20 0xFFFFFFFFFFFFFFFFFFFFFFFFFFFFFFFFFFFFFFFF AND MUL OR SWAP1 SSTORE POP CALLVALUE DUP1 ISZERO PUSH3 0x77 JUMPI PUSH0 DUP1 REVERT JUMPDEST POP CALLER PUSH0 PUSH20 0xFFFFFFFFFFFFFFFFFFFFFFFFFFFFFFFFFFFFFFFF AND DUP2 PUSH20 0xFFFFFFFFFFFFFFFFFFFFFFFFFFFFFFFFFFFFFFFF AND SUB PUSH3 0xEC JUMPI PUSH0 PUSH1 0x40 MLOAD PUSH32 0x1E4FBDF700000000000000000000000000000000000000000000000000000000 DUP2 MSTORE PUSH1 0x4 ADD PUSH3 0xE3 SWAP2 SWAP1 PUSH3 0x248 JUMP JUMPDEST PUSH1 0x40 MLOAD DUP1 SWAP2 SUB SWAP1 REVERT JUMPDEST PUSH3 0xFD DUP2 PUSH3 0x144 PUSH1 0x20 SHL PUSH1 0x20 SHR JUMP JUMPDEST POP CALLER PUSH1 0xC PUSH0 PUSH2 0x100 EXP DUP2 SLOAD DUP2 PUSH20 0xFFFFFFFFFFFFFFFFFFFFFFFFFFFFFFFFFFFFFFFF MUL NOT AND SWAP1 DUP4 PUSH20 0xFFFFFFFFFFFFFFFFFFFFFFFFFFFFFFFFFFFFFFFF AND MUL OR SWAP1 SSTORE POP PUSH3 0x263 JUMP JUMPDEST PUSH0 DUP1 PUSH0 SWAP1 SLOAD SWAP1 PUSH2 0x100 EXP SWAP1 DIV PUSH20 0xFFFFFFFFFFFFFFFFFFFFFFFFFFFFFFFFFFFFFFFF AND SWAP1 POP DUP2 PUSH0 DUP1 PUSH2 0x100 EXP DUP2 SLOAD DUP2 PUSH20 0xFFFFFFFFFFFFFFFFFFFFFFFFFFFFFFFFFFFFFFFF MUL NOT AND SWAP1 DUP4 PUSH20 0xFFFFFFFFFFFFFFFFFFFFFFFFFFFFFFFFFFFFFFFF AND MUL OR SWAP1 SSTORE POP DUP2 PUSH20 0xFFFFFFFFFFFFFFFFFFFFFFFFFFFFFFFFFFFFFFFF AND DUP2 PUSH20 0xFFFFFFFFFFFFFFFFFFFFFFFFFFFFFFFFFFFFFFFF AND PUSH32 0x8BE0079C531659141344CD1FD0A4F28419497F9722A3DAAFE3B4186F6B6457E0 PUSH1 0x40 MLOAD PUSH1 0x40 MLOAD DUP1 SWAP2 SUB SWAP1 LOG3 POP POP JUMP JUMPDEST PUSH0 PUSH20 0xFFFFFFFFFFFFFFFFFFFFFFFFFFFFFFFFFFFFFFFF DUP3 AND SWAP1 POP SWAP2 SWAP1 POP JUMP JUMPDEST PUSH0 PUSH3 0x230 DUP3 PUSH3 0x205 JUMP JUMPDEST SWAP1 POP SWAP2 SWAP1 POP JUMP JUMPDEST PUSH3 0x242 DUP2 PUSH3 0x224 JUMP JUMPDEST DUP3 MSTORE POP POP JUMP JUMPDEST PUSH0 PUSH1 0x20 DUP3 ADD SWAP1 POP PUSH3 0x25D PUSH0 DUP4 ADD DUP5 PUSH3 0x237 JUMP JUMPDEST SWAP3 SWAP2 POP POP JUMP JUMPDEST PUSH2 0x3D2E DUP1 PUSH3 0x271 PUSH0 CODECOPY PUSH0 RETURN INVALID PUSH1 0x80 PUSH1 0x40 MSTORE PUSH1 0x4 CALLDATASIZE LT PUSH2 0x1CC JUMPI PUSH0 CALLDATALOAD PUSH1 0xE0 SHR DUP1 PUSH4 0x73DB533D GT PUSH2 0xF6 JUMPI DUP1 PUSH4 0xB9844D8D GT PUSH2 0x94 JUMPI DUP1 PUSH4 0xCC9D1974 GT PUSH2 0x63 JUMPI DUP1 PUSH4 0xCC9D1974 EQ PUSH2 0x66B JUMPI DUP1 PUSH4 0xDE2FE26A EQ PUSH2 0x693 JUMPI DUP1 PUSH4 0xE20F7997 EQ PUSH2 0x6D0 JUMPI DUP1 PUSH4 0xF2FDE38B EQ PUSH2 0x6FA JUMPI PUSH2 0x1CC JUMP JUMPDEST DUP1 PUSH4 0xB9844D8D EQ PUSH2 0x59F JUMPI DUP1 PUSH4 0xBA7D5BFD EQ PUSH2 0x5DB JUMPI DUP1 PUSH4 0xC5695AEF EQ PUSH2 0x605 JUMPI DUP1 PUSH4 0xC724940F EQ PUSH2 0x641 JUMPI PUSH2 0x1CC JUMP JUMPDEST DUP1 PUSH4 0x8DA5CB5B GT PUSH2 0xD0 JUMPI DUP1 PUSH4 0x8DA5CB5B EQ PUSH2 0x507 JUMPI DUP1 PUSH4 0x909AA42A EQ PUSH2 0x531 JUMPI DUP1 PUSH4 0xAD006B2F EQ PUSH2 0x54D JUMPI DUP1 PUSH4 0xB791FD9F EQ PUSH2 0x575 JUMPI PUSH2 0x1CC JUMP JUMPDEST DUP1 PUSH4 0x73DB533D EQ PUSH2 0x48B JUMPI DUP1 PUSH4 0x8690E716 EQ PUSH2 0x4B5 JUMPI DUP1 PUSH4 0x86BDE413 EQ PUSH2 0x4DF JUMPI PUSH2 0x1CC JUMP JUMPDEST DUP1 PUSH4 0x30762AF7 GT PUSH2 0x16E JUMPI DUP1 PUSH4 0x5085D4D8 GT PUSH2 0x13D JUMPI DUP1 PUSH4 0x5085D4D8 EQ PUSH2 0x3E7 JUMPI DUP1 PUSH4 0x51C651A8 EQ PUSH2 0x411 JUMPI DUP1 PUSH4 0x52A13A56 EQ PUSH2 0x439 JUMPI DUP1 PUSH4 0x715018A6 EQ PUSH2 0x475 JUMPI PUSH2 0x1CC JUMP JUMPDEST DUP1 PUSH4 0x30762AF7 EQ PUSH2 0x31A JUMPI DUP1 PUSH4 0x3BEAB570 EQ PUSH2 0x356 JUMPI DUP1 PUSH4 0x44ED635A EQ PUSH2 0x380 JUMPI DUP1 PUSH4 0x473D833C EQ PUSH2 0x3AA JUMPI PUSH2 0x1CC JUMP JUMPDEST DUP1 PUSH4 0x116643C5 GT PUSH2 0x1AA JUMPI DUP1 PUSH4 0x116643C5 EQ PUSH2 0x252 JUMPI DUP1 PUSH4 0x1B4F7E28 EQ PUSH2 0x27A JUMPI DUP1 PUSH4 0x20B638B8 EQ PUSH2 0x2B6 JUMPI DUP1 PUSH4 0x2BE32D32 EQ PUSH2 0x2F2 JUMPI PUSH2 0x1CC JUMP JUMPDEST DUP1 PUSH4 0xB775510 EQ PUSH2 0x1D0 JUMPI DUP1 PUSH4 0xF09E5E2 EQ PUSH2 0x1FA JUMPI DUP1 PUSH4 0x10225B48 EQ PUSH2 0x22A JUMPI JUMPDEST PUSH0 DUP1 REVERT JUMPDEST CALLVALUE DUP1 ISZERO PUSH2 0x1DB JUMPI PUSH0 DUP1 REVERT JUMPDEST POP PUSH2 0x1E4 PUSH2 0x722 JUMP JUMPDEST PUSH1 0x40 MLOAD PUSH2 0x1F1 SWAP2 SWAP1 PUSH2 0x2802 JUMP JUMPDEST PUSH1 0x40 MLOAD DUP1 SWAP2 SUB SWAP1 RETURN JUMPDEST PUSH2 0x214 PUSH1 0x4 DUP1 CALLDATASIZE SUB DUP2 ADD SWAP1 PUSH2 0x20F SWAP2 SWAP1 PUSH2 0x2992 JUMP JUMPDEST PUSH2 0x728 JUMP JUMPDEST PUSH1 0x40 MLOAD PUSH2 0x221 SWAP2 SWAP1 PUSH2 0x2A06 JUMP JUMPDEST PUSH1 0x40 MLOAD DUP1 SWAP2 SUB SWAP1 RETURN JUMPDEST CALLVALUE DUP1 ISZERO PUSH2 0x235 JUMPI PUSH0 DUP1 REVERT JUMPDEST POP PUSH2 0x250 PUSH1 0x4 DUP1 CALLDATASIZE SUB DUP2 ADD SWAP1 PUSH2 0x24B SWAP2 SWAP1 PUSH2 0x2B34 JUMP JUMPDEST PUSH2 0xA8F JUMP JUMPDEST STOP JUMPDEST CALLVALUE DUP1 ISZERO PUSH2 0x25D JUMPI PUSH0 DUP1 REVERT JUMPDEST POP PUSH2 0x278 PUSH1 0x4 DUP1 CALLDATASIZE SUB DUP2 ADD SWAP1 PUSH2 0x273 SWAP2 SWAP1 PUSH2 0x2BAA JUMP JUMPDEST PUSH2 0xDE8 JUMP JUMPDEST STOP JUMPDEST CALLVALUE DUP1 ISZERO PUSH2 0x285 JUMPI PUSH0 DUP1 REVERT JUMPDEST POP PUSH2 0x2A0 PUSH1 0x4 DUP1 CALLDATASIZE SUB DUP2 ADD SWAP1 PUSH2 0x29B SWAP2 SWAP1 PUSH2 0x2BFA JUMP JUMPDEST PUSH2 0xE3B JUMP JUMPDEST PUSH1 0x40 MLOAD PUSH2 0x2AD SWAP2 SWAP1 PUSH2 0x2CBB JUMP JUMPDEST PUSH1 0x40 MLOAD DUP1 SWAP2 SUB SWAP1 RETURN JUMPDEST CALLVALUE DUP1 ISZERO PUSH2 0x2C1 JUMPI PUSH0 DUP1 REVERT JUMPDEST POP PUSH2 0x2DC PUSH1 0x4 DUP1 CALLDATASIZE SUB DUP2 ADD SWAP1 PUSH2 0x2D7 SWAP2 SWAP1 PUSH2 0x2DD3 JUMP JUMPDEST PUSH2 0xE8F JUMP JUMPDEST PUSH1 0x40 MLOAD PUSH2 0x2E9 SWAP2 SWAP1 PUSH2 0x2802 JUMP JUMPDEST PUSH1 0x40 MLOAD DUP1 SWAP2 SUB SWAP1 RETURN JUMPDEST CALLVALUE DUP1 ISZERO PUSH2 0x2FD JUMPI PUSH0 DUP1 REVERT JUMPDEST POP PUSH2 0x318 PUSH1 0x4 DUP1 CALLDATASIZE SUB DUP2 ADD SWAP1 PUSH2 0x313 SWAP2 SWAP1 PUSH2 0x2992 JUMP JUMPDEST PUSH2 0xEC7 JUMP JUMPDEST STOP JUMPDEST CALLVALUE DUP1 ISZERO PUSH2 0x325 JUMPI PUSH0 DUP1 REVERT JUMPDEST POP PUSH2 0x340 PUSH1 0x4 DUP1 CALLDATASIZE SUB DUP2 ADD SWAP1 PUSH2 0x33B SWAP2 SWAP1 PUSH2 0x2E2D JUMP JUMPDEST PUSH2 0x11AC JUMP JUMPDEST PUSH1 0x40 MLOAD PUSH2 0x34D SWAP2 SWAP1 PUSH2 0x2802 JUMP JUMPDEST PUSH1 0x40 MLOAD DUP1 SWAP2 SUB SWAP1 RETURN JUMPDEST CALLVALUE DUP1 ISZERO PUSH2 0x361 JUMPI PUSH0 DUP1 REVERT JUMPDEST POP PUSH2 0x36A PUSH2 0x1217 JUMP JUMPDEST PUSH1 0x40 MLOAD PUSH2 0x377 SWAP2 SWAP1 PUSH2 0x2802 JUMP JUMPDEST PUSH1 0x40 MLOAD DUP1 SWAP2 SUB SWAP1 RETURN JUMPDEST CALLVALUE DUP1 ISZERO PUSH2 0x38B JUMPI PUSH0 DUP1 REVERT JUMPDEST POP PUSH2 0x394 PUSH2 0x121D JUMP JUMPDEST PUSH1 0x40 MLOAD PUSH2 0x3A1 SWAP2 SWAP1 PUSH2 0x2802 JUMP JUMPDEST PUSH1 0x40 MLOAD DUP1 SWAP2 SUB SWAP1 RETURN JUMPDEST CALLVALUE DUP1 ISZERO PUSH2 0x3B5 JUMPI PUSH0 DUP1 REVERT JUMPDEST POP PUSH2 0x3D0 PUSH1 0x4 DUP1 CALLDATASIZE SUB DUP2 ADD SWAP1 PUSH2 0x3CB SWAP2 SWAP1 PUSH2 0x2992 JUMP JUMPDEST PUSH2 0x1228 JUMP JUMPDEST PUSH1 0x40 MLOAD PUSH2 0x3DE SWAP3 SWAP2 SWAP1 PUSH2 0x2E87 JUMP JUMPDEST PUSH1 0x40 MLOAD DUP1 SWAP2 SUB SWAP1 RETURN JUMPDEST CALLVALUE DUP1 ISZERO PUSH2 0x3F2 JUMPI PUSH0 DUP1 REVERT JUMPDEST POP PUSH2 0x3FB PUSH2 0x12C4 JUMP JUMPDEST PUSH1 0x40 MLOAD PUSH2 0x408 SWAP2 SWAP1 PUSH2 0x2802 JUMP JUMPDEST PUSH1 0x40 MLOAD DUP1 SWAP2 SUB SWAP1 RETURN JUMPDEST CALLVALUE DUP1 ISZERO PUSH2 0x41C JUMPI PUSH0 DUP1 REVERT JUMPDEST POP PUSH2 0x437 PUSH1 0x4 DUP1 CALLDATASIZE SUB DUP2 ADD SWAP1 PUSH2 0x432 SWAP2 SWAP1 PUSH2 0x2FBB JUMP JUMPDEST PUSH2 0x12C9 JUMP JUMPDEST STOP JUMPDEST CALLVALUE DUP1 ISZERO PUSH2 0x444 JUMPI PUSH0 DUP1 REVERT JUMPDEST POP PUSH2 0x45F PUSH1 0x4 DUP1 CALLDATASIZE SUB DUP2 ADD SWAP1 PUSH2 0x45A SWAP2 SWAP1 PUSH2 0x3002 JUMP JUMPDEST PUSH2 0x134B JUMP JUMPDEST PUSH1 0x40 MLOAD PUSH2 0x46C SWAP2 SWAP1 PUSH2 0x2802 JUMP JUMPDEST PUSH1 0x40 MLOAD DUP1 SWAP2 SUB SWAP1 RETURN JUMPDEST CALLVALUE DUP1 ISZERO PUSH2 0x480 JUMPI PUSH0 DUP1 REVERT JUMPDEST POP PUSH2 0x489 PUSH2 0x1360 JUMP JUMPDEST STOP JUMPDEST CALLVALUE DUP1 ISZERO PUSH2 0x496 JUMPI PUSH0 DUP1 REVERT JUMPDEST POP PUSH2 0x49F PUSH2 0x1373 JUMP JUMPDEST PUSH1 0x40 MLOAD PUSH2 0x4AC SWAP2 SWAP1 PUSH2 0x303C JUMP JUMPDEST PUSH1 0x40 MLOAD DUP1 SWAP2 SUB SWAP1 RETURN JUMPDEST CALLVALUE DUP1 ISZERO PUSH2 0x4C0 JUMPI PUSH0 DUP1 REVERT JUMPDEST POP PUSH2 0x4C9 PUSH2 0x1398 JUMP JUMPDEST PUSH1 0x40 MLOAD PUSH2 0x4D6 SWAP2 SWAP1 PUSH2 0x2802 JUMP JUMPDEST PUSH1 0x40 MLOAD DUP1 SWAP2 SUB SWAP1 RETURN JUMPDEST CALLVALUE DUP1 ISZERO PUSH2 0x4EA JUMPI PUSH0 DUP1 REVERT JUMPDEST POP PUSH2 0x505 PUSH1 0x4 DUP1 CALLDATASIZE SUB DUP2 ADD SWAP1 PUSH2 0x500 SWAP2 SWAP1 PUSH2 0x2BFA JUMP JUMPDEST PUSH2 0x139F JUMP JUMPDEST STOP JUMPDEST CALLVALUE DUP1 ISZERO PUSH2 0x512 JUMPI PUSH0 DUP1 REVERT JUMPDEST POP PUSH2 0x51B PUSH2 0x15B6 JUMP JUMPDEST PUSH1 0x40 MLOAD PUSH2 0x528 SWAP2 SWAP1 PUSH2 0x303C JUMP JUMPDEST PUSH1 0x40 MLOAD DUP1 SWAP2 SUB SWAP1 RETURN JUMPDEST PUSH2 0x54B PUSH1 0x4 DUP1 CALLDATASIZE SUB DUP2 ADD SWAP1 PUSH2 0x546 SWAP2 SWAP1 PUSH2 0x2992 JUMP JUMPDEST PUSH2 0x15DD JUMP JUMPDEST STOP JUMPDEST CALLVALUE DUP1 ISZERO PUSH2 0x558 JUMPI PUSH0 DUP1 REVERT JUMPDEST POP PUSH2 0x573 PUSH1 0x4 DUP1 CALLDATASIZE SUB DUP2 ADD SWAP1 PUSH2 0x56E SWAP2 SWAP1 PUSH2 0x3055 JUMP JUMPDEST PUSH2 0x18B1 JUMP JUMPDEST STOP JUMPDEST CALLVALUE DUP1 ISZERO PUSH2 0x580 JUMPI PUSH0 DUP1 REVERT JUMPDEST POP PUSH2 0x589 PUSH2 0x1BD2 JUMP JUMPDEST PUSH1 0x40 MLOAD PUSH2 0x596 SWAP2 SWAP1 PUSH2 0x30EB JUMP JUMPDEST PUSH1 0x40 MLOAD DUP1 SWAP2 SUB SWAP1 RETURN JUMPDEST CALLVALUE DUP1 ISZERO PUSH2 0x5AA JUMPI PUSH0 DUP1 REVERT JUMPDEST POP PUSH2 0x5C5 PUSH1 0x4 DUP1 CALLDATASIZE SUB DUP2 ADD SWAP1 PUSH2 0x5C0 SWAP2 SWAP1 PUSH2 0x3104 JUMP JUMPDEST PUSH2 0x1BF7 JUMP JUMPDEST PUSH1 0x40 MLOAD PUSH2 0x5D2 SWAP2 SWAP1 PUSH2 0x2802 JUMP JUMPDEST PUSH1 0x40 MLOAD DUP1 SWAP2 SUB SWAP1 RETURN JUMPDEST CALLVALUE DUP1 ISZERO PUSH2 0x5E6 JUMPI PUSH0 DUP1 REVERT JUMPDEST POP PUSH2 0x5EF PUSH2 0x1C0C JUMP JUMPDEST PUSH1 0x40 MLOAD PUSH2 0x5FC SWAP2 SWAP1 PUSH2 0x2802 JUMP JUMPDEST PUSH1 0x40 MLOAD DUP1 SWAP2 SUB SWAP1 RETURN JUMPDEST CALLVALUE DUP1 ISZERO PUSH2 0x610 JUMPI PUSH0 DUP1 REVERT JUMPDEST POP PUSH2 0x62B PUSH1 0x4 DUP1 CALLDATASIZE SUB DUP2 ADD SWAP1 PUSH2 0x626 SWAP2 SWAP1 PUSH2 0x3002 JUMP JUMPDEST PUSH2 0x1C12 JUMP JUMPDEST PUSH1 0x40 MLOAD PUSH2 0x638 SWAP2 SWAP1 PUSH2 0x2802 JUMP JUMPDEST PUSH1 0x40 MLOAD DUP1 SWAP2 SUB SWAP1 RETURN JUMPDEST CALLVALUE DUP1 ISZERO PUSH2 0x64C JUMPI PUSH0 DUP1 REVERT JUMPDEST POP PUSH2 0x655 PUSH2 0x1C76 JUMP JUMPDEST PUSH1 0x40 MLOAD PUSH2 0x662 SWAP2 SWAP1 PUSH2 0x2802 JUMP JUMPDEST PUSH1 0x40 MLOAD DUP1 SWAP2 SUB SWAP1 RETURN JUMPDEST CALLVALUE DUP1 ISZERO PUSH2 0x676 JUMPI PUSH0 DUP1 REVERT JUMPDEST POP PUSH2 0x691 PUSH1 0x4 DUP1 CALLDATASIZE SUB DUP2 ADD SWAP1 PUSH2 0x68C SWAP2 SWAP1 PUSH2 0x3104 JUMP JUMPDEST PUSH2 0x1C7C JUMP JUMPDEST STOP JUMPDEST CALLVALUE DUP1 ISZERO PUSH2 0x69E JUMPI PUSH0 DUP1 REVERT JUMPDEST POP PUSH2 0x6B9 PUSH1 0x4 DUP1 CALLDATASIZE SUB DUP2 ADD SWAP1 PUSH2 0x6B4 SWAP2 SWAP1 PUSH2 0x2992 JUMP JUMPDEST PUSH2 0x1D35 JUMP JUMPDEST PUSH1 0x40 MLOAD PUSH2 0x6C7 SWAP3 SWAP2 SWAP1 PUSH2 0x2E87 JUMP JUMPDEST PUSH1 0x40 MLOAD DUP1 SWAP2 SUB SWAP1 RETURN JUMPDEST CALLVALUE DUP1 ISZERO PUSH2 0x6DB JUMPI PUSH0 DUP1 REVERT JUMPDEST POP PUSH2 0x6E4 PUSH2 0x1DD1 JUMP JUMPDEST PUSH1 0x40 MLOAD PUSH2 0x6F1 SWAP2 SWAP1 PUSH2 0x2802 JUMP JUMPDEST PUSH1 0x40 MLOAD DUP1 SWAP2 SUB SWAP1 RETURN JUMPDEST CALLVALUE DUP1 ISZERO PUSH2 0x705 JUMPI PUSH0 DUP1 REVERT JUMPDEST POP PUSH2 0x720 PUSH1 0x4 DUP1 CALLDATASIZE SUB DUP2 ADD SWAP1 PUSH2 0x71B SWAP2 SWAP1 PUSH2 0x3104 JUMP JUMPDEST PUSH2 0x1DDC JUMP JUMPDEST STOP JUMPDEST PUSH1 0x4 SLOAD DUP2 JUMP JUMPDEST PUSH0 CALLER PUSH20 0xFFFFFFFFFFFFFFFFFFFFFFFFFFFFFFFFFFFFFFFF AND ORIGIN PUSH20 0xFFFFFFFFFFFFFFFFFFFFFFFFFFFFFFFFFFFFFFFF AND EQ PUSH2 0x797 JUMPI PUSH1 0x40 MLOAD PUSH32 0x8C379A000000000000000000000000000000000000000000000000000000000 DUP2 MSTORE PUSH1 0x4 ADD PUSH2 0x78E SWAP1 PUSH2 0x3189 JUMP JUMPDEST PUSH1 0x40 MLOAD DUP1 SWAP2 SUB SWAP1 REVERT JUMPDEST PUSH0 PUSH2 0x7A1 DUP5 PUSH2 0xE3B JUMP JUMPDEST SWAP1 POP TIMESTAMP PUSH1 0x8 DUP3 PUSH1 0x40 MLOAD PUSH2 0x7B4 SWAP2 SWAP1 PUSH2 0x31E1 JUMP JUMPDEST SWAP1 DUP2 MSTORE PUSH1 0x20 ADD PUSH1 0x40 MLOAD DUP1 SWAP2 SUB SWAP1 KECCAK256 PUSH1 0x1 ADD SLOAD LT ISZERO PUSH2 0x807 JUMPI PUSH1 0x40 MLOAD PUSH32 0x8C379A000000000000000000000000000000000000000000000000000000000 DUP2 MSTORE PUSH1 0x4 ADD PUSH2 0x7FE SWAP1 PUSH2 0x3241 JUMP JUMPDEST PUSH1 0x40 MLOAD DUP1 SWAP2 SUB SWAP1 REVERT JUMPDEST PUSH0 DUP4 GT PUSH2 0x849 JUMPI PUSH1 0x40 MLOAD PUSH32 0x8C379A000000000000000000000000000000000000000000000000000000000 DUP2 MSTORE PUSH1 0x4 ADD PUSH2 0x840 SWAP1 PUSH2 0x32A9 JUMP JUMPDEST PUSH1 0x40 MLOAD DUP1 SWAP2 SUB SWAP1 REVERT JUMPDEST CALLVALUE PUSH2 0x87D PUSH7 0x38D7EA4C68000 PUSH2 0x86F PUSH7 0x2386F26FC10000 DUP8 PUSH2 0x1E60 SWAP1 SWAP2 SWAP1 PUSH4 0xFFFFFFFF AND JUMP JUMPDEST PUSH2 0x1E75 SWAP1 SWAP2 SWAP1 PUSH4 0xFFFFFFFF AND JUMP JUMPDEST LT ISZERO PUSH2 0x8BE JUMPI PUSH1 0x40 MLOAD PUSH32 0x8C379A000000000000000000000000000000000000000000000000000000000 DUP2 MSTORE PUSH1 0x4 ADD PUSH2 0x8B5 SWAP1 PUSH2 0x3311 JUMP JUMPDEST PUSH1 0x40 MLOAD DUP1 SWAP2 SUB SWAP1 REVERT JUMPDEST PUSH1 0x9 DUP2 PUSH1 0x40 MLOAD PUSH2 0x8CE SWAP2 SWAP1 PUSH2 0x31E1 JUMP JUMPDEST SWAP1 DUP2 MSTORE PUSH1 0x20 ADD PUSH1 0x40 MLOAD DUP1 SWAP2 SUB SWAP1 KECCAK256 PUSH1 0x40 MLOAD DUP1 PUSH1 0x60 ADD PUSH1 0x40 MSTORE DUP1 DUP6 DUP2 MSTORE PUSH1 0x20 ADD CALLER PUSH20 0xFFFFFFFFFFFFFFFFFFFFFFFFFFFFFFFFFFFFFFFF AND DUP2 MSTORE PUSH1 0x20 ADD PUSH0 ISZERO ISZERO DUP2 MSTORE POP SWAP1 DUP1 PUSH1 0x1 DUP2 SLOAD ADD DUP1 DUP3 SSTORE DUP1 SWAP2 POP POP PUSH1 0x1 SWAP1 SUB SWAP1 PUSH0 MSTORE PUSH1 0x20 PUSH0 KECCAK256 SWAP1 PUSH1 0x2 MUL ADD PUSH0 SWAP1 SWAP2 SWAP1 SWAP2 SWAP1 SWAP2 POP PUSH0 DUP3 ADD MLOAD DUP2 PUSH0 ADD SSTORE PUSH1 0x20 DUP3 ADD MLOAD DUP2 PUSH1 0x1 ADD PUSH0 PUSH2 0x100 EXP DUP2 SLOAD DUP2 PUSH20 0xFFFFFFFFFFFFFFFFFFFFFFFFFFFFFFFFFFFFFFFF MUL NOT AND SWAP1 DUP4 PUSH20 0xFFFFFFFFFFFFFFFFFFFFFFFFFFFFFFFFFFFFFFFF AND MUL OR SWAP1 SSTORE POP PUSH1 0x40 DUP3 ADD MLOAD DUP2 PUSH1 0x1 ADD PUSH1 0x14 PUSH2 0x100 EXP DUP2 SLOAD DUP2 PUSH1 0xFF MUL NOT AND SWAP1 DUP4 ISZERO ISZERO MUL OR SWAP1 SSTORE POP POP POP PUSH2 0x9D9 DUP4 PUSH1 0x8 DUP4 PUSH1 0x40 MLOAD PUSH2 0x9B9 SWAP2 SWAP1 PUSH2 0x31E1 JUMP JUMPDEST SWAP1 DUP2 MSTORE PUSH1 0x20 ADD PUSH1 0x40 MLOAD DUP1 SWAP2 SUB SWAP1 KECCAK256 PUSH1 0x2 ADD SLOAD PUSH2 0x1E75 SWAP1 SWAP2 SWAP1 PUSH4 0xFFFFFFFF AND JUMP JUMPDEST PUSH1 0x8 DUP3 PUSH1 0x40 MLOAD PUSH2 0x9E9 SWAP2 SWAP1 PUSH2 0x31E1 JUMP JUMPDEST SWAP1 DUP2 MSTORE PUSH1 0x20 ADD PUSH1 0x40 MLOAD DUP1 SWAP2 SUB SWAP1 KECCAK256 PUSH1 0x2 ADD DUP2 SWAP1 SSTORE POP CALLER PUSH20 0xFFFFFFFFFFFFFFFFFFFFFFFFFFFFFFFFFFFFFFFF AND PUSH32 0xDAC6F59B977DAFBCA4DA6315B0731C34083E85EAF92766691C987A5AB4468AEA DUP6 PUSH2 0xA6C PUSH1 0x1 PUSH1 0x9 DUP7 PUSH1 0x40 MLOAD PUSH2 0xA4C SWAP2 SWAP1 PUSH2 0x31E1 JUMP JUMPDEST SWAP1 DUP2 MSTORE PUSH1 0x20 ADD PUSH1 0x40 MLOAD DUP1 SWAP2 SUB SWAP1 KECCAK256 DUP1 SLOAD SWAP1 POP PUSH2 0x1E8A SWAP1 SWAP2 SWAP1 PUSH4 0xFFFFFFFF AND JUMP JUMPDEST DUP7 PUSH1 0x40 MLOAD PUSH2 0xA7C SWAP4 SWAP3 SWAP2 SWAP1 PUSH2 0x3371 JUMP JUMPDEST PUSH1 0x40 MLOAD DUP1 SWAP2 SUB SWAP1 LOG2 PUSH1 0x1 SWAP2 POP POP SWAP3 SWAP2 POP POP JUMP JUMPDEST PUSH2 0xA97 PUSH2 0x1E9F JUMP JUMPDEST PUSH0 PUSH2 0xAA1 DUP4 PUSH2 0xE3B JUMP JUMPDEST SWAP1 POP PUSH0 PUSH1 0x9 DUP3 PUSH1 0x40 MLOAD PUSH2 0xAB4 SWAP2 SWAP1 PUSH2 0x31E1 JUMP JUMPDEST SWAP1 DUP2 MSTORE PUSH1 0x20 ADD PUSH1 0x40 MLOAD DUP1 SWAP2 SUB SWAP1 KECCAK256 SWAP1 POP DUP3 MLOAD DUP2 DUP1 SLOAD SWAP1 POP LT PUSH2 0xDE2 JUMPI PUSH0 JUMPDEST DUP4 MLOAD DUP2 LT ISZERO PUSH2 0xDE0 JUMPI PUSH0 DUP5 DUP3 DUP2 MLOAD DUP2 LT PUSH2 0xAEF JUMPI PUSH2 0xAEE PUSH2 0x33AD JUMP JUMPDEST JUMPDEST PUSH1 0x20 MUL PUSH1 0x20 ADD ADD MLOAD SWAP1 POP PUSH0 DUP4 DUP3 PUSH0 ADD MLOAD DUP2 SLOAD DUP2 LT PUSH2 0xB10 JUMPI PUSH2 0xB0F PUSH2 0x33AD JUMP JUMPDEST JUMPDEST SWAP1 PUSH0 MSTORE PUSH1 0x20 PUSH0 KECCAK256 SWAP1 PUSH1 0x2 MUL ADD SWAP1 POP PUSH0 DUP3 PUSH1 0x20 ADD MLOAD GT DUP1 ISZERO PUSH2 0xB40 JUMPI POP DUP1 PUSH1 0x1 ADD PUSH1 0x14 SWAP1 SLOAD SWAP1 PUSH2 0x100 EXP SWAP1 DIV PUSH1 0xFF AND ISZERO JUMPDEST ISZERO PUSH2 0xCCA JUMPI DUP1 PUSH0 ADD SLOAD DUP3 PUSH1 0x20 ADD MLOAD GT ISZERO PUSH2 0xB8F JUMPI PUSH1 0x40 MLOAD PUSH32 0x8C379A000000000000000000000000000000000000000000000000000000000 DUP2 MSTORE PUSH1 0x4 ADD PUSH2 0xB86 SWAP1 PUSH2 0x3424 JUMP JUMPDEST PUSH1 0x40 MLOAD DUP1 SWAP2 SUB SWAP1 REVERT JUMPDEST PUSH1 0x1 DUP2 PUSH1 0x1 ADD PUSH1 0x14 PUSH2 0x100 EXP DUP2 SLOAD DUP2 PUSH1 0xFF MUL NOT AND SWAP1 DUP4 ISZERO ISZERO MUL OR SWAP1 SSTORE POP PUSH2 0xC3F DUP3 PUSH1 0x20 ADD MLOAD PUSH1 0x7 DUP8 PUSH1 0x40 MLOAD PUSH2 0xBC4 SWAP2 SWAP1 PUSH2 0x31E1 JUMP JUMPDEST SWAP1 DUP2 MSTORE PUSH1 0x20 ADD PUSH1 0x40 MLOAD DUP1 SWAP2 SUB SWAP1 KECCAK256 PUSH0 DUP5 PUSH1 0x1 ADD PUSH0 SWAP1 SLOAD SWAP1 PUSH2 0x100 EXP SWAP1 DIV PUSH20 0xFFFFFFFFFFFFFFFFFFFFFFFFFFFFFFFFFFFFFFFF AND PUSH20 0xFFFFFFFFFFFFFFFFFFFFFFFFFFFFFFFFFFFFFFFF AND PUSH20 0xFFFFFFFFFFFFFFFFFFFFFFFFFFFFFFFFFFFFFFFF AND DUP2 MSTORE PUSH1 0x20 ADD SWAP1 DUP2 MSTORE PUSH1 0x20 ADD PUSH0 KECCAK256 SLOAD PUSH2 0x1E75 SWAP1 SWAP2 SWAP1 PUSH4 0xFFFFFFFF AND JUMP JUMPDEST PUSH1 0x7 DUP7 PUSH1 0x40 MLOAD PUSH2 0xC4F SWAP2 SWAP1 PUSH2 0x31E1 JUMP JUMPDEST SWAP1 DUP2 MSTORE PUSH1 0x20 ADD PUSH1 0x40 MLOAD DUP1 SWAP2 SUB SWAP1 KECCAK256 PUSH0 DUP4 PUSH1 0x1 ADD PUSH0 SWAP1 SLOAD SWAP1 PUSH2 0x100 EXP SWAP1 DIV PUSH20 0xFFFFFFFFFFFFFFFFFFFFFFFFFFFFFFFFFFFFFFFF AND PUSH20 0xFFFFFFFFFFFFFFFFFFFFFFFFFFFFFFFFFFFFFFFF AND PUSH20 0xFFFFFFFFFFFFFFFFFFFFFFFFFFFFFFFFFFFFFFFF AND DUP2 MSTORE PUSH1 0x20 ADD SWAP1 DUP2 MSTORE PUSH1 0x20 ADD PUSH0 KECCAK256 DUP2 SWAP1 SSTORE POP PUSH2 0xCC9 DUP6 CALLER PUSH2 0x1F26 JUMP JUMPDEST JUMPDEST DUP2 PUSH1 0x20 ADD MLOAD DUP2 PUSH0 ADD SLOAD GT ISZERO PUSH2 0xD78 JUMPI PUSH0 PUSH2 0xD0D PUSH7 0x2386F26FC10000 PUSH2 0xCFF DUP6 PUSH1 0x20 ADD MLOAD DUP6 PUSH0 ADD SLOAD PUSH2 0x1E8A SWAP1 SWAP2 SWAP1 PUSH4 0xFFFFFFFF AND JUMP JUMPDEST PUSH2 0x1E60 SWAP1 SWAP2 SWAP1 PUSH4 0xFFFFFFFF AND JUMP JUMPDEST SWAP1 POP DUP2 PUSH1 0x1 ADD PUSH0 SWAP1 SLOAD SWAP1 PUSH2 0x100 EXP SWAP1 DIV PUSH20 0xFFFFFFFFFFFFFFFFFFFFFFFFFFFFFFFFFFFFFFFF AND PUSH20 0xFFFFFFFFFFFFFFFFFFFFFFFFFFFFFFFFFFFFFFFF AND PUSH2 0x8FC DUP3 SWAP1 DUP2 ISZERO MUL SWAP1 PUSH1 0x40 MLOAD PUSH0 PUSH1 0x40 MLOAD DUP1 DUP4 SUB DUP2 DUP6 DUP9 DUP9 CALL SWAP4 POP POP POP POP ISZERO DUP1 ISZERO PUSH2 0xD75 JUMPI RETURNDATASIZE PUSH0 DUP1 RETURNDATACOPY RETURNDATASIZE PUSH0 REVERT JUMPDEST POP POP JUMPDEST CALLER PUSH20 0xFFFFFFFFFFFFFFFFFFFFFFFFFFFFFFFFFFFFFFFF AND PUSH32 0x53FAE72DA401D34993DE5CB88D89B61921D9EA03B01CF315DCCB1F628547D05E DUP9 DUP5 PUSH0 ADD MLOAD PUSH1 0x40 MLOAD PUSH2 0xDC3 SWAP3 SWAP2 SWAP1 PUSH2 0x3442 JUMP JUMPDEST PUSH1 0x40 MLOAD DUP1 SWAP2 SUB SWAP1 LOG2 POP POP DUP1 DUP1 PUSH2 0xDD8 SWAP1 PUSH2 0x349D JUMP JUMPDEST SWAP2 POP POP PUSH2 0xAD2 JUMP JUMPDEST POP JUMPDEST POP POP POP POP JUMP JUMPDEST PUSH2 0xDF0 PUSH2 0x1E9F JUMP JUMPDEST DUP3 PUSH1 0x2 DUP2 SWAP1 SSTORE POP DUP2 PUSH1 0x3 DUP2 SWAP1 SSTORE POP DUP1 PUSH1 0x4 DUP2 SWAP1 SSTORE POP PUSH2 0xE30 PUSH1 0x4 SLOAD PUSH2 0xE22 PUSH1 0x3 SLOAD PUSH1 0x2 SLOAD PUSH2 0x1E75 SWAP1 SWAP2 SWAP1 PUSH4 0xFFFFFFFF AND JUMP JUMPDEST PUSH2 0x1E75 SWAP1 SWAP2 SWAP1 PUSH4 0xFFFFFFFF AND JUMP JUMPDEST PUSH1 0x1 DUP2 SWAP1 SSTORE POP POP POP POP JUMP JUMPDEST PUSH1 0x60 PUSH0 DUP3 SWAP1 POP PUSH1 0x20 DUP2 MLOAD GT ISZERO PUSH2 0xE86 JUMPI PUSH1 0x40 MLOAD PUSH32 0x8C379A000000000000000000000000000000000000000000000000000000000 DUP2 MSTORE PUSH1 0x4 ADD PUSH2 0xE7D SWAP1 PUSH2 0x3554 JUMP JUMPDEST PUSH1 0x40 MLOAD DUP1 SWAP2 SUB SWAP1 REVERT JUMPDEST DUP1 SWAP2 POP POP SWAP2 SWAP1 POP JUMP JUMPDEST PUSH1 0x7 DUP3 DUP1 MLOAD PUSH1 0x20 DUP2 ADD DUP3 ADD DUP1 MLOAD DUP5 DUP3 MSTORE PUSH1 0x20 DUP4 ADD PUSH1 0x20 DUP6 ADD KECCAK256 DUP2 DUP4 MSTORE DUP1 SWAP6 POP POP POP POP POP POP PUSH1 0x20 MSTORE DUP1 PUSH0 MSTORE PUSH1 0x40 PUSH0 KECCAK256 PUSH0 SWAP2 POP SWAP2 POP POP SLOAD DUP2 JUMP JUMPDEST CALLER PUSH20 0xFFFFFFFFFFFFFFFFFFFFFFFFFFFFFFFFFFFFFFFF AND ORIGIN PUSH20 0xFFFFFFFFFFFFFFFFFFFFFFFFFFFFFFFFFFFFFFFF AND EQ PUSH2 0xF35 JUMPI PUSH1 0x40 MLOAD PUSH32 0x8C379A000000000000000000000000000000000000000000000000000000000 DUP2 MSTORE PUSH1 0x4 ADD PUSH2 0xF2C SWAP1 PUSH2 0x3189 JUMP JUMPDEST PUSH1 0x40 MLOAD DUP1 SWAP2 SUB SWAP1 REVERT JUMPDEST PUSH0 DUP2 GT PUSH2 0xF77 JUMPI PUSH1 0x40 MLOAD PUSH32 0x8C379A000000000000000000000000000000000000000000000000000000000 DUP2 MSTORE PUSH1 0x4 ADD PUSH2 0xF6E SWAP1 PUSH2 0x35BC JUMP JUMPDEST PUSH1 0x40 MLOAD DUP1 SWAP2 SUB SWAP1 REVERT JUMPDEST PUSH0 PUSH2 0xF81 DUP4 PUSH2 0xE3B JUMP JUMPDEST SWAP1 POP DUP2 PUSH1 0x7 DUP3 PUSH1 0x40 MLOAD PUSH2 0xF94 SWAP2 SWAP1 PUSH2 0x31E1 JUMP JUMPDEST SWAP1 DUP2 MSTORE PUSH1 0x20 ADD PUSH1 0x40 MLOAD DUP1 SWAP2 SUB SWAP1 KECCAK256 PUSH0 CALLER PUSH20 0xFFFFFFFFFFFFFFFFFFFFFFFFFFFFFFFFFFFFFFFF AND PUSH20 0xFFFFFFFFFFFFFFFFFFFFFFFFFFFFFFFFFFFFFFFF AND DUP2 MSTORE PUSH1 0x20 ADD SWAP1 DUP2 MSTORE PUSH1 0x20 ADD PUSH0 KECCAK256 SLOAD LT ISZERO PUSH2 0x101F JUMPI PUSH1 0x40 MLOAD PUSH32 0x8C379A000000000000000000000000000000000000000000000000000000000 DUP2 MSTORE PUSH1 0x4 ADD PUSH2 0x1016 SWAP1 PUSH2 0x3624 JUMP JUMPDEST PUSH1 0x40 MLOAD DUP1 SWAP2 SUB SWAP1 REVERT JUMPDEST PUSH0 DUP1 PUSH2 0x102B DUP4 DUP6 PUSH2 0x20BE JUMP JUMPDEST SWAP2 POP SWAP2 POP PUSH2 0x109B DUP5 PUSH1 0x7 DUP6 PUSH1 0x40 MLOAD PUSH2 0x1043 SWAP2 SWAP1 PUSH2 0x31E1 JUMP JUMPDEST SWAP1 DUP2 MSTORE PUSH1 0x20 ADD PUSH1 0x40 MLOAD DUP1 SWAP2 SUB SWAP1 KECCAK256 PUSH0 CALLER PUSH20 0xFFFFFFFFFFFFFFFFFFFFFFFFFFFFFFFFFFFFFFFF AND PUSH20 0xFFFFFFFFFFFFFFFFFFFFFFFFFFFFFFFFFFFFFFFF AND DUP2 MSTORE PUSH1 0x20 ADD SWAP1 DUP2 MSTORE PUSH1 0x20 ADD PUSH0 KECCAK256 SLOAD PUSH2 0x1E8A SWAP1 SWAP2 SWAP1 PUSH4 0xFFFFFFFF AND JUMP JUMPDEST PUSH1 0x7 DUP5 PUSH1 0x40 MLOAD PUSH2 0x10AB SWAP2 SWAP1 PUSH2 0x31E1 JUMP JUMPDEST SWAP1 DUP2 MSTORE PUSH1 0x20 ADD PUSH1 0x40 MLOAD DUP1 SWAP2 SUB SWAP1 KECCAK256 PUSH0 CALLER PUSH20 0xFFFFFFFFFFFFFFFFFFFFFFFFFFFFFFFFFFFFFFFF AND PUSH20 0xFFFFFFFFFFFFFFFFFFFFFFFFFFFFFFFFFFFFFFFF AND DUP2 MSTORE PUSH1 0x20 ADD SWAP1 DUP2 MSTORE PUSH1 0x20 ADD PUSH0 KECCAK256 DUP2 SWAP1 SSTORE POP CALLER PUSH20 0xFFFFFFFFFFFFFFFFFFFFFFFFFFFFFFFFFFFFFFFF AND PUSH2 0x8FC PUSH2 0x1125 DUP4 DUP6 PUSH2 0x1E8A SWAP1 SWAP2 SWAP1 PUSH4 0xFFFFFFFF AND JUMP JUMPDEST SWAP1 DUP2 ISZERO MUL SWAP1 PUSH1 0x40 MLOAD PUSH0 PUSH1 0x40 MLOAD DUP1 DUP4 SUB DUP2 DUP6 DUP9 DUP9 CALL SWAP4 POP POP POP POP ISZERO DUP1 ISZERO PUSH2 0x114D JUMPI RETURNDATASIZE PUSH0 DUP1 RETURNDATACOPY RETURNDATASIZE PUSH0 REVERT JUMPDEST POP CALLER PUSH20 0xFFFFFFFFFFFFFFFFFFFFFFFFFFFFFFFFFFFFFFFF AND PUSH32 0xCF59E98E3586000B5AA777C573F007017DC33D0E7AEDC7FBDE92CC1CE233F20C DUP7 DUP5 DUP5 PUSH1 0x1 DUP10 PUSH1 0x40 MLOAD PUSH2 0x119D SWAP6 SWAP5 SWAP4 SWAP3 SWAP2 SWAP1 PUSH2 0x36B5 JUMP JUMPDEST PUSH1 0x40 MLOAD DUP1 SWAP2 SUB SWAP1 LOG2 POP POP POP POP POP JUMP JUMPDEST PUSH0 PUSH1 0x7 PUSH2 0x11B8 DUP5 PUSH2 0xE3B JUMP JUMPDEST PUSH1 0x40 MLOAD PUSH2 0x11C5 SWAP2 SWAP1 PUSH2 0x31E1 JUMP JUMPDEST SWAP1 DUP2 MSTORE PUSH1 0x20 ADD PUSH1 0x40 MLOAD DUP1 SWAP2 SUB SWAP1 KECCAK256 PUSH0 DUP4 PUSH20 0xFFFFFFFFFFFFFFFFFFFFFFFFFFFFFFFFFFFFFFFF AND PUSH20 0xFFFFFFFFFFFFFFFFFFFFFFFFFFFFFFFFFFFFFFFF AND DUP2 MSTORE PUSH1 0x20 ADD SWAP1 DUP2 MSTORE PUSH1 0x20 ADD PUSH0 KECCAK256 SLOAD SWAP1 POP SWAP3 SWAP2 POP POP JUMP JUMPDEST PUSH1 0x3 SLOAD DUP2 JUMP JUMPDEST PUSH7 0x2386F26FC10000 DUP2 JUMP JUMPDEST PUSH0 DUP1 CALLER PUSH20 0xFFFFFFFFFFFFFFFFFFFFFFFFFFFFFFFFFFFFFFFF AND ORIGIN PUSH20 0xFFFFFFFFFFFFFFFFFFFFFFFFFFFFFFFFFFFFFFFF AND EQ PUSH2 0x1298 JUMPI PUSH1 0x40 MLOAD PUSH32 0x8C379A000000000000000000000000000000000000000000000000000000000 DUP2 MSTORE PUSH1 0x4 ADD PUSH2 0x128F SWAP1 PUSH2 0x3189 JUMP JUMPDEST PUSH1 0x40 MLOAD DUP1 SWAP2 SUB SWAP1 REVERT JUMPDEST PUSH0 PUSH2 0x12A2 DUP6 PUSH2 0xE3B JUMP JUMPDEST SWAP1 POP PUSH0 DUP1 PUSH2 0x12B0 DUP4 DUP8 PUSH2 0x20BE JUMP JUMPDEST SWAP2 POP SWAP2 POP DUP2 DUP2 SWAP5 POP SWAP5 POP POP POP POP SWAP3 POP SWAP3 SWAP1 POP JUMP JUMPDEST PUSH1 0x64 DUP2 JUMP JUMPDEST PUSH2 0x12D1 PUSH2 0x1E9F JUMP JUMPDEST PUSH0 JUMPDEST DUP2 MLOAD DUP2 LT ISZERO PUSH2 0x1347 JUMPI PUSH0 DUP3 DUP3 DUP2 MLOAD DUP2 LT PUSH2 0x12F0 JUMPI PUSH2 0x12EF PUSH2 0x33AD JUMP JUMPDEST JUMPDEST PUSH1 0x20 MUL PUSH1 0x20 ADD ADD MLOAD SWAP1 POP PUSH1 0x64 DUP2 PUSH0 ADD MLOAD GT DUP1 ISZERO PUSH2 0x1310 JUMPI POP PUSH0 DUP2 PUSH1 0x20 ADD MLOAD GT JUMPDEST ISZERO PUSH2 0x1333 JUMPI DUP1 PUSH1 0x20 ADD MLOAD PUSH1 0xA PUSH0 DUP4 PUSH0 ADD MLOAD DUP2 MSTORE PUSH1 0x20 ADD SWAP1 DUP2 MSTORE PUSH1 0x20 ADD PUSH0 KECCAK256 DUP2 SWAP1 SSTORE POP JUMPDEST POP DUP1 DUP1 PUSH2 0x133F SWAP1 PUSH2 0x349D JUMP JUMPDEST SWAP2 POP POP PUSH2 0x12D3 JUMP JUMPDEST POP POP JUMP JUMPDEST PUSH1 0xA PUSH1 0x20 MSTORE DUP1 PUSH0 MSTORE PUSH1 0x40 PUSH0 KECCAK256 PUSH0 SWAP2 POP SWAP1 POP SLOAD DUP2 JUMP JUMPDEST PUSH2 0x1368 PUSH2 0x1E9F JUMP JUMPDEST PUSH2 0x1371 PUSH0 PUSH2 0x2291 JUMP JUMPDEST JUMP JUMPDEST PUSH1 0x6 PUSH0 SWAP1 SLOAD SWAP1 PUSH2 0x100 EXP SWAP1 DIV PUSH20 0xFFFFFFFFFFFFFFFFFFFFFFFFFFFFFFFFFFFFFFFF AND DUP2 JUMP JUMPDEST PUSH3 0x2A300 DUP2 JUMP JUMPDEST CALLER PUSH20 0xFFFFFFFFFFFFFFFFFFFFFFFFFFFFFFFFFFFFFFFF AND ORIGIN PUSH20 0xFFFFFFFFFFFFFFFFFFFFFFFFFFFFFFFFFFFFFFFF AND EQ PUSH2 0x140D JUMPI PUSH1 0x40 MLOAD PUSH32 0x8C379A000000000000000000000000000000000000000000000000000000000 DUP2 MSTORE PUSH1 0x4 ADD PUSH2 0x1404 SWAP1 PUSH2 0x3189 JUMP JUMPDEST PUSH1 0x40 MLOAD DUP1 SWAP2 SUB SWAP1 REVERT JUMPDEST PUSH0 PUSH2 0x1417 DUP3 PUSH2 0xE3B JUMP JUMPDEST SWAP1 POP PUSH0 PUSH1 0xB DUP3 PUSH1 0x40 MLOAD PUSH2 0x142A SWAP2 SWAP1 PUSH2 0x31E1 JUMP JUMPDEST SWAP1 DUP2 MSTORE PUSH1 0x20 ADD PUSH1 0x40 MLOAD DUP1 SWAP2 SUB SWAP1 KECCAK256 PUSH1 0x2 ADD PUSH0 CALLER PUSH20 0xFFFFFFFFFFFFFFFFFFFFFFFFFFFFFFFFFFFFFFFF AND PUSH20 0xFFFFFFFFFFFFFFFFFFFFFFFFFFFFFFFFFFFFFFFF AND DUP2 MSTORE PUSH1 0x20 ADD SWAP1 DUP2 MSTORE PUSH1 0x20 ADD PUSH0 KECCAK256 SLOAD SWAP1 POP PUSH0 DUP2 LT ISZERO PUSH2 0x14BC JUMPI PUSH1 0x40 MLOAD PUSH32 0x8C379A000000000000000000000000000000000000000000000000000000000 DUP2 MSTORE PUSH1 0x4 ADD PUSH2 0x14B3 SWAP1 PUSH2 0x3757 JUMP JUMPDEST PUSH1 0x40 MLOAD DUP1 SWAP2 SUB SWAP1 REVERT JUMPDEST PUSH0 PUSH1 0xB DUP4 PUSH1 0x40 MLOAD PUSH2 0x14CD SWAP2 SWAP1 PUSH2 0x31E1 JUMP JUMPDEST SWAP1 DUP2 MSTORE PUSH1 0x20 ADD PUSH1 0x40 MLOAD DUP1 SWAP2 SUB SWAP1 KECCAK256 PUSH1 0x2 ADD PUSH0 CALLER PUSH20 0xFFFFFFFFFFFFFFFFFFFFFFFFFFFFFFFFFFFFFFFF AND PUSH20 0xFFFFFFFFFFFFFFFFFFFFFFFFFFFFFFFFFFFFFFFF AND DUP2 MSTORE PUSH1 0x20 ADD SWAP1 DUP2 MSTORE PUSH1 0x20 ADD PUSH0 KECCAK256 DUP2 SWAP1 SSTORE POP CALLER PUSH20 0xFFFFFFFFFFFFFFFFFFFFFFFFFFFFFFFFFFFFFFFF AND PUSH2 0x8FC DUP3 SWAP1 DUP2 ISZERO MUL SWAP1 PUSH1 0x40 MLOAD PUSH0 PUSH1 0x40 MLOAD DUP1 DUP4 SUB DUP2 DUP6 DUP9 DUP9 CALL SWAP4 POP POP POP POP ISZERO DUP1 ISZERO PUSH2 0x1560 JUMPI RETURNDATASIZE PUSH0 DUP1 RETURNDATACOPY RETURNDATASIZE PUSH0 REVERT JUMPDEST POP CALLER PUSH20 0xFFFFFFFFFFFFFFFFFFFFFFFFFFFFFFFFFFFFFFFF AND PUSH32 0x26D73E0951876A99AA7C7D086FCCB9E7068F2D9F938EDC04F8A3C8006222ED30 DUP5 DUP4 PUSH1 0x40 MLOAD PUSH2 0x15A9 SWAP3 SWAP2 SWAP1 PUSH2 0x3442 JUMP JUMPDEST PUSH1 0x40 MLOAD DUP1 SWAP2 SUB SWAP1 LOG2 POP POP POP JUMP JUMPDEST PUSH0 DUP1 PUSH0 SWAP1 SLOAD SWAP1 PUSH2 0x100 EXP SWAP1 DIV PUSH20 0xFFFFFFFFFFFFFFFFFFFFFFFFFFFFFFFFFFFFFFFF AND SWAP1 POP SWAP1 JUMP JUMPDEST CALLER PUSH20 0xFFFFFFFFFFFFFFFFFFFFFFFFFFFFFFFFFFFFFFFF AND ORIGIN PUSH20 0xFFFFFFFFFFFFFFFFFFFFFFFFFFFFFFFFFFFFFFFF AND EQ PUSH2 0x164B JUMPI PUSH1 0x40 MLOAD PUSH32 0x8C379A000000000000000000000000000000000000000000000000000000000 DUP2 MSTORE PUSH1 0x4 ADD PUSH2 0x1642 SWAP1 PUSH2 0x3189 JUMP JUMPDEST PUSH1 0x40 MLOAD DUP1 SWAP2 SUB SWAP1 REVERT JUMPDEST PUSH0 DUP2 GT PUSH2 0x168D JUMPI PUSH1 0x40 MLOAD PUSH32 0x8C379A000000000000000000000000000000000000000000000000000000000 DUP2 MSTORE PUSH1 0x4 ADD PUSH2 0x1684 SWAP1 PUSH2 0x35BC JUMP JUMPDEST PUSH1 0x40 MLOAD DUP1 SWAP2 SUB SWAP1 REVERT JUMPDEST PUSH0 PUSH2 0x1697 DUP4 PUSH2 0xE3B JUMP JUMPDEST SWAP1 POP PUSH0 DUP1 PUSH2 0x16A5 DUP4 DUP6 PUSH2 0x2352 JUMP JUMPDEST SWAP2 POP SWAP2 POP PUSH2 0x16BC DUP2 DUP4 PUSH2 0x1E75 SWAP1 SWAP2 SWAP1 PUSH4 0xFFFFFFFF AND JUMP JUMPDEST CALLVALUE LT ISZERO PUSH2 0x16FE JUMPI PUSH1 0x40 MLOAD PUSH32 0x8C379A000000000000000000000000000000000000000000000000000000000 DUP2 MSTORE PUSH1 0x4 ADD PUSH2 0x16F5 SWAP1 PUSH2 0x37BF JUMP JUMPDEST PUSH1 0x40 MLOAD DUP1 SWAP2 SUB SWAP1 REVERT JUMPDEST PUSH2 0x1711 DUP2 DUP4 PUSH2 0x1E75 SWAP1 SWAP2 SWAP1 PUSH4 0xFFFFFFFF AND JUMP JUMPDEST CALLVALUE GT ISZERO PUSH2 0x1781 JUMPI CALLER PUSH20 0xFFFFFFFFFFFFFFFFFFFFFFFFFFFFFFFFFFFFFFFF AND PUSH2 0x8FC PUSH2 0x1757 PUSH2 0x1748 DUP5 DUP7 PUSH2 0x1E75 SWAP1 SWAP2 SWAP1 PUSH4 0xFFFFFFFF AND JUMP JUMPDEST CALLVALUE PUSH2 0x1E8A SWAP1 SWAP2 SWAP1 PUSH4 0xFFFFFFFF AND JUMP JUMPDEST SWAP1 DUP2 ISZERO MUL SWAP1 PUSH1 0x40 MLOAD PUSH0 PUSH1 0x40 MLOAD DUP1 DUP4 SUB DUP2 DUP6 DUP9 DUP9 CALL SWAP4 POP POP POP POP ISZERO DUP1 ISZERO PUSH2 0x177F JUMPI RETURNDATASIZE PUSH0 DUP1 RETURNDATACOPY RETURNDATASIZE PUSH0 REVERT JUMPDEST POP JUMPDEST PUSH2 0x178B DUP4 CALLER PUSH2 0x1F26 JUMP JUMPDEST PUSH2 0x17F7 DUP5 PUSH1 0x7 DUP6 PUSH1 0x40 MLOAD PUSH2 0x179F SWAP2 SWAP1 PUSH2 0x31E1 JUMP JUMPDEST SWAP1 DUP2 MSTORE PUSH1 0x20 ADD PUSH1 0x40 MLOAD DUP1 SWAP2 SUB SWAP1 KECCAK256 PUSH0 CALLER PUSH20 0xFFFFFFFFFFFFFFFFFFFFFFFFFFFFFFFFFFFFFFFF AND PUSH20 0xFFFFFFFFFFFFFFFFFFFFFFFFFFFFFFFFFFFFFFFF AND DUP2 MSTORE PUSH1 0x20 ADD SWAP1 DUP2 MSTORE PUSH1 0x20 ADD PUSH0 KECCAK256 SLOAD PUSH2 0x1E75 SWAP1 SWAP2 SWAP1 PUSH4 0xFFFFFFFF AND JUMP JUMPDEST PUSH1 0x7 DUP5 PUSH1 0x40 MLOAD PUSH2 0x1807 SWAP2 SWAP1 PUSH2 0x31E1 JUMP JUMPDEST SWAP1 DUP2 MSTORE PUSH1 0x20 ADD PUSH1 0x40 MLOAD DUP1 SWAP2 SUB SWAP1 KECCAK256 PUSH0 CALLER PUSH20 0xFFFFFFFFFFFFFFFFFFFFFFFFFFFFFFFFFFFFFFFF AND PUSH20 0xFFFFFFFFFFFFFFFFFFFFFFFFFFFFFFFFFFFFFFFF AND DUP2 MSTORE PUSH1 0x20 ADD SWAP1 DUP2 MSTORE PUSH1 0x20 ADD PUSH0 KECCAK256 DUP2 SWAP1 SSTORE POP CALLER PUSH20 0xFFFFFFFFFFFFFFFFFFFFFFFFFFFFFFFFFFFFFFFF AND PUSH32 0xCF59E98E3586000B5AA777C573F007017DC33D0E7AEDC7FBDE92CC1CE233F20C DUP7 DUP5 DUP5 PUSH0 DUP10 PUSH1 0x40 MLOAD PUSH2 0x18A2 SWAP6 SWAP5 SWAP4 SWAP3 SWAP2 SWAP1 PUSH2 0x36B5 JUMP JUMPDEST PUSH1 0x40 MLOAD DUP1 SWAP2 SUB SWAP1 LOG2 POP POP POP POP POP JUMP JUMPDEST CALLER PUSH20 0xFFFFFFFFFFFFFFFFFFFFFFFFFFFFFFFFFFFFFFFF AND ORIGIN PUSH20 0xFFFFFFFFFFFFFFFFFFFFFFFFFFFFFFFFFFFFFFFF AND EQ PUSH2 0x191F JUMPI PUSH1 0x40 MLOAD PUSH32 0x8C379A000000000000000000000000000000000000000000000000000000000 DUP2 MSTORE PUSH1 0x4 ADD PUSH2 0x1916 SWAP1 PUSH2 0x3189 JUMP JUMPDEST PUSH1 0x40 MLOAD DUP1 SWAP2 SUB SWAP1 REVERT JUMPDEST PUSH0 PUSH2 0x1929 DUP4 PUSH2 0xE3B JUMP JUMPDEST SWAP1 POP PUSH0 PUSH1 0x8 DUP3 PUSH1 0x40 MLOAD PUSH2 0x193C SWAP2 SWAP1 PUSH2 0x31E1 JUMP JUMPDEST SWAP1 DUP2 MSTORE PUSH1 0x20 ADD PUSH1 0x40 MLOAD DUP1 SWAP2 SUB SWAP1 KECCAK256 PUSH1 0x1 ADD SLOAD EQ PUSH2 0x198E JUMPI PUSH1 0x40 MLOAD PUSH32 0x8C379A000000000000000000000000000000000000000000000000000000000 DUP2 MSTORE PUSH1 0x4 ADD PUSH2 0x1985 SWAP1 PUSH2 0x3827 JUMP JUMPDEST PUSH1 0x40 MLOAD DUP1 SWAP2 SUB SWAP1 REVERT JUMPDEST PUSH0 CALLER DUP5 PUSH1 0x5 PUSH0 PUSH2 0x199C PUSH2 0x2489 JUMP JUMPDEST PUSH20 0xFFFFFFFFFFFFFFFFFFFFFFFFFFFFFFFFFFFFFFFF AND PUSH20 0xFFFFFFFFFFFFFFFFFFFFFFFFFFFFFFFFFFFFFFFF AND DUP2 MSTORE PUSH1 0x20 ADD SWAP1 DUP2 MSTORE PUSH1 0x20 ADD PUSH0 KECCAK256 SLOAD PUSH1 0x40 MLOAD PUSH1 0x20 ADD PUSH2 0x19E8 SWAP4 SWAP3 SWAP2 SWAP1 PUSH2 0x38E4 JUMP JUMPDEST PUSH1 0x40 MLOAD PUSH1 0x20 DUP2 DUP4 SUB SUB DUP2 MSTORE SWAP1 PUSH1 0x40 MSTORE DUP1 MLOAD SWAP1 PUSH1 0x20 ADD KECCAK256 SWAP1 POP PUSH1 0x6 PUSH0 SWAP1 SLOAD SWAP1 PUSH2 0x100 EXP SWAP1 DIV PUSH20 0xFFFFFFFFFFFFFFFFFFFFFFFFFFFFFFFFFFFFFFFF AND PUSH20 0xFFFFFFFFFFFFFFFFFFFFFFFFFFFFFFFFFFFFFFFF AND PUSH2 0x1A42 DUP3 DUP6 PUSH2 0x2490 JUMP JUMPDEST PUSH20 0xFFFFFFFFFFFFFFFFFFFFFFFFFFFFFFFFFFFFFFFF AND EQ PUSH2 0x1A98 JUMPI PUSH1 0x40 MLOAD PUSH32 0x8C379A000000000000000000000000000000000000000000000000000000000 DUP2 MSTORE PUSH1 0x4 ADD PUSH2 0x1A8F SWAP1 PUSH2 0x3966 JUMP JUMPDEST PUSH1 0x40 MLOAD DUP1 SWAP2 SUB SWAP1 REVERT JUMPDEST PUSH0 PUSH2 0x1AAF PUSH3 0x2A300 TIMESTAMP PUSH2 0x1E75 SWAP1 SWAP2 SWAP1 PUSH4 0xFFFFFFFF AND JUMP JUMPDEST SWAP1 POP PUSH1 0x40 MLOAD DUP1 PUSH1 0xA0 ADD PUSH1 0x40 MSTORE DUP1 CALLER PUSH20 0xFFFFFFFFFFFFFFFFFFFFFFFFFFFFFFFFFFFFFFFF AND DUP2 MSTORE PUSH1 0x20 ADD DUP3 DUP2 MSTORE PUSH1 0x20 ADD PUSH0 DUP2 MSTORE PUSH1 0x20 ADD PUSH0 DUP2 MSTORE PUSH1 0x20 ADD PUSH0 DUP2 MSTORE POP PUSH1 0x8 DUP5 PUSH1 0x40 MLOAD PUSH2 0x1AFE SWAP2 SWAP1 PUSH2 0x31E1 JUMP JUMPDEST SWAP1 DUP2 MSTORE PUSH1 0x20 ADD PUSH1 0x40 MLOAD DUP1 SWAP2 SUB SWAP1 KECCAK256 PUSH0 DUP3 ADD MLOAD DUP2 PUSH0 ADD PUSH0 PUSH2 0x100 EXP DUP2 SLOAD DUP2 PUSH20 0xFFFFFFFFFFFFFFFFFFFFFFFFFFFFFFFFFFFFFFFF MUL NOT AND SWAP1 DUP4 PUSH20 0xFFFFFFFFFFFFFFFFFFFFFFFFFFFFFFFFFFFFFFFF AND MUL OR SWAP1 SSTORE POP PUSH1 0x20 DUP3 ADD MLOAD DUP2 PUSH1 0x1 ADD SSTORE PUSH1 0x40 DUP3 ADD MLOAD DUP2 PUSH1 0x2 ADD SSTORE PUSH1 0x60 DUP3 ADD MLOAD DUP2 PUSH1 0x3 ADD SSTORE PUSH1 0x80 DUP3 ADD MLOAD DUP2 PUSH1 0x4 ADD SSTORE SWAP1 POP POP CALLER PUSH20 0xFFFFFFFFFFFFFFFFFFFFFFFFFFFFFFFFFFFFFFFF AND PUSH32 0xF126EC1FBB7D521827771BFB48EF46EB9059C22613C14D6C7E7FFE14D5B52F5 DUP7 DUP4 PUSH1 0x40 MLOAD PUSH2 0x1BC3 SWAP3 SWAP2 SWAP1 PUSH2 0x3442 JUMP JUMPDEST PUSH1 0x40 MLOAD DUP1 SWAP2 SUB SWAP1 LOG2 POP POP POP POP POP JUMP JUMPDEST PUSH1 0xC PUSH0 SWAP1 SLOAD SWAP1 PUSH2 0x100 EXP SWAP1 DIV PUSH20 0xFFFFFFFFFFFFFFFFFFFFFFFFFFFFFFFFFFFFFFFF AND DUP2 JUMP JUMPDEST PUSH1 0x5 PUSH1 0x20 MSTORE DUP1 PUSH0 MSTORE PUSH1 0x40 PUSH0 KECCAK256 PUSH0 SWAP2 POP SWAP1 POP SLOAD DUP2 JUMP JUMPDEST PUSH1 0x1 SLOAD DUP2 JUMP JUMPDEST PUSH0 PUSH2 0x1C6F PUSH6 0x5AF3107A4000 PUSH2 0x1C61 PUSH2 0x5DC PUSH2 0x1C53 PUSH1 0x5 PUSH2 0x1C45 PUSH2 0x1C40 PUSH1 0x5 DUP11 PUSH2 0x1C3B SWAP2 SWAP1 PUSH2 0x3ABF JUMP JUMPDEST PUSH2 0x24BA JUMP JUMPDEST PUSH2 0x24BA JUMP JUMPDEST PUSH2 0x1E60 SWAP1 SWAP2 SWAP1 PUSH4 0xFFFFFFFF AND JUMP JUMPDEST PUSH2 0x1E8A SWAP1 SWAP2 SWAP1 PUSH4 0xFFFFFFFF AND JUMP JUMPDEST PUSH2 0x1E60 SWAP1 SWAP2 SWAP1 PUSH4 0xFFFFFFFF AND JUMP JUMPDEST SWAP1 POP SWAP2 SWAP1 POP JUMP JUMPDEST PUSH1 0x2 SLOAD DUP2 JUMP JUMPDEST PUSH2 0x1C84 PUSH2 0x1E9F JUMP JUMPDEST DUP1 PUSH20 0xFFFFFFFFFFFFFFFFFFFFFFFFFFFFFFFFFFFFFFFF AND PUSH0 PUSH20 0xFFFFFFFFFFFFFFFFFFFFFFFFFFFFFFFFFFFFFFFF AND SUB PUSH2 0x1CF2 JUMPI PUSH1 0x40 MLOAD PUSH32 0x8C379A000000000000000000000000000000000000000000000000000000000 DUP2 MSTORE PUSH1 0x4 ADD PUSH2 0x1CE9 SWAP1 PUSH2 0x3B53 JUMP JUMPDEST PUSH1 0x40 MLOAD DUP1 SWAP2 SUB SWAP1 REVERT JUMPDEST DUP1 PUSH1 0xC PUSH0 PUSH2 0x100 EXP DUP2 SLOAD DUP2 PUSH20 0xFFFFFFFFFFFFFFFFFFFFFFFFFFFFFFFFFFFFFFFF MUL NOT AND SWAP1 DUP4 PUSH20 0xFFFFFFFFFFFFFFFFFFFFFFFFFFFFFFFFFFFFFFFF AND MUL OR SWAP1 SSTORE POP POP JUMP JUMPDEST PUSH0 DUP1 CALLER PUSH20 0xFFFFFFFFFFFFFFFFFFFFFFFFFFFFFFFFFFFFFFFF AND ORIGIN PUSH20 0xFFFFFFFFFFFFFFFFFFFFFFFFFFFFFFFFFFFFFFFF AND EQ PUSH2 0x1DA5 JUMPI PUSH1 0x40 MLOAD PUSH32 0x8C379A000000000000000000000000000000000000000000000000000000000 DUP2 MSTORE PUSH1 0x4 ADD PUSH2 0x1D9C SWAP1 PUSH2 0x3189 JUMP JUMPDEST PUSH1 0x40 MLOAD DUP1 SWAP2 SUB SWAP1 REVERT JUMPDEST PUSH0 PUSH2 0x1DAF DUP6 PUSH2 0xE3B JUMP JUMPDEST SWAP1 POP PUSH0 DUP1 PUSH2 0x1DBD DUP4 DUP8 PUSH2 0x2352 JUMP JUMPDEST SWAP2 POP SWAP2 POP DUP2 DUP2 SWAP5 POP SWAP5 POP POP POP POP SWAP3 POP SWAP3 SWAP1 POP JUMP JUMPDEST PUSH7 0x38D7EA4C68000 DUP2 JUMP JUMPDEST PUSH2 0x1DE4 PUSH2 0x1E9F JUMP JUMPDEST PUSH0 PUSH20 0xFFFFFFFFFFFFFFFFFFFFFFFFFFFFFFFFFFFFFFFF AND DUP2 PUSH20 0xFFFFFFFFFFFFFFFFFFFFFFFFFFFFFFFFFFFFFFFF AND SUB PUSH2 0x1E54 JUMPI PUSH0 PUSH1 0x40 MLOAD PUSH32 0x1E4FBDF700000000000000000000000000000000000000000000000000000000 DUP2 MSTORE PUSH1 0x4 ADD PUSH2 0x1E4B SWAP2 SWAP1 PUSH2 0x303C JUMP JUMPDEST PUSH1 0x40 MLOAD DUP1 SWAP2 SUB SWAP1 REVERT JUMPDEST PUSH2 0x1E5D DUP2 PUSH2 0x2291 JUMP JUMPDEST POP JUMP JUMPDEST PUSH0 DUP2 DUP4 PUSH2 0x1E6D SWAP2 SWAP1 PUSH2 0x3B71 JUMP JUMPDEST SWAP1 POP SWAP3 SWAP2 POP POP JUMP JUMPDEST PUSH0 DUP2 DUP4 PUSH2 0x1E82 SWAP2 SWAP1 PUSH2 0x3BB2 JUMP JUMPDEST SWAP1 POP SWAP3 SWAP2 POP POP JUMP JUMPDEST PUSH0 DUP2 DUP4 PUSH2 0x1E97 SWAP2 SWAP1 PUSH2 0x3BE5 JUMP JUMPDEST SWAP1 POP SWAP3 SWAP2 POP POP JUMP JUMPDEST PUSH2 0x1EA7 PUSH2 0x2489 JUMP JUMPDEST PUSH20 0xFFFFFFFFFFFFFFFFFFFFFFFFFFFFFFFFFFFFFFFF AND PUSH2 0x1EC5 PUSH2 0x15B6 JUMP JUMPDEST PUSH20 0xFFFFFFFFFFFFFFFFFFFFFFFFFFFFFFFFFFFFFFFF AND EQ PUSH2 0x1F24 JUMPI PUSH2 0x1EE8 PUSH2 0x2489 JUMP JUMPDEST PUSH1 0x40 MLOAD PUSH32 0x118CDAA700000000000000000000000000000000000000000000000000000000 DUP2 MSTORE PUSH1 0x4 ADD PUSH2 0x1F1B SWAP2 SWAP1 PUSH2 0x303C JUMP JUMPDEST PUSH1 0x40 MLOAD DUP1 SWAP2 SUB SWAP1 REVERT JUMPDEST JUMP JUMPDEST PUSH0 PUSH1 0xB DUP4 PUSH1 0x40 MLOAD PUSH2 0x1F37 SWAP2 SWAP1 PUSH2 0x31E1 JUMP JUMPDEST SWAP1 DUP2 MSTORE PUSH1 0x20 ADD PUSH1 0x40 MLOAD DUP1 SWAP2 SUB SWAP1 KECCAK256 SWAP1 POP PUSH0 DUP2 PUSH1 0x1 ADD PUSH0 DUP5 PUSH20 0xFFFFFFFFFFFFFFFFFFFFFFFFFFFFFFFFFFFFFFFF AND PUSH20 0xFFFFFFFFFFFFFFFFFFFFFFFFFFFFFFFFFFFFFFFF AND DUP2 MSTORE PUSH1 0x20 ADD SWAP1 DUP2 MSTORE PUSH1 0x20 ADD PUSH0 KECCAK256 SLOAD SWAP1 POP DUP3 PUSH20 0xFFFFFFFFFFFFFFFFFFFFFFFFFFFFFFFFFFFFFFFF AND DUP3 PUSH0 ADD DUP3 DUP2 SLOAD DUP2 LT PUSH2 0x1FB6 JUMPI PUSH2 0x1FB5 PUSH2 0x33AD JUMP JUMPDEST JUMPDEST SWAP1 PUSH0 MSTORE PUSH1 0x20 PUSH0 KECCAK256 ADD PUSH0 SWAP1 SLOAD SWAP1 PUSH2 0x100 EXP SWAP1 DIV PUSH20 0xFFFFFFFFFFFFFFFFFFFFFFFFFFFFFFFFFFFFFFFF AND PUSH20 0xFFFFFFFFFFFFFFFFFFFFFFFFFFFFFFFFFFFFFFFF AND EQ PUSH2 0x20B8 JUMPI DUP2 PUSH0 ADD CALLER SWAP1 DUP1 PUSH1 0x1 DUP2 SLOAD ADD DUP1 DUP3 SSTORE DUP1 SWAP2 POP POP PUSH1 0x1 SWAP1 SUB SWAP1 PUSH0 MSTORE PUSH1 0x20 PUSH0 KECCAK256 ADD PUSH0 SWAP1 SWAP2 SWAP1 SWAP2 SWAP1 SWAP2 PUSH2 0x100 EXP DUP2 SLOAD DUP2 PUSH20 0xFFFFFFFFFFFFFFFFFFFFFFFFFFFFFFFFFFFFFFFF MUL NOT AND SWAP1 DUP4 PUSH20 0xFFFFFFFFFFFFFFFFFFFFFFFFFFFFFFFFFFFFFFFF AND MUL OR SWAP1 SSTORE POP PUSH2 0x2074 PUSH1 0x1 DUP4 PUSH0 ADD DUP1 SLOAD SWAP1 POP PUSH2 0x1E8A SWAP1 SWAP2 SWAP1 PUSH4 0xFFFFFFFF AND JUMP JUMPDEST DUP3 PUSH1 0x1 ADD PUSH0 DUP6 PUSH20 0xFFFFFFFFFFFFFFFFFFFFFFFFFFFFFFFFFFFFFFFF AND PUSH20 0xFFFFFFFFFFFFFFFFFFFFFFFFFFFFFFFFFFFFFFFF AND DUP2 MSTORE PUSH1 0x20 ADD SWAP1 DUP2 MSTORE PUSH1 0x20 ADD PUSH0 KECCAK256 DUP2 SWAP1 SSTORE POP JUMPDEST POP POP POP POP JUMP JUMPDEST PUSH0 DUP1 PUSH0 DUP4 GT PUSH2 0x2102 JUMPI PUSH1 0x40 MLOAD PUSH32 0x8C379A000000000000000000000000000000000000000000000000000000000 DUP2 MSTORE PUSH1 0x4 ADD PUSH2 0x20F9 SWAP1 PUSH2 0x35BC JUMP JUMPDEST PUSH1 0x40 MLOAD DUP1 SWAP2 SUB SWAP1 REVERT JUMPDEST DUP3 PUSH1 0x7 DUP6 PUSH1 0x40 MLOAD PUSH2 0x2113 SWAP2 SWAP1 PUSH2 0x31E1 JUMP JUMPDEST SWAP1 DUP2 MSTORE PUSH1 0x20 ADD PUSH1 0x40 MLOAD DUP1 SWAP2 SUB SWAP1 KECCAK256 PUSH0 CALLER PUSH20 0xFFFFFFFFFFFFFFFFFFFFFFFFFFFFFFFFFFFFFFFF AND PUSH20 0xFFFFFFFFFFFFFFFFFFFFFFFFFFFFFFFFFFFFFFFF AND DUP2 MSTORE PUSH1 0x20 ADD SWAP1 DUP2 MSTORE PUSH1 0x20 ADD PUSH0 KECCAK256 SLOAD LT ISZERO PUSH2 0x219E JUMPI PUSH1 0x40 MLOAD PUSH32 0x8C379A000000000000000000000000000000000000000000000000000000000 DUP2 MSTORE PUSH1 0x4 ADD PUSH2 0x2195 SWAP1 PUSH2 0x3624 JUMP JUMPDEST PUSH1 0x40 MLOAD DUP1 SWAP2 SUB SWAP1 REVERT JUMPDEST PUSH0 DUP1 PUSH1 0x8 DUP7 PUSH1 0x40 MLOAD PUSH2 0x21B0 SWAP2 SWAP1 PUSH2 0x31E1 JUMP JUMPDEST SWAP1 DUP2 MSTORE PUSH1 0x20 ADD PUSH1 0x40 MLOAD DUP1 SWAP2 SUB SWAP1 KECCAK256 PUSH1 0x3 ADD SLOAD SWAP1 POP PUSH0 JUMPDEST DUP6 DUP2 LT ISZERO PUSH2 0x2255 JUMPI PUSH0 PUSH2 0x21E3 PUSH1 0x1 DUP5 PUSH2 0x1E8A SWAP1 SWAP2 SWAP1 PUSH4 0xFFFFFFFF AND JUMP JUMPDEST SWAP1 POP PUSH0 PUSH7 0x2386F26FC10000 SWAP1 POP PUSH1 0x64 DUP5 GT ISZERO PUSH2 0x2228 JUMPI PUSH1 0xA PUSH0 DUP6 DUP2 MSTORE PUSH1 0x20 ADD SWAP1 DUP2 MSTORE PUSH1 0x20 ADD PUSH0 KECCAK256 SLOAD SWAP1 POP PUSH7 0x2386F26FC10000 DUP2 GT PUSH2 0x2227 JUMPI PUSH2 0x2224 DUP5 PUSH2 0x1C12 JUMP JUMPDEST SWAP1 POP JUMPDEST JUMPDEST PUSH2 0x223B DUP2 DUP7 PUSH2 0x1E75 SWAP1 SWAP2 SWAP1 PUSH4 0xFFFFFFFF AND JUMP JUMPDEST SWAP5 POP DUP2 SWAP4 POP POP POP DUP1 DUP1 PUSH2 0x224D SWAP1 PUSH2 0x349D JUMP JUMPDEST SWAP2 POP POP PUSH2 0x21C6 JUMP JUMPDEST POP PUSH0 PUSH2 0x227F PUSH1 0x64 PUSH2 0x2271 PUSH1 0x1 SLOAD DUP7 PUSH2 0x1E60 SWAP1 SWAP2 SWAP1 PUSH4 0xFFFFFFFF AND JUMP JUMPDEST PUSH2 0x2537 SWAP1 SWAP2 SWAP1 PUSH4 0xFFFFFFFF AND JUMP JUMPDEST SWAP1 POP DUP3 DUP2 SWAP5 POP SWAP5 POP POP POP POP SWAP3 POP SWAP3 SWAP1 POP JUMP JUMPDEST PUSH0 DUP1 PUSH0 SWAP1 SLOAD SWAP1 PUSH2 0x100 EXP SWAP1 DIV PUSH20 0xFFFFFFFFFFFFFFFFFFFFFFFFFFFFFFFFFFFFFFFF AND SWAP1 POP DUP2 PUSH0 DUP1 PUSH2 0x100 EXP DUP2 SLOAD DUP2 PUSH20 0xFFFFFFFFFFFFFFFFFFFFFFFFFFFFFFFFFFFFFFFF MUL NOT AND SWAP1 DUP4 PUSH20 0xFFFFFFFFFFFFFFFFFFFFFFFFFFFFFFFFFFFFFFFF AND MUL OR SWAP1 SSTORE POP DUP2 PUSH20 0xFFFFFFFFFFFFFFFFFFFFFFFFFFFFFFFFFFFFFFFF AND DUP2 PUSH20 0xFFFFFFFFFFFFFFFFFFFFFFFFFFFFFFFFFFFFFFFF AND PUSH32 0x8BE0079C531659141344CD1FD0A4F28419497F9722A3DAAFE3B4186F6B6457E0 PUSH1 0x40 MLOAD PUSH1 0x40 MLOAD DUP1 SWAP2 SUB SWAP1 LOG3 POP POP JUMP JUMPDEST PUSH0 DUP1 PUSH0 DUP4 GT PUSH2 0x2396 JUMPI PUSH1 0x40 MLOAD PUSH32 0x8C379A000000000000000000000000000000000000000000000000000000000 DUP2 MSTORE PUSH1 0x4 ADD PUSH2 0x238D SWAP1 PUSH2 0x35BC JUMP JUMPDEST PUSH1 0x40 MLOAD DUP1 SWAP2 SUB SWAP1 REVERT JUMPDEST PUSH0 DUP1 PUSH1 0x8 DUP7 PUSH1 0x40 MLOAD PUSH2 0x23A8 SWAP2 SWAP1 PUSH2 0x31E1 JUMP JUMPDEST SWAP1 DUP2 MSTORE PUSH1 0x20 ADD PUSH1 0x40 MLOAD DUP1 SWAP2 SUB SWAP1 KECCAK256 PUSH1 0x3 ADD SLOAD SWAP1 POP PUSH0 JUMPDEST DUP6 DUP2 LT ISZERO PUSH2 0x244D JUMPI PUSH0 PUSH2 0x23DB PUSH1 0x1 DUP5 PUSH2 0x1E75 SWAP1 SWAP2 SWAP1 PUSH4 0xFFFFFFFF AND JUMP JUMPDEST SWAP1 POP PUSH0 PUSH7 0x2386F26FC10000 SWAP1 POP PUSH1 0x64 DUP3 GT ISZERO PUSH2 0x2420 JUMPI PUSH1 0xA PUSH0 DUP4 DUP2 MSTORE PUSH1 0x20 ADD SWAP1 DUP2 MSTORE PUSH1 0x20 ADD PUSH0 KECCAK256 SLOAD SWAP1 POP PUSH7 0x2386F26FC10000 DUP2 GT PUSH2 0x241F JUMPI PUSH2 0x241C DUP3 PUSH2 0x1C12 JUMP JUMPDEST SWAP1 POP JUMPDEST JUMPDEST PUSH2 0x2433 DUP2 DUP7 PUSH2 0x1E75 SWAP1 SWAP2 SWAP1 PUSH4 0xFFFFFFFF AND JUMP JUMPDEST SWAP5 POP DUP2 SWAP4 POP POP POP DUP1 DUP1 PUSH2 0x2445 SWAP1 PUSH2 0x349D JUMP JUMPDEST SWAP2 POP POP PUSH2 0x23BE JUMP JUMPDEST POP PUSH0 PUSH2 0x2477 PUSH1 0x64 PUSH2 0x2469 PUSH1 0x1 SLOAD DUP7 PUSH2 0x1E60 SWAP1 SWAP2 SWAP1 PUSH4 0xFFFFFFFF AND JUMP JUMPDEST PUSH2 0x2537 SWAP1 SWAP2 SWAP1 PUSH4 0xFFFFFFFF AND JUMP JUMPDEST SWAP1 POP DUP3 DUP2 SWAP5 POP SWAP5 POP POP POP POP SWAP3 POP SWAP3 SWAP1 POP JUMP JUMPDEST PUSH0 CALLER SWAP1 POP SWAP1 JUMP JUMPDEST PUSH0 DUP1 PUSH0 DUP1 PUSH2 0x249E DUP7 DUP7 PUSH2 0x254C JUMP JUMPDEST SWAP3 POP SWAP3 POP SWAP3 POP PUSH2 0x24AE DUP3 DUP3 PUSH2 0x25A1 JUMP JUMPDEST DUP3 SWAP4 POP POP POP POP SWAP3 SWAP2 POP POP JUMP JUMPDEST PUSH0 DUP1 DUP3 EQ DUP1 PUSH2 0x24C9 JUMPI POP PUSH1 0x1 DUP3 EQ JUMPDEST ISZERO PUSH2 0x24D6 JUMPI DUP2 SWAP1 POP PUSH2 0x2532 JUMP JUMPDEST PUSH0 PUSH1 0x2 PUSH1 0x1 DUP5 PUSH2 0x24E6 SWAP2 SWAP1 PUSH2 0x3BB2 JUMP JUMPDEST PUSH2 0x24F0 SWAP2 SWAP1 PUSH2 0x3C45 JUMP JUMPDEST SWAP1 POP PUSH0 DUP4 SWAP1 POP JUMPDEST DUP1 DUP3 LT ISZERO PUSH2 0x252C JUMPI DUP2 SWAP1 POP PUSH1 0x2 DUP3 DUP4 DUP7 PUSH2 0x2511 SWAP2 SWAP1 PUSH2 0x3C45 JUMP JUMPDEST PUSH2 0x251B SWAP2 SWAP1 PUSH2 0x3BB2 JUMP JUMPDEST PUSH2 0x2525 SWAP2 SWAP1 PUSH2 0x3C45 JUMP JUMPDEST SWAP2 POP PUSH2 0x24F7 JUMP JUMPDEST DUP1 SWAP3 POP POP POP JUMPDEST SWAP2 SWAP1 POP JUMP JUMPDEST PUSH0 DUP2 DUP4 PUSH2 0x2544 SWAP2 SWAP1 PUSH2 0x3C45 JUMP JUMPDEST SWAP1 POP SWAP3 SWAP2 POP POP JUMP JUMPDEST PUSH0 DUP1 PUSH0 PUSH1 0x41 DUP5 MLOAD SUB PUSH2 0x258C JUMPI PUSH0 DUP1 PUSH0 PUSH1 0x20 DUP8 ADD MLOAD SWAP3 POP PUSH1 0x40 DUP8 ADD MLOAD SWAP2 POP PUSH1 0x60 DUP8 ADD MLOAD PUSH0 BYTE SWAP1 POP PUSH2 0x257E DUP9 DUP3 DUP6 DUP6 PUSH2 0x2703 JUMP JUMPDEST SWAP6 POP SWAP6 POP SWAP6 POP POP POP POP PUSH2 0x259A JUMP JUMPDEST PUSH0 PUSH1 0x2 DUP6 MLOAD PUSH0 SHL SWAP3 POP SWAP3 POP SWAP3 POP JUMPDEST SWAP3 POP SWAP3 POP SWAP3 JUMP JUMPDEST PUSH0 PUSH1 0x3 DUP2 GT ISZERO PUSH2 0x25B4 JUMPI PUSH2 0x25B3 PUSH2 0x3642 JUMP JUMPDEST JUMPDEST DUP3 PUSH1 0x3 DUP2 GT ISZERO PUSH2 0x25C7 JUMPI PUSH2 0x25C6 PUSH2 0x3642 JUMP JUMPDEST JUMPDEST SUB ISZERO PUSH2 0x26FF JUMPI PUSH1 0x1 PUSH1 0x3 DUP2 GT ISZERO PUSH2 0x25E1 JUMPI PUSH2 0x25E0 PUSH2 0x3642 JUMP JUMPDEST JUMPDEST DUP3 PUSH1 0x3 DUP2 GT ISZERO PUSH2 0x25F4 JUMPI PUSH2 0x25F3 PUSH2 0x3642 JUMP JUMPDEST JUMPDEST SUB PUSH2 0x262B JUMPI PUSH1 0x40 MLOAD PUSH32 0xF645EEDF00000000000000000000000000000000000000000000000000000000 DUP2 MSTORE PUSH1 0x4 ADD PUSH1 0x40 MLOAD DUP1 SWAP2 SUB SWAP1 REVERT JUMPDEST PUSH1 0x2 PUSH1 0x3 DUP2 GT ISZERO PUSH2 0x263F JUMPI PUSH2 0x263E PUSH2 0x3642 JUMP JUMPDEST JUMPDEST DUP3 PUSH1 0x3 DUP2 GT ISZERO PUSH2 0x2652 JUMPI PUSH2 0x2651 PUSH2 0x3642 JUMP JUMPDEST JUMPDEST SUB PUSH2 0x2696 JUMPI DUP1 PUSH0 SHR PUSH1 0x40 MLOAD PUSH32 0xFCE698F700000000000000000000000000000000000000000000000000000000 DUP2 MSTORE PUSH1 0x4 ADD PUSH2 0x268D SWAP2 SWAP1 PUSH2 0x2802 JUMP JUMPDEST PUSH1 0x40 MLOAD DUP1 SWAP2 SUB SWAP1 REVERT JUMPDEST PUSH1 0x3 DUP1 DUP2 GT ISZERO PUSH2 0x26A9 JUMPI PUSH2 0x26A8 PUSH2 0x3642 JUMP JUMPDEST JUMPDEST DUP3 PUSH1 0x3 DUP2 GT ISZERO PUSH2 0x26BC JUMPI PUSH2 0x26BB PUSH2 0x3642 JUMP JUMPDEST JUMPDEST SUB PUSH2 0x26FE JUMPI DUP1 PUSH1 0x40 MLOAD PUSH32 0xD78BCE0C00000000000000000000000000000000000000000000000000000000 DUP2 MSTORE PUSH1 0x4 ADD PUSH2 0x26F5 SWAP2 SWAP1 PUSH2 0x3C8D JUMP JUMPDEST PUSH1 0x40 MLOAD DUP1 SWAP2 SUB SWAP1 REVERT JUMPDEST JUMPDEST POP POP JUMP JUMPDEST PUSH0 DUP1 PUSH0 PUSH32 0x7FFFFFFFFFFFFFFFFFFFFFFFFFFFFFFF5D576E7357A4501DDFE92F46681B20A0 DUP5 PUSH0 SHR GT ISZERO PUSH2 0x273F JUMPI PUSH0 PUSH1 0x3 DUP6 SWAP3 POP SWAP3 POP SWAP3 POP PUSH2 0x27E0 JUMP JUMPDEST PUSH0 PUSH1 0x1 DUP9 DUP9 DUP9 DUP9 PUSH1 0x40 MLOAD PUSH0 DUP2 MSTORE PUSH1 0x20 ADD PUSH1 0x40 MSTORE PUSH1 0x40 MLOAD PUSH2 0x2762 SWAP5 SWAP4 SWAP3 SWAP2 SWAP1 PUSH2 0x3CB5 JUMP JUMPDEST PUSH1 0x20 PUSH1 0x40 MLOAD PUSH1 0x20 DUP2 SUB SWAP1 DUP1 DUP5 SUB SWAP1 DUP6 GAS STATICCALL ISZERO DUP1 ISZERO PUSH2 0x2782 JUMPI RETURNDATASIZE PUSH0 DUP1 RETURNDATACOPY RETURNDATASIZE PUSH0 REVERT JUMPDEST POP POP POP PUSH1 0x20 PUSH1 0x40 MLOAD SUB MLOAD SWAP1 POP PUSH0 PUSH20 0xFFFFFFFFFFFFFFFFFFFFFFFFFFFFFFFFFFFFFFFF AND DUP2 PUSH20 0xFFFFFFFFFFFFFFFFFFFFFFFFFFFFFFFFFFFFFFFF AND SUB PUSH2 0x27D3 JUMPI PUSH0 PUSH1 0x1 PUSH0 DUP1 SHL SWAP4 POP SWAP4 POP SWAP4 POP POP PUSH2 0x27E0 JUMP JUMPDEST DUP1 PUSH0 DUP1 PUSH0 SHL SWAP4 POP SWAP4 POP SWAP4 POP POP JUMPDEST SWAP5 POP SWAP5 POP SWAP5 SWAP2 POP POP JUMP JUMPDEST PUSH0 DUP2 SWAP1 POP SWAP2 SWAP1 POP JUMP JUMPDEST PUSH2 0x27FC DUP2 PUSH2 0x27EA JUMP JUMPDEST DUP3 MSTORE POP POP JUMP JUMPDEST PUSH0 PUSH1 0x20 DUP3 ADD SWAP1 POP PUSH2 0x2815 PUSH0 DUP4 ADD DUP5 PUSH2 0x27F3 JUMP JUMPDEST SWAP3 SWAP2 POP POP JUMP JUMPDEST PUSH0 PUSH1 0x40 MLOAD SWAP1 POP SWAP1 JUMP JUMPDEST PUSH0 DUP1 REVERT JUMPDEST PUSH0 DUP1 REVERT JUMPDEST PUSH0 DUP1 REVERT JUMPDEST PUSH0 DUP1 REVERT JUMPDEST PUSH0 PUSH1 0x1F NOT PUSH1 0x1F DUP4 ADD AND SWAP1 POP SWAP2 SWAP1 POP JUMP JUMPDEST PUSH32 0x4E487B7100000000000000000000000000000000000000000000000000000000 PUSH0 MSTORE PUSH1 0x41 PUSH1 0x4 MSTORE PUSH1 0x24 PUSH0 REVERT JUMPDEST PUSH2 0x287A DUP3 PUSH2 0x2834 JUMP JUMPDEST DUP2 ADD DUP2 DUP2 LT PUSH8 0xFFFFFFFFFFFFFFFF DUP3 GT OR ISZERO PUSH2 0x2899 JUMPI PUSH2 0x2898 PUSH2 0x2844 JUMP JUMPDEST JUMPDEST DUP1 PUSH1 0x40 MSTORE POP POP POP JUMP JUMPDEST PUSH0 PUSH2 0x28AB PUSH2 0x281B JUMP JUMPDEST SWAP1 POP PUSH2 0x28B7 DUP3 DUP3 PUSH2 0x2871 JUMP JUMPDEST SWAP2 SWAP1 POP JUMP JUMPDEST PUSH0 PUSH8 0xFFFFFFFFFFFFFFFF DUP3 GT ISZERO PUSH2 0x28D6 JUMPI PUSH2 0x28D5 PUSH2 0x2844 JUMP JUMPDEST JUMPDEST PUSH2 0x28DF DUP3 PUSH2 0x2834 JUMP JUMPDEST SWAP1 POP PUSH1 0x20 DUP2 ADD SWAP1 POP SWAP2 SWAP1 POP JUMP JUMPDEST DUP3 DUP2 DUP4 CALLDATACOPY PUSH0 DUP4 DUP4 ADD MSTORE POP POP POP JUMP JUMPDEST PUSH0 PUSH2 0x290C PUSH2 0x2907 DUP5 PUSH2 0x28BC JUMP JUMPDEST PUSH2 0x28A2 JUMP JUMPDEST SWAP1 POP DUP3 DUP2 MSTORE PUSH1 0x20 DUP2 ADD DUP5 DUP5 DUP5 ADD GT ISZERO PUSH2 0x2928 JUMPI PUSH2 0x2927 PUSH2 0x2830 JUMP JUMPDEST JUMPDEST PUSH2 0x2933 DUP5 DUP3 DUP6 PUSH2 0x28EC JUMP JUMPDEST POP SWAP4 SWAP3 POP POP POP JUMP JUMPDEST PUSH0 DUP3 PUSH1 0x1F DUP4 ADD SLT PUSH2 0x294F JUMPI PUSH2 0x294E PUSH2 0x282C JUMP JUMPDEST JUMPDEST DUP2 CALLDATALOAD PUSH2 0x295F DUP5 DUP3 PUSH1 0x20 DUP7 ADD PUSH2 0x28FA JUMP JUMPDEST SWAP2 POP POP SWAP3 SWAP2 POP POP JUMP JUMPDEST PUSH2 0x2971 DUP2 PUSH2 0x27EA JUMP JUMPDEST DUP2 EQ PUSH2 0x297B JUMPI PUSH0 DUP1 REVERT JUMPDEST POP JUMP JUMPDEST PUSH0 DUP2 CALLDATALOAD SWAP1 POP PUSH2 0x298C DUP2 PUSH2 0x2968 JUMP JUMPDEST SWAP3 SWAP2 POP POP JUMP JUMPDEST PUSH0 DUP1 PUSH1 0x40 DUP4 DUP6 SUB SLT ISZERO PUSH2 0x29A8 JUMPI PUSH2 0x29A7 PUSH2 0x2824 JUMP JUMPDEST JUMPDEST PUSH0 DUP4 ADD CALLDATALOAD PUSH8 0xFFFFFFFFFFFFFFFF DUP2 GT ISZERO PUSH2 0x29C5 JUMPI PUSH2 0x29C4 PUSH2 0x2828 JUMP JUMPDEST JUMPDEST PUSH2 0x29D1 DUP6 DUP3 DUP7 ADD PUSH2 0x293B JUMP JUMPDEST SWAP3 POP POP PUSH1 0x20 PUSH2 0x29E2 DUP6 DUP3 DUP7 ADD PUSH2 0x297E JUMP JUMPDEST SWAP2 POP POP SWAP3 POP SWAP3 SWAP1 POP JUMP JUMPDEST PUSH0 DUP2 ISZERO ISZERO SWAP1 POP SWAP2 SWAP1 POP JUMP JUMPDEST PUSH2 0x2A00 DUP2 PUSH2 0x29EC JUMP JUMPDEST DUP3 MSTORE POP POP JUMP JUMPDEST PUSH0 PUSH1 0x20 DUP3 ADD SWAP1 POP PUSH2 0x2A19 PUSH0 DUP4 ADD DUP5 PUSH2 0x29F7 JUMP JUMPDEST SWAP3 SWAP2 POP POP JUMP JUMPDEST PUSH0 PUSH8 0xFFFFFFFFFFFFFFFF DUP3 GT ISZERO PUSH2 0x2A39 JUMPI PUSH2 0x2A38 PUSH2 0x2844 JUMP JUMPDEST JUMPDEST PUSH1 0x20 DUP3 MUL SWAP1 POP PUSH1 0x20 DUP2 ADD SWAP1 POP SWAP2 SWAP1 POP JUMP JUMPDEST PUSH0 DUP1 REVERT JUMPDEST PUSH0 DUP1 REVERT JUMPDEST PUSH0 PUSH1 0x40 DUP3 DUP5 SUB SLT ISZERO PUSH2 0x2A67 JUMPI PUSH2 0x2A66 PUSH2 0x2A4E JUMP JUMPDEST JUMPDEST PUSH2 0x2A71 PUSH1 0x40 PUSH2 0x28A2 JUMP JUMPDEST SWAP1 POP PUSH0 PUSH2 0x2A80 DUP5 DUP3 DUP6 ADD PUSH2 0x297E JUMP JUMPDEST PUSH0 DUP4 ADD MSTORE POP PUSH1 0x20 PUSH2 0x2A93 DUP5 DUP3 DUP6 ADD PUSH2 0x297E JUMP JUMPDEST PUSH1 0x20 DUP4 ADD MSTORE POP SWAP3 SWAP2 POP POP JUMP JUMPDEST PUSH0 PUSH2 0x2AB1 PUSH2 0x2AAC DUP5 PUSH2 0x2A1F JUMP JUMPDEST PUSH2 0x28A2 JUMP JUMPDEST SWAP1 POP DUP1 DUP4 DUP3 MSTORE PUSH1 0x20 DUP3 ADD SWAP1 POP PUSH1 0x40 DUP5 MUL DUP4 ADD DUP6 DUP2 GT ISZERO PUSH2 0x2AD4 JUMPI PUSH2 0x2AD3 PUSH2 0x2A4A JUMP JUMPDEST JUMPDEST DUP4 JUMPDEST DUP2 DUP2 LT ISZERO PUSH2 0x2AFD JUMPI DUP1 PUSH2 0x2AE9 DUP9 DUP3 PUSH2 0x2A52 JUMP JUMPDEST DUP5 MSTORE PUSH1 0x20 DUP5 ADD SWAP4 POP POP PUSH1 0x40 DUP2 ADD SWAP1 POP PUSH2 0x2AD6 JUMP JUMPDEST POP POP POP SWAP4 SWAP3 POP POP POP JUMP JUMPDEST PUSH0 DUP3 PUSH1 0x1F DUP4 ADD SLT PUSH2 0x2B1B JUMPI PUSH2 0x2B1A PUSH2 0x282C JUMP JUMPDEST JUMPDEST DUP2 CALLDATALOAD PUSH2 0x2B2B DUP5 DUP3 PUSH1 0x20 DUP7 ADD PUSH2 0x2A9F JUMP JUMPDEST SWAP2 POP POP SWAP3 SWAP2 POP POP JUMP JUMPDEST PUSH0 DUP1 PUSH1 0x40 DUP4 DUP6 SUB SLT ISZERO PUSH2 0x2B4A JUMPI PUSH2 0x2B49 PUSH2 0x2824 JUMP JUMPDEST JUMPDEST PUSH0 DUP4 ADD CALLDATALOAD PUSH8 0xFFFFFFFFFFFFFFFF DUP2 GT ISZERO PUSH2 0x2B67 JUMPI PUSH2 0x2B66 PUSH2 0x2828 JUMP JUMPDEST JUMPDEST PUSH2 0x2B73 DUP6 DUP3 DUP7 ADD PUSH2 0x293B JUMP JUMPDEST SWAP3 POP POP PUSH1 0x20 DUP4 ADD CALLDATALOAD PUSH8 0xFFFFFFFFFFFFFFFF DUP2 GT ISZERO PUSH2 0x2B94 JUMPI PUSH2 0x2B93 PUSH2 0x2828 JUMP JUMPDEST JUMPDEST PUSH2 0x2BA0 DUP6 DUP3 DUP7 ADD PUSH2 0x2B07 JUMP JUMPDEST SWAP2 POP POP SWAP3 POP SWAP3 SWAP1 POP JUMP JUMPDEST PUSH0 DUP1 PUSH0 PUSH1 0x60 DUP5 DUP7 SUB SLT ISZERO PUSH2 0x2BC1 JUMPI PUSH2 0x2BC0 PUSH2 0x2824 JUMP JUMPDEST JUMPDEST PUSH0 PUSH2 0x2BCE DUP7 DUP3 DUP8 ADD PUSH2 0x297E JUMP JUMPDEST SWAP4 POP POP PUSH1 0x20 PUSH2 0x2BDF DUP7 DUP3 DUP8 ADD PUSH2 0x297E JUMP JUMPDEST SWAP3 POP POP PUSH1 0x40 PUSH2 0x2BF0 DUP7 DUP3 DUP8 ADD PUSH2 0x297E JUMP JUMPDEST SWAP2 POP POP SWAP3 POP SWAP3 POP SWAP3 JUMP JUMPDEST PUSH0 PUSH1 0x20 DUP3 DUP5 SUB SLT ISZERO PUSH2 0x2C0F JUMPI PUSH2 0x2C0E PUSH2 0x2824 JUMP JUMPDEST JUMPDEST PUSH0 DUP3 ADD CALLDATALOAD PUSH8 0xFFFFFFFFFFFFFFFF DUP2 GT ISZERO PUSH2 0x2C2C JUMPI PUSH2 0x2C2B PUSH2 0x2828 JUMP JUMPDEST JUMPDEST PUSH2 0x2C38 DUP5 DUP3 DUP6 ADD PUSH2 0x293B JUMP JUMPDEST SWAP2 POP POP SWAP3 SWAP2 POP POP JUMP JUMPDEST PUSH0 DUP2 MLOAD SWAP1 POP SWAP2 SWAP1 POP JUMP JUMPDEST PUSH0 DUP3 DUP3 MSTORE PUSH1 0x20 DUP3 ADD SWAP1 POP SWAP3 SWAP2 POP POP JUMP JUMPDEST PUSH0 JUMPDEST DUP4 DUP2 LT ISZERO PUSH2 0x2C78 JUMPI DUP1 DUP3 ADD MLOAD DUP2 DUP5 ADD MSTORE PUSH1 0x20 DUP2 ADD SWAP1 POP PUSH2 0x2C5D JUMP JUMPDEST PUSH0 DUP5 DUP5 ADD MSTORE POP POP POP POP JUMP JUMPDEST PUSH0 PUSH2 0x2C8D DUP3 PUSH2 0x2C41 JUMP JUMPDEST PUSH2 0x2C97 DUP2 DUP6 PUSH2 0x2C4B JUMP JUMPDEST SWAP4 POP PUSH2 0x2CA7 DUP2 DUP6 PUSH1 0x20 DUP7 ADD PUSH2 0x2C5B JUMP JUMPDEST PUSH2 0x2CB0 DUP2 PUSH2 0x2834 JUMP JUMPDEST DUP5 ADD SWAP2 POP POP SWAP3 SWAP2 POP POP JUMP JUMPDEST PUSH0 PUSH1 0x20 DUP3 ADD SWAP1 POP DUP2 DUP2 SUB PUSH0 DUP4 ADD MSTORE PUSH2 0x2CD3 DUP2 DUP5 PUSH2 0x2C83 JUMP JUMPDEST SWAP1 POP SWAP3 SWAP2 POP POP JUMP JUMPDEST PUSH0 PUSH8 0xFFFFFFFFFFFFFFFF DUP3 GT ISZERO PUSH2 0x2CF5 JUMPI PUSH2 0x2CF4 PUSH2 0x2844 JUMP JUMPDEST JUMPDEST PUSH2 0x2CFE DUP3 PUSH2 0x2834 JUMP JUMPDEST SWAP1 POP PUSH1 0x20 DUP2 ADD SWAP1 POP SWAP2 SWAP1 POP JUMP JUMPDEST PUSH0 PUSH2 0x2D1D PUSH2 0x2D18 DUP5 PUSH2 0x2CDB JUMP JUMPDEST PUSH2 0x28A2 JUMP JUMPDEST SWAP1 POP DUP3 DUP2 MSTORE PUSH1 0x20 DUP2 ADD DUP5 DUP5 DUP5 ADD GT ISZERO PUSH2 0x2D39 JUMPI PUSH2 0x2D38 PUSH2 0x2830 JUMP JUMPDEST JUMPDEST PUSH2 0x2D44 DUP5 DUP3 DUP6 PUSH2 0x28EC JUMP JUMPDEST POP SWAP4 SWAP3 POP POP POP JUMP JUMPDEST PUSH0 DUP3 PUSH1 0x1F DUP4 ADD SLT PUSH2 0x2D60 JUMPI PUSH2 0x2D5F PUSH2 0x282C JUMP JUMPDEST JUMPDEST DUP2 CALLDATALOAD PUSH2 0x2D70 DUP5 DUP3 PUSH1 0x20 DUP7 ADD PUSH2 0x2D0B JUMP JUMPDEST SWAP2 POP POP SWAP3 SWAP2 POP POP JUMP JUMPDEST PUSH0 PUSH20 0xFFFFFFFFFFFFFFFFFFFFFFFFFFFFFFFFFFFFFFFF DUP3 AND SWAP1 POP SWAP2 SWAP1 POP JUMP JUMPDEST PUSH0 PUSH2 0x2DA2 DUP3 PUSH2 0x2D79 JUMP JUMPDEST SWAP1 POP SWAP2 SWAP1 POP JUMP JUMPDEST PUSH2 0x2DB2 DUP2 PUSH2 0x2D98 JUMP JUMPDEST DUP2 EQ PUSH2 0x2DBC JUMPI PUSH0 DUP1 REVERT JUMPDEST POP JUMP JUMPDEST PUSH0 DUP2 CALLDATALOAD SWAP1 POP PUSH2 0x2DCD DUP2 PUSH2 0x2DA9 JUMP JUMPDEST SWAP3 SWAP2 POP POP JUMP JUMPDEST PUSH0 DUP1 PUSH1 0x40 DUP4 DUP6 SUB SLT ISZERO PUSH2 0x2DE9 JUMPI PUSH2 0x2DE8 PUSH2 0x2824 JUMP JUMPDEST JUMPDEST PUSH0 DUP4 ADD CALLDATALOAD PUSH8 0xFFFFFFFFFFFFFFFF DUP2 GT ISZERO PUSH2 0x2E06 JUMPI PUSH2 0x2E05 PUSH2 0x2828 JUMP JUMPDEST JUMPDEST PUSH2 0x2E12 DUP6 DUP3 DUP7 ADD PUSH2 0x2D4C JUMP JUMPDEST SWAP3 POP POP PUSH1 0x20 PUSH2 0x2E23 DUP6 DUP3 DUP7 ADD PUSH2 0x2DBF JUMP JUMPDEST SWAP2 POP POP SWAP3 POP SWAP3 SWAP1 POP JUMP JUMPDEST PUSH0 DUP1 PUSH1 0x40 DUP4 DUP6 SUB SLT ISZERO PUSH2 0x2E43 JUMPI PUSH2 0x2E42 PUSH2 0x2824 JUMP JUMPDEST JUMPDEST PUSH0 DUP4 ADD CALLDATALOAD PUSH8 0xFFFFFFFFFFFFFFFF DUP2 GT ISZERO PUSH2 0x2E60 JUMPI PUSH2 0x2E5F PUSH2 0x2828 JUMP JUMPDEST JUMPDEST PUSH2 0x2E6C DUP6 DUP3 DUP7 ADD PUSH2 0x293B JUMP JUMPDEST SWAP3 POP POP PUSH1 0x20 PUSH2 0x2E7D DUP6 DUP3 DUP7 ADD PUSH2 0x2DBF JUMP JUMPDEST SWAP2 POP POP SWAP3 POP SWAP3 SWAP1 POP JUMP JUMPDEST PUSH0 PUSH1 0x40 DUP3 ADD SWAP1 POP PUSH2 0x2E9A PUSH0 DUP4 ADD DUP6 PUSH2 0x27F3 JUMP JUMPDEST PUSH2 0x2EA7 PUSH1 0x20 DUP4 ADD DUP5 PUSH2 0x27F3 JUMP JUMPDEST SWAP4 SWAP3 POP POP POP JUMP JUMPDEST PUSH0 PUSH8 0xFFFFFFFFFFFFFFFF DUP3 GT ISZERO PUSH2 0x2EC8 JUMPI PUSH2 0x2EC7 PUSH2 0x2844 JUMP JUMPDEST JUMPDEST PUSH1 0x20 DUP3 MUL SWAP1 POP PUSH1 0x20 DUP2 ADD SWAP1 POP SWAP2 SWAP1 POP JUMP JUMPDEST PUSH0 PUSH1 0x40 DUP3 DUP5 SUB SLT ISZERO PUSH2 0x2EEE JUMPI PUSH2 0x2EED PUSH2 0x2A4E JUMP JUMPDEST JUMPDEST PUSH2 0x2EF8 PUSH1 0x40 PUSH2 0x28A2 JUMP JUMPDEST SWAP1 POP PUSH0 PUSH2 0x2F07 DUP5 DUP3 DUP6 ADD PUSH2 0x297E JUMP JUMPDEST PUSH0 DUP4 ADD MSTORE POP PUSH1 0x20 PUSH2 0x2F1A DUP5 DUP3 DUP6 ADD PUSH2 0x297E JUMP JUMPDEST PUSH1 0x20 DUP4 ADD MSTORE POP SWAP3 SWAP2 POP POP JUMP JUMPDEST PUSH0 PUSH2 0x2F38 PUSH2 0x2F33 DUP5 PUSH2 0x2EAE JUMP JUMPDEST PUSH2 0x28A2 JUMP JUMPDEST SWAP1 POP DUP1 DUP4 DUP3 MSTORE PUSH1 0x20 DUP3 ADD SWAP1 POP PUSH1 0x40 DUP5 MUL DUP4 ADD DUP6 DUP2 GT ISZERO PUSH2 0x2F5B JUMPI PUSH2 0x2F5A PUSH2 0x2A4A JUMP JUMPDEST JUMPDEST DUP4 JUMPDEST DUP2 DUP2 LT ISZERO PUSH2 0x2F84 JUMPI DUP1 PUSH2 0x2F70 DUP9 DUP3 PUSH2 0x2ED9 JUMP JUMPDEST DUP5 MSTORE PUSH1 0x20 DUP5 ADD SWAP4 POP POP PUSH1 0x40 DUP2 ADD SWAP1 POP PUSH2 0x2F5D JUMP JUMPDEST POP POP POP SWAP4 SWAP3 POP POP POP JUMP JUMPDEST PUSH0 DUP3 PUSH1 0x1F DUP4 ADD SLT PUSH2 0x2FA2 JUMPI PUSH2 0x2FA1 PUSH2 0x282C JUMP JUMPDEST JUMPDEST DUP2 CALLDATALOAD PUSH2 0x2FB2 DUP5 DUP3 PUSH1 0x20 DUP7 ADD PUSH2 0x2F26 JUMP JUMPDEST SWAP2 POP POP SWAP3 SWAP2 POP POP JUMP JUMPDEST PUSH0 PUSH1 0x20 DUP3 DUP5 SUB SLT ISZERO PUSH2 0x2FD0 JUMPI PUSH2 0x2FCF PUSH2 0x2824 JUMP JUMPDEST JUMPDEST PUSH0 DUP3 ADD CALLDATALOAD PUSH8 0xFFFFFFFFFFFFFFFF DUP2 GT ISZERO PUSH2 0x2FED JUMPI PUSH2 0x2FEC PUSH2 0x2828 JUMP JUMPDEST JUMPDEST PUSH2 0x2FF9 DUP5 DUP3 DUP6 ADD PUSH2 0x2F8E JUMP JUMPDEST SWAP2 POP POP SWAP3 SWAP2 POP POP JUMP JUMPDEST PUSH0 PUSH1 0x20 DUP3 DUP5 SUB SLT ISZERO PUSH2 0x3017 JUMPI PUSH2 0x3016 PUSH2 0x2824 JUMP JUMPDEST JUMPDEST PUSH0 PUSH2 0x3024 DUP5 DUP3 DUP6 ADD PUSH2 0x297E JUMP JUMPDEST SWAP2 POP POP SWAP3 SWAP2 POP POP JUMP JUMPDEST PUSH2 0x3036 DUP2 PUSH2 0x2D98 JUMP JUMPDEST DUP3 MSTORE POP POP JUMP JUMPDEST PUSH0 PUSH1 0x20 DUP3 ADD SWAP1 POP PUSH2 0x304F PUSH0 DUP4 ADD DUP5 PUSH2 0x302D JUMP JUMPDEST SWAP3 SWAP2 POP POP JUMP JUMPDEST PUSH0 DUP1 PUSH1 0x40 DUP4 DUP6 SUB SLT ISZERO PUSH2 0x306B JUMPI PUSH2 0x306A PUSH2 0x2824 JUMP JUMPDEST JUMPDEST PUSH0 DUP4 ADD CALLDATALOAD PUSH8 0xFFFFFFFFFFFFFFFF DUP2 GT ISZERO PUSH2 0x3088 JUMPI PUSH2 0x3087 PUSH2 0x2828 JUMP JUMPDEST JUMPDEST PUSH2 0x3094 DUP6 DUP3 DUP7 ADD PUSH2 0x293B JUMP JUMPDEST SWAP3 POP POP PUSH1 0x20 DUP4 ADD CALLDATALOAD PUSH8 0xFFFFFFFFFFFFFFFF DUP2 GT ISZERO PUSH2 0x30B5 JUMPI PUSH2 0x30B4 PUSH2 0x2828 JUMP JUMPDEST JUMPDEST PUSH2 0x30C1 DUP6 DUP3 DUP7 ADD PUSH2 0x2D4C JUMP JUMPDEST SWAP2 POP POP SWAP3 POP SWAP3 SWAP1 POP JUMP JUMPDEST PUSH0 PUSH2 0x30D5 DUP3 PUSH2 0x2D79 JUMP JUMPDEST SWAP1 POP SWAP2 SWAP1 POP JUMP JUMPDEST PUSH2 0x30E5 DUP2 PUSH2 0x30CB JUMP JUMPDEST DUP3 MSTORE POP POP JUMP JUMPDEST PUSH0 PUSH1 0x20 DUP3 ADD SWAP1 POP PUSH2 0x30FE PUSH0 DUP4 ADD DUP5 PUSH2 0x30DC JUMP JUMPDEST SWAP3 SWAP2 POP POP JUMP JUMPDEST PUSH0 PUSH1 0x20 DUP3 DUP5 SUB SLT ISZERO PUSH2 0x3119 JUMPI PUSH2 0x3118 PUSH2 0x2824 JUMP JUMPDEST JUMPDEST PUSH0 PUSH2 0x3126 DUP5 DUP3 DUP6 ADD PUSH2 0x2DBF JUMP JUMPDEST SWAP2 POP POP SWAP3 SWAP2 POP POP JUMP JUMPDEST PUSH0 DUP3 DUP3 MSTORE PUSH1 0x20 DUP3 ADD SWAP1 POP SWAP3 SWAP2 POP POP JUMP JUMPDEST PUSH32 0x5468652063616C6C657220697320616E6F7468657220636F6E74726163740000 PUSH0 DUP3 ADD MSTORE POP JUMP JUMPDEST PUSH0 PUSH2 0x3173 PUSH1 0x1E DUP4 PUSH2 0x312F JUMP JUMPDEST SWAP2 POP PUSH2 0x317E DUP3 PUSH2 0x313F JUMP JUMPDEST PUSH1 0x20 DUP3 ADD SWAP1 POP SWAP2 SWAP1 POP JUMP JUMPDEST PUSH0 PUSH1 0x20 DUP3 ADD SWAP1 POP DUP2 DUP2 SUB PUSH0 DUP4 ADD MSTORE PUSH2 0x31A0 DUP2 PUSH2 0x3167 JUMP JUMPDEST SWAP1 POP SWAP2 SWAP1 POP JUMP JUMPDEST PUSH0 DUP2 SWAP1 POP SWAP3 SWAP2 POP POP JUMP JUMPDEST PUSH0 PUSH2 0x31BB DUP3 PUSH2 0x2C41 JUMP JUMPDEST PUSH2 0x31C5 DUP2 DUP6 PUSH2 0x31A7 JUMP JUMPDEST SWAP4 POP PUSH2 0x31D5 DUP2 DUP6 PUSH1 0x20 DUP7 ADD PUSH2 0x2C5B JUMP JUMPDEST DUP1 DUP5 ADD SWAP2 POP POP SWAP3 SWAP2 POP POP JUMP JUMPDEST PUSH0 PUSH2 0x31EC DUP3 DUP5 PUSH2 0x31B1 JUMP JUMPDEST SWAP2 POP DUP2 SWAP1 POP SWAP3 SWAP2 POP POP JUMP JUMPDEST PUSH32 0x54686520626F782073616C6520697320656E6400000000000000000000000000 PUSH0 DUP3 ADD MSTORE POP JUMP JUMPDEST PUSH0 PUSH2 0x322B PUSH1 0x13 DUP4 PUSH2 0x312F JUMP JUMPDEST SWAP2 POP PUSH2 0x3236 DUP3 PUSH2 0x31F7 JUMP JUMPDEST PUSH1 0x20 DUP3 ADD SWAP1 POP SWAP2 SWAP1 POP JUMP JUMPDEST PUSH0 PUSH1 0x20 DUP3 ADD SWAP1 POP DUP2 DUP2 SUB PUSH0 DUP4 ADD MSTORE PUSH2 0x3258 DUP2 PUSH2 0x321F JUMP JUMPDEST SWAP1 POP SWAP2 SWAP1 POP JUMP JUMPDEST PUSH32 0x426F7820636E74206973207A65726F0000000000000000000000000000000000 PUSH0 DUP3 ADD MSTORE POP JUMP JUMPDEST PUSH0 PUSH2 0x3293 PUSH1 0xF DUP4 PUSH2 0x312F JUMP JUMPDEST SWAP2 POP PUSH2 0x329E DUP3 PUSH2 0x325F JUMP JUMPDEST PUSH1 0x20 DUP3 ADD SWAP1 POP SWAP2 SWAP1 POP JUMP JUMPDEST PUSH0 PUSH1 0x20 DUP3 ADD SWAP1 POP DUP2 DUP2 SUB PUSH0 DUP4 ADD MSTORE PUSH2 0x32C0 DUP2 PUSH2 0x3287 JUMP JUMPDEST SWAP1 POP SWAP2 SWAP1 POP JUMP JUMPDEST PUSH32 0x496E73756666696369656E7420426F7820616D6F756E74000000000000000000 PUSH0 DUP3 ADD MSTORE POP JUMP JUMPDEST PUSH0 PUSH2 0x32FB PUSH1 0x17 DUP4 PUSH2 0x312F JUMP JUMPDEST SWAP2 POP PUSH2 0x3306 DUP3 PUSH2 0x32C7 JUMP JUMPDEST PUSH1 0x20 DUP3 ADD SWAP1 POP SWAP2 SWAP1 POP JUMP JUMPDEST PUSH0 PUSH1 0x20 DUP3 ADD SWAP1 POP DUP2 DUP2 SUB PUSH0 DUP4 ADD MSTORE PUSH2 0x3328 DUP2 PUSH2 0x32EF JUMP JUMPDEST SWAP1 POP SWAP2 SWAP1 POP JUMP JUMPDEST PUSH0 DUP2 MLOAD SWAP1 POP SWAP2 SWAP1 POP JUMP JUMPDEST PUSH0 PUSH2 0x3343 DUP3 PUSH2 0x332F JUMP JUMPDEST PUSH2 0x334D DUP2 DUP6 PUSH2 0x312F JUMP JUMPDEST SWAP4 POP PUSH2 0x335D DUP2 DUP6 PUSH1 0x20 DUP7 ADD PUSH2 0x2C5B JUMP JUMPDEST PUSH2 0x3366 DUP2 PUSH2 0x2834 JUMP JUMPDEST DUP5 ADD SWAP2 POP POP SWAP3 SWAP2 POP POP JUMP JUMPDEST PUSH0 PUSH1 0x60 DUP3 ADD SWAP1 POP DUP2 DUP2 SUB PUSH0 DUP4 ADD MSTORE PUSH2 0x3389 DUP2 DUP7 PUSH2 0x3339 JUMP JUMPDEST SWAP1 POP PUSH2 0x3398 PUSH1 0x20 DUP4 ADD DUP6 PUSH2 0x27F3 JUMP JUMPDEST PUSH2 0x33A5 PUSH1 0x40 DUP4 ADD DUP5 PUSH2 0x27F3 JUMP JUMPDEST SWAP5 SWAP4 POP POP POP POP JUMP JUMPDEST PUSH32 0x4E487B7100000000000000000000000000000000000000000000000000000000 PUSH0 MSTORE PUSH1 0x32 PUSH1 0x4 MSTORE PUSH1 0x24 PUSH0 REVERT JUMPDEST PUSH32 0x496E73756666696369656E7420626F7820616C6C6F6361746520636E74000000 PUSH0 DUP3 ADD MSTORE POP JUMP JUMPDEST PUSH0 PUSH2 0x340E PUSH1 0x1D DUP4 PUSH2 0x312F JUMP JUMPDEST SWAP2 POP PUSH2 0x3419 DUP3 PUSH2 0x33DA JUMP JUMPDEST PUSH1 0x20 DUP3 ADD SWAP1 POP SWAP2 SWAP1 POP JUMP JUMPDEST PUSH0 PUSH1 0x20 DUP3 ADD SWAP1 POP DUP2 DUP2 SUB PUSH0 DUP4 ADD MSTORE PUSH2 0x343B DUP2 PUSH2 0x3402 JUMP JUMPDEST SWAP1 POP SWAP2 SWAP1 POP JUMP JUMPDEST PUSH0 PUSH1 0x40 DUP3 ADD SWAP1 POP DUP2 DUP2 SUB PUSH0 DUP4 ADD MSTORE PUSH2 0x345A DUP2 DUP6 PUSH2 0x3339 JUMP JUMPDEST SWAP1 POP PUSH2 0x3469 PUSH1 0x20 DUP4 ADD DUP5 PUSH2 0x27F3 JUMP JUMPDEST SWAP4 SWAP3 POP POP POP JUMP JUMPDEST PUSH32 0x4E487B7100000000000000000000000000000000000000000000000000000000 PUSH0 MSTORE PUSH1 0x11 PUSH1 0x4 MSTORE PUSH1 0x24 PUSH0 REVERT JUMPDEST PUSH0 PUSH2 0x34A7 DUP3 PUSH2 0x27EA JUMP JUMPDEST SWAP2 POP PUSH32 0xFFFFFFFFFFFFFFFFFFFFFFFFFFFFFFFFFFFFFFFFFFFFFFFFFFFFFFFFFFFFFFFF DUP3 SUB PUSH2 0x34D9 JUMPI PUSH2 0x34D8 PUSH2 0x3470 JUMP JUMPDEST JUMPDEST PUSH1 0x1 DUP3 ADD SWAP1 POP SWAP2 SWAP1 POP JUMP JUMPDEST PUSH32 0x54687320736F7572636520737472696E67206578636565647320333220627974 PUSH0 DUP3 ADD MSTORE PUSH32 0x6573000000000000000000000000000000000000000000000000000000000000 PUSH1 0x20 DUP3 ADD MSTORE POP JUMP JUMPDEST PUSH0 PUSH2 0x353E PUSH1 0x22 DUP4 PUSH2 0x312F JUMP JUMPDEST SWAP2 POP PUSH2 0x3549 DUP3 PUSH2 0x34E4 JUMP JUMPDEST PUSH1 0x40 DUP3 ADD SWAP1 POP SWAP2 SWAP1 POP JUMP JUMPDEST PUSH0 PUSH1 0x20 DUP3 ADD SWAP1 POP DUP2 DUP2 SUB PUSH0 DUP4 ADD MSTORE PUSH2 0x356B DUP2 PUSH2 0x3532 JUMP JUMPDEST SWAP1 POP SWAP2 SWAP1 POP JUMP JUMPDEST PUSH32 0x496E73756666696369656E7420426F7820636E74000000000000000000000000 PUSH0 DUP3 ADD MSTORE POP JUMP JUMPDEST PUSH0 PUSH2 0x35A6 PUSH1 0x14 DUP4 PUSH2 0x312F JUMP JUMPDEST SWAP2 POP PUSH2 0x35B1 DUP3 PUSH2 0x3572 JUMP JUMPDEST PUSH1 0x20 DUP3 ADD SWAP1 POP SWAP2 SWAP1 POP JUMP JUMPDEST PUSH0 PUSH1 0x20 DUP3 ADD SWAP1 POP DUP2 DUP2 SUB PUSH0 DUP4 ADD MSTORE PUSH2 0x35D3 DUP2 PUSH2 0x359A JUMP JUMPDEST SWAP1 POP SWAP2 SWAP1 POP JUMP JUMPDEST PUSH32 0x496E73756666696369656E7420426F782062616C616E63650000000000000000 PUSH0 DUP3 ADD MSTORE POP JUMP JUMPDEST PUSH0 PUSH2 0x360E PUSH1 0x18 DUP4 PUSH2 0x312F JUMP JUMPDEST SWAP2 POP PUSH2 0x3619 DUP3 PUSH2 0x35DA JUMP JUMPDEST PUSH1 0x20 DUP3 ADD SWAP1 POP SWAP2 SWAP1 POP JUMP JUMPDEST PUSH0 PUSH1 0x20 DUP3 ADD SWAP1 POP DUP2 DUP2 SUB PUSH0 DUP4 ADD MSTORE PUSH2 0x363B DUP2 PUSH2 0x3602 JUMP JUMPDEST SWAP1 POP SWAP2 SWAP1 POP JUMP JUMPDEST PUSH32 0x4E487B7100000000000000000000000000000000000000000000000000000000 PUSH0 MSTORE PUSH1 0x21 PUSH1 0x4 MSTORE PUSH1 0x24 PUSH0 REVERT JUMPDEST PUSH1 0x2 DUP2 LT PUSH2 0x3680 JUMPI PUSH2 0x367F PUSH2 0x3642 JUMP JUMPDEST JUMPDEST POP JUMP JUMPDEST PUSH0 DUP2 SWAP1 POP PUSH2 0x3690 DUP3 PUSH2 0x366F JUMP JUMPDEST SWAP2 SWAP1 POP JUMP JUMPDEST PUSH0 PUSH2 0x369F DUP3 PUSH2 0x3683 JUMP JUMPDEST SWAP1 POP SWAP2 SWAP1 POP JUMP JUMPDEST PUSH2 0x36AF DUP2 PUSH2 0x3695 JUMP JUMPDEST DUP3 MSTORE POP POP JUMP JUMPDEST PUSH0 PUSH1 0xA0 DUP3 ADD SWAP1 POP DUP2 DUP2 SUB PUSH0 DUP4 ADD MSTORE PUSH2 0x36CD DUP2 DUP9 PUSH2 0x3339 JUMP JUMPDEST SWAP1 POP PUSH2 0x36DC PUSH1 0x20 DUP4 ADD DUP8 PUSH2 0x27F3 JUMP JUMPDEST PUSH2 0x36E9 PUSH1 0x40 DUP4 ADD DUP7 PUSH2 0x27F3 JUMP JUMPDEST PUSH2 0x36F6 PUSH1 0x60 DUP4 ADD DUP6 PUSH2 0x36A6 JUMP JUMPDEST PUSH2 0x3703 PUSH1 0x80 DUP4 ADD DUP5 PUSH2 0x27F3 JUMP JUMPDEST SWAP7 SWAP6 POP POP POP POP POP POP JUMP JUMPDEST PUSH32 0x496E73756666696369656E7420636C61696D20616D6F756E7400000000000000 PUSH0 DUP3 ADD MSTORE POP JUMP JUMPDEST PUSH0 PUSH2 0x3741 PUSH1 0x19 DUP4 PUSH2 0x312F JUMP JUMPDEST SWAP2 POP PUSH2 0x374C DUP3 PUSH2 0x370D JUMP JUMPDEST PUSH1 0x20 DUP3 ADD SWAP1 POP SWAP2 SWAP1 POP JUMP JUMPDEST PUSH0 PUSH1 0x20 DUP3 ADD SWAP1 POP DUP2 DUP2 SUB PUSH0 DUP4 ADD MSTORE PUSH2 0x376E DUP2 PUSH2 0x3735 JUMP JUMPDEST SWAP1 POP SWAP2 SWAP1 POP JUMP JUMPDEST PUSH32 0x496E73756666696369656E742070617920616D6F756E74000000000000000000 PUSH0 DUP3 ADD MSTORE POP JUMP JUMPDEST PUSH0 PUSH2 0x37A9 PUSH1 0x17 DUP4 PUSH2 0x312F JUMP JUMPDEST SWAP2 POP PUSH2 0x37B4 DUP3 PUSH2 0x3775 JUMP JUMPDEST PUSH1 0x20 DUP3 ADD SWAP1 POP SWAP2 SWAP1 POP JUMP JUMPDEST PUSH0 PUSH1 0x20 DUP3 ADD SWAP1 POP DUP2 DUP2 SUB PUSH0 DUP4 ADD MSTORE PUSH2 0x37D6 DUP2 PUSH2 0x379D JUMP JUMPDEST SWAP1 POP SWAP2 SWAP1 POP JUMP JUMPDEST PUSH32 0x546865206D657461206578697374000000000000000000000000000000000000 PUSH0 DUP3 ADD MSTORE POP JUMP JUMPDEST PUSH0 PUSH2 0x3811 PUSH1 0xE DUP4 PUSH2 0x312F JUMP JUMPDEST SWAP2 POP PUSH2 0x381C DUP3 PUSH2 0x37DD JUMP JUMPDEST PUSH1 0x20 DUP3 ADD SWAP1 POP SWAP2 SWAP1 POP JUMP JUMPDEST PUSH0 PUSH1 0x20 DUP3 ADD SWAP1 POP DUP2 DUP2 SUB PUSH0 DUP4 ADD MSTORE PUSH2 0x383E DUP2 PUSH2 0x3805 JUMP JUMPDEST SWAP1 POP SWAP2 SWAP1 POP JUMP JUMPDEST PUSH0 DUP2 PUSH1 0x60 SHL SWAP1 POP SWAP2 SWAP1 POP JUMP JUMPDEST PUSH0 PUSH2 0x385B DUP3 PUSH2 0x3845 JUMP JUMPDEST SWAP1 POP SWAP2 SWAP1 POP JUMP JUMPDEST PUSH0 PUSH2 0x386C DUP3 PUSH2 0x3851 JUMP JUMPDEST SWAP1 POP SWAP2 SWAP1 POP JUMP JUMPDEST PUSH2 0x3884 PUSH2 0x387F DUP3 PUSH2 0x2D98 JUMP JUMPDEST PUSH2 0x3862 JUMP JUMPDEST DUP3 MSTORE POP POP JUMP JUMPDEST PUSH0 DUP2 SWAP1 POP SWAP3 SWAP2 POP POP JUMP JUMPDEST PUSH0 PUSH2 0x389E DUP3 PUSH2 0x332F JUMP JUMPDEST PUSH2 0x38A8 DUP2 DUP6 PUSH2 0x388A JUMP JUMPDEST SWAP4 POP PUSH2 0x38B8 DUP2 DUP6 PUSH1 0x20 DUP7 ADD PUSH2 0x2C5B JUMP JUMPDEST DUP1 DUP5 ADD SWAP2 POP POP SWAP3 SWAP2 POP POP JUMP JUMPDEST PUSH0 DUP2 SWAP1 POP SWAP2 SWAP1 POP JUMP JUMPDEST PUSH2 0x38DE PUSH2 0x38D9 DUP3 PUSH2 0x27EA JUMP JUMPDEST PUSH2 0x38C4 JUMP JUMPDEST DUP3 MSTORE POP POP JUMP JUMPDEST PUSH0 PUSH2 0x38EF DUP3 DUP7 PUSH2 0x3873 JUMP JUMPDEST PUSH1 0x14 DUP3 ADD SWAP2 POP PUSH2 0x38FF DUP3 DUP6 PUSH2 0x3894 JUMP JUMPDEST SWAP2 POP PUSH2 0x390B DUP3 DUP5 PUSH2 0x38CD JUMP JUMPDEST PUSH1 0x20 DUP3 ADD SWAP2 POP DUP2 SWAP1 POP SWAP5 SWAP4 POP POP POP POP JUMP JUMPDEST PUSH32 0x546865207369676E617475726520697320696E76616C69640000000000000000 PUSH0 DUP3 ADD MSTORE POP JUMP JUMPDEST PUSH0 PUSH2 0x3950 PUSH1 0x18 DUP4 PUSH2 0x312F JUMP JUMPDEST SWAP2 POP PUSH2 0x395B DUP3 PUSH2 0x391C JUMP JUMPDEST PUSH1 0x20 DUP3 ADD SWAP1 POP SWAP2 SWAP1 POP JUMP JUMPDEST PUSH0 PUSH1 0x20 DUP3 ADD SWAP1 POP DUP2 DUP2 SUB PUSH0 DUP4 ADD MSTORE PUSH2 0x397D DUP2 PUSH2 0x3944 JUMP JUMPDEST SWAP1 POP SWAP2 SWAP1 POP JUMP JUMPDEST PUSH0 DUP2 PUSH1 0x1 SHR SWAP1 POP SWAP2 SWAP1 POP JUMP JUMPDEST PUSH0 DUP1 DUP3 SWAP2 POP DUP4 SWAP1 POP JUMPDEST PUSH1 0x1 DUP6 GT ISZERO PUSH2 0x39D9 JUMPI DUP1 DUP7 DIV DUP2 GT ISZERO PUSH2 0x39B5 JUMPI PUSH2 0x39B4 PUSH2 0x3470 JUMP JUMPDEST JUMPDEST PUSH1 0x1 DUP6 AND ISZERO PUSH2 0x39C4 JUMPI DUP1 DUP3 MUL SWAP2 POP JUMPDEST DUP1 DUP2 MUL SWAP1 POP PUSH2 0x39D2 DUP6 PUSH2 0x3984 JUMP JUMPDEST SWAP5 POP PUSH2 0x3999 JUMP JUMPDEST SWAP5 POP SWAP5 SWAP3 POP POP POP JUMP JUMPDEST PUSH0 DUP3 PUSH2 0x39F1 JUMPI PUSH1 0x1 SWAP1 POP PUSH2 0x3AAC JUMP JUMPDEST DUP2 PUSH2 0x39FE JUMPI PUSH0 SWAP1 POP PUSH2 0x3AAC JUMP JUMPDEST DUP2 PUSH1 0x1 DUP2 EQ PUSH2 0x3A14 JUMPI PUSH1 0x2 DUP2 EQ PUSH2 0x3A1E JUMPI PUSH2 0x3A4D JUMP JUMPDEST PUSH1 0x1 SWAP2 POP POP PUSH2 0x3AAC JUMP JUMPDEST PUSH1 0xFF DUP5 GT ISZERO PUSH2 0x3A30 JUMPI PUSH2 0x3A2F PUSH2 0x3470 JUMP JUMPDEST JUMPDEST DUP4 PUSH1 0x2 EXP SWAP2 POP DUP5 DUP3 GT ISZERO PUSH2 0x3A47 JUMPI PUSH2 0x3A46 PUSH2 0x3470 JUMP JUMPDEST JUMPDEST POP PUSH2 0x3AAC JUMP JUMPDEST POP PUSH1 0x20 DUP4 LT PUSH2 0x133 DUP4 LT AND PUSH1 0x4E DUP5 LT PUSH1 0xB DUP5 LT AND OR ISZERO PUSH2 0x3A82 JUMPI DUP3 DUP3 EXP SWAP1 POP DUP4 DUP2 GT ISZERO PUSH2 0x3A7D JUMPI PUSH2 0x3A7C PUSH2 0x3470 JUMP JUMPDEST JUMPDEST PUSH2 0x3AAC JUMP JUMPDEST PUSH2 0x3A8F DUP5 DUP5 DUP5 PUSH1 0x1 PUSH2 0x3990 JUMP JUMPDEST SWAP3 POP SWAP1 POP DUP2 DUP5 DIV DUP2 GT ISZERO PUSH2 0x3AA6 JUMPI PUSH2 0x3AA5 PUSH2 0x3470 JUMP JUMPDEST JUMPDEST DUP2 DUP2 MUL SWAP1 POP JUMPDEST SWAP4 SWAP3 POP POP POP JUMP JUMPDEST PUSH0 PUSH1 0xFF DUP3 AND SWAP1 POP SWAP2 SWAP1 POP JUMP JUMPDEST PUSH0 PUSH2 0x3AC9 DUP3 PUSH2 0x27EA JUMP JUMPDEST SWAP2 POP PUSH2 0x3AD4 DUP4 PUSH2 0x3AB3 JUMP JUMPDEST SWAP3 POP PUSH2 0x3B01 PUSH32 0xFFFFFFFFFFFFFFFFFFFFFFFFFFFFFFFFFFFFFFFFFFFFFFFFFFFFFFFFFFFFFFFF DUP5 DUP5 PUSH2 0x39E2 JUMP JUMPDEST SWAP1 POP SWAP3 SWAP2 POP POP JUMP JUMPDEST PUSH32 0x6D7574695F7369676E206973207A65726F206164647265737373000000000000 PUSH0 DUP3 ADD MSTORE POP JUMP JUMPDEST PUSH0 PUSH2 0x3B3D PUSH1 0x1A DUP4 PUSH2 0x312F JUMP JUMPDEST SWAP2 POP PUSH2 0x3B48 DUP3 PUSH2 0x3B09 JUMP JUMPDEST PUSH1 0x20 DUP3 ADD SWAP1 POP SWAP2 SWAP1 POP JUMP JUMPDEST PUSH0 PUSH1 0x20 DUP3 ADD SWAP1 POP DUP2 DUP2 SUB PUSH0 DUP4 ADD MSTORE PUSH2 0x3B6A DUP2 PUSH2 0x3B31 JUMP JUMPDEST SWAP1 POP SWAP2 SWAP1 POP JUMP JUMPDEST PUSH0 PUSH2 0x3B7B DUP3 PUSH2 0x27EA JUMP JUMPDEST SWAP2 POP PUSH2 0x3B86 DUP4 PUSH2 0x27EA JUMP JUMPDEST SWAP3 POP DUP3 DUP3 MUL PUSH2 0x3B94 DUP2 PUSH2 0x27EA JUMP JUMPDEST SWAP2 POP DUP3 DUP3 DIV DUP5 EQ DUP4 ISZERO OR PUSH2 0x3BAB JUMPI PUSH2 0x3BAA PUSH2 0x3470 JUMP JUMPDEST JUMPDEST POP SWAP3 SWAP2 POP POP JUMP JUMPDEST PUSH0 PUSH2 0x3BBC DUP3 PUSH2 0x27EA JUMP JUMPDEST SWAP2 POP PUSH2 0x3BC7 DUP4 PUSH2 0x27EA JUMP JUMPDEST SWAP3 POP DUP3 DUP3 ADD SWAP1 POP DUP1 DUP3 GT ISZERO PUSH2 0x3BDF JUMPI PUSH2 0x3BDE PUSH2 0x3470 JUMP JUMPDEST JUMPDEST SWAP3 SWAP2 POP POP JUMP JUMPDEST PUSH0 PUSH2 0x3BEF DUP3 PUSH2 0x27EA JUMP JUMPDEST SWAP2 POP PUSH2 0x3BFA DUP4 PUSH2 0x27EA JUMP JUMPDEST SWAP3 POP DUP3 DUP3 SUB SWAP1 POP DUP2 DUP2 GT ISZERO PUSH2 0x3C12 JUMPI PUSH2 0x3C11 PUSH2 0x3470 JUMP JUMPDEST JUMPDEST SWAP3 SWAP2 POP POP JUMP JUMPDEST PUSH32 0x4E487B7100000000000000000000000000000000000000000000000000000000 PUSH0 MSTORE PUSH1 0x12 PUSH1 0x4 MSTORE PUSH1 0x24 PUSH0 REVERT JUMPDEST PUSH0 PUSH2 0x3C4F DUP3 PUSH2 0x27EA JUMP JUMPDEST SWAP2 POP PUSH2 0x3C5A DUP4 PUSH2 0x27EA JUMP JUMPDEST SWAP3 POP DUP3 PUSH2 0x3C6A JUMPI PUSH2 0x3C69 PUSH2 0x3C18 JUMP JUMPDEST JUMPDEST DUP3 DUP3 DIV SWAP1 POP SWAP3 SWAP2 POP POP JUMP JUMPDEST PUSH0 DUP2 SWAP1 POP SWAP2 SWAP1 POP JUMP JUMPDEST PUSH2 0x3C87 DUP2 PUSH2 0x3C75 JUMP JUMPDEST DUP3 MSTORE POP POP JUMP JUMPDEST PUSH0 PUSH1 0x20 DUP3 ADD SWAP1 POP PUSH2 0x3CA0 PUSH0 DUP4 ADD DUP5 PUSH2 0x3C7E JUMP JUMPDEST SWAP3 SWAP2 POP POP JUMP JUMPDEST PUSH2 0x3CAF DUP2 PUSH2 0x3AB3 JUMP JUMPDEST DUP3 MSTORE POP POP JUMP JUMPDEST PUSH0 PUSH1 0x80 DUP3 ADD SWAP1 POP PUSH2 0x3CC8 PUSH0 DUP4 ADD DUP8 PUSH2 0x3C7E JUMP JUMPDEST PUSH2 0x3CD5 PUSH1 0x20 DUP4 ADD DUP7 PUSH2 0x3CA6 JUMP JUMPDEST PUSH2 0x3CE2 PUSH1 0x40 DUP4 ADD DUP6 PUSH2 0x3C7E JUMP JUMPDEST PUSH2 0x3CEF PUSH1 0x60 DUP4 ADD DUP5 PUSH2 0x3C7E JUMP JUMPDEST SWAP6 SWAP5 POP POP POP POP POP JUMP INVALID LOG2 PUSH5 0x6970667358 0x22 SLT KECCAK256 BASEFEE 0xF PUSH16 0xCC2F9ED47352A413B819FF05441E2CFD PUSH10 0xC0AEE52C95538A9732CE RETURNDATACOPY SSTORE PUSH5 0x736F6C6343 STOP ADDMOD EQ STOP CALLER "
				},
				"gasEstimates": {
					"creation": {
						"codeDepositCost": "3132400",
						"executionCost": "infinite",
						"totalCost": "infinite"
					},
					"external": {
						"BOX_FARM_FEE()": "2472",
						"BOX_OWNER_FEE()": "2536",
						"BOX_PLATFORM_FEE()": "2493",
						"BOX_SALE_CNT()": "370",
						"BOX_SALE_PERIOD()": "393",
						"BOX_TRADE_FEE()": "2492",
						"PER_BOX_GAS()": "413",
						"PER_BOX_PRICE()": "415",
						"_boxPrices(uint256)": "infinite",
						"_metaBoxBalance(bytes,address)": "infinite",
						"_mutiSign()": "2619",
						"_nonces(address)": "2847",
						"_signOwner()": "2554",
						"_stringToBytes(string)": "infinite",
						"boxAllocate(string,(uint256,uint256)[])": "infinite",
						"boxBuy(string,uint256)": "infinite",
						"boxClaim(string)": "infinite",
						"boxPreSale(string,uint256)": "infinite",
						"boxSell(string,uint256)": "infinite",
						"calculateBoxPrice(uint256)": "infinite",
						"getBoxCnt(string,address)": "infinite",
						"getBuyAmount(string,uint256)": "infinite",
						"getSellAmount(string,uint256)": "infinite",
						"owner()": "2560",
						"renounceOwnership()": "infinite",
						"setBoxFee(uint256,uint256,uint256)": "infinite",
						"setBoxPrice((uint256,uint256)[])": "infinite",
						"setMutiSign(address)": "infinite",
						"startBox(string,bytes)": "infinite",
						"transferOwnership(address)": "infinite"
					},
					"internal": {
						"calculateBuyAmount(bytes memory,uint256)": "infinite",
						"calculateSellAmount(bytes memory,uint256)": "infinite",
						"distributeFees(bytes memory,uint256)": "infinite",
						"pushAddressArray(bytes memory,address)": "infinite",
						"sqrt(uint256)": "infinite"
					}
				},
				"methodIdentifiers": {
					"BOX_FARM_FEE()": "0b775510",
					"BOX_OWNER_FEE()": "c724940f",
					"BOX_PLATFORM_FEE()": "3beab570",
					"BOX_SALE_CNT()": "5085d4d8",
					"BOX_SALE_PERIOD()": "8690e716",
					"BOX_TRADE_FEE()": "ba7d5bfd",
					"PER_BOX_GAS()": "e20f7997",
					"PER_BOX_PRICE()": "44ed635a",
					"_boxPrices(uint256)": "52a13a56",
					"_metaBoxBalance(bytes,address)": "20b638b8",
					"_mutiSign()": "b791fd9f",
					"_nonces(address)": "b9844d8d",
					"_signOwner()": "73db533d",
					"_stringToBytes(string)": "1b4f7e28",
					"boxAllocate(string,(uint256,uint256)[])": "10225b48",
					"boxBuy(string,uint256)": "909aa42a",
					"boxClaim(string)": "86bde413",
					"boxPreSale(string,uint256)": "0f09e5e2",
					"boxSell(string,uint256)": "2be32d32",
					"calculateBoxPrice(uint256)": "c5695aef",
					"getBoxCnt(string,address)": "30762af7",
					"getBuyAmount(string,uint256)": "de2fe26a",
					"getSellAmount(string,uint256)": "473d833c",
					"owner()": "8da5cb5b",
					"renounceOwnership()": "715018a6",
					"setBoxFee(uint256,uint256,uint256)": "116643c5",
					"setBoxPrice((uint256,uint256)[])": "51c651a8",
					"setMutiSign(address)": "cc9d1974",
					"startBox(string,bytes)": "ad006b2f",
					"transferOwnership(address)": "f2fde38b"
				}
			},
			"storageLayout": {
				"storage": [
					{
						"astId": 8,
						"contract": "box/box_allocate.sol:DeboxBoxAllocate",
						"label": "_owner",
						"offset": 0,
						"slot": "0",
						"type": "t_address"
					},
					{
						"astId": 902,
						"contract": "box/box_allocate.sol:DeboxBoxAllocate",
						"label": "BOX_TRADE_FEE",
						"offset": 0,
						"slot": "1",
						"type": "t_uint256"
					},
					{
						"astId": 905,
						"contract": "box/box_allocate.sol:DeboxBoxAllocate",
						"label": "BOX_OWNER_FEE",
						"offset": 0,
						"slot": "2",
						"type": "t_uint256"
					},
					{
						"astId": 908,
						"contract": "box/box_allocate.sol:DeboxBoxAllocate",
						"label": "BOX_PLATFORM_FEE",
						"offset": 0,
						"slot": "3",
						"type": "t_uint256"
					},
					{
						"astId": 911,
						"contract": "box/box_allocate.sol:DeboxBoxAllocate",
						"label": "BOX_FARM_FEE",
						"offset": 0,
						"slot": "4",
						"type": "t_uint256"
					},
					{
						"astId": 915,
						"contract": "box/box_allocate.sol:DeboxBoxAllocate",
						"label": "_nonces",
						"offset": 0,
						"slot": "5",
						"type": "t_mapping(t_address,t_uint256)"
					},
					{
						"astId": 918,
						"contract": "box/box_allocate.sol:DeboxBoxAllocate",
						"label": "_signOwner",
						"offset": 0,
						"slot": "6",
						"type": "t_address"
					},
					{
						"astId": 924,
						"contract": "box/box_allocate.sol:DeboxBoxAllocate",
						"label": "_metaBoxBalance",
						"offset": 0,
						"slot": "7",
						"type": "t_mapping(t_bytes_memory_ptr,t_mapping(t_address,t_uint256))"
					},
					{
						"astId": 929,
						"contract": "box/box_allocate.sol:DeboxBoxAllocate",
						"label": "_metaBoxs",
						"offset": 0,
						"slot": "8",
						"type": "t_mapping(t_bytes_memory_ptr,t_struct(BoxMeta)852_storage)"
					},
					{
						"astId": 935,
						"contract": "box/box_allocate.sol:DeboxBoxAllocate",
						"label": "_boxPreOrders",
						"offset": 0,
						"slot": "9",
						"type": "t_mapping(t_bytes_memory_ptr,t_array(t_struct(BoxPreOrder)859_storage)dyn_storage)"
					},
					{
						"astId": 939,
						"contract": "box/box_allocate.sol:DeboxBoxAllocate",
						"label": "_boxPrices",
						"offset": 0,
						"slot": "10",
						"type": "t_mapping(t_uint256,t_uint256)"
					},
					{
						"astId": 944,
						"contract": "box/box_allocate.sol:DeboxBoxAllocate",
						"label": "_boxFeeMeta",
						"offset": 0,
						"slot": "11",
						"type": "t_mapping(t_bytes_memory_ptr,t_struct(BoxFeeMeta)881_storage)"
					},
					{
						"astId": 946,
						"contract": "box/box_allocate.sol:DeboxBoxAllocate",
						"label": "_mutiSign",
						"offset": 0,
						"slot": "12",
						"type": "t_address_payable"
					}
				],
				"types": {
					"t_address": {
						"encoding": "inplace",
						"label": "address",
						"numberOfBytes": "20"
					},
					"t_address_payable": {
						"encoding": "inplace",
						"label": "address payable",
						"numberOfBytes": "20"
					},
					"t_array(t_address)dyn_storage": {
						"base": "t_address",
						"encoding": "dynamic_array",
						"label": "address[]",
						"numberOfBytes": "32"
					},
					"t_array(t_struct(BoxPreOrder)859_storage)dyn_storage": {
						"base": "t_struct(BoxPreOrder)859_storage",
						"encoding": "dynamic_array",
						"label": "struct DeboxBoxAllocate.BoxPreOrder[]",
						"numberOfBytes": "32"
					},
					"t_bool": {
						"encoding": "inplace",
						"label": "bool",
						"numberOfBytes": "1"
					},
					"t_bytes_memory_ptr": {
						"encoding": "bytes",
						"label": "bytes",
						"numberOfBytes": "32"
					},
					"t_mapping(t_address,t_uint256)": {
						"encoding": "mapping",
						"key": "t_address",
						"label": "mapping(address => uint256)",
						"numberOfBytes": "32",
						"value": "t_uint256"
					},
					"t_mapping(t_bytes_memory_ptr,t_array(t_struct(BoxPreOrder)859_storage)dyn_storage)": {
						"encoding": "mapping",
						"key": "t_bytes_memory_ptr",
						"label": "mapping(bytes => struct DeboxBoxAllocate.BoxPreOrder[])",
						"numberOfBytes": "32",
						"value": "t_array(t_struct(BoxPreOrder)859_storage)dyn_storage"
					},
					"t_mapping(t_bytes_memory_ptr,t_mapping(t_address,t_uint256))": {
						"encoding": "mapping",
						"key": "t_bytes_memory_ptr",
						"label": "mapping(bytes => mapping(address => uint256))",
						"numberOfBytes": "32",
						"value": "t_mapping(t_address,t_uint256)"
					},
					"t_mapping(t_bytes_memory_ptr,t_struct(BoxFeeMeta)881_storage)": {
						"encoding": "mapping",
						"key": "t_bytes_memory_ptr",
						"label": "mapping(bytes => struct DeboxBoxAllocate.BoxFeeMeta)",
						"numberOfBytes": "32",
						"value": "t_struct(BoxFeeMeta)881_storage"
					},
					"t_mapping(t_bytes_memory_ptr,t_struct(BoxMeta)852_storage)": {
						"encoding": "mapping",
						"key": "t_bytes_memory_ptr",
						"label": "mapping(bytes => struct DeboxBoxAllocate.BoxMeta)",
						"numberOfBytes": "32",
						"value": "t_struct(BoxMeta)852_storage"
					},
					"t_mapping(t_uint256,t_uint256)": {
						"encoding": "mapping",
						"key": "t_uint256",
						"label": "mapping(uint256 => uint256)",
						"numberOfBytes": "32",
						"value": "t_uint256"
					},
					"t_struct(BoxFeeMeta)881_storage": {
						"encoding": "inplace",
						"label": "struct DeboxBoxAllocate.BoxFeeMeta",
						"members": [
							{
								"astId": 872,
								"contract": "box/box_allocate.sol:DeboxBoxAllocate",
								"label": "addressArray",
								"offset": 0,
								"slot": "0",
								"type": "t_array(t_address)dyn_storage"
							},
							{
								"astId": 876,
								"contract": "box/box_allocate.sol:DeboxBoxAllocate",
								"label": "addressArrayIndex",
								"offset": 0,
								"slot": "1",
								"type": "t_mapping(t_address,t_uint256)"
							},
							{
								"astId": 880,
								"contract": "box/box_allocate.sol:DeboxBoxAllocate",
								"label": "boxClaims",
								"offset": 0,
								"slot": "2",
								"type": "t_mapping(t_address,t_uint256)"
							}
						],
						"numberOfBytes": "96"
					},
					"t_struct(BoxMeta)852_storage": {
						"encoding": "inplace",
						"label": "struct DeboxBoxAllocate.BoxMeta",
						"members": [
							{
								"astId": 843,
								"contract": "box/box_allocate.sol:DeboxBoxAllocate",
								"label": "owner",
								"offset": 0,
								"slot": "0",
								"type": "t_address"
							},
							{
								"astId": 845,
								"contract": "box/box_allocate.sol:DeboxBoxAllocate",
								"label": "expireTime",
								"offset": 0,
								"slot": "1",
								"type": "t_uint256"
							},
							{
								"astId": 847,
								"contract": "box/box_allocate.sol:DeboxBoxAllocate",
								"label": "saleCnt",
								"offset": 0,
								"slot": "2",
								"type": "t_uint256"
							},
							{
								"astId": 849,
								"contract": "box/box_allocate.sol:DeboxBoxAllocate",
								"label": "tradeCnt",
								"offset": 0,
								"slot": "3",
								"type": "t_uint256"
							},
							{
								"astId": 851,
								"contract": "box/box_allocate.sol:DeboxBoxAllocate",
								"label": "rewards",
								"offset": 0,
								"slot": "4",
								"type": "t_uint256"
							}
						],
						"numberOfBytes": "160"
					},
					"t_struct(BoxPreOrder)859_storage": {
						"encoding": "inplace",
						"label": "struct DeboxBoxAllocate.BoxPreOrder",
						"members": [
							{
								"astId": 854,
								"contract": "box/box_allocate.sol:DeboxBoxAllocate",
								"label": "cnt",
								"offset": 0,
								"slot": "0",
								"type": "t_uint256"
							},
							{
								"astId": 856,
								"contract": "box/box_allocate.sol:DeboxBoxAllocate",
								"label": "owner",
								"offset": 0,
								"slot": "1",
								"type": "t_address"
							},
							{
								"astId": 858,
								"contract": "box/box_allocate.sol:DeboxBoxAllocate",
								"label": "allocate",
								"offset": 20,
								"slot": "1",
								"type": "t_bool"
							}
						],
						"numberOfBytes": "64"
					},
					"t_uint256": {
						"encoding": "inplace",
						"label": "uint256",
						"numberOfBytes": "32"
					}
				}
			},
			"userdoc": {
				"kind": "user",
				"methods": {},
				"notice": "Allocate box",
				"version": 1
			}
		}
	}
}