{
	"data": {
		"bytecode": {
			"linkReferences": {},
			"object": "6080604052600a6002556004600355600260045560046005557396216849c49358b10257cb55b28ea603c874b05e60075f6101000a81548173ffffffffffffffffffffffffffffffffffffffff021916908373ffffffffffffffffffffffffffffffffffffffff16021790555034801562000078575f80fd5b50335f73ffffffffffffffffffffffffffffffffffffffff168173ffffffffffffffffffffffffffffffffffffffff1603620000ed575f6040517f1e4fbdf7000000000000000000000000000000000000000000000000000000008152600401620000e4919062000250565b60405180910390fd5b620000fe816200014c60201b60201c565b506001808190555033600c5f6101000a81548173ffffffffffffffffffffffffffffffffffffffff021916908373ffffffffffffffffffffffffffffffffffffffff1602179055506200026b565b5f805f9054906101000a900473ffffffffffffffffffffffffffffffffffffffff169050815f806101000a81548173ffffffffffffffffffffffffffffffffffffffff021916908373ffffffffffffffffffffffffffffffffffffffff1602179055508173ffffffffffffffffffffffffffffffffffffffff168173ffffffffffffffffffffffffffffffffffffffff167f8be0079c531659141344cd1fd0a4f28419497f9722a3daafe3b4186f6b6457e060405160405180910390a35050565b5f73ffffffffffffffffffffffffffffffffffffffff82169050919050565b5f62000238826200020d565b9050919050565b6200024a816200022c565b82525050565b5f602082019050620002655f8301846200023f565b92915050565b613f4780620002795f395ff3fe6080604052600436106101b6575f3560e01c80639cff2903116100eb578063bd9b09d511610089578063d436d0ef11610063578063d436d0ef146105df578063e20f799714610607578063e6636f5414610631578063f2fde38b1461066e576101b6565b8063bd9b09d514610551578063c724940f1461058d578063cb7a297c146105b7576101b6565b8063a9773e07116100c5578063a9773e0714610485578063ad006b2f146104c3578063b9844d8d146104eb578063ba7d5bfd14610527576101b6565b80639cff2903146103f8578063a1945ec614610420578063a360c65914610448576101b6565b806352a13a561161015857806373db533d1161013257806373db533d1461035e5780638690e716146103885780638da5cb5b146103b25780639bd53249146103dc576101b6565b806352a13a56146102e2578063534e996e1461031e578063715018a614610348576101b6565b80633beab570116101945780633beab5701461024857806344ed635a146102725780634d9d06221461029c5780635085d4d8146102b8576101b6565b80630b775510146101ba578063116643c5146101e45780631b4f7e281461020c575b5f80fd5b3480156101c5575f80fd5b506101ce610696565b6040516101db91906127bf565b60405180910390f35b3480156101ef575f80fd5b5061020a60048036038101906102059190612813565b61069c565b005b348015610217575f80fd5b50610232600480360381019061022d919061299f565b6106e1565b60405161023f9190612a60565b60405180910390f35b348015610253575f80fd5b5061025c610735565b60405161026991906127bf565b60405180910390f35b34801561027d575f80fd5b5061028661073b565b60405161029391906127bf565b60405180910390f35b6102b660048036038101906102b19190612b1e565b610745565b005b3480156102c3575f80fd5b506102cc610a46565b6040516102d991906127bf565b60405180910390f35b3480156102ed575f80fd5b5061030860048036038101906103039190612b78565b610a4b565b60405161031591906127bf565b60405180910390f35b348015610329575f80fd5b50610332610a60565b60405161033f9190612be2565b60405180910390f35b348015610353575f80fd5b5061035c610a85565b005b348015610369575f80fd5b50610372610a98565b60405161037f9190612c1b565b60405180910390f35b348015610393575f80fd5b5061039c610abd565b6040516103a991906127bf565b60405180910390f35b3480156103bd575f80fd5b506103c6610ac3565b6040516103d39190612c1b565b60405180910390f35b6103f660048036038101906103f19190612b1e565b610aea565b005b348015610403575f80fd5b5061041e60048036038101906104199190612d49565b610cdf565b005b34801561042b575f80fd5b5061044660048036038101906104419190612dbf565b611103565b005b348015610453575f80fd5b5061046e60048036038101906104699190612b1e565b6112dd565b60405161047c929190612e06565b60405180910390f35b348015610490575f80fd5b506104ab60048036038101906104a69190612e57565b6112fe565b6040516104ba93929190612eb1565b60405180910390f35b3480156104ce575f80fd5b506104e960048036038101906104e49190612ee6565b611347565b005b3480156104f6575f80fd5b50610511600480360381019061050c9190612f5c565b6115f5565b60405161051e91906127bf565b60405180910390f35b348015610532575f80fd5b5061053b61160a565b60405161054891906127bf565b60405180910390f35b34801561055c575f80fd5b5061057760048036038101906105729190612e57565b611610565b6040516105849190612fd6565b60405180910390f35b348015610598575f80fd5b506105a16116a1565b6040516105ae91906127bf565b60405180910390f35b3480156105c2575f80fd5b506105dd60048036038101906105d89190612b1e565b6116a7565b005b3480156105ea575f80fd5b5061060560048036038101906106009190612f5c565b6118cd565b005b348015610612575f80fd5b5061061b611986565b60405161062891906127bf565b60405180910390f35b34801561063c575f80fd5b5061065760048036038101906106529190612b1e565b611991565b604051610665929190612e06565b60405180910390f35b348015610679575f80fd5b50610694600480360381019061068f9190612f5c565b6119b2565b005b60055481565b6106a4611a36565b8260038190555081600481905550806005819055506005546004546003546106cc919061301c565b6106d6919061301c565b600281905550505050565b60605f82905060208151111561072c576040517f08c379a0000000000000000000000000000000000000000000000000000000008152600401610723906130cf565b60405180910390fd5b80915050919050565b60045481565b655af3107a400081565b42610e106009846040516107599190613127565b908152602001604051809103902060010154610775919061313d565b111580156107a457504260098360405161078f9190613127565b90815260200160405180910390206001015410155b6107e3576040517f08c379a00000000000000000000000000000000000000000000000000000000081526004016107da906131ba565b60405180910390fd5b5f8111610825576040517f08c379a000000000000000000000000000000000000000000000000000000000815260040161081c90613222565b60405180910390fd5b3466038d7ea4c68000655af3107a4000836108409190613240565b61084a919061301c565b1461088a576040517f08c379a0000000000000000000000000000000000000000000000000000000008152600401610881906132cb565b60405180910390fd5b600a8260405161089a9190613127565b908152602001604051809103902060405180606001604052808381526020013373ffffffffffffffffffffffffffffffffffffffff1681526020015f1515815250908060018154018082558091505060019003905f5260205f2090600202015f909190919091505f820151815f01556020820151816001015f6101000a81548173ffffffffffffffffffffffffffffffffffffffff021916908373ffffffffffffffffffffffffffffffffffffffff16021790555060408201518160010160146101000a81548160ff0219169083151502179055505050806009836040516109829190613127565b90815260200160405180910390206002015461099e919061301c565b6009836040516109ae9190613127565b9081526020016040518091039020600201819055503373ffffffffffffffffffffffffffffffffffffffff167f955e08d4f1aaa23e271dadb85e5eee6d72dbc18c96c6cf64780ea2a939ed15ee836001600a86604051610a0e9190613127565b908152602001604051809103902080549050610a2a919061313d565b84604051610a3a939291906132e9565b60405180910390a25050565b606481565b600b602052805f5260405f205f915090505481565b600c5f9054906101000a900473ffffffffffffffffffffffffffffffffffffffff1681565b610a8d611a36565b610a965f611abd565b565b60075f9054906101000a900473ffffffffffffffffffffffffffffffffffffffff1681565b610e1081565b5f805f9054906101000a900473ffffffffffffffffffffffffffffffffffffffff16905090565b610af2611b7e565b5f8111610b34576040517f08c379a0000000000000000000000000000000000000000000000000000000008152600401610b2b9061336f565b60405180910390fd5b5f80610b408484611bc4565b915091508082610b50919061301c565b3414610b91576040517f08c379a0000000000000000000000000000000000000000000000000000000008152600401610b88906133d7565b60405180910390fd5b8082610b9d919061301c565b341115610c64575f3373ffffffffffffffffffffffffffffffffffffffff16828434610bc9919061313d565b610bd3919061313d565b604051610bdf90613418565b5f6040518083038185875af1925050503d805f8114610c19576040519150601f19603f3d011682016040523d82523d5f602084013e610c1e565b606091505b5050905080610c62576040517f08c379a0000000000000000000000000000000000000000000000000000000008152600401610c5990613476565b60405180910390fd5b505b610c7084846001611cd1565b610c7a8482611e22565b3373ffffffffffffffffffffffffffffffffffffffff167f6ada7bd55903567c89b8327013a71a216038db3df6a649e67b7587196ec9d627858484600188604051610cc9959493929190613507565b60405180910390a25050610cdb612117565b5050565b610ce7611a36565b5f600983604051610cf89190613127565b908152602001604051809103902060010154118015610d37575042600983604051610d239190613127565b908152602001604051809103902060010154105b610d76576040517f08c379a0000000000000000000000000000000000000000000000000000000008152600401610d6d906135a9565b60405180910390fd5b5f600a83604051610d879190613127565b9081526020016040518091039020905081518180549050106110fe575f5b82518110156110fc575f838281518110610dc257610dc16135c7565b5b602002602001015190505f83825f015181548110610de357610de26135c7565b5b905f5260205f20906002020190505f8260200151118015610e1357508060010160149054906101000a900460ff16155b15610f9057805f015482602001511115610e62576040517f08c379a0000000000000000000000000000000000000000000000000000000008152600401610e599061363e565b60405180910390fd5b60018160010160146101000a81548160ff0219169083151502179055508160200151600887604051610e949190613127565b90815260200160405180910390205f836001015f9054906101000a900473ffffffffffffffffffffffffffffffffffffffff1673ffffffffffffffffffffffffffffffffffffffff1673ffffffffffffffffffffffffffffffffffffffff1681526020019081526020015f205f0154610f0d919061301c565b600887604051610f1d9190613127565b90815260200160405180910390205f836001015f9054906101000a900473ffffffffffffffffffffffffffffffffffffffff1673ffffffffffffffffffffffffffffffffffffffff1673ffffffffffffffffffffffffffffffffffffffff1681526020019081526020015f205f01819055505b8160200151815f01541115611094575f655af3107a40008360200151835f0154610fba919061313d565b610fc49190613240565b90505f826001015f9054906101000a900473ffffffffffffffffffffffffffffffffffffffff1673ffffffffffffffffffffffffffffffffffffffff168260405161100e90613418565b5f6040518083038185875af1925050503d805f8114611048576040519150601f19603f3d011682016040523d82523d5f602084013e61104d565b606091505b5050905080611091576040517f08c379a0000000000000000000000000000000000000000000000000000000008152600401611088906136a6565b60405180910390fd5b50505b3373ffffffffffffffffffffffffffffffffffffffff167f08c9e8d098831d9986a518015050dbf5ae39af8120c13cbd80af65bf63d2c84e87845f01516040516110df9291906136c4565b60405180910390a2505080806110f4906136f2565b915050610da5565b505b505050565b5f6008826040516111149190613127565b90815260200160405180910390205f3373ffffffffffffffffffffffffffffffffffffffff1673ffffffffffffffffffffffffffffffffffffffff1681526020019081526020015f2090505f8160020154116111a5576040517f08c379a000000000000000000000000000000000000000000000000000000000815260040161119c90613783565b60405180910390fd5b5f81600201819055506009826040516111be9190613127565b90815260200160405180910390206005015481600101819055505f3373ffffffffffffffffffffffffffffffffffffffff16826002015460405161120190613418565b5f6040518083038185875af1925050503d805f811461123b576040519150601f19603f3d011682016040523d82523d5f602084013e611240565b606091505b5050905080611284576040517f08c379a000000000000000000000000000000000000000000000000000000000815260040161127b906137eb565b60405180910390fd5b3373ffffffffffffffffffffffffffffffffffffffff167f0993e0bd4f9a748f72a00df2734702169394dcc517837226ea1f4eed1e673f328484600201546040516112d09291906136c4565b60405180910390a2505050565b5f805f806112eb8686612120565b9150915081819350935050509250929050565b600882805160208101820180518482526020830160208501208183528095505050505050602052805f5260405f205f9150915050805f0154908060010154908060020154905083565b5f611351836106e1565b90505f6009826040516113649190613127565b908152602001604051809103902060010154146113b6576040517f08c379a00000000000000000000000000000000000000000000000000000000081526004016113ad90613853565b60405180910390fd5b5f338460065f6113c46122cb565b73ffffffffffffffffffffffffffffffffffffffff1673ffffffffffffffffffffffffffffffffffffffff1681526020019081526020015f20546040516020016114109392919061391a565b604051602081830303815290604052805190602001209050611474818460075f9054906101000a900473ffffffffffffffffffffffffffffffffffffffff1673ffffffffffffffffffffffffffffffffffffffff166122d29092919063ffffffff16565b6114b3576040517f08c379a00000000000000000000000000000000000000000000000000000000081526004016114aa9061399c565b60405180910390fd5b5f610e10426114c2919061301c565b90506040518060c001604052803373ffffffffffffffffffffffffffffffffffffffff1681526020018281526020015f81526020015f81526020015f81526020015f8152506009846040516115179190613127565b90815260200160405180910390205f820151815f015f6101000a81548173ffffffffffffffffffffffffffffffffffffffff021916908373ffffffffffffffffffffffffffffffffffffffff1602179055506020820151816001015560408201518160020155606082015181600301556080820151816004015560a082015181600501559050503373ffffffffffffffffffffffffffffffffffffffff167f0f126ec1fbb7d521827771bfb48ef46eb9059c22613c14d6c7e7ffe14d5b52f586836040516115e69291906139f2565b60405180910390a25050505050565b6006602052805f5260405f205f915090505481565b60025481565b611618612789565b6008836040516116289190613127565b90815260200160405180910390205f8373ffffffffffffffffffffffffffffffffffffffff1673ffffffffffffffffffffffffffffffffffffffff1681526020019081526020015f206040518060600160405290815f820154815260200160018201548152602001600282015481525050905092915050565b60035481565b6116af611b7e565b5f81116116f1576040517f08c379a00000000000000000000000000000000000000000000000000000000081526004016116e89061336f565b60405180910390fd5b806008836040516117029190613127565b90815260200160405180910390205f3373ffffffffffffffffffffffffffffffffffffffff1673ffffffffffffffffffffffffffffffffffffffff1681526020019081526020015f205f01541461178e576040517f08c379a000000000000000000000000000000000000000000000000000000000815260040161178590613a6a565b60405180910390fd5b5f8061179a8484612120565b915091505f3373ffffffffffffffffffffffffffffffffffffffff1682846117c2919061313d565b6040516117ce90613418565b5f6040518083038185875af1925050503d805f8114611808576040519150601f19603f3d011682016040523d82523d5f602084013e61180d565b606091505b5050905080611851576040517f08c379a000000000000000000000000000000000000000000000000000000000815260040161184890613ad2565b60405180910390fd5b61185d85856002611cd1565b6118678583611e22565b3373ffffffffffffffffffffffffffffffffffffffff167f6ada7bd55903567c89b8327013a71a216038db3df6a649e67b7587196ec9d6278685856002896040516118b6959493929190613507565b60405180910390a25050506118c9612117565b5050565b6118d5611a36565b8073ffffffffffffffffffffffffffffffffffffffff165f73ffffffffffffffffffffffffffffffffffffffff1603611943576040517f08c379a000000000000000000000000000000000000000000000000000000000815260040161193a90613b3a565b60405180910390fd5b80600c5f6101000a81548173ffffffffffffffffffffffffffffffffffffffff021916908373ffffffffffffffffffffffffffffffffffffffff16021790555050565b66038d7ea4c6800081565b5f805f8061199f8686611bc4565b9150915081819350935050509250929050565b6119ba611a36565b5f73ffffffffffffffffffffffffffffffffffffffff168173ffffffffffffffffffffffffffffffffffffffff1603611a2a575f6040517f1e4fbdf7000000000000000000000000000000000000000000000000000000008152600401611a219190612c1b565b60405180910390fd5b611a3381611abd565b50565b611a3e6122cb565b73ffffffffffffffffffffffffffffffffffffffff16611a5c610ac3565b73ffffffffffffffffffffffffffffffffffffffff1614611abb57611a7f6122cb565b6040517f118cdaa7000000000000000000000000000000000000000000000000000000008152600401611ab29190612c1b565b60405180910390fd5b565b5f805f9054906101000a900473ffffffffffffffffffffffffffffffffffffffff169050815f806101000a81548173ffffffffffffffffffffffffffffffffffffffff021916908373ffffffffffffffffffffffffffffffffffffffff1602179055508173ffffffffffffffffffffffffffffffffffffffff168173ffffffffffffffffffffffffffffffffffffffff167f8be0079c531659141344cd1fd0a4f28419497f9722a3daafe3b4186f6b6457e060405160405180910390a35050565b600260015403611bba576040517f3ee5aeb500000000000000000000000000000000000000000000000000000000815260040160405180910390fd5b6002600181905550565b5f805f8311611c08576040517f08c379a0000000000000000000000000000000000000000000000000000000008152600401611bff9061336f565b60405180910390fd5b5f80600986604051611c1a9190613127565b90815260200160405180910390206003015490505f5b85811015611caf575f600183611c46919061301c565b90505f655af3107a400090506064821115611c8957600b5f8381526020019081526020015f20549050655af3107a40008111611c8857611c858261235f565b90505b5b8085611c95919061301c565b945081935050508080611ca7906136f2565b915050611c30565b505f611cbf83600254606461242f565b90508281945094505050509250929050565b5f821115611e1d575f600884604051611cea9190613127565b90815260200160405180910390205f3373ffffffffffffffffffffffffffffffffffffffff1673ffffffffffffffffffffffffffffffffffffffff1681526020019081526020015f209050805f01548160010154600986604051611d4e9190613127565b908152602001604051809103902060050154611d6a919061313d565b611d749190613240565b816002015f828254611d86919061301c565b9250508190555060016002811115611da157611da0613494565b5b826002811115611db457611db3613494565b5b03611dd75782815f015f828254611dcb919061301c565b92505081905550611df1565b82815f015f828254611de9919061313d565b925050819055505b600984604051611e019190613127565b9081526020016040518091039020600501548160010181905550505b505050565b5f600983604051611e339190613127565b908152602001604051809103902090505f821115612112575f611e5b8360035460025461242f565b9050808260040154611e6d919061301c565b82600401819055505f611e858460055460025461242f565b9050826003015481611e979190613b85565b8360050154611ea6919061301c565b83600501819055505f818386611ebc919061313d565b611ec6919061313d565b90505f845f015f9054906101000a900473ffffffffffffffffffffffffffffffffffffffff1673ffffffffffffffffffffffffffffffffffffffff1684604051611f0f90613418565b5f6040518083038185875af1925050503d805f8114611f49576040519150601f19603f3d011682016040523d82523d5f602084013e611f4e565b606091505b505090505f600c5f9054906101000a900473ffffffffffffffffffffffffffffffffffffffff1673ffffffffffffffffffffffffffffffffffffffff1683604051611f9890613418565b5f6040518083038185875af1925050503d805f8114611fd2576040519150601f19603f3d011682016040523d82523d5f602084013e611fd7565b606091505b50509050818015611fe55750805b612024576040517f08c379a000000000000000000000000000000000000000000000000000000000815260040161201b90613bff565b60405180910390fd5b600c5f9054906101000a900473ffffffffffffffffffffffffffffffffffffffff1673ffffffffffffffffffffffffffffffffffffffff167f146abfc20ac2af0477b300c517feddb4cb533ed3b70378a5ecb298f48ec609d78985600160405161209093929190613c63565b60405180910390a2855f015f9054906101000a900473ffffffffffffffffffffffffffffffffffffffff1673ffffffffffffffffffffffffffffffffffffffff167f146abfc20ac2af0477b300c517feddb4cb533ed3b70378a5ecb298f48ec609d789875f60405161210493929190613c63565b60405180910390a250505050505b505050565b60018081905550565b5f805f8311612164576040517f08c379a000000000000000000000000000000000000000000000000000000000815260040161215b9061336f565b60405180910390fd5b826008856040516121759190613127565b90815260200160405180910390205f3373ffffffffffffffffffffffffffffffffffffffff1673ffffffffffffffffffffffffffffffffffffffff1681526020019081526020015f205f01541015612202576040517f08c379a00000000000000000000000000000000000000000000000000000000081526004016121f990613a6a565b60405180910390fd5b5f806009866040516122149190613127565b90815260200160405180910390206003015490505f5b858110156122a9575f600183612240919061313d565b90505f655af3107a40009050606484111561228357600b5f8581526020019081526020015f20549050655af3107a400081116122825761227f8461235f565b90505b5b808561228f919061301c565b9450819350505080806122a1906136f2565b91505061222a565b505f6122b983600254606461242f565b90508281945094505050509250929050565b5f33905090565b5f805f6122df858561252e565b50915091505f60038111156122f7576122f6613494565b5b81600381111561230a57612309613494565b5b14801561234257508573ffffffffffffffffffffffffffffffffffffffff168273ffffffffffffffffffffffffffffffffffffffff16145b806123545750612353868686612583565b5b925050509392505050565b5f80606490506103e88311156123d75760646003606485612380919061313d565b606461238c9190613240565b6123969190613b85565b600960026103e8876123a8919061313d565b6123b29190613dda565b6123bc9190613b85565b6123c6919061301c565b6123d0919061301c565b9050612415565b606483111561241457606460036064856123f1919061313d565b60646123fd9190613240565b6124079190613b85565b612411919061301c565b90505b5b655af3107a4000816124279190613240565b915050919050565b5f8083850290505f8019858709828110838203039150505f81036124675783828161245d5761245c613b58565b5b0492505050612527565b8084116124a0576040517f227bc15300000000000000000000000000000000000000000000000000000000815260040160405180910390fd5b5f8486880990508281118203915080830392505f855f038616905080860495508084049350600181825f0304019050808302841793505f600287600302189050808702600203810290508087026002038102905080870260020381029050808702600203810290508087026002038102905080870260020381029050808502955050505050505b9392505050565b5f805f604184510361256e575f805f602087015192506040870151915060608701515f1a9050612560888285856126a2565b95509550955050505061257c565b5f600285515f1b9250925092505b9250925092565b5f805f8573ffffffffffffffffffffffffffffffffffffffff1685856040516024016125b0929190613e3c565b604051602081830303815290604052631626ba7e60e01b6020820180517bffffffffffffffffffffffffffffffffffffffffffffffffffffffff83818316178352505050506040516126029190613127565b5f60405180830381855afa9150503d805f811461263a576040519150601f19603f3d011682016040523d82523d5f602084013e61263f565b606091505b509150915081801561265357506020815110155b80156126975750631626ba7e60e01b7bffffffffffffffffffffffffffffffffffffffffffffffffffffffff1916818060200190518101906126959190613e94565b145b925050509392505050565b5f805f7f7fffffffffffffffffffffffffffffff5d576e7357a4501ddfe92f46681b20a0845f1c11156126de575f60038592509250925061277f565b5f6001888888886040515f81526020016040526040516127019493929190613ece565b6020604051602081039080840390855afa158015612721573d5f803e3d5ffd5b5050506020604051035190505f73ffffffffffffffffffffffffffffffffffffffff168173ffffffffffffffffffffffffffffffffffffffff1603612772575f60015f801b9350935093505061277f565b805f805f1b935093509350505b9450945094915050565b60405180606001604052805f81526020015f81526020015f81525090565b5f819050919050565b6127b9816127a7565b82525050565b5f6020820190506127d25f8301846127b0565b92915050565b5f604051905090565b5f80fd5b5f80fd5b6127f2816127a7565b81146127fc575f80fd5b50565b5f8135905061280d816127e9565b92915050565b5f805f6060848603121561282a576128296127e1565b5b5f612837868287016127ff565b9350506020612848868287016127ff565b9250506040612859868287016127ff565b9150509250925092565b5f80fd5b5f80fd5b5f601f19601f8301169050919050565b7f4e487b71000000000000000000000000000000000000000000000000000000005f52604160045260245ffd5b6128b18261286b565b810181811067ffffffffffffffff821117156128d0576128cf61287b565b5b80604052505050565b5f6128e26127d8565b90506128ee82826128a8565b919050565b5f67ffffffffffffffff82111561290d5761290c61287b565b5b6129168261286b565b9050602081019050919050565b828183375f83830152505050565b5f61294361293e846128f3565b6128d9565b90508281526020810184848401111561295f5761295e612867565b5b61296a848285612923565b509392505050565b5f82601f83011261298657612985612863565b5b8135612996848260208601612931565b91505092915050565b5f602082840312156129b4576129b36127e1565b5b5f82013567ffffffffffffffff8111156129d1576129d06127e5565b5b6129dd84828501612972565b91505092915050565b5f81519050919050565b5f82825260208201905092915050565b5f5b83811015612a1d578082015181840152602081019050612a02565b5f8484015250505050565b5f612a32826129e6565b612a3c81856129f0565b9350612a4c818560208601612a00565b612a558161286b565b840191505092915050565b5f6020820190508181035f830152612a788184612a28565b905092915050565b5f67ffffffffffffffff821115612a9a57612a9961287b565b5b612aa38261286b565b9050602081019050919050565b5f612ac2612abd84612a80565b6128d9565b905082815260208101848484011115612ade57612add612867565b5b612ae9848285612923565b509392505050565b5f82601f830112612b0557612b04612863565b5b8135612b15848260208601612ab0565b91505092915050565b5f8060408385031215612b3457612b336127e1565b5b5f83013567ffffffffffffffff811115612b5157612b506127e5565b5b612b5d85828601612af1565b9250506020612b6e858286016127ff565b9150509250929050565b5f60208284031215612b8d57612b8c6127e1565b5b5f612b9a848285016127ff565b91505092915050565b5f73ffffffffffffffffffffffffffffffffffffffff82169050919050565b5f612bcc82612ba3565b9050919050565b612bdc81612bc2565b82525050565b5f602082019050612bf55f830184612bd3565b92915050565b5f612c0582612ba3565b9050919050565b612c1581612bfb565b82525050565b5f602082019050612c2e5f830184612c0c565b92915050565b5f67ffffffffffffffff821115612c4e57612c4d61287b565b5b602082029050602081019050919050565b5f80fd5b5f80fd5b5f60408284031215612c7c57612c7b612c63565b5b612c8660406128d9565b90505f612c95848285016127ff565b5f830152506020612ca8848285016127ff565b60208301525092915050565b5f612cc6612cc184612c34565b6128d9565b90508083825260208201905060408402830185811115612ce957612ce8612c5f565b5b835b81811015612d125780612cfe8882612c67565b845260208401935050604081019050612ceb565b5050509392505050565b5f82601f830112612d3057612d2f612863565b5b8135612d40848260208601612cb4565b91505092915050565b5f8060408385031215612d5f57612d5e6127e1565b5b5f83013567ffffffffffffffff811115612d7c57612d7b6127e5565b5b612d8885828601612af1565b925050602083013567ffffffffffffffff811115612da957612da86127e5565b5b612db585828601612d1c565b9150509250929050565b5f60208284031215612dd457612dd36127e1565b5b5f82013567ffffffffffffffff811115612df157612df06127e5565b5b612dfd84828501612af1565b91505092915050565b5f604082019050612e195f8301856127b0565b612e2660208301846127b0565b9392505050565b612e3681612bfb565b8114612e40575f80fd5b50565b5f81359050612e5181612e2d565b92915050565b5f8060408385031215612e6d57612e6c6127e1565b5b5f83013567ffffffffffffffff811115612e8a57612e896127e5565b5b612e9685828601612af1565b9250506020612ea785828601612e43565b9150509250929050565b5f606082019050612ec45f8301866127b0565b612ed160208301856127b0565b612ede60408301846127b0565b949350505050565b5f8060408385031215612efc57612efb6127e1565b5b5f83013567ffffffffffffffff811115612f1957612f186127e5565b5b612f2585828601612972565b925050602083013567ffffffffffffffff811115612f4657612f456127e5565b5b612f5285828601612af1565b9150509250929050565b5f60208284031215612f7157612f706127e1565b5b5f612f7e84828501612e43565b91505092915050565b612f90816127a7565b82525050565b606082015f820151612faa5f850182612f87565b506020820151612fbd6020850182612f87565b506040820151612fd06040850182612f87565b50505050565b5f606082019050612fe95f830184612f96565b92915050565b7f4e487b71000000000000000000000000000000000000000000000000000000005f52601160045260245ffd5b5f613026826127a7565b9150613031836127a7565b925082820190508082111561304957613048612fef565b5b92915050565b5f82825260208201905092915050565b7f54687320736f7572636520737472696e672065786365656473203332206279745f8201527f6573000000000000000000000000000000000000000000000000000000000000602082015250565b5f6130b960228361304f565b91506130c48261305f565b604082019050919050565b5f6020820190508181035f8301526130e6816130ad565b9050919050565b5f81905092915050565b5f613101826129e6565b61310b81856130ed565b935061311b818560208601612a00565b80840191505092915050565b5f61313282846130f7565b915081905092915050565b5f613147826127a7565b9150613152836127a7565b925082820390508181111561316a57613169612fef565b5b92915050565b7f54686520626f782073616c65206973206e6f742070726f6365737300000000005f82015250565b5f6131a4601b8361304f565b91506131af82613170565b602082019050919050565b5f6020820190508181035f8301526131d181613198565b9050919050565b7f426f7820636e74206973207a65726f00000000000000000000000000000000005f82015250565b5f61320c600f8361304f565b9150613217826131d8565b602082019050919050565b5f6020820190508181035f83015261323981613200565b9050919050565b5f61324a826127a7565b9150613255836127a7565b9250828202613263816127a7565b9150828204841483151761327a57613279612fef565b5b5092915050565b7f496e73756666696369656e7420426f7820616d6f756e740000000000000000005f82015250565b5f6132b560178361304f565b91506132c082613281565b602082019050919050565b5f6020820190508181035f8301526132e2816132a9565b9050919050565b5f6060820190508181035f8301526133018186612a28565b905061331060208301856127b0565b61331d60408301846127b0565b949350505050565b7f496e73756666696369656e7420426f7820636e740000000000000000000000005f82015250565b5f61335960148361304f565b915061336482613325565b602082019050919050565b5f6020820190508181035f8301526133868161334d565b9050919050565b7f496e73756666696369656e742070617920616d6f756e740000000000000000005f82015250565b5f6133c160178361304f565b91506133cc8261338d565b602082019050919050565b5f6020820190508181035f8301526133ee816133b5565b9050919050565b50565b5f6134035f836130ed565b915061340e826133f5565b5f82019050919050565b5f613422826133f8565b9150819050919050565b7f54686520627579206973206661696c65640000000000000000000000000000005f82015250565b5f61346060118361304f565b915061346b8261342c565b602082019050919050565b5f6020820190508181035f83015261348d81613454565b9050919050565b7f4e487b71000000000000000000000000000000000000000000000000000000005f52602160045260245ffd5b600381106134d2576134d1613494565b5b50565b5f8190506134e2826134c1565b919050565b5f6134f1826134d5565b9050919050565b613501816134e7565b82525050565b5f60a0820190508181035f83015261351f8188612a28565b905061352e60208301876127b0565b61353b60408301866127b0565b61354860608301856134f8565b61355560808301846127b0565b9695505050505050565b7f54686520626f782073616c6520696e2070726f636573730000000000000000005f82015250565b5f61359360178361304f565b915061359e8261355f565b602082019050919050565b5f6020820190508181035f8301526135c081613587565b9050919050565b7f4e487b71000000000000000000000000000000000000000000000000000000005f52603260045260245ffd5b7f496e73756666696369656e7420626f7820616c6c6f6361746520636e740000005f82015250565b5f613628601d8361304f565b9150613633826135f4565b602082019050919050565b5f6020820190508181035f8301526136558161361c565b9050919050565b7f546865207265666f756e64206973206661696c656400000000000000000000005f82015250565b5f61369060158361304f565b915061369b8261365c565b602082019050919050565b5f6020820190508181035f8301526136bd81613684565b9050919050565b5f6040820190508181035f8301526136dc8185612a28565b90506136eb60208301846127b0565b9392505050565b5f6136fc826127a7565b91507fffffffffffffffffffffffffffffffffffffffffffffffffffffffffffffffff820361372e5761372d612fef565b5b600182019050919050565b7f54686520636c61696d20616d6f756e74206973207a65726f00000000000000005f82015250565b5f61376d60188361304f565b915061377882613739565b602082019050919050565b5f6020820190508181035f83015261379a81613761565b9050919050565b7f54686520636c61696d206973206661696c6564000000000000000000000000005f82015250565b5f6137d560138361304f565b91506137e0826137a1565b602082019050919050565b5f6020820190508181035f830152613802816137c9565b9050919050565b7f54686520626f78206973207374617274656400000000000000000000000000005f82015250565b5f61383d60128361304f565b915061384882613809565b602082019050919050565b5f6020820190508181035f83015261386a81613831565b9050919050565b5f8160601b9050919050565b5f61388782613871565b9050919050565b5f6138988261387d565b9050919050565b6138b06138ab82612bfb565b61388e565b82525050565b5f81519050919050565b5f81905092915050565b5f6138d4826138b6565b6138de81856138c0565b93506138ee818560208601612a00565b80840191505092915050565b5f819050919050565b61391461390f826127a7565b6138fa565b82525050565b5f613925828661389f565b60148201915061393582856138ca565b91506139418284613903565b602082019150819050949350505050565b7f546865207369676e617475726520697320696e76616c696400000000000000005f82015250565b5f61398660188361304f565b915061399182613952565b602082019050919050565b5f6020820190508181035f8301526139b38161397a565b9050919050565b5f6139c4826138b6565b6139ce818561304f565b93506139de818560208601612a00565b6139e78161286b565b840191505092915050565b5f6040820190508181035f830152613a0a81856139ba565b9050613a1960208301846127b0565b9392505050565b7f496e73756666696369656e7420426f782062616c616e636500000000000000005f82015250565b5f613a5460188361304f565b9150613a5f82613a20565b602082019050919050565b5f6020820190508181035f830152613a8181613a48565b9050919050565b7f5468652073656c6c206973206661696c656400000000000000000000000000005f82015250565b5f613abc60128361304f565b9150613ac782613a88565b602082019050919050565b5f6020820190508181035f830152613ae981613ab0565b9050919050565b7f6665655f7265636965766572206973207a65726f2061646472657373730000005f82015250565b5f613b24601d8361304f565b9150613b2f82613af0565b602082019050919050565b5f6020820190508181035f830152613b5181613b18565b9050919050565b7f4e487b71000000000000000000000000000000000000000000000000000000005f52601260045260245ffd5b5f613b8f826127a7565b9150613b9a836127a7565b925082613baa57613ba9613b58565b5b828204905092915050565b7f546865207472616465206973206661696c6564000000000000000000000000005f82015250565b5f613be960138361304f565b9150613bf482613bb5565b602082019050919050565b5f6020820190508181035f830152613c1681613bdd565b9050919050565b60038110613c2e57613c2d613494565b5b50565b5f819050613c3e82613c1d565b919050565b5f613c4d82613c31565b9050919050565b613c5d81613c43565b82525050565b5f6060820190508181035f830152613c7b8186612a28565b9050613c8a60208301856127b0565b613c976040830184613c54565b949350505050565b5f8160011c9050919050565b5f808291508390505b6001851115613cf457808604811115613cd057613ccf612fef565b5b6001851615613cdf5780820291505b8081029050613ced85613c9f565b9450613cb4565b94509492505050565b5f82613d0c5760019050613dc7565b81613d19575f9050613dc7565b8160018114613d2f5760028114613d3957613d68565b6001915050613dc7565b60ff841115613d4b57613d4a612fef565b5b8360020a915084821115613d6257613d61612fef565b5b50613dc7565b5060208310610133831016604e8410600b8410161715613d9d5782820a905083811115613d9857613d97612fef565b5b613dc7565b613daa8484846001613cab565b92509050818404811115613dc157613dc0612fef565b5b81810290505b9392505050565b5f60ff82169050919050565b5f613de4826127a7565b9150613def83613dce565b9250613e1c7fffffffffffffffffffffffffffffffffffffffffffffffffffffffffffffffff8484613cfd565b905092915050565b5f819050919050565b613e3681613e24565b82525050565b5f604082019050613e4f5f830185613e2d565b8181036020830152613e618184612a28565b90509392505050565b613e7381613e24565b8114613e7d575f80fd5b50565b5f81519050613e8e81613e6a565b92915050565b5f60208284031215613ea957613ea86127e1565b5b5f613eb684828501613e80565b91505092915050565b613ec881613dce565b82525050565b5f608082019050613ee15f830187613e2d565b613eee6020830186613ebf565b613efb6040830185613e2d565b613f086060830184613e2d565b9594505050505056fea264697066735822122028ea0b942787c83b80a131e154666fbd09a47b39edce4b504a31a6fc1e09fab764736f6c63430008150033",
			"opcodes": "PUSH1 0x80 PUSH1 0x40 MSTORE PUSH1 0xA PUSH1 0x2 SSTORE PUSH1 0x4 PUSH1 0x3 SSTORE PUSH1 0x2 PUSH1 0x4 SSTORE PUSH1 0x4 PUSH1 0x5 SSTORE PUSH20 0x96216849C49358B10257CB55B28EA603C874B05E PUSH1 0x7 PUSH0 PUSH2 0x100 EXP DUP2 SLOAD DUP2 PUSH20 0xFFFFFFFFFFFFFFFFFFFFFFFFFFFFFFFFFFFFFFFF MUL NOT AND SWAP1 DUP4 PUSH20 0xFFFFFFFFFFFFFFFFFFFFFFFFFFFFFFFFFFFFFFFF AND MUL OR SWAP1 SSTORE POP CALLVALUE DUP1 ISZERO PUSH3 0x78 JUMPI PUSH0 DUP1 REVERT JUMPDEST POP CALLER PUSH0 PUSH20 0xFFFFFFFFFFFFFFFFFFFFFFFFFFFFFFFFFFFFFFFF AND DUP2 PUSH20 0xFFFFFFFFFFFFFFFFFFFFFFFFFFFFFFFFFFFFFFFF AND SUB PUSH3 0xED JUMPI PUSH0 PUSH1 0x40 MLOAD PUSH32 0x1E4FBDF700000000000000000000000000000000000000000000000000000000 DUP2 MSTORE PUSH1 0x4 ADD PUSH3 0xE4 SWAP2 SWAP1 PUSH3 0x250 JUMP JUMPDEST PUSH1 0x40 MLOAD DUP1 SWAP2 SUB SWAP1 REVERT JUMPDEST PUSH3 0xFE DUP2 PUSH3 0x14C PUSH1 0x20 SHL PUSH1 0x20 SHR JUMP JUMPDEST POP PUSH1 0x1 DUP1 DUP2 SWAP1 SSTORE POP CALLER PUSH1 0xC PUSH0 PUSH2 0x100 EXP DUP2 SLOAD DUP2 PUSH20 0xFFFFFFFFFFFFFFFFFFFFFFFFFFFFFFFFFFFFFFFF MUL NOT AND SWAP1 DUP4 PUSH20 0xFFFFFFFFFFFFFFFFFFFFFFFFFFFFFFFFFFFFFFFF AND MUL OR SWAP1 SSTORE POP PUSH3 0x26B JUMP JUMPDEST PUSH0 DUP1 PUSH0 SWAP1 SLOAD SWAP1 PUSH2 0x100 EXP SWAP1 DIV PUSH20 0xFFFFFFFFFFFFFFFFFFFFFFFFFFFFFFFFFFFFFFFF AND SWAP1 POP DUP2 PUSH0 DUP1 PUSH2 0x100 EXP DUP2 SLOAD DUP2 PUSH20 0xFFFFFFFFFFFFFFFFFFFFFFFFFFFFFFFFFFFFFFFF MUL NOT AND SWAP1 DUP4 PUSH20 0xFFFFFFFFFFFFFFFFFFFFFFFFFFFFFFFFFFFFFFFF AND MUL OR SWAP1 SSTORE POP DUP2 PUSH20 0xFFFFFFFFFFFFFFFFFFFFFFFFFFFFFFFFFFFFFFFF AND DUP2 PUSH20 0xFFFFFFFFFFFFFFFFFFFFFFFFFFFFFFFFFFFFFFFF AND PUSH32 0x8BE0079C531659141344CD1FD0A4F28419497F9722A3DAAFE3B4186F6B6457E0 PUSH1 0x40 MLOAD PUSH1 0x40 MLOAD DUP1 SWAP2 SUB SWAP1 LOG3 POP POP JUMP JUMPDEST PUSH0 PUSH20 0xFFFFFFFFFFFFFFFFFFFFFFFFFFFFFFFFFFFFFFFF DUP3 AND SWAP1 POP SWAP2 SWAP1 POP JUMP JUMPDEST PUSH0 PUSH3 0x238 DUP3 PUSH3 0x20D JUMP JUMPDEST SWAP1 POP SWAP2 SWAP1 POP JUMP JUMPDEST PUSH3 0x24A DUP2 PUSH3 0x22C JUMP JUMPDEST DUP3 MSTORE POP POP JUMP JUMPDEST PUSH0 PUSH1 0x20 DUP3 ADD SWAP1 POP PUSH3 0x265 PUSH0 DUP4 ADD DUP5 PUSH3 0x23F JUMP JUMPDEST SWAP3 SWAP2 POP POP JUMP JUMPDEST PUSH2 0x3F47 DUP1 PUSH3 0x279 PUSH0 CODECOPY PUSH0 RETURN INVALID PUSH1 0x80 PUSH1 0x40 MSTORE PUSH1 0x4 CALLDATASIZE LT PUSH2 0x1B6 JUMPI PUSH0 CALLDATALOAD PUSH1 0xE0 SHR DUP1 PUSH4 0x9CFF2903 GT PUSH2 0xEB JUMPI DUP1 PUSH4 0xBD9B09D5 GT PUSH2 0x89 JUMPI DUP1 PUSH4 0xD436D0EF GT PUSH2 0x63 JUMPI DUP1 PUSH4 0xD436D0EF EQ PUSH2 0x5DF JUMPI DUP1 PUSH4 0xE20F7997 EQ PUSH2 0x607 JUMPI DUP1 PUSH4 0xE6636F54 EQ PUSH2 0x631 JUMPI DUP1 PUSH4 0xF2FDE38B EQ PUSH2 0x66E JUMPI PUSH2 0x1B6 JUMP JUMPDEST DUP1 PUSH4 0xBD9B09D5 EQ PUSH2 0x551 JUMPI DUP1 PUSH4 0xC724940F EQ PUSH2 0x58D JUMPI DUP1 PUSH4 0xCB7A297C EQ PUSH2 0x5B7 JUMPI PUSH2 0x1B6 JUMP JUMPDEST DUP1 PUSH4 0xA9773E07 GT PUSH2 0xC5 JUMPI DUP1 PUSH4 0xA9773E07 EQ PUSH2 0x485 JUMPI DUP1 PUSH4 0xAD006B2F EQ PUSH2 0x4C3 JUMPI DUP1 PUSH4 0xB9844D8D EQ PUSH2 0x4EB JUMPI DUP1 PUSH4 0xBA7D5BFD EQ PUSH2 0x527 JUMPI PUSH2 0x1B6 JUMP JUMPDEST DUP1 PUSH4 0x9CFF2903 EQ PUSH2 0x3F8 JUMPI DUP1 PUSH4 0xA1945EC6 EQ PUSH2 0x420 JUMPI DUP1 PUSH4 0xA360C659 EQ PUSH2 0x448 JUMPI PUSH2 0x1B6 JUMP JUMPDEST DUP1 PUSH4 0x52A13A56 GT PUSH2 0x158 JUMPI DUP1 PUSH4 0x73DB533D GT PUSH2 0x132 JUMPI DUP1 PUSH4 0x73DB533D EQ PUSH2 0x35E JUMPI DUP1 PUSH4 0x8690E716 EQ PUSH2 0x388 JUMPI DUP1 PUSH4 0x8DA5CB5B EQ PUSH2 0x3B2 JUMPI DUP1 PUSH4 0x9BD53249 EQ PUSH2 0x3DC JUMPI PUSH2 0x1B6 JUMP JUMPDEST DUP1 PUSH4 0x52A13A56 EQ PUSH2 0x2E2 JUMPI DUP1 PUSH4 0x534E996E EQ PUSH2 0x31E JUMPI DUP1 PUSH4 0x715018A6 EQ PUSH2 0x348 JUMPI PUSH2 0x1B6 JUMP JUMPDEST DUP1 PUSH4 0x3BEAB570 GT PUSH2 0x194 JUMPI DUP1 PUSH4 0x3BEAB570 EQ PUSH2 0x248 JUMPI DUP1 PUSH4 0x44ED635A EQ PUSH2 0x272 JUMPI DUP1 PUSH4 0x4D9D0622 EQ PUSH2 0x29C JUMPI DUP1 PUSH4 0x5085D4D8 EQ PUSH2 0x2B8 JUMPI PUSH2 0x1B6 JUMP JUMPDEST DUP1 PUSH4 0xB775510 EQ PUSH2 0x1BA JUMPI DUP1 PUSH4 0x116643C5 EQ PUSH2 0x1E4 JUMPI DUP1 PUSH4 0x1B4F7E28 EQ PUSH2 0x20C JUMPI JUMPDEST PUSH0 DUP1 REVERT JUMPDEST CALLVALUE DUP1 ISZERO PUSH2 0x1C5 JUMPI PUSH0 DUP1 REVERT JUMPDEST POP PUSH2 0x1CE PUSH2 0x696 JUMP JUMPDEST PUSH1 0x40 MLOAD PUSH2 0x1DB SWAP2 SWAP1 PUSH2 0x27BF JUMP JUMPDEST PUSH1 0x40 MLOAD DUP1 SWAP2 SUB SWAP1 RETURN JUMPDEST CALLVALUE DUP1 ISZERO PUSH2 0x1EF JUMPI PUSH0 DUP1 REVERT JUMPDEST POP PUSH2 0x20A PUSH1 0x4 DUP1 CALLDATASIZE SUB DUP2 ADD SWAP1 PUSH2 0x205 SWAP2 SWAP1 PUSH2 0x2813 JUMP JUMPDEST PUSH2 0x69C JUMP JUMPDEST STOP JUMPDEST CALLVALUE DUP1 ISZERO PUSH2 0x217 JUMPI PUSH0 DUP1 REVERT JUMPDEST POP PUSH2 0x232 PUSH1 0x4 DUP1 CALLDATASIZE SUB DUP2 ADD SWAP1 PUSH2 0x22D SWAP2 SWAP1 PUSH2 0x299F JUMP JUMPDEST PUSH2 0x6E1 JUMP JUMPDEST PUSH1 0x40 MLOAD PUSH2 0x23F SWAP2 SWAP1 PUSH2 0x2A60 JUMP JUMPDEST PUSH1 0x40 MLOAD DUP1 SWAP2 SUB SWAP1 RETURN JUMPDEST CALLVALUE DUP1 ISZERO PUSH2 0x253 JUMPI PUSH0 DUP1 REVERT JUMPDEST POP PUSH2 0x25C PUSH2 0x735 JUMP JUMPDEST PUSH1 0x40 MLOAD PUSH2 0x269 SWAP2 SWAP1 PUSH2 0x27BF JUMP JUMPDEST PUSH1 0x40 MLOAD DUP1 SWAP2 SUB SWAP1 RETURN JUMPDEST CALLVALUE DUP1 ISZERO PUSH2 0x27D JUMPI PUSH0 DUP1 REVERT JUMPDEST POP PUSH2 0x286 PUSH2 0x73B JUMP JUMPDEST PUSH1 0x40 MLOAD PUSH2 0x293 SWAP2 SWAP1 PUSH2 0x27BF JUMP JUMPDEST PUSH1 0x40 MLOAD DUP1 SWAP2 SUB SWAP1 RETURN JUMPDEST PUSH2 0x2B6 PUSH1 0x4 DUP1 CALLDATASIZE SUB DUP2 ADD SWAP1 PUSH2 0x2B1 SWAP2 SWAP1 PUSH2 0x2B1E JUMP JUMPDEST PUSH2 0x745 JUMP JUMPDEST STOP JUMPDEST CALLVALUE DUP1 ISZERO PUSH2 0x2C3 JUMPI PUSH0 DUP1 REVERT JUMPDEST POP PUSH2 0x2CC PUSH2 0xA46 JUMP JUMPDEST PUSH1 0x40 MLOAD PUSH2 0x2D9 SWAP2 SWAP1 PUSH2 0x27BF JUMP JUMPDEST PUSH1 0x40 MLOAD DUP1 SWAP2 SUB SWAP1 RETURN JUMPDEST CALLVALUE DUP1 ISZERO PUSH2 0x2ED JUMPI PUSH0 DUP1 REVERT JUMPDEST POP PUSH2 0x308 PUSH1 0x4 DUP1 CALLDATASIZE SUB DUP2 ADD SWAP1 PUSH2 0x303 SWAP2 SWAP1 PUSH2 0x2B78 JUMP JUMPDEST PUSH2 0xA4B JUMP JUMPDEST PUSH1 0x40 MLOAD PUSH2 0x315 SWAP2 SWAP1 PUSH2 0x27BF JUMP JUMPDEST PUSH1 0x40 MLOAD DUP1 SWAP2 SUB SWAP1 RETURN JUMPDEST CALLVALUE DUP1 ISZERO PUSH2 0x329 JUMPI PUSH0 DUP1 REVERT JUMPDEST POP PUSH2 0x332 PUSH2 0xA60 JUMP JUMPDEST PUSH1 0x40 MLOAD PUSH2 0x33F SWAP2 SWAP1 PUSH2 0x2BE2 JUMP JUMPDEST PUSH1 0x40 MLOAD DUP1 SWAP2 SUB SWAP1 RETURN JUMPDEST CALLVALUE DUP1 ISZERO PUSH2 0x353 JUMPI PUSH0 DUP1 REVERT JUMPDEST POP PUSH2 0x35C PUSH2 0xA85 JUMP JUMPDEST STOP JUMPDEST CALLVALUE DUP1 ISZERO PUSH2 0x369 JUMPI PUSH0 DUP1 REVERT JUMPDEST POP PUSH2 0x372 PUSH2 0xA98 JUMP JUMPDEST PUSH1 0x40 MLOAD PUSH2 0x37F SWAP2 SWAP1 PUSH2 0x2C1B JUMP JUMPDEST PUSH1 0x40 MLOAD DUP1 SWAP2 SUB SWAP1 RETURN JUMPDEST CALLVALUE DUP1 ISZERO PUSH2 0x393 JUMPI PUSH0 DUP1 REVERT JUMPDEST POP PUSH2 0x39C PUSH2 0xABD JUMP JUMPDEST PUSH1 0x40 MLOAD PUSH2 0x3A9 SWAP2 SWAP1 PUSH2 0x27BF JUMP JUMPDEST PUSH1 0x40 MLOAD DUP1 SWAP2 SUB SWAP1 RETURN JUMPDEST CALLVALUE DUP1 ISZERO PUSH2 0x3BD JUMPI PUSH0 DUP1 REVERT JUMPDEST POP PUSH2 0x3C6 PUSH2 0xAC3 JUMP JUMPDEST PUSH1 0x40 MLOAD PUSH2 0x3D3 SWAP2 SWAP1 PUSH2 0x2C1B JUMP JUMPDEST PUSH1 0x40 MLOAD DUP1 SWAP2 SUB SWAP1 RETURN JUMPDEST PUSH2 0x3F6 PUSH1 0x4 DUP1 CALLDATASIZE SUB DUP2 ADD SWAP1 PUSH2 0x3F1 SWAP2 SWAP1 PUSH2 0x2B1E JUMP JUMPDEST PUSH2 0xAEA JUMP JUMPDEST STOP JUMPDEST CALLVALUE DUP1 ISZERO PUSH2 0x403 JUMPI PUSH0 DUP1 REVERT JUMPDEST POP PUSH2 0x41E PUSH1 0x4 DUP1 CALLDATASIZE SUB DUP2 ADD SWAP1 PUSH2 0x419 SWAP2 SWAP1 PUSH2 0x2D49 JUMP JUMPDEST PUSH2 0xCDF JUMP JUMPDEST STOP JUMPDEST CALLVALUE DUP1 ISZERO PUSH2 0x42B JUMPI PUSH0 DUP1 REVERT JUMPDEST POP PUSH2 0x446 PUSH1 0x4 DUP1 CALLDATASIZE SUB DUP2 ADD SWAP1 PUSH2 0x441 SWAP2 SWAP1 PUSH2 0x2DBF JUMP JUMPDEST PUSH2 0x1103 JUMP JUMPDEST STOP JUMPDEST CALLVALUE DUP1 ISZERO PUSH2 0x453 JUMPI PUSH0 DUP1 REVERT JUMPDEST POP PUSH2 0x46E PUSH1 0x4 DUP1 CALLDATASIZE SUB DUP2 ADD SWAP1 PUSH2 0x469 SWAP2 SWAP1 PUSH2 0x2B1E JUMP JUMPDEST PUSH2 0x12DD JUMP JUMPDEST PUSH1 0x40 MLOAD PUSH2 0x47C SWAP3 SWAP2 SWAP1 PUSH2 0x2E06 JUMP JUMPDEST PUSH1 0x40 MLOAD DUP1 SWAP2 SUB SWAP1 RETURN JUMPDEST CALLVALUE DUP1 ISZERO PUSH2 0x490 JUMPI PUSH0 DUP1 REVERT JUMPDEST POP PUSH2 0x4AB PUSH1 0x4 DUP1 CALLDATASIZE SUB DUP2 ADD SWAP1 PUSH2 0x4A6 SWAP2 SWAP1 PUSH2 0x2E57 JUMP JUMPDEST PUSH2 0x12FE JUMP JUMPDEST PUSH1 0x40 MLOAD PUSH2 0x4BA SWAP4 SWAP3 SWAP2 SWAP1 PUSH2 0x2EB1 JUMP JUMPDEST PUSH1 0x40 MLOAD DUP1 SWAP2 SUB SWAP1 RETURN JUMPDEST CALLVALUE DUP1 ISZERO PUSH2 0x4CE JUMPI PUSH0 DUP1 REVERT JUMPDEST POP PUSH2 0x4E9 PUSH1 0x4 DUP1 CALLDATASIZE SUB DUP2 ADD SWAP1 PUSH2 0x4E4 SWAP2 SWAP1 PUSH2 0x2EE6 JUMP JUMPDEST PUSH2 0x1347 JUMP JUMPDEST STOP JUMPDEST CALLVALUE DUP1 ISZERO PUSH2 0x4F6 JUMPI PUSH0 DUP1 REVERT JUMPDEST POP PUSH2 0x511 PUSH1 0x4 DUP1 CALLDATASIZE SUB DUP2 ADD SWAP1 PUSH2 0x50C SWAP2 SWAP1 PUSH2 0x2F5C JUMP JUMPDEST PUSH2 0x15F5 JUMP JUMPDEST PUSH1 0x40 MLOAD PUSH2 0x51E SWAP2 SWAP1 PUSH2 0x27BF JUMP JUMPDEST PUSH1 0x40 MLOAD DUP1 SWAP2 SUB SWAP1 RETURN JUMPDEST CALLVALUE DUP1 ISZERO PUSH2 0x532 JUMPI PUSH0 DUP1 REVERT JUMPDEST POP PUSH2 0x53B PUSH2 0x160A JUMP JUMPDEST PUSH1 0x40 MLOAD PUSH2 0x548 SWAP2 SWAP1 PUSH2 0x27BF JUMP JUMPDEST PUSH1 0x40 MLOAD DUP1 SWAP2 SUB SWAP1 RETURN JUMPDEST CALLVALUE DUP1 ISZERO PUSH2 0x55C JUMPI PUSH0 DUP1 REVERT JUMPDEST POP PUSH2 0x577 PUSH1 0x4 DUP1 CALLDATASIZE SUB DUP2 ADD SWAP1 PUSH2 0x572 SWAP2 SWAP1 PUSH2 0x2E57 JUMP JUMPDEST PUSH2 0x1610 JUMP JUMPDEST PUSH1 0x40 MLOAD PUSH2 0x584 SWAP2 SWAP1 PUSH2 0x2FD6 JUMP JUMPDEST PUSH1 0x40 MLOAD DUP1 SWAP2 SUB SWAP1 RETURN JUMPDEST CALLVALUE DUP1 ISZERO PUSH2 0x598 JUMPI PUSH0 DUP1 REVERT JUMPDEST POP PUSH2 0x5A1 PUSH2 0x16A1 JUMP JUMPDEST PUSH1 0x40 MLOAD PUSH2 0x5AE SWAP2 SWAP1 PUSH2 0x27BF JUMP JUMPDEST PUSH1 0x40 MLOAD DUP1 SWAP2 SUB SWAP1 RETURN JUMPDEST CALLVALUE DUP1 ISZERO PUSH2 0x5C2 JUMPI PUSH0 DUP1 REVERT JUMPDEST POP PUSH2 0x5DD PUSH1 0x4 DUP1 CALLDATASIZE SUB DUP2 ADD SWAP1 PUSH2 0x5D8 SWAP2 SWAP1 PUSH2 0x2B1E JUMP JUMPDEST PUSH2 0x16A7 JUMP JUMPDEST STOP JUMPDEST CALLVALUE DUP1 ISZERO PUSH2 0x5EA JUMPI PUSH0 DUP1 REVERT JUMPDEST POP PUSH2 0x605 PUSH1 0x4 DUP1 CALLDATASIZE SUB DUP2 ADD SWAP1 PUSH2 0x600 SWAP2 SWAP1 PUSH2 0x2F5C JUMP JUMPDEST PUSH2 0x18CD JUMP JUMPDEST STOP JUMPDEST CALLVALUE DUP1 ISZERO PUSH2 0x612 JUMPI PUSH0 DUP1 REVERT JUMPDEST POP PUSH2 0x61B PUSH2 0x1986 JUMP JUMPDEST PUSH1 0x40 MLOAD PUSH2 0x628 SWAP2 SWAP1 PUSH2 0x27BF JUMP JUMPDEST PUSH1 0x40 MLOAD DUP1 SWAP2 SUB SWAP1 RETURN JUMPDEST CALLVALUE DUP1 ISZERO PUSH2 0x63C JUMPI PUSH0 DUP1 REVERT JUMPDEST POP PUSH2 0x657 PUSH1 0x4 DUP1 CALLDATASIZE SUB DUP2 ADD SWAP1 PUSH2 0x652 SWAP2 SWAP1 PUSH2 0x2B1E JUMP JUMPDEST PUSH2 0x1991 JUMP JUMPDEST PUSH1 0x40 MLOAD PUSH2 0x665 SWAP3 SWAP2 SWAP1 PUSH2 0x2E06 JUMP JUMPDEST PUSH1 0x40 MLOAD DUP1 SWAP2 SUB SWAP1 RETURN JUMPDEST CALLVALUE DUP1 ISZERO PUSH2 0x679 JUMPI PUSH0 DUP1 REVERT JUMPDEST POP PUSH2 0x694 PUSH1 0x4 DUP1 CALLDATASIZE SUB DUP2 ADD SWAP1 PUSH2 0x68F SWAP2 SWAP1 PUSH2 0x2F5C JUMP JUMPDEST PUSH2 0x19B2 JUMP JUMPDEST STOP JUMPDEST PUSH1 0x5 SLOAD DUP2 JUMP JUMPDEST PUSH2 0x6A4 PUSH2 0x1A36 JUMP JUMPDEST DUP3 PUSH1 0x3 DUP2 SWAP1 SSTORE POP DUP2 PUSH1 0x4 DUP2 SWAP1 SSTORE POP DUP1 PUSH1 0x5 DUP2 SWAP1 SSTORE POP PUSH1 0x5 SLOAD PUSH1 0x4 SLOAD PUSH1 0x3 SLOAD PUSH2 0x6CC SWAP2 SWAP1 PUSH2 0x301C JUMP JUMPDEST PUSH2 0x6D6 SWAP2 SWAP1 PUSH2 0x301C JUMP JUMPDEST PUSH1 0x2 DUP2 SWAP1 SSTORE POP POP POP POP JUMP JUMPDEST PUSH1 0x60 PUSH0 DUP3 SWAP1 POP PUSH1 0x20 DUP2 MLOAD GT ISZERO PUSH2 0x72C JUMPI PUSH1 0x40 MLOAD PUSH32 0x8C379A000000000000000000000000000000000000000000000000000000000 DUP2 MSTORE PUSH1 0x4 ADD PUSH2 0x723 SWAP1 PUSH2 0x30CF JUMP JUMPDEST PUSH1 0x40 MLOAD DUP1 SWAP2 SUB SWAP1 REVERT JUMPDEST DUP1 SWAP2 POP POP SWAP2 SWAP1 POP JUMP JUMPDEST PUSH1 0x4 SLOAD DUP2 JUMP JUMPDEST PUSH6 0x5AF3107A4000 DUP2 JUMP JUMPDEST TIMESTAMP PUSH2 0xE10 PUSH1 0x9 DUP5 PUSH1 0x40 MLOAD PUSH2 0x759 SWAP2 SWAP1 PUSH2 0x3127 JUMP JUMPDEST SWAP1 DUP2 MSTORE PUSH1 0x20 ADD PUSH1 0x40 MLOAD DUP1 SWAP2 SUB SWAP1 KECCAK256 PUSH1 0x1 ADD SLOAD PUSH2 0x775 SWAP2 SWAP1 PUSH2 0x313D JUMP JUMPDEST GT ISZERO DUP1 ISZERO PUSH2 0x7A4 JUMPI POP TIMESTAMP PUSH1 0x9 DUP4 PUSH1 0x40 MLOAD PUSH2 0x78F SWAP2 SWAP1 PUSH2 0x3127 JUMP JUMPDEST SWAP1 DUP2 MSTORE PUSH1 0x20 ADD PUSH1 0x40 MLOAD DUP1 SWAP2 SUB SWAP1 KECCAK256 PUSH1 0x1 ADD SLOAD LT ISZERO JUMPDEST PUSH2 0x7E3 JUMPI PUSH1 0x40 MLOAD PUSH32 0x8C379A000000000000000000000000000000000000000000000000000000000 DUP2 MSTORE PUSH1 0x4 ADD PUSH2 0x7DA SWAP1 PUSH2 0x31BA JUMP JUMPDEST PUSH1 0x40 MLOAD DUP1 SWAP2 SUB SWAP1 REVERT JUMPDEST PUSH0 DUP2 GT PUSH2 0x825 JUMPI PUSH1 0x40 MLOAD PUSH32 0x8C379A000000000000000000000000000000000000000000000000000000000 DUP2 MSTORE PUSH1 0x4 ADD PUSH2 0x81C SWAP1 PUSH2 0x3222 JUMP JUMPDEST PUSH1 0x40 MLOAD DUP1 SWAP2 SUB SWAP1 REVERT JUMPDEST CALLVALUE PUSH7 0x38D7EA4C68000 PUSH6 0x5AF3107A4000 DUP4 PUSH2 0x840 SWAP2 SWAP1 PUSH2 0x3240 JUMP JUMPDEST PUSH2 0x84A SWAP2 SWAP1 PUSH2 0x301C JUMP JUMPDEST EQ PUSH2 0x88A JUMPI PUSH1 0x40 MLOAD PUSH32 0x8C379A000000000000000000000000000000000000000000000000000000000 DUP2 MSTORE PUSH1 0x4 ADD PUSH2 0x881 SWAP1 PUSH2 0x32CB JUMP JUMPDEST PUSH1 0x40 MLOAD DUP1 SWAP2 SUB SWAP1 REVERT JUMPDEST PUSH1 0xA DUP3 PUSH1 0x40 MLOAD PUSH2 0x89A SWAP2 SWAP1 PUSH2 0x3127 JUMP JUMPDEST SWAP1 DUP2 MSTORE PUSH1 0x20 ADD PUSH1 0x40 MLOAD DUP1 SWAP2 SUB SWAP1 KECCAK256 PUSH1 0x40 MLOAD DUP1 PUSH1 0x60 ADD PUSH1 0x40 MSTORE DUP1 DUP4 DUP2 MSTORE PUSH1 0x20 ADD CALLER PUSH20 0xFFFFFFFFFFFFFFFFFFFFFFFFFFFFFFFFFFFFFFFF AND DUP2 MSTORE PUSH1 0x20 ADD PUSH0 ISZERO ISZERO DUP2 MSTORE POP SWAP1 DUP1 PUSH1 0x1 DUP2 SLOAD ADD DUP1 DUP3 SSTORE DUP1 SWAP2 POP POP PUSH1 0x1 SWAP1 SUB SWAP1 PUSH0 MSTORE PUSH1 0x20 PUSH0 KECCAK256 SWAP1 PUSH1 0x2 MUL ADD PUSH0 SWAP1 SWAP2 SWAP1 SWAP2 SWAP1 SWAP2 POP PUSH0 DUP3 ADD MLOAD DUP2 PUSH0 ADD SSTORE PUSH1 0x20 DUP3 ADD MLOAD DUP2 PUSH1 0x1 ADD PUSH0 PUSH2 0x100 EXP DUP2 SLOAD DUP2 PUSH20 0xFFFFFFFFFFFFFFFFFFFFFFFFFFFFFFFFFFFFFFFF MUL NOT AND SWAP1 DUP4 PUSH20 0xFFFFFFFFFFFFFFFFFFFFFFFFFFFFFFFFFFFFFFFF AND MUL OR SWAP1 SSTORE POP PUSH1 0x40 DUP3 ADD MLOAD DUP2 PUSH1 0x1 ADD PUSH1 0x14 PUSH2 0x100 EXP DUP2 SLOAD DUP2 PUSH1 0xFF MUL NOT AND SWAP1 DUP4 ISZERO ISZERO MUL OR SWAP1 SSTORE POP POP POP DUP1 PUSH1 0x9 DUP4 PUSH1 0x40 MLOAD PUSH2 0x982 SWAP2 SWAP1 PUSH2 0x3127 JUMP JUMPDEST SWAP1 DUP2 MSTORE PUSH1 0x20 ADD PUSH1 0x40 MLOAD DUP1 SWAP2 SUB SWAP1 KECCAK256 PUSH1 0x2 ADD SLOAD PUSH2 0x99E SWAP2 SWAP1 PUSH2 0x301C JUMP JUMPDEST PUSH1 0x9 DUP4 PUSH1 0x40 MLOAD PUSH2 0x9AE SWAP2 SWAP1 PUSH2 0x3127 JUMP JUMPDEST SWAP1 DUP2 MSTORE PUSH1 0x20 ADD PUSH1 0x40 MLOAD DUP1 SWAP2 SUB SWAP1 KECCAK256 PUSH1 0x2 ADD DUP2 SWAP1 SSTORE POP CALLER PUSH20 0xFFFFFFFFFFFFFFFFFFFFFFFFFFFFFFFFFFFFFFFF AND PUSH32 0x955E08D4F1AAA23E271DADB85E5EEE6D72DBC18C96C6CF64780EA2A939ED15EE DUP4 PUSH1 0x1 PUSH1 0xA DUP7 PUSH1 0x40 MLOAD PUSH2 0xA0E SWAP2 SWAP1 PUSH2 0x3127 JUMP JUMPDEST SWAP1 DUP2 MSTORE PUSH1 0x20 ADD PUSH1 0x40 MLOAD DUP1 SWAP2 SUB SWAP1 KECCAK256 DUP1 SLOAD SWAP1 POP PUSH2 0xA2A SWAP2 SWAP1 PUSH2 0x313D JUMP JUMPDEST DUP5 PUSH1 0x40 MLOAD PUSH2 0xA3A SWAP4 SWAP3 SWAP2 SWAP1 PUSH2 0x32E9 JUMP JUMPDEST PUSH1 0x40 MLOAD DUP1 SWAP2 SUB SWAP1 LOG2 POP POP JUMP JUMPDEST PUSH1 0x64 DUP2 JUMP JUMPDEST PUSH1 0xB PUSH1 0x20 MSTORE DUP1 PUSH0 MSTORE PUSH1 0x40 PUSH0 KECCAK256 PUSH0 SWAP2 POP SWAP1 POP SLOAD DUP2 JUMP JUMPDEST PUSH1 0xC PUSH0 SWAP1 SLOAD SWAP1 PUSH2 0x100 EXP SWAP1 DIV PUSH20 0xFFFFFFFFFFFFFFFFFFFFFFFFFFFFFFFFFFFFFFFF AND DUP2 JUMP JUMPDEST PUSH2 0xA8D PUSH2 0x1A36 JUMP JUMPDEST PUSH2 0xA96 PUSH0 PUSH2 0x1ABD JUMP JUMPDEST JUMP JUMPDEST PUSH1 0x7 PUSH0 SWAP1 SLOAD SWAP1 PUSH2 0x100 EXP SWAP1 DIV PUSH20 0xFFFFFFFFFFFFFFFFFFFFFFFFFFFFFFFFFFFFFFFF AND DUP2 JUMP JUMPDEST PUSH2 0xE10 DUP2 JUMP JUMPDEST PUSH0 DUP1 PUSH0 SWAP1 SLOAD SWAP1 PUSH2 0x100 EXP SWAP1 DIV PUSH20 0xFFFFFFFFFFFFFFFFFFFFFFFFFFFFFFFFFFFFFFFF AND SWAP1 POP SWAP1 JUMP JUMPDEST PUSH2 0xAF2 PUSH2 0x1B7E JUMP JUMPDEST PUSH0 DUP2 GT PUSH2 0xB34 JUMPI PUSH1 0x40 MLOAD PUSH32 0x8C379A000000000000000000000000000000000000000000000000000000000 DUP2 MSTORE PUSH1 0x4 ADD PUSH2 0xB2B SWAP1 PUSH2 0x336F JUMP JUMPDEST PUSH1 0x40 MLOAD DUP1 SWAP2 SUB SWAP1 REVERT JUMPDEST PUSH0 DUP1 PUSH2 0xB40 DUP5 DUP5 PUSH2 0x1BC4 JUMP JUMPDEST SWAP2 POP SWAP2 POP DUP1 DUP3 PUSH2 0xB50 SWAP2 SWAP1 PUSH2 0x301C JUMP JUMPDEST CALLVALUE EQ PUSH2 0xB91 JUMPI PUSH1 0x40 MLOAD PUSH32 0x8C379A000000000000000000000000000000000000000000000000000000000 DUP2 MSTORE PUSH1 0x4 ADD PUSH2 0xB88 SWAP1 PUSH2 0x33D7 JUMP JUMPDEST PUSH1 0x40 MLOAD DUP1 SWAP2 SUB SWAP1 REVERT JUMPDEST DUP1 DUP3 PUSH2 0xB9D SWAP2 SWAP1 PUSH2 0x301C JUMP JUMPDEST CALLVALUE GT ISZERO PUSH2 0xC64 JUMPI PUSH0 CALLER PUSH20 0xFFFFFFFFFFFFFFFFFFFFFFFFFFFFFFFFFFFFFFFF AND DUP3 DUP5 CALLVALUE PUSH2 0xBC9 SWAP2 SWAP1 PUSH2 0x313D JUMP JUMPDEST PUSH2 0xBD3 SWAP2 SWAP1 PUSH2 0x313D JUMP JUMPDEST PUSH1 0x40 MLOAD PUSH2 0xBDF SWAP1 PUSH2 0x3418 JUMP JUMPDEST PUSH0 PUSH1 0x40 MLOAD DUP1 DUP4 SUB DUP2 DUP6 DUP8 GAS CALL SWAP3 POP POP POP RETURNDATASIZE DUP1 PUSH0 DUP2 EQ PUSH2 0xC19 JUMPI PUSH1 0x40 MLOAD SWAP2 POP PUSH1 0x1F NOT PUSH1 0x3F RETURNDATASIZE ADD AND DUP3 ADD PUSH1 0x40 MSTORE RETURNDATASIZE DUP3 MSTORE RETURNDATASIZE PUSH0 PUSH1 0x20 DUP5 ADD RETURNDATACOPY PUSH2 0xC1E JUMP JUMPDEST PUSH1 0x60 SWAP2 POP JUMPDEST POP POP SWAP1 POP DUP1 PUSH2 0xC62 JUMPI PUSH1 0x40 MLOAD PUSH32 0x8C379A000000000000000000000000000000000000000000000000000000000 DUP2 MSTORE PUSH1 0x4 ADD PUSH2 0xC59 SWAP1 PUSH2 0x3476 JUMP JUMPDEST PUSH1 0x40 MLOAD DUP1 SWAP2 SUB SWAP1 REVERT JUMPDEST POP JUMPDEST PUSH2 0xC70 DUP5 DUP5 PUSH1 0x1 PUSH2 0x1CD1 JUMP JUMPDEST PUSH2 0xC7A DUP5 DUP3 PUSH2 0x1E22 JUMP JUMPDEST CALLER PUSH20 0xFFFFFFFFFFFFFFFFFFFFFFFFFFFFFFFFFFFFFFFF AND PUSH32 0x6ADA7BD55903567C89B8327013A71A216038DB3DF6A649E67B7587196EC9D627 DUP6 DUP5 DUP5 PUSH1 0x1 DUP9 PUSH1 0x40 MLOAD PUSH2 0xCC9 SWAP6 SWAP5 SWAP4 SWAP3 SWAP2 SWAP1 PUSH2 0x3507 JUMP JUMPDEST PUSH1 0x40 MLOAD DUP1 SWAP2 SUB SWAP1 LOG2 POP POP PUSH2 0xCDB PUSH2 0x2117 JUMP JUMPDEST POP POP JUMP JUMPDEST PUSH2 0xCE7 PUSH2 0x1A36 JUMP JUMPDEST PUSH0 PUSH1 0x9 DUP4 PUSH1 0x40 MLOAD PUSH2 0xCF8 SWAP2 SWAP1 PUSH2 0x3127 JUMP JUMPDEST SWAP1 DUP2 MSTORE PUSH1 0x20 ADD PUSH1 0x40 MLOAD DUP1 SWAP2 SUB SWAP1 KECCAK256 PUSH1 0x1 ADD SLOAD GT DUP1 ISZERO PUSH2 0xD37 JUMPI POP TIMESTAMP PUSH1 0x9 DUP4 PUSH1 0x40 MLOAD PUSH2 0xD23 SWAP2 SWAP1 PUSH2 0x3127 JUMP JUMPDEST SWAP1 DUP2 MSTORE PUSH1 0x20 ADD PUSH1 0x40 MLOAD DUP1 SWAP2 SUB SWAP1 KECCAK256 PUSH1 0x1 ADD SLOAD LT JUMPDEST PUSH2 0xD76 JUMPI PUSH1 0x40 MLOAD PUSH32 0x8C379A000000000000000000000000000000000000000000000000000000000 DUP2 MSTORE PUSH1 0x4 ADD PUSH2 0xD6D SWAP1 PUSH2 0x35A9 JUMP JUMPDEST PUSH1 0x40 MLOAD DUP1 SWAP2 SUB SWAP1 REVERT JUMPDEST PUSH0 PUSH1 0xA DUP4 PUSH1 0x40 MLOAD PUSH2 0xD87 SWAP2 SWAP1 PUSH2 0x3127 JUMP JUMPDEST SWAP1 DUP2 MSTORE PUSH1 0x20 ADD PUSH1 0x40 MLOAD DUP1 SWAP2 SUB SWAP1 KECCAK256 SWAP1 POP DUP2 MLOAD DUP2 DUP1 SLOAD SWAP1 POP LT PUSH2 0x10FE JUMPI PUSH0 JUMPDEST DUP3 MLOAD DUP2 LT ISZERO PUSH2 0x10FC JUMPI PUSH0 DUP4 DUP3 DUP2 MLOAD DUP2 LT PUSH2 0xDC2 JUMPI PUSH2 0xDC1 PUSH2 0x35C7 JUMP JUMPDEST JUMPDEST PUSH1 0x20 MUL PUSH1 0x20 ADD ADD MLOAD SWAP1 POP PUSH0 DUP4 DUP3 PUSH0 ADD MLOAD DUP2 SLOAD DUP2 LT PUSH2 0xDE3 JUMPI PUSH2 0xDE2 PUSH2 0x35C7 JUMP JUMPDEST JUMPDEST SWAP1 PUSH0 MSTORE PUSH1 0x20 PUSH0 KECCAK256 SWAP1 PUSH1 0x2 MUL ADD SWAP1 POP PUSH0 DUP3 PUSH1 0x20 ADD MLOAD GT DUP1 ISZERO PUSH2 0xE13 JUMPI POP DUP1 PUSH1 0x1 ADD PUSH1 0x14 SWAP1 SLOAD SWAP1 PUSH2 0x100 EXP SWAP1 DIV PUSH1 0xFF AND ISZERO JUMPDEST ISZERO PUSH2 0xF90 JUMPI DUP1 PUSH0 ADD SLOAD DUP3 PUSH1 0x20 ADD MLOAD GT ISZERO PUSH2 0xE62 JUMPI PUSH1 0x40 MLOAD PUSH32 0x8C379A000000000000000000000000000000000000000000000000000000000 DUP2 MSTORE PUSH1 0x4 ADD PUSH2 0xE59 SWAP1 PUSH2 0x363E JUMP JUMPDEST PUSH1 0x40 MLOAD DUP1 SWAP2 SUB SWAP1 REVERT JUMPDEST PUSH1 0x1 DUP2 PUSH1 0x1 ADD PUSH1 0x14 PUSH2 0x100 EXP DUP2 SLOAD DUP2 PUSH1 0xFF MUL NOT AND SWAP1 DUP4 ISZERO ISZERO MUL OR SWAP1 SSTORE POP DUP2 PUSH1 0x20 ADD MLOAD PUSH1 0x8 DUP8 PUSH1 0x40 MLOAD PUSH2 0xE94 SWAP2 SWAP1 PUSH2 0x3127 JUMP JUMPDEST SWAP1 DUP2 MSTORE PUSH1 0x20 ADD PUSH1 0x40 MLOAD DUP1 SWAP2 SUB SWAP1 KECCAK256 PUSH0 DUP4 PUSH1 0x1 ADD PUSH0 SWAP1 SLOAD SWAP1 PUSH2 0x100 EXP SWAP1 DIV PUSH20 0xFFFFFFFFFFFFFFFFFFFFFFFFFFFFFFFFFFFFFFFF AND PUSH20 0xFFFFFFFFFFFFFFFFFFFFFFFFFFFFFFFFFFFFFFFF AND PUSH20 0xFFFFFFFFFFFFFFFFFFFFFFFFFFFFFFFFFFFFFFFF AND DUP2 MSTORE PUSH1 0x20 ADD SWAP1 DUP2 MSTORE PUSH1 0x20 ADD PUSH0 KECCAK256 PUSH0 ADD SLOAD PUSH2 0xF0D SWAP2 SWAP1 PUSH2 0x301C JUMP JUMPDEST PUSH1 0x8 DUP8 PUSH1 0x40 MLOAD PUSH2 0xF1D SWAP2 SWAP1 PUSH2 0x3127 JUMP JUMPDEST SWAP1 DUP2 MSTORE PUSH1 0x20 ADD PUSH1 0x40 MLOAD DUP1 SWAP2 SUB SWAP1 KECCAK256 PUSH0 DUP4 PUSH1 0x1 ADD PUSH0 SWAP1 SLOAD SWAP1 PUSH2 0x100 EXP SWAP1 DIV PUSH20 0xFFFFFFFFFFFFFFFFFFFFFFFFFFFFFFFFFFFFFFFF AND PUSH20 0xFFFFFFFFFFFFFFFFFFFFFFFFFFFFFFFFFFFFFFFF AND PUSH20 0xFFFFFFFFFFFFFFFFFFFFFFFFFFFFFFFFFFFFFFFF AND DUP2 MSTORE PUSH1 0x20 ADD SWAP1 DUP2 MSTORE PUSH1 0x20 ADD PUSH0 KECCAK256 PUSH0 ADD DUP2 SWAP1 SSTORE POP JUMPDEST DUP2 PUSH1 0x20 ADD MLOAD DUP2 PUSH0 ADD SLOAD GT ISZERO PUSH2 0x1094 JUMPI PUSH0 PUSH6 0x5AF3107A4000 DUP4 PUSH1 0x20 ADD MLOAD DUP4 PUSH0 ADD SLOAD PUSH2 0xFBA SWAP2 SWAP1 PUSH2 0x313D JUMP JUMPDEST PUSH2 0xFC4 SWAP2 SWAP1 PUSH2 0x3240 JUMP JUMPDEST SWAP1 POP PUSH0 DUP3 PUSH1 0x1 ADD PUSH0 SWAP1 SLOAD SWAP1 PUSH2 0x100 EXP SWAP1 DIV PUSH20 0xFFFFFFFFFFFFFFFFFFFFFFFFFFFFFFFFFFFFFFFF AND PUSH20 0xFFFFFFFFFFFFFFFFFFFFFFFFFFFFFFFFFFFFFFFF AND DUP3 PUSH1 0x40 MLOAD PUSH2 0x100E SWAP1 PUSH2 0x3418 JUMP JUMPDEST PUSH0 PUSH1 0x40 MLOAD DUP1 DUP4 SUB DUP2 DUP6 DUP8 GAS CALL SWAP3 POP POP POP RETURNDATASIZE DUP1 PUSH0 DUP2 EQ PUSH2 0x1048 JUMPI PUSH1 0x40 MLOAD SWAP2 POP PUSH1 0x1F NOT PUSH1 0x3F RETURNDATASIZE ADD AND DUP3 ADD PUSH1 0x40 MSTORE RETURNDATASIZE DUP3 MSTORE RETURNDATASIZE PUSH0 PUSH1 0x20 DUP5 ADD RETURNDATACOPY PUSH2 0x104D JUMP JUMPDEST PUSH1 0x60 SWAP2 POP JUMPDEST POP POP SWAP1 POP DUP1 PUSH2 0x1091 JUMPI PUSH1 0x40 MLOAD PUSH32 0x8C379A000000000000000000000000000000000000000000000000000000000 DUP2 MSTORE PUSH1 0x4 ADD PUSH2 0x1088 SWAP1 PUSH2 0x36A6 JUMP JUMPDEST PUSH1 0x40 MLOAD DUP1 SWAP2 SUB SWAP1 REVERT JUMPDEST POP POP JUMPDEST CALLER PUSH20 0xFFFFFFFFFFFFFFFFFFFFFFFFFFFFFFFFFFFFFFFF AND PUSH32 0x8C9E8D098831D9986A518015050DBF5AE39AF8120C13CBD80AF65BF63D2C84E DUP8 DUP5 PUSH0 ADD MLOAD PUSH1 0x40 MLOAD PUSH2 0x10DF SWAP3 SWAP2 SWAP1 PUSH2 0x36C4 JUMP JUMPDEST PUSH1 0x40 MLOAD DUP1 SWAP2 SUB SWAP1 LOG2 POP POP DUP1 DUP1 PUSH2 0x10F4 SWAP1 PUSH2 0x36F2 JUMP JUMPDEST SWAP2 POP POP PUSH2 0xDA5 JUMP JUMPDEST POP JUMPDEST POP POP POP JUMP JUMPDEST PUSH0 PUSH1 0x8 DUP3 PUSH1 0x40 MLOAD PUSH2 0x1114 SWAP2 SWAP1 PUSH2 0x3127 JUMP JUMPDEST SWAP1 DUP2 MSTORE PUSH1 0x20 ADD PUSH1 0x40 MLOAD DUP1 SWAP2 SUB SWAP1 KECCAK256 PUSH0 CALLER PUSH20 0xFFFFFFFFFFFFFFFFFFFFFFFFFFFFFFFFFFFFFFFF AND PUSH20 0xFFFFFFFFFFFFFFFFFFFFFFFFFFFFFFFFFFFFFFFF AND DUP2 MSTORE PUSH1 0x20 ADD SWAP1 DUP2 MSTORE PUSH1 0x20 ADD PUSH0 KECCAK256 SWAP1 POP PUSH0 DUP2 PUSH1 0x2 ADD SLOAD GT PUSH2 0x11A5 JUMPI PUSH1 0x40 MLOAD PUSH32 0x8C379A000000000000000000000000000000000000000000000000000000000 DUP2 MSTORE PUSH1 0x4 ADD PUSH2 0x119C SWAP1 PUSH2 0x3783 JUMP JUMPDEST PUSH1 0x40 MLOAD DUP1 SWAP2 SUB SWAP1 REVERT JUMPDEST PUSH0 DUP2 PUSH1 0x2 ADD DUP2 SWAP1 SSTORE POP PUSH1 0x9 DUP3 PUSH1 0x40 MLOAD PUSH2 0x11BE SWAP2 SWAP1 PUSH2 0x3127 JUMP JUMPDEST SWAP1 DUP2 MSTORE PUSH1 0x20 ADD PUSH1 0x40 MLOAD DUP1 SWAP2 SUB SWAP1 KECCAK256 PUSH1 0x5 ADD SLOAD DUP2 PUSH1 0x1 ADD DUP2 SWAP1 SSTORE POP PUSH0 CALLER PUSH20 0xFFFFFFFFFFFFFFFFFFFFFFFFFFFFFFFFFFFFFFFF AND DUP3 PUSH1 0x2 ADD SLOAD PUSH1 0x40 MLOAD PUSH2 0x1201 SWAP1 PUSH2 0x3418 JUMP JUMPDEST PUSH0 PUSH1 0x40 MLOAD DUP1 DUP4 SUB DUP2 DUP6 DUP8 GAS CALL SWAP3 POP POP POP RETURNDATASIZE DUP1 PUSH0 DUP2 EQ PUSH2 0x123B JUMPI PUSH1 0x40 MLOAD SWAP2 POP PUSH1 0x1F NOT PUSH1 0x3F RETURNDATASIZE ADD AND DUP3 ADD PUSH1 0x40 MSTORE RETURNDATASIZE DUP3 MSTORE RETURNDATASIZE PUSH0 PUSH1 0x20 DUP5 ADD RETURNDATACOPY PUSH2 0x1240 JUMP JUMPDEST PUSH1 0x60 SWAP2 POP JUMPDEST POP POP SWAP1 POP DUP1 PUSH2 0x1284 JUMPI PUSH1 0x40 MLOAD PUSH32 0x8C379A000000000000000000000000000000000000000000000000000000000 DUP2 MSTORE PUSH1 0x4 ADD PUSH2 0x127B SWAP1 PUSH2 0x37EB JUMP JUMPDEST PUSH1 0x40 MLOAD DUP1 SWAP2 SUB SWAP1 REVERT JUMPDEST CALLER PUSH20 0xFFFFFFFFFFFFFFFFFFFFFFFFFFFFFFFFFFFFFFFF AND PUSH32 0x993E0BD4F9A748F72A00DF2734702169394DCC517837226EA1F4EED1E673F32 DUP5 DUP5 PUSH1 0x2 ADD SLOAD PUSH1 0x40 MLOAD PUSH2 0x12D0 SWAP3 SWAP2 SWAP1 PUSH2 0x36C4 JUMP JUMPDEST PUSH1 0x40 MLOAD DUP1 SWAP2 SUB SWAP1 LOG2 POP POP POP JUMP JUMPDEST PUSH0 DUP1 PUSH0 DUP1 PUSH2 0x12EB DUP7 DUP7 PUSH2 0x2120 JUMP JUMPDEST SWAP2 POP SWAP2 POP DUP2 DUP2 SWAP4 POP SWAP4 POP POP POP SWAP3 POP SWAP3 SWAP1 POP JUMP JUMPDEST PUSH1 0x8 DUP3 DUP1 MLOAD PUSH1 0x20 DUP2 ADD DUP3 ADD DUP1 MLOAD DUP5 DUP3 MSTORE PUSH1 0x20 DUP4 ADD PUSH1 0x20 DUP6 ADD KECCAK256 DUP2 DUP4 MSTORE DUP1 SWAP6 POP POP POP POP POP POP PUSH1 0x20 MSTORE DUP1 PUSH0 MSTORE PUSH1 0x40 PUSH0 KECCAK256 PUSH0 SWAP2 POP SWAP2 POP POP DUP1 PUSH0 ADD SLOAD SWAP1 DUP1 PUSH1 0x1 ADD SLOAD SWAP1 DUP1 PUSH1 0x2 ADD SLOAD SWAP1 POP DUP4 JUMP JUMPDEST PUSH0 PUSH2 0x1351 DUP4 PUSH2 0x6E1 JUMP JUMPDEST SWAP1 POP PUSH0 PUSH1 0x9 DUP3 PUSH1 0x40 MLOAD PUSH2 0x1364 SWAP2 SWAP1 PUSH2 0x3127 JUMP JUMPDEST SWAP1 DUP2 MSTORE PUSH1 0x20 ADD PUSH1 0x40 MLOAD DUP1 SWAP2 SUB SWAP1 KECCAK256 PUSH1 0x1 ADD SLOAD EQ PUSH2 0x13B6 JUMPI PUSH1 0x40 MLOAD PUSH32 0x8C379A000000000000000000000000000000000000000000000000000000000 DUP2 MSTORE PUSH1 0x4 ADD PUSH2 0x13AD SWAP1 PUSH2 0x3853 JUMP JUMPDEST PUSH1 0x40 MLOAD DUP1 SWAP2 SUB SWAP1 REVERT JUMPDEST PUSH0 CALLER DUP5 PUSH1 0x6 PUSH0 PUSH2 0x13C4 PUSH2 0x22CB JUMP JUMPDEST PUSH20 0xFFFFFFFFFFFFFFFFFFFFFFFFFFFFFFFFFFFFFFFF AND PUSH20 0xFFFFFFFFFFFFFFFFFFFFFFFFFFFFFFFFFFFFFFFF AND DUP2 MSTORE PUSH1 0x20 ADD SWAP1 DUP2 MSTORE PUSH1 0x20 ADD PUSH0 KECCAK256 SLOAD PUSH1 0x40 MLOAD PUSH1 0x20 ADD PUSH2 0x1410 SWAP4 SWAP3 SWAP2 SWAP1 PUSH2 0x391A JUMP JUMPDEST PUSH1 0x40 MLOAD PUSH1 0x20 DUP2 DUP4 SUB SUB DUP2 MSTORE SWAP1 PUSH1 0x40 MSTORE DUP1 MLOAD SWAP1 PUSH1 0x20 ADD KECCAK256 SWAP1 POP PUSH2 0x1474 DUP2 DUP5 PUSH1 0x7 PUSH0 SWAP1 SLOAD SWAP1 PUSH2 0x100 EXP SWAP1 DIV PUSH20 0xFFFFFFFFFFFFFFFFFFFFFFFFFFFFFFFFFFFFFFFF AND PUSH20 0xFFFFFFFFFFFFFFFFFFFFFFFFFFFFFFFFFFFFFFFF AND PUSH2 0x22D2 SWAP1 SWAP3 SWAP2 SWAP1 PUSH4 0xFFFFFFFF AND JUMP JUMPDEST PUSH2 0x14B3 JUMPI PUSH1 0x40 MLOAD PUSH32 0x8C379A000000000000000000000000000000000000000000000000000000000 DUP2 MSTORE PUSH1 0x4 ADD PUSH2 0x14AA SWAP1 PUSH2 0x399C JUMP JUMPDEST PUSH1 0x40 MLOAD DUP1 SWAP2 SUB SWAP1 REVERT JUMPDEST PUSH0 PUSH2 0xE10 TIMESTAMP PUSH2 0x14C2 SWAP2 SWAP1 PUSH2 0x301C JUMP JUMPDEST SWAP1 POP PUSH1 0x40 MLOAD DUP1 PUSH1 0xC0 ADD PUSH1 0x40 MSTORE DUP1 CALLER PUSH20 0xFFFFFFFFFFFFFFFFFFFFFFFFFFFFFFFFFFFFFFFF AND DUP2 MSTORE PUSH1 0x20 ADD DUP3 DUP2 MSTORE PUSH1 0x20 ADD PUSH0 DUP2 MSTORE PUSH1 0x20 ADD PUSH0 DUP2 MSTORE PUSH1 0x20 ADD PUSH0 DUP2 MSTORE PUSH1 0x20 ADD PUSH0 DUP2 MSTORE POP PUSH1 0x9 DUP5 PUSH1 0x40 MLOAD PUSH2 0x1517 SWAP2 SWAP1 PUSH2 0x3127 JUMP JUMPDEST SWAP1 DUP2 MSTORE PUSH1 0x20 ADD PUSH1 0x40 MLOAD DUP1 SWAP2 SUB SWAP1 KECCAK256 PUSH0 DUP3 ADD MLOAD DUP2 PUSH0 ADD PUSH0 PUSH2 0x100 EXP DUP2 SLOAD DUP2 PUSH20 0xFFFFFFFFFFFFFFFFFFFFFFFFFFFFFFFFFFFFFFFF MUL NOT AND SWAP1 DUP4 PUSH20 0xFFFFFFFFFFFFFFFFFFFFFFFFFFFFFFFFFFFFFFFF AND MUL OR SWAP1 SSTORE POP PUSH1 0x20 DUP3 ADD MLOAD DUP2 PUSH1 0x1 ADD SSTORE PUSH1 0x40 DUP3 ADD MLOAD DUP2 PUSH1 0x2 ADD SSTORE PUSH1 0x60 DUP3 ADD MLOAD DUP2 PUSH1 0x3 ADD SSTORE PUSH1 0x80 DUP3 ADD MLOAD DUP2 PUSH1 0x4 ADD SSTORE PUSH1 0xA0 DUP3 ADD MLOAD DUP2 PUSH1 0x5 ADD SSTORE SWAP1 POP POP CALLER PUSH20 0xFFFFFFFFFFFFFFFFFFFFFFFFFFFFFFFFFFFFFFFF AND PUSH32 0xF126EC1FBB7D521827771BFB48EF46EB9059C22613C14D6C7E7FFE14D5B52F5 DUP7 DUP4 PUSH1 0x40 MLOAD PUSH2 0x15E6 SWAP3 SWAP2 SWAP1 PUSH2 0x39F2 JUMP JUMPDEST PUSH1 0x40 MLOAD DUP1 SWAP2 SUB SWAP1 LOG2 POP POP POP POP POP JUMP JUMPDEST PUSH1 0x6 PUSH1 0x20 MSTORE DUP1 PUSH0 MSTORE PUSH1 0x40 PUSH0 KECCAK256 PUSH0 SWAP2 POP SWAP1 POP SLOAD DUP2 JUMP JUMPDEST PUSH1 0x2 SLOAD DUP2 JUMP JUMPDEST PUSH2 0x1618 PUSH2 0x2789 JUMP JUMPDEST PUSH1 0x8 DUP4 PUSH1 0x40 MLOAD PUSH2 0x1628 SWAP2 SWAP1 PUSH2 0x3127 JUMP JUMPDEST SWAP1 DUP2 MSTORE PUSH1 0x20 ADD PUSH1 0x40 MLOAD DUP1 SWAP2 SUB SWAP1 KECCAK256 PUSH0 DUP4 PUSH20 0xFFFFFFFFFFFFFFFFFFFFFFFFFFFFFFFFFFFFFFFF AND PUSH20 0xFFFFFFFFFFFFFFFFFFFFFFFFFFFFFFFFFFFFFFFF AND DUP2 MSTORE PUSH1 0x20 ADD SWAP1 DUP2 MSTORE PUSH1 0x20 ADD PUSH0 KECCAK256 PUSH1 0x40 MLOAD DUP1 PUSH1 0x60 ADD PUSH1 0x40 MSTORE SWAP1 DUP2 PUSH0 DUP3 ADD SLOAD DUP2 MSTORE PUSH1 0x20 ADD PUSH1 0x1 DUP3 ADD SLOAD DUP2 MSTORE PUSH1 0x20 ADD PUSH1 0x2 DUP3 ADD SLOAD DUP2 MSTORE POP POP SWAP1 POP SWAP3 SWAP2 POP POP JUMP JUMPDEST PUSH1 0x3 SLOAD DUP2 JUMP JUMPDEST PUSH2 0x16AF PUSH2 0x1B7E JUMP JUMPDEST PUSH0 DUP2 GT PUSH2 0x16F1 JUMPI PUSH1 0x40 MLOAD PUSH32 0x8C379A000000000000000000000000000000000000000000000000000000000 DUP2 MSTORE PUSH1 0x4 ADD PUSH2 0x16E8 SWAP1 PUSH2 0x336F JUMP JUMPDEST PUSH1 0x40 MLOAD DUP1 SWAP2 SUB SWAP1 REVERT JUMPDEST DUP1 PUSH1 0x8 DUP4 PUSH1 0x40 MLOAD PUSH2 0x1702 SWAP2 SWAP1 PUSH2 0x3127 JUMP JUMPDEST SWAP1 DUP2 MSTORE PUSH1 0x20 ADD PUSH1 0x40 MLOAD DUP1 SWAP2 SUB SWAP1 KECCAK256 PUSH0 CALLER PUSH20 0xFFFFFFFFFFFFFFFFFFFFFFFFFFFFFFFFFFFFFFFF AND PUSH20 0xFFFFFFFFFFFFFFFFFFFFFFFFFFFFFFFFFFFFFFFF AND DUP2 MSTORE PUSH1 0x20 ADD SWAP1 DUP2 MSTORE PUSH1 0x20 ADD PUSH0 KECCAK256 PUSH0 ADD SLOAD EQ PUSH2 0x178E JUMPI PUSH1 0x40 MLOAD PUSH32 0x8C379A000000000000000000000000000000000000000000000000000000000 DUP2 MSTORE PUSH1 0x4 ADD PUSH2 0x1785 SWAP1 PUSH2 0x3A6A JUMP JUMPDEST PUSH1 0x40 MLOAD DUP1 SWAP2 SUB SWAP1 REVERT JUMPDEST PUSH0 DUP1 PUSH2 0x179A DUP5 DUP5 PUSH2 0x2120 JUMP JUMPDEST SWAP2 POP SWAP2 POP PUSH0 CALLER PUSH20 0xFFFFFFFFFFFFFFFFFFFFFFFFFFFFFFFFFFFFFFFF AND DUP3 DUP5 PUSH2 0x17C2 SWAP2 SWAP1 PUSH2 0x313D JUMP JUMPDEST PUSH1 0x40 MLOAD PUSH2 0x17CE SWAP1 PUSH2 0x3418 JUMP JUMPDEST PUSH0 PUSH1 0x40 MLOAD DUP1 DUP4 SUB DUP2 DUP6 DUP8 GAS CALL SWAP3 POP POP POP RETURNDATASIZE DUP1 PUSH0 DUP2 EQ PUSH2 0x1808 JUMPI PUSH1 0x40 MLOAD SWAP2 POP PUSH1 0x1F NOT PUSH1 0x3F RETURNDATASIZE ADD AND DUP3 ADD PUSH1 0x40 MSTORE RETURNDATASIZE DUP3 MSTORE RETURNDATASIZE PUSH0 PUSH1 0x20 DUP5 ADD RETURNDATACOPY PUSH2 0x180D JUMP JUMPDEST PUSH1 0x60 SWAP2 POP JUMPDEST POP POP SWAP1 POP DUP1 PUSH2 0x1851 JUMPI PUSH1 0x40 MLOAD PUSH32 0x8C379A000000000000000000000000000000000000000000000000000000000 DUP2 MSTORE PUSH1 0x4 ADD PUSH2 0x1848 SWAP1 PUSH2 0x3AD2 JUMP JUMPDEST PUSH1 0x40 MLOAD DUP1 SWAP2 SUB SWAP1 REVERT JUMPDEST PUSH2 0x185D DUP6 DUP6 PUSH1 0x2 PUSH2 0x1CD1 JUMP JUMPDEST PUSH2 0x1867 DUP6 DUP4 PUSH2 0x1E22 JUMP JUMPDEST CALLER PUSH20 0xFFFFFFFFFFFFFFFFFFFFFFFFFFFFFFFFFFFFFFFF AND PUSH32 0x6ADA7BD55903567C89B8327013A71A216038DB3DF6A649E67B7587196EC9D627 DUP7 DUP6 DUP6 PUSH1 0x2 DUP10 PUSH1 0x40 MLOAD PUSH2 0x18B6 SWAP6 SWAP5 SWAP4 SWAP3 SWAP2 SWAP1 PUSH2 0x3507 JUMP JUMPDEST PUSH1 0x40 MLOAD DUP1 SWAP2 SUB SWAP1 LOG2 POP POP POP PUSH2 0x18C9 PUSH2 0x2117 JUMP JUMPDEST POP POP JUMP JUMPDEST PUSH2 0x18D5 PUSH2 0x1A36 JUMP JUMPDEST DUP1 PUSH20 0xFFFFFFFFFFFFFFFFFFFFFFFFFFFFFFFFFFFFFFFF AND PUSH0 PUSH20 0xFFFFFFFFFFFFFFFFFFFFFFFFFFFFFFFFFFFFFFFF AND SUB PUSH2 0x1943 JUMPI PUSH1 0x40 MLOAD PUSH32 0x8C379A000000000000000000000000000000000000000000000000000000000 DUP2 MSTORE PUSH1 0x4 ADD PUSH2 0x193A SWAP1 PUSH2 0x3B3A JUMP JUMPDEST PUSH1 0x40 MLOAD DUP1 SWAP2 SUB SWAP1 REVERT JUMPDEST DUP1 PUSH1 0xC PUSH0 PUSH2 0x100 EXP DUP2 SLOAD DUP2 PUSH20 0xFFFFFFFFFFFFFFFFFFFFFFFFFFFFFFFFFFFFFFFF MUL NOT AND SWAP1 DUP4 PUSH20 0xFFFFFFFFFFFFFFFFFFFFFFFFFFFFFFFFFFFFFFFF AND MUL OR SWAP1 SSTORE POP POP JUMP JUMPDEST PUSH7 0x38D7EA4C68000 DUP2 JUMP JUMPDEST PUSH0 DUP1 PUSH0 DUP1 PUSH2 0x199F DUP7 DUP7 PUSH2 0x1BC4 JUMP JUMPDEST SWAP2 POP SWAP2 POP DUP2 DUP2 SWAP4 POP SWAP4 POP POP POP SWAP3 POP SWAP3 SWAP1 POP JUMP JUMPDEST PUSH2 0x19BA PUSH2 0x1A36 JUMP JUMPDEST PUSH0 PUSH20 0xFFFFFFFFFFFFFFFFFFFFFFFFFFFFFFFFFFFFFFFF AND DUP2 PUSH20 0xFFFFFFFFFFFFFFFFFFFFFFFFFFFFFFFFFFFFFFFF AND SUB PUSH2 0x1A2A JUMPI PUSH0 PUSH1 0x40 MLOAD PUSH32 0x1E4FBDF700000000000000000000000000000000000000000000000000000000 DUP2 MSTORE PUSH1 0x4 ADD PUSH2 0x1A21 SWAP2 SWAP1 PUSH2 0x2C1B JUMP JUMPDEST PUSH1 0x40 MLOAD DUP1 SWAP2 SUB SWAP1 REVERT JUMPDEST PUSH2 0x1A33 DUP2 PUSH2 0x1ABD JUMP JUMPDEST POP JUMP JUMPDEST PUSH2 0x1A3E PUSH2 0x22CB JUMP JUMPDEST PUSH20 0xFFFFFFFFFFFFFFFFFFFFFFFFFFFFFFFFFFFFFFFF AND PUSH2 0x1A5C PUSH2 0xAC3 JUMP JUMPDEST PUSH20 0xFFFFFFFFFFFFFFFFFFFFFFFFFFFFFFFFFFFFFFFF AND EQ PUSH2 0x1ABB JUMPI PUSH2 0x1A7F PUSH2 0x22CB JUMP JUMPDEST PUSH1 0x40 MLOAD PUSH32 0x118CDAA700000000000000000000000000000000000000000000000000000000 DUP2 MSTORE PUSH1 0x4 ADD PUSH2 0x1AB2 SWAP2 SWAP1 PUSH2 0x2C1B JUMP JUMPDEST PUSH1 0x40 MLOAD DUP1 SWAP2 SUB SWAP1 REVERT JUMPDEST JUMP JUMPDEST PUSH0 DUP1 PUSH0 SWAP1 SLOAD SWAP1 PUSH2 0x100 EXP SWAP1 DIV PUSH20 0xFFFFFFFFFFFFFFFFFFFFFFFFFFFFFFFFFFFFFFFF AND SWAP1 POP DUP2 PUSH0 DUP1 PUSH2 0x100 EXP DUP2 SLOAD DUP2 PUSH20 0xFFFFFFFFFFFFFFFFFFFFFFFFFFFFFFFFFFFFFFFF MUL NOT AND SWAP1 DUP4 PUSH20 0xFFFFFFFFFFFFFFFFFFFFFFFFFFFFFFFFFFFFFFFF AND MUL OR SWAP1 SSTORE POP DUP2 PUSH20 0xFFFFFFFFFFFFFFFFFFFFFFFFFFFFFFFFFFFFFFFF AND DUP2 PUSH20 0xFFFFFFFFFFFFFFFFFFFFFFFFFFFFFFFFFFFFFFFF AND PUSH32 0x8BE0079C531659141344CD1FD0A4F28419497F9722A3DAAFE3B4186F6B6457E0 PUSH1 0x40 MLOAD PUSH1 0x40 MLOAD DUP1 SWAP2 SUB SWAP1 LOG3 POP POP JUMP JUMPDEST PUSH1 0x2 PUSH1 0x1 SLOAD SUB PUSH2 0x1BBA JUMPI PUSH1 0x40 MLOAD PUSH32 0x3EE5AEB500000000000000000000000000000000000000000000000000000000 DUP2 MSTORE PUSH1 0x4 ADD PUSH1 0x40 MLOAD DUP1 SWAP2 SUB SWAP1 REVERT JUMPDEST PUSH1 0x2 PUSH1 0x1 DUP2 SWAP1 SSTORE POP JUMP JUMPDEST PUSH0 DUP1 PUSH0 DUP4 GT PUSH2 0x1C08 JUMPI PUSH1 0x40 MLOAD PUSH32 0x8C379A000000000000000000000000000000000000000000000000000000000 DUP2 MSTORE PUSH1 0x4 ADD PUSH2 0x1BFF SWAP1 PUSH2 0x336F JUMP JUMPDEST PUSH1 0x40 MLOAD DUP1 SWAP2 SUB SWAP1 REVERT JUMPDEST PUSH0 DUP1 PUSH1 0x9 DUP7 PUSH1 0x40 MLOAD PUSH2 0x1C1A SWAP2 SWAP1 PUSH2 0x3127 JUMP JUMPDEST SWAP1 DUP2 MSTORE PUSH1 0x20 ADD PUSH1 0x40 MLOAD DUP1 SWAP2 SUB SWAP1 KECCAK256 PUSH1 0x3 ADD SLOAD SWAP1 POP PUSH0 JUMPDEST DUP6 DUP2 LT ISZERO PUSH2 0x1CAF JUMPI PUSH0 PUSH1 0x1 DUP4 PUSH2 0x1C46 SWAP2 SWAP1 PUSH2 0x301C JUMP JUMPDEST SWAP1 POP PUSH0 PUSH6 0x5AF3107A4000 SWAP1 POP PUSH1 0x64 DUP3 GT ISZERO PUSH2 0x1C89 JUMPI PUSH1 0xB PUSH0 DUP4 DUP2 MSTORE PUSH1 0x20 ADD SWAP1 DUP2 MSTORE PUSH1 0x20 ADD PUSH0 KECCAK256 SLOAD SWAP1 POP PUSH6 0x5AF3107A4000 DUP2 GT PUSH2 0x1C88 JUMPI PUSH2 0x1C85 DUP3 PUSH2 0x235F JUMP JUMPDEST SWAP1 POP JUMPDEST JUMPDEST DUP1 DUP6 PUSH2 0x1C95 SWAP2 SWAP1 PUSH2 0x301C JUMP JUMPDEST SWAP5 POP DUP2 SWAP4 POP POP POP DUP1 DUP1 PUSH2 0x1CA7 SWAP1 PUSH2 0x36F2 JUMP JUMPDEST SWAP2 POP POP PUSH2 0x1C30 JUMP JUMPDEST POP PUSH0 PUSH2 0x1CBF DUP4 PUSH1 0x2 SLOAD PUSH1 0x64 PUSH2 0x242F JUMP JUMPDEST SWAP1 POP DUP3 DUP2 SWAP5 POP SWAP5 POP POP POP POP SWAP3 POP SWAP3 SWAP1 POP JUMP JUMPDEST PUSH0 DUP3 GT ISZERO PUSH2 0x1E1D JUMPI PUSH0 PUSH1 0x8 DUP5 PUSH1 0x40 MLOAD PUSH2 0x1CEA SWAP2 SWAP1 PUSH2 0x3127 JUMP JUMPDEST SWAP1 DUP2 MSTORE PUSH1 0x20 ADD PUSH1 0x40 MLOAD DUP1 SWAP2 SUB SWAP1 KECCAK256 PUSH0 CALLER PUSH20 0xFFFFFFFFFFFFFFFFFFFFFFFFFFFFFFFFFFFFFFFF AND PUSH20 0xFFFFFFFFFFFFFFFFFFFFFFFFFFFFFFFFFFFFFFFF AND DUP2 MSTORE PUSH1 0x20 ADD SWAP1 DUP2 MSTORE PUSH1 0x20 ADD PUSH0 KECCAK256 SWAP1 POP DUP1 PUSH0 ADD SLOAD DUP2 PUSH1 0x1 ADD SLOAD PUSH1 0x9 DUP7 PUSH1 0x40 MLOAD PUSH2 0x1D4E SWAP2 SWAP1 PUSH2 0x3127 JUMP JUMPDEST SWAP1 DUP2 MSTORE PUSH1 0x20 ADD PUSH1 0x40 MLOAD DUP1 SWAP2 SUB SWAP1 KECCAK256 PUSH1 0x5 ADD SLOAD PUSH2 0x1D6A SWAP2 SWAP1 PUSH2 0x313D JUMP JUMPDEST PUSH2 0x1D74 SWAP2 SWAP1 PUSH2 0x3240 JUMP JUMPDEST DUP2 PUSH1 0x2 ADD PUSH0 DUP3 DUP3 SLOAD PUSH2 0x1D86 SWAP2 SWAP1 PUSH2 0x301C JUMP JUMPDEST SWAP3 POP POP DUP2 SWAP1 SSTORE POP PUSH1 0x1 PUSH1 0x2 DUP2 GT ISZERO PUSH2 0x1DA1 JUMPI PUSH2 0x1DA0 PUSH2 0x3494 JUMP JUMPDEST JUMPDEST DUP3 PUSH1 0x2 DUP2 GT ISZERO PUSH2 0x1DB4 JUMPI PUSH2 0x1DB3 PUSH2 0x3494 JUMP JUMPDEST JUMPDEST SUB PUSH2 0x1DD7 JUMPI DUP3 DUP2 PUSH0 ADD PUSH0 DUP3 DUP3 SLOAD PUSH2 0x1DCB SWAP2 SWAP1 PUSH2 0x301C JUMP JUMPDEST SWAP3 POP POP DUP2 SWAP1 SSTORE POP PUSH2 0x1DF1 JUMP JUMPDEST DUP3 DUP2 PUSH0 ADD PUSH0 DUP3 DUP3 SLOAD PUSH2 0x1DE9 SWAP2 SWAP1 PUSH2 0x313D JUMP JUMPDEST SWAP3 POP POP DUP2 SWAP1 SSTORE POP JUMPDEST PUSH1 0x9 DUP5 PUSH1 0x40 MLOAD PUSH2 0x1E01 SWAP2 SWAP1 PUSH2 0x3127 JUMP JUMPDEST SWAP1 DUP2 MSTORE PUSH1 0x20 ADD PUSH1 0x40 MLOAD DUP1 SWAP2 SUB SWAP1 KECCAK256 PUSH1 0x5 ADD SLOAD DUP2 PUSH1 0x1 ADD DUP2 SWAP1 SSTORE POP POP JUMPDEST POP POP POP JUMP JUMPDEST PUSH0 PUSH1 0x9 DUP4 PUSH1 0x40 MLOAD PUSH2 0x1E33 SWAP2 SWAP1 PUSH2 0x3127 JUMP JUMPDEST SWAP1 DUP2 MSTORE PUSH1 0x20 ADD PUSH1 0x40 MLOAD DUP1 SWAP2 SUB SWAP1 KECCAK256 SWAP1 POP PUSH0 DUP3 GT ISZERO PUSH2 0x2112 JUMPI PUSH0 PUSH2 0x1E5B DUP4 PUSH1 0x3 SLOAD PUSH1 0x2 SLOAD PUSH2 0x242F JUMP JUMPDEST SWAP1 POP DUP1 DUP3 PUSH1 0x4 ADD SLOAD PUSH2 0x1E6D SWAP2 SWAP1 PUSH2 0x301C JUMP JUMPDEST DUP3 PUSH1 0x4 ADD DUP2 SWAP1 SSTORE POP PUSH0 PUSH2 0x1E85 DUP5 PUSH1 0x5 SLOAD PUSH1 0x2 SLOAD PUSH2 0x242F JUMP JUMPDEST SWAP1 POP DUP3 PUSH1 0x3 ADD SLOAD DUP2 PUSH2 0x1E97 SWAP2 SWAP1 PUSH2 0x3B85 JUMP JUMPDEST DUP4 PUSH1 0x5 ADD SLOAD PUSH2 0x1EA6 SWAP2 SWAP1 PUSH2 0x301C JUMP JUMPDEST DUP4 PUSH1 0x5 ADD DUP2 SWAP1 SSTORE POP PUSH0 DUP2 DUP4 DUP7 PUSH2 0x1EBC SWAP2 SWAP1 PUSH2 0x313D JUMP JUMPDEST PUSH2 0x1EC6 SWAP2 SWAP1 PUSH2 0x313D JUMP JUMPDEST SWAP1 POP PUSH0 DUP5 PUSH0 ADD PUSH0 SWAP1 SLOAD SWAP1 PUSH2 0x100 EXP SWAP1 DIV PUSH20 0xFFFFFFFFFFFFFFFFFFFFFFFFFFFFFFFFFFFFFFFF AND PUSH20 0xFFFFFFFFFFFFFFFFFFFFFFFFFFFFFFFFFFFFFFFF AND DUP5 PUSH1 0x40 MLOAD PUSH2 0x1F0F SWAP1 PUSH2 0x3418 JUMP JUMPDEST PUSH0 PUSH1 0x40 MLOAD DUP1 DUP4 SUB DUP2 DUP6 DUP8 GAS CALL SWAP3 POP POP POP RETURNDATASIZE DUP1 PUSH0 DUP2 EQ PUSH2 0x1F49 JUMPI PUSH1 0x40 MLOAD SWAP2 POP PUSH1 0x1F NOT PUSH1 0x3F RETURNDATASIZE ADD AND DUP3 ADD PUSH1 0x40 MSTORE RETURNDATASIZE DUP3 MSTORE RETURNDATASIZE PUSH0 PUSH1 0x20 DUP5 ADD RETURNDATACOPY PUSH2 0x1F4E JUMP JUMPDEST PUSH1 0x60 SWAP2 POP JUMPDEST POP POP SWAP1 POP PUSH0 PUSH1 0xC PUSH0 SWAP1 SLOAD SWAP1 PUSH2 0x100 EXP SWAP1 DIV PUSH20 0xFFFFFFFFFFFFFFFFFFFFFFFFFFFFFFFFFFFFFFFF AND PUSH20 0xFFFFFFFFFFFFFFFFFFFFFFFFFFFFFFFFFFFFFFFF AND DUP4 PUSH1 0x40 MLOAD PUSH2 0x1F98 SWAP1 PUSH2 0x3418 JUMP JUMPDEST PUSH0 PUSH1 0x40 MLOAD DUP1 DUP4 SUB DUP2 DUP6 DUP8 GAS CALL SWAP3 POP POP POP RETURNDATASIZE DUP1 PUSH0 DUP2 EQ PUSH2 0x1FD2 JUMPI PUSH1 0x40 MLOAD SWAP2 POP PUSH1 0x1F NOT PUSH1 0x3F RETURNDATASIZE ADD AND DUP3 ADD PUSH1 0x40 MSTORE RETURNDATASIZE DUP3 MSTORE RETURNDATASIZE PUSH0 PUSH1 0x20 DUP5 ADD RETURNDATACOPY PUSH2 0x1FD7 JUMP JUMPDEST PUSH1 0x60 SWAP2 POP JUMPDEST POP POP SWAP1 POP DUP2 DUP1 ISZERO PUSH2 0x1FE5 JUMPI POP DUP1 JUMPDEST PUSH2 0x2024 JUMPI PUSH1 0x40 MLOAD PUSH32 0x8C379A000000000000000000000000000000000000000000000000000000000 DUP2 MSTORE PUSH1 0x4 ADD PUSH2 0x201B SWAP1 PUSH2 0x3BFF JUMP JUMPDEST PUSH1 0x40 MLOAD DUP1 SWAP2 SUB SWAP1 REVERT JUMPDEST PUSH1 0xC PUSH0 SWAP1 SLOAD SWAP1 PUSH2 0x100 EXP SWAP1 DIV PUSH20 0xFFFFFFFFFFFFFFFFFFFFFFFFFFFFFFFFFFFFFFFF AND PUSH20 0xFFFFFFFFFFFFFFFFFFFFFFFFFFFFFFFFFFFFFFFF AND PUSH32 0x146ABFC20AC2AF0477B300C517FEDDB4CB533ED3B70378A5ECB298F48EC609D7 DUP10 DUP6 PUSH1 0x1 PUSH1 0x40 MLOAD PUSH2 0x2090 SWAP4 SWAP3 SWAP2 SWAP1 PUSH2 0x3C63 JUMP JUMPDEST PUSH1 0x40 MLOAD DUP1 SWAP2 SUB SWAP1 LOG2 DUP6 PUSH0 ADD PUSH0 SWAP1 SLOAD SWAP1 PUSH2 0x100 EXP SWAP1 DIV PUSH20 0xFFFFFFFFFFFFFFFFFFFFFFFFFFFFFFFFFFFFFFFF AND PUSH20 0xFFFFFFFFFFFFFFFFFFFFFFFFFFFFFFFFFFFFFFFF AND PUSH32 0x146ABFC20AC2AF0477B300C517FEDDB4CB533ED3B70378A5ECB298F48EC609D7 DUP10 DUP8 PUSH0 PUSH1 0x40 MLOAD PUSH2 0x2104 SWAP4 SWAP3 SWAP2 SWAP1 PUSH2 0x3C63 JUMP JUMPDEST PUSH1 0x40 MLOAD DUP1 SWAP2 SUB SWAP1 LOG2 POP POP POP POP POP JUMPDEST POP POP POP JUMP JUMPDEST PUSH1 0x1 DUP1 DUP2 SWAP1 SSTORE POP JUMP JUMPDEST PUSH0 DUP1 PUSH0 DUP4 GT PUSH2 0x2164 JUMPI PUSH1 0x40 MLOAD PUSH32 0x8C379A000000000000000000000000000000000000000000000000000000000 DUP2 MSTORE PUSH1 0x4 ADD PUSH2 0x215B SWAP1 PUSH2 0x336F JUMP JUMPDEST PUSH1 0x40 MLOAD DUP1 SWAP2 SUB SWAP1 REVERT JUMPDEST DUP3 PUSH1 0x8 DUP6 PUSH1 0x40 MLOAD PUSH2 0x2175 SWAP2 SWAP1 PUSH2 0x3127 JUMP JUMPDEST SWAP1 DUP2 MSTORE PUSH1 0x20 ADD PUSH1 0x40 MLOAD DUP1 SWAP2 SUB SWAP1 KECCAK256 PUSH0 CALLER PUSH20 0xFFFFFFFFFFFFFFFFFFFFFFFFFFFFFFFFFFFFFFFF AND PUSH20 0xFFFFFFFFFFFFFFFFFFFFFFFFFFFFFFFFFFFFFFFF AND DUP2 MSTORE PUSH1 0x20 ADD SWAP1 DUP2 MSTORE PUSH1 0x20 ADD PUSH0 KECCAK256 PUSH0 ADD SLOAD LT ISZERO PUSH2 0x2202 JUMPI PUSH1 0x40 MLOAD PUSH32 0x8C379A000000000000000000000000000000000000000000000000000000000 DUP2 MSTORE PUSH1 0x4 ADD PUSH2 0x21F9 SWAP1 PUSH2 0x3A6A JUMP JUMPDEST PUSH1 0x40 MLOAD DUP1 SWAP2 SUB SWAP1 REVERT JUMPDEST PUSH0 DUP1 PUSH1 0x9 DUP7 PUSH1 0x40 MLOAD PUSH2 0x2214 SWAP2 SWAP1 PUSH2 0x3127 JUMP JUMPDEST SWAP1 DUP2 MSTORE PUSH1 0x20 ADD PUSH1 0x40 MLOAD DUP1 SWAP2 SUB SWAP1 KECCAK256 PUSH1 0x3 ADD SLOAD SWAP1 POP PUSH0 JUMPDEST DUP6 DUP2 LT ISZERO PUSH2 0x22A9 JUMPI PUSH0 PUSH1 0x1 DUP4 PUSH2 0x2240 SWAP2 SWAP1 PUSH2 0x313D JUMP JUMPDEST SWAP1 POP PUSH0 PUSH6 0x5AF3107A4000 SWAP1 POP PUSH1 0x64 DUP5 GT ISZERO PUSH2 0x2283 JUMPI PUSH1 0xB PUSH0 DUP6 DUP2 MSTORE PUSH1 0x20 ADD SWAP1 DUP2 MSTORE PUSH1 0x20 ADD PUSH0 KECCAK256 SLOAD SWAP1 POP PUSH6 0x5AF3107A4000 DUP2 GT PUSH2 0x2282 JUMPI PUSH2 0x227F DUP5 PUSH2 0x235F JUMP JUMPDEST SWAP1 POP JUMPDEST JUMPDEST DUP1 DUP6 PUSH2 0x228F SWAP2 SWAP1 PUSH2 0x301C JUMP JUMPDEST SWAP5 POP DUP2 SWAP4 POP POP POP DUP1 DUP1 PUSH2 0x22A1 SWAP1 PUSH2 0x36F2 JUMP JUMPDEST SWAP2 POP POP PUSH2 0x222A JUMP JUMPDEST POP PUSH0 PUSH2 0x22B9 DUP4 PUSH1 0x2 SLOAD PUSH1 0x64 PUSH2 0x242F JUMP JUMPDEST SWAP1 POP DUP3 DUP2 SWAP5 POP SWAP5 POP POP POP POP SWAP3 POP SWAP3 SWAP1 POP JUMP JUMPDEST PUSH0 CALLER SWAP1 POP SWAP1 JUMP JUMPDEST PUSH0 DUP1 PUSH0 PUSH2 0x22DF DUP6 DUP6 PUSH2 0x252E JUMP JUMPDEST POP SWAP2 POP SWAP2 POP PUSH0 PUSH1 0x3 DUP2 GT ISZERO PUSH2 0x22F7 JUMPI PUSH2 0x22F6 PUSH2 0x3494 JUMP JUMPDEST JUMPDEST DUP2 PUSH1 0x3 DUP2 GT ISZERO PUSH2 0x230A JUMPI PUSH2 0x2309 PUSH2 0x3494 JUMP JUMPDEST JUMPDEST EQ DUP1 ISZERO PUSH2 0x2342 JUMPI POP DUP6 PUSH20 0xFFFFFFFFFFFFFFFFFFFFFFFFFFFFFFFFFFFFFFFF AND DUP3 PUSH20 0xFFFFFFFFFFFFFFFFFFFFFFFFFFFFFFFFFFFFFFFF AND EQ JUMPDEST DUP1 PUSH2 0x2354 JUMPI POP PUSH2 0x2353 DUP7 DUP7 DUP7 PUSH2 0x2583 JUMP JUMPDEST JUMPDEST SWAP3 POP POP POP SWAP4 SWAP3 POP POP POP JUMP JUMPDEST PUSH0 DUP1 PUSH1 0x64 SWAP1 POP PUSH2 0x3E8 DUP4 GT ISZERO PUSH2 0x23D7 JUMPI PUSH1 0x64 PUSH1 0x3 PUSH1 0x64 DUP6 PUSH2 0x2380 SWAP2 SWAP1 PUSH2 0x313D JUMP JUMPDEST PUSH1 0x64 PUSH2 0x238C SWAP2 SWAP1 PUSH2 0x3240 JUMP JUMPDEST PUSH2 0x2396 SWAP2 SWAP1 PUSH2 0x3B85 JUMP JUMPDEST PUSH1 0x9 PUSH1 0x2 PUSH2 0x3E8 DUP8 PUSH2 0x23A8 SWAP2 SWAP1 PUSH2 0x313D JUMP JUMPDEST PUSH2 0x23B2 SWAP2 SWAP1 PUSH2 0x3DDA JUMP JUMPDEST PUSH2 0x23BC SWAP2 SWAP1 PUSH2 0x3B85 JUMP JUMPDEST PUSH2 0x23C6 SWAP2 SWAP1 PUSH2 0x301C JUMP JUMPDEST PUSH2 0x23D0 SWAP2 SWAP1 PUSH2 0x301C JUMP JUMPDEST SWAP1 POP PUSH2 0x2415 JUMP JUMPDEST PUSH1 0x64 DUP4 GT ISZERO PUSH2 0x2414 JUMPI PUSH1 0x64 PUSH1 0x3 PUSH1 0x64 DUP6 PUSH2 0x23F1 SWAP2 SWAP1 PUSH2 0x313D JUMP JUMPDEST PUSH1 0x64 PUSH2 0x23FD SWAP2 SWAP1 PUSH2 0x3240 JUMP JUMPDEST PUSH2 0x2407 SWAP2 SWAP1 PUSH2 0x3B85 JUMP JUMPDEST PUSH2 0x2411 SWAP2 SWAP1 PUSH2 0x301C JUMP JUMPDEST SWAP1 POP JUMPDEST JUMPDEST PUSH6 0x5AF3107A4000 DUP2 PUSH2 0x2427 SWAP2 SWAP1 PUSH2 0x3240 JUMP JUMPDEST SWAP2 POP POP SWAP2 SWAP1 POP JUMP JUMPDEST PUSH0 DUP1 DUP4 DUP6 MUL SWAP1 POP PUSH0 DUP1 NOT DUP6 DUP8 MULMOD DUP3 DUP2 LT DUP4 DUP3 SUB SUB SWAP2 POP POP PUSH0 DUP2 SUB PUSH2 0x2467 JUMPI DUP4 DUP3 DUP2 PUSH2 0x245D JUMPI PUSH2 0x245C PUSH2 0x3B58 JUMP JUMPDEST JUMPDEST DIV SWAP3 POP POP POP PUSH2 0x2527 JUMP JUMPDEST DUP1 DUP5 GT PUSH2 0x24A0 JUMPI PUSH1 0x40 MLOAD PUSH32 0x227BC15300000000000000000000000000000000000000000000000000000000 DUP2 MSTORE PUSH1 0x4 ADD PUSH1 0x40 MLOAD DUP1 SWAP2 SUB SWAP1 REVERT JUMPDEST PUSH0 DUP5 DUP7 DUP9 MULMOD SWAP1 POP DUP3 DUP2 GT DUP3 SUB SWAP2 POP DUP1 DUP4 SUB SWAP3 POP PUSH0 DUP6 PUSH0 SUB DUP7 AND SWAP1 POP DUP1 DUP7 DIV SWAP6 POP DUP1 DUP5 DIV SWAP4 POP PUSH1 0x1 DUP2 DUP3 PUSH0 SUB DIV ADD SWAP1 POP DUP1 DUP4 MUL DUP5 OR SWAP4 POP PUSH0 PUSH1 0x2 DUP8 PUSH1 0x3 MUL XOR SWAP1 POP DUP1 DUP8 MUL PUSH1 0x2 SUB DUP2 MUL SWAP1 POP DUP1 DUP8 MUL PUSH1 0x2 SUB DUP2 MUL SWAP1 POP DUP1 DUP8 MUL PUSH1 0x2 SUB DUP2 MUL SWAP1 POP DUP1 DUP8 MUL PUSH1 0x2 SUB DUP2 MUL SWAP1 POP DUP1 DUP8 MUL PUSH1 0x2 SUB DUP2 MUL SWAP1 POP DUP1 DUP8 MUL PUSH1 0x2 SUB DUP2 MUL SWAP1 POP DUP1 DUP6 MUL SWAP6 POP POP POP POP POP POP JUMPDEST SWAP4 SWAP3 POP POP POP JUMP JUMPDEST PUSH0 DUP1 PUSH0 PUSH1 0x41 DUP5 MLOAD SUB PUSH2 0x256E JUMPI PUSH0 DUP1 PUSH0 PUSH1 0x20 DUP8 ADD MLOAD SWAP3 POP PUSH1 0x40 DUP8 ADD MLOAD SWAP2 POP PUSH1 0x60 DUP8 ADD MLOAD PUSH0 BYTE SWAP1 POP PUSH2 0x2560 DUP9 DUP3 DUP6 DUP6 PUSH2 0x26A2 JUMP JUMPDEST SWAP6 POP SWAP6 POP SWAP6 POP POP POP POP PUSH2 0x257C JUMP JUMPDEST PUSH0 PUSH1 0x2 DUP6 MLOAD PUSH0 SHL SWAP3 POP SWAP3 POP SWAP3 POP JUMPDEST SWAP3 POP SWAP3 POP SWAP3 JUMP JUMPDEST PUSH0 DUP1 PUSH0 DUP6 PUSH20 0xFFFFFFFFFFFFFFFFFFFFFFFFFFFFFFFFFFFFFFFF AND DUP6 DUP6 PUSH1 0x40 MLOAD PUSH1 0x24 ADD PUSH2 0x25B0 SWAP3 SWAP2 SWAP1 PUSH2 0x3E3C JUMP JUMPDEST PUSH1 0x40 MLOAD PUSH1 0x20 DUP2 DUP4 SUB SUB DUP2 MSTORE SWAP1 PUSH1 0x40 MSTORE PUSH4 0x1626BA7E PUSH1 0xE0 SHL PUSH1 0x20 DUP3 ADD DUP1 MLOAD PUSH28 0xFFFFFFFFFFFFFFFFFFFFFFFFFFFFFFFFFFFFFFFFFFFFFFFFFFFFFFFF DUP4 DUP2 DUP4 AND OR DUP4 MSTORE POP POP POP POP PUSH1 0x40 MLOAD PUSH2 0x2602 SWAP2 SWAP1 PUSH2 0x3127 JUMP JUMPDEST PUSH0 PUSH1 0x40 MLOAD DUP1 DUP4 SUB DUP2 DUP6 GAS STATICCALL SWAP2 POP POP RETURNDATASIZE DUP1 PUSH0 DUP2 EQ PUSH2 0x263A JUMPI PUSH1 0x40 MLOAD SWAP2 POP PUSH1 0x1F NOT PUSH1 0x3F RETURNDATASIZE ADD AND DUP3 ADD PUSH1 0x40 MSTORE RETURNDATASIZE DUP3 MSTORE RETURNDATASIZE PUSH0 PUSH1 0x20 DUP5 ADD RETURNDATACOPY PUSH2 0x263F JUMP JUMPDEST PUSH1 0x60 SWAP2 POP JUMPDEST POP SWAP2 POP SWAP2 POP DUP2 DUP1 ISZERO PUSH2 0x2653 JUMPI POP PUSH1 0x20 DUP2 MLOAD LT ISZERO JUMPDEST DUP1 ISZERO PUSH2 0x2697 JUMPI POP PUSH4 0x1626BA7E PUSH1 0xE0 SHL PUSH28 0xFFFFFFFFFFFFFFFFFFFFFFFFFFFFFFFFFFFFFFFFFFFFFFFFFFFFFFFF NOT AND DUP2 DUP1 PUSH1 0x20 ADD SWAP1 MLOAD DUP2 ADD SWAP1 PUSH2 0x2695 SWAP2 SWAP1 PUSH2 0x3E94 JUMP JUMPDEST EQ JUMPDEST SWAP3 POP POP POP SWAP4 SWAP3 POP POP POP JUMP JUMPDEST PUSH0 DUP1 PUSH0 PUSH32 0x7FFFFFFFFFFFFFFFFFFFFFFFFFFFFFFF5D576E7357A4501DDFE92F46681B20A0 DUP5 PUSH0 SHR GT ISZERO PUSH2 0x26DE JUMPI PUSH0 PUSH1 0x3 DUP6 SWAP3 POP SWAP3 POP SWAP3 POP PUSH2 0x277F JUMP JUMPDEST PUSH0 PUSH1 0x1 DUP9 DUP9 DUP9 DUP9 PUSH1 0x40 MLOAD PUSH0 DUP2 MSTORE PUSH1 0x20 ADD PUSH1 0x40 MSTORE PUSH1 0x40 MLOAD PUSH2 0x2701 SWAP5 SWAP4 SWAP3 SWAP2 SWAP1 PUSH2 0x3ECE JUMP JUMPDEST PUSH1 0x20 PUSH1 0x40 MLOAD PUSH1 0x20 DUP2 SUB SWAP1 DUP1 DUP5 SUB SWAP1 DUP6 GAS STATICCALL ISZERO DUP1 ISZERO PUSH2 0x2721 JUMPI RETURNDATASIZE PUSH0 DUP1 RETURNDATACOPY RETURNDATASIZE PUSH0 REVERT JUMPDEST POP POP POP PUSH1 0x20 PUSH1 0x40 MLOAD SUB MLOAD SWAP1 POP PUSH0 PUSH20 0xFFFFFFFFFFFFFFFFFFFFFFFFFFFFFFFFFFFFFFFF AND DUP2 PUSH20 0xFFFFFFFFFFFFFFFFFFFFFFFFFFFFFFFFFFFFFFFF AND SUB PUSH2 0x2772 JUMPI PUSH0 PUSH1 0x1 PUSH0 DUP1 SHL SWAP4 POP SWAP4 POP SWAP4 POP POP PUSH2 0x277F JUMP JUMPDEST DUP1 PUSH0 DUP1 PUSH0 SHL SWAP4 POP SWAP4 POP SWAP4 POP POP JUMPDEST SWAP5 POP SWAP5 POP SWAP5 SWAP2 POP POP JUMP JUMPDEST PUSH1 0x40 MLOAD DUP1 PUSH1 0x60 ADD PUSH1 0x40 MSTORE DUP1 PUSH0 DUP2 MSTORE PUSH1 0x20 ADD PUSH0 DUP2 MSTORE PUSH1 0x20 ADD PUSH0 DUP2 MSTORE POP SWAP1 JUMP JUMPDEST PUSH0 DUP2 SWAP1 POP SWAP2 SWAP1 POP JUMP JUMPDEST PUSH2 0x27B9 DUP2 PUSH2 0x27A7 JUMP JUMPDEST DUP3 MSTORE POP POP JUMP JUMPDEST PUSH0 PUSH1 0x20 DUP3 ADD SWAP1 POP PUSH2 0x27D2 PUSH0 DUP4 ADD DUP5 PUSH2 0x27B0 JUMP JUMPDEST SWAP3 SWAP2 POP POP JUMP JUMPDEST PUSH0 PUSH1 0x40 MLOAD SWAP1 POP SWAP1 JUMP JUMPDEST PUSH0 DUP1 REVERT JUMPDEST PUSH0 DUP1 REVERT JUMPDEST PUSH2 0x27F2 DUP2 PUSH2 0x27A7 JUMP JUMPDEST DUP2 EQ PUSH2 0x27FC JUMPI PUSH0 DUP1 REVERT JUMPDEST POP JUMP JUMPDEST PUSH0 DUP2 CALLDATALOAD SWAP1 POP PUSH2 0x280D DUP2 PUSH2 0x27E9 JUMP JUMPDEST SWAP3 SWAP2 POP POP JUMP JUMPDEST PUSH0 DUP1 PUSH0 PUSH1 0x60 DUP5 DUP7 SUB SLT ISZERO PUSH2 0x282A JUMPI PUSH2 0x2829 PUSH2 0x27E1 JUMP JUMPDEST JUMPDEST PUSH0 PUSH2 0x2837 DUP7 DUP3 DUP8 ADD PUSH2 0x27FF JUMP JUMPDEST SWAP4 POP POP PUSH1 0x20 PUSH2 0x2848 DUP7 DUP3 DUP8 ADD PUSH2 0x27FF JUMP JUMPDEST SWAP3 POP POP PUSH1 0x40 PUSH2 0x2859 DUP7 DUP3 DUP8 ADD PUSH2 0x27FF JUMP JUMPDEST SWAP2 POP POP SWAP3 POP SWAP3 POP SWAP3 JUMP JUMPDEST PUSH0 DUP1 REVERT JUMPDEST PUSH0 DUP1 REVERT JUMPDEST PUSH0 PUSH1 0x1F NOT PUSH1 0x1F DUP4 ADD AND SWAP1 POP SWAP2 SWAP1 POP JUMP JUMPDEST PUSH32 0x4E487B7100000000000000000000000000000000000000000000000000000000 PUSH0 MSTORE PUSH1 0x41 PUSH1 0x4 MSTORE PUSH1 0x24 PUSH0 REVERT JUMPDEST PUSH2 0x28B1 DUP3 PUSH2 0x286B JUMP JUMPDEST DUP2 ADD DUP2 DUP2 LT PUSH8 0xFFFFFFFFFFFFFFFF DUP3 GT OR ISZERO PUSH2 0x28D0 JUMPI PUSH2 0x28CF PUSH2 0x287B JUMP JUMPDEST JUMPDEST DUP1 PUSH1 0x40 MSTORE POP POP POP JUMP JUMPDEST PUSH0 PUSH2 0x28E2 PUSH2 0x27D8 JUMP JUMPDEST SWAP1 POP PUSH2 0x28EE DUP3 DUP3 PUSH2 0x28A8 JUMP JUMPDEST SWAP2 SWAP1 POP JUMP JUMPDEST PUSH0 PUSH8 0xFFFFFFFFFFFFFFFF DUP3 GT ISZERO PUSH2 0x290D JUMPI PUSH2 0x290C PUSH2 0x287B JUMP JUMPDEST JUMPDEST PUSH2 0x2916 DUP3 PUSH2 0x286B JUMP JUMPDEST SWAP1 POP PUSH1 0x20 DUP2 ADD SWAP1 POP SWAP2 SWAP1 POP JUMP JUMPDEST DUP3 DUP2 DUP4 CALLDATACOPY PUSH0 DUP4 DUP4 ADD MSTORE POP POP POP JUMP JUMPDEST PUSH0 PUSH2 0x2943 PUSH2 0x293E DUP5 PUSH2 0x28F3 JUMP JUMPDEST PUSH2 0x28D9 JUMP JUMPDEST SWAP1 POP DUP3 DUP2 MSTORE PUSH1 0x20 DUP2 ADD DUP5 DUP5 DUP5 ADD GT ISZERO PUSH2 0x295F JUMPI PUSH2 0x295E PUSH2 0x2867 JUMP JUMPDEST JUMPDEST PUSH2 0x296A DUP5 DUP3 DUP6 PUSH2 0x2923 JUMP JUMPDEST POP SWAP4 SWAP3 POP POP POP JUMP JUMPDEST PUSH0 DUP3 PUSH1 0x1F DUP4 ADD SLT PUSH2 0x2986 JUMPI PUSH2 0x2985 PUSH2 0x2863 JUMP JUMPDEST JUMPDEST DUP2 CALLDATALOAD PUSH2 0x2996 DUP5 DUP3 PUSH1 0x20 DUP7 ADD PUSH2 0x2931 JUMP JUMPDEST SWAP2 POP POP SWAP3 SWAP2 POP POP JUMP JUMPDEST PUSH0 PUSH1 0x20 DUP3 DUP5 SUB SLT ISZERO PUSH2 0x29B4 JUMPI PUSH2 0x29B3 PUSH2 0x27E1 JUMP JUMPDEST JUMPDEST PUSH0 DUP3 ADD CALLDATALOAD PUSH8 0xFFFFFFFFFFFFFFFF DUP2 GT ISZERO PUSH2 0x29D1 JUMPI PUSH2 0x29D0 PUSH2 0x27E5 JUMP JUMPDEST JUMPDEST PUSH2 0x29DD DUP5 DUP3 DUP6 ADD PUSH2 0x2972 JUMP JUMPDEST SWAP2 POP POP SWAP3 SWAP2 POP POP JUMP JUMPDEST PUSH0 DUP2 MLOAD SWAP1 POP SWAP2 SWAP1 POP JUMP JUMPDEST PUSH0 DUP3 DUP3 MSTORE PUSH1 0x20 DUP3 ADD SWAP1 POP SWAP3 SWAP2 POP POP JUMP JUMPDEST PUSH0 JUMPDEST DUP4 DUP2 LT ISZERO PUSH2 0x2A1D JUMPI DUP1 DUP3 ADD MLOAD DUP2 DUP5 ADD MSTORE PUSH1 0x20 DUP2 ADD SWAP1 POP PUSH2 0x2A02 JUMP JUMPDEST PUSH0 DUP5 DUP5 ADD MSTORE POP POP POP POP JUMP JUMPDEST PUSH0 PUSH2 0x2A32 DUP3 PUSH2 0x29E6 JUMP JUMPDEST PUSH2 0x2A3C DUP2 DUP6 PUSH2 0x29F0 JUMP JUMPDEST SWAP4 POP PUSH2 0x2A4C DUP2 DUP6 PUSH1 0x20 DUP7 ADD PUSH2 0x2A00 JUMP JUMPDEST PUSH2 0x2A55 DUP2 PUSH2 0x286B JUMP JUMPDEST DUP5 ADD SWAP2 POP POP SWAP3 SWAP2 POP POP JUMP JUMPDEST PUSH0 PUSH1 0x20 DUP3 ADD SWAP1 POP DUP2 DUP2 SUB PUSH0 DUP4 ADD MSTORE PUSH2 0x2A78 DUP2 DUP5 PUSH2 0x2A28 JUMP JUMPDEST SWAP1 POP SWAP3 SWAP2 POP POP JUMP JUMPDEST PUSH0 PUSH8 0xFFFFFFFFFFFFFFFF DUP3 GT ISZERO PUSH2 0x2A9A JUMPI PUSH2 0x2A99 PUSH2 0x287B JUMP JUMPDEST JUMPDEST PUSH2 0x2AA3 DUP3 PUSH2 0x286B JUMP JUMPDEST SWAP1 POP PUSH1 0x20 DUP2 ADD SWAP1 POP SWAP2 SWAP1 POP JUMP JUMPDEST PUSH0 PUSH2 0x2AC2 PUSH2 0x2ABD DUP5 PUSH2 0x2A80 JUMP JUMPDEST PUSH2 0x28D9 JUMP JUMPDEST SWAP1 POP DUP3 DUP2 MSTORE PUSH1 0x20 DUP2 ADD DUP5 DUP5 DUP5 ADD GT ISZERO PUSH2 0x2ADE JUMPI PUSH2 0x2ADD PUSH2 0x2867 JUMP JUMPDEST JUMPDEST PUSH2 0x2AE9 DUP5 DUP3 DUP6 PUSH2 0x2923 JUMP JUMPDEST POP SWAP4 SWAP3 POP POP POP JUMP JUMPDEST PUSH0 DUP3 PUSH1 0x1F DUP4 ADD SLT PUSH2 0x2B05 JUMPI PUSH2 0x2B04 PUSH2 0x2863 JUMP JUMPDEST JUMPDEST DUP2 CALLDATALOAD PUSH2 0x2B15 DUP5 DUP3 PUSH1 0x20 DUP7 ADD PUSH2 0x2AB0 JUMP JUMPDEST SWAP2 POP POP SWAP3 SWAP2 POP POP JUMP JUMPDEST PUSH0 DUP1 PUSH1 0x40 DUP4 DUP6 SUB SLT ISZERO PUSH2 0x2B34 JUMPI PUSH2 0x2B33 PUSH2 0x27E1 JUMP JUMPDEST JUMPDEST PUSH0 DUP4 ADD CALLDATALOAD PUSH8 0xFFFFFFFFFFFFFFFF DUP2 GT ISZERO PUSH2 0x2B51 JUMPI PUSH2 0x2B50 PUSH2 0x27E5 JUMP JUMPDEST JUMPDEST PUSH2 0x2B5D DUP6 DUP3 DUP7 ADD PUSH2 0x2AF1 JUMP JUMPDEST SWAP3 POP POP PUSH1 0x20 PUSH2 0x2B6E DUP6 DUP3 DUP7 ADD PUSH2 0x27FF JUMP JUMPDEST SWAP2 POP POP SWAP3 POP SWAP3 SWAP1 POP JUMP JUMPDEST PUSH0 PUSH1 0x20 DUP3 DUP5 SUB SLT ISZERO PUSH2 0x2B8D JUMPI PUSH2 0x2B8C PUSH2 0x27E1 JUMP JUMPDEST JUMPDEST PUSH0 PUSH2 0x2B9A DUP5 DUP3 DUP6 ADD PUSH2 0x27FF JUMP JUMPDEST SWAP2 POP POP SWAP3 SWAP2 POP POP JUMP JUMPDEST PUSH0 PUSH20 0xFFFFFFFFFFFFFFFFFFFFFFFFFFFFFFFFFFFFFFFF DUP3 AND SWAP1 POP SWAP2 SWAP1 POP JUMP JUMPDEST PUSH0 PUSH2 0x2BCC DUP3 PUSH2 0x2BA3 JUMP JUMPDEST SWAP1 POP SWAP2 SWAP1 POP JUMP JUMPDEST PUSH2 0x2BDC DUP2 PUSH2 0x2BC2 JUMP JUMPDEST DUP3 MSTORE POP POP JUMP JUMPDEST PUSH0 PUSH1 0x20 DUP3 ADD SWAP1 POP PUSH2 0x2BF5 PUSH0 DUP4 ADD DUP5 PUSH2 0x2BD3 JUMP JUMPDEST SWAP3 SWAP2 POP POP JUMP JUMPDEST PUSH0 PUSH2 0x2C05 DUP3 PUSH2 0x2BA3 JUMP JUMPDEST SWAP1 POP SWAP2 SWAP1 POP JUMP JUMPDEST PUSH2 0x2C15 DUP2 PUSH2 0x2BFB JUMP JUMPDEST DUP3 MSTORE POP POP JUMP JUMPDEST PUSH0 PUSH1 0x20 DUP3 ADD SWAP1 POP PUSH2 0x2C2E PUSH0 DUP4 ADD DUP5 PUSH2 0x2C0C JUMP JUMPDEST SWAP3 SWAP2 POP POP JUMP JUMPDEST PUSH0 PUSH8 0xFFFFFFFFFFFFFFFF DUP3 GT ISZERO PUSH2 0x2C4E JUMPI PUSH2 0x2C4D PUSH2 0x287B JUMP JUMPDEST JUMPDEST PUSH1 0x20 DUP3 MUL SWAP1 POP PUSH1 0x20 DUP2 ADD SWAP1 POP SWAP2 SWAP1 POP JUMP JUMPDEST PUSH0 DUP1 REVERT JUMPDEST PUSH0 DUP1 REVERT JUMPDEST PUSH0 PUSH1 0x40 DUP3 DUP5 SUB SLT ISZERO PUSH2 0x2C7C JUMPI PUSH2 0x2C7B PUSH2 0x2C63 JUMP JUMPDEST JUMPDEST PUSH2 0x2C86 PUSH1 0x40 PUSH2 0x28D9 JUMP JUMPDEST SWAP1 POP PUSH0 PUSH2 0x2C95 DUP5 DUP3 DUP6 ADD PUSH2 0x27FF JUMP JUMPDEST PUSH0 DUP4 ADD MSTORE POP PUSH1 0x20 PUSH2 0x2CA8 DUP5 DUP3 DUP6 ADD PUSH2 0x27FF JUMP JUMPDEST PUSH1 0x20 DUP4 ADD MSTORE POP SWAP3 SWAP2 POP POP JUMP JUMPDEST PUSH0 PUSH2 0x2CC6 PUSH2 0x2CC1 DUP5 PUSH2 0x2C34 JUMP JUMPDEST PUSH2 0x28D9 JUMP JUMPDEST SWAP1 POP DUP1 DUP4 DUP3 MSTORE PUSH1 0x20 DUP3 ADD SWAP1 POP PUSH1 0x40 DUP5 MUL DUP4 ADD DUP6 DUP2 GT ISZERO PUSH2 0x2CE9 JUMPI PUSH2 0x2CE8 PUSH2 0x2C5F JUMP JUMPDEST JUMPDEST DUP4 JUMPDEST DUP2 DUP2 LT ISZERO PUSH2 0x2D12 JUMPI DUP1 PUSH2 0x2CFE DUP9 DUP3 PUSH2 0x2C67 JUMP JUMPDEST DUP5 MSTORE PUSH1 0x20 DUP5 ADD SWAP4 POP POP PUSH1 0x40 DUP2 ADD SWAP1 POP PUSH2 0x2CEB JUMP JUMPDEST POP POP POP SWAP4 SWAP3 POP POP POP JUMP JUMPDEST PUSH0 DUP3 PUSH1 0x1F DUP4 ADD SLT PUSH2 0x2D30 JUMPI PUSH2 0x2D2F PUSH2 0x2863 JUMP JUMPDEST JUMPDEST DUP2 CALLDATALOAD PUSH2 0x2D40 DUP5 DUP3 PUSH1 0x20 DUP7 ADD PUSH2 0x2CB4 JUMP JUMPDEST SWAP2 POP POP SWAP3 SWAP2 POP POP JUMP JUMPDEST PUSH0 DUP1 PUSH1 0x40 DUP4 DUP6 SUB SLT ISZERO PUSH2 0x2D5F JUMPI PUSH2 0x2D5E PUSH2 0x27E1 JUMP JUMPDEST JUMPDEST PUSH0 DUP4 ADD CALLDATALOAD PUSH8 0xFFFFFFFFFFFFFFFF DUP2 GT ISZERO PUSH2 0x2D7C JUMPI PUSH2 0x2D7B PUSH2 0x27E5 JUMP JUMPDEST JUMPDEST PUSH2 0x2D88 DUP6 DUP3 DUP7 ADD PUSH2 0x2AF1 JUMP JUMPDEST SWAP3 POP POP PUSH1 0x20 DUP4 ADD CALLDATALOAD PUSH8 0xFFFFFFFFFFFFFFFF DUP2 GT ISZERO PUSH2 0x2DA9 JUMPI PUSH2 0x2DA8 PUSH2 0x27E5 JUMP JUMPDEST JUMPDEST PUSH2 0x2DB5 DUP6 DUP3 DUP7 ADD PUSH2 0x2D1C JUMP JUMPDEST SWAP2 POP POP SWAP3 POP SWAP3 SWAP1 POP JUMP JUMPDEST PUSH0 PUSH1 0x20 DUP3 DUP5 SUB SLT ISZERO PUSH2 0x2DD4 JUMPI PUSH2 0x2DD3 PUSH2 0x27E1 JUMP JUMPDEST JUMPDEST PUSH0 DUP3 ADD CALLDATALOAD PUSH8 0xFFFFFFFFFFFFFFFF DUP2 GT ISZERO PUSH2 0x2DF1 JUMPI PUSH2 0x2DF0 PUSH2 0x27E5 JUMP JUMPDEST JUMPDEST PUSH2 0x2DFD DUP5 DUP3 DUP6 ADD PUSH2 0x2AF1 JUMP JUMPDEST SWAP2 POP POP SWAP3 SWAP2 POP POP JUMP JUMPDEST PUSH0 PUSH1 0x40 DUP3 ADD SWAP1 POP PUSH2 0x2E19 PUSH0 DUP4 ADD DUP6 PUSH2 0x27B0 JUMP JUMPDEST PUSH2 0x2E26 PUSH1 0x20 DUP4 ADD DUP5 PUSH2 0x27B0 JUMP JUMPDEST SWAP4 SWAP3 POP POP POP JUMP JUMPDEST PUSH2 0x2E36 DUP2 PUSH2 0x2BFB JUMP JUMPDEST DUP2 EQ PUSH2 0x2E40 JUMPI PUSH0 DUP1 REVERT JUMPDEST POP JUMP JUMPDEST PUSH0 DUP2 CALLDATALOAD SWAP1 POP PUSH2 0x2E51 DUP2 PUSH2 0x2E2D JUMP JUMPDEST SWAP3 SWAP2 POP POP JUMP JUMPDEST PUSH0 DUP1 PUSH1 0x40 DUP4 DUP6 SUB SLT ISZERO PUSH2 0x2E6D JUMPI PUSH2 0x2E6C PUSH2 0x27E1 JUMP JUMPDEST JUMPDEST PUSH0 DUP4 ADD CALLDATALOAD PUSH8 0xFFFFFFFFFFFFFFFF DUP2 GT ISZERO PUSH2 0x2E8A JUMPI PUSH2 0x2E89 PUSH2 0x27E5 JUMP JUMPDEST JUMPDEST PUSH2 0x2E96 DUP6 DUP3 DUP7 ADD PUSH2 0x2AF1 JUMP JUMPDEST SWAP3 POP POP PUSH1 0x20 PUSH2 0x2EA7 DUP6 DUP3 DUP7 ADD PUSH2 0x2E43 JUMP JUMPDEST SWAP2 POP POP SWAP3 POP SWAP3 SWAP1 POP JUMP JUMPDEST PUSH0 PUSH1 0x60 DUP3 ADD SWAP1 POP PUSH2 0x2EC4 PUSH0 DUP4 ADD DUP7 PUSH2 0x27B0 JUMP JUMPDEST PUSH2 0x2ED1 PUSH1 0x20 DUP4 ADD DUP6 PUSH2 0x27B0 JUMP JUMPDEST PUSH2 0x2EDE PUSH1 0x40 DUP4 ADD DUP5 PUSH2 0x27B0 JUMP JUMPDEST SWAP5 SWAP4 POP POP POP POP JUMP JUMPDEST PUSH0 DUP1 PUSH1 0x40 DUP4 DUP6 SUB SLT ISZERO PUSH2 0x2EFC JUMPI PUSH2 0x2EFB PUSH2 0x27E1 JUMP JUMPDEST JUMPDEST PUSH0 DUP4 ADD CALLDATALOAD PUSH8 0xFFFFFFFFFFFFFFFF DUP2 GT ISZERO PUSH2 0x2F19 JUMPI PUSH2 0x2F18 PUSH2 0x27E5 JUMP JUMPDEST JUMPDEST PUSH2 0x2F25 DUP6 DUP3 DUP7 ADD PUSH2 0x2972 JUMP JUMPDEST SWAP3 POP POP PUSH1 0x20 DUP4 ADD CALLDATALOAD PUSH8 0xFFFFFFFFFFFFFFFF DUP2 GT ISZERO PUSH2 0x2F46 JUMPI PUSH2 0x2F45 PUSH2 0x27E5 JUMP JUMPDEST JUMPDEST PUSH2 0x2F52 DUP6 DUP3 DUP7 ADD PUSH2 0x2AF1 JUMP JUMPDEST SWAP2 POP POP SWAP3 POP SWAP3 SWAP1 POP JUMP JUMPDEST PUSH0 PUSH1 0x20 DUP3 DUP5 SUB SLT ISZERO PUSH2 0x2F71 JUMPI PUSH2 0x2F70 PUSH2 0x27E1 JUMP JUMPDEST JUMPDEST PUSH0 PUSH2 0x2F7E DUP5 DUP3 DUP6 ADD PUSH2 0x2E43 JUMP JUMPDEST SWAP2 POP POP SWAP3 SWAP2 POP POP JUMP JUMPDEST PUSH2 0x2F90 DUP2 PUSH2 0x27A7 JUMP JUMPDEST DUP3 MSTORE POP POP JUMP JUMPDEST PUSH1 0x60 DUP3 ADD PUSH0 DUP3 ADD MLOAD PUSH2 0x2FAA PUSH0 DUP6 ADD DUP3 PUSH2 0x2F87 JUMP JUMPDEST POP PUSH1 0x20 DUP3 ADD MLOAD PUSH2 0x2FBD PUSH1 0x20 DUP6 ADD DUP3 PUSH2 0x2F87 JUMP JUMPDEST POP PUSH1 0x40 DUP3 ADD MLOAD PUSH2 0x2FD0 PUSH1 0x40 DUP6 ADD DUP3 PUSH2 0x2F87 JUMP JUMPDEST POP POP POP POP JUMP JUMPDEST PUSH0 PUSH1 0x60 DUP3 ADD SWAP1 POP PUSH2 0x2FE9 PUSH0 DUP4 ADD DUP5 PUSH2 0x2F96 JUMP JUMPDEST SWAP3 SWAP2 POP POP JUMP JUMPDEST PUSH32 0x4E487B7100000000000000000000000000000000000000000000000000000000 PUSH0 MSTORE PUSH1 0x11 PUSH1 0x4 MSTORE PUSH1 0x24 PUSH0 REVERT JUMPDEST PUSH0 PUSH2 0x3026 DUP3 PUSH2 0x27A7 JUMP JUMPDEST SWAP2 POP PUSH2 0x3031 DUP4 PUSH2 0x27A7 JUMP JUMPDEST SWAP3 POP DUP3 DUP3 ADD SWAP1 POP DUP1 DUP3 GT ISZERO PUSH2 0x3049 JUMPI PUSH2 0x3048 PUSH2 0x2FEF JUMP JUMPDEST JUMPDEST SWAP3 SWAP2 POP POP JUMP JUMPDEST PUSH0 DUP3 DUP3 MSTORE PUSH1 0x20 DUP3 ADD SWAP1 POP SWAP3 SWAP2 POP POP JUMP JUMPDEST PUSH32 0x54687320736F7572636520737472696E67206578636565647320333220627974 PUSH0 DUP3 ADD MSTORE PUSH32 0x6573000000000000000000000000000000000000000000000000000000000000 PUSH1 0x20 DUP3 ADD MSTORE POP JUMP JUMPDEST PUSH0 PUSH2 0x30B9 PUSH1 0x22 DUP4 PUSH2 0x304F JUMP JUMPDEST SWAP2 POP PUSH2 0x30C4 DUP3 PUSH2 0x305F JUMP JUMPDEST PUSH1 0x40 DUP3 ADD SWAP1 POP SWAP2 SWAP1 POP JUMP JUMPDEST PUSH0 PUSH1 0x20 DUP3 ADD SWAP1 POP DUP2 DUP2 SUB PUSH0 DUP4 ADD MSTORE PUSH2 0x30E6 DUP2 PUSH2 0x30AD JUMP JUMPDEST SWAP1 POP SWAP2 SWAP1 POP JUMP JUMPDEST PUSH0 DUP2 SWAP1 POP SWAP3 SWAP2 POP POP JUMP JUMPDEST PUSH0 PUSH2 0x3101 DUP3 PUSH2 0x29E6 JUMP JUMPDEST PUSH2 0x310B DUP2 DUP6 PUSH2 0x30ED JUMP JUMPDEST SWAP4 POP PUSH2 0x311B DUP2 DUP6 PUSH1 0x20 DUP7 ADD PUSH2 0x2A00 JUMP JUMPDEST DUP1 DUP5 ADD SWAP2 POP POP SWAP3 SWAP2 POP POP JUMP JUMPDEST PUSH0 PUSH2 0x3132 DUP3 DUP5 PUSH2 0x30F7 JUMP JUMPDEST SWAP2 POP DUP2 SWAP1 POP SWAP3 SWAP2 POP POP JUMP JUMPDEST PUSH0 PUSH2 0x3147 DUP3 PUSH2 0x27A7 JUMP JUMPDEST SWAP2 POP PUSH2 0x3152 DUP4 PUSH2 0x27A7 JUMP JUMPDEST SWAP3 POP DUP3 DUP3 SUB SWAP1 POP DUP2 DUP2 GT ISZERO PUSH2 0x316A JUMPI PUSH2 0x3169 PUSH2 0x2FEF JUMP JUMPDEST JUMPDEST SWAP3 SWAP2 POP POP JUMP JUMPDEST PUSH32 0x54686520626F782073616C65206973206E6F742070726F636573730000000000 PUSH0 DUP3 ADD MSTORE POP JUMP JUMPDEST PUSH0 PUSH2 0x31A4 PUSH1 0x1B DUP4 PUSH2 0x304F JUMP JUMPDEST SWAP2 POP PUSH2 0x31AF DUP3 PUSH2 0x3170 JUMP JUMPDEST PUSH1 0x20 DUP3 ADD SWAP1 POP SWAP2 SWAP1 POP JUMP JUMPDEST PUSH0 PUSH1 0x20 DUP3 ADD SWAP1 POP DUP2 DUP2 SUB PUSH0 DUP4 ADD MSTORE PUSH2 0x31D1 DUP2 PUSH2 0x3198 JUMP JUMPDEST SWAP1 POP SWAP2 SWAP1 POP JUMP JUMPDEST PUSH32 0x426F7820636E74206973207A65726F0000000000000000000000000000000000 PUSH0 DUP3 ADD MSTORE POP JUMP JUMPDEST PUSH0 PUSH2 0x320C PUSH1 0xF DUP4 PUSH2 0x304F JUMP JUMPDEST SWAP2 POP PUSH2 0x3217 DUP3 PUSH2 0x31D8 JUMP JUMPDEST PUSH1 0x20 DUP3 ADD SWAP1 POP SWAP2 SWAP1 POP JUMP JUMPDEST PUSH0 PUSH1 0x20 DUP3 ADD SWAP1 POP DUP2 DUP2 SUB PUSH0 DUP4 ADD MSTORE PUSH2 0x3239 DUP2 PUSH2 0x3200 JUMP JUMPDEST SWAP1 POP SWAP2 SWAP1 POP JUMP JUMPDEST PUSH0 PUSH2 0x324A DUP3 PUSH2 0x27A7 JUMP JUMPDEST SWAP2 POP PUSH2 0x3255 DUP4 PUSH2 0x27A7 JUMP JUMPDEST SWAP3 POP DUP3 DUP3 MUL PUSH2 0x3263 DUP2 PUSH2 0x27A7 JUMP JUMPDEST SWAP2 POP DUP3 DUP3 DIV DUP5 EQ DUP4 ISZERO OR PUSH2 0x327A JUMPI PUSH2 0x3279 PUSH2 0x2FEF JUMP JUMPDEST JUMPDEST POP SWAP3 SWAP2 POP POP JUMP JUMPDEST PUSH32 0x496E73756666696369656E7420426F7820616D6F756E74000000000000000000 PUSH0 DUP3 ADD MSTORE POP JUMP JUMPDEST PUSH0 PUSH2 0x32B5 PUSH1 0x17 DUP4 PUSH2 0x304F JUMP JUMPDEST SWAP2 POP PUSH2 0x32C0 DUP3 PUSH2 0x3281 JUMP JUMPDEST PUSH1 0x20 DUP3 ADD SWAP1 POP SWAP2 SWAP1 POP JUMP JUMPDEST PUSH0 PUSH1 0x20 DUP3 ADD SWAP1 POP DUP2 DUP2 SUB PUSH0 DUP4 ADD MSTORE PUSH2 0x32E2 DUP2 PUSH2 0x32A9 JUMP JUMPDEST SWAP1 POP SWAP2 SWAP1 POP JUMP JUMPDEST PUSH0 PUSH1 0x60 DUP3 ADD SWAP1 POP DUP2 DUP2 SUB PUSH0 DUP4 ADD MSTORE PUSH2 0x3301 DUP2 DUP7 PUSH2 0x2A28 JUMP JUMPDEST SWAP1 POP PUSH2 0x3310 PUSH1 0x20 DUP4 ADD DUP6 PUSH2 0x27B0 JUMP JUMPDEST PUSH2 0x331D PUSH1 0x40 DUP4 ADD DUP5 PUSH2 0x27B0 JUMP JUMPDEST SWAP5 SWAP4 POP POP POP POP JUMP JUMPDEST PUSH32 0x496E73756666696369656E7420426F7820636E74000000000000000000000000 PUSH0 DUP3 ADD MSTORE POP JUMP JUMPDEST PUSH0 PUSH2 0x3359 PUSH1 0x14 DUP4 PUSH2 0x304F JUMP JUMPDEST SWAP2 POP PUSH2 0x3364 DUP3 PUSH2 0x3325 JUMP JUMPDEST PUSH1 0x20 DUP3 ADD SWAP1 POP SWAP2 SWAP1 POP JUMP JUMPDEST PUSH0 PUSH1 0x20 DUP3 ADD SWAP1 POP DUP2 DUP2 SUB PUSH0 DUP4 ADD MSTORE PUSH2 0x3386 DUP2 PUSH2 0x334D JUMP JUMPDEST SWAP1 POP SWAP2 SWAP1 POP JUMP JUMPDEST PUSH32 0x496E73756666696369656E742070617920616D6F756E74000000000000000000 PUSH0 DUP3 ADD MSTORE POP JUMP JUMPDEST PUSH0 PUSH2 0x33C1 PUSH1 0x17 DUP4 PUSH2 0x304F JUMP JUMPDEST SWAP2 POP PUSH2 0x33CC DUP3 PUSH2 0x338D JUMP JUMPDEST PUSH1 0x20 DUP3 ADD SWAP1 POP SWAP2 SWAP1 POP JUMP JUMPDEST PUSH0 PUSH1 0x20 DUP3 ADD SWAP1 POP DUP2 DUP2 SUB PUSH0 DUP4 ADD MSTORE PUSH2 0x33EE DUP2 PUSH2 0x33B5 JUMP JUMPDEST SWAP1 POP SWAP2 SWAP1 POP JUMP JUMPDEST POP JUMP JUMPDEST PUSH0 PUSH2 0x3403 PUSH0 DUP4 PUSH2 0x30ED JUMP JUMPDEST SWAP2 POP PUSH2 0x340E DUP3 PUSH2 0x33F5 JUMP JUMPDEST PUSH0 DUP3 ADD SWAP1 POP SWAP2 SWAP1 POP JUMP JUMPDEST PUSH0 PUSH2 0x3422 DUP3 PUSH2 0x33F8 JUMP JUMPDEST SWAP2 POP DUP2 SWAP1 POP SWAP2 SWAP1 POP JUMP JUMPDEST PUSH32 0x54686520627579206973206661696C6564000000000000000000000000000000 PUSH0 DUP3 ADD MSTORE POP JUMP JUMPDEST PUSH0 PUSH2 0x3460 PUSH1 0x11 DUP4 PUSH2 0x304F JUMP JUMPDEST SWAP2 POP PUSH2 0x346B DUP3 PUSH2 0x342C JUMP JUMPDEST PUSH1 0x20 DUP3 ADD SWAP1 POP SWAP2 SWAP1 POP JUMP JUMPDEST PUSH0 PUSH1 0x20 DUP3 ADD SWAP1 POP DUP2 DUP2 SUB PUSH0 DUP4 ADD MSTORE PUSH2 0x348D DUP2 PUSH2 0x3454 JUMP JUMPDEST SWAP1 POP SWAP2 SWAP1 POP JUMP JUMPDEST PUSH32 0x4E487B7100000000000000000000000000000000000000000000000000000000 PUSH0 MSTORE PUSH1 0x21 PUSH1 0x4 MSTORE PUSH1 0x24 PUSH0 REVERT JUMPDEST PUSH1 0x3 DUP2 LT PUSH2 0x34D2 JUMPI PUSH2 0x34D1 PUSH2 0x3494 JUMP JUMPDEST JUMPDEST POP JUMP JUMPDEST PUSH0 DUP2 SWAP1 POP PUSH2 0x34E2 DUP3 PUSH2 0x34C1 JUMP JUMPDEST SWAP2 SWAP1 POP JUMP JUMPDEST PUSH0 PUSH2 0x34F1 DUP3 PUSH2 0x34D5 JUMP JUMPDEST SWAP1 POP SWAP2 SWAP1 POP JUMP JUMPDEST PUSH2 0x3501 DUP2 PUSH2 0x34E7 JUMP JUMPDEST DUP3 MSTORE POP POP JUMP JUMPDEST PUSH0 PUSH1 0xA0 DUP3 ADD SWAP1 POP DUP2 DUP2 SUB PUSH0 DUP4 ADD MSTORE PUSH2 0x351F DUP2 DUP9 PUSH2 0x2A28 JUMP JUMPDEST SWAP1 POP PUSH2 0x352E PUSH1 0x20 DUP4 ADD DUP8 PUSH2 0x27B0 JUMP JUMPDEST PUSH2 0x353B PUSH1 0x40 DUP4 ADD DUP7 PUSH2 0x27B0 JUMP JUMPDEST PUSH2 0x3548 PUSH1 0x60 DUP4 ADD DUP6 PUSH2 0x34F8 JUMP JUMPDEST PUSH2 0x3555 PUSH1 0x80 DUP4 ADD DUP5 PUSH2 0x27B0 JUMP JUMPDEST SWAP7 SWAP6 POP POP POP POP POP POP JUMP JUMPDEST PUSH32 0x54686520626F782073616C6520696E2070726F63657373000000000000000000 PUSH0 DUP3 ADD MSTORE POP JUMP JUMPDEST PUSH0 PUSH2 0x3593 PUSH1 0x17 DUP4 PUSH2 0x304F JUMP JUMPDEST SWAP2 POP PUSH2 0x359E DUP3 PUSH2 0x355F JUMP JUMPDEST PUSH1 0x20 DUP3 ADD SWAP1 POP SWAP2 SWAP1 POP JUMP JUMPDEST PUSH0 PUSH1 0x20 DUP3 ADD SWAP1 POP DUP2 DUP2 SUB PUSH0 DUP4 ADD MSTORE PUSH2 0x35C0 DUP2 PUSH2 0x3587 JUMP JUMPDEST SWAP1 POP SWAP2 SWAP1 POP JUMP JUMPDEST PUSH32 0x4E487B7100000000000000000000000000000000000000000000000000000000 PUSH0 MSTORE PUSH1 0x32 PUSH1 0x4 MSTORE PUSH1 0x24 PUSH0 REVERT JUMPDEST PUSH32 0x496E73756666696369656E7420626F7820616C6C6F6361746520636E74000000 PUSH0 DUP3 ADD MSTORE POP JUMP JUMPDEST PUSH0 PUSH2 0x3628 PUSH1 0x1D DUP4 PUSH2 0x304F JUMP JUMPDEST SWAP2 POP PUSH2 0x3633 DUP3 PUSH2 0x35F4 JUMP JUMPDEST PUSH1 0x20 DUP3 ADD SWAP1 POP SWAP2 SWAP1 POP JUMP JUMPDEST PUSH0 PUSH1 0x20 DUP3 ADD SWAP1 POP DUP2 DUP2 SUB PUSH0 DUP4 ADD MSTORE PUSH2 0x3655 DUP2 PUSH2 0x361C JUMP JUMPDEST SWAP1 POP SWAP2 SWAP1 POP JUMP JUMPDEST PUSH32 0x546865207265666F756E64206973206661696C65640000000000000000000000 PUSH0 DUP3 ADD MSTORE POP JUMP JUMPDEST PUSH0 PUSH2 0x3690 PUSH1 0x15 DUP4 PUSH2 0x304F JUMP JUMPDEST SWAP2 POP PUSH2 0x369B DUP3 PUSH2 0x365C JUMP JUMPDEST PUSH1 0x20 DUP3 ADD SWAP1 POP SWAP2 SWAP1 POP JUMP JUMPDEST PUSH0 PUSH1 0x20 DUP3 ADD SWAP1 POP DUP2 DUP2 SUB PUSH0 DUP4 ADD MSTORE PUSH2 0x36BD DUP2 PUSH2 0x3684 JUMP JUMPDEST SWAP1 POP SWAP2 SWAP1 POP JUMP JUMPDEST PUSH0 PUSH1 0x40 DUP3 ADD SWAP1 POP DUP2 DUP2 SUB PUSH0 DUP4 ADD MSTORE PUSH2 0x36DC DUP2 DUP6 PUSH2 0x2A28 JUMP JUMPDEST SWAP1 POP PUSH2 0x36EB PUSH1 0x20 DUP4 ADD DUP5 PUSH2 0x27B0 JUMP JUMPDEST SWAP4 SWAP3 POP POP POP JUMP JUMPDEST PUSH0 PUSH2 0x36FC DUP3 PUSH2 0x27A7 JUMP JUMPDEST SWAP2 POP PUSH32 0xFFFFFFFFFFFFFFFFFFFFFFFFFFFFFFFFFFFFFFFFFFFFFFFFFFFFFFFFFFFFFFFF DUP3 SUB PUSH2 0x372E JUMPI PUSH2 0x372D PUSH2 0x2FEF JUMP JUMPDEST JUMPDEST PUSH1 0x1 DUP3 ADD SWAP1 POP SWAP2 SWAP1 POP JUMP JUMPDEST PUSH32 0x54686520636C61696D20616D6F756E74206973207A65726F0000000000000000 PUSH0 DUP3 ADD MSTORE POP JUMP JUMPDEST PUSH0 PUSH2 0x376D PUSH1 0x18 DUP4 PUSH2 0x304F JUMP JUMPDEST SWAP2 POP PUSH2 0x3778 DUP3 PUSH2 0x3739 JUMP JUMPDEST PUSH1 0x20 DUP3 ADD SWAP1 POP SWAP2 SWAP1 POP JUMP JUMPDEST PUSH0 PUSH1 0x20 DUP3 ADD SWAP1 POP DUP2 DUP2 SUB PUSH0 DUP4 ADD MSTORE PUSH2 0x379A DUP2 PUSH2 0x3761 JUMP JUMPDEST SWAP1 POP SWAP2 SWAP1 POP JUMP JUMPDEST PUSH32 0x54686520636C61696D206973206661696C656400000000000000000000000000 PUSH0 DUP3 ADD MSTORE POP JUMP JUMPDEST PUSH0 PUSH2 0x37D5 PUSH1 0x13 DUP4 PUSH2 0x304F JUMP JUMPDEST SWAP2 POP PUSH2 0x37E0 DUP3 PUSH2 0x37A1 JUMP JUMPDEST PUSH1 0x20 DUP3 ADD SWAP1 POP SWAP2 SWAP1 POP JUMP JUMPDEST PUSH0 PUSH1 0x20 DUP3 ADD SWAP1 POP DUP2 DUP2 SUB PUSH0 DUP4 ADD MSTORE PUSH2 0x3802 DUP2 PUSH2 0x37C9 JUMP JUMPDEST SWAP1 POP SWAP2 SWAP1 POP JUMP JUMPDEST PUSH32 0x54686520626F7820697320737461727465640000000000000000000000000000 PUSH0 DUP3 ADD MSTORE POP JUMP JUMPDEST PUSH0 PUSH2 0x383D PUSH1 0x12 DUP4 PUSH2 0x304F JUMP JUMPDEST SWAP2 POP PUSH2 0x3848 DUP3 PUSH2 0x3809 JUMP JUMPDEST PUSH1 0x20 DUP3 ADD SWAP1 POP SWAP2 SWAP1 POP JUMP JUMPDEST PUSH0 PUSH1 0x20 DUP3 ADD SWAP1 POP DUP2 DUP2 SUB PUSH0 DUP4 ADD MSTORE PUSH2 0x386A DUP2 PUSH2 0x3831 JUMP JUMPDEST SWAP1 POP SWAP2 SWAP1 POP JUMP JUMPDEST PUSH0 DUP2 PUSH1 0x60 SHL SWAP1 POP SWAP2 SWAP1 POP JUMP JUMPDEST PUSH0 PUSH2 0x3887 DUP3 PUSH2 0x3871 JUMP JUMPDEST SWAP1 POP SWAP2 SWAP1 POP JUMP JUMPDEST PUSH0 PUSH2 0x3898 DUP3 PUSH2 0x387D JUMP JUMPDEST SWAP1 POP SWAP2 SWAP1 POP JUMP JUMPDEST PUSH2 0x38B0 PUSH2 0x38AB DUP3 PUSH2 0x2BFB JUMP JUMPDEST PUSH2 0x388E JUMP JUMPDEST DUP3 MSTORE POP POP JUMP JUMPDEST PUSH0 DUP2 MLOAD SWAP1 POP SWAP2 SWAP1 POP JUMP JUMPDEST PUSH0 DUP2 SWAP1 POP SWAP3 SWAP2 POP POP JUMP JUMPDEST PUSH0 PUSH2 0x38D4 DUP3 PUSH2 0x38B6 JUMP JUMPDEST PUSH2 0x38DE DUP2 DUP6 PUSH2 0x38C0 JUMP JUMPDEST SWAP4 POP PUSH2 0x38EE DUP2 DUP6 PUSH1 0x20 DUP7 ADD PUSH2 0x2A00 JUMP JUMPDEST DUP1 DUP5 ADD SWAP2 POP POP SWAP3 SWAP2 POP POP JUMP JUMPDEST PUSH0 DUP2 SWAP1 POP SWAP2 SWAP1 POP JUMP JUMPDEST PUSH2 0x3914 PUSH2 0x390F DUP3 PUSH2 0x27A7 JUMP JUMPDEST PUSH2 0x38FA JUMP JUMPDEST DUP3 MSTORE POP POP JUMP JUMPDEST PUSH0 PUSH2 0x3925 DUP3 DUP7 PUSH2 0x389F JUMP JUMPDEST PUSH1 0x14 DUP3 ADD SWAP2 POP PUSH2 0x3935 DUP3 DUP6 PUSH2 0x38CA JUMP JUMPDEST SWAP2 POP PUSH2 0x3941 DUP3 DUP5 PUSH2 0x3903 JUMP JUMPDEST PUSH1 0x20 DUP3 ADD SWAP2 POP DUP2 SWAP1 POP SWAP5 SWAP4 POP POP POP POP JUMP JUMPDEST PUSH32 0x546865207369676E617475726520697320696E76616C69640000000000000000 PUSH0 DUP3 ADD MSTORE POP JUMP JUMPDEST PUSH0 PUSH2 0x3986 PUSH1 0x18 DUP4 PUSH2 0x304F JUMP JUMPDEST SWAP2 POP PUSH2 0x3991 DUP3 PUSH2 0x3952 JUMP JUMPDEST PUSH1 0x20 DUP3 ADD SWAP1 POP SWAP2 SWAP1 POP JUMP JUMPDEST PUSH0 PUSH1 0x20 DUP3 ADD SWAP1 POP DUP2 DUP2 SUB PUSH0 DUP4 ADD MSTORE PUSH2 0x39B3 DUP2 PUSH2 0x397A JUMP JUMPDEST SWAP1 POP SWAP2 SWAP1 POP JUMP JUMPDEST PUSH0 PUSH2 0x39C4 DUP3 PUSH2 0x38B6 JUMP JUMPDEST PUSH2 0x39CE DUP2 DUP6 PUSH2 0x304F JUMP JUMPDEST SWAP4 POP PUSH2 0x39DE DUP2 DUP6 PUSH1 0x20 DUP7 ADD PUSH2 0x2A00 JUMP JUMPDEST PUSH2 0x39E7 DUP2 PUSH2 0x286B JUMP JUMPDEST DUP5 ADD SWAP2 POP POP SWAP3 SWAP2 POP POP JUMP JUMPDEST PUSH0 PUSH1 0x40 DUP3 ADD SWAP1 POP DUP2 DUP2 SUB PUSH0 DUP4 ADD MSTORE PUSH2 0x3A0A DUP2 DUP6 PUSH2 0x39BA JUMP JUMPDEST SWAP1 POP PUSH2 0x3A19 PUSH1 0x20 DUP4 ADD DUP5 PUSH2 0x27B0 JUMP JUMPDEST SWAP4 SWAP3 POP POP POP JUMP JUMPDEST PUSH32 0x496E73756666696369656E7420426F782062616C616E63650000000000000000 PUSH0 DUP3 ADD MSTORE POP JUMP JUMPDEST PUSH0 PUSH2 0x3A54 PUSH1 0x18 DUP4 PUSH2 0x304F JUMP JUMPDEST SWAP2 POP PUSH2 0x3A5F DUP3 PUSH2 0x3A20 JUMP JUMPDEST PUSH1 0x20 DUP3 ADD SWAP1 POP SWAP2 SWAP1 POP JUMP JUMPDEST PUSH0 PUSH1 0x20 DUP3 ADD SWAP1 POP DUP2 DUP2 SUB PUSH0 DUP4 ADD MSTORE PUSH2 0x3A81 DUP2 PUSH2 0x3A48 JUMP JUMPDEST SWAP1 POP SWAP2 SWAP1 POP JUMP JUMPDEST PUSH32 0x5468652073656C6C206973206661696C65640000000000000000000000000000 PUSH0 DUP3 ADD MSTORE POP JUMP JUMPDEST PUSH0 PUSH2 0x3ABC PUSH1 0x12 DUP4 PUSH2 0x304F JUMP JUMPDEST SWAP2 POP PUSH2 0x3AC7 DUP3 PUSH2 0x3A88 JUMP JUMPDEST PUSH1 0x20 DUP3 ADD SWAP1 POP SWAP2 SWAP1 POP JUMP JUMPDEST PUSH0 PUSH1 0x20 DUP3 ADD SWAP1 POP DUP2 DUP2 SUB PUSH0 DUP4 ADD MSTORE PUSH2 0x3AE9 DUP2 PUSH2 0x3AB0 JUMP JUMPDEST SWAP1 POP SWAP2 SWAP1 POP JUMP JUMPDEST PUSH32 0x6665655F7265636965766572206973207A65726F206164647265737373000000 PUSH0 DUP3 ADD MSTORE POP JUMP JUMPDEST PUSH0 PUSH2 0x3B24 PUSH1 0x1D DUP4 PUSH2 0x304F JUMP JUMPDEST SWAP2 POP PUSH2 0x3B2F DUP3 PUSH2 0x3AF0 JUMP JUMPDEST PUSH1 0x20 DUP3 ADD SWAP1 POP SWAP2 SWAP1 POP JUMP JUMPDEST PUSH0 PUSH1 0x20 DUP3 ADD SWAP1 POP DUP2 DUP2 SUB PUSH0 DUP4 ADD MSTORE PUSH2 0x3B51 DUP2 PUSH2 0x3B18 JUMP JUMPDEST SWAP1 POP SWAP2 SWAP1 POP JUMP JUMPDEST PUSH32 0x4E487B7100000000000000000000000000000000000000000000000000000000 PUSH0 MSTORE PUSH1 0x12 PUSH1 0x4 MSTORE PUSH1 0x24 PUSH0 REVERT JUMPDEST PUSH0 PUSH2 0x3B8F DUP3 PUSH2 0x27A7 JUMP JUMPDEST SWAP2 POP PUSH2 0x3B9A DUP4 PUSH2 0x27A7 JUMP JUMPDEST SWAP3 POP DUP3 PUSH2 0x3BAA JUMPI PUSH2 0x3BA9 PUSH2 0x3B58 JUMP JUMPDEST JUMPDEST DUP3 DUP3 DIV SWAP1 POP SWAP3 SWAP2 POP POP JUMP JUMPDEST PUSH32 0x546865207472616465206973206661696C656400000000000000000000000000 PUSH0 DUP3 ADD MSTORE POP JUMP JUMPDEST PUSH0 PUSH2 0x3BE9 PUSH1 0x13 DUP4 PUSH2 0x304F JUMP JUMPDEST SWAP2 POP PUSH2 0x3BF4 DUP3 PUSH2 0x3BB5 JUMP JUMPDEST PUSH1 0x20 DUP3 ADD SWAP1 POP SWAP2 SWAP1 POP JUMP JUMPDEST PUSH0 PUSH1 0x20 DUP3 ADD SWAP1 POP DUP2 DUP2 SUB PUSH0 DUP4 ADD MSTORE PUSH2 0x3C16 DUP2 PUSH2 0x3BDD JUMP JUMPDEST SWAP1 POP SWAP2 SWAP1 POP JUMP JUMPDEST PUSH1 0x3 DUP2 LT PUSH2 0x3C2E JUMPI PUSH2 0x3C2D PUSH2 0x3494 JUMP JUMPDEST JUMPDEST POP JUMP JUMPDEST PUSH0 DUP2 SWAP1 POP PUSH2 0x3C3E DUP3 PUSH2 0x3C1D JUMP JUMPDEST SWAP2 SWAP1 POP JUMP JUMPDEST PUSH0 PUSH2 0x3C4D DUP3 PUSH2 0x3C31 JUMP JUMPDEST SWAP1 POP SWAP2 SWAP1 POP JUMP JUMPDEST PUSH2 0x3C5D DUP2 PUSH2 0x3C43 JUMP JUMPDEST DUP3 MSTORE POP POP JUMP JUMPDEST PUSH0 PUSH1 0x60 DUP3 ADD SWAP1 POP DUP2 DUP2 SUB PUSH0 DUP4 ADD MSTORE PUSH2 0x3C7B DUP2 DUP7 PUSH2 0x2A28 JUMP JUMPDEST SWAP1 POP PUSH2 0x3C8A PUSH1 0x20 DUP4 ADD DUP6 PUSH2 0x27B0 JUMP JUMPDEST PUSH2 0x3C97 PUSH1 0x40 DUP4 ADD DUP5 PUSH2 0x3C54 JUMP JUMPDEST SWAP5 SWAP4 POP POP POP POP JUMP JUMPDEST PUSH0 DUP2 PUSH1 0x1 SHR SWAP1 POP SWAP2 SWAP1 POP JUMP JUMPDEST PUSH0 DUP1 DUP3 SWAP2 POP DUP4 SWAP1 POP JUMPDEST PUSH1 0x1 DUP6 GT ISZERO PUSH2 0x3CF4 JUMPI DUP1 DUP7 DIV DUP2 GT ISZERO PUSH2 0x3CD0 JUMPI PUSH2 0x3CCF PUSH2 0x2FEF JUMP JUMPDEST JUMPDEST PUSH1 0x1 DUP6 AND ISZERO PUSH2 0x3CDF JUMPI DUP1 DUP3 MUL SWAP2 POP JUMPDEST DUP1 DUP2 MUL SWAP1 POP PUSH2 0x3CED DUP6 PUSH2 0x3C9F JUMP JUMPDEST SWAP5 POP PUSH2 0x3CB4 JUMP JUMPDEST SWAP5 POP SWAP5 SWAP3 POP POP POP JUMP JUMPDEST PUSH0 DUP3 PUSH2 0x3D0C JUMPI PUSH1 0x1 SWAP1 POP PUSH2 0x3DC7 JUMP JUMPDEST DUP2 PUSH2 0x3D19 JUMPI PUSH0 SWAP1 POP PUSH2 0x3DC7 JUMP JUMPDEST DUP2 PUSH1 0x1 DUP2 EQ PUSH2 0x3D2F JUMPI PUSH1 0x2 DUP2 EQ PUSH2 0x3D39 JUMPI PUSH2 0x3D68 JUMP JUMPDEST PUSH1 0x1 SWAP2 POP POP PUSH2 0x3DC7 JUMP JUMPDEST PUSH1 0xFF DUP5 GT ISZERO PUSH2 0x3D4B JUMPI PUSH2 0x3D4A PUSH2 0x2FEF JUMP JUMPDEST JUMPDEST DUP4 PUSH1 0x2 EXP SWAP2 POP DUP5 DUP3 GT ISZERO PUSH2 0x3D62 JUMPI PUSH2 0x3D61 PUSH2 0x2FEF JUMP JUMPDEST JUMPDEST POP PUSH2 0x3DC7 JUMP JUMPDEST POP PUSH1 0x20 DUP4 LT PUSH2 0x133 DUP4 LT AND PUSH1 0x4E DUP5 LT PUSH1 0xB DUP5 LT AND OR ISZERO PUSH2 0x3D9D JUMPI DUP3 DUP3 EXP SWAP1 POP DUP4 DUP2 GT ISZERO PUSH2 0x3D98 JUMPI PUSH2 0x3D97 PUSH2 0x2FEF JUMP JUMPDEST JUMPDEST PUSH2 0x3DC7 JUMP JUMPDEST PUSH2 0x3DAA DUP5 DUP5 DUP5 PUSH1 0x1 PUSH2 0x3CAB JUMP JUMPDEST SWAP3 POP SWAP1 POP DUP2 DUP5 DIV DUP2 GT ISZERO PUSH2 0x3DC1 JUMPI PUSH2 0x3DC0 PUSH2 0x2FEF JUMP JUMPDEST JUMPDEST DUP2 DUP2 MUL SWAP1 POP JUMPDEST SWAP4 SWAP3 POP POP POP JUMP JUMPDEST PUSH0 PUSH1 0xFF DUP3 AND SWAP1 POP SWAP2 SWAP1 POP JUMP JUMPDEST PUSH0 PUSH2 0x3DE4 DUP3 PUSH2 0x27A7 JUMP JUMPDEST SWAP2 POP PUSH2 0x3DEF DUP4 PUSH2 0x3DCE JUMP JUMPDEST SWAP3 POP PUSH2 0x3E1C PUSH32 0xFFFFFFFFFFFFFFFFFFFFFFFFFFFFFFFFFFFFFFFFFFFFFFFFFFFFFFFFFFFFFFFF DUP5 DUP5 PUSH2 0x3CFD JUMP JUMPDEST SWAP1 POP SWAP3 SWAP2 POP POP JUMP JUMPDEST PUSH0 DUP2 SWAP1 POP SWAP2 SWAP1 POP JUMP JUMPDEST PUSH2 0x3E36 DUP2 PUSH2 0x3E24 JUMP JUMPDEST DUP3 MSTORE POP POP JUMP JUMPDEST PUSH0 PUSH1 0x40 DUP3 ADD SWAP1 POP PUSH2 0x3E4F PUSH0 DUP4 ADD DUP6 PUSH2 0x3E2D JUMP JUMPDEST DUP2 DUP2 SUB PUSH1 0x20 DUP4 ADD MSTORE PUSH2 0x3E61 DUP2 DUP5 PUSH2 0x2A28 JUMP JUMPDEST SWAP1 POP SWAP4 SWAP3 POP POP POP JUMP JUMPDEST PUSH2 0x3E73 DUP2 PUSH2 0x3E24 JUMP JUMPDEST DUP2 EQ PUSH2 0x3E7D JUMPI PUSH0 DUP1 REVERT JUMPDEST POP JUMP JUMPDEST PUSH0 DUP2 MLOAD SWAP1 POP PUSH2 0x3E8E DUP2 PUSH2 0x3E6A JUMP JUMPDEST SWAP3 SWAP2 POP POP JUMP JUMPDEST PUSH0 PUSH1 0x20 DUP3 DUP5 SUB SLT ISZERO PUSH2 0x3EA9 JUMPI PUSH2 0x3EA8 PUSH2 0x27E1 JUMP JUMPDEST JUMPDEST PUSH0 PUSH2 0x3EB6 DUP5 DUP3 DUP6 ADD PUSH2 0x3E80 JUMP JUMPDEST SWAP2 POP POP SWAP3 SWAP2 POP POP JUMP JUMPDEST PUSH2 0x3EC8 DUP2 PUSH2 0x3DCE JUMP JUMPDEST DUP3 MSTORE POP POP JUMP JUMPDEST PUSH0 PUSH1 0x80 DUP3 ADD SWAP1 POP PUSH2 0x3EE1 PUSH0 DUP4 ADD DUP8 PUSH2 0x3E2D JUMP JUMPDEST PUSH2 0x3EEE PUSH1 0x20 DUP4 ADD DUP7 PUSH2 0x3EBF JUMP JUMPDEST PUSH2 0x3EFB PUSH1 0x40 DUP4 ADD DUP6 PUSH2 0x3E2D JUMP JUMPDEST PUSH2 0x3F08 PUSH1 0x60 DUP4 ADD DUP5 PUSH2 0x3E2D JUMP JUMPDEST SWAP6 SWAP5 POP POP POP POP POP JUMP INVALID LOG2 PUSH5 0x6970667358 0x22 SLT KECCAK256 0x28 0xEA SIGNEXTEND SWAP5 0x27 DUP8 0xC8 EXTCODESIZE DUP1 LOG1 BALANCE 0xE1 SLOAD PUSH7 0x6FBD09A47B39ED 0xCE 0x4B POP 0x4A BALANCE 0xA6 0xFC 0x1E MULMOD STATICCALL 0xB7 PUSH5 0x736F6C6343 STOP ADDMOD ISZERO STOP CALLER "
		},
		"gasEstimates": {
			"creation": {
				"codeDepositCost": "3239800",
				"executionCost": "infinite",
				"totalCost": "infinite"
			},
			"external": {
				"BOX_FARM_FEE()": "2472",
				"BOX_OWNER_FEE()": "2492",
				"BOX_PLATFORM_FEE()": "2471",
				"BOX_SALE_CNT()": "437",
				"BOX_SALE_PERIOD()": "392",
				"BOX_TRADE_FEE()": "2536",
				"PER_BOX_GAS()": "391",
				"PER_BOX_PRICE()": "393",
				"_boxPrices(uint256)": "infinite",
				"_feeReciever()": "2576",
				"_metaBoxUserInfo(bytes,address)": "infinite",
				"_nonces(address)": "2891",
				"_signOwner()": "2553",
				"_stringToBytes(string)": "infinite",
				"boxAllocate(bytes,(uint256,uint256)[])": "infinite",
				"boxBuy(bytes,uint256)": "infinite",
				"boxClaim(bytes)": "infinite",
				"boxPreSale(bytes,uint256)": "infinite",
				"boxSell(bytes,uint256)": "infinite",
				"getBoxUserInfo(bytes,address)": "infinite",
				"getBuyAmount(bytes,uint256)": "infinite",
				"getSellAmount(bytes,uint256)": "infinite",
				"owner()": "2604",
				"renounceOwnership()": "infinite",
				"setBoxFee(uint256,uint256,uint256)": "infinite",
				"setFeeReciever(address)": "infinite",
				"startBox(string,bytes)": "infinite",
				"transferOwnership(address)": "infinite"
			},
			"internal": {
				"_calculateBoxPrice(uint256)": "infinite",
				"_calculateBuyAmount(bytes memory,uint256)": "infinite",
				"_calculateSellAmount(bytes memory,uint256)": "infinite",
				"_distributeFees(bytes memory,uint256)": "infinite",
				"_updateUserInfo(bytes memory,uint256,enum Box.TradeType)": "infinite"
			}
		},
		"methodIdentifiers": {
			"BOX_FARM_FEE()": "0b775510",
			"BOX_OWNER_FEE()": "c724940f",
			"BOX_PLATFORM_FEE()": "3beab570",
			"BOX_SALE_CNT()": "5085d4d8",
			"BOX_SALE_PERIOD()": "8690e716",
			"BOX_TRADE_FEE()": "ba7d5bfd",
			"PER_BOX_GAS()": "e20f7997",
			"PER_BOX_PRICE()": "44ed635a",
			"_boxPrices(uint256)": "52a13a56",
			"_feeReciever()": "534e996e",
			"_metaBoxUserInfo(bytes,address)": "a9773e07",
			"_nonces(address)": "b9844d8d",
			"_signOwner()": "73db533d",
			"_stringToBytes(string)": "1b4f7e28",
			"boxAllocate(bytes,(uint256,uint256)[])": "9cff2903",
			"boxBuy(bytes,uint256)": "9bd53249",
			"boxClaim(bytes)": "a1945ec6",
			"boxPreSale(bytes,uint256)": "4d9d0622",
			"boxSell(bytes,uint256)": "cb7a297c",
			"getBoxUserInfo(bytes,address)": "bd9b09d5",
			"getBuyAmount(bytes,uint256)": "e6636f54",
			"getSellAmount(bytes,uint256)": "a360c659",
			"owner()": "8da5cb5b",
			"renounceOwnership()": "715018a6",
			"setBoxFee(uint256,uint256,uint256)": "116643c5",
			"setFeeReciever(address)": "d436d0ef",
			"startBox(string,bytes)": "ad006b2f",
			"transferOwnership(address)": "f2fde38b"
		}
	},
	"abi": [
		{
			"inputs": [],
			"stateMutability": "nonpayable",
			"type": "constructor"
		},
		{
			"inputs": [],
			"name": "MathOverflowedMulDiv",
			"type": "error"
		},
		{
			"inputs": [
				{
					"internalType": "address",
					"name": "owner",
					"type": "address"
				}
			],
			"name": "OwnableInvalidOwner",
			"type": "error"
		},
		{
			"inputs": [
				{
					"internalType": "address",
					"name": "account",
					"type": "address"
				}
			],
			"name": "OwnableUnauthorizedAccount",
			"type": "error"
		},
		{
			"inputs": [],
			"name": "ReentrancyGuardReentrantCall",
			"type": "error"
		},
		{
			"anonymous": false,
			"inputs": [
				{
					"indexed": true,
					"internalType": "address",
					"name": "sender",
					"type": "address"
				},
				{
					"indexed": false,
					"internalType": "bytes",
					"name": "meta",
					"type": "bytes"
				},
				{
					"indexed": false,
					"internalType": "uint256",
					"name": "order_index",
					"type": "uint256"
				}
			],
			"name": "BoxAllocateRefund",
			"type": "event"
		},
		{
			"anonymous": false,
			"inputs": [
				{
					"indexed": true,
					"internalType": "address",
					"name": "sender",
					"type": "address"
				},
				{
					"indexed": false,
					"internalType": "bytes",
					"name": "meta",
					"type": "bytes"
				},
				{
					"indexed": false,
					"internalType": "uint256",
					"name": "claim_amount",
					"type": "uint256"
				}
			],
			"name": "BoxClaim",
			"type": "event"
		},
		{
			"anonymous": false,
			"inputs": [
				{
					"indexed": true,
					"internalType": "address",
					"name": "sender",
					"type": "address"
				},
				{
					"indexed": false,
					"internalType": "bytes",
					"name": "meta",
					"type": "bytes"
				},
				{
					"indexed": false,
					"internalType": "uint256",
					"name": "order_index",
					"type": "uint256"
				},
				{
					"indexed": false,
					"internalType": "uint256",
					"name": "box_cnt",
					"type": "uint256"
				}
			],
			"name": "BoxSale",
			"type": "event"
		},
		{
			"anonymous": false,
			"inputs": [
				{
					"indexed": true,
					"internalType": "address",
					"name": "sender",
					"type": "address"
				},
				{
					"indexed": false,
					"internalType": "string",
					"name": "meta",
					"type": "string"
				},
				{
					"indexed": false,
					"internalType": "uint256",
					"name": "expireTime",
					"type": "uint256"
				}
			],
			"name": "BoxStart",
			"type": "event"
		},
		{
			"anonymous": false,
			"inputs": [
				{
					"indexed": true,
					"internalType": "address",
					"name": "sender",
					"type": "address"
				},
				{
					"indexed": false,
					"internalType": "bytes",
					"name": "meta",
					"type": "bytes"
				},
				{
					"indexed": false,
					"internalType": "uint256",
					"name": "amount",
					"type": "uint256"
				},
				{
					"indexed": false,
					"internalType": "uint256",
					"name": "fees",
					"type": "uint256"
				},
				{
					"indexed": false,
					"internalType": "enum Box.TradeType",
					"name": "trade_type",
					"type": "uint8"
				},
				{
					"indexed": false,
					"internalType": "uint256",
					"name": "box_cnt",
					"type": "uint256"
				}
			],
			"name": "BoxTrade",
			"type": "event"
		},
		{
			"anonymous": false,
			"inputs": [
				{
					"indexed": true,
					"internalType": "address",
					"name": "sender",
					"type": "address"
				},
				{
					"indexed": false,
					"internalType": "bytes",
					"name": "meta",
					"type": "bytes"
				},
				{
					"indexed": false,
					"internalType": "uint256",
					"name": "fees",
					"type": "uint256"
				},
				{
					"indexed": false,
					"internalType": "enum Box.FeeType",
					"name": "fee_type",
					"type": "uint8"
				}
			],
			"name": "DistributeFees",
			"type": "event"
		},
		{
			"anonymous": false,
			"inputs": [
				{
					"indexed": true,
					"internalType": "address",
					"name": "previousOwner",
					"type": "address"
				},
				{
					"indexed": true,
					"internalType": "address",
					"name": "newOwner",
					"type": "address"
				}
			],
			"name": "OwnershipTransferred",
			"type": "event"
		},
		{
			"inputs": [],
			"name": "BOX_FARM_FEE",
			"outputs": [
				{
					"internalType": "uint256",
					"name": "",
					"type": "uint256"
				}
			],
			"stateMutability": "view",
			"type": "function"
		},
		{
			"inputs": [],
			"name": "BOX_OWNER_FEE",
			"outputs": [
				{
					"internalType": "uint256",
					"name": "",
					"type": "uint256"
				}
			],
			"stateMutability": "view",
			"type": "function"
		},
		{
			"inputs": [],
			"name": "BOX_PLATFORM_FEE",
			"outputs": [
				{
					"internalType": "uint256",
					"name": "",
					"type": "uint256"
				}
			],
			"stateMutability": "view",
			"type": "function"
		},
		{
			"inputs": [],
			"name": "BOX_SALE_CNT",
			"outputs": [
				{
					"internalType": "uint256",
					"name": "",
					"type": "uint256"
				}
			],
			"stateMutability": "view",
			"type": "function"
		},
		{
			"inputs": [],
			"name": "BOX_SALE_PERIOD",
			"outputs": [
				{
					"internalType": "uint256",
					"name": "",
					"type": "uint256"
				}
			],
			"stateMutability": "view",
			"type": "function"
		},
		{
			"inputs": [],
			"name": "BOX_TRADE_FEE",
			"outputs": [
				{
					"internalType": "uint256",
					"name": "",
					"type": "uint256"
				}
			],
			"stateMutability": "view",
			"type": "function"
		},
		{
			"inputs": [],
			"name": "PER_BOX_GAS",
			"outputs": [
				{
					"internalType": "uint256",
					"name": "",
					"type": "uint256"
				}
			],
			"stateMutability": "view",
			"type": "function"
		},
		{
			"inputs": [],
			"name": "PER_BOX_PRICE",
			"outputs": [
				{
					"internalType": "uint256",
					"name": "",
					"type": "uint256"
				}
			],
			"stateMutability": "view",
			"type": "function"
		},
		{
			"inputs": [
				{
					"internalType": "uint256",
					"name": "",
					"type": "uint256"
				}
			],
			"name": "_boxPrices",
			"outputs": [
				{
					"internalType": "uint256",
					"name": "",
					"type": "uint256"
				}
			],
			"stateMutability": "view",
			"type": "function"
		},
		{
			"inputs": [],
			"name": "_feeReciever",
			"outputs": [
				{
					"internalType": "address payable",
					"name": "",
					"type": "address"
				}
			],
			"stateMutability": "view",
			"type": "function"
		},
		{
			"inputs": [
				{
					"internalType": "bytes",
					"name": "",
					"type": "bytes"
				},
				{
					"internalType": "address",
					"name": "",
					"type": "address"
				}
			],
			"name": "_metaBoxUserInfo",
			"outputs": [
				{
					"internalType": "uint256",
					"name": "cnt",
					"type": "uint256"
				},
				{
					"internalType": "uint256",
					"name": "index",
					"type": "uint256"
				},
				{
					"internalType": "uint256",
					"name": "claims",
					"type": "uint256"
				}
			],
			"stateMutability": "view",
			"type": "function"
		},
		{
			"inputs": [
				{
					"internalType": "address",
					"name": "",
					"type": "address"
				}
			],
			"name": "_nonces",
			"outputs": [
				{
					"internalType": "uint256",
					"name": "",
					"type": "uint256"
				}
			],
			"stateMutability": "view",
			"type": "function"
		},
		{
			"inputs": [],
			"name": "_signOwner",
			"outputs": [
				{
					"internalType": "address",
					"name": "",
					"type": "address"
				}
			],
			"stateMutability": "view",
			"type": "function"
		},
		{
			"inputs": [
				{
					"internalType": "string",
					"name": "source",
					"type": "string"
				}
			],
			"name": "_stringToBytes",
			"outputs": [
				{
					"internalType": "bytes",
					"name": "",
					"type": "bytes"
				}
			],
			"stateMutability": "pure",
			"type": "function"
		},
		{
			"inputs": [
				{
					"internalType": "bytes",
					"name": "meta",
					"type": "bytes"
				},
				{
					"components": [
						{
							"internalType": "uint256",
							"name": "orderIndex",
							"type": "uint256"
						},
						{
							"internalType": "uint256",
							"name": "cnt",
							"type": "uint256"
						}
					],
					"internalType": "struct Box.BoxAllocate[]",
					"name": "box_allocates",
					"type": "tuple[]"
				}
			],
			"name": "boxAllocate",
			"outputs": [],
			"stateMutability": "nonpayable",
			"type": "function"
		},
		{
			"inputs": [
				{
					"internalType": "bytes",
					"name": "meta",
					"type": "bytes"
				},
				{
					"internalType": "uint256",
					"name": "cnt",
					"type": "uint256"
				}
			],
			"name": "boxBuy",
			"outputs": [],
			"stateMutability": "payable",
			"type": "function"
		},
		{
			"inputs": [
				{
					"internalType": "bytes",
					"name": "meta",
					"type": "bytes"
				}
			],
			"name": "boxClaim",
			"outputs": [],
			"stateMutability": "nonpayable",
			"type": "function"
		},
		{
			"inputs": [
				{
					"internalType": "bytes",
					"name": "meta",
					"type": "bytes"
				},
				{
					"internalType": "uint256",
					"name": "box_cnt",
					"type": "uint256"
				}
			],
			"name": "boxPreSale",
			"outputs": [],
			"stateMutability": "payable",
			"type": "function"
		},
		{
			"inputs": [
				{
					"internalType": "bytes",
					"name": "meta",
					"type": "bytes"
				},
				{
					"internalType": "uint256",
					"name": "cnt",
					"type": "uint256"
				}
			],
			"name": "boxSell",
			"outputs": [],
			"stateMutability": "nonpayable",
			"type": "function"
		},
		{
			"inputs": [
				{
					"internalType": "bytes",
					"name": "meta",
					"type": "bytes"
				},
				{
					"internalType": "address",
					"name": "ca",
					"type": "address"
				}
			],
			"name": "getBoxUserInfo",
			"outputs": [
				{
					"components": [
						{
							"internalType": "uint256",
							"name": "cnt",
							"type": "uint256"
						},
						{
							"internalType": "uint256",
							"name": "index",
							"type": "uint256"
						},
						{
							"internalType": "uint256",
							"name": "claims",
							"type": "uint256"
						}
					],
					"internalType": "struct Box.UserInfo",
					"name": "",
					"type": "tuple"
				}
			],
			"stateMutability": "view",
			"type": "function"
		},
		{
			"inputs": [
				{
					"internalType": "bytes",
					"name": "meta",
					"type": "bytes"
				},
				{
					"internalType": "uint256",
					"name": "cnt",
					"type": "uint256"
				}
			],
			"name": "getBuyAmount",
			"outputs": [
				{
					"internalType": "uint256",
					"name": "",
					"type": "uint256"
				},
				{
					"internalType": "uint256",
					"name": "",
					"type": "uint256"
				}
			],
			"stateMutability": "view",
			"type": "function"
		},
		{
			"inputs": [
				{
					"internalType": "bytes",
					"name": "meta",
					"type": "bytes"
				},
				{
					"internalType": "uint256",
					"name": "cnt",
					"type": "uint256"
				}
			],
			"name": "getSellAmount",
			"outputs": [
				{
					"internalType": "uint256",
					"name": "",
					"type": "uint256"
				},
				{
					"internalType": "uint256",
					"name": "",
					"type": "uint256"
				}
			],
			"stateMutability": "view",
			"type": "function"
		},
		{
			"inputs": [],
			"name": "owner",
			"outputs": [
				{
					"internalType": "address",
					"name": "",
					"type": "address"
				}
			],
			"stateMutability": "view",
			"type": "function"
		},
		{
			"inputs": [],
			"name": "renounceOwnership",
			"outputs": [],
			"stateMutability": "nonpayable",
			"type": "function"
		},
		{
			"inputs": [
				{
					"internalType": "uint256",
					"name": "owner",
					"type": "uint256"
				},
				{
					"internalType": "uint256",
					"name": "platform",
					"type": "uint256"
				},
				{
					"internalType": "uint256",
					"name": "farm",
					"type": "uint256"
				}
			],
			"name": "setBoxFee",
			"outputs": [],
			"stateMutability": "nonpayable",
			"type": "function"
		},
		{
			"inputs": [
				{
					"internalType": "address",
					"name": "fee_reciever",
					"type": "address"
				}
			],
			"name": "setFeeReciever",
			"outputs": [],
			"stateMutability": "nonpayable",
			"type": "function"
		},
		{
			"inputs": [
				{
					"internalType": "string",
					"name": "meta",
					"type": "string"
				},
				{
					"internalType": "bytes",
					"name": "signature",
					"type": "bytes"
				}
			],
			"name": "startBox",
			"outputs": [],
			"stateMutability": "nonpayable",
			"type": "function"
		},
		{
			"inputs": [
				{
					"internalType": "address",
					"name": "newOwner",
					"type": "address"
				}
			],
			"name": "transferOwnership",
			"outputs": [],
			"stateMutability": "nonpayable",
			"type": "function"
		}
	]
}