{
	"data": {
		"bytecode": {
			"linkReferences": {},
			"object": "6080604052600a60015560046002556002600355600480557396216849c49358b10257cb55b28ea603c874b05e60065f6101000a81548173ffffffffffffffffffffffffffffffffffffffff021916908373ffffffffffffffffffffffffffffffffffffffff16021790555034801562000077575f80fd5b50335f73ffffffffffffffffffffffffffffffffffffffff168173ffffffffffffffffffffffffffffffffffffffff1603620000ec575f6040517f1e4fbdf7000000000000000000000000000000000000000000000000000000008152600401620000e3919062000248565b60405180910390fd5b620000fd816200014460201b60201c565b5033600c5f6101000a81548173ffffffffffffffffffffffffffffffffffffffff021916908373ffffffffffffffffffffffffffffffffffffffff16021790555062000263565b5f805f9054906101000a900473ffffffffffffffffffffffffffffffffffffffff169050815f806101000a81548173ffffffffffffffffffffffffffffffffffffffff021916908373ffffffffffffffffffffffffffffffffffffffff1602179055508173ffffffffffffffffffffffffffffffffffffffff168173ffffffffffffffffffffffffffffffffffffffff167f8be0079c531659141344cd1fd0a4f28419497f9722a3daafe3b4186f6b6457e060405160405180910390a35050565b5f73ffffffffffffffffffffffffffffffffffffffff82169050919050565b5f620002308262000205565b9050919050565b620002428162000224565b82525050565b5f6020820190506200025d5f83018462000237565b92915050565b613d2e80620002715f395ff3fe6080604052600436106101cc575f3560e01c806373db533d116100f6578063b9844d8d11610094578063cc9d197411610063578063cc9d19741461066b578063de2fe26a14610693578063e20f7997146106d0578063f2fde38b146106fa576101cc565b8063b9844d8d1461059f578063ba7d5bfd146105db578063c5695aef14610605578063c724940f14610641576101cc565b80638da5cb5b116100d05780638da5cb5b14610507578063909aa42a14610531578063ad006b2f1461054d578063b791fd9f14610575576101cc565b806373db533d1461048b5780638690e716146104b557806386bde413146104df576101cc565b806330762af71161016e5780635085d4d81161013d5780635085d4d8146103e757806351c651a81461041157806352a13a5614610439578063715018a614610475576101cc565b806330762af71461031a5780633beab5701461035657806344ed635a14610380578063473d833c146103aa576101cc565b8063116643c5116101aa578063116643c5146102525780631b4f7e281461027a57806320b638b8146102b65780632be32d32146102f2576101cc565b80630b775510146101d05780630f09e5e2146101fa57806310225b481461022a575b5f80fd5b3480156101db575f80fd5b506101e4610722565b6040516101f19190612802565b60405180910390f35b610214600480360381019061020f9190612992565b610728565b6040516102219190612a06565b60405180910390f35b348015610235575f80fd5b50610250600480360381019061024b9190612b34565b610a8f565b005b34801561025d575f80fd5b5061027860048036038101906102739190612baa565b610de8565b005b348015610285575f80fd5b506102a0600480360381019061029b9190612bfa565b610e3b565b6040516102ad9190612cbb565b60405180910390f35b3480156102c1575f80fd5b506102dc60048036038101906102d79190612dd3565b610e8f565b6040516102e99190612802565b60405180910390f35b3480156102fd575f80fd5b5061031860048036038101906103139190612992565b610ec7565b005b348015610325575f80fd5b50610340600480360381019061033b9190612e2d565b6111ac565b60405161034d9190612802565b60405180910390f35b348015610361575f80fd5b5061036a611217565b6040516103779190612802565b60405180910390f35b34801561038b575f80fd5b5061039461121d565b6040516103a19190612802565b60405180910390f35b3480156103b5575f80fd5b506103d060048036038101906103cb9190612992565b611228565b6040516103de929190612e87565b60405180910390f35b3480156103f2575f80fd5b506103fb6112c4565b6040516104089190612802565b60405180910390f35b34801561041c575f80fd5b5061043760048036038101906104329190612fbb565b6112c9565b005b348015610444575f80fd5b5061045f600480360381019061045a9190613002565b61134b565b60405161046c9190612802565b60405180910390f35b348015610480575f80fd5b50610489611360565b005b348015610496575f80fd5b5061049f611373565b6040516104ac919061303c565b60405180910390f35b3480156104c0575f80fd5b506104c9611398565b6040516104d69190612802565b60405180910390f35b3480156104ea575f80fd5b5061050560048036038101906105009190612bfa565b61139f565b005b348015610512575f80fd5b5061051b6115b6565b604051610528919061303c565b60405180910390f35b61054b60048036038101906105469190612992565b6115dd565b005b348015610558575f80fd5b50610573600480360381019061056e9190613055565b6118b1565b005b348015610580575f80fd5b50610589611bd2565b60405161059691906130eb565b60405180910390f35b3480156105aa575f80fd5b506105c560048036038101906105c09190613104565b611bf7565b6040516105d29190612802565b60405180910390f35b3480156105e6575f80fd5b506105ef611c0c565b6040516105fc9190612802565b60405180910390f35b348015610610575f80fd5b5061062b60048036038101906106269190613002565b611c12565b6040516106389190612802565b60405180910390f35b34801561064c575f80fd5b50610655611c76565b6040516106629190612802565b60405180910390f35b348015610676575f80fd5b50610691600480360381019061068c9190613104565b611c7c565b005b34801561069e575f80fd5b506106b960048036038101906106b49190612992565b611d35565b6040516106c7929190612e87565b60405180910390f35b3480156106db575f80fd5b506106e4611dd1565b6040516106f19190612802565b60405180910390f35b348015610705575f80fd5b50610720600480360381019061071b9190613104565b611ddc565b005b60045481565b5f3373ffffffffffffffffffffffffffffffffffffffff163273ffffffffffffffffffffffffffffffffffffffff1614610797576040517f08c379a000000000000000000000000000000000000000000000000000000000815260040161078e90613189565b60405180910390fd5b5f6107a184610e3b565b9050426008826040516107b491906131e1565b9081526020016040518091039020600101541015610807576040517f08c379a00000000000000000000000000000000000000000000000000000000081526004016107fe90613241565b60405180910390fd5b5f8311610849576040517f08c379a0000000000000000000000000000000000000000000000000000000008152600401610840906132a9565b60405180910390fd5b3461087d66038d7ea4c6800061086f662386f26fc1000087611e6090919063ffffffff16565b611e7590919063ffffffff16565b10156108be576040517f08c379a00000000000000000000000000000000000000000000000000000000081526004016108b590613311565b60405180910390fd5b6009816040516108ce91906131e1565b908152602001604051809103902060405180606001604052808581526020013373ffffffffffffffffffffffffffffffffffffffff1681526020015f1515815250908060018154018082558091505060019003905f5260205f2090600202015f909190919091505f820151815f01556020820151816001015f6101000a81548173ffffffffffffffffffffffffffffffffffffffff021916908373ffffffffffffffffffffffffffffffffffffffff16021790555060408201518160010160146101000a81548160ff02191690831515021790555050506109d9836008836040516109b991906131e1565b908152602001604051809103902060020154611e7590919063ffffffff16565b6008826040516109e991906131e1565b9081526020016040518091039020600201819055503373ffffffffffffffffffffffffffffffffffffffff167fdac6f59b977dafbca4da6315b0731c34083e85eaf92766691c987a5ab4468aea85610a6c6001600986604051610a4c91906131e1565b908152602001604051809103902080549050611e8a90919063ffffffff16565b86604051610a7c93929190613371565b60405180910390a2600191505092915050565b610a97611e9f565b5f610aa183610e3b565b90505f600982604051610ab491906131e1565b908152602001604051809103902090508251818054905010610de2575f5b8351811015610de0575f848281518110610aef57610aee6133ad565b5b602002602001015190505f83825f015181548110610b1057610b0f6133ad565b5b905f5260205f20906002020190505f8260200151118015610b4057508060010160149054906101000a900460ff16155b15610cca57805f015482602001511115610b8f576040517f08c379a0000000000000000000000000000000000000000000000000000000008152600401610b8690613424565b60405180910390fd5b60018160010160146101000a81548160ff021916908315150217905550610c3f8260200151600787604051610bc491906131e1565b90815260200160405180910390205f846001015f9054906101000a900473ffffffffffffffffffffffffffffffffffffffff1673ffffffffffffffffffffffffffffffffffffffff1673ffffffffffffffffffffffffffffffffffffffff1681526020019081526020015f2054611e7590919063ffffffff16565b600786604051610c4f91906131e1565b90815260200160405180910390205f836001015f9054906101000a900473ffffffffffffffffffffffffffffffffffffffff1673ffffffffffffffffffffffffffffffffffffffff1673ffffffffffffffffffffffffffffffffffffffff1681526020019081526020015f2081905550610cc98533611f26565b5b8160200151815f01541115610d78575f610d0d662386f26fc10000610cff8560200151855f0154611e8a90919063ffffffff16565b611e6090919063ffffffff16565b9050816001015f9054906101000a900473ffffffffffffffffffffffffffffffffffffffff1673ffffffffffffffffffffffffffffffffffffffff166108fc8290811502906040515f60405180830381858888f19350505050158015610d75573d5f803e3d5ffd5b50505b3373ffffffffffffffffffffffffffffffffffffffff167f53fae72da401d34993de5cb88d89b61921d9ea03b01cf315dccb1f628547d05e88845f0151604051610dc3929190613442565b60405180910390a250508080610dd89061349d565b915050610ad2565b505b50505050565b610df0611e9f565b826002819055508160038190555080600481905550610e30600454610e22600354600254611e7590919063ffffffff16565b611e7590919063ffffffff16565b600181905550505050565b60605f829050602081511115610e86576040517f08c379a0000000000000000000000000000000000000000000000000000000008152600401610e7d90613554565b60405180910390fd5b80915050919050565b600782805160208101820180518482526020830160208501208183528095505050505050602052805f5260405f205f91509150505481565b3373ffffffffffffffffffffffffffffffffffffffff163273ffffffffffffffffffffffffffffffffffffffff1614610f35576040517f08c379a0000000000000000000000000000000000000000000000000000000008152600401610f2c90613189565b60405180910390fd5b5f8111610f77576040517f08c379a0000000000000000000000000000000000000000000000000000000008152600401610f6e906135bc565b60405180910390fd5b5f610f8183610e3b565b905081600782604051610f9491906131e1565b90815260200160405180910390205f3373ffffffffffffffffffffffffffffffffffffffff1673ffffffffffffffffffffffffffffffffffffffff1681526020019081526020015f2054101561101f576040517f08c379a000000000000000000000000000000000000000000000000000000000815260040161101690613624565b60405180910390fd5b5f8061102b83856120be565b9150915061109b8460078560405161104391906131e1565b90815260200160405180910390205f3373ffffffffffffffffffffffffffffffffffffffff1673ffffffffffffffffffffffffffffffffffffffff1681526020019081526020015f2054611e8a90919063ffffffff16565b6007846040516110ab91906131e1565b90815260200160405180910390205f3373ffffffffffffffffffffffffffffffffffffffff1673ffffffffffffffffffffffffffffffffffffffff1681526020019081526020015f20819055503373ffffffffffffffffffffffffffffffffffffffff166108fc6111258385611e8a90919063ffffffff16565b90811502906040515f60405180830381858888f1935050505015801561114d573d5f803e3d5ffd5b503373ffffffffffffffffffffffffffffffffffffffff167fcf59e98e3586000b5aa777c573f007017dc33d0e7aedc7fbde92cc1ce233f20c86848460018960405161119d9594939291906136b5565b60405180910390a25050505050565b5f60076111b884610e3b565b6040516111c591906131e1565b90815260200160405180910390205f8373ffffffffffffffffffffffffffffffffffffffff1673ffffffffffffffffffffffffffffffffffffffff1681526020019081526020015f2054905092915050565b60035481565b662386f26fc1000081565b5f803373ffffffffffffffffffffffffffffffffffffffff163273ffffffffffffffffffffffffffffffffffffffff1614611298576040517f08c379a000000000000000000000000000000000000000000000000000000000815260040161128f90613189565b60405180910390fd5b5f6112a285610e3b565b90505f806112b083876120be565b915091508181945094505050509250929050565b606481565b6112d1611e9f565b5f5b8151811015611347575f8282815181106112f0576112ef6133ad565b5b602002602001015190506064815f015111801561131057505f8160200151115b15611333578060200151600a5f835f015181526020019081526020015f20819055505b50808061133f9061349d565b9150506112d3565b5050565b600a602052805f5260405f205f915090505481565b611368611e9f565b6113715f612291565b565b60065f9054906101000a900473ffffffffffffffffffffffffffffffffffffffff1681565b6202a30081565b3373ffffffffffffffffffffffffffffffffffffffff163273ffffffffffffffffffffffffffffffffffffffff161461140d576040517f08c379a000000000000000000000000000000000000000000000000000000000815260040161140490613189565b60405180910390fd5b5f61141782610e3b565b90505f600b8260405161142a91906131e1565b90815260200160405180910390206002015f3373ffffffffffffffffffffffffffffffffffffffff1673ffffffffffffffffffffffffffffffffffffffff1681526020019081526020015f205490505f8110156114bc576040517f08c379a00000000000000000000000000000000000000000000000000000000081526004016114b390613757565b60405180910390fd5b5f600b836040516114cd91906131e1565b90815260200160405180910390206002015f3373ffffffffffffffffffffffffffffffffffffffff1673ffffffffffffffffffffffffffffffffffffffff1681526020019081526020015f20819055503373ffffffffffffffffffffffffffffffffffffffff166108fc8290811502906040515f60405180830381858888f19350505050158015611560573d5f803e3d5ffd5b503373ffffffffffffffffffffffffffffffffffffffff167f26d73e0951876a99aa7c7d086fccb9e7068f2d9f938edc04f8a3c8006222ed3084836040516115a9929190613442565b60405180910390a2505050565b5f805f9054906101000a900473ffffffffffffffffffffffffffffffffffffffff16905090565b3373ffffffffffffffffffffffffffffffffffffffff163273ffffffffffffffffffffffffffffffffffffffff161461164b576040517f08c379a000000000000000000000000000000000000000000000000000000000815260040161164290613189565b60405180910390fd5b5f811161168d576040517f08c379a0000000000000000000000000000000000000000000000000000000008152600401611684906135bc565b60405180910390fd5b5f61169783610e3b565b90505f806116a58385612352565b915091506116bc8183611e7590919063ffffffff16565b3410156116fe576040517f08c379a00000000000000000000000000000000000000000000000000000000081526004016116f5906137bf565b60405180910390fd5b6117118183611e7590919063ffffffff16565b341115611781573373ffffffffffffffffffffffffffffffffffffffff166108fc6117576117488486611e7590919063ffffffff16565b34611e8a90919063ffffffff16565b90811502906040515f60405180830381858888f1935050505015801561177f573d5f803e3d5ffd5b505b61178b8333611f26565b6117f78460078560405161179f91906131e1565b90815260200160405180910390205f3373ffffffffffffffffffffffffffffffffffffffff1673ffffffffffffffffffffffffffffffffffffffff1681526020019081526020015f2054611e7590919063ffffffff16565b60078460405161180791906131e1565b90815260200160405180910390205f3373ffffffffffffffffffffffffffffffffffffffff1673ffffffffffffffffffffffffffffffffffffffff1681526020019081526020015f20819055503373ffffffffffffffffffffffffffffffffffffffff167fcf59e98e3586000b5aa777c573f007017dc33d0e7aedc7fbde92cc1ce233f20c8684845f896040516118a29594939291906136b5565b60405180910390a25050505050565b3373ffffffffffffffffffffffffffffffffffffffff163273ffffffffffffffffffffffffffffffffffffffff161461191f576040517f08c379a000000000000000000000000000000000000000000000000000000000815260040161191690613189565b60405180910390fd5b5f61192983610e3b565b90505f60088260405161193c91906131e1565b9081526020016040518091039020600101541461198e576040517f08c379a000000000000000000000000000000000000000000000000000000000815260040161198590613827565b60405180910390fd5b5f338460055f61199c612489565b73ffffffffffffffffffffffffffffffffffffffff1673ffffffffffffffffffffffffffffffffffffffff1681526020019081526020015f20546040516020016119e8939291906138e4565b60405160208183030381529060405280519060200120905060065f9054906101000a900473ffffffffffffffffffffffffffffffffffffffff1673ffffffffffffffffffffffffffffffffffffffff16611a428285612490565b73ffffffffffffffffffffffffffffffffffffffff1614611a98576040517f08c379a0000000000000000000000000000000000000000000000000000000008152600401611a8f90613966565b60405180910390fd5b5f611aaf6202a30042611e7590919063ffffffff16565b90506040518060a001604052803373ffffffffffffffffffffffffffffffffffffffff1681526020018281526020015f81526020015f81526020015f815250600884604051611afe91906131e1565b90815260200160405180910390205f820151815f015f6101000a81548173ffffffffffffffffffffffffffffffffffffffff021916908373ffffffffffffffffffffffffffffffffffffffff160217905550602082015181600101556040820151816002015560608201518160030155608082015181600401559050503373ffffffffffffffffffffffffffffffffffffffff167f0f126ec1fbb7d521827771bfb48ef46eb9059c22613c14d6c7e7ffe14d5b52f58683604051611bc3929190613442565b60405180910390a25050505050565b600c5f9054906101000a900473ffffffffffffffffffffffffffffffffffffffff1681565b6005602052805f5260405f205f915090505481565b60015481565b5f611c6f655af3107a4000611c616105dc611c536005611c45611c4060058a611c3b9190613abf565b6124ba565b6124ba565b611e6090919063ffffffff16565b611e8a90919063ffffffff16565b611e6090919063ffffffff16565b9050919050565b60025481565b611c84611e9f565b8073ffffffffffffffffffffffffffffffffffffffff165f73ffffffffffffffffffffffffffffffffffffffff1603611cf2576040517f08c379a0000000000000000000000000000000000000000000000000000000008152600401611ce990613b53565b60405180910390fd5b80600c5f6101000a81548173ffffffffffffffffffffffffffffffffffffffff021916908373ffffffffffffffffffffffffffffffffffffffff16021790555050565b5f803373ffffffffffffffffffffffffffffffffffffffff163273ffffffffffffffffffffffffffffffffffffffff1614611da5576040517f08c379a0000000000000000000000000000000000000000000000000000000008152600401611d9c90613189565b60405180910390fd5b5f611daf85610e3b565b90505f80611dbd8387612352565b915091508181945094505050509250929050565b66038d7ea4c6800081565b611de4611e9f565b5f73ffffffffffffffffffffffffffffffffffffffff168173ffffffffffffffffffffffffffffffffffffffff1603611e54575f6040517f1e4fbdf7000000000000000000000000000000000000000000000000000000008152600401611e4b919061303c565b60405180910390fd5b611e5d81612291565b50565b5f8183611e6d9190613b71565b905092915050565b5f8183611e829190613bb2565b905092915050565b5f8183611e979190613be5565b905092915050565b611ea7612489565b73ffffffffffffffffffffffffffffffffffffffff16611ec56115b6565b73ffffffffffffffffffffffffffffffffffffffff1614611f2457611ee8612489565b6040517f118cdaa7000000000000000000000000000000000000000000000000000000008152600401611f1b919061303c565b60405180910390fd5b565b5f600b83604051611f3791906131e1565b908152602001604051809103902090505f816001015f8473ffffffffffffffffffffffffffffffffffffffff1673ffffffffffffffffffffffffffffffffffffffff1681526020019081526020015f205490508273ffffffffffffffffffffffffffffffffffffffff16825f018281548110611fb657611fb56133ad565b5b905f5260205f20015f9054906101000a900473ffffffffffffffffffffffffffffffffffffffff1673ffffffffffffffffffffffffffffffffffffffff16146120b857815f0133908060018154018082558091505060019003905f5260205f20015f9091909190916101000a81548173ffffffffffffffffffffffffffffffffffffffff021916908373ffffffffffffffffffffffffffffffffffffffff1602179055506120746001835f0180549050611e8a90919063ffffffff16565b826001015f8573ffffffffffffffffffffffffffffffffffffffff1673ffffffffffffffffffffffffffffffffffffffff1681526020019081526020015f20819055505b50505050565b5f805f8311612102576040517f08c379a00000000000000000000000000000000000000000000000000000000081526004016120f9906135bc565b60405180910390fd5b8260078560405161211391906131e1565b90815260200160405180910390205f3373ffffffffffffffffffffffffffffffffffffffff1673ffffffffffffffffffffffffffffffffffffffff1681526020019081526020015f2054101561219e576040517f08c379a000000000000000000000000000000000000000000000000000000000815260040161219590613624565b60405180910390fd5b5f806008866040516121b091906131e1565b90815260200160405180910390206003015490505f5b85811015612255575f6121e3600184611e8a90919063ffffffff16565b90505f662386f26fc100009050606484111561222857600a5f8581526020019081526020015f20549050662386f26fc1000081116122275761222484611c12565b90505b5b61223b8186611e7590919063ffffffff16565b94508193505050808061224d9061349d565b9150506121c6565b505f61227f606461227160015486611e6090919063ffffffff16565b61253790919063ffffffff16565b90508281945094505050509250929050565b5f805f9054906101000a900473ffffffffffffffffffffffffffffffffffffffff169050815f806101000a81548173ffffffffffffffffffffffffffffffffffffffff021916908373ffffffffffffffffffffffffffffffffffffffff1602179055508173ffffffffffffffffffffffffffffffffffffffff168173ffffffffffffffffffffffffffffffffffffffff167f8be0079c531659141344cd1fd0a4f28419497f9722a3daafe3b4186f6b6457e060405160405180910390a35050565b5f805f8311612396576040517f08c379a000000000000000000000000000000000000000000000000000000000815260040161238d906135bc565b60405180910390fd5b5f806008866040516123a891906131e1565b90815260200160405180910390206003015490505f5b8581101561244d575f6123db600184611e7590919063ffffffff16565b90505f662386f26fc100009050606482111561242057600a5f8381526020019081526020015f20549050662386f26fc10000811161241f5761241c82611c12565b90505b5b6124338186611e7590919063ffffffff16565b9450819350505080806124459061349d565b9150506123be565b505f612477606461246960015486611e6090919063ffffffff16565b61253790919063ffffffff16565b90508281945094505050509250929050565b5f33905090565b5f805f8061249e868661254c565b9250925092506124ae82826125a1565b82935050505092915050565b5f808214806124c95750600182145b156124d657819050612532565b5f60026001846124e69190613bb2565b6124f09190613c45565b90505f8390505b8082101561252c5781905060028283866125119190613c45565b61251b9190613bb2565b6125259190613c45565b91506124f7565b80925050505b919050565b5f81836125449190613c45565b905092915050565b5f805f604184510361258c575f805f602087015192506040870151915060608701515f1a905061257e88828585612703565b95509550955050505061259a565b5f600285515f1b9250925092505b9250925092565b5f60038111156125b4576125b3613642565b5b8260038111156125c7576125c6613642565b5b03156126ff57600160038111156125e1576125e0613642565b5b8260038111156125f4576125f3613642565b5b0361262b576040517ff645eedf00000000000000000000000000000000000000000000000000000000815260040160405180910390fd5b6002600381111561263f5761263e613642565b5b82600381111561265257612651613642565b5b0361269657805f1c6040517ffce698f700000000000000000000000000000000000000000000000000000000815260040161268d9190612802565b60405180910390fd5b6003808111156126a9576126a8613642565b5b8260038111156126bc576126bb613642565b5b036126fe57806040517fd78bce0c0000000000000000000000000000000000000000000000000000000081526004016126f59190613c8d565b60405180910390fd5b5b5050565b5f805f7f7fffffffffffffffffffffffffffffff5d576e7357a4501ddfe92f46681b20a0845f1c111561273f575f6003859250925092506127e0565b5f6001888888886040515f81526020016040526040516127629493929190613cb5565b6020604051602081039080840390855afa158015612782573d5f803e3d5ffd5b5050506020604051035190505f73ffffffffffffffffffffffffffffffffffffffff168173ffffffffffffffffffffffffffffffffffffffff16036127d3575f60015f801b935093509350506127e0565b805f805f1b935093509350505b9450945094915050565b5f819050919050565b6127fc816127ea565b82525050565b5f6020820190506128155f8301846127f3565b92915050565b5f604051905090565b5f80fd5b5f80fd5b5f80fd5b5f80fd5b5f601f19601f8301169050919050565b7f4e487b71000000000000000000000000000000000000000000000000000000005f52604160045260245ffd5b61287a82612834565b810181811067ffffffffffffffff8211171561289957612898612844565b5b80604052505050565b5f6128ab61281b565b90506128b78282612871565b919050565b5f67ffffffffffffffff8211156128d6576128d5612844565b5b6128df82612834565b9050602081019050919050565b828183375f83830152505050565b5f61290c612907846128bc565b6128a2565b90508281526020810184848401111561292857612927612830565b5b6129338482856128ec565b509392505050565b5f82601f83011261294f5761294e61282c565b5b813561295f8482602086016128fa565b91505092915050565b612971816127ea565b811461297b575f80fd5b50565b5f8135905061298c81612968565b92915050565b5f80604083850312156129a8576129a7612824565b5b5f83013567ffffffffffffffff8111156129c5576129c4612828565b5b6129d18582860161293b565b92505060206129e28582860161297e565b9150509250929050565b5f8115159050919050565b612a00816129ec565b82525050565b5f602082019050612a195f8301846129f7565b92915050565b5f67ffffffffffffffff821115612a3957612a38612844565b5b602082029050602081019050919050565b5f80fd5b5f80fd5b5f60408284031215612a6757612a66612a4e565b5b612a7160406128a2565b90505f612a808482850161297e565b5f830152506020612a938482850161297e565b60208301525092915050565b5f612ab1612aac84612a1f565b6128a2565b90508083825260208201905060408402830185811115612ad457612ad3612a4a565b5b835b81811015612afd5780612ae98882612a52565b845260208401935050604081019050612ad6565b5050509392505050565b5f82601f830112612b1b57612b1a61282c565b5b8135612b2b848260208601612a9f565b91505092915050565b5f8060408385031215612b4a57612b49612824565b5b5f83013567ffffffffffffffff811115612b6757612b66612828565b5b612b738582860161293b565b925050602083013567ffffffffffffffff811115612b9457612b93612828565b5b612ba085828601612b07565b9150509250929050565b5f805f60608486031215612bc157612bc0612824565b5b5f612bce8682870161297e565b9350506020612bdf8682870161297e565b9250506040612bf08682870161297e565b9150509250925092565b5f60208284031215612c0f57612c0e612824565b5b5f82013567ffffffffffffffff811115612c2c57612c2b612828565b5b612c388482850161293b565b91505092915050565b5f81519050919050565b5f82825260208201905092915050565b5f5b83811015612c78578082015181840152602081019050612c5d565b5f8484015250505050565b5f612c8d82612c41565b612c978185612c4b565b9350612ca7818560208601612c5b565b612cb081612834565b840191505092915050565b5f6020820190508181035f830152612cd38184612c83565b905092915050565b5f67ffffffffffffffff821115612cf557612cf4612844565b5b612cfe82612834565b9050602081019050919050565b5f612d1d612d1884612cdb565b6128a2565b905082815260208101848484011115612d3957612d38612830565b5b612d448482856128ec565b509392505050565b5f82601f830112612d6057612d5f61282c565b5b8135612d70848260208601612d0b565b91505092915050565b5f73ffffffffffffffffffffffffffffffffffffffff82169050919050565b5f612da282612d79565b9050919050565b612db281612d98565b8114612dbc575f80fd5b50565b5f81359050612dcd81612da9565b92915050565b5f8060408385031215612de957612de8612824565b5b5f83013567ffffffffffffffff811115612e0657612e05612828565b5b612e1285828601612d4c565b9250506020612e2385828601612dbf565b9150509250929050565b5f8060408385031215612e4357612e42612824565b5b5f83013567ffffffffffffffff811115612e6057612e5f612828565b5b612e6c8582860161293b565b9250506020612e7d85828601612dbf565b9150509250929050565b5f604082019050612e9a5f8301856127f3565b612ea760208301846127f3565b9392505050565b5f67ffffffffffffffff821115612ec857612ec7612844565b5b602082029050602081019050919050565b5f60408284031215612eee57612eed612a4e565b5b612ef860406128a2565b90505f612f078482850161297e565b5f830152506020612f1a8482850161297e565b60208301525092915050565b5f612f38612f3384612eae565b6128a2565b90508083825260208201905060408402830185811115612f5b57612f5a612a4a565b5b835b81811015612f845780612f708882612ed9565b845260208401935050604081019050612f5d565b5050509392505050565b5f82601f830112612fa257612fa161282c565b5b8135612fb2848260208601612f26565b91505092915050565b5f60208284031215612fd057612fcf612824565b5b5f82013567ffffffffffffffff811115612fed57612fec612828565b5b612ff984828501612f8e565b91505092915050565b5f6020828403121561301757613016612824565b5b5f6130248482850161297e565b91505092915050565b61303681612d98565b82525050565b5f60208201905061304f5f83018461302d565b92915050565b5f806040838503121561306b5761306a612824565b5b5f83013567ffffffffffffffff81111561308857613087612828565b5b6130948582860161293b565b925050602083013567ffffffffffffffff8111156130b5576130b4612828565b5b6130c185828601612d4c565b9150509250929050565b5f6130d582612d79565b9050919050565b6130e5816130cb565b82525050565b5f6020820190506130fe5f8301846130dc565b92915050565b5f6020828403121561311957613118612824565b5b5f61312684828501612dbf565b91505092915050565b5f82825260208201905092915050565b7f5468652063616c6c657220697320616e6f7468657220636f6e747261637400005f82015250565b5f613173601e8361312f565b915061317e8261313f565b602082019050919050565b5f6020820190508181035f8301526131a081613167565b9050919050565b5f81905092915050565b5f6131bb82612c41565b6131c581856131a7565b93506131d5818560208601612c5b565b80840191505092915050565b5f6131ec82846131b1565b915081905092915050565b7f54686520626f782073616c6520697320656e64000000000000000000000000005f82015250565b5f61322b60138361312f565b9150613236826131f7565b602082019050919050565b5f6020820190508181035f8301526132588161321f565b9050919050565b7f426f7820636e74206973207a65726f00000000000000000000000000000000005f82015250565b5f613293600f8361312f565b915061329e8261325f565b602082019050919050565b5f6020820190508181035f8301526132c081613287565b9050919050565b7f496e73756666696369656e7420426f7820616d6f756e740000000000000000005f82015250565b5f6132fb60178361312f565b9150613306826132c7565b602082019050919050565b5f6020820190508181035f830152613328816132ef565b9050919050565b5f81519050919050565b5f6133438261332f565b61334d818561312f565b935061335d818560208601612c5b565b61336681612834565b840191505092915050565b5f6060820190508181035f8301526133898186613339565b905061339860208301856127f3565b6133a560408301846127f3565b949350505050565b7f4e487b71000000000000000000000000000000000000000000000000000000005f52603260045260245ffd5b7f496e73756666696369656e7420626f7820616c6c6f6361746520636e740000005f82015250565b5f61340e601d8361312f565b9150613419826133da565b602082019050919050565b5f6020820190508181035f83015261343b81613402565b9050919050565b5f6040820190508181035f83015261345a8185613339565b905061346960208301846127f3565b9392505050565b7f4e487b71000000000000000000000000000000000000000000000000000000005f52601160045260245ffd5b5f6134a7826127ea565b91507fffffffffffffffffffffffffffffffffffffffffffffffffffffffffffffffff82036134d9576134d8613470565b5b600182019050919050565b7f54687320736f7572636520737472696e672065786365656473203332206279745f8201527f6573000000000000000000000000000000000000000000000000000000000000602082015250565b5f61353e60228361312f565b9150613549826134e4565b604082019050919050565b5f6020820190508181035f83015261356b81613532565b9050919050565b7f496e73756666696369656e7420426f7820636e740000000000000000000000005f82015250565b5f6135a660148361312f565b91506135b182613572565b602082019050919050565b5f6020820190508181035f8301526135d38161359a565b9050919050565b7f496e73756666696369656e7420426f782062616c616e636500000000000000005f82015250565b5f61360e60188361312f565b9150613619826135da565b602082019050919050565b5f6020820190508181035f83015261363b81613602565b9050919050565b7f4e487b71000000000000000000000000000000000000000000000000000000005f52602160045260245ffd5b600281106136805761367f613642565b5b50565b5f8190506136908261366f565b919050565b5f61369f82613683565b9050919050565b6136af81613695565b82525050565b5f60a0820190508181035f8301526136cd8188613339565b90506136dc60208301876127f3565b6136e960408301866127f3565b6136f660608301856136a6565b61370360808301846127f3565b9695505050505050565b7f496e73756666696369656e7420636c61696d20616d6f756e74000000000000005f82015250565b5f61374160198361312f565b915061374c8261370d565b602082019050919050565b5f6020820190508181035f83015261376e81613735565b9050919050565b7f496e73756666696369656e742070617920616d6f756e740000000000000000005f82015250565b5f6137a960178361312f565b91506137b482613775565b602082019050919050565b5f6020820190508181035f8301526137d68161379d565b9050919050565b7f546865206d6574612065786973740000000000000000000000000000000000005f82015250565b5f613811600e8361312f565b915061381c826137dd565b602082019050919050565b5f6020820190508181035f83015261383e81613805565b9050919050565b5f8160601b9050919050565b5f61385b82613845565b9050919050565b5f61386c82613851565b9050919050565b61388461387f82612d98565b613862565b82525050565b5f81905092915050565b5f61389e8261332f565b6138a8818561388a565b93506138b8818560208601612c5b565b80840191505092915050565b5f819050919050565b6138de6138d9826127ea565b6138c4565b82525050565b5f6138ef8286613873565b6014820191506138ff8285613894565b915061390b82846138cd565b602082019150819050949350505050565b7f546865207369676e617475726520697320696e76616c696400000000000000005f82015250565b5f61395060188361312f565b915061395b8261391c565b602082019050919050565b5f6020820190508181035f83015261397d81613944565b9050919050565b5f8160011c9050919050565b5f808291508390505b60018511156139d9578086048111156139b5576139b4613470565b5b60018516156139c45780820291505b80810290506139d285613984565b9450613999565b94509492505050565b5f826139f15760019050613aac565b816139fe575f9050613aac565b8160018114613a145760028114613a1e57613a4d565b6001915050613aac565b60ff841115613a3057613a2f613470565b5b8360020a915084821115613a4757613a46613470565b5b50613aac565b5060208310610133831016604e8410600b8410161715613a825782820a905083811115613a7d57613a7c613470565b5b613aac565b613a8f8484846001613990565b92509050818404811115613aa657613aa5613470565b5b81810290505b9392505050565b5f60ff82169050919050565b5f613ac9826127ea565b9150613ad483613ab3565b9250613b017fffffffffffffffffffffffffffffffffffffffffffffffffffffffffffffffff84846139e2565b905092915050565b7f6d7574695f7369676e206973207a65726f2061646472657373730000000000005f82015250565b5f613b3d601a8361312f565b9150613b4882613b09565b602082019050919050565b5f6020820190508181035f830152613b6a81613b31565b9050919050565b5f613b7b826127ea565b9150613b86836127ea565b9250828202613b94816127ea565b91508282048414831517613bab57613baa613470565b5b5092915050565b5f613bbc826127ea565b9150613bc7836127ea565b9250828201905080821115613bdf57613bde613470565b5b92915050565b5f613bef826127ea565b9150613bfa836127ea565b9250828203905081811115613c1257613c11613470565b5b92915050565b7f4e487b71000000000000000000000000000000000000000000000000000000005f52601260045260245ffd5b5f613c4f826127ea565b9150613c5a836127ea565b925082613c6a57613c69613c18565b5b828204905092915050565b5f819050919050565b613c8781613c75565b82525050565b5f602082019050613ca05f830184613c7e565b92915050565b613caf81613ab3565b82525050565b5f608082019050613cc85f830187613c7e565b613cd56020830186613ca6565b613ce26040830185613c7e565b613cef6060830184613c7e565b9594505050505056fea2646970667358221220480f6fcc2f9ed47352a413b819ff05441e2cfd69c0aee52c95538a9732ce3e5564736f6c63430008140033",
			"opcodes": "PUSH1 0x80 PUSH1 0x40 MSTORE PUSH1 0xA PUSH1 0x1 SSTORE PUSH1 0x4 PUSH1 0x2 SSTORE PUSH1 0x2 PUSH1 0x3 SSTORE PUSH1 0x4 DUP1 SSTORE PUSH20 0x96216849C49358B10257CB55B28EA603C874B05E PUSH1 0x6 PUSH0 PUSH2 0x100 EXP DUP2 SLOAD DUP2 PUSH20 0xFFFFFFFFFFFFFFFFFFFFFFFFFFFFFFFFFFFFFFFF MUL NOT AND SWAP1 DUP4 PUSH20 0xFFFFFFFFFFFFFFFFFFFFFFFFFFFFFFFFFFFFFFFF AND MUL OR SWAP1 SSTORE POP CALLVALUE DUP1 ISZERO PUSH3 0x77 JUMPI PUSH0 DUP1 REVERT JUMPDEST POP CALLER PUSH0 PUSH20 0xFFFFFFFFFFFFFFFFFFFFFFFFFFFFFFFFFFFFFFFF AND DUP2 PUSH20 0xFFFFFFFFFFFFFFFFFFFFFFFFFFFFFFFFFFFFFFFF AND SUB PUSH3 0xEC JUMPI PUSH0 PUSH1 0x40 MLOAD PUSH32 0x1E4FBDF700000000000000000000000000000000000000000000000000000000 DUP2 MSTORE PUSH1 0x4 ADD PUSH3 0xE3 SWAP2 SWAP1 PUSH3 0x248 JUMP JUMPDEST PUSH1 0x40 MLOAD DUP1 SWAP2 SUB SWAP1 REVERT JUMPDEST PUSH3 0xFD DUP2 PUSH3 0x144 PUSH1 0x20 SHL PUSH1 0x20 SHR JUMP JUMPDEST POP CALLER PUSH1 0xC PUSH0 PUSH2 0x100 EXP DUP2 SLOAD DUP2 PUSH20 0xFFFFFFFFFFFFFFFFFFFFFFFFFFFFFFFFFFFFFFFF MUL NOT AND SWAP1 DUP4 PUSH20 0xFFFFFFFFFFFFFFFFFFFFFFFFFFFFFFFFFFFFFFFF AND MUL OR SWAP1 SSTORE POP PUSH3 0x263 JUMP JUMPDEST PUSH0 DUP1 PUSH0 SWAP1 SLOAD SWAP1 PUSH2 0x100 EXP SWAP1 DIV PUSH20 0xFFFFFFFFFFFFFFFFFFFFFFFFFFFFFFFFFFFFFFFF AND SWAP1 POP DUP2 PUSH0 DUP1 PUSH2 0x100 EXP DUP2 SLOAD DUP2 PUSH20 0xFFFFFFFFFFFFFFFFFFFFFFFFFFFFFFFFFFFFFFFF MUL NOT AND SWAP1 DUP4 PUSH20 0xFFFFFFFFFFFFFFFFFFFFFFFFFFFFFFFFFFFFFFFF AND MUL OR SWAP1 SSTORE POP DUP2 PUSH20 0xFFFFFFFFFFFFFFFFFFFFFFFFFFFFFFFFFFFFFFFF AND DUP2 PUSH20 0xFFFFFFFFFFFFFFFFFFFFFFFFFFFFFFFFFFFFFFFF AND PUSH32 0x8BE0079C531659141344CD1FD0A4F28419497F9722A3DAAFE3B4186F6B6457E0 PUSH1 0x40 MLOAD PUSH1 0x40 MLOAD DUP1 SWAP2 SUB SWAP1 LOG3 POP POP JUMP JUMPDEST PUSH0 PUSH20 0xFFFFFFFFFFFFFFFFFFFFFFFFFFFFFFFFFFFFFFFF DUP3 AND SWAP1 POP SWAP2 SWAP1 POP JUMP JUMPDEST PUSH0 PUSH3 0x230 DUP3 PUSH3 0x205 JUMP JUMPDEST SWAP1 POP SWAP2 SWAP1 POP JUMP JUMPDEST PUSH3 0x242 DUP2 PUSH3 0x224 JUMP JUMPDEST DUP3 MSTORE POP POP JUMP JUMPDEST PUSH0 PUSH1 0x20 DUP3 ADD SWAP1 POP PUSH3 0x25D PUSH0 DUP4 ADD DUP5 PUSH3 0x237 JUMP JUMPDEST SWAP3 SWAP2 POP POP JUMP JUMPDEST PUSH2 0x3D2E DUP1 PUSH3 0x271 PUSH0 CODECOPY PUSH0 RETURN INVALID PUSH1 0x80 PUSH1 0x40 MSTORE PUSH1 0x4 CALLDATASIZE LT PUSH2 0x1CC JUMPI PUSH0 CALLDATALOAD PUSH1 0xE0 SHR DUP1 PUSH4 0x73DB533D GT PUSH2 0xF6 JUMPI DUP1 PUSH4 0xB9844D8D GT PUSH2 0x94 JUMPI DUP1 PUSH4 0xCC9D1974 GT PUSH2 0x63 JUMPI DUP1 PUSH4 0xCC9D1974 EQ PUSH2 0x66B JUMPI DUP1 PUSH4 0xDE2FE26A EQ PUSH2 0x693 JUMPI DUP1 PUSH4 0xE20F7997 EQ PUSH2 0x6D0 JUMPI DUP1 PUSH4 0xF2FDE38B EQ PUSH2 0x6FA JUMPI PUSH2 0x1CC JUMP JUMPDEST DUP1 PUSH4 0xB9844D8D EQ PUSH2 0x59F JUMPI DUP1 PUSH4 0xBA7D5BFD EQ PUSH2 0x5DB JUMPI DUP1 PUSH4 0xC5695AEF EQ PUSH2 0x605 JUMPI DUP1 PUSH4 0xC724940F EQ PUSH2 0x641 JUMPI PUSH2 0x1CC JUMP JUMPDEST DUP1 PUSH4 0x8DA5CB5B GT PUSH2 0xD0 JUMPI DUP1 PUSH4 0x8DA5CB5B EQ PUSH2 0x507 JUMPI DUP1 PUSH4 0x909AA42A EQ PUSH2 0x531 JUMPI DUP1 PUSH4 0xAD006B2F EQ PUSH2 0x54D JUMPI DUP1 PUSH4 0xB791FD9F EQ PUSH2 0x575 JUMPI PUSH2 0x1CC JUMP JUMPDEST DUP1 PUSH4 0x73DB533D EQ PUSH2 0x48B JUMPI DUP1 PUSH4 0x8690E716 EQ PUSH2 0x4B5 JUMPI DUP1 PUSH4 0x86BDE413 EQ PUSH2 0x4DF JUMPI PUSH2 0x1CC JUMP JUMPDEST DUP1 PUSH4 0x30762AF7 GT PUSH2 0x16E JUMPI DUP1 PUSH4 0x5085D4D8 GT PUSH2 0x13D JUMPI DUP1 PUSH4 0x5085D4D8 EQ PUSH2 0x3E7 JUMPI DUP1 PUSH4 0x51C651A8 EQ PUSH2 0x411 JUMPI DUP1 PUSH4 0x52A13A56 EQ PUSH2 0x439 JUMPI DUP1 PUSH4 0x715018A6 EQ PUSH2 0x475 JUMPI PUSH2 0x1CC JUMP JUMPDEST DUP1 PUSH4 0x30762AF7 EQ PUSH2 0x31A JUMPI DUP1 PUSH4 0x3BEAB570 EQ PUSH2 0x356 JUMPI DUP1 PUSH4 0x44ED635A EQ PUSH2 0x380 JUMPI DUP1 PUSH4 0x473D833C EQ PUSH2 0x3AA JUMPI PUSH2 0x1CC JUMP JUMPDEST DUP1 PUSH4 0x116643C5 GT PUSH2 0x1AA JUMPI DUP1 PUSH4 0x116643C5 EQ PUSH2 0x252 JUMPI DUP1 PUSH4 0x1B4F7E28 EQ PUSH2 0x27A JUMPI DUP1 PUSH4 0x20B638B8 EQ PUSH2 0x2B6 JUMPI DUP1 PUSH4 0x2BE32D32 EQ PUSH2 0x2F2 JUMPI PUSH2 0x1CC JUMP JUMPDEST DUP1 PUSH4 0xB775510 EQ PUSH2 0x1D0 JUMPI DUP1 PUSH4 0xF09E5E2 EQ PUSH2 0x1FA JUMPI DUP1 PUSH4 0x10225B48 EQ PUSH2 0x22A JUMPI JUMPDEST PUSH0 DUP1 REVERT JUMPDEST CALLVALUE DUP1 ISZERO PUSH2 0x1DB JUMPI PUSH0 DUP1 REVERT JUMPDEST POP PUSH2 0x1E4 PUSH2 0x722 JUMP JUMPDEST PUSH1 0x40 MLOAD PUSH2 0x1F1 SWAP2 SWAP1 PUSH2 0x2802 JUMP JUMPDEST PUSH1 0x40 MLOAD DUP1 SWAP2 SUB SWAP1 RETURN JUMPDEST PUSH2 0x214 PUSH1 0x4 DUP1 CALLDATASIZE SUB DUP2 ADD SWAP1 PUSH2 0x20F SWAP2 SWAP1 PUSH2 0x2992 JUMP JUMPDEST PUSH2 0x728 JUMP JUMPDEST PUSH1 0x40 MLOAD PUSH2 0x221 SWAP2 SWAP1 PUSH2 0x2A06 JUMP JUMPDEST PUSH1 0x40 MLOAD DUP1 SWAP2 SUB SWAP1 RETURN JUMPDEST CALLVALUE DUP1 ISZERO PUSH2 0x235 JUMPI PUSH0 DUP1 REVERT JUMPDEST POP PUSH2 0x250 PUSH1 0x4 DUP1 CALLDATASIZE SUB DUP2 ADD SWAP1 PUSH2 0x24B SWAP2 SWAP1 PUSH2 0x2B34 JUMP JUMPDEST PUSH2 0xA8F JUMP JUMPDEST STOP JUMPDEST CALLVALUE DUP1 ISZERO PUSH2 0x25D JUMPI PUSH0 DUP1 REVERT JUMPDEST POP PUSH2 0x278 PUSH1 0x4 DUP1 CALLDATASIZE SUB DUP2 ADD SWAP1 PUSH2 0x273 SWAP2 SWAP1 PUSH2 0x2BAA JUMP JUMPDEST PUSH2 0xDE8 JUMP JUMPDEST STOP JUMPDEST CALLVALUE DUP1 ISZERO PUSH2 0x285 JUMPI PUSH0 DUP1 REVERT JUMPDEST POP PUSH2 0x2A0 PUSH1 0x4 DUP1 CALLDATASIZE SUB DUP2 ADD SWAP1 PUSH2 0x29B SWAP2 SWAP1 PUSH2 0x2BFA JUMP JUMPDEST PUSH2 0xE3B JUMP JUMPDEST PUSH1 0x40 MLOAD PUSH2 0x2AD SWAP2 SWAP1 PUSH2 0x2CBB JUMP JUMPDEST PUSH1 0x40 MLOAD DUP1 SWAP2 SUB SWAP1 RETURN JUMPDEST CALLVALUE DUP1 ISZERO PUSH2 0x2C1 JUMPI PUSH0 DUP1 REVERT JUMPDEST POP PUSH2 0x2DC PUSH1 0x4 DUP1 CALLDATASIZE SUB DUP2 ADD SWAP1 PUSH2 0x2D7 SWAP2 SWAP1 PUSH2 0x2DD3 JUMP JUMPDEST PUSH2 0xE8F JUMP JUMPDEST PUSH1 0x40 MLOAD PUSH2 0x2E9 SWAP2 SWAP1 PUSH2 0x2802 JUMP JUMPDEST PUSH1 0x40 MLOAD DUP1 SWAP2 SUB SWAP1 RETURN JUMPDEST CALLVALUE DUP1 ISZERO PUSH2 0x2FD JUMPI PUSH0 DUP1 REVERT JUMPDEST POP PUSH2 0x318 PUSH1 0x4 DUP1 CALLDATASIZE SUB DUP2 ADD SWAP1 PUSH2 0x313 SWAP2 SWAP1 PUSH2 0x2992 JUMP JUMPDEST PUSH2 0xEC7 JUMP JUMPDEST STOP JUMPDEST CALLVALUE DUP1 ISZERO PUSH2 0x325 JUMPI PUSH0 DUP1 REVERT JUMPDEST POP PUSH2 0x340 PUSH1 0x4 DUP1 CALLDATASIZE SUB DUP2 ADD SWAP1 PUSH2 0x33B SWAP2 SWAP1 PUSH2 0x2E2D JUMP JUMPDEST PUSH2 0x11AC JUMP JUMPDEST PUSH1 0x40 MLOAD PUSH2 0x34D SWAP2 SWAP1 PUSH2 0x2802 JUMP JUMPDEST PUSH1 0x40 MLOAD DUP1 SWAP2 SUB SWAP1 RETURN JUMPDEST CALLVALUE DUP1 ISZERO PUSH2 0x361 JUMPI PUSH0 DUP1 REVERT JUMPDEST POP PUSH2 0x36A PUSH2 0x1217 JUMP JUMPDEST PUSH1 0x40 MLOAD PUSH2 0x377 SWAP2 SWAP1 PUSH2 0x2802 JUMP JUMPDEST PUSH1 0x40 MLOAD DUP1 SWAP2 SUB SWAP1 RETURN JUMPDEST CALLVALUE DUP1 ISZERO PUSH2 0x38B JUMPI PUSH0 DUP1 REVERT JUMPDEST POP PUSH2 0x394 PUSH2 0x121D JUMP JUMPDEST PUSH1 0x40 MLOAD PUSH2 0x3A1 SWAP2 SWAP1 PUSH2 0x2802 JUMP JUMPDEST PUSH1 0x40 MLOAD DUP1 SWAP2 SUB SWAP1 RETURN JUMPDEST CALLVALUE DUP1 ISZERO PUSH2 0x3B5 JUMPI PUSH0 DUP1 REVERT JUMPDEST POP PUSH2 0x3D0 PUSH1 0x4 DUP1 CALLDATASIZE SUB DUP2 ADD SWAP1 PUSH2 0x3CB SWAP2 SWAP1 PUSH2 0x2992 JUMP JUMPDEST PUSH2 0x1228 JUMP JUMPDEST PUSH1 0x40 MLOAD PUSH2 0x3DE SWAP3 SWAP2 SWAP1 PUSH2 0x2E87 JUMP JUMPDEST PUSH1 0x40 MLOAD DUP1 SWAP2 SUB SWAP1 RETURN JUMPDEST CALLVALUE DUP1 ISZERO PUSH2 0x3F2 JUMPI PUSH0 DUP1 REVERT JUMPDEST POP PUSH2 0x3FB PUSH2 0x12C4 JUMP JUMPDEST PUSH1 0x40 MLOAD PUSH2 0x408 SWAP2 SWAP1 PUSH2 0x2802 JUMP JUMPDEST PUSH1 0x40 MLOAD DUP1 SWAP2 SUB SWAP1 RETURN JUMPDEST CALLVALUE DUP1 ISZERO PUSH2 0x41C JUMPI PUSH0 DUP1 REVERT JUMPDEST POP PUSH2 0x437 PUSH1 0x4 DUP1 CALLDATASIZE SUB DUP2 ADD SWAP1 PUSH2 0x432 SWAP2 SWAP1 PUSH2 0x2FBB JUMP JUMPDEST PUSH2 0x12C9 JUMP JUMPDEST STOP JUMPDEST CALLVALUE DUP1 ISZERO PUSH2 0x444 JUMPI PUSH0 DUP1 REVERT JUMPDEST POP PUSH2 0x45F PUSH1 0x4 DUP1 CALLDATASIZE SUB DUP2 ADD SWAP1 PUSH2 0x45A SWAP2 SWAP1 PUSH2 0x3002 JUMP JUMPDEST PUSH2 0x134B JUMP JUMPDEST PUSH1 0x40 MLOAD PUSH2 0x46C SWAP2 SWAP1 PUSH2 0x2802 JUMP JUMPDEST PUSH1 0x40 MLOAD DUP1 SWAP2 SUB SWAP1 RETURN JUMPDEST CALLVALUE DUP1 ISZERO PUSH2 0x480 JUMPI PUSH0 DUP1 REVERT JUMPDEST POP PUSH2 0x489 PUSH2 0x1360 JUMP JUMPDEST STOP JUMPDEST CALLVALUE DUP1 ISZERO PUSH2 0x496 JUMPI PUSH0 DUP1 REVERT JUMPDEST POP PUSH2 0x49F PUSH2 0x1373 JUMP JUMPDEST PUSH1 0x40 MLOAD PUSH2 0x4AC SWAP2 SWAP1 PUSH2 0x303C JUMP JUMPDEST PUSH1 0x40 MLOAD DUP1 SWAP2 SUB SWAP1 RETURN JUMPDEST CALLVALUE DUP1 ISZERO PUSH2 0x4C0 JUMPI PUSH0 DUP1 REVERT JUMPDEST POP PUSH2 0x4C9 PUSH2 0x1398 JUMP JUMPDEST PUSH1 0x40 MLOAD PUSH2 0x4D6 SWAP2 SWAP1 PUSH2 0x2802 JUMP JUMPDEST PUSH1 0x40 MLOAD DUP1 SWAP2 SUB SWAP1 RETURN JUMPDEST CALLVALUE DUP1 ISZERO PUSH2 0x4EA JUMPI PUSH0 DUP1 REVERT JUMPDEST POP PUSH2 0x505 PUSH1 0x4 DUP1 CALLDATASIZE SUB DUP2 ADD SWAP1 PUSH2 0x500 SWAP2 SWAP1 PUSH2 0x2BFA JUMP JUMPDEST PUSH2 0x139F JUMP JUMPDEST STOP JUMPDEST CALLVALUE DUP1 ISZERO PUSH2 0x512 JUMPI PUSH0 DUP1 REVERT JUMPDEST POP PUSH2 0x51B PUSH2 0x15B6 JUMP JUMPDEST PUSH1 0x40 MLOAD PUSH2 0x528 SWAP2 SWAP1 PUSH2 0x303C JUMP JUMPDEST PUSH1 0x40 MLOAD DUP1 SWAP2 SUB SWAP1 RETURN JUMPDEST PUSH2 0x54B PUSH1 0x4 DUP1 CALLDATASIZE SUB DUP2 ADD SWAP1 PUSH2 0x546 SWAP2 SWAP1 PUSH2 0x2992 JUMP JUMPDEST PUSH2 0x15DD JUMP JUMPDEST STOP JUMPDEST CALLVALUE DUP1 ISZERO PUSH2 0x558 JUMPI PUSH0 DUP1 REVERT JUMPDEST POP PUSH2 0x573 PUSH1 0x4 DUP1 CALLDATASIZE SUB DUP2 ADD SWAP1 PUSH2 0x56E SWAP2 SWAP1 PUSH2 0x3055 JUMP JUMPDEST PUSH2 0x18B1 JUMP JUMPDEST STOP JUMPDEST CALLVALUE DUP1 ISZERO PUSH2 0x580 JUMPI PUSH0 DUP1 REVERT JUMPDEST POP PUSH2 0x589 PUSH2 0x1BD2 JUMP JUMPDEST PUSH1 0x40 MLOAD PUSH2 0x596 SWAP2 SWAP1 PUSH2 0x30EB JUMP JUMPDEST PUSH1 0x40 MLOAD DUP1 SWAP2 SUB SWAP1 RETURN JUMPDEST CALLVALUE DUP1 ISZERO PUSH2 0x5AA JUMPI PUSH0 DUP1 REVERT JUMPDEST POP PUSH2 0x5C5 PUSH1 0x4 DUP1 CALLDATASIZE SUB DUP2 ADD SWAP1 PUSH2 0x5C0 SWAP2 SWAP1 PUSH2 0x3104 JUMP JUMPDEST PUSH2 0x1BF7 JUMP JUMPDEST PUSH1 0x40 MLOAD PUSH2 0x5D2 SWAP2 SWAP1 PUSH2 0x2802 JUMP JUMPDEST PUSH1 0x40 MLOAD DUP1 SWAP2 SUB SWAP1 RETURN JUMPDEST CALLVALUE DUP1 ISZERO PUSH2 0x5E6 JUMPI PUSH0 DUP1 REVERT JUMPDEST POP PUSH2 0x5EF PUSH2 0x1C0C JUMP JUMPDEST PUSH1 0x40 MLOAD PUSH2 0x5FC SWAP2 SWAP1 PUSH2 0x2802 JUMP JUMPDEST PUSH1 0x40 MLOAD DUP1 SWAP2 SUB SWAP1 RETURN JUMPDEST CALLVALUE DUP1 ISZERO PUSH2 0x610 JUMPI PUSH0 DUP1 REVERT JUMPDEST POP PUSH2 0x62B PUSH1 0x4 DUP1 CALLDATASIZE SUB DUP2 ADD SWAP1 PUSH2 0x626 SWAP2 SWAP1 PUSH2 0x3002 JUMP JUMPDEST PUSH2 0x1C12 JUMP JUMPDEST PUSH1 0x40 MLOAD PUSH2 0x638 SWAP2 SWAP1 PUSH2 0x2802 JUMP JUMPDEST PUSH1 0x40 MLOAD DUP1 SWAP2 SUB SWAP1 RETURN JUMPDEST CALLVALUE DUP1 ISZERO PUSH2 0x64C JUMPI PUSH0 DUP1 REVERT JUMPDEST POP PUSH2 0x655 PUSH2 0x1C76 JUMP JUMPDEST PUSH1 0x40 MLOAD PUSH2 0x662 SWAP2 SWAP1 PUSH2 0x2802 JUMP JUMPDEST PUSH1 0x40 MLOAD DUP1 SWAP2 SUB SWAP1 RETURN JUMPDEST CALLVALUE DUP1 ISZERO PUSH2 0x676 JUMPI PUSH0 DUP1 REVERT JUMPDEST POP PUSH2 0x691 PUSH1 0x4 DUP1 CALLDATASIZE SUB DUP2 ADD SWAP1 PUSH2 0x68C SWAP2 SWAP1 PUSH2 0x3104 JUMP JUMPDEST PUSH2 0x1C7C JUMP JUMPDEST STOP JUMPDEST CALLVALUE DUP1 ISZERO PUSH2 0x69E JUMPI PUSH0 DUP1 REVERT JUMPDEST POP PUSH2 0x6B9 PUSH1 0x4 DUP1 CALLDATASIZE SUB DUP2 ADD SWAP1 PUSH2 0x6B4 SWAP2 SWAP1 PUSH2 0x2992 JUMP JUMPDEST PUSH2 0x1D35 JUMP JUMPDEST PUSH1 0x40 MLOAD PUSH2 0x6C7 SWAP3 SWAP2 SWAP1 PUSH2 0x2E87 JUMP JUMPDEST PUSH1 0x40 MLOAD DUP1 SWAP2 SUB SWAP1 RETURN JUMPDEST CALLVALUE DUP1 ISZERO PUSH2 0x6DB JUMPI PUSH0 DUP1 REVERT JUMPDEST POP PUSH2 0x6E4 PUSH2 0x1DD1 JUMP JUMPDEST PUSH1 0x40 MLOAD PUSH2 0x6F1 SWAP2 SWAP1 PUSH2 0x2802 JUMP JUMPDEST PUSH1 0x40 MLOAD DUP1 SWAP2 SUB SWAP1 RETURN JUMPDEST CALLVALUE DUP1 ISZERO PUSH2 0x705 JUMPI PUSH0 DUP1 REVERT JUMPDEST POP PUSH2 0x720 PUSH1 0x4 DUP1 CALLDATASIZE SUB DUP2 ADD SWAP1 PUSH2 0x71B SWAP2 SWAP1 PUSH2 0x3104 JUMP JUMPDEST PUSH2 0x1DDC JUMP JUMPDEST STOP JUMPDEST PUSH1 0x4 SLOAD DUP2 JUMP JUMPDEST PUSH0 CALLER PUSH20 0xFFFFFFFFFFFFFFFFFFFFFFFFFFFFFFFFFFFFFFFF AND ORIGIN PUSH20 0xFFFFFFFFFFFFFFFFFFFFFFFFFFFFFFFFFFFFFFFF AND EQ PUSH2 0x797 JUMPI PUSH1 0x40 MLOAD PUSH32 0x8C379A000000000000000000000000000000000000000000000000000000000 DUP2 MSTORE PUSH1 0x4 ADD PUSH2 0x78E SWAP1 PUSH2 0x3189 JUMP JUMPDEST PUSH1 0x40 MLOAD DUP1 SWAP2 SUB SWAP1 REVERT JUMPDEST PUSH0 PUSH2 0x7A1 DUP5 PUSH2 0xE3B JUMP JUMPDEST SWAP1 POP TIMESTAMP PUSH1 0x8 DUP3 PUSH1 0x40 MLOAD PUSH2 0x7B4 SWAP2 SWAP1 PUSH2 0x31E1 JUMP JUMPDEST SWAP1 DUP2 MSTORE PUSH1 0x20 ADD PUSH1 0x40 MLOAD DUP1 SWAP2 SUB SWAP1 KECCAK256 PUSH1 0x1 ADD SLOAD LT ISZERO PUSH2 0x807 JUMPI PUSH1 0x40 MLOAD PUSH32 0x8C379A000000000000000000000000000000000000000000000000000000000 DUP2 MSTORE PUSH1 0x4 ADD PUSH2 0x7FE SWAP1 PUSH2 0x3241 JUMP JUMPDEST PUSH1 0x40 MLOAD DUP1 SWAP2 SUB SWAP1 REVERT JUMPDEST PUSH0 DUP4 GT PUSH2 0x849 JUMPI PUSH1 0x40 MLOAD PUSH32 0x8C379A000000000000000000000000000000000000000000000000000000000 DUP2 MSTORE PUSH1 0x4 ADD PUSH2 0x840 SWAP1 PUSH2 0x32A9 JUMP JUMPDEST PUSH1 0x40 MLOAD DUP1 SWAP2 SUB SWAP1 REVERT JUMPDEST CALLVALUE PUSH2 0x87D PUSH7 0x38D7EA4C68000 PUSH2 0x86F PUSH7 0x2386F26FC10000 DUP8 PUSH2 0x1E60 SWAP1 SWAP2 SWAP1 PUSH4 0xFFFFFFFF AND JUMP JUMPDEST PUSH2 0x1E75 SWAP1 SWAP2 SWAP1 PUSH4 0xFFFFFFFF AND JUMP JUMPDEST LT ISZERO PUSH2 0x8BE JUMPI PUSH1 0x40 MLOAD PUSH32 0x8C379A000000000000000000000000000000000000000000000000000000000 DUP2 MSTORE PUSH1 0x4 ADD PUSH2 0x8B5 SWAP1 PUSH2 0x3311 JUMP JUMPDEST PUSH1 0x40 MLOAD DUP1 SWAP2 SUB SWAP1 REVERT JUMPDEST PUSH1 0x9 DUP2 PUSH1 0x40 MLOAD PUSH2 0x8CE SWAP2 SWAP1 PUSH2 0x31E1 JUMP JUMPDEST SWAP1 DUP2 MSTORE PUSH1 0x20 ADD PUSH1 0x40 MLOAD DUP1 SWAP2 SUB SWAP1 KECCAK256 PUSH1 0x40 MLOAD DUP1 PUSH1 0x60 ADD PUSH1 0x40 MSTORE DUP1 DUP6 DUP2 MSTORE PUSH1 0x20 ADD CALLER PUSH20 0xFFFFFFFFFFFFFFFFFFFFFFFFFFFFFFFFFFFFFFFF AND DUP2 MSTORE PUSH1 0x20 ADD PUSH0 ISZERO ISZERO DUP2 MSTORE POP SWAP1 DUP1 PUSH1 0x1 DUP2 SLOAD ADD DUP1 DUP3 SSTORE DUP1 SWAP2 POP POP PUSH1 0x1 SWAP1 SUB SWAP1 PUSH0 MSTORE PUSH1 0x20 PUSH0 KECCAK256 SWAP1 PUSH1 0x2 MUL ADD PUSH0 SWAP1 SWAP2 SWAP1 SWAP2 SWAP1 SWAP2 POP PUSH0 DUP3 ADD MLOAD DUP2 PUSH0 ADD SSTORE PUSH1 0x20 DUP3 ADD MLOAD DUP2 PUSH1 0x1 ADD PUSH0 PUSH2 0x100 EXP DUP2 SLOAD DUP2 PUSH20 0xFFFFFFFFFFFFFFFFFFFFFFFFFFFFFFFFFFFFFFFF MUL NOT AND SWAP1 DUP4 PUSH20 0xFFFFFFFFFFFFFFFFFFFFFFFFFFFFFFFFFFFFFFFF AND MUL OR SWAP1 SSTORE POP PUSH1 0x40 DUP3 ADD MLOAD DUP2 PUSH1 0x1 ADD PUSH1 0x14 PUSH2 0x100 EXP DUP2 SLOAD DUP2 PUSH1 0xFF MUL NOT AND SWAP1 DUP4 ISZERO ISZERO MUL OR SWAP1 SSTORE POP POP POP PUSH2 0x9D9 DUP4 PUSH1 0x8 DUP4 PUSH1 0x40 MLOAD PUSH2 0x9B9 SWAP2 SWAP1 PUSH2 0x31E1 JUMP JUMPDEST SWAP1 DUP2 MSTORE PUSH1 0x20 ADD PUSH1 0x40 MLOAD DUP1 SWAP2 SUB SWAP1 KECCAK256 PUSH1 0x2 ADD SLOAD PUSH2 0x1E75 SWAP1 SWAP2 SWAP1 PUSH4 0xFFFFFFFF AND JUMP JUMPDEST PUSH1 0x8 DUP3 PUSH1 0x40 MLOAD PUSH2 0x9E9 SWAP2 SWAP1 PUSH2 0x31E1 JUMP JUMPDEST SWAP1 DUP2 MSTORE PUSH1 0x20 ADD PUSH1 0x40 MLOAD DUP1 SWAP2 SUB SWAP1 KECCAK256 PUSH1 0x2 ADD DUP2 SWAP1 SSTORE POP CALLER PUSH20 0xFFFFFFFFFFFFFFFFFFFFFFFFFFFFFFFFFFFFFFFF AND PUSH32 0xDAC6F59B977DAFBCA4DA6315B0731C34083E85EAF92766691C987A5AB4468AEA DUP6 PUSH2 0xA6C PUSH1 0x1 PUSH1 0x9 DUP7 PUSH1 0x40 MLOAD PUSH2 0xA4C SWAP2 SWAP1 PUSH2 0x31E1 JUMP JUMPDEST SWAP1 DUP2 MSTORE PUSH1 0x20 ADD PUSH1 0x40 MLOAD DUP1 SWAP2 SUB SWAP1 KECCAK256 DUP1 SLOAD SWAP1 POP PUSH2 0x1E8A SWAP1 SWAP2 SWAP1 PUSH4 0xFFFFFFFF AND JUMP JUMPDEST DUP7 PUSH1 0x40 MLOAD PUSH2 0xA7C SWAP4 SWAP3 SWAP2 SWAP1 PUSH2 0x3371 JUMP JUMPDEST PUSH1 0x40 MLOAD DUP1 SWAP2 SUB SWAP1 LOG2 PUSH1 0x1 SWAP2 POP POP SWAP3 SWAP2 POP POP JUMP JUMPDEST PUSH2 0xA97 PUSH2 0x1E9F JUMP JUMPDEST PUSH0 PUSH2 0xAA1 DUP4 PUSH2 0xE3B JUMP JUMPDEST SWAP1 POP PUSH0 PUSH1 0x9 DUP3 PUSH1 0x40 MLOAD PUSH2 0xAB4 SWAP2 SWAP1 PUSH2 0x31E1 JUMP JUMPDEST SWAP1 DUP2 MSTORE PUSH1 0x20 ADD PUSH1 0x40 MLOAD DUP1 SWAP2 SUB SWAP1 KECCAK256 SWAP1 POP DUP3 MLOAD DUP2 DUP1 SLOAD SWAP1 POP LT PUSH2 0xDE2 JUMPI PUSH0 JUMPDEST DUP4 MLOAD DUP2 LT ISZERO PUSH2 0xDE0 JUMPI PUSH0 DUP5 DUP3 DUP2 MLOAD DUP2 LT PUSH2 0xAEF JUMPI PUSH2 0xAEE PUSH2 0x33AD JUMP JUMPDEST JUMPDEST PUSH1 0x20 MUL PUSH1 0x20 ADD ADD MLOAD SWAP1 POP PUSH0 DUP4 DUP3 PUSH0 ADD MLOAD DUP2 SLOAD DUP2 LT PUSH2 0xB10 JUMPI PUSH2 0xB0F PUSH2 0x33AD JUMP JUMPDEST JUMPDEST SWAP1 PUSH0 MSTORE PUSH1 0x20 PUSH0 KECCAK256 SWAP1 PUSH1 0x2 MUL ADD SWAP1 POP PUSH0 DUP3 PUSH1 0x20 ADD MLOAD GT DUP1 ISZERO PUSH2 0xB40 JUMPI POP DUP1 PUSH1 0x1 ADD PUSH1 0x14 SWAP1 SLOAD SWAP1 PUSH2 0x100 EXP SWAP1 DIV PUSH1 0xFF AND ISZERO JUMPDEST ISZERO PUSH2 0xCCA JUMPI DUP1 PUSH0 ADD SLOAD DUP3 PUSH1 0x20 ADD MLOAD GT ISZERO PUSH2 0xB8F JUMPI PUSH1 0x40 MLOAD PUSH32 0x8C379A000000000000000000000000000000000000000000000000000000000 DUP2 MSTORE PUSH1 0x4 ADD PUSH2 0xB86 SWAP1 PUSH2 0x3424 JUMP JUMPDEST PUSH1 0x40 MLOAD DUP1 SWAP2 SUB SWAP1 REVERT JUMPDEST PUSH1 0x1 DUP2 PUSH1 0x1 ADD PUSH1 0x14 PUSH2 0x100 EXP DUP2 SLOAD DUP2 PUSH1 0xFF MUL NOT AND SWAP1 DUP4 ISZERO ISZERO MUL OR SWAP1 SSTORE POP PUSH2 0xC3F DUP3 PUSH1 0x20 ADD MLOAD PUSH1 0x7 DUP8 PUSH1 0x40 MLOAD PUSH2 0xBC4 SWAP2 SWAP1 PUSH2 0x31E1 JUMP JUMPDEST SWAP1 DUP2 MSTORE PUSH1 0x20 ADD PUSH1 0x40 MLOAD DUP1 SWAP2 SUB SWAP1 KECCAK256 PUSH0 DUP5 PUSH1 0x1 ADD PUSH0 SWAP1 SLOAD SWAP1 PUSH2 0x100 EXP SWAP1 DIV PUSH20 0xFFFFFFFFFFFFFFFFFFFFFFFFFFFFFFFFFFFFFFFF AND PUSH20 0xFFFFFFFFFFFFFFFFFFFFFFFFFFFFFFFFFFFFFFFF AND PUSH20 0xFFFFFFFFFFFFFFFFFFFFFFFFFFFFFFFFFFFFFFFF AND DUP2 MSTORE PUSH1 0x20 ADD SWAP1 DUP2 MSTORE PUSH1 0x20 ADD PUSH0 KECCAK256 SLOAD PUSH2 0x1E75 SWAP1 SWAP2 SWAP1 PUSH4 0xFFFFFFFF AND JUMP JUMPDEST PUSH1 0x7 DUP7 PUSH1 0x40 MLOAD PUSH2 0xC4F SWAP2 SWAP1 PUSH2 0x31E1 JUMP JUMPDEST SWAP1 DUP2 MSTORE PUSH1 0x20 ADD PUSH1 0x40 MLOAD DUP1 SWAP2 SUB SWAP1 KECCAK256 PUSH0 DUP4 PUSH1 0x1 ADD PUSH0 SWAP1 SLOAD SWAP1 PUSH2 0x100 EXP SWAP1 DIV PUSH20 0xFFFFFFFFFFFFFFFFFFFFFFFFFFFFFFFFFFFFFFFF AND PUSH20 0xFFFFFFFFFFFFFFFFFFFFFFFFFFFFFFFFFFFFFFFF AND PUSH20 0xFFFFFFFFFFFFFFFFFFFFFFFFFFFFFFFFFFFFFFFF AND DUP2 MSTORE PUSH1 0x20 ADD SWAP1 DUP2 MSTORE PUSH1 0x20 ADD PUSH0 KECCAK256 DUP2 SWAP1 SSTORE POP PUSH2 0xCC9 DUP6 CALLER PUSH2 0x1F26 JUMP JUMPDEST JUMPDEST DUP2 PUSH1 0x20 ADD MLOAD DUP2 PUSH0 ADD SLOAD GT ISZERO PUSH2 0xD78 JUMPI PUSH0 PUSH2 0xD0D PUSH7 0x2386F26FC10000 PUSH2 0xCFF DUP6 PUSH1 0x20 ADD MLOAD DUP6 PUSH0 ADD SLOAD PUSH2 0x1E8A SWAP1 SWAP2 SWAP1 PUSH4 0xFFFFFFFF AND JUMP JUMPDEST PUSH2 0x1E60 SWAP1 SWAP2 SWAP1 PUSH4 0xFFFFFFFF AND JUMP JUMPDEST SWAP1 POP DUP2 PUSH1 0x1 ADD PUSH0 SWAP1 SLOAD SWAP1 PUSH2 0x100 EXP SWAP1 DIV PUSH20 0xFFFFFFFFFFFFFFFFFFFFFFFFFFFFFFFFFFFFFFFF AND PUSH20 0xFFFFFFFFFFFFFFFFFFFFFFFFFFFFFFFFFFFFFFFF AND PUSH2 0x8FC DUP3 SWAP1 DUP2 ISZERO MUL SWAP1 PUSH1 0x40 MLOAD PUSH0 PUSH1 0x40 MLOAD DUP1 DUP4 SUB DUP2 DUP6 DUP9 DUP9 CALL SWAP4 POP POP POP POP ISZERO DUP1 ISZERO PUSH2 0xD75 JUMPI RETURNDATASIZE PUSH0 DUP1 RETURNDATACOPY RETURNDATASIZE PUSH0 REVERT JUMPDEST POP POP JUMPDEST CALLER PUSH20 0xFFFFFFFFFFFFFFFFFFFFFFFFFFFFFFFFFFFFFFFF AND PUSH32 0x53FAE72DA401D34993DE5CB88D89B61921D9EA03B01CF315DCCB1F628547D05E DUP9 DUP5 PUSH0 ADD MLOAD PUSH1 0x40 MLOAD PUSH2 0xDC3 SWAP3 SWAP2 SWAP1 PUSH2 0x3442 JUMP JUMPDEST PUSH1 0x40 MLOAD DUP1 SWAP2 SUB SWAP1 LOG2 POP POP DUP1 DUP1 PUSH2 0xDD8 SWAP1 PUSH2 0x349D JUMP JUMPDEST SWAP2 POP POP PUSH2 0xAD2 JUMP JUMPDEST POP JUMPDEST POP POP POP POP JUMP JUMPDEST PUSH2 0xDF0 PUSH2 0x1E9F JUMP JUMPDEST DUP3 PUSH1 0x2 DUP2 SWAP1 SSTORE POP DUP2 PUSH1 0x3 DUP2 SWAP1 SSTORE POP DUP1 PUSH1 0x4 DUP2 SWAP1 SSTORE POP PUSH2 0xE30 PUSH1 0x4 SLOAD PUSH2 0xE22 PUSH1 0x3 SLOAD PUSH1 0x2 SLOAD PUSH2 0x1E75 SWAP1 SWAP2 SWAP1 PUSH4 0xFFFFFFFF AND JUMP JUMPDEST PUSH2 0x1E75 SWAP1 SWAP2 SWAP1 PUSH4 0xFFFFFFFF AND JUMP JUMPDEST PUSH1 0x1 DUP2 SWAP1 SSTORE POP POP POP POP JUMP JUMPDEST PUSH1 0x60 PUSH0 DUP3 SWAP1 POP PUSH1 0x20 DUP2 MLOAD GT ISZERO PUSH2 0xE86 JUMPI PUSH1 0x40 MLOAD PUSH32 0x8C379A000000000000000000000000000000000000000000000000000000000 DUP2 MSTORE PUSH1 0x4 ADD PUSH2 0xE7D SWAP1 PUSH2 0x3554 JUMP JUMPDEST PUSH1 0x40 MLOAD DUP1 SWAP2 SUB SWAP1 REVERT JUMPDEST DUP1 SWAP2 POP POP SWAP2 SWAP1 POP JUMP JUMPDEST PUSH1 0x7 DUP3 DUP1 MLOAD PUSH1 0x20 DUP2 ADD DUP3 ADD DUP1 MLOAD DUP5 DUP3 MSTORE PUSH1 0x20 DUP4 ADD PUSH1 0x20 DUP6 ADD KECCAK256 DUP2 DUP4 MSTORE DUP1 SWAP6 POP POP POP POP POP POP PUSH1 0x20 MSTORE DUP1 PUSH0 MSTORE PUSH1 0x40 PUSH0 KECCAK256 PUSH0 SWAP2 POP SWAP2 POP POP SLOAD DUP2 JUMP JUMPDEST CALLER PUSH20 0xFFFFFFFFFFFFFFFFFFFFFFFFFFFFFFFFFFFFFFFF AND ORIGIN PUSH20 0xFFFFFFFFFFFFFFFFFFFFFFFFFFFFFFFFFFFFFFFF AND EQ PUSH2 0xF35 JUMPI PUSH1 0x40 MLOAD PUSH32 0x8C379A000000000000000000000000000000000000000000000000000000000 DUP2 MSTORE PUSH1 0x4 ADD PUSH2 0xF2C SWAP1 PUSH2 0x3189 JUMP JUMPDEST PUSH1 0x40 MLOAD DUP1 SWAP2 SUB SWAP1 REVERT JUMPDEST PUSH0 DUP2 GT PUSH2 0xF77 JUMPI PUSH1 0x40 MLOAD PUSH32 0x8C379A000000000000000000000000000000000000000000000000000000000 DUP2 MSTORE PUSH1 0x4 ADD PUSH2 0xF6E SWAP1 PUSH2 0x35BC JUMP JUMPDEST PUSH1 0x40 MLOAD DUP1 SWAP2 SUB SWAP1 REVERT JUMPDEST PUSH0 PUSH2 0xF81 DUP4 PUSH2 0xE3B JUMP JUMPDEST SWAP1 POP DUP2 PUSH1 0x7 DUP3 PUSH1 0x40 MLOAD PUSH2 0xF94 SWAP2 SWAP1 PUSH2 0x31E1 JUMP JUMPDEST SWAP1 DUP2 MSTORE PUSH1 0x20 ADD PUSH1 0x40 MLOAD DUP1 SWAP2 SUB SWAP1 KECCAK256 PUSH0 CALLER PUSH20 0xFFFFFFFFFFFFFFFFFFFFFFFFFFFFFFFFFFFFFFFF AND PUSH20 0xFFFFFFFFFFFFFFFFFFFFFFFFFFFFFFFFFFFFFFFF AND DUP2 MSTORE PUSH1 0x20 ADD SWAP1 DUP2 MSTORE PUSH1 0x20 ADD PUSH0 KECCAK256 SLOAD LT ISZERO PUSH2 0x101F JUMPI PUSH1 0x40 MLOAD PUSH32 0x8C379A000000000000000000000000000000000000000000000000000000000 DUP2 MSTORE PUSH1 0x4 ADD PUSH2 0x1016 SWAP1 PUSH2 0x3624 JUMP JUMPDEST PUSH1 0x40 MLOAD DUP1 SWAP2 SUB SWAP1 REVERT JUMPDEST PUSH0 DUP1 PUSH2 0x102B DUP4 DUP6 PUSH2 0x20BE JUMP JUMPDEST SWAP2 POP SWAP2 POP PUSH2 0x109B DUP5 PUSH1 0x7 DUP6 PUSH1 0x40 MLOAD PUSH2 0x1043 SWAP2 SWAP1 PUSH2 0x31E1 JUMP JUMPDEST SWAP1 DUP2 MSTORE PUSH1 0x20 ADD PUSH1 0x40 MLOAD DUP1 SWAP2 SUB SWAP1 KECCAK256 PUSH0 CALLER PUSH20 0xFFFFFFFFFFFFFFFFFFFFFFFFFFFFFFFFFFFFFFFF AND PUSH20 0xFFFFFFFFFFFFFFFFFFFFFFFFFFFFFFFFFFFFFFFF AND DUP2 MSTORE PUSH1 0x20 ADD SWAP1 DUP2 MSTORE PUSH1 0x20 ADD PUSH0 KECCAK256 SLOAD PUSH2 0x1E8A SWAP1 SWAP2 SWAP1 PUSH4 0xFFFFFFFF AND JUMP JUMPDEST PUSH1 0x7 DUP5 PUSH1 0x40 MLOAD PUSH2 0x10AB SWAP2 SWAP1 PUSH2 0x31E1 JUMP JUMPDEST SWAP1 DUP2 MSTORE PUSH1 0x20 ADD PUSH1 0x40 MLOAD DUP1 SWAP2 SUB SWAP1 KECCAK256 PUSH0 CALLER PUSH20 0xFFFFFFFFFFFFFFFFFFFFFFFFFFFFFFFFFFFFFFFF AND PUSH20 0xFFFFFFFFFFFFFFFFFFFFFFFFFFFFFFFFFFFFFFFF AND DUP2 MSTORE PUSH1 0x20 ADD SWAP1 DUP2 MSTORE PUSH1 0x20 ADD PUSH0 KECCAK256 DUP2 SWAP1 SSTORE POP CALLER PUSH20 0xFFFFFFFFFFFFFFFFFFFFFFFFFFFFFFFFFFFFFFFF AND PUSH2 0x8FC PUSH2 0x1125 DUP4 DUP6 PUSH2 0x1E8A SWAP1 SWAP2 SWAP1 PUSH4 0xFFFFFFFF AND JUMP JUMPDEST SWAP1 DUP2 ISZERO MUL SWAP1 PUSH1 0x40 MLOAD PUSH0 PUSH1 0x40 MLOAD DUP1 DUP4 SUB DUP2 DUP6 DUP9 DUP9 CALL SWAP4 POP POP POP POP ISZERO DUP1 ISZERO PUSH2 0x114D JUMPI RETURNDATASIZE PUSH0 DUP1 RETURNDATACOPY RETURNDATASIZE PUSH0 REVERT JUMPDEST POP CALLER PUSH20 0xFFFFFFFFFFFFFFFFFFFFFFFFFFFFFFFFFFFFFFFF AND PUSH32 0xCF59E98E3586000B5AA777C573F007017DC33D0E7AEDC7FBDE92CC1CE233F20C DUP7 DUP5 DUP5 PUSH1 0x1 DUP10 PUSH1 0x40 MLOAD PUSH2 0x119D SWAP6 SWAP5 SWAP4 SWAP3 SWAP2 SWAP1 PUSH2 0x36B5 JUMP JUMPDEST PUSH1 0x40 MLOAD DUP1 SWAP2 SUB SWAP1 LOG2 POP POP POP POP POP JUMP JUMPDEST PUSH0 PUSH1 0x7 PUSH2 0x11B8 DUP5 PUSH2 0xE3B JUMP JUMPDEST PUSH1 0x40 MLOAD PUSH2 0x11C5 SWAP2 SWAP1 PUSH2 0x31E1 JUMP JUMPDEST SWAP1 DUP2 MSTORE PUSH1 0x20 ADD PUSH1 0x40 MLOAD DUP1 SWAP2 SUB SWAP1 KECCAK256 PUSH0 DUP4 PUSH20 0xFFFFFFFFFFFFFFFFFFFFFFFFFFFFFFFFFFFFFFFF AND PUSH20 0xFFFFFFFFFFFFFFFFFFFFFFFFFFFFFFFFFFFFFFFF AND DUP2 MSTORE PUSH1 0x20 ADD SWAP1 DUP2 MSTORE PUSH1 0x20 ADD PUSH0 KECCAK256 SLOAD SWAP1 POP SWAP3 SWAP2 POP POP JUMP JUMPDEST PUSH1 0x3 SLOAD DUP2 JUMP JUMPDEST PUSH7 0x2386F26FC10000 DUP2 JUMP JUMPDEST PUSH0 DUP1 CALLER PUSH20 0xFFFFFFFFFFFFFFFFFFFFFFFFFFFFFFFFFFFFFFFF AND ORIGIN PUSH20 0xFFFFFFFFFFFFFFFFFFFFFFFFFFFFFFFFFFFFFFFF AND EQ PUSH2 0x1298 JUMPI PUSH1 0x40 MLOAD PUSH32 0x8C379A000000000000000000000000000000000000000000000000000000000 DUP2 MSTORE PUSH1 0x4 ADD PUSH2 0x128F SWAP1 PUSH2 0x3189 JUMP JUMPDEST PUSH1 0x40 MLOAD DUP1 SWAP2 SUB SWAP1 REVERT JUMPDEST PUSH0 PUSH2 0x12A2 DUP6 PUSH2 0xE3B JUMP JUMPDEST SWAP1 POP PUSH0 DUP1 PUSH2 0x12B0 DUP4 DUP8 PUSH2 0x20BE JUMP JUMPDEST SWAP2 POP SWAP2 POP DUP2 DUP2 SWAP5 POP SWAP5 POP POP POP POP SWAP3 POP SWAP3 SWAP1 POP JUMP JUMPDEST PUSH1 0x64 DUP2 JUMP JUMPDEST PUSH2 0x12D1 PUSH2 0x1E9F JUMP JUMPDEST PUSH0 JUMPDEST DUP2 MLOAD DUP2 LT ISZERO PUSH2 0x1347 JUMPI PUSH0 DUP3 DUP3 DUP2 MLOAD DUP2 LT PUSH2 0x12F0 JUMPI PUSH2 0x12EF PUSH2 0x33AD JUMP JUMPDEST JUMPDEST PUSH1 0x20 MUL PUSH1 0x20 ADD ADD MLOAD SWAP1 POP PUSH1 0x64 DUP2 PUSH0 ADD MLOAD GT DUP1 ISZERO PUSH2 0x1310 JUMPI POP PUSH0 DUP2 PUSH1 0x20 ADD MLOAD GT JUMPDEST ISZERO PUSH2 0x1333 JUMPI DUP1 PUSH1 0x20 ADD MLOAD PUSH1 0xA PUSH0 DUP4 PUSH0 ADD MLOAD DUP2 MSTORE PUSH1 0x20 ADD SWAP1 DUP2 MSTORE PUSH1 0x20 ADD PUSH0 KECCAK256 DUP2 SWAP1 SSTORE POP JUMPDEST POP DUP1 DUP1 PUSH2 0x133F SWAP1 PUSH2 0x349D JUMP JUMPDEST SWAP2 POP POP PUSH2 0x12D3 JUMP JUMPDEST POP POP JUMP JUMPDEST PUSH1 0xA PUSH1 0x20 MSTORE DUP1 PUSH0 MSTORE PUSH1 0x40 PUSH0 KECCAK256 PUSH0 SWAP2 POP SWAP1 POP SLOAD DUP2 JUMP JUMPDEST PUSH2 0x1368 PUSH2 0x1E9F JUMP JUMPDEST PUSH2 0x1371 PUSH0 PUSH2 0x2291 JUMP JUMPDEST JUMP JUMPDEST PUSH1 0x6 PUSH0 SWAP1 SLOAD SWAP1 PUSH2 0x100 EXP SWAP1 DIV PUSH20 0xFFFFFFFFFFFFFFFFFFFFFFFFFFFFFFFFFFFFFFFF AND DUP2 JUMP JUMPDEST PUSH3 0x2A300 DUP2 JUMP JUMPDEST CALLER PUSH20 0xFFFFFFFFFFFFFFFFFFFFFFFFFFFFFFFFFFFFFFFF AND ORIGIN PUSH20 0xFFFFFFFFFFFFFFFFFFFFFFFFFFFFFFFFFFFFFFFF AND EQ PUSH2 0x140D JUMPI PUSH1 0x40 MLOAD PUSH32 0x8C379A000000000000000000000000000000000000000000000000000000000 DUP2 MSTORE PUSH1 0x4 ADD PUSH2 0x1404 SWAP1 PUSH2 0x3189 JUMP JUMPDEST PUSH1 0x40 MLOAD DUP1 SWAP2 SUB SWAP1 REVERT JUMPDEST PUSH0 PUSH2 0x1417 DUP3 PUSH2 0xE3B JUMP JUMPDEST SWAP1 POP PUSH0 PUSH1 0xB DUP3 PUSH1 0x40 MLOAD PUSH2 0x142A SWAP2 SWAP1 PUSH2 0x31E1 JUMP JUMPDEST SWAP1 DUP2 MSTORE PUSH1 0x20 ADD PUSH1 0x40 MLOAD DUP1 SWAP2 SUB SWAP1 KECCAK256 PUSH1 0x2 ADD PUSH0 CALLER PUSH20 0xFFFFFFFFFFFFFFFFFFFFFFFFFFFFFFFFFFFFFFFF AND PUSH20 0xFFFFFFFFFFFFFFFFFFFFFFFFFFFFFFFFFFFFFFFF AND DUP2 MSTORE PUSH1 0x20 ADD SWAP1 DUP2 MSTORE PUSH1 0x20 ADD PUSH0 KECCAK256 SLOAD SWAP1 POP PUSH0 DUP2 LT ISZERO PUSH2 0x14BC JUMPI PUSH1 0x40 MLOAD PUSH32 0x8C379A000000000000000000000000000000000000000000000000000000000 DUP2 MSTORE PUSH1 0x4 ADD PUSH2 0x14B3 SWAP1 PUSH2 0x3757 JUMP JUMPDEST PUSH1 0x40 MLOAD DUP1 SWAP2 SUB SWAP1 REVERT JUMPDEST PUSH0 PUSH1 0xB DUP4 PUSH1 0x40 MLOAD PUSH2 0x14CD SWAP2 SWAP1 PUSH2 0x31E1 JUMP JUMPDEST SWAP1 DUP2 MSTORE PUSH1 0x20 ADD PUSH1 0x40 MLOAD DUP1 SWAP2 SUB SWAP1 KECCAK256 PUSH1 0x2 ADD PUSH0 CALLER PUSH20 0xFFFFFFFFFFFFFFFFFFFFFFFFFFFFFFFFFFFFFFFF AND PUSH20 0xFFFFFFFFFFFFFFFFFFFFFFFFFFFFFFFFFFFFFFFF AND DUP2 MSTORE PUSH1 0x20 ADD SWAP1 DUP2 MSTORE PUSH1 0x20 ADD PUSH0 KECCAK256 DUP2 SWAP1 SSTORE POP CALLER PUSH20 0xFFFFFFFFFFFFFFFFFFFFFFFFFFFFFFFFFFFFFFFF AND PUSH2 0x8FC DUP3 SWAP1 DUP2 ISZERO MUL SWAP1 PUSH1 0x40 MLOAD PUSH0 PUSH1 0x40 MLOAD DUP1 DUP4 SUB DUP2 DUP6 DUP9 DUP9 CALL SWAP4 POP POP POP POP ISZERO DUP1 ISZERO PUSH2 0x1560 JUMPI RETURNDATASIZE PUSH0 DUP1 RETURNDATACOPY RETURNDATASIZE PUSH0 REVERT JUMPDEST POP CALLER PUSH20 0xFFFFFFFFFFFFFFFFFFFFFFFFFFFFFFFFFFFFFFFF AND PUSH32 0x26D73E0951876A99AA7C7D086FCCB9E7068F2D9F938EDC04F8A3C8006222ED30 DUP5 DUP4 PUSH1 0x40 MLOAD PUSH2 0x15A9 SWAP3 SWAP2 SWAP1 PUSH2 0x3442 JUMP JUMPDEST PUSH1 0x40 MLOAD DUP1 SWAP2 SUB SWAP1 LOG2 POP POP POP JUMP JUMPDEST PUSH0 DUP1 PUSH0 SWAP1 SLOAD SWAP1 PUSH2 0x100 EXP SWAP1 DIV PUSH20 0xFFFFFFFFFFFFFFFFFFFFFFFFFFFFFFFFFFFFFFFF AND SWAP1 POP SWAP1 JUMP JUMPDEST CALLER PUSH20 0xFFFFFFFFFFFFFFFFFFFFFFFFFFFFFFFFFFFFFFFF AND ORIGIN PUSH20 0xFFFFFFFFFFFFFFFFFFFFFFFFFFFFFFFFFFFFFFFF AND EQ PUSH2 0x164B JUMPI PUSH1 0x40 MLOAD PUSH32 0x8C379A000000000000000000000000000000000000000000000000000000000 DUP2 MSTORE PUSH1 0x4 ADD PUSH2 0x1642 SWAP1 PUSH2 0x3189 JUMP JUMPDEST PUSH1 0x40 MLOAD DUP1 SWAP2 SUB SWAP1 REVERT JUMPDEST PUSH0 DUP2 GT PUSH2 0x168D JUMPI PUSH1 0x40 MLOAD PUSH32 0x8C379A000000000000000000000000000000000000000000000000000000000 DUP2 MSTORE PUSH1 0x4 ADD PUSH2 0x1684 SWAP1 PUSH2 0x35BC JUMP JUMPDEST PUSH1 0x40 MLOAD DUP1 SWAP2 SUB SWAP1 REVERT JUMPDEST PUSH0 PUSH2 0x1697 DUP4 PUSH2 0xE3B JUMP JUMPDEST SWAP1 POP PUSH0 DUP1 PUSH2 0x16A5 DUP4 DUP6 PUSH2 0x2352 JUMP JUMPDEST SWAP2 POP SWAP2 POP PUSH2 0x16BC DUP2 DUP4 PUSH2 0x1E75 SWAP1 SWAP2 SWAP1 PUSH4 0xFFFFFFFF AND JUMP JUMPDEST CALLVALUE LT ISZERO PUSH2 0x16FE JUMPI PUSH1 0x40 MLOAD PUSH32 0x8C379A000000000000000000000000000000000000000000000000000000000 DUP2 MSTORE PUSH1 0x4 ADD PUSH2 0x16F5 SWAP1 PUSH2 0x37BF JUMP JUMPDEST PUSH1 0x40 MLOAD DUP1 SWAP2 SUB SWAP1 REVERT JUMPDEST PUSH2 0x1711 DUP2 DUP4 PUSH2 0x1E75 SWAP1 SWAP2 SWAP1 PUSH4 0xFFFFFFFF AND JUMP JUMPDEST CALLVALUE GT ISZERO PUSH2 0x1781 JUMPI CALLER PUSH20 0xFFFFFFFFFFFFFFFFFFFFFFFFFFFFFFFFFFFFFFFF AND PUSH2 0x8FC PUSH2 0x1757 PUSH2 0x1748 DUP5 DUP7 PUSH2 0x1E75 SWAP1 SWAP2 SWAP1 PUSH4 0xFFFFFFFF AND JUMP JUMPDEST CALLVALUE PUSH2 0x1E8A SWAP1 SWAP2 SWAP1 PUSH4 0xFFFFFFFF AND JUMP JUMPDEST SWAP1 DUP2 ISZERO MUL SWAP1 PUSH1 0x40 MLOAD PUSH0 PUSH1 0x40 MLOAD DUP1 DUP4 SUB DUP2 DUP6 DUP9 DUP9 CALL SWAP4 POP POP POP POP ISZERO DUP1 ISZERO PUSH2 0x177F JUMPI RETURNDATASIZE PUSH0 DUP1 RETURNDATACOPY RETURNDATASIZE PUSH0 REVERT JUMPDEST POP JUMPDEST PUSH2 0x178B DUP4 CALLER PUSH2 0x1F26 JUMP JUMPDEST PUSH2 0x17F7 DUP5 PUSH1 0x7 DUP6 PUSH1 0x40 MLOAD PUSH2 0x179F SWAP2 SWAP1 PUSH2 0x31E1 JUMP JUMPDEST SWAP1 DUP2 MSTORE PUSH1 0x20 ADD PUSH1 0x40 MLOAD DUP1 SWAP2 SUB SWAP1 KECCAK256 PUSH0 CALLER PUSH20 0xFFFFFFFFFFFFFFFFFFFFFFFFFFFFFFFFFFFFFFFF AND PUSH20 0xFFFFFFFFFFFFFFFFFFFFFFFFFFFFFFFFFFFFFFFF AND DUP2 MSTORE PUSH1 0x20 ADD SWAP1 DUP2 MSTORE PUSH1 0x20 ADD PUSH0 KECCAK256 SLOAD PUSH2 0x1E75 SWAP1 SWAP2 SWAP1 PUSH4 0xFFFFFFFF AND JUMP JUMPDEST PUSH1 0x7 DUP5 PUSH1 0x40 MLOAD PUSH2 0x1807 SWAP2 SWAP1 PUSH2 0x31E1 JUMP JUMPDEST SWAP1 DUP2 MSTORE PUSH1 0x20 ADD PUSH1 0x40 MLOAD DUP1 SWAP2 SUB SWAP1 KECCAK256 PUSH0 CALLER PUSH20 0xFFFFFFFFFFFFFFFFFFFFFFFFFFFFFFFFFFFFFFFF AND PUSH20 0xFFFFFFFFFFFFFFFFFFFFFFFFFFFFFFFFFFFFFFFF AND DUP2 MSTORE PUSH1 0x20 ADD SWAP1 DUP2 MSTORE PUSH1 0x20 ADD PUSH0 KECCAK256 DUP2 SWAP1 SSTORE POP CALLER PUSH20 0xFFFFFFFFFFFFFFFFFFFFFFFFFFFFFFFFFFFFFFFF AND PUSH32 0xCF59E98E3586000B5AA777C573F007017DC33D0E7AEDC7FBDE92CC1CE233F20C DUP7 DUP5 DUP5 PUSH0 DUP10 PUSH1 0x40 MLOAD PUSH2 0x18A2 SWAP6 SWAP5 SWAP4 SWAP3 SWAP2 SWAP1 PUSH2 0x36B5 JUMP JUMPDEST PUSH1 0x40 MLOAD DUP1 SWAP2 SUB SWAP1 LOG2 POP POP POP POP POP JUMP JUMPDEST CALLER PUSH20 0xFFFFFFFFFFFFFFFFFFFFFFFFFFFFFFFFFFFFFFFF AND ORIGIN PUSH20 0xFFFFFFFFFFFFFFFFFFFFFFFFFFFFFFFFFFFFFFFF AND EQ PUSH2 0x191F JUMPI PUSH1 0x40 MLOAD PUSH32 0x8C379A000000000000000000000000000000000000000000000000000000000 DUP2 MSTORE PUSH1 0x4 ADD PUSH2 0x1916 SWAP1 PUSH2 0x3189 JUMP JUMPDEST PUSH1 0x40 MLOAD DUP1 SWAP2 SUB SWAP1 REVERT JUMPDEST PUSH0 PUSH2 0x1929 DUP4 PUSH2 0xE3B JUMP JUMPDEST SWAP1 POP PUSH0 PUSH1 0x8 DUP3 PUSH1 0x40 MLOAD PUSH2 0x193C SWAP2 SWAP1 PUSH2 0x31E1 JUMP JUMPDEST SWAP1 DUP2 MSTORE PUSH1 0x20 ADD PUSH1 0x40 MLOAD DUP1 SWAP2 SUB SWAP1 KECCAK256 PUSH1 0x1 ADD SLOAD EQ PUSH2 0x198E JUMPI PUSH1 0x40 MLOAD PUSH32 0x8C379A000000000000000000000000000000000000000000000000000000000 DUP2 MSTORE PUSH1 0x4 ADD PUSH2 0x1985 SWAP1 PUSH2 0x3827 JUMP JUMPDEST PUSH1 0x40 MLOAD DUP1 SWAP2 SUB SWAP1 REVERT JUMPDEST PUSH0 CALLER DUP5 PUSH1 0x5 PUSH0 PUSH2 0x199C PUSH2 0x2489 JUMP JUMPDEST PUSH20 0xFFFFFFFFFFFFFFFFFFFFFFFFFFFFFFFFFFFFFFFF AND PUSH20 0xFFFFFFFFFFFFFFFFFFFFFFFFFFFFFFFFFFFFFFFF AND DUP2 MSTORE PUSH1 0x20 ADD SWAP1 DUP2 MSTORE PUSH1 0x20 ADD PUSH0 KECCAK256 SLOAD PUSH1 0x40 MLOAD PUSH1 0x20 ADD PUSH2 0x19E8 SWAP4 SWAP3 SWAP2 SWAP1 PUSH2 0x38E4 JUMP JUMPDEST PUSH1 0x40 MLOAD PUSH1 0x20 DUP2 DUP4 SUB SUB DUP2 MSTORE SWAP1 PUSH1 0x40 MSTORE DUP1 MLOAD SWAP1 PUSH1 0x20 ADD KECCAK256 SWAP1 POP PUSH1 0x6 PUSH0 SWAP1 SLOAD SWAP1 PUSH2 0x100 EXP SWAP1 DIV PUSH20 0xFFFFFFFFFFFFFFFFFFFFFFFFFFFFFFFFFFFFFFFF AND PUSH20 0xFFFFFFFFFFFFFFFFFFFFFFFFFFFFFFFFFFFFFFFF AND PUSH2 0x1A42 DUP3 DUP6 PUSH2 0x2490 JUMP JUMPDEST PUSH20 0xFFFFFFFFFFFFFFFFFFFFFFFFFFFFFFFFFFFFFFFF AND EQ PUSH2 0x1A98 JUMPI PUSH1 0x40 MLOAD PUSH32 0x8C379A000000000000000000000000000000000000000000000000000000000 DUP2 MSTORE PUSH1 0x4 ADD PUSH2 0x1A8F SWAP1 PUSH2 0x3966 JUMP JUMPDEST PUSH1 0x40 MLOAD DUP1 SWAP2 SUB SWAP1 REVERT JUMPDEST PUSH0 PUSH2 0x1AAF PUSH3 0x2A300 TIMESTAMP PUSH2 0x1E75 SWAP1 SWAP2 SWAP1 PUSH4 0xFFFFFFFF AND JUMP JUMPDEST SWAP1 POP PUSH1 0x40 MLOAD DUP1 PUSH1 0xA0 ADD PUSH1 0x40 MSTORE DUP1 CALLER PUSH20 0xFFFFFFFFFFFFFFFFFFFFFFFFFFFFFFFFFFFFFFFF AND DUP2 MSTORE PUSH1 0x20 ADD DUP3 DUP2 MSTORE PUSH1 0x20 ADD PUSH0 DUP2 MSTORE PUSH1 0x20 ADD PUSH0 DUP2 MSTORE PUSH1 0x20 ADD PUSH0 DUP2 MSTORE POP PUSH1 0x8 DUP5 PUSH1 0x40 MLOAD PUSH2 0x1AFE SWAP2 SWAP1 PUSH2 0x31E1 JUMP JUMPDEST SWAP1 DUP2 MSTORE PUSH1 0x20 ADD PUSH1 0x40 MLOAD DUP1 SWAP2 SUB SWAP1 KECCAK256 PUSH0 DUP3 ADD MLOAD DUP2 PUSH0 ADD PUSH0 PUSH2 0x100 EXP DUP2 SLOAD DUP2 PUSH20 0xFFFFFFFFFFFFFFFFFFFFFFFFFFFFFFFFFFFFFFFF MUL NOT AND SWAP1 DUP4 PUSH20 0xFFFFFFFFFFFFFFFFFFFFFFFFFFFFFFFFFFFFFFFF AND MUL OR SWAP1 SSTORE POP PUSH1 0x20 DUP3 ADD MLOAD DUP2 PUSH1 0x1 ADD SSTORE PUSH1 0x40 DUP3 ADD MLOAD DUP2 PUSH1 0x2 ADD SSTORE PUSH1 0x60 DUP3 ADD MLOAD DUP2 PUSH1 0x3 ADD SSTORE PUSH1 0x80 DUP3 ADD MLOAD DUP2 PUSH1 0x4 ADD SSTORE SWAP1 POP POP CALLER PUSH20 0xFFFFFFFFFFFFFFFFFFFFFFFFFFFFFFFFFFFFFFFF AND PUSH32 0xF126EC1FBB7D521827771BFB48EF46EB9059C22613C14D6C7E7FFE14D5B52F5 DUP7 DUP4 PUSH1 0x40 MLOAD PUSH2 0x1BC3 SWAP3 SWAP2 SWAP1 PUSH2 0x3442 JUMP JUMPDEST PUSH1 0x40 MLOAD DUP1 SWAP2 SUB SWAP1 LOG2 POP POP POP POP POP JUMP JUMPDEST PUSH1 0xC PUSH0 SWAP1 SLOAD SWAP1 PUSH2 0x100 EXP SWAP1 DIV PUSH20 0xFFFFFFFFFFFFFFFFFFFFFFFFFFFFFFFFFFFFFFFF AND DUP2 JUMP JUMPDEST PUSH1 0x5 PUSH1 0x20 MSTORE DUP1 PUSH0 MSTORE PUSH1 0x40 PUSH0 KECCAK256 PUSH0 SWAP2 POP SWAP1 POP SLOAD DUP2 JUMP JUMPDEST PUSH1 0x1 SLOAD DUP2 JUMP JUMPDEST PUSH0 PUSH2 0x1C6F PUSH6 0x5AF3107A4000 PUSH2 0x1C61 PUSH2 0x5DC PUSH2 0x1C53 PUSH1 0x5 PUSH2 0x1C45 PUSH2 0x1C40 PUSH1 0x5 DUP11 PUSH2 0x1C3B SWAP2 SWAP1 PUSH2 0x3ABF JUMP JUMPDEST PUSH2 0x24BA JUMP JUMPDEST PUSH2 0x24BA JUMP JUMPDEST PUSH2 0x1E60 SWAP1 SWAP2 SWAP1 PUSH4 0xFFFFFFFF AND JUMP JUMPDEST PUSH2 0x1E8A SWAP1 SWAP2 SWAP1 PUSH4 0xFFFFFFFF AND JUMP JUMPDEST PUSH2 0x1E60 SWAP1 SWAP2 SWAP1 PUSH4 0xFFFFFFFF AND JUMP JUMPDEST SWAP1 POP SWAP2 SWAP1 POP JUMP JUMPDEST PUSH1 0x2 SLOAD DUP2 JUMP JUMPDEST PUSH2 0x1C84 PUSH2 0x1E9F JUMP JUMPDEST DUP1 PUSH20 0xFFFFFFFFFFFFFFFFFFFFFFFFFFFFFFFFFFFFFFFF AND PUSH0 PUSH20 0xFFFFFFFFFFFFFFFFFFFFFFFFFFFFFFFFFFFFFFFF AND SUB PUSH2 0x1CF2 JUMPI PUSH1 0x40 MLOAD PUSH32 0x8C379A000000000000000000000000000000000000000000000000000000000 DUP2 MSTORE PUSH1 0x4 ADD PUSH2 0x1CE9 SWAP1 PUSH2 0x3B53 JUMP JUMPDEST PUSH1 0x40 MLOAD DUP1 SWAP2 SUB SWAP1 REVERT JUMPDEST DUP1 PUSH1 0xC PUSH0 PUSH2 0x100 EXP DUP2 SLOAD DUP2 PUSH20 0xFFFFFFFFFFFFFFFFFFFFFFFFFFFFFFFFFFFFFFFF MUL NOT AND SWAP1 DUP4 PUSH20 0xFFFFFFFFFFFFFFFFFFFFFFFFFFFFFFFFFFFFFFFF AND MUL OR SWAP1 SSTORE POP POP JUMP JUMPDEST PUSH0 DUP1 CALLER PUSH20 0xFFFFFFFFFFFFFFFFFFFFFFFFFFFFFFFFFFFFFFFF AND ORIGIN PUSH20 0xFFFFFFFFFFFFFFFFFFFFFFFFFFFFFFFFFFFFFFFF AND EQ PUSH2 0x1DA5 JUMPI PUSH1 0x40 MLOAD PUSH32 0x8C379A000000000000000000000000000000000000000000000000000000000 DUP2 MSTORE PUSH1 0x4 ADD PUSH2 0x1D9C SWAP1 PUSH2 0x3189 JUMP JUMPDEST PUSH1 0x40 MLOAD DUP1 SWAP2 SUB SWAP1 REVERT JUMPDEST PUSH0 PUSH2 0x1DAF DUP6 PUSH2 0xE3B JUMP JUMPDEST SWAP1 POP PUSH0 DUP1 PUSH2 0x1DBD DUP4 DUP8 PUSH2 0x2352 JUMP JUMPDEST SWAP2 POP SWAP2 POP DUP2 DUP2 SWAP5 POP SWAP5 POP POP POP POP SWAP3 POP SWAP3 SWAP1 POP JUMP JUMPDEST PUSH7 0x38D7EA4C68000 DUP2 JUMP JUMPDEST PUSH2 0x1DE4 PUSH2 0x1E9F JUMP JUMPDEST PUSH0 PUSH20 0xFFFFFFFFFFFFFFFFFFFFFFFFFFFFFFFFFFFFFFFF AND DUP2 PUSH20 0xFFFFFFFFFFFFFFFFFFFFFFFFFFFFFFFFFFFFFFFF AND SUB PUSH2 0x1E54 JUMPI PUSH0 PUSH1 0x40 MLOAD PUSH32 0x1E4FBDF700000000000000000000000000000000000000000000000000000000 DUP2 MSTORE PUSH1 0x4 ADD PUSH2 0x1E4B SWAP2 SWAP1 PUSH2 0x303C JUMP JUMPDEST PUSH1 0x40 MLOAD DUP1 SWAP2 SUB SWAP1 REVERT JUMPDEST PUSH2 0x1E5D DUP2 PUSH2 0x2291 JUMP JUMPDEST POP JUMP JUMPDEST PUSH0 DUP2 DUP4 PUSH2 0x1E6D SWAP2 SWAP1 PUSH2 0x3B71 JUMP JUMPDEST SWAP1 POP SWAP3 SWAP2 POP POP JUMP JUMPDEST PUSH0 DUP2 DUP4 PUSH2 0x1E82 SWAP2 SWAP1 PUSH2 0x3BB2 JUMP JUMPDEST SWAP1 POP SWAP3 SWAP2 POP POP JUMP JUMPDEST PUSH0 DUP2 DUP4 PUSH2 0x1E97 SWAP2 SWAP1 PUSH2 0x3BE5 JUMP JUMPDEST SWAP1 POP SWAP3 SWAP2 POP POP JUMP JUMPDEST PUSH2 0x1EA7 PUSH2 0x2489 JUMP JUMPDEST PUSH20 0xFFFFFFFFFFFFFFFFFFFFFFFFFFFFFFFFFFFFFFFF AND PUSH2 0x1EC5 PUSH2 0x15B6 JUMP JUMPDEST PUSH20 0xFFFFFFFFFFFFFFFFFFFFFFFFFFFFFFFFFFFFFFFF AND EQ PUSH2 0x1F24 JUMPI PUSH2 0x1EE8 PUSH2 0x2489 JUMP JUMPDEST PUSH1 0x40 MLOAD PUSH32 0x118CDAA700000000000000000000000000000000000000000000000000000000 DUP2 MSTORE PUSH1 0x4 ADD PUSH2 0x1F1B SWAP2 SWAP1 PUSH2 0x303C JUMP JUMPDEST PUSH1 0x40 MLOAD DUP1 SWAP2 SUB SWAP1 REVERT JUMPDEST JUMP JUMPDEST PUSH0 PUSH1 0xB DUP4 PUSH1 0x40 MLOAD PUSH2 0x1F37 SWAP2 SWAP1 PUSH2 0x31E1 JUMP JUMPDEST SWAP1 DUP2 MSTORE PUSH1 0x20 ADD PUSH1 0x40 MLOAD DUP1 SWAP2 SUB SWAP1 KECCAK256 SWAP1 POP PUSH0 DUP2 PUSH1 0x1 ADD PUSH0 DUP5 PUSH20 0xFFFFFFFFFFFFFFFFFFFFFFFFFFFFFFFFFFFFFFFF AND PUSH20 0xFFFFFFFFFFFFFFFFFFFFFFFFFFFFFFFFFFFFFFFF AND DUP2 MSTORE PUSH1 0x20 ADD SWAP1 DUP2 MSTORE PUSH1 0x20 ADD PUSH0 KECCAK256 SLOAD SWAP1 POP DUP3 PUSH20 0xFFFFFFFFFFFFFFFFFFFFFFFFFFFFFFFFFFFFFFFF AND DUP3 PUSH0 ADD DUP3 DUP2 SLOAD DUP2 LT PUSH2 0x1FB6 JUMPI PUSH2 0x1FB5 PUSH2 0x33AD JUMP JUMPDEST JUMPDEST SWAP1 PUSH0 MSTORE PUSH1 0x20 PUSH0 KECCAK256 ADD PUSH0 SWAP1 SLOAD SWAP1 PUSH2 0x100 EXP SWAP1 DIV PUSH20 0xFFFFFFFFFFFFFFFFFFFFFFFFFFFFFFFFFFFFFFFF AND PUSH20 0xFFFFFFFFFFFFFFFFFFFFFFFFFFFFFFFFFFFFFFFF AND EQ PUSH2 0x20B8 JUMPI DUP2 PUSH0 ADD CALLER SWAP1 DUP1 PUSH1 0x1 DUP2 SLOAD ADD DUP1 DUP3 SSTORE DUP1 SWAP2 POP POP PUSH1 0x1 SWAP1 SUB SWAP1 PUSH0 MSTORE PUSH1 0x20 PUSH0 KECCAK256 ADD PUSH0 SWAP1 SWAP2 SWAP1 SWAP2 SWAP1 SWAP2 PUSH2 0x100 EXP DUP2 SLOAD DUP2 PUSH20 0xFFFFFFFFFFFFFFFFFFFFFFFFFFFFFFFFFFFFFFFF MUL NOT AND SWAP1 DUP4 PUSH20 0xFFFFFFFFFFFFFFFFFFFFFFFFFFFFFFFFFFFFFFFF AND MUL OR SWAP1 SSTORE POP PUSH2 0x2074 PUSH1 0x1 DUP4 PUSH0 ADD DUP1 SLOAD SWAP1 POP PUSH2 0x1E8A SWAP1 SWAP2 SWAP1 PUSH4 0xFFFFFFFF AND JUMP JUMPDEST DUP3 PUSH1 0x1 ADD PUSH0 DUP6 PUSH20 0xFFFFFFFFFFFFFFFFFFFFFFFFFFFFFFFFFFFFFFFF AND PUSH20 0xFFFFFFFFFFFFFFFFFFFFFFFFFFFFFFFFFFFFFFFF AND DUP2 MSTORE PUSH1 0x20 ADD SWAP1 DUP2 MSTORE PUSH1 0x20 ADD PUSH0 KECCAK256 DUP2 SWAP1 SSTORE POP JUMPDEST POP POP POP POP JUMP JUMPDEST PUSH0 DUP1 PUSH0 DUP4 GT PUSH2 0x2102 JUMPI PUSH1 0x40 MLOAD PUSH32 0x8C379A000000000000000000000000000000000000000000000000000000000 DUP2 MSTORE PUSH1 0x4 ADD PUSH2 0x20F9 SWAP1 PUSH2 0x35BC JUMP JUMPDEST PUSH1 0x40 MLOAD DUP1 SWAP2 SUB SWAP1 REVERT JUMPDEST DUP3 PUSH1 0x7 DUP6 PUSH1 0x40 MLOAD PUSH2 0x2113 SWAP2 SWAP1 PUSH2 0x31E1 JUMP JUMPDEST SWAP1 DUP2 MSTORE PUSH1 0x20 ADD PUSH1 0x40 MLOAD DUP1 SWAP2 SUB SWAP1 KECCAK256 PUSH0 CALLER PUSH20 0xFFFFFFFFFFFFFFFFFFFFFFFFFFFFFFFFFFFFFFFF AND PUSH20 0xFFFFFFFFFFFFFFFFFFFFFFFFFFFFFFFFFFFFFFFF AND DUP2 MSTORE PUSH1 0x20 ADD SWAP1 DUP2 MSTORE PUSH1 0x20 ADD PUSH0 KECCAK256 SLOAD LT ISZERO PUSH2 0x219E JUMPI PUSH1 0x40 MLOAD PUSH32 0x8C379A000000000000000000000000000000000000000000000000000000000 DUP2 MSTORE PUSH1 0x4 ADD PUSH2 0x2195 SWAP1 PUSH2 0x3624 JUMP JUMPDEST PUSH1 0x40 MLOAD DUP1 SWAP2 SUB SWAP1 REVERT JUMPDEST PUSH0 DUP1 PUSH1 0x8 DUP7 PUSH1 0x40 MLOAD PUSH2 0x21B0 SWAP2 SWAP1 PUSH2 0x31E1 JUMP JUMPDEST SWAP1 DUP2 MSTORE PUSH1 0x20 ADD PUSH1 0x40 MLOAD DUP1 SWAP2 SUB SWAP1 KECCAK256 PUSH1 0x3 ADD SLOAD SWAP1 POP PUSH0 JUMPDEST DUP6 DUP2 LT ISZERO PUSH2 0x2255 JUMPI PUSH0 PUSH2 0x21E3 PUSH1 0x1 DUP5 PUSH2 0x1E8A SWAP1 SWAP2 SWAP1 PUSH4 0xFFFFFFFF AND JUMP JUMPDEST SWAP1 POP PUSH0 PUSH7 0x2386F26FC10000 SWAP1 POP PUSH1 0x64 DUP5 GT ISZERO PUSH2 0x2228 JUMPI PUSH1 0xA PUSH0 DUP6 DUP2 MSTORE PUSH1 0x20 ADD SWAP1 DUP2 MSTORE PUSH1 0x20 ADD PUSH0 KECCAK256 SLOAD SWAP1 POP PUSH7 0x2386F26FC10000 DUP2 GT PUSH2 0x2227 JUMPI PUSH2 0x2224 DUP5 PUSH2 0x1C12 JUMP JUMPDEST SWAP1 POP JUMPDEST JUMPDEST PUSH2 0x223B DUP2 DUP7 PUSH2 0x1E75 SWAP1 SWAP2 SWAP1 PUSH4 0xFFFFFFFF AND JUMP JUMPDEST SWAP5 POP DUP2 SWAP4 POP POP POP DUP1 DUP1 PUSH2 0x224D SWAP1 PUSH2 0x349D JUMP JUMPDEST SWAP2 POP POP PUSH2 0x21C6 JUMP JUMPDEST POP PUSH0 PUSH2 0x227F PUSH1 0x64 PUSH2 0x2271 PUSH1 0x1 SLOAD DUP7 PUSH2 0x1E60 SWAP1 SWAP2 SWAP1 PUSH4 0xFFFFFFFF AND JUMP JUMPDEST PUSH2 0x2537 SWAP1 SWAP2 SWAP1 PUSH4 0xFFFFFFFF AND JUMP JUMPDEST SWAP1 POP DUP3 DUP2 SWAP5 POP SWAP5 POP POP POP POP SWAP3 POP SWAP3 SWAP1 POP JUMP JUMPDEST PUSH0 DUP1 PUSH0 SWAP1 SLOAD SWAP1 PUSH2 0x100 EXP SWAP1 DIV PUSH20 0xFFFFFFFFFFFFFFFFFFFFFFFFFFFFFFFFFFFFFFFF AND SWAP1 POP DUP2 PUSH0 DUP1 PUSH2 0x100 EXP DUP2 SLOAD DUP2 PUSH20 0xFFFFFFFFFFFFFFFFFFFFFFFFFFFFFFFFFFFFFFFF MUL NOT AND SWAP1 DUP4 PUSH20 0xFFFFFFFFFFFFFFFFFFFFFFFFFFFFFFFFFFFFFFFF AND MUL OR SWAP1 SSTORE POP DUP2 PUSH20 0xFFFFFFFFFFFFFFFFFFFFFFFFFFFFFFFFFFFFFFFF AND DUP2 PUSH20 0xFFFFFFFFFFFFFFFFFFFFFFFFFFFFFFFFFFFFFFFF AND PUSH32 0x8BE0079C531659141344CD1FD0A4F28419497F9722A3DAAFE3B4186F6B6457E0 PUSH1 0x40 MLOAD PUSH1 0x40 MLOAD DUP1 SWAP2 SUB SWAP1 LOG3 POP POP JUMP JUMPDEST PUSH0 DUP1 PUSH0 DUP4 GT PUSH2 0x2396 JUMPI PUSH1 0x40 MLOAD PUSH32 0x8C379A000000000000000000000000000000000000000000000000000000000 DUP2 MSTORE PUSH1 0x4 ADD PUSH2 0x238D SWAP1 PUSH2 0x35BC JUMP JUMPDEST PUSH1 0x40 MLOAD DUP1 SWAP2 SUB SWAP1 REVERT JUMPDEST PUSH0 DUP1 PUSH1 0x8 DUP7 PUSH1 0x40 MLOAD PUSH2 0x23A8 SWAP2 SWAP1 PUSH2 0x31E1 JUMP JUMPDEST SWAP1 DUP2 MSTORE PUSH1 0x20 ADD PUSH1 0x40 MLOAD DUP1 SWAP2 SUB SWAP1 KECCAK256 PUSH1 0x3 ADD SLOAD SWAP1 POP PUSH0 JUMPDEST DUP6 DUP2 LT ISZERO PUSH2 0x244D JUMPI PUSH0 PUSH2 0x23DB PUSH1 0x1 DUP5 PUSH2 0x1E75 SWAP1 SWAP2 SWAP1 PUSH4 0xFFFFFFFF AND JUMP JUMPDEST SWAP1 POP PUSH0 PUSH7 0x2386F26FC10000 SWAP1 POP PUSH1 0x64 DUP3 GT ISZERO PUSH2 0x2420 JUMPI PUSH1 0xA PUSH0 DUP4 DUP2 MSTORE PUSH1 0x20 ADD SWAP1 DUP2 MSTORE PUSH1 0x20 ADD PUSH0 KECCAK256 SLOAD SWAP1 POP PUSH7 0x2386F26FC10000 DUP2 GT PUSH2 0x241F JUMPI PUSH2 0x241C DUP3 PUSH2 0x1C12 JUMP JUMPDEST SWAP1 POP JUMPDEST JUMPDEST PUSH2 0x2433 DUP2 DUP7 PUSH2 0x1E75 SWAP1 SWAP2 SWAP1 PUSH4 0xFFFFFFFF AND JUMP JUMPDEST SWAP5 POP DUP2 SWAP4 POP POP POP DUP1 DUP1 PUSH2 0x2445 SWAP1 PUSH2 0x349D JUMP JUMPDEST SWAP2 POP POP PUSH2 0x23BE JUMP JUMPDEST POP PUSH0 PUSH2 0x2477 PUSH1 0x64 PUSH2 0x2469 PUSH1 0x1 SLOAD DUP7 PUSH2 0x1E60 SWAP1 SWAP2 SWAP1 PUSH4 0xFFFFFFFF AND JUMP JUMPDEST PUSH2 0x2537 SWAP1 SWAP2 SWAP1 PUSH4 0xFFFFFFFF AND JUMP JUMPDEST SWAP1 POP DUP3 DUP2 SWAP5 POP SWAP5 POP POP POP POP SWAP3 POP SWAP3 SWAP1 POP JUMP JUMPDEST PUSH0 CALLER SWAP1 POP SWAP1 JUMP JUMPDEST PUSH0 DUP1 PUSH0 DUP1 PUSH2 0x249E DUP7 DUP7 PUSH2 0x254C JUMP JUMPDEST SWAP3 POP SWAP3 POP SWAP3 POP PUSH2 0x24AE DUP3 DUP3 PUSH2 0x25A1 JUMP JUMPDEST DUP3 SWAP4 POP POP POP POP SWAP3 SWAP2 POP POP JUMP JUMPDEST PUSH0 DUP1 DUP3 EQ DUP1 PUSH2 0x24C9 JUMPI POP PUSH1 0x1 DUP3 EQ JUMPDEST ISZERO PUSH2 0x24D6 JUMPI DUP2 SWAP1 POP PUSH2 0x2532 JUMP JUMPDEST PUSH0 PUSH1 0x2 PUSH1 0x1 DUP5 PUSH2 0x24E6 SWAP2 SWAP1 PUSH2 0x3BB2 JUMP JUMPDEST PUSH2 0x24F0 SWAP2 SWAP1 PUSH2 0x3C45 JUMP JUMPDEST SWAP1 POP PUSH0 DUP4 SWAP1 POP JUMPDEST DUP1 DUP3 LT ISZERO PUSH2 0x252C JUMPI DUP2 SWAP1 POP PUSH1 0x2 DUP3 DUP4 DUP7 PUSH2 0x2511 SWAP2 SWAP1 PUSH2 0x3C45 JUMP JUMPDEST PUSH2 0x251B SWAP2 SWAP1 PUSH2 0x3BB2 JUMP JUMPDEST PUSH2 0x2525 SWAP2 SWAP1 PUSH2 0x3C45 JUMP JUMPDEST SWAP2 POP PUSH2 0x24F7 JUMP JUMPDEST DUP1 SWAP3 POP POP POP JUMPDEST SWAP2 SWAP1 POP JUMP JUMPDEST PUSH0 DUP2 DUP4 PUSH2 0x2544 SWAP2 SWAP1 PUSH2 0x3C45 JUMP JUMPDEST SWAP1 POP SWAP3 SWAP2 POP POP JUMP JUMPDEST PUSH0 DUP1 PUSH0 PUSH1 0x41 DUP5 MLOAD SUB PUSH2 0x258C JUMPI PUSH0 DUP1 PUSH0 PUSH1 0x20 DUP8 ADD MLOAD SWAP3 POP PUSH1 0x40 DUP8 ADD MLOAD SWAP2 POP PUSH1 0x60 DUP8 ADD MLOAD PUSH0 BYTE SWAP1 POP PUSH2 0x257E DUP9 DUP3 DUP6 DUP6 PUSH2 0x2703 JUMP JUMPDEST SWAP6 POP SWAP6 POP SWAP6 POP POP POP POP PUSH2 0x259A JUMP JUMPDEST PUSH0 PUSH1 0x2 DUP6 MLOAD PUSH0 SHL SWAP3 POP SWAP3 POP SWAP3 POP JUMPDEST SWAP3 POP SWAP3 POP SWAP3 JUMP JUMPDEST PUSH0 PUSH1 0x3 DUP2 GT ISZERO PUSH2 0x25B4 JUMPI PUSH2 0x25B3 PUSH2 0x3642 JUMP JUMPDEST JUMPDEST DUP3 PUSH1 0x3 DUP2 GT ISZERO PUSH2 0x25C7 JUMPI PUSH2 0x25C6 PUSH2 0x3642 JUMP JUMPDEST JUMPDEST SUB ISZERO PUSH2 0x26FF JUMPI PUSH1 0x1 PUSH1 0x3 DUP2 GT ISZERO PUSH2 0x25E1 JUMPI PUSH2 0x25E0 PUSH2 0x3642 JUMP JUMPDEST JUMPDEST DUP3 PUSH1 0x3 DUP2 GT ISZERO PUSH2 0x25F4 JUMPI PUSH2 0x25F3 PUSH2 0x3642 JUMP JUMPDEST JUMPDEST SUB PUSH2 0x262B JUMPI PUSH1 0x40 MLOAD PUSH32 0xF645EEDF00000000000000000000000000000000000000000000000000000000 DUP2 MSTORE PUSH1 0x4 ADD PUSH1 0x40 MLOAD DUP1 SWAP2 SUB SWAP1 REVERT JUMPDEST PUSH1 0x2 PUSH1 0x3 DUP2 GT ISZERO PUSH2 0x263F JUMPI PUSH2 0x263E PUSH2 0x3642 JUMP JUMPDEST JUMPDEST DUP3 PUSH1 0x3 DUP2 GT ISZERO PUSH2 0x2652 JUMPI PUSH2 0x2651 PUSH2 0x3642 JUMP JUMPDEST JUMPDEST SUB PUSH2 0x2696 JUMPI DUP1 PUSH0 SHR PUSH1 0x40 MLOAD PUSH32 0xFCE698F700000000000000000000000000000000000000000000000000000000 DUP2 MSTORE PUSH1 0x4 ADD PUSH2 0x268D SWAP2 SWAP1 PUSH2 0x2802 JUMP JUMPDEST PUSH1 0x40 MLOAD DUP1 SWAP2 SUB SWAP1 REVERT JUMPDEST PUSH1 0x3 DUP1 DUP2 GT ISZERO PUSH2 0x26A9 JUMPI PUSH2 0x26A8 PUSH2 0x3642 JUMP JUMPDEST JUMPDEST DUP3 PUSH1 0x3 DUP2 GT ISZERO PUSH2 0x26BC JUMPI PUSH2 0x26BB PUSH2 0x3642 JUMP JUMPDEST JUMPDEST SUB PUSH2 0x26FE JUMPI DUP1 PUSH1 0x40 MLOAD PUSH32 0xD78BCE0C00000000000000000000000000000000000000000000000000000000 DUP2 MSTORE PUSH1 0x4 ADD PUSH2 0x26F5 SWAP2 SWAP1 PUSH2 0x3C8D JUMP JUMPDEST PUSH1 0x40 MLOAD DUP1 SWAP2 SUB SWAP1 REVERT JUMPDEST JUMPDEST POP POP JUMP JUMPDEST PUSH0 DUP1 PUSH0 PUSH32 0x7FFFFFFFFFFFFFFFFFFFFFFFFFFFFFFF5D576E7357A4501DDFE92F46681B20A0 DUP5 PUSH0 SHR GT ISZERO PUSH2 0x273F JUMPI PUSH0 PUSH1 0x3 DUP6 SWAP3 POP SWAP3 POP SWAP3 POP PUSH2 0x27E0 JUMP JUMPDEST PUSH0 PUSH1 0x1 DUP9 DUP9 DUP9 DUP9 PUSH1 0x40 MLOAD PUSH0 DUP2 MSTORE PUSH1 0x20 ADD PUSH1 0x40 MSTORE PUSH1 0x40 MLOAD PUSH2 0x2762 SWAP5 SWAP4 SWAP3 SWAP2 SWAP1 PUSH2 0x3CB5 JUMP JUMPDEST PUSH1 0x20 PUSH1 0x40 MLOAD PUSH1 0x20 DUP2 SUB SWAP1 DUP1 DUP5 SUB SWAP1 DUP6 GAS STATICCALL ISZERO DUP1 ISZERO PUSH2 0x2782 JUMPI RETURNDATASIZE PUSH0 DUP1 RETURNDATACOPY RETURNDATASIZE PUSH0 REVERT JUMPDEST POP POP POP PUSH1 0x20 PUSH1 0x40 MLOAD SUB MLOAD SWAP1 POP PUSH0 PUSH20 0xFFFFFFFFFFFFFFFFFFFFFFFFFFFFFFFFFFFFFFFF AND DUP2 PUSH20 0xFFFFFFFFFFFFFFFFFFFFFFFFFFFFFFFFFFFFFFFF AND SUB PUSH2 0x27D3 JUMPI PUSH0 PUSH1 0x1 PUSH0 DUP1 SHL SWAP4 POP SWAP4 POP SWAP4 POP POP PUSH2 0x27E0 JUMP JUMPDEST DUP1 PUSH0 DUP1 PUSH0 SHL SWAP4 POP SWAP4 POP SWAP4 POP POP JUMPDEST SWAP5 POP SWAP5 POP SWAP5 SWAP2 POP POP JUMP JUMPDEST PUSH0 DUP2 SWAP1 POP SWAP2 SWAP1 POP JUMP JUMPDEST PUSH2 0x27FC DUP2 PUSH2 0x27EA JUMP JUMPDEST DUP3 MSTORE POP POP JUMP JUMPDEST PUSH0 PUSH1 0x20 DUP3 ADD SWAP1 POP PUSH2 0x2815 PUSH0 DUP4 ADD DUP5 PUSH2 0x27F3 JUMP JUMPDEST SWAP3 SWAP2 POP POP JUMP JUMPDEST PUSH0 PUSH1 0x40 MLOAD SWAP1 POP SWAP1 JUMP JUMPDEST PUSH0 DUP1 REVERT JUMPDEST PUSH0 DUP1 REVERT JUMPDEST PUSH0 DUP1 REVERT JUMPDEST PUSH0 DUP1 REVERT JUMPDEST PUSH0 PUSH1 0x1F NOT PUSH1 0x1F DUP4 ADD AND SWAP1 POP SWAP2 SWAP1 POP JUMP JUMPDEST PUSH32 0x4E487B7100000000000000000000000000000000000000000000000000000000 PUSH0 MSTORE PUSH1 0x41 PUSH1 0x4 MSTORE PUSH1 0x24 PUSH0 REVERT JUMPDEST PUSH2 0x287A DUP3 PUSH2 0x2834 JUMP JUMPDEST DUP2 ADD DUP2 DUP2 LT PUSH8 0xFFFFFFFFFFFFFFFF DUP3 GT OR ISZERO PUSH2 0x2899 JUMPI PUSH2 0x2898 PUSH2 0x2844 JUMP JUMPDEST JUMPDEST DUP1 PUSH1 0x40 MSTORE POP POP POP JUMP JUMPDEST PUSH0 PUSH2 0x28AB PUSH2 0x281B JUMP JUMPDEST SWAP1 POP PUSH2 0x28B7 DUP3 DUP3 PUSH2 0x2871 JUMP JUMPDEST SWAP2 SWAP1 POP JUMP JUMPDEST PUSH0 PUSH8 0xFFFFFFFFFFFFFFFF DUP3 GT ISZERO PUSH2 0x28D6 JUMPI PUSH2 0x28D5 PUSH2 0x2844 JUMP JUMPDEST JUMPDEST PUSH2 0x28DF DUP3 PUSH2 0x2834 JUMP JUMPDEST SWAP1 POP PUSH1 0x20 DUP2 ADD SWAP1 POP SWAP2 SWAP1 POP JUMP JUMPDEST DUP3 DUP2 DUP4 CALLDATACOPY PUSH0 DUP4 DUP4 ADD MSTORE POP POP POP JUMP JUMPDEST PUSH0 PUSH2 0x290C PUSH2 0x2907 DUP5 PUSH2 0x28BC JUMP JUMPDEST PUSH2 0x28A2 JUMP JUMPDEST SWAP1 POP DUP3 DUP2 MSTORE PUSH1 0x20 DUP2 ADD DUP5 DUP5 DUP5 ADD GT ISZERO PUSH2 0x2928 JUMPI PUSH2 0x2927 PUSH2 0x2830 JUMP JUMPDEST JUMPDEST PUSH2 0x2933 DUP5 DUP3 DUP6 PUSH2 0x28EC JUMP JUMPDEST POP SWAP4 SWAP3 POP POP POP JUMP JUMPDEST PUSH0 DUP3 PUSH1 0x1F DUP4 ADD SLT PUSH2 0x294F JUMPI PUSH2 0x294E PUSH2 0x282C JUMP JUMPDEST JUMPDEST DUP2 CALLDATALOAD PUSH2 0x295F DUP5 DUP3 PUSH1 0x20 DUP7 ADD PUSH2 0x28FA JUMP JUMPDEST SWAP2 POP POP SWAP3 SWAP2 POP POP JUMP JUMPDEST PUSH2 0x2971 DUP2 PUSH2 0x27EA JUMP JUMPDEST DUP2 EQ PUSH2 0x297B JUMPI PUSH0 DUP1 REVERT JUMPDEST POP JUMP JUMPDEST PUSH0 DUP2 CALLDATALOAD SWAP1 POP PUSH2 0x298C DUP2 PUSH2 0x2968 JUMP JUMPDEST SWAP3 SWAP2 POP POP JUMP JUMPDEST PUSH0 DUP1 PUSH1 0x40 DUP4 DUP6 SUB SLT ISZERO PUSH2 0x29A8 JUMPI PUSH2 0x29A7 PUSH2 0x2824 JUMP JUMPDEST JUMPDEST PUSH0 DUP4 ADD CALLDATALOAD PUSH8 0xFFFFFFFFFFFFFFFF DUP2 GT ISZERO PUSH2 0x29C5 JUMPI PUSH2 0x29C4 PUSH2 0x2828 JUMP JUMPDEST JUMPDEST PUSH2 0x29D1 DUP6 DUP3 DUP7 ADD PUSH2 0x293B JUMP JUMPDEST SWAP3 POP POP PUSH1 0x20 PUSH2 0x29E2 DUP6 DUP3 DUP7 ADD PUSH2 0x297E JUMP JUMPDEST SWAP2 POP POP SWAP3 POP SWAP3 SWAP1 POP JUMP JUMPDEST PUSH0 DUP2 ISZERO ISZERO SWAP1 POP SWAP2 SWAP1 POP JUMP JUMPDEST PUSH2 0x2A00 DUP2 PUSH2 0x29EC JUMP JUMPDEST DUP3 MSTORE POP POP JUMP JUMPDEST PUSH0 PUSH1 0x20 DUP3 ADD SWAP1 POP PUSH2 0x2A19 PUSH0 DUP4 ADD DUP5 PUSH2 0x29F7 JUMP JUMPDEST SWAP3 SWAP2 POP POP JUMP JUMPDEST PUSH0 PUSH8 0xFFFFFFFFFFFFFFFF DUP3 GT ISZERO PUSH2 0x2A39 JUMPI PUSH2 0x2A38 PUSH2 0x2844 JUMP JUMPDEST JUMPDEST PUSH1 0x20 DUP3 MUL SWAP1 POP PUSH1 0x20 DUP2 ADD SWAP1 POP SWAP2 SWAP1 POP JUMP JUMPDEST PUSH0 DUP1 REVERT JUMPDEST PUSH0 DUP1 REVERT JUMPDEST PUSH0 PUSH1 0x40 DUP3 DUP5 SUB SLT ISZERO PUSH2 0x2A67 JUMPI PUSH2 0x2A66 PUSH2 0x2A4E JUMP JUMPDEST JUMPDEST PUSH2 0x2A71 PUSH1 0x40 PUSH2 0x28A2 JUMP JUMPDEST SWAP1 POP PUSH0 PUSH2 0x2A80 DUP5 DUP3 DUP6 ADD PUSH2 0x297E JUMP JUMPDEST PUSH0 DUP4 ADD MSTORE POP PUSH1 0x20 PUSH2 0x2A93 DUP5 DUP3 DUP6 ADD PUSH2 0x297E JUMP JUMPDEST PUSH1 0x20 DUP4 ADD MSTORE POP SWAP3 SWAP2 POP POP JUMP JUMPDEST PUSH0 PUSH2 0x2AB1 PUSH2 0x2AAC DUP5 PUSH2 0x2A1F JUMP JUMPDEST PUSH2 0x28A2 JUMP JUMPDEST SWAP1 POP DUP1 DUP4 DUP3 MSTORE PUSH1 0x20 DUP3 ADD SWAP1 POP PUSH1 0x40 DUP5 MUL DUP4 ADD DUP6 DUP2 GT ISZERO PUSH2 0x2AD4 JUMPI PUSH2 0x2AD3 PUSH2 0x2A4A JUMP JUMPDEST JUMPDEST DUP4 JUMPDEST DUP2 DUP2 LT ISZERO PUSH2 0x2AFD JUMPI DUP1 PUSH2 0x2AE9 DUP9 DUP3 PUSH2 0x2A52 JUMP JUMPDEST DUP5 MSTORE PUSH1 0x20 DUP5 ADD SWAP4 POP POP PUSH1 0x40 DUP2 ADD SWAP1 POP PUSH2 0x2AD6 JUMP JUMPDEST POP POP POP SWAP4 SWAP3 POP POP POP JUMP JUMPDEST PUSH0 DUP3 PUSH1 0x1F DUP4 ADD SLT PUSH2 0x2B1B JUMPI PUSH2 0x2B1A PUSH2 0x282C JUMP JUMPDEST JUMPDEST DUP2 CALLDATALOAD PUSH2 0x2B2B DUP5 DUP3 PUSH1 0x20 DUP7 ADD PUSH2 0x2A9F JUMP JUMPDEST SWAP2 POP POP SWAP3 SWAP2 POP POP JUMP JUMPDEST PUSH0 DUP1 PUSH1 0x40 DUP4 DUP6 SUB SLT ISZERO PUSH2 0x2B4A JUMPI PUSH2 0x2B49 PUSH2 0x2824 JUMP JUMPDEST JUMPDEST PUSH0 DUP4 ADD CALLDATALOAD PUSH8 0xFFFFFFFFFFFFFFFF DUP2 GT ISZERO PUSH2 0x2B67 JUMPI PUSH2 0x2B66 PUSH2 0x2828 JUMP JUMPDEST JUMPDEST PUSH2 0x2B73 DUP6 DUP3 DUP7 ADD PUSH2 0x293B JUMP JUMPDEST SWAP3 POP POP PUSH1 0x20 DUP4 ADD CALLDATALOAD PUSH8 0xFFFFFFFFFFFFFFFF DUP2 GT ISZERO PUSH2 0x2B94 JUMPI PUSH2 0x2B93 PUSH2 0x2828 JUMP JUMPDEST JUMPDEST PUSH2 0x2BA0 DUP6 DUP3 DUP7 ADD PUSH2 0x2B07 JUMP JUMPDEST SWAP2 POP POP SWAP3 POP SWAP3 SWAP1 POP JUMP JUMPDEST PUSH0 DUP1 PUSH0 PUSH1 0x60 DUP5 DUP7 SUB SLT ISZERO PUSH2 0x2BC1 JUMPI PUSH2 0x2BC0 PUSH2 0x2824 JUMP JUMPDEST JUMPDEST PUSH0 PUSH2 0x2BCE DUP7 DUP3 DUP8 ADD PUSH2 0x297E JUMP JUMPDEST SWAP4 POP POP PUSH1 0x20 PUSH2 0x2BDF DUP7 DUP3 DUP8 ADD PUSH2 0x297E JUMP JUMPDEST SWAP3 POP POP PUSH1 0x40 PUSH2 0x2BF0 DUP7 DUP3 DUP8 ADD PUSH2 0x297E JUMP JUMPDEST SWAP2 POP POP SWAP3 POP SWAP3 POP SWAP3 JUMP JUMPDEST PUSH0 PUSH1 0x20 DUP3 DUP5 SUB SLT ISZERO PUSH2 0x2C0F JUMPI PUSH2 0x2C0E PUSH2 0x2824 JUMP JUMPDEST JUMPDEST PUSH0 DUP3 ADD CALLDATALOAD PUSH8 0xFFFFFFFFFFFFFFFF DUP2 GT ISZERO PUSH2 0x2C2C JUMPI PUSH2 0x2C2B PUSH2 0x2828 JUMP JUMPDEST JUMPDEST PUSH2 0x2C38 DUP5 DUP3 DUP6 ADD PUSH2 0x293B JUMP JUMPDEST SWAP2 POP POP SWAP3 SWAP2 POP POP JUMP JUMPDEST PUSH0 DUP2 MLOAD SWAP1 POP SWAP2 SWAP1 POP JUMP JUMPDEST PUSH0 DUP3 DUP3 MSTORE PUSH1 0x20 DUP3 ADD SWAP1 POP SWAP3 SWAP2 POP POP JUMP JUMPDEST PUSH0 JUMPDEST DUP4 DUP2 LT ISZERO PUSH2 0x2C78 JUMPI DUP1 DUP3 ADD MLOAD DUP2 DUP5 ADD MSTORE PUSH1 0x20 DUP2 ADD SWAP1 POP PUSH2 0x2C5D JUMP JUMPDEST PUSH0 DUP5 DUP5 ADD MSTORE POP POP POP POP JUMP JUMPDEST PUSH0 PUSH2 0x2C8D DUP3 PUSH2 0x2C41 JUMP JUMPDEST PUSH2 0x2C97 DUP2 DUP6 PUSH2 0x2C4B JUMP JUMPDEST SWAP4 POP PUSH2 0x2CA7 DUP2 DUP6 PUSH1 0x20 DUP7 ADD PUSH2 0x2C5B JUMP JUMPDEST PUSH2 0x2CB0 DUP2 PUSH2 0x2834 JUMP JUMPDEST DUP5 ADD SWAP2 POP POP SWAP3 SWAP2 POP POP JUMP JUMPDEST PUSH0 PUSH1 0x20 DUP3 ADD SWAP1 POP DUP2 DUP2 SUB PUSH0 DUP4 ADD MSTORE PUSH2 0x2CD3 DUP2 DUP5 PUSH2 0x2C83 JUMP JUMPDEST SWAP1 POP SWAP3 SWAP2 POP POP JUMP JUMPDEST PUSH0 PUSH8 0xFFFFFFFFFFFFFFFF DUP3 GT ISZERO PUSH2 0x2CF5 JUMPI PUSH2 0x2CF4 PUSH2 0x2844 JUMP JUMPDEST JUMPDEST PUSH2 0x2CFE DUP3 PUSH2 0x2834 JUMP JUMPDEST SWAP1 POP PUSH1 0x20 DUP2 ADD SWAP1 POP SWAP2 SWAP1 POP JUMP JUMPDEST PUSH0 PUSH2 0x2D1D PUSH2 0x2D18 DUP5 PUSH2 0x2CDB JUMP JUMPDEST PUSH2 0x28A2 JUMP JUMPDEST SWAP1 POP DUP3 DUP2 MSTORE PUSH1 0x20 DUP2 ADD DUP5 DUP5 DUP5 ADD GT ISZERO PUSH2 0x2D39 JUMPI PUSH2 0x2D38 PUSH2 0x2830 JUMP JUMPDEST JUMPDEST PUSH2 0x2D44 DUP5 DUP3 DUP6 PUSH2 0x28EC JUMP JUMPDEST POP SWAP4 SWAP3 POP POP POP JUMP JUMPDEST PUSH0 DUP3 PUSH1 0x1F DUP4 ADD SLT PUSH2 0x2D60 JUMPI PUSH2 0x2D5F PUSH2 0x282C JUMP JUMPDEST JUMPDEST DUP2 CALLDATALOAD PUSH2 0x2D70 DUP5 DUP3 PUSH1 0x20 DUP7 ADD PUSH2 0x2D0B JUMP JUMPDEST SWAP2 POP POP SWAP3 SWAP2 POP POP JUMP JUMPDEST PUSH0 PUSH20 0xFFFFFFFFFFFFFFFFFFFFFFFFFFFFFFFFFFFFFFFF DUP3 AND SWAP1 POP SWAP2 SWAP1 POP JUMP JUMPDEST PUSH0 PUSH2 0x2DA2 DUP3 PUSH2 0x2D79 JUMP JUMPDEST SWAP1 POP SWAP2 SWAP1 POP JUMP JUMPDEST PUSH2 0x2DB2 DUP2 PUSH2 0x2D98 JUMP JUMPDEST DUP2 EQ PUSH2 0x2DBC JUMPI PUSH0 DUP1 REVERT JUMPDEST POP JUMP JUMPDEST PUSH0 DUP2 CALLDATALOAD SWAP1 POP PUSH2 0x2DCD DUP2 PUSH2 0x2DA9 JUMP JUMPDEST SWAP3 SWAP2 POP POP JUMP JUMPDEST PUSH0 DUP1 PUSH1 0x40 DUP4 DUP6 SUB SLT ISZERO PUSH2 0x2DE9 JUMPI PUSH2 0x2DE8 PUSH2 0x2824 JUMP JUMPDEST JUMPDEST PUSH0 DUP4 ADD CALLDATALOAD PUSH8 0xFFFFFFFFFFFFFFFF DUP2 GT ISZERO PUSH2 0x2E06 JUMPI PUSH2 0x2E05 PUSH2 0x2828 JUMP JUMPDEST JUMPDEST PUSH2 0x2E12 DUP6 DUP3 DUP7 ADD PUSH2 0x2D4C JUMP JUMPDEST SWAP3 POP POP PUSH1 0x20 PUSH2 0x2E23 DUP6 DUP3 DUP7 ADD PUSH2 0x2DBF JUMP JUMPDEST SWAP2 POP POP SWAP3 POP SWAP3 SWAP1 POP JUMP JUMPDEST PUSH0 DUP1 PUSH1 0x40 DUP4 DUP6 SUB SLT ISZERO PUSH2 0x2E43 JUMPI PUSH2 0x2E42 PUSH2 0x2824 JUMP JUMPDEST JUMPDEST PUSH0 DUP4 ADD CALLDATALOAD PUSH8 0xFFFFFFFFFFFFFFFF DUP2 GT ISZERO PUSH2 0x2E60 JUMPI PUSH2 0x2E5F PUSH2 0x2828 JUMP JUMPDEST JUMPDEST PUSH2 0x2E6C DUP6 DUP3 DUP7 ADD PUSH2 0x293B JUMP JUMPDEST SWAP3 POP POP PUSH1 0x20 PUSH2 0x2E7D DUP6 DUP3 DUP7 ADD PUSH2 0x2DBF JUMP JUMPDEST SWAP2 POP POP SWAP3 POP SWAP3 SWAP1 POP JUMP JUMPDEST PUSH0 PUSH1 0x40 DUP3 ADD SWAP1 POP PUSH2 0x2E9A PUSH0 DUP4 ADD DUP6 PUSH2 0x27F3 JUMP JUMPDEST PUSH2 0x2EA7 PUSH1 0x20 DUP4 ADD DUP5 PUSH2 0x27F3 JUMP JUMPDEST SWAP4 SWAP3 POP POP POP JUMP JUMPDEST PUSH0 PUSH8 0xFFFFFFFFFFFFFFFF DUP3 GT ISZERO PUSH2 0x2EC8 JUMPI PUSH2 0x2EC7 PUSH2 0x2844 JUMP JUMPDEST JUMPDEST PUSH1 0x20 DUP3 MUL SWAP1 POP PUSH1 0x20 DUP2 ADD SWAP1 POP SWAP2 SWAP1 POP JUMP JUMPDEST PUSH0 PUSH1 0x40 DUP3 DUP5 SUB SLT ISZERO PUSH2 0x2EEE JUMPI PUSH2 0x2EED PUSH2 0x2A4E JUMP JUMPDEST JUMPDEST PUSH2 0x2EF8 PUSH1 0x40 PUSH2 0x28A2 JUMP JUMPDEST SWAP1 POP PUSH0 PUSH2 0x2F07 DUP5 DUP3 DUP6 ADD PUSH2 0x297E JUMP JUMPDEST PUSH0 DUP4 ADD MSTORE POP PUSH1 0x20 PUSH2 0x2F1A DUP5 DUP3 DUP6 ADD PUSH2 0x297E JUMP JUMPDEST PUSH1 0x20 DUP4 ADD MSTORE POP SWAP3 SWAP2 POP POP JUMP JUMPDEST PUSH0 PUSH2 0x2F38 PUSH2 0x2F33 DUP5 PUSH2 0x2EAE JUMP JUMPDEST PUSH2 0x28A2 JUMP JUMPDEST SWAP1 POP DUP1 DUP4 DUP3 MSTORE PUSH1 0x20 DUP3 ADD SWAP1 POP PUSH1 0x40 DUP5 MUL DUP4 ADD DUP6 DUP2 GT ISZERO PUSH2 0x2F5B JUMPI PUSH2 0x2F5A PUSH2 0x2A4A JUMP JUMPDEST JUMPDEST DUP4 JUMPDEST DUP2 DUP2 LT ISZERO PUSH2 0x2F84 JUMPI DUP1 PUSH2 0x2F70 DUP9 DUP3 PUSH2 0x2ED9 JUMP JUMPDEST DUP5 MSTORE PUSH1 0x20 DUP5 ADD SWAP4 POP POP PUSH1 0x40 DUP2 ADD SWAP1 POP PUSH2 0x2F5D JUMP JUMPDEST POP POP POP SWAP4 SWAP3 POP POP POP JUMP JUMPDEST PUSH0 DUP3 PUSH1 0x1F DUP4 ADD SLT PUSH2 0x2FA2 JUMPI PUSH2 0x2FA1 PUSH2 0x282C JUMP JUMPDEST JUMPDEST DUP2 CALLDATALOAD PUSH2 0x2FB2 DUP5 DUP3 PUSH1 0x20 DUP7 ADD PUSH2 0x2F26 JUMP JUMPDEST SWAP2 POP POP SWAP3 SWAP2 POP POP JUMP JUMPDEST PUSH0 PUSH1 0x20 DUP3 DUP5 SUB SLT ISZERO PUSH2 0x2FD0 JUMPI PUSH2 0x2FCF PUSH2 0x2824 JUMP JUMPDEST JUMPDEST PUSH0 DUP3 ADD CALLDATALOAD PUSH8 0xFFFFFFFFFFFFFFFF DUP2 GT ISZERO PUSH2 0x2FED JUMPI PUSH2 0x2FEC PUSH2 0x2828 JUMP JUMPDEST JUMPDEST PUSH2 0x2FF9 DUP5 DUP3 DUP6 ADD PUSH2 0x2F8E JUMP JUMPDEST SWAP2 POP POP SWAP3 SWAP2 POP POP JUMP JUMPDEST PUSH0 PUSH1 0x20 DUP3 DUP5 SUB SLT ISZERO PUSH2 0x3017 JUMPI PUSH2 0x3016 PUSH2 0x2824 JUMP JUMPDEST JUMPDEST PUSH0 PUSH2 0x3024 DUP5 DUP3 DUP6 ADD PUSH2 0x297E JUMP JUMPDEST SWAP2 POP POP SWAP3 SWAP2 POP POP JUMP JUMPDEST PUSH2 0x3036 DUP2 PUSH2 0x2D98 JUMP JUMPDEST DUP3 MSTORE POP POP JUMP JUMPDEST PUSH0 PUSH1 0x20 DUP3 ADD SWAP1 POP PUSH2 0x304F PUSH0 DUP4 ADD DUP5 PUSH2 0x302D JUMP JUMPDEST SWAP3 SWAP2 POP POP JUMP JUMPDEST PUSH0 DUP1 PUSH1 0x40 DUP4 DUP6 SUB SLT ISZERO PUSH2 0x306B JUMPI PUSH2 0x306A PUSH2 0x2824 JUMP JUMPDEST JUMPDEST PUSH0 DUP4 ADD CALLDATALOAD PUSH8 0xFFFFFFFFFFFFFFFF DUP2 GT ISZERO PUSH2 0x3088 JUMPI PUSH2 0x3087 PUSH2 0x2828 JUMP JUMPDEST JUMPDEST PUSH2 0x3094 DUP6 DUP3 DUP7 ADD PUSH2 0x293B JUMP JUMPDEST SWAP3 POP POP PUSH1 0x20 DUP4 ADD CALLDATALOAD PUSH8 0xFFFFFFFFFFFFFFFF DUP2 GT ISZERO PUSH2 0x30B5 JUMPI PUSH2 0x30B4 PUSH2 0x2828 JUMP JUMPDEST JUMPDEST PUSH2 0x30C1 DUP6 DUP3 DUP7 ADD PUSH2 0x2D4C JUMP JUMPDEST SWAP2 POP POP SWAP3 POP SWAP3 SWAP1 POP JUMP JUMPDEST PUSH0 PUSH2 0x30D5 DUP3 PUSH2 0x2D79 JUMP JUMPDEST SWAP1 POP SWAP2 SWAP1 POP JUMP JUMPDEST PUSH2 0x30E5 DUP2 PUSH2 0x30CB JUMP JUMPDEST DUP3 MSTORE POP POP JUMP JUMPDEST PUSH0 PUSH1 0x20 DUP3 ADD SWAP1 POP PUSH2 0x30FE PUSH0 DUP4 ADD DUP5 PUSH2 0x30DC JUMP JUMPDEST SWAP3 SWAP2 POP POP JUMP JUMPDEST PUSH0 PUSH1 0x20 DUP3 DUP5 SUB SLT ISZERO PUSH2 0x3119 JUMPI PUSH2 0x3118 PUSH2 0x2824 JUMP JUMPDEST JUMPDEST PUSH0 PUSH2 0x3126 DUP5 DUP3 DUP6 ADD PUSH2 0x2DBF JUMP JUMPDEST SWAP2 POP POP SWAP3 SWAP2 POP POP JUMP JUMPDEST PUSH0 DUP3 DUP3 MSTORE PUSH1 0x20 DUP3 ADD SWAP1 POP SWAP3 SWAP2 POP POP JUMP JUMPDEST PUSH32 0x5468652063616C6C657220697320616E6F7468657220636F6E74726163740000 PUSH0 DUP3 ADD MSTORE POP JUMP JUMPDEST PUSH0 PUSH2 0x3173 PUSH1 0x1E DUP4 PUSH2 0x312F JUMP JUMPDEST SWAP2 POP PUSH2 0x317E DUP3 PUSH2 0x313F JUMP JUMPDEST PUSH1 0x20 DUP3 ADD SWAP1 POP SWAP2 SWAP1 POP JUMP JUMPDEST PUSH0 PUSH1 0x20 DUP3 ADD SWAP1 POP DUP2 DUP2 SUB PUSH0 DUP4 ADD MSTORE PUSH2 0x31A0 DUP2 PUSH2 0x3167 JUMP JUMPDEST SWAP1 POP SWAP2 SWAP1 POP JUMP JUMPDEST PUSH0 DUP2 SWAP1 POP SWAP3 SWAP2 POP POP JUMP JUMPDEST PUSH0 PUSH2 0x31BB DUP3 PUSH2 0x2C41 JUMP JUMPDEST PUSH2 0x31C5 DUP2 DUP6 PUSH2 0x31A7 JUMP JUMPDEST SWAP4 POP PUSH2 0x31D5 DUP2 DUP6 PUSH1 0x20 DUP7 ADD PUSH2 0x2C5B JUMP JUMPDEST DUP1 DUP5 ADD SWAP2 POP POP SWAP3 SWAP2 POP POP JUMP JUMPDEST PUSH0 PUSH2 0x31EC DUP3 DUP5 PUSH2 0x31B1 JUMP JUMPDEST SWAP2 POP DUP2 SWAP1 POP SWAP3 SWAP2 POP POP JUMP JUMPDEST PUSH32 0x54686520626F782073616C6520697320656E6400000000000000000000000000 PUSH0 DUP3 ADD MSTORE POP JUMP JUMPDEST PUSH0 PUSH2 0x322B PUSH1 0x13 DUP4 PUSH2 0x312F JUMP JUMPDEST SWAP2 POP PUSH2 0x3236 DUP3 PUSH2 0x31F7 JUMP JUMPDEST PUSH1 0x20 DUP3 ADD SWAP1 POP SWAP2 SWAP1 POP JUMP JUMPDEST PUSH0 PUSH1 0x20 DUP3 ADD SWAP1 POP DUP2 DUP2 SUB PUSH0 DUP4 ADD MSTORE PUSH2 0x3258 DUP2 PUSH2 0x321F JUMP JUMPDEST SWAP1 POP SWAP2 SWAP1 POP JUMP JUMPDEST PUSH32 0x426F7820636E74206973207A65726F0000000000000000000000000000000000 PUSH0 DUP3 ADD MSTORE POP JUMP JUMPDEST PUSH0 PUSH2 0x3293 PUSH1 0xF DUP4 PUSH2 0x312F JUMP JUMPDEST SWAP2 POP PUSH2 0x329E DUP3 PUSH2 0x325F JUMP JUMPDEST PUSH1 0x20 DUP3 ADD SWAP1 POP SWAP2 SWAP1 POP JUMP JUMPDEST PUSH0 PUSH1 0x20 DUP3 ADD SWAP1 POP DUP2 DUP2 SUB PUSH0 DUP4 ADD MSTORE PUSH2 0x32C0 DUP2 PUSH2 0x3287 JUMP JUMPDEST SWAP1 POP SWAP2 SWAP1 POP JUMP JUMPDEST PUSH32 0x496E73756666696369656E7420426F7820616D6F756E74000000000000000000 PUSH0 DUP3 ADD MSTORE POP JUMP JUMPDEST PUSH0 PUSH2 0x32FB PUSH1 0x17 DUP4 PUSH2 0x312F JUMP JUMPDEST SWAP2 POP PUSH2 0x3306 DUP3 PUSH2 0x32C7 JUMP JUMPDEST PUSH1 0x20 DUP3 ADD SWAP1 POP SWAP2 SWAP1 POP JUMP JUMPDEST PUSH0 PUSH1 0x20 DUP3 ADD SWAP1 POP DUP2 DUP2 SUB PUSH0 DUP4 ADD MSTORE PUSH2 0x3328 DUP2 PUSH2 0x32EF JUMP JUMPDEST SWAP1 POP SWAP2 SWAP1 POP JUMP JUMPDEST PUSH0 DUP2 MLOAD SWAP1 POP SWAP2 SWAP1 POP JUMP JUMPDEST PUSH0 PUSH2 0x3343 DUP3 PUSH2 0x332F JUMP JUMPDEST PUSH2 0x334D DUP2 DUP6 PUSH2 0x312F JUMP JUMPDEST SWAP4 POP PUSH2 0x335D DUP2 DUP6 PUSH1 0x20 DUP7 ADD PUSH2 0x2C5B JUMP JUMPDEST PUSH2 0x3366 DUP2 PUSH2 0x2834 JUMP JUMPDEST DUP5 ADD SWAP2 POP POP SWAP3 SWAP2 POP POP JUMP JUMPDEST PUSH0 PUSH1 0x60 DUP3 ADD SWAP1 POP DUP2 DUP2 SUB PUSH0 DUP4 ADD MSTORE PUSH2 0x3389 DUP2 DUP7 PUSH2 0x3339 JUMP JUMPDEST SWAP1 POP PUSH2 0x3398 PUSH1 0x20 DUP4 ADD DUP6 PUSH2 0x27F3 JUMP JUMPDEST PUSH2 0x33A5 PUSH1 0x40 DUP4 ADD DUP5 PUSH2 0x27F3 JUMP JUMPDEST SWAP5 SWAP4 POP POP POP POP JUMP JUMPDEST PUSH32 0x4E487B7100000000000000000000000000000000000000000000000000000000 PUSH0 MSTORE PUSH1 0x32 PUSH1 0x4 MSTORE PUSH1 0x24 PUSH0 REVERT JUMPDEST PUSH32 0x496E73756666696369656E7420626F7820616C6C6F6361746520636E74000000 PUSH0 DUP3 ADD MSTORE POP JUMP JUMPDEST PUSH0 PUSH2 0x340E PUSH1 0x1D DUP4 PUSH2 0x312F JUMP JUMPDEST SWAP2 POP PUSH2 0x3419 DUP3 PUSH2 0x33DA JUMP JUMPDEST PUSH1 0x20 DUP3 ADD SWAP1 POP SWAP2 SWAP1 POP JUMP JUMPDEST PUSH0 PUSH1 0x20 DUP3 ADD SWAP1 POP DUP2 DUP2 SUB PUSH0 DUP4 ADD MSTORE PUSH2 0x343B DUP2 PUSH2 0x3402 JUMP JUMPDEST SWAP1 POP SWAP2 SWAP1 POP JUMP JUMPDEST PUSH0 PUSH1 0x40 DUP3 ADD SWAP1 POP DUP2 DUP2 SUB PUSH0 DUP4 ADD MSTORE PUSH2 0x345A DUP2 DUP6 PUSH2 0x3339 JUMP JUMPDEST SWAP1 POP PUSH2 0x3469 PUSH1 0x20 DUP4 ADD DUP5 PUSH2 0x27F3 JUMP JUMPDEST SWAP4 SWAP3 POP POP POP JUMP JUMPDEST PUSH32 0x4E487B7100000000000000000000000000000000000000000000000000000000 PUSH0 MSTORE PUSH1 0x11 PUSH1 0x4 MSTORE PUSH1 0x24 PUSH0 REVERT JUMPDEST PUSH0 PUSH2 0x34A7 DUP3 PUSH2 0x27EA JUMP JUMPDEST SWAP2 POP PUSH32 0xFFFFFFFFFFFFFFFFFFFFFFFFFFFFFFFFFFFFFFFFFFFFFFFFFFFFFFFFFFFFFFFF DUP3 SUB PUSH2 0x34D9 JUMPI PUSH2 0x34D8 PUSH2 0x3470 JUMP JUMPDEST JUMPDEST PUSH1 0x1 DUP3 ADD SWAP1 POP SWAP2 SWAP1 POP JUMP JUMPDEST PUSH32 0x54687320736F7572636520737472696E67206578636565647320333220627974 PUSH0 DUP3 ADD MSTORE PUSH32 0x6573000000000000000000000000000000000000000000000000000000000000 PUSH1 0x20 DUP3 ADD MSTORE POP JUMP JUMPDEST PUSH0 PUSH2 0x353E PUSH1 0x22 DUP4 PUSH2 0x312F JUMP JUMPDEST SWAP2 POP PUSH2 0x3549 DUP3 PUSH2 0x34E4 JUMP JUMPDEST PUSH1 0x40 DUP3 ADD SWAP1 POP SWAP2 SWAP1 POP JUMP JUMPDEST PUSH0 PUSH1 0x20 DUP3 ADD SWAP1 POP DUP2 DUP2 SUB PUSH0 DUP4 ADD MSTORE PUSH2 0x356B DUP2 PUSH2 0x3532 JUMP JUMPDEST SWAP1 POP SWAP2 SWAP1 POP JUMP JUMPDEST PUSH32 0x496E73756666696369656E7420426F7820636E74000000000000000000000000 PUSH0 DUP3 ADD MSTORE POP JUMP JUMPDEST PUSH0 PUSH2 0x35A6 PUSH1 0x14 DUP4 PUSH2 0x312F JUMP JUMPDEST SWAP2 POP PUSH2 0x35B1 DUP3 PUSH2 0x3572 JUMP JUMPDEST PUSH1 0x20 DUP3 ADD SWAP1 POP SWAP2 SWAP1 POP JUMP JUMPDEST PUSH0 PUSH1 0x20 DUP3 ADD SWAP1 POP DUP2 DUP2 SUB PUSH0 DUP4 ADD MSTORE PUSH2 0x35D3 DUP2 PUSH2 0x359A JUMP JUMPDEST SWAP1 POP SWAP2 SWAP1 POP JUMP JUMPDEST PUSH32 0x496E73756666696369656E7420426F782062616C616E63650000000000000000 PUSH0 DUP3 ADD MSTORE POP JUMP JUMPDEST PUSH0 PUSH2 0x360E PUSH1 0x18 DUP4 PUSH2 0x312F JUMP JUMPDEST SWAP2 POP PUSH2 0x3619 DUP3 PUSH2 0x35DA JUMP JUMPDEST PUSH1 0x20 DUP3 ADD SWAP1 POP SWAP2 SWAP1 POP JUMP JUMPDEST PUSH0 PUSH1 0x20 DUP3 ADD SWAP1 POP DUP2 DUP2 SUB PUSH0 DUP4 ADD MSTORE PUSH2 0x363B DUP2 PUSH2 0x3602 JUMP JUMPDEST SWAP1 POP SWAP2 SWAP1 POP JUMP JUMPDEST PUSH32 0x4E487B7100000000000000000000000000000000000000000000000000000000 PUSH0 MSTORE PUSH1 0x21 PUSH1 0x4 MSTORE PUSH1 0x24 PUSH0 REVERT JUMPDEST PUSH1 0x2 DUP2 LT PUSH2 0x3680 JUMPI PUSH2 0x367F PUSH2 0x3642 JUMP JUMPDEST JUMPDEST POP JUMP JUMPDEST PUSH0 DUP2 SWAP1 POP PUSH2 0x3690 DUP3 PUSH2 0x366F JUMP JUMPDEST SWAP2 SWAP1 POP JUMP JUMPDEST PUSH0 PUSH2 0x369F DUP3 PUSH2 0x3683 JUMP JUMPDEST SWAP1 POP SWAP2 SWAP1 POP JUMP JUMPDEST PUSH2 0x36AF DUP2 PUSH2 0x3695 JUMP JUMPDEST DUP3 MSTORE POP POP JUMP JUMPDEST PUSH0 PUSH1 0xA0 DUP3 ADD SWAP1 POP DUP2 DUP2 SUB PUSH0 DUP4 ADD MSTORE PUSH2 0x36CD DUP2 DUP9 PUSH2 0x3339 JUMP JUMPDEST SWAP1 POP PUSH2 0x36DC PUSH1 0x20 DUP4 ADD DUP8 PUSH2 0x27F3 JUMP JUMPDEST PUSH2 0x36E9 PUSH1 0x40 DUP4 ADD DUP7 PUSH2 0x27F3 JUMP JUMPDEST PUSH2 0x36F6 PUSH1 0x60 DUP4 ADD DUP6 PUSH2 0x36A6 JUMP JUMPDEST PUSH2 0x3703 PUSH1 0x80 DUP4 ADD DUP5 PUSH2 0x27F3 JUMP JUMPDEST SWAP7 SWAP6 POP POP POP POP POP POP JUMP JUMPDEST PUSH32 0x496E73756666696369656E7420636C61696D20616D6F756E7400000000000000 PUSH0 DUP3 ADD MSTORE POP JUMP JUMPDEST PUSH0 PUSH2 0x3741 PUSH1 0x19 DUP4 PUSH2 0x312F JUMP JUMPDEST SWAP2 POP PUSH2 0x374C DUP3 PUSH2 0x370D JUMP JUMPDEST PUSH1 0x20 DUP3 ADD SWAP1 POP SWAP2 SWAP1 POP JUMP JUMPDEST PUSH0 PUSH1 0x20 DUP3 ADD SWAP1 POP DUP2 DUP2 SUB PUSH0 DUP4 ADD MSTORE PUSH2 0x376E DUP2 PUSH2 0x3735 JUMP JUMPDEST SWAP1 POP SWAP2 SWAP1 POP JUMP JUMPDEST PUSH32 0x496E73756666696369656E742070617920616D6F756E74000000000000000000 PUSH0 DUP3 ADD MSTORE POP JUMP JUMPDEST PUSH0 PUSH2 0x37A9 PUSH1 0x17 DUP4 PUSH2 0x312F JUMP JUMPDEST SWAP2 POP PUSH2 0x37B4 DUP3 PUSH2 0x3775 JUMP JUMPDEST PUSH1 0x20 DUP3 ADD SWAP1 POP SWAP2 SWAP1 POP JUMP JUMPDEST PUSH0 PUSH1 0x20 DUP3 ADD SWAP1 POP DUP2 DUP2 SUB PUSH0 DUP4 ADD MSTORE PUSH2 0x37D6 DUP2 PUSH2 0x379D JUMP JUMPDEST SWAP1 POP SWAP2 SWAP1 POP JUMP JUMPDEST PUSH32 0x546865206D657461206578697374000000000000000000000000000000000000 PUSH0 DUP3 ADD MSTORE POP JUMP JUMPDEST PUSH0 PUSH2 0x3811 PUSH1 0xE DUP4 PUSH2 0x312F JUMP JUMPDEST SWAP2 POP PUSH2 0x381C DUP3 PUSH2 0x37DD JUMP JUMPDEST PUSH1 0x20 DUP3 ADD SWAP1 POP SWAP2 SWAP1 POP JUMP JUMPDEST PUSH0 PUSH1 0x20 DUP3 ADD SWAP1 POP DUP2 DUP2 SUB PUSH0 DUP4 ADD MSTORE PUSH2 0x383E DUP2 PUSH2 0x3805 JUMP JUMPDEST SWAP1 POP SWAP2 SWAP1 POP JUMP JUMPDEST PUSH0 DUP2 PUSH1 0x60 SHL SWAP1 POP SWAP2 SWAP1 POP JUMP JUMPDEST PUSH0 PUSH2 0x385B DUP3 PUSH2 0x3845 JUMP JUMPDEST SWAP1 POP SWAP2 SWAP1 POP JUMP JUMPDEST PUSH0 PUSH2 0x386C DUP3 PUSH2 0x3851 JUMP JUMPDEST SWAP1 POP SWAP2 SWAP1 POP JUMP JUMPDEST PUSH2 0x3884 PUSH2 0x387F DUP3 PUSH2 0x2D98 JUMP JUMPDEST PUSH2 0x3862 JUMP JUMPDEST DUP3 MSTORE POP POP JUMP JUMPDEST PUSH0 DUP2 SWAP1 POP SWAP3 SWAP2 POP POP JUMP JUMPDEST PUSH0 PUSH2 0x389E DUP3 PUSH2 0x332F JUMP JUMPDEST PUSH2 0x38A8 DUP2 DUP6 PUSH2 0x388A JUMP JUMPDEST SWAP4 POP PUSH2 0x38B8 DUP2 DUP6 PUSH1 0x20 DUP7 ADD PUSH2 0x2C5B JUMP JUMPDEST DUP1 DUP5 ADD SWAP2 POP POP SWAP3 SWAP2 POP POP JUMP JUMPDEST PUSH0 DUP2 SWAP1 POP SWAP2 SWAP1 POP JUMP JUMPDEST PUSH2 0x38DE PUSH2 0x38D9 DUP3 PUSH2 0x27EA JUMP JUMPDEST PUSH2 0x38C4 JUMP JUMPDEST DUP3 MSTORE POP POP JUMP JUMPDEST PUSH0 PUSH2 0x38EF DUP3 DUP7 PUSH2 0x3873 JUMP JUMPDEST PUSH1 0x14 DUP3 ADD SWAP2 POP PUSH2 0x38FF DUP3 DUP6 PUSH2 0x3894 JUMP JUMPDEST SWAP2 POP PUSH2 0x390B DUP3 DUP5 PUSH2 0x38CD JUMP JUMPDEST PUSH1 0x20 DUP3 ADD SWAP2 POP DUP2 SWAP1 POP SWAP5 SWAP4 POP POP POP POP JUMP JUMPDEST PUSH32 0x546865207369676E617475726520697320696E76616C69640000000000000000 PUSH0 DUP3 ADD MSTORE POP JUMP JUMPDEST PUSH0 PUSH2 0x3950 PUSH1 0x18 DUP4 PUSH2 0x312F JUMP JUMPDEST SWAP2 POP PUSH2 0x395B DUP3 PUSH2 0x391C JUMP JUMPDEST PUSH1 0x20 DUP3 ADD SWAP1 POP SWAP2 SWAP1 POP JUMP JUMPDEST PUSH0 PUSH1 0x20 DUP3 ADD SWAP1 POP DUP2 DUP2 SUB PUSH0 DUP4 ADD MSTORE PUSH2 0x397D DUP2 PUSH2 0x3944 JUMP JUMPDEST SWAP1 POP SWAP2 SWAP1 POP JUMP JUMPDEST PUSH0 DUP2 PUSH1 0x1 SHR SWAP1 POP SWAP2 SWAP1 POP JUMP JUMPDEST PUSH0 DUP1 DUP3 SWAP2 POP DUP4 SWAP1 POP JUMPDEST PUSH1 0x1 DUP6 GT ISZERO PUSH2 0x39D9 JUMPI DUP1 DUP7 DIV DUP2 GT ISZERO PUSH2 0x39B5 JUMPI PUSH2 0x39B4 PUSH2 0x3470 JUMP JUMPDEST JUMPDEST PUSH1 0x1 DUP6 AND ISZERO PUSH2 0x39C4 JUMPI DUP1 DUP3 MUL SWAP2 POP JUMPDEST DUP1 DUP2 MUL SWAP1 POP PUSH2 0x39D2 DUP6 PUSH2 0x3984 JUMP JUMPDEST SWAP5 POP PUSH2 0x3999 JUMP JUMPDEST SWAP5 POP SWAP5 SWAP3 POP POP POP JUMP JUMPDEST PUSH0 DUP3 PUSH2 0x39F1 JUMPI PUSH1 0x1 SWAP1 POP PUSH2 0x3AAC JUMP JUMPDEST DUP2 PUSH2 0x39FE JUMPI PUSH0 SWAP1 POP PUSH2 0x3AAC JUMP JUMPDEST DUP2 PUSH1 0x1 DUP2 EQ PUSH2 0x3A14 JUMPI PUSH1 0x2 DUP2 EQ PUSH2 0x3A1E JUMPI PUSH2 0x3A4D JUMP JUMPDEST PUSH1 0x1 SWAP2 POP POP PUSH2 0x3AAC JUMP JUMPDEST PUSH1 0xFF DUP5 GT ISZERO PUSH2 0x3A30 JUMPI PUSH2 0x3A2F PUSH2 0x3470 JUMP JUMPDEST JUMPDEST DUP4 PUSH1 0x2 EXP SWAP2 POP DUP5 DUP3 GT ISZERO PUSH2 0x3A47 JUMPI PUSH2 0x3A46 PUSH2 0x3470 JUMP JUMPDEST JUMPDEST POP PUSH2 0x3AAC JUMP JUMPDEST POP PUSH1 0x20 DUP4 LT PUSH2 0x133 DUP4 LT AND PUSH1 0x4E DUP5 LT PUSH1 0xB DUP5 LT AND OR ISZERO PUSH2 0x3A82 JUMPI DUP3 DUP3 EXP SWAP1 POP DUP4 DUP2 GT ISZERO PUSH2 0x3A7D JUMPI PUSH2 0x3A7C PUSH2 0x3470 JUMP JUMPDEST JUMPDEST PUSH2 0x3AAC JUMP JUMPDEST PUSH2 0x3A8F DUP5 DUP5 DUP5 PUSH1 0x1 PUSH2 0x3990 JUMP JUMPDEST SWAP3 POP SWAP1 POP DUP2 DUP5 DIV DUP2 GT ISZERO PUSH2 0x3AA6 JUMPI PUSH2 0x3AA5 PUSH2 0x3470 JUMP JUMPDEST JUMPDEST DUP2 DUP2 MUL SWAP1 POP JUMPDEST SWAP4 SWAP3 POP POP POP JUMP JUMPDEST PUSH0 PUSH1 0xFF DUP3 AND SWAP1 POP SWAP2 SWAP1 POP JUMP JUMPDEST PUSH0 PUSH2 0x3AC9 DUP3 PUSH2 0x27EA JUMP JUMPDEST SWAP2 POP PUSH2 0x3AD4 DUP4 PUSH2 0x3AB3 JUMP JUMPDEST SWAP3 POP PUSH2 0x3B01 PUSH32 0xFFFFFFFFFFFFFFFFFFFFFFFFFFFFFFFFFFFFFFFFFFFFFFFFFFFFFFFFFFFFFFFF DUP5 DUP5 PUSH2 0x39E2 JUMP JUMPDEST SWAP1 POP SWAP3 SWAP2 POP POP JUMP JUMPDEST PUSH32 0x6D7574695F7369676E206973207A65726F206164647265737373000000000000 PUSH0 DUP3 ADD MSTORE POP JUMP JUMPDEST PUSH0 PUSH2 0x3B3D PUSH1 0x1A DUP4 PUSH2 0x312F JUMP JUMPDEST SWAP2 POP PUSH2 0x3B48 DUP3 PUSH2 0x3B09 JUMP JUMPDEST PUSH1 0x20 DUP3 ADD SWAP1 POP SWAP2 SWAP1 POP JUMP JUMPDEST PUSH0 PUSH1 0x20 DUP3 ADD SWAP1 POP DUP2 DUP2 SUB PUSH0 DUP4 ADD MSTORE PUSH2 0x3B6A DUP2 PUSH2 0x3B31 JUMP JUMPDEST SWAP1 POP SWAP2 SWAP1 POP JUMP JUMPDEST PUSH0 PUSH2 0x3B7B DUP3 PUSH2 0x27EA JUMP JUMPDEST SWAP2 POP PUSH2 0x3B86 DUP4 PUSH2 0x27EA JUMP JUMPDEST SWAP3 POP DUP3 DUP3 MUL PUSH2 0x3B94 DUP2 PUSH2 0x27EA JUMP JUMPDEST SWAP2 POP DUP3 DUP3 DIV DUP5 EQ DUP4 ISZERO OR PUSH2 0x3BAB JUMPI PUSH2 0x3BAA PUSH2 0x3470 JUMP JUMPDEST JUMPDEST POP SWAP3 SWAP2 POP POP JUMP JUMPDEST PUSH0 PUSH2 0x3BBC DUP3 PUSH2 0x27EA JUMP JUMPDEST SWAP2 POP PUSH2 0x3BC7 DUP4 PUSH2 0x27EA JUMP JUMPDEST SWAP3 POP DUP3 DUP3 ADD SWAP1 POP DUP1 DUP3 GT ISZERO PUSH2 0x3BDF JUMPI PUSH2 0x3BDE PUSH2 0x3470 JUMP JUMPDEST JUMPDEST SWAP3 SWAP2 POP POP JUMP JUMPDEST PUSH0 PUSH2 0x3BEF DUP3 PUSH2 0x27EA JUMP JUMPDEST SWAP2 POP PUSH2 0x3BFA DUP4 PUSH2 0x27EA JUMP JUMPDEST SWAP3 POP DUP3 DUP3 SUB SWAP1 POP DUP2 DUP2 GT ISZERO PUSH2 0x3C12 JUMPI PUSH2 0x3C11 PUSH2 0x3470 JUMP JUMPDEST JUMPDEST SWAP3 SWAP2 POP POP JUMP JUMPDEST PUSH32 0x4E487B7100000000000000000000000000000000000000000000000000000000 PUSH0 MSTORE PUSH1 0x12 PUSH1 0x4 MSTORE PUSH1 0x24 PUSH0 REVERT JUMPDEST PUSH0 PUSH2 0x3C4F DUP3 PUSH2 0x27EA JUMP JUMPDEST SWAP2 POP PUSH2 0x3C5A DUP4 PUSH2 0x27EA JUMP JUMPDEST SWAP3 POP DUP3 PUSH2 0x3C6A JUMPI PUSH2 0x3C69 PUSH2 0x3C18 JUMP JUMPDEST JUMPDEST DUP3 DUP3 DIV SWAP1 POP SWAP3 SWAP2 POP POP JUMP JUMPDEST PUSH0 DUP2 SWAP1 POP SWAP2 SWAP1 POP JUMP JUMPDEST PUSH2 0x3C87 DUP2 PUSH2 0x3C75 JUMP JUMPDEST DUP3 MSTORE POP POP JUMP JUMPDEST PUSH0 PUSH1 0x20 DUP3 ADD SWAP1 POP PUSH2 0x3CA0 PUSH0 DUP4 ADD DUP5 PUSH2 0x3C7E JUMP JUMPDEST SWAP3 SWAP2 POP POP JUMP JUMPDEST PUSH2 0x3CAF DUP2 PUSH2 0x3AB3 JUMP JUMPDEST DUP3 MSTORE POP POP JUMP JUMPDEST PUSH0 PUSH1 0x80 DUP3 ADD SWAP1 POP PUSH2 0x3CC8 PUSH0 DUP4 ADD DUP8 PUSH2 0x3C7E JUMP JUMPDEST PUSH2 0x3CD5 PUSH1 0x20 DUP4 ADD DUP7 PUSH2 0x3CA6 JUMP JUMPDEST PUSH2 0x3CE2 PUSH1 0x40 DUP4 ADD DUP6 PUSH2 0x3C7E JUMP JUMPDEST PUSH2 0x3CEF PUSH1 0x60 DUP4 ADD DUP5 PUSH2 0x3C7E JUMP JUMPDEST SWAP6 SWAP5 POP POP POP POP POP JUMP INVALID LOG2 PUSH5 0x6970667358 0x22 SLT KECCAK256 BASEFEE 0xF PUSH16 0xCC2F9ED47352A413B819FF05441E2CFD PUSH10 0xC0AEE52C95538A9732CE RETURNDATACOPY SSTORE PUSH5 0x736F6C6343 STOP ADDMOD EQ STOP CALLER "
		},
		"gasEstimates": {
			"creation": {
				"codeDepositCost": "3132400",
				"executionCost": "infinite",
				"totalCost": "infinite"
			},
			"external": {
				"BOX_FARM_FEE()": "2472",
				"BOX_OWNER_FEE()": "2536",
				"BOX_PLATFORM_FEE()": "2493",
				"BOX_SALE_CNT()": "370",
				"BOX_SALE_PERIOD()": "393",
				"BOX_TRADE_FEE()": "2492",
				"PER_BOX_GAS()": "413",
				"PER_BOX_PRICE()": "415",
				"_boxPrices(uint256)": "infinite",
				"_metaBoxBalance(bytes,address)": "infinite",
				"_mutiSign()": "2619",
				"_nonces(address)": "2847",
				"_signOwner()": "2554",
				"_stringToBytes(string)": "infinite",
				"boxAllocate(string,(uint256,uint256)[])": "infinite",
				"boxBuy(string,uint256)": "infinite",
				"boxClaim(string)": "infinite",
				"boxPreSale(string,uint256)": "infinite",
				"boxSell(string,uint256)": "infinite",
				"calculateBoxPrice(uint256)": "infinite",
				"getBoxCnt(string,address)": "infinite",
				"getBuyAmount(string,uint256)": "infinite",
				"getSellAmount(string,uint256)": "infinite",
				"owner()": "2560",
				"renounceOwnership()": "infinite",
				"setBoxFee(uint256,uint256,uint256)": "infinite",
				"setBoxPrice((uint256,uint256)[])": "infinite",
				"setMutiSign(address)": "infinite",
				"startBox(string,bytes)": "infinite",
				"transferOwnership(address)": "infinite"
			},
			"internal": {
				"calculateBuyAmount(bytes memory,uint256)": "infinite",
				"calculateSellAmount(bytes memory,uint256)": "infinite",
				"distributeFees(bytes memory,uint256)": "infinite",
				"pushAddressArray(bytes memory,address)": "infinite",
				"sqrt(uint256)": "infinite"
			}
		},
		"methodIdentifiers": {
			"BOX_FARM_FEE()": "0b775510",
			"BOX_OWNER_FEE()": "c724940f",
			"BOX_PLATFORM_FEE()": "3beab570",
			"BOX_SALE_CNT()": "5085d4d8",
			"BOX_SALE_PERIOD()": "8690e716",
			"BOX_TRADE_FEE()": "ba7d5bfd",
			"PER_BOX_GAS()": "e20f7997",
			"PER_BOX_PRICE()": "44ed635a",
			"_boxPrices(uint256)": "52a13a56",
			"_metaBoxBalance(bytes,address)": "20b638b8",
			"_mutiSign()": "b791fd9f",
			"_nonces(address)": "b9844d8d",
			"_signOwner()": "73db533d",
			"_stringToBytes(string)": "1b4f7e28",
			"boxAllocate(string,(uint256,uint256)[])": "10225b48",
			"boxBuy(string,uint256)": "909aa42a",
			"boxClaim(string)": "86bde413",
			"boxPreSale(string,uint256)": "0f09e5e2",
			"boxSell(string,uint256)": "2be32d32",
			"calculateBoxPrice(uint256)": "c5695aef",
			"getBoxCnt(string,address)": "30762af7",
			"getBuyAmount(string,uint256)": "de2fe26a",
			"getSellAmount(string,uint256)": "473d833c",
			"owner()": "8da5cb5b",
			"renounceOwnership()": "715018a6",
			"setBoxFee(uint256,uint256,uint256)": "116643c5",
			"setBoxPrice((uint256,uint256)[])": "51c651a8",
			"setMutiSign(address)": "cc9d1974",
			"startBox(string,bytes)": "ad006b2f",
			"transferOwnership(address)": "f2fde38b"
		}
	},
	"abi": [
		{
			"inputs": [],
			"stateMutability": "nonpayable",
			"type": "constructor"
		},
		{
			"inputs": [],
			"name": "ECDSAInvalidSignature",
			"type": "error"
		},
		{
			"inputs": [
				{
					"internalType": "uint256",
					"name": "length",
					"type": "uint256"
				}
			],
			"name": "ECDSAInvalidSignatureLength",
			"type": "error"
		},
		{
			"inputs": [
				{
					"internalType": "bytes32",
					"name": "s",
					"type": "bytes32"
				}
			],
			"name": "ECDSAInvalidSignatureS",
			"type": "error"
		},
		{
			"inputs": [
				{
					"internalType": "address",
					"name": "owner",
					"type": "address"
				}
			],
			"name": "OwnableInvalidOwner",
			"type": "error"
		},
		{
			"inputs": [
				{
					"internalType": "address",
					"name": "account",
					"type": "address"
				}
			],
			"name": "OwnableUnauthorizedAccount",
			"type": "error"
		},
		{
			"anonymous": false,
			"inputs": [
				{
					"indexed": true,
					"internalType": "address",
					"name": "sender",
					"type": "address"
				},
				{
					"indexed": false,
					"internalType": "string",
					"name": "meta",
					"type": "string"
				},
				{
					"indexed": false,
					"internalType": "uint256",
					"name": "order_index",
					"type": "uint256"
				}
			],
			"name": "BoxAllocateRefund",
			"type": "event"
		},
		{
			"anonymous": false,
			"inputs": [
				{
					"indexed": true,
					"internalType": "address",
					"name": "sender",
					"type": "address"
				},
				{
					"indexed": false,
					"internalType": "string",
					"name": "meta",
					"type": "string"
				},
				{
					"indexed": false,
					"internalType": "uint256",
					"name": "claim_amount",
					"type": "uint256"
				}
			],
			"name": "BoxClaim",
			"type": "event"
		},
		{
			"anonymous": false,
			"inputs": [
				{
					"indexed": true,
					"internalType": "address",
					"name": "sender",
					"type": "address"
				},
				{
					"indexed": false,
					"internalType": "string",
					"name": "meta",
					"type": "string"
				},
				{
					"indexed": false,
					"internalType": "uint256",
					"name": "order_index",
					"type": "uint256"
				},
				{
					"indexed": false,
					"internalType": "uint256",
					"name": "box_cnt",
					"type": "uint256"
				}
			],
			"name": "BoxSale",
			"type": "event"
		},
		{
			"anonymous": false,
			"inputs": [
				{
					"indexed": true,
					"internalType": "address",
					"name": "sender",
					"type": "address"
				},
				{
					"indexed": false,
					"internalType": "string",
					"name": "meta",
					"type": "string"
				},
				{
					"indexed": false,
					"internalType": "uint256",
					"name": "expireTime",
					"type": "uint256"
				}
			],
			"name": "BoxStart",
			"type": "event"
		},
		{
			"anonymous": false,
			"inputs": [
				{
					"indexed": true,
					"internalType": "address",
					"name": "sender",
					"type": "address"
				},
				{
					"indexed": false,
					"internalType": "string",
					"name": "meta",
					"type": "string"
				},
				{
					"indexed": false,
					"internalType": "uint256",
					"name": "amount",
					"type": "uint256"
				},
				{
					"indexed": false,
					"internalType": "uint256",
					"name": "fees",
					"type": "uint256"
				},
				{
					"indexed": false,
					"internalType": "enum DeboxBoxAllocate.TradeType",
					"name": "trade_type",
					"type": "uint8"
				},
				{
					"indexed": false,
					"internalType": "uint256",
					"name": "box_cnt",
					"type": "uint256"
				}
			],
			"name": "BoxTrade",
			"type": "event"
		},
		{
			"anonymous": false,
			"inputs": [
				{
					"indexed": true,
					"internalType": "address",
					"name": "sender",
					"type": "address"
				},
				{
					"indexed": false,
					"internalType": "bytes",
					"name": "meta",
					"type": "bytes"
				},
				{
					"indexed": false,
					"internalType": "uint256",
					"name": "fees",
					"type": "uint256"
				},
				{
					"indexed": false,
					"internalType": "enum DeboxBoxAllocate.FeeType",
					"name": "fee_type",
					"type": "uint8"
				}
			],
			"name": "DistributeFees",
			"type": "event"
		},
		{
			"anonymous": false,
			"inputs": [
				{
					"indexed": true,
					"internalType": "address",
					"name": "previousOwner",
					"type": "address"
				},
				{
					"indexed": true,
					"internalType": "address",
					"name": "newOwner",
					"type": "address"
				}
			],
			"name": "OwnershipTransferred",
			"type": "event"
		},
		{
			"inputs": [],
			"name": "BOX_FARM_FEE",
			"outputs": [
				{
					"internalType": "uint256",
					"name": "",
					"type": "uint256"
				}
			],
			"stateMutability": "view",
			"type": "function"
		},
		{
			"inputs": [],
			"name": "BOX_OWNER_FEE",
			"outputs": [
				{
					"internalType": "uint256",
					"name": "",
					"type": "uint256"
				}
			],
			"stateMutability": "view",
			"type": "function"
		},
		{
			"inputs": [],
			"name": "BOX_PLATFORM_FEE",
			"outputs": [
				{
					"internalType": "uint256",
					"name": "",
					"type": "uint256"
				}
			],
			"stateMutability": "view",
			"type": "function"
		},
		{
			"inputs": [],
			"name": "BOX_SALE_CNT",
			"outputs": [
				{
					"internalType": "uint256",
					"name": "",
					"type": "uint256"
				}
			],
			"stateMutability": "view",
			"type": "function"
		},
		{
			"inputs": [],
			"name": "BOX_SALE_PERIOD",
			"outputs": [
				{
					"internalType": "uint256",
					"name": "",
					"type": "uint256"
				}
			],
			"stateMutability": "view",
			"type": "function"
		},
		{
			"inputs": [],
			"name": "BOX_TRADE_FEE",
			"outputs": [
				{
					"internalType": "uint256",
					"name": "",
					"type": "uint256"
				}
			],
			"stateMutability": "view",
			"type": "function"
		},
		{
			"inputs": [],
			"name": "PER_BOX_GAS",
			"outputs": [
				{
					"internalType": "uint256",
					"name": "",
					"type": "uint256"
				}
			],
			"stateMutability": "view",
			"type": "function"
		},
		{
			"inputs": [],
			"name": "PER_BOX_PRICE",
			"outputs": [
				{
					"internalType": "uint256",
					"name": "",
					"type": "uint256"
				}
			],
			"stateMutability": "view",
			"type": "function"
		},
		{
			"inputs": [
				{
					"internalType": "uint256",
					"name": "",
					"type": "uint256"
				}
			],
			"name": "_boxPrices",
			"outputs": [
				{
					"internalType": "uint256",
					"name": "",
					"type": "uint256"
				}
			],
			"stateMutability": "view",
			"type": "function"
		},
		{
			"inputs": [
				{
					"internalType": "bytes",
					"name": "",
					"type": "bytes"
				},
				{
					"internalType": "address",
					"name": "",
					"type": "address"
				}
			],
			"name": "_metaBoxBalance",
			"outputs": [
				{
					"internalType": "uint256",
					"name": "",
					"type": "uint256"
				}
			],
			"stateMutability": "view",
			"type": "function"
		},
		{
			"inputs": [],
			"name": "_mutiSign",
			"outputs": [
				{
					"internalType": "address payable",
					"name": "",
					"type": "address"
				}
			],
			"stateMutability": "view",
			"type": "function"
		},
		{
			"inputs": [
				{
					"internalType": "address",
					"name": "",
					"type": "address"
				}
			],
			"name": "_nonces",
			"outputs": [
				{
					"internalType": "uint256",
					"name": "",
					"type": "uint256"
				}
			],
			"stateMutability": "view",
			"type": "function"
		},
		{
			"inputs": [],
			"name": "_signOwner",
			"outputs": [
				{
					"internalType": "address",
					"name": "",
					"type": "address"
				}
			],
			"stateMutability": "view",
			"type": "function"
		},
		{
			"inputs": [
				{
					"internalType": "string",
					"name": "source",
					"type": "string"
				}
			],
			"name": "_stringToBytes",
			"outputs": [
				{
					"internalType": "bytes",
					"name": "",
					"type": "bytes"
				}
			],
			"stateMutability": "pure",
			"type": "function"
		},
		{
			"inputs": [
				{
					"internalType": "string",
					"name": "meta",
					"type": "string"
				},
				{
					"components": [
						{
							"internalType": "uint256",
							"name": "orderIndex",
							"type": "uint256"
						},
						{
							"internalType": "uint256",
							"name": "cnt",
							"type": "uint256"
						}
					],
					"internalType": "struct DeboxBoxAllocate.BoxAllocate[]",
					"name": "box_allocates",
					"type": "tuple[]"
				}
			],
			"name": "boxAllocate",
			"outputs": [],
			"stateMutability": "nonpayable",
			"type": "function"
		},
		{
			"inputs": [
				{
					"internalType": "string",
					"name": "meta",
					"type": "string"
				},
				{
					"internalType": "uint256",
					"name": "cnt",
					"type": "uint256"
				}
			],
			"name": "boxBuy",
			"outputs": [],
			"stateMutability": "payable",
			"type": "function"
		},
		{
			"inputs": [
				{
					"internalType": "string",
					"name": "meta",
					"type": "string"
				}
			],
			"name": "boxClaim",
			"outputs": [],
			"stateMutability": "nonpayable",
			"type": "function"
		},
		{
			"inputs": [
				{
					"internalType": "string",
					"name": "meta",
					"type": "string"
				},
				{
					"internalType": "uint256",
					"name": "box_cnt",
					"type": "uint256"
				}
			],
			"name": "boxPreSale",
			"outputs": [
				{
					"internalType": "bool",
					"name": "",
					"type": "bool"
				}
			],
			"stateMutability": "payable",
			"type": "function"
		},
		{
			"inputs": [
				{
					"internalType": "string",
					"name": "meta",
					"type": "string"
				},
				{
					"internalType": "uint256",
					"name": "cnt",
					"type": "uint256"
				}
			],
			"name": "boxSell",
			"outputs": [],
			"stateMutability": "nonpayable",
			"type": "function"
		},
		{
			"inputs": [
				{
					"internalType": "uint256",
					"name": "x",
					"type": "uint256"
				}
			],
			"name": "calculateBoxPrice",
			"outputs": [
				{
					"internalType": "uint256",
					"name": "",
					"type": "uint256"
				}
			],
			"stateMutability": "pure",
			"type": "function"
		},
		{
			"inputs": [
				{
					"internalType": "string",
					"name": "meta",
					"type": "string"
				},
				{
					"internalType": "address",
					"name": "ca",
					"type": "address"
				}
			],
			"name": "getBoxCnt",
			"outputs": [
				{
					"internalType": "uint256",
					"name": "",
					"type": "uint256"
				}
			],
			"stateMutability": "view",
			"type": "function"
		},
		{
			"inputs": [
				{
					"internalType": "string",
					"name": "meta",
					"type": "string"
				},
				{
					"internalType": "uint256",
					"name": "cnt",
					"type": "uint256"
				}
			],
			"name": "getBuyAmount",
			"outputs": [
				{
					"internalType": "uint256",
					"name": "",
					"type": "uint256"
				},
				{
					"internalType": "uint256",
					"name": "",
					"type": "uint256"
				}
			],
			"stateMutability": "view",
			"type": "function"
		},
		{
			"inputs": [
				{
					"internalType": "string",
					"name": "meta",
					"type": "string"
				},
				{
					"internalType": "uint256",
					"name": "cnt",
					"type": "uint256"
				}
			],
			"name": "getSellAmount",
			"outputs": [
				{
					"internalType": "uint256",
					"name": "",
					"type": "uint256"
				},
				{
					"internalType": "uint256",
					"name": "",
					"type": "uint256"
				}
			],
			"stateMutability": "view",
			"type": "function"
		},
		{
			"inputs": [],
			"name": "owner",
			"outputs": [
				{
					"internalType": "address",
					"name": "",
					"type": "address"
				}
			],
			"stateMutability": "view",
			"type": "function"
		},
		{
			"inputs": [],
			"name": "renounceOwnership",
			"outputs": [],
			"stateMutability": "nonpayable",
			"type": "function"
		},
		{
			"inputs": [
				{
					"internalType": "uint256",
					"name": "owner",
					"type": "uint256"
				},
				{
					"internalType": "uint256",
					"name": "platform",
					"type": "uint256"
				},
				{
					"internalType": "uint256",
					"name": "farm",
					"type": "uint256"
				}
			],
			"name": "setBoxFee",
			"outputs": [],
			"stateMutability": "nonpayable",
			"type": "function"
		},
		{
			"inputs": [
				{
					"components": [
						{
							"internalType": "uint256",
							"name": "boxCnt",
							"type": "uint256"
						},
						{
							"internalType": "uint256",
							"name": "price",
							"type": "uint256"
						}
					],
					"internalType": "struct DeboxBoxAllocate.BoxPrice[]",
					"name": "box_prices",
					"type": "tuple[]"
				}
			],
			"name": "setBoxPrice",
			"outputs": [],
			"stateMutability": "nonpayable",
			"type": "function"
		},
		{
			"inputs": [
				{
					"internalType": "address",
					"name": "muti_sign",
					"type": "address"
				}
			],
			"name": "setMutiSign",
			"outputs": [],
			"stateMutability": "nonpayable",
			"type": "function"
		},
		{
			"inputs": [
				{
					"internalType": "string",
					"name": "meta",
					"type": "string"
				},
				{
					"internalType": "bytes",
					"name": "signature",
					"type": "bytes"
				}
			],
			"name": "startBox",
			"outputs": [],
			"stateMutability": "nonpayable",
			"type": "function"
		},
		{
			"inputs": [
				{
					"internalType": "address",
					"name": "newOwner",
					"type": "address"
				}
			],
			"name": "transferOwnership",
			"outputs": [],
			"stateMutability": "nonpayable",
			"type": "function"
		}
	]
}